{
	"data": {
		"bytecode": {
			"linkReferences": {
				"remix_accounts.sol": {
					"TestsAccounts": [
						{
							"length": 20,
							"start": 10066
						},
						{
							"length": 20,
							"start": 10266
						},
						{
							"length": 20,
							"start": 10466
						},
						{
							"length": 20,
							"start": 10666
						},
						{
							"length": 20,
							"start": 10866
						}
					]
				},
				"remix_tests.sol": {
					"Assert": [
						{
							"length": 20,
							"start": 1998
						},
						{
							"length": 20,
							"start": 2198
						},
						{
							"length": 20,
							"start": 2787
						},
						{
							"length": 20,
							"start": 3030
						},
						{
							"length": 20,
							"start": 4211
						},
						{
							"length": 20,
							"start": 4383
						},
						{
							"length": 20,
							"start": 4576
						},
						{
							"length": 20,
							"start": 4720
						},
						{
							"length": 20,
							"start": 5598
						},
						{
							"length": 20,
							"start": 5770
						},
						{
							"length": 20,
							"start": 5963
						},
						{
							"length": 20,
							"start": 6107
						},
						{
							"length": 20,
							"start": 6422
						},
						{
							"length": 20,
							"start": 6594
						},
						{
							"length": 20,
							"start": 6787
						},
						{
							"length": 20,
							"start": 6931
						},
						{
							"length": 20,
							"start": 7133
						},
						{
							"length": 20,
							"start": 7454
						},
						{
							"length": 20,
							"start": 7626
						},
						{
							"length": 20,
							"start": 7819
						},
						{
							"length": 20,
							"start": 7963
						},
						{
							"length": 20,
							"start": 9414
						},
						{
							"length": 20,
							"start": 9586
						},
						{
							"length": 20,
							"start": 9779
						},
						{
							"length": 20,
							"start": 9923
						},
						{
							"length": 20,
							"start": 11068
						},
						{
							"length": 20,
							"start": 11303
						},
						{
							"length": 20,
							"start": 11538
						},
						{
							"length": 20,
							"start": 11773
						},
						{
							"length": 20,
							"start": 12010
						},
						{
							"length": 20,
							"start": 12258
						},
						{
							"length": 20,
							"start": 12643
						},
						{
							"length": 20,
							"start": 12815
						},
						{
							"length": 20,
							"start": 13008
						},
						{
							"length": 20,
							"start": 13152
						},
						{
							"length": 20,
							"start": 13391
						},
						{
							"length": 20,
							"start": 13572
						},
						{
							"length": 20,
							"start": 14316
						},
						{
							"length": 20,
							"start": 14547
						},
						{
							"length": 20,
							"start": 16513
						},
						{
							"length": 20,
							"start": 16657
						},
						{
							"length": 20,
							"start": 16800
						}
					]
				}
			},
			"object": "60a060405260008060006101000a81548160ff021916908360028111156200002c576200002b620001f9565b5b02179055506000600360006101000a81548160ff021916908360ff1602179055506000600360016101000a81548160ff021916908360ff1602179055506000600360026101000a81548160ff021916908360ff1602179055506040518060200160405280600081525060049080519060200190620000ac92919062000113565b506000600760006101000a81548160ff021916908315150217905550348015620000d557600080fd5b503373ffffffffffffffffffffffffffffffffffffffff1660808173ffffffffffffffffffffffffffffffffffffffff1660601b8152505062000257565b8280546200012190620001c3565b90600052602060002090601f01602090048101928262000145576000855562000191565b82601f106200016057805160ff191683800117855562000191565b8280016001018555821562000191579182015b828111156200019057825182559160200191906001019062000173565b5b509050620001a09190620001a4565b5090565b5b80821115620001bf576000816000905550600101620001a5565b5090565b60006002820490506001821680620001dc57607f821691505b60208210811415620001f357620001f262000228565b5b50919050565b7f4e487b7100000000000000000000000000000000000000000000000000000000600052602160045260246000fd5b7f4e487b7100000000000000000000000000000000000000000000000000000000600052602260045260246000fd5b60805160601c61610d620002d1600039600081816109a3015281816109f80152818161104101528181611065015281816110ba01528181611cd901528181611d2e015281816120000152818161205501528181612c33015281816132dc0152818161333101528181613b2b0152613b80015261610d6000f3fe608060405234801561001057600080fd5b506004361061021c5760003560e01c806377440e0611610125578063b798867f116100ad578063c1b433571161007c578063c1b4335714610468578063c1c16efc14610499578063e9b16ca3146104b7578063fc7ffbba146104e7578063ff289691146104f15761021c565b8063b798867f1461042c578063b92239461461044a578063bbb97ded14610454578063bdb1d7451461045e5761021c565b8063a24a4e88116100f4578063a24a4e88146103e6578063a3bef4d7146103f0578063a5627cf01461040e578063a826724514610418578063a9a4070c146104225761021c565b806377440e06146103be5780637fea0d4b146103c8578063848b4427146103d2578063947aea86146103dc5761021c565b80634c0a6af0116101a8578063632a9a5211610177578063632a9a52146103525780636629d50a1461035c5780636d77bd3e1461036657806371135f8b1461039657806375f12b21146103a05761021c565b80634c0a6af0146103165780634f57569814610320578063512a6fbb1461032a5780635bf5d54c146103345761021c565b80633231d447116101ef5780633231d447146102965780633b9f708d146102a057806344bf1451146102d057806347098f36146102da578063481c6a75146102f85761021c565b806312a4591a1461022157806319a06f271461022b5780631ddabf7a1461025b5780632955fea31461028c575b600080fd5b6102296104fb565b005b61024560048036038101906102409190614458565b61068d565b604051610252919061508d565b60405180910390f35b6102756004803603810190610270919061432c565b61072d565b6040516102839291906150af565b60405180910390f35b6102946107e6565b005b61029e6108a3565b005b6102ba60048036038101906102b59190614386565b61099f565b6040516102c791906153eb565b60405180910390f35b6102d8610cc5565b005b6102e261102c565b6040516102ef91906153eb565b60405180910390f35b61030061103f565b60405161030d9190614c5e565b60405180910390f35b61031e611063565b005b610328611239565b005b610332611595565b005b61033c6118cf565b6040516103499190614fb5565b60405180910390f35b61035a6118e0565b005b61036461199d565b005b610380600480360381019061037b919061440f565b611cd5565b60405161038d91906153eb565b60405180910390f35b61039e611ffe565b005b6103a861210e565b6040516103b59190614d3a565b60405180910390f35b6103c6612121565b005b6103d061247f565b005b6103da612869565b005b6103e4612c17565b005b6103ee612ce5565b005b6103f8612da2565b60405161040591906153eb565b60405180910390f35b610416612db5565b005b61042061311c565b005b61042a613207565b005b6104346132c7565b60405161044191906153eb565b60405180910390f35b6104526132da565b005b61045c613519565b005b6104666135d6565b005b610482600480360381019061047d9190614458565b613696565b604051610490929190614d11565b60405180910390f35b6104a16136e7565b6040516104ae919061508d565b60405180910390f35b6104d160048036038101906104cc9190614458565b613775565b6040516104de9190614d3a565b60405180910390f35b6104ef613b29565b005b6104f9613cff565b005b73__$acbfb1c35000d78352310b16a054a6b106$__63abcd79606105536040518060400160405280600e81526020017f436f757274796172642043616665000000000000000000000000000000000000815250611cd5565b60016040518363ffffffff1660e01b8152600401610572929190615406565b60206040518083038186803b15801561058a57600080fd5b505af415801561059e573d6000803e3d6000fd5b505050506040513d601f19601f820116820180604052508101906105c291906143e2565b5073__$acbfb1c35000d78352310b16a054a6b106$__63abcd796061061b6040518060400160405280600881526020017f556e692043616665000000000000000000000000000000000000000000000000815250611cd5565b60026040518363ffffffff1660e01b815260040161063a929190615442565b60206040518083038186803b15801561065257600080fd5b505af4158015610666573d6000803e3d6000fd5b505050506040513d601f19601f8201168201806040525081019061068a91906143e2565b50565b600160205280600052604060002060009150905080546106ac906157d7565b80601f01602080910402602001604051908101604052809291908181526020018280546106d8906157d7565b80156107255780601f106106fa57610100808354040283529160200191610725565b820191906000526020600020905b81548152906001019060200180831161070857829003601f168201915b505050505081565b6002602052806000526040600020600091509050806000018054610750906157d7565b80601f016020809104026020016040519081016040528092919081815260200182805461077c906157d7565b80156107c95780601f1061079e576101008083540402835291602001916107c9565b820191906000526020600020905b8154815290600101906020018083116107ac57829003601f168201915b5050505050908060010160009054906101000a900460ff16905082565b60016000806101000a81548160ff0219169083600281111561080b5761080a6158c2565b5b021790555073__$acbfb1c35000d78352310b16a054a6b106$__6339df137f6108346002613775565b6040518263ffffffff1660e01b81526004016108509190614f59565b60206040518083038186803b15801561086857600080fd5b505af415801561087c573d6000803e3d6000fd5b505050506040513d601f19601f820116820180604052508101906108a091906143e2565b50565b3073ffffffffffffffffffffffffffffffffffffffff166371135f8b6040518163ffffffff1660e01b8152600401600060405180830381600087803b1580156108eb57600080fd5b505af11580156108ff573d6000803e3d6000fd5b5050505073__$acbfb1c35000d78352310b16a054a6b106$__63767392b3600760009054906101000a900460ff1660016040518363ffffffff1660e01b815260040161094c929190614d55565b60206040518083038186803b15801561096457600080fd5b505af4158015610978573d6000803e3d6000fd5b505050506040513d601f19601f8201168201806040525081019061099c91906143e2565b50565b60007f000000000000000000000000000000000000000000000000000000000000000073ffffffffffffffffffffffffffffffffffffffff163273ffffffffffffffffffffffffffffffffffffffff161480610a4657507f000000000000000000000000000000000000000000000000000000000000000073ffffffffffffffffffffffffffffffffffffffff163373ffffffffffffffffffffffffffffffffffffffff16145b610a85576040517f08c379a0000000000000000000000000000000000000000000000000000000008152600401610a7c9061534f565b60405180910390fd5b826000600260008373ffffffffffffffffffffffffffffffffffffffff1673ffffffffffffffffffffffffffffffffffffffff1681526020019081526020016000206000018054610ad5906157d7565b905014610b17576040517f08c379a0000000000000000000000000000000000000000000000000000000008152600401610b0e9061532f565b60405180910390fd5b6000806002811115610b2c57610b2b6158c2565b5b60008054906101000a900460ff166002811115610b4c57610b4b6158c2565b5b14610b8c576040517f08c379a0000000000000000000000000000000000000000000000000000000008152600401610b839061530f565b60405180910390fd5b600760009054906101000a900460ff1615610bdc576040517f08c379a0000000000000000000000000000000000000000000000000000000008152600401610bd3906152ef565b60405180910390fd5b604051806040016040528085815260200160001515815250600260008773ffffffffffffffffffffffffffffffffffffffff1673ffffffffffffffffffffffffffffffffffffffff1681526020019081526020016000206000820151816000019080519060200190610c4f929190614123565b5060208201518160010160006101000a81548160ff0219169083151502179055509050506003600181819054906101000a900460ff1680929190610c929061583a565b91906101000a81548160ff021916908360ff16021790555050600360019054906101000a900460ff169250505092915050565b60016000806101000a81548160ff02191690836002811115610cea57610ce96158c2565b5b02179055503073ffffffffffffffffffffffffffffffffffffffff1663e9b16ca360026040518263ffffffff1660e01b8152600401610d29919061503c565b602060405180830381600087803b158015610d4357600080fd5b505af1925050508015610d7457506040513d601f19601f82011682018060405250810190610d7191906143e2565b60015b610f9d57610d8061594f565b806308c379a01415610e2e5750610d95615fc7565b80610da05750610edb565b73__$acbfb1c35000d78352310b16a054a6b106$__63e8c2cb16826040518263ffffffff1660e01b8152600401610dd791906150df565b60206040518083038186803b158015610def57600080fd5b505af4158015610e03573d6000803e3d6000fd5b505050506040513d601f19601f82011682018060405250810190610e2791906143e2565b5050610f98565b634e487b711415610edb57610e4161605d565b90610e4c5750610edb565b73__$acbfb1c35000d78352310b16a054a6b106$__6339df137f60006040518263ffffffff1660e01b8152600401610e849190614efd565b60206040518083038186803b158015610e9c57600080fd5b505af4158015610eb0573d6000803e3d6000fd5b505050506040513d601f19601f82011682018060405250810190610ed491906143e2565b5050610f98565b3d8060008114610f07576040519150601f19603f3d011682016040523d82523d6000602084013e610f0c565b606091505b5073__$acbfb1c35000d78352310b16a054a6b106$__6339df137f60006040518263ffffffff1660e01b8152600401610f459190614e45565b60206040518083038186803b158015610f5d57600080fd5b505af4158015610f71573d6000803e3d6000fd5b505050506040513d601f19601f82011682018060405250810190610f9591906143e2565b50505b61102a565b73__$acbfb1c35000d78352310b16a054a6b106$__63767392b38260016040518363ffffffff1660e01b8152600401610fd7929190614dcd565b60206040518083038186803b158015610fef57600080fd5b505af4158015611003573d6000803e3d6000fd5b505050506040513d601f19601f8201168201806040525081019061102791906143e2565b50505b565b600360019054906101000a900460ff1681565b7f000000000000000000000000000000000000000000000000000000000000000081565b7f000000000000000000000000000000000000000000000000000000000000000073ffffffffffffffffffffffffffffffffffffffff163273ffffffffffffffffffffffffffffffffffffffff16148061110857507f000000000000000000000000000000000000000000000000000000000000000073ffffffffffffffffffffffffffffffffffffffff163373ffffffffffffffffffffffffffffffffffffffff16145b611147576040517f08c379a000000000000000000000000000000000000000000000000000000000815260040161113e9061534f565b60405180910390fd5b600080600281111561115c5761115b6158c2565b5b60008054906101000a900460ff16600281111561117c5761117b6158c2565b5b146111bc576040517f08c379a00000000000000000000000000000000000000000000000000000000081526004016111b39061530f565b60405180910390fd5b600760009054906101000a900460ff161561120c576040517f08c379a0000000000000000000000000000000000000000000000000000000008152600401611203906152ef565b60405180910390fd5b60016000806101000a81548160ff02191690836002811115611231576112306158c2565b5b021790555050565b3073ffffffffffffffffffffffffffffffffffffffff16633b9f708d600760019054906101000a900473ffffffffffffffffffffffffffffffffffffffff166040518263ffffffff1660e01b81526004016112949190614cb5565b602060405180830381600087803b1580156112ae57600080fd5b505af19250505080156112df57506040513d601f19601f820116820180604052508101906112dc9190614485565b60015b611508576112eb61594f565b806308c379a014156113995750611300615fc7565b8061130b5750611446565b73__$acbfb1c35000d78352310b16a054a6b106$__63e8c2cb16826040518263ffffffff1660e01b8152600401611342919061516f565b60206040518083038186803b15801561135a57600080fd5b505af415801561136e573d6000803e3d6000fd5b505050506040513d601f19601f8201168201806040525081019061139291906143e2565b5050611503565b634e487b711415611446576113ac61605d565b906113b75750611446565b73__$acbfb1c35000d78352310b16a054a6b106$__6339df137f60006040518263ffffffff1660e01b81526004016113ef9190614efd565b60206040518083038186803b15801561140757600080fd5b505af415801561141b573d6000803e3d6000fd5b505050506040513d601f19601f8201168201806040525081019061143f91906143e2565b5050611503565b3d8060008114611472576040519150601f19603f3d011682016040523d82523d6000602084013e611477565b606091505b5073__$acbfb1c35000d78352310b16a054a6b106$__6339df137f60006040518263ffffffff1660e01b81526004016114b09190614ecf565b60206040518083038186803b1580156114c857600080fd5b505af41580156114dc573d6000803e3d6000fd5b505050506040513d601f19601f8201168201806040525081019061150091906143e2565b50505b611593565b73__$acbfb1c35000d78352310b16a054a6b106$__6339df137f60006040518263ffffffff1660e01b81526004016115409190614f2b565b60206040518083038186803b15801561155857600080fd5b505af415801561156c573d6000803e3d6000fd5b505050506040513d601f19601f8201168201806040525081019061159091906143e2565b50505b565b3073ffffffffffffffffffffffffffffffffffffffff16636d77bd3e6040518163ffffffff1660e01b81526004016115cc9061536f565b602060405180830381600087803b1580156115e657600080fd5b505af192505050801561161757506040513d601f19601f820116820180604052508101906116149190614485565b60015b6118405761162361594f565b806308c379a014156116d15750611638615fc7565b80611643575061177e565b73__$acbfb1c35000d78352310b16a054a6b106$__63e8c2cb16826040518263ffffffff1660e01b815260040161167a91906151b7565b60206040518083038186803b15801561169257600080fd5b505af41580156116a6573d6000803e3d6000fd5b505050506040513d601f19601f820116820180604052508101906116ca91906143e2565b505061183b565b634e487b71141561177e576116e461605d565b906116ef575061177e565b73__$acbfb1c35000d78352310b16a054a6b106$__6339df137f60006040518263ffffffff1660e01b81526004016117279190614efd565b60206040518083038186803b15801561173f57600080fd5b505af4158015611753573d6000803e3d6000fd5b505050506040513d601f19601f8201168201806040525081019061177791906143e2565b505061183b565b3d80600081146117aa576040519150601f19603f3d011682016040523d82523d6000602084013e6117af565b606091505b5073__$acbfb1c35000d78352310b16a054a6b106$__6339df137f60006040518263ffffffff1660e01b81526004016117e89190614ecf565b60206040518083038186803b15801561180057600080fd5b505af4158015611814573d6000803e3d6000fd5b505050506040513d601f19601f8201168201806040525081019061183891906143e2565b50505b6118cd565b73__$acbfb1c35000d78352310b16a054a6b106$__63561015e28260036040518363ffffffff1660e01b815260040161187a9291906154ba565b60206040518083038186803b15801561189257600080fd5b505af41580156118a6573d6000803e3d6000fd5b505050506040513d601f19601f820116820180604052508101906118ca91906143e2565b50505b565b60008054906101000a900460ff1681565b60016000806101000a81548160ff02191690836002811115611905576119046158c2565b5b021790555073__$acbfb1c35000d78352310b16a054a6b106$__6339df137f61192e6002613775565b6040518263ffffffff1660e01b815260040161194a9190614f59565b60206040518083038186803b15801561196257600080fd5b505af4158015611976573d6000803e3d6000fd5b505050506040513d601f19601f8201168201806040525081019061199a91906143e2565b50565b3073ffffffffffffffffffffffffffffffffffffffff16636d77bd3e6040518163ffffffff1660e01b81526004016119d4906152cf565b602060405180830381600087803b1580156119ee57600080fd5b505af1925050508015611a1f57506040513d601f19601f82011682018060405250810190611a1c9190614485565b60015b611c4857611a2b61594f565b806308c379a01415611ad95750611a40615fc7565b80611a4b5750611b86565b73__$acbfb1c35000d78352310b16a054a6b106$__63e8c2cb16826040518263ffffffff1660e01b8152600401611a8291906151ff565b60206040518083038186803b158015611a9a57600080fd5b505af4158015611aae573d6000803e3d6000fd5b505050506040513d601f19601f82011682018060405250810190611ad291906143e2565b5050611c43565b634e487b711415611b8657611aec61605d565b90611af75750611b86565b73__$acbfb1c35000d78352310b16a054a6b106$__6339df137f60006040518263ffffffff1660e01b8152600401611b2f9190614efd565b60206040518083038186803b158015611b4757600080fd5b505af4158015611b5b573d6000803e3d6000fd5b505050506040513d601f19601f82011682018060405250810190611b7f91906143e2565b5050611c43565b3d8060008114611bb2576040519150601f19603f3d011682016040523d82523d6000602084013e611bb7565b606091505b5073__$acbfb1c35000d78352310b16a054a6b106$__6339df137f60006040518263ffffffff1660e01b8152600401611bf09190614ecf565b60206040518083038186803b158015611c0857600080fd5b505af4158015611c1c573d6000803e3d6000fd5b505050506040513d601f19601f82011682018060405250810190611c4091906143e2565b50505b611cd3565b73__$acbfb1c35000d78352310b16a054a6b106$__6339df137f60006040518263ffffffff1660e01b8152600401611c809190614f87565b60206040518083038186803b158015611c9857600080fd5b505af4158015611cac573d6000803e3d6000fd5b505050506040513d601f19601f82011682018060405250810190611cd091906143e2565b50505b565b60007f000000000000000000000000000000000000000000000000000000000000000073ffffffffffffffffffffffffffffffffffffffff163273ffffffffffffffffffffffffffffffffffffffff161480611d7c57507f000000000000000000000000000000000000000000000000000000000000000073ffffffffffffffffffffffffffffffffffffffff163373ffffffffffffffffffffffffffffffffffffffff16145b611dbb576040517f08c379a0000000000000000000000000000000000000000000000000000000008152600401611db29061534f565b60405180910390fd5b81600080600190505b600360009054906101000a900460ff1660ff168160ff1611611e685782604051602001611df19190614c30565b60405160208183030381529060405280519060200120600160008360ff1660ff168152602001908152602001600020604051602001611e309190614c47565b604051602081830303815290604052805190602001201415611e555760019150611e68565b8080611e609061583a565b915050611dc4565b508015611eaa576040517f08c379a0000000000000000000000000000000000000000000000000000000008152600401611ea19061538f565b60405180910390fd5b6000806002811115611ebf57611ebe6158c2565b5b60008054906101000a900460ff166002811115611edf57611ede6158c2565b5b14611f1f576040517f08c379a0000000000000000000000000000000000000000000000000000000008152600401611f169061530f565b60405180910390fd5b600760009054906101000a900460ff1615611f6f576040517f08c379a0000000000000000000000000000000000000000000000000000000008152600401611f66906152ef565b60405180910390fd5b6003600081819054906101000a900460ff1680929190611f8e9061583a565b91906101000a81548160ff021916908360ff160217905550508460016000600360009054906101000a900460ff1660ff1660ff1681526020019081526020016000209080519060200190611fe3929190614123565b50600360009054906101000a900460ff169350505050919050565b7f000000000000000000000000000000000000000000000000000000000000000073ffffffffffffffffffffffffffffffffffffffff163273ffffffffffffffffffffffffffffffffffffffff1614806120a357507f000000000000000000000000000000000000000000000000000000000000000073ffffffffffffffffffffffffffffffffffffffff163373ffffffffffffffffffffffffffffffffffffffff16145b6120e2576040517f08c379a00000000000000000000000000000000000000000000000000000000081526004016120d99061534f565b60405180910390fd5b600760009054906101000a900460ff1615600760006101000a81548160ff021916908315150217905550565b600760009054906101000a900460ff1681565b3073ffffffffffffffffffffffffffffffffffffffff16633b9f708d600c60009054906101000a900473ffffffffffffffffffffffffffffffffffffffff166040518263ffffffff1660e01b815260040161217c9190614ce3565b602060405180830381600087803b15801561219657600080fd5b505af19250505080156121c757506040513d601f19601f820116820180604052508101906121c49190614485565b60015b6123f0576121d361594f565b806308c379a0141561228157506121e8615fc7565b806121f3575061232e565b73__$acbfb1c35000d78352310b16a054a6b106$__63e8c2cb16826040518263ffffffff1660e01b815260040161222a91906151b7565b60206040518083038186803b15801561224257600080fd5b505af4158015612256573d6000803e3d6000fd5b505050506040513d601f19601f8201168201806040525081019061227a91906143e2565b50506123eb565b634e487b71141561232e5761229461605d565b9061229f575061232e565b73__$acbfb1c35000d78352310b16a054a6b106$__6339df137f60006040518263ffffffff1660e01b81526004016122d79190614ea1565b60206040518083038186803b1580156122ef57600080fd5b505af4158015612303573d6000803e3d6000fd5b505050506040513d601f19601f8201168201806040525081019061232791906143e2565b50506123eb565b3d806000811461235a576040519150601f19603f3d011682016040523d82523d6000602084013e61235f565b606091505b5073__$acbfb1c35000d78352310b16a054a6b106$__6339df137f60006040518263ffffffff1660e01b81526004016123989190614e45565b60206040518083038186803b1580156123b057600080fd5b505af41580156123c4573d6000803e3d6000fd5b505050506040513d601f19601f820116820180604052508101906123e891906143e2565b50505b61247d565b73__$acbfb1c35000d78352310b16a054a6b106$__63561015e28260066040518363ffffffff1660e01b815260040161242a929190615532565b60206040518083038186803b15801561244257600080fd5b505af4158015612456573d6000803e3d6000fd5b505050506040513d601f19601f8201168201806040525081019061247a91906143e2565b50505b565b73__$1068a87eb54ed04c4e435de35b2ebf536f$__63ce88b14560006040518263ffffffff1660e01b81526004016124b79190614fd0565b60206040518083038186803b1580156124cf57600080fd5b505af41580156124e3573d6000803e3d6000fd5b505050506040513d601f19601f820116820180604052508101906125079190614359565b600760016101000a81548173ffffffffffffffffffffffffffffffffffffffff021916908373ffffffffffffffffffffffffffffffffffffffff16021790555073__$1068a87eb54ed04c4e435de35b2ebf536f$__63ce88b14560016040518263ffffffff1660e01b815260040161257f9190614feb565b60206040518083038186803b15801561259757600080fd5b505af41580156125ab573d6000803e3d6000fd5b505050506040513d601f19601f820116820180604052508101906125cf9190614359565b600860006101000a81548173ffffffffffffffffffffffffffffffffffffffff021916908373ffffffffffffffffffffffffffffffffffffffff16021790555073__$1068a87eb54ed04c4e435de35b2ebf536f$__63ce88b14560026040518263ffffffff1660e01b81526004016126479190615021565b60206040518083038186803b15801561265f57600080fd5b505af4158015612673573d6000803e3d6000fd5b505050506040513d601f19601f820116820180604052508101906126979190614359565b600960006101000a81548173ffffffffffffffffffffffffffffffffffffffff021916908373ffffffffffffffffffffffffffffffffffffffff16021790555073__$1068a87eb54ed04c4e435de35b2ebf536f$__63ce88b14560036040518263ffffffff1660e01b815260040161270f9190615057565b60206040518083038186803b15801561272757600080fd5b505af415801561273b573d6000803e3d6000fd5b505050506040513d601f19601f8201168201806040525081019061275f9190614359565b600a60006101000a81548173ffffffffffffffffffffffffffffffffffffffff021916908373ffffffffffffffffffffffffffffffffffffffff16021790555073__$1068a87eb54ed04c4e435de35b2ebf536f$__63ce88b14560046040518263ffffffff1660e01b81526004016127d79190615072565b60206040518083038186803b1580156127ef57600080fd5b505af4158015612803573d6000803e3d6000fd5b505050506040513d601f19601f820116820180604052508101906128279190614359565b600b60006101000a81548173ffffffffffffffffffffffffffffffffffffffff021916908373ffffffffffffffffffffffffffffffffffffffff160217905550565b73__$acbfb1c35000d78352310b16a054a6b106$__63abcd79606128e4600760019054906101000a900473ffffffffffffffffffffffffffffffffffffffff166040518060400160405280600581526020017f416c69636500000000000000000000000000000000000000000000000000000081525061099f565b60016040518363ffffffff1660e01b8152600401612903929190615406565b60206040518083038186803b15801561291b57600080fd5b505af415801561292f573d6000803e3d6000fd5b505050506040513d601f19601f8201168201806040525081019061295391906143e2565b5073__$acbfb1c35000d78352310b16a054a6b106$__63abcd79606129cf600860009054906101000a900473ffffffffffffffffffffffffffffffffffffffff166040518060400160405280600381526020017f426f62000000000000000000000000000000000000000000000000000000000081525061099f565b60026040518363ffffffff1660e01b81526004016129ee929190615442565b60206040518083038186803b158015612a0657600080fd5b505af4158015612a1a573d6000803e3d6000fd5b505050506040513d601f19601f82011682018060405250810190612a3e91906143e2565b5073__$acbfb1c35000d78352310b16a054a6b106$__63abcd7960612aba600960009054906101000a900473ffffffffffffffffffffffffffffffffffffffff166040518060400160405280600781526020017f436861726c69650000000000000000000000000000000000000000000000000081525061099f565b60036040518363ffffffff1660e01b8152600401612ad992919061547e565b60206040518083038186803b158015612af157600080fd5b505af4158015612b05573d6000803e3d6000fd5b505050506040513d601f19601f82011682018060405250810190612b2991906143e2565b5073__$acbfb1c35000d78352310b16a054a6b106$__63abcd7960612ba5600a60009054906101000a900473ffffffffffffffffffffffffffffffffffffffff166040518060400160405280600381526020017f457665000000000000000000000000000000000000000000000000000000000081525061099f565b60046040518363ffffffff1660e01b8152600401612bc49291906154f6565b60206040518083038186803b158015612bdc57600080fd5b505af4158015612bf0573d6000803e3d6000fd5b505050506040513d601f19601f82011682018060405250810190612c1491906143e2565b50565b73__$acbfb1c35000d78352310b16a054a6b106$__63bfba5dd67f0000000000000000000000000000000000000000000000000000000000000000600760019054906101000a900473ffffffffffffffffffffffffffffffffffffffff166040518363ffffffff1660e01b8152600401612c92929190614c79565b60206040518083038186803b158015612caa57600080fd5b505af4158015612cbe573d6000803e3d6000fd5b505050506040513d601f19601f82011682018060405250810190612ce291906143e2565b50565b60016000806101000a81548160ff02191690836002811115612d0a57612d096158c2565b5b021790555073__$acbfb1c35000d78352310b16a054a6b106$__6339df137f612d336001613775565b6040518263ffffffff1660e01b8152600401612d4f9190614f59565b60206040518083038186803b158015612d6757600080fd5b505af4158015612d7b573d6000803e3d6000fd5b505050506040513d601f19601f82011682018060405250810190612d9f91906143e2565b50565b600360029054906101000a900460ff1681565b60026000806101000a81548160ff02191690836002811115612dda57612dd96158c2565b5b02179055503073ffffffffffffffffffffffffffffffffffffffff1663e9b16ca360016040518263ffffffff1660e01b8152600401612e199190615006565b602060405180830381600087803b158015612e3357600080fd5b505af1925050508015612e6457506040513d601f19601f82011682018060405250810190612e6191906143e2565b60015b61308d57612e7061594f565b806308c379a01415612f1e5750612e85615fc7565b80612e905750612fcb565b73__$acbfb1c35000d78352310b16a054a6b106$__63e8c2cb16826040518263ffffffff1660e01b8152600401612ec79190615127565b60206040518083038186803b158015612edf57600080fd5b505af4158015612ef3573d6000803e3d6000fd5b505050506040513d601f19601f82011682018060405250810190612f1791906143e2565b5050613088565b634e487b711415612fcb57612f3161605d565b90612f3c5750612fcb565b73__$acbfb1c35000d78352310b16a054a6b106$__6339df137f60006040518263ffffffff1660e01b8152600401612f749190614efd565b60206040518083038186803b158015612f8c57600080fd5b505af4158015612fa0573d6000803e3d6000fd5b505050506040513d601f19601f82011682018060405250810190612fc491906143e2565b5050613088565b3d8060008114612ff7576040519150601f19603f3d011682016040523d82523d6000602084013e612ffc565b606091505b5073__$acbfb1c35000d78352310b16a054a6b106$__6339df137f60006040518263ffffffff1660e01b81526004016130359190614e45565b60206040518083038186803b15801561304d57600080fd5b505af4158015613061573d6000803e3d6000fd5b505050506040513d601f19601f8201168201806040525081019061308591906143e2565b50505b61311a565b73__$acbfb1c35000d78352310b16a054a6b106$__63767392b38260016040518363ffffffff1660e01b81526004016130c7929190614dcd565b60206040518083038186803b1580156130df57600080fd5b505af41580156130f3573d6000803e3d6000fd5b505050506040513d601f19601f8201168201806040525081019061311791906143e2565b50505b565b3073ffffffffffffffffffffffffffffffffffffffff1663b92239466040518163ffffffff1660e01b8152600401600060405180830381600087803b15801561316457600080fd5b505af1158015613178573d6000803e3d6000fd5b5050505073__$acbfb1c35000d78352310b16a054a6b106$__63e8c2cb1660046040518263ffffffff1660e01b81526004016131b49190615247565b60206040518083038186803b1580156131cc57600080fd5b505af41580156131e0573d6000803e3d6000fd5b505050506040513d601f19601f8201168201806040525081019061320491906143e2565b50565b60016000806101000a81548160ff0219169083600281111561322c5761322b6158c2565b5b021790555073__$acbfb1c35000d78352310b16a054a6b106$__63767392b36132556001613775565b60006040518363ffffffff1660e01b8152600401613274929190614d91565b60206040518083038186803b15801561328c57600080fd5b505af41580156132a0573d6000803e3d6000fd5b505050506040513d601f19601f820116820180604052508101906132c491906143e2565b50565b600360009054906101000a900460ff1681565b7f000000000000000000000000000000000000000000000000000000000000000073ffffffffffffffffffffffffffffffffffffffff163273ffffffffffffffffffffffffffffffffffffffff16148061337f57507f000000000000000000000000000000000000000000000000000000000000000073ffffffffffffffffffffffffffffffffffffffff163373ffffffffffffffffffffffffffffffffffffffff16145b6133be576040517f08c379a00000000000000000000000000000000000000000000000000000000081526004016133b59061534f565b60405180910390fd5b60028060028111156133d3576133d26158c2565b5b60008054906101000a900460ff1660028111156133f3576133f26158c2565b5b14613433576040517f08c379a000000000000000000000000000000000000000000000000000000000815260040161342a9061530f565b60405180910390fd5b600060016002600360019054906101000a900460ff166134539190615648565b61345d9190615611565b60ff16600360029054906101000a900460ff1660ff161061347d57600190505b806134bd576040517f08c379a00000000000000000000000000000000000000000000000000000000081526004016134b49061528f565b60405180910390fd5b600760009054906101000a900460ff161561350d576040517f08c379a0000000000000000000000000000000000000000000000000000000008152600401613504906152ef565b60405180910390fd5b613515613f59565b5050565b73__$acbfb1c35000d78352310b16a054a6b106$__63abcd796060008054906101000a900460ff166002811115613553576135526158c2565b5b600280811115613566576135656158c2565b5b6040518363ffffffff1660e01b81526004016135839291906153af565b60206040518083038186803b15801561359b57600080fd5b505af41580156135af573d6000803e3d6000fd5b505050506040513d601f19601f820116820180604052508101906135d391906143e2565b50565b60016000806101000a81548160ff021916908360028111156135fb576135fa6158c2565b5b021790555073__$acbfb1c35000d78352310b16a054a6b106$__63767392b36136246003613775565b60006040518363ffffffff1660e01b8152600401613643929190614e09565b60206040518083038186803b15801561365b57600080fd5b505af415801561366f573d6000803e3d6000fd5b505050506040513d601f19601f8201168201806040525081019061369391906143e2565b50565b60056020528060005260406000206000915090508060000160009054906101000a900473ffffffffffffffffffffffffffffffffffffffff16908060000160149054906101000a900460ff16905082565b600480546136f4906157d7565b80601f0160208091040260200160405190810160405280929190818152602001828054613720906157d7565b801561376d5780601f106137425761010080835404028352916020019161376d565b820191906000526020600020905b81548152906001019060200180831161375057829003601f168201915b505050505081565b60003360001515600260008373ffffffffffffffffffffffffffffffffffffffff1673ffffffffffffffffffffffffffffffffffffffff16815260200190815260200160002060010160009054906101000a900460ff1615151461380e576040517f08c379a0000000000000000000000000000000000000000000000000000000008152600401613805906152af565b60405180910390fd5b6001806002811115613823576138226158c2565b5b60008054906101000a900460ff166002811115613843576138426158c2565b5b14613883576040517f08c379a000000000000000000000000000000000000000000000000000000000815260040161387a9061530f565b60405180910390fd5b600760009054906101000a900460ff16156138d3576040517f08c379a00000000000000000000000000000000000000000000000000000000081526004016138ca906152ef565b60405180910390fd5b600092506000600260003373ffffffffffffffffffffffffffffffffffffffff1673ffffffffffffffffffffffffffffffffffffffff1681526020019081526020016000206000018054613926906157d7565b905014613ab4576000600160008660ff1660ff1681526020019081526020016000208054613953906157d7565b905014613ab357600192506001600260003373ffffffffffffffffffffffffffffffffffffffff1673ffffffffffffffffffffffffffffffffffffffff16815260200190815260200160002060010160006101000a81548160ff0219169083151502179055506003600281819054906101000a900460ff16809291906139d89061583a565b91906101000a81548160ff021916908360ff1602179055505060405180604001604052803373ffffffffffffffffffffffffffffffffffffffff1681526020018560ff1681525060056000600360029054906101000a900460ff1660ff1660ff16815260200190815260200160002060008201518160000160006101000a81548173ffffffffffffffffffffffffffffffffffffffff021916908373ffffffffffffffffffffffffffffffffffffffff16021790555060208201518160000160146101000a81548160ff021916908360ff1602179055509050505b5b60016002600360019054906101000a900460ff16613ad29190615648565b613adc9190615611565b60ff16600360029054906101000a900460ff1660ff1610613b225760026000806101000a81548160ff02191690836002811115613b1c57613b1b6158c2565b5b02179055505b5050919050565b7f000000000000000000000000000000000000000000000000000000000000000073ffffffffffffffffffffffffffffffffffffffff163273ffffffffffffffffffffffffffffffffffffffff161480613bce57507f000000000000000000000000000000000000000000000000000000000000000073ffffffffffffffffffffffffffffffffffffffff163373ffffffffffffffffffffffffffffffffffffffff16145b613c0d576040517f08c379a0000000000000000000000000000000000000000000000000000000008152600401613c049061534f565b60405180910390fd5b6001806002811115613c2257613c216158c2565b5b60008054906101000a900460ff166002811115613c4257613c416158c2565b5b14613c82576040517f08c379a0000000000000000000000000000000000000000000000000000000008152600401613c799061530f565b60405180910390fd5b600760009054906101000a900460ff1615613cd2576040517f08c379a0000000000000000000000000000000000000000000000000000000008152600401613cc9906152ef565b60405180910390fd5b60008060006101000a81548160ff02191690836002811115613cf757613cf66158c2565b5b021790555050565b60008060006101000a81548160ff02191690836002811115613d2457613d236158c2565b5b02179055503073ffffffffffffffffffffffffffffffffffffffff1663b92239466040518163ffffffff1660e01b8152600401600060405180830381600087803b158015613d7157600080fd5b505af1925050508015613d82575060015b613ecd57613d8e61594f565b806308c379a01415613e3c5750613da3615fc7565b80613dae5750613e3e565b73__$acbfb1c35000d78352310b16a054a6b106$__63e8c2cb16826040518263ffffffff1660e01b8152600401613de59190615127565b60206040518083038186803b158015613dfd57600080fd5b505af4158015613e11573d6000803e3d6000fd5b505050506040513d601f19601f82011682018060405250810190613e3591906143e2565b5050613ec8565b505b73__$acbfb1c35000d78352310b16a054a6b106$__6339df137f60006040518263ffffffff1660e01b8152600401613e769190614e73565b60206040518083038186803b158015613e8e57600080fd5b505af4158015613ea2573d6000803e3d6000fd5b505050506040513d601f19601f82011682018060405250810190613ec691906143e2565b505b613f57565b73__$acbfb1c35000d78352310b16a054a6b106$__6339df137f60006040518263ffffffff1660e01b8152600401613f059190614f87565b60206040518083038186803b158015613f1d57600080fd5b505af4158015613f31573d6000803e3d6000fd5b505050506040513d601f19601f82011682018060405250810190613f5591906143e2565b505b565b6000806000600190505b600360029054906101000a900460ff1660ff168160ff16116140eb57600060019050600060066000600560008660ff1660ff16815260200190815260200160002060000160149054906101000a900460ff1660ff1660ff16815260200190815260200160002060009054906101000a900460ff1660ff16111561403e5760066000600560008560ff1660ff16815260200190815260200160002060000160149054906101000a900460ff1660ff1660ff16815260200190815260200160002060009054906101000a900460ff168161403b9190615611565b90505b8060066000600560008660ff1660ff16815260200190815260200160002060000160149054906101000a900460ff1660ff1660ff16815260200190815260200160002060006101000a81548160ff021916908360ff1602179055508360ff168160ff1611156140d757809350600560008360ff1660ff16815260200190815260200160002060000160149054906101000a900460ff1692505b5080806140e39061583a565b915050613f63565b50600160008260ff1660ff1681526020019081526020016000206004908054614113906157d7565b61411e9291906141a9565b505050565b82805461412f906157d7565b90600052602060002090601f0160209004810192826141515760008555614198565b82601f1061416a57805160ff1916838001178555614198565b82800160010185558215614198579182015b8281111561419757825182559160200191906001019061417c565b5b5090506141a59190614236565b5090565b8280546141b5906157d7565b90600052602060002090601f0160209004810192826141d75760008555614225565b82601f106141e85780548555614225565b8280016001018555821561422557600052602060002091601f016020900482015b82811115614224578254825591600101919060010190614209565b5b5090506142329190614236565b5090565b5b8082111561424f576000816000905550600101614237565b5090565b600061426661426184615593565b61556e565b90508281526020810184848401111561428257614281615976565b5b61428d848285615795565b509392505050565b6000813590506142a481616092565b92915050565b6000815190506142b981616092565b92915050565b6000815190506142ce816160a9565b92915050565b600082601f8301126142e9576142e8615971565b5b81356142f9848260208601614253565b91505092915050565b600081359050614311816160c0565b92915050565b600081519050614326816160c0565b92915050565b60006020828403121561434257614341615980565b5b600061435084828501614295565b91505092915050565b60006020828403121561436f5761436e615980565b5b600061437d848285016142aa565b91505092915050565b6000806040838503121561439d5761439c615980565b5b60006143ab85828601614295565b925050602083013567ffffffffffffffff8111156143cc576143cb61597b565b5b6143d8858286016142d4565b9150509250929050565b6000602082840312156143f8576143f7615980565b5b6000614406848285016142bf565b91505092915050565b60006020828403121561442557614424615980565b5b600082013567ffffffffffffffff8111156144435761444261597b565b5b61444f848285016142d4565b91505092915050565b60006020828403121561446e5761446d615980565b5b600061447c84828501614302565b91505092915050565b60006020828403121561449b5761449a615980565b5b60006144a984828501614317565b91505092915050565b6144bb81615679565b82525050565b6144ca81615679565b82525050565b6144d98161568b565b82525050565b6144e88161568b565b82525050565b6144f7816156e1565b82525050565b614506816156f3565b82525050565b61451581615705565b82525050565b61452481615717565b82525050565b61453381615729565b82525050565b6145428161573b565b82525050565b6145518161574d565b82525050565b6145608161575f565b82525050565b61456f81615771565b82525050565b6000614580826155d9565b61458a81856155e4565b935061459a8185602086016157a4565b6145a381615985565b840191505092915050565b60006145b9826155d9565b6145c381856155f5565b93506145d38185602086016157a4565b6145dc81615985565b840191505092915050565b60006145f2826155d9565b6145fc8185615606565b935061460c8185602086016157a4565b80840191505092915050565b60008154614625816157d7565b61462f81866155f5565b9450600182166000811461464a576001811461465c5761468f565b60ff198316865260208601935061468f565b614665856155c4565b60005b8381101561468757815481890152600182019150602081019050614668565b808801955050505b50505092915050565b600081546146a5816157d7565b6146af8186615606565b945060018216600081146146ca57600181146146db5761470e565b60ff1983168652818601935061470e565b6146e4856155c4565b60005b83811015614706578154818901526001820191506020810190506146e7565b838801955050505b50505092915050565b60006147246013836155f5565b915061472f826159a3565b602082019050919050565b60006147476026836155e4565b9150614752826159cc565b604082019050919050565b600061476a601d836155f5565b915061477582615a1b565b602082019050919050565b600061478d6013836155e4565b915061479882615a44565b602082019050919050565b60006147b06013836155f5565b91506147bb82615a44565b602082019050919050565b60006147d3601c836155f5565b91506147de82615a6d565b602082019050919050565b60006147f66008836155e4565b915061480182615a96565b602082019050919050565b60006148196008836155f5565b915061482482615a96565b602082019050919050565b600061483c6014836155f5565b915061484782615abf565b602082019050919050565b600061485f6014836155f5565b915061486a82615ae8565b602082019050919050565b60006148826014836155f5565b915061488d82615b11565b602082019050919050565b60006148a56029836155f5565b91506148b082615b3a565b604082019050919050565b60006148c86011836155f5565b91506148d382615b89565b602082019050919050565b60006148eb6014836155e4565b91506148f682615bb2565b602082019050919050565b600061490e6029836155e4565b915061491982615bdb565b604082019050919050565b60006149316029836155f5565b915061493c82615bdb565b604082019050919050565b60006149546016836155e4565b915061495f82615c2a565b602082019050919050565b60006149776016836155f5565b915061498282615c2a565b602082019050919050565b600061499a6017836155f5565b91506149a582615c53565b602082019050919050565b60006149bd6021836155f5565b91506149c882615c7c565b604082019050919050565b60006149e06022836155f5565b91506149eb82615ccb565b604082019050919050565b6000614a036031836155f5565b9150614a0e82615d1a565b604082019050919050565b6000614a26601c836155f5565b9150614a3182615d69565b602082019050919050565b6000614a496014836155f5565b9150614a5482615d92565b602082019050919050565b6000614a6c6005836155e4565b9150614a7782615dbb565b602082019050919050565b6000614a8f6023836155e4565b9150614a9a82615de4565b604082019050919050565b6000614ab26023836155f5565b9150614abd82615de4565b604082019050919050565b6000614ad56026836155f5565b9150614ae082615e33565b604082019050919050565b6000614af8601d836155f5565b9150614b0382615e82565b602082019050919050565b6000614b1b600b836155e4565b9150614b2682615eab565b602082019050919050565b6000614b3e601d836155f5565b9150614b4982615ed4565b602082019050919050565b6000614b61601a836155e4565b9150614b6c82615efd565b602082019050919050565b6000614b84601a836155f5565b9150614b8f82615efd565b602082019050919050565b6000614ba76034836155f5565b9150614bb282615f26565b604082019050919050565b6000614bca6016836155f5565b9150614bd582615f75565b602082019050919050565b6000614bed6007836155e4565b9150614bf882615f9e565b602082019050919050565b614c0c816156ca565b82525050565b614c1b81615783565b82525050565b614c2a816156d4565b82525050565b6000614c3c82846145e7565b915081905092915050565b6000614c538284614698565b915081905092915050565b6000602082019050614c7360008301846144b2565b92915050565b6000606082019050614c8e60008301856144c1565b614c9b60208301846144c1565b8181036040830152614cac81614bbd565b90509392505050565b6000604082019050614cca60008301846144b2565b8181036020830152614cdb81614a5f565b905092915050565b6000604082019050614cf860008301846144b2565b8181036020830152614d0981614be0565b905092915050565b6000604082019050614d2660008301856144b2565b614d336020830184614c21565b9392505050565b6000602082019050614d4f60008301846144d0565b92915050565b6000606082019050614d6a60008301856144df565b614d7760208301846144df565b8181036040830152614d88816149f6565b90509392505050565b6000606082019050614da660008301856144df565b614db360208301846144df565b8181036040830152614dc481614aeb565b90509392505050565b6000606082019050614de260008301856144df565b614def60208301846144df565b8181036040830152614e0081614b31565b90509392505050565b6000606082019050614e1e60008301856144df565b614e2b60208301846144df565b8181036040830152614e3c81614b9a565b90509392505050565b6000604082019050614e5a60008301846144df565b8181036020830152614e6b81614717565b905092915050565b6000604082019050614e8860008301846144df565b8181036020830152614e99816147c6565b905092915050565b6000604082019050614eb660008301846144df565b8181036020830152614ec781614898565b905092915050565b6000604082019050614ee460008301846144df565b8181036020830152614ef5816148bb565b905092915050565b6000604082019050614f1260008301846144df565b8181036020830152614f23816149b0565b905092915050565b6000604082019050614f4060008301846144df565b8181036020830152614f51816149d3565b905092915050565b6000604082019050614f6e60008301846144df565b8181036020830152614f7f81614a19565b905092915050565b6000604082019050614f9c60008301846144df565b8181036020830152614fad81614b31565b905092915050565b6000602082019050614fca60008301846144ee565b92915050565b6000602082019050614fe560008301846144fd565b92915050565b6000602082019050615000600083018461450c565b92915050565b600060208201905061501b600083018461451b565b92915050565b6000602082019050615036600083018461452a565b92915050565b60006020820190506150516000830184614539565b92915050565b600060208201905061506c6000830184614548565b92915050565b60006020820190506150876000830184614557565b92915050565b600060208201905081810360008301526150a78184614575565b905092915050565b600060408201905081810360008301526150c98185614575565b90506150d860208301846144d0565b9392505050565b600060608201905081810360008301526150f981846145ae565b9050818103602083015261510c816147a3565b9050818103604083015261511f8161475d565b905092915050565b6000606082019050818103600083015261514181846145ae565b9050818103602083015261515481614924565b905081810360408301526151678161475d565b905092915050565b6000606082019050818103600083015261518981846145ae565b9050818103602083015261519c8161496a565b905081810360408301526151af8161475d565b905092915050565b600060608201905081810360008301526151d181846145ae565b905081810360208301526151e481614aa5565b905081810360408301526151f78161475d565b905092915050565b6000606082019050818103600083015261521981846145ae565b9050818103602083015261522c81614b77565b9050818103604083015261523f8161475d565b905092915050565b600060608201905081810360008301526152618184614618565b905081810360208301526152748161480c565b9050818103604083015261528781614ac8565b905092915050565b600060208201905081810360008301526152a88161473a565b9050919050565b600060208201905081810360008301526152c881614780565b9050919050565b600060208201905081810360008301526152e8816147e9565b9050919050565b60006020820190508181036000830152615308816148de565b9050919050565b6000602082019050818103600083015261532881614901565b9050919050565b6000602082019050818103600083015261534881614947565b9050919050565b6000602082019050818103600083015261536881614a82565b9050919050565b6000602082019050818103600083015261538881614b0e565b9050919050565b600060208201905081810360008301526153a881614b54565b9050919050565b60006060820190506153c46000830185614c03565b6153d16020830184614c03565b81810360408301526153e28161498d565b90509392505050565b60006020820190506154006000830184614c21565b92915050565b600060608201905061541b6000830185614c12565b615428602083018461450c565b818103604083015261543981614a3c565b90509392505050565b60006060820190506154576000830185614c12565b615464602083018461452a565b81810360408301526154758161482f565b90509392505050565b60006060820190506154936000830185614c12565b6154a06020830184614548565b81810360408301526154b181614875565b90509392505050565b60006060820190506154cf6000830185614c12565b6154dc6020830184614548565b81810360408301526154ed81614b31565b90509392505050565b600060608201905061550b6000830185614c12565b6155186020830184614557565b818103604083015261552981614852565b90509392505050565b60006060820190506155476000830185614c12565b6155546020830184614566565b818103604083015261556581614b31565b90509392505050565b6000615578615589565b90506155848282615809565b919050565b6000604051905090565b600067ffffffffffffffff8211156155ae576155ad615920565b5b6155b782615985565b9050602081019050919050565b60008190508160005260206000209050919050565b600081519050919050565b600082825260208201905092915050565b600082825260208201905092915050565b600081905092915050565b600061561c826156d4565b9150615627836156d4565b92508260ff0382111561563d5761563c615864565b5b828201905092915050565b6000615653826156d4565b915061565e836156d4565b92508261566e5761566d615893565b5b828204905092915050565b6000615684826156aa565b9050919050565b60008115159050919050565b60008190506156a58261607e565b919050565b600073ffffffffffffffffffffffffffffffffffffffff82169050919050565b6000819050919050565b600060ff82169050919050565b60006156ec82615697565b9050919050565b60006156fe826156ca565b9050919050565b6000615710826156ca565b9050919050565b6000615722826156d4565b9050919050565b6000615734826156ca565b9050919050565b6000615746826156d4565b9050919050565b6000615758826156ca565b9050919050565b600061576a826156ca565b9050919050565b600061577c826156ca565b9050919050565b600061578e826156d4565b9050919050565b82818337600083830152505050565b60005b838110156157c25780820151818401526020810190506157a7565b838111156157d1576000848401525b50505050565b600060028204905060018216806157ef57607f821691505b60208210811415615803576158026158f1565b5b50919050565b61581282615985565b810181811067ffffffffffffffff8211171561583157615830615920565b5b80604052505050565b6000615845826156d4565b915060ff82141561585957615858615864565b5b600182019050919050565b7f4e487b7100000000000000000000000000000000000000000000000000000000600052601160045260246000fd5b7f4e487b7100000000000000000000000000000000000000000000000000000000600052601260045260246000fd5b7f4e487b7100000000000000000000000000000000000000000000000000000000600052602160045260246000fd5b7f4e487b7100000000000000000000000000000000000000000000000000000000600052602260045260246000fd5b7f4e487b7100000000000000000000000000000000000000000000000000000000600052604160045260246000fd5b600060033d111561596e5760046000803e61596b600051615996565b90505b90565b600080fd5b600080fd5b600080fd5b600080fd5b6000601f19601f8301169050919050565b60008160e01c9050919050565b7f4661696c656420756e65787065637465646c7900000000000000000000000000600082015250565b7f566f74696e672071756f72756d206973206e6f74206d65742e204b656570207660008201527f6f74696e672e0000000000000000000000000000000000000000000000000000602082015250565b7f4661696c6564207769746820756e657870656374656420726561736f6e000000600082015250565b7f43616e206f6e6c7920766f7465206f6e63652e00000000000000000000000000600082015250565b7f4661696c6564207769746820756e6578706563746564206572726f7200000000600082015250565b7f556e692043616665000000000000000000000000000000000000000000000000600082015250565b7f53686f756c6420626520657175616c20746f2032000000000000000000000000600082015250565b7f53686f756c6420626520657175616c20746f2034000000000000000000000000600082015250565b7f53686f756c6420626520657175616c20746f2033000000000000000000000000600082015250565b7f4661696c656420756e65787065637465646c7920776974682070616e6963206560008201527f72726f7220636f64650000000000000000000000000000000000000000000000602082015250565b7f4661696c656420756e6578706563746564000000000000000000000000000000600082015250565b7f436f6e74726163742069732073746f707065642e000000000000000000000000600082015250565b7f46756e6374696f6e2063616e206e6f742062652063616c6c656420696e20746860008201527f69732073746167652e0000000000000000000000000000000000000000000000602082015250565b7f467269656e6420616c7265616479206578697374732e00000000000000000000600082015250565b7f566f74696e672073686f756c6420626520636c6f736564000000000000000000600082015250565b7f4661696c656420756e65787065637465642077697468206572726f7220636f6460008201527f6500000000000000000000000000000000000000000000000000000000000000602082015250565b7f416464696e67206578697374696e6720667269656e642073686f756c6420666160008201527f696c000000000000000000000000000000000000000000000000000000000000602082015250565b7f53746f707065642073746174652073686f756c6420626520747275652061667460008201527f6572206d616e6167657227732063616c6c000000000000000000000000000000602082015250565b7f566f74696e6720726573756c742073686f756c64206265207472756500000000600082015250565b7f53686f756c6420626520657175616c20746f2031000000000000000000000000600082015250565b7f416c696365000000000000000000000000000000000000000000000000000000600082015250565b7f43616e206f6e6c7920626520657865637574656420627920746865206d616e6160008201527f6765720000000000000000000000000000000000000000000000000000000000602082015250565b7f53656c65637465642072657374617572616e742073686f756c6420626520556e60008201527f6920436166650000000000000000000000000000000000000000000000000000602082015250565b7f566f74696e6720726573756c742073686f756c642062652066616c7365000000600082015250565b7f41746f6d69632043616665000000000000000000000000000000000000000000600082015250565b7f4d6574686f6420657865637574696f6e20646964206e6f74206661696c000000600082015250565b7f52657374617572616e7420616c7265616479206578697374732e000000000000600082015250565b7f566f74696e6720726573756c742073686f756c642062652066616c736520666f60008201527f7220696e76616c69642072657374617572616e74000000000000000000000000602082015250565b7f4d616e616765722073686f756c64206265206163633000000000000000000000600082015250565b7f44616e69656c7300000000000000000000000000000000000000000000000000600082015250565b600060443d1015615fd75761605a565b615fdf615589565b60043d036004823e80513d602482011167ffffffffffffffff8211171561600757505061605a565b808201805167ffffffffffffffff811115616025575050505061605a565b80602083010160043d03850181111561604257505050505061605a565b61605182602001850186615809565b82955050505050505b90565b60008060233d111561607a576020600460003e6001915060005190505b9091565b6003811061608f5761608e6158c2565b5b50565b61609b81615679565b81146160a657600080fd5b50565b6160b28161568b565b81146160bd57600080fd5b50565b6160c9816156d4565b81146160d457600080fd5b5056fea26469706673582212203533c89e2e7b6596be49c79566f2159d0d7fa813a3c53689cd7f9eaa5e3fa0e564736f6c63430008050033",
			"opcodes": "PUSH1 0xA0 PUSH1 0x40 MSTORE PUSH1 0x0 DUP1 PUSH1 0x0 PUSH2 0x100 EXP DUP2 SLOAD DUP2 PUSH1 0xFF MUL NOT AND SWAP1 DUP4 PUSH1 0x2 DUP2 GT ISZERO PUSH3 0x2C JUMPI PUSH3 0x2B PUSH3 0x1F9 JUMP JUMPDEST JUMPDEST MUL OR SWAP1 SSTORE POP PUSH1 0x0 PUSH1 0x3 PUSH1 0x0 PUSH2 0x100 EXP DUP2 SLOAD DUP2 PUSH1 0xFF MUL NOT AND SWAP1 DUP4 PUSH1 0xFF AND MUL OR SWAP1 SSTORE POP PUSH1 0x0 PUSH1 0x3 PUSH1 0x1 PUSH2 0x100 EXP DUP2 SLOAD DUP2 PUSH1 0xFF MUL NOT AND SWAP1 DUP4 PUSH1 0xFF AND MUL OR SWAP1 SSTORE POP PUSH1 0x0 PUSH1 0x3 PUSH1 0x2 PUSH2 0x100 EXP DUP2 SLOAD DUP2 PUSH1 0xFF MUL NOT AND SWAP1 DUP4 PUSH1 0xFF AND MUL OR SWAP1 SSTORE POP PUSH1 0x40 MLOAD DUP1 PUSH1 0x20 ADD PUSH1 0x40 MSTORE DUP1 PUSH1 0x0 DUP2 MSTORE POP PUSH1 0x4 SWAP1 DUP1 MLOAD SWAP1 PUSH1 0x20 ADD SWAP1 PUSH3 0xAC SWAP3 SWAP2 SWAP1 PUSH3 0x113 JUMP JUMPDEST POP PUSH1 0x0 PUSH1 0x7 PUSH1 0x0 PUSH2 0x100 EXP DUP2 SLOAD DUP2 PUSH1 0xFF MUL NOT AND SWAP1 DUP4 ISZERO ISZERO MUL OR SWAP1 SSTORE POP CALLVALUE DUP1 ISZERO PUSH3 0xD5 JUMPI PUSH1 0x0 DUP1 REVERT JUMPDEST POP CALLER PUSH20 0xFFFFFFFFFFFFFFFFFFFFFFFFFFFFFFFFFFFFFFFF AND PUSH1 0x80 DUP2 PUSH20 0xFFFFFFFFFFFFFFFFFFFFFFFFFFFFFFFFFFFFFFFF AND PUSH1 0x60 SHL DUP2 MSTORE POP POP PUSH3 0x257 JUMP JUMPDEST DUP3 DUP1 SLOAD PUSH3 0x121 SWAP1 PUSH3 0x1C3 JUMP JUMPDEST SWAP1 PUSH1 0x0 MSTORE PUSH1 0x20 PUSH1 0x0 KECCAK256 SWAP1 PUSH1 0x1F ADD PUSH1 0x20 SWAP1 DIV DUP2 ADD SWAP3 DUP3 PUSH3 0x145 JUMPI PUSH1 0x0 DUP6 SSTORE PUSH3 0x191 JUMP JUMPDEST DUP3 PUSH1 0x1F LT PUSH3 0x160 JUMPI DUP1 MLOAD PUSH1 0xFF NOT AND DUP4 DUP1 ADD OR DUP6 SSTORE PUSH3 0x191 JUMP JUMPDEST DUP3 DUP1 ADD PUSH1 0x1 ADD DUP6 SSTORE DUP3 ISZERO PUSH3 0x191 JUMPI SWAP2 DUP3 ADD JUMPDEST DUP3 DUP2 GT ISZERO PUSH3 0x190 JUMPI DUP3 MLOAD DUP3 SSTORE SWAP2 PUSH1 0x20 ADD SWAP2 SWAP1 PUSH1 0x1 ADD SWAP1 PUSH3 0x173 JUMP JUMPDEST JUMPDEST POP SWAP1 POP PUSH3 0x1A0 SWAP2 SWAP1 PUSH3 0x1A4 JUMP JUMPDEST POP SWAP1 JUMP JUMPDEST JUMPDEST DUP1 DUP3 GT ISZERO PUSH3 0x1BF JUMPI PUSH1 0x0 DUP2 PUSH1 0x0 SWAP1 SSTORE POP PUSH1 0x1 ADD PUSH3 0x1A5 JUMP JUMPDEST POP SWAP1 JUMP JUMPDEST PUSH1 0x0 PUSH1 0x2 DUP3 DIV SWAP1 POP PUSH1 0x1 DUP3 AND DUP1 PUSH3 0x1DC JUMPI PUSH1 0x7F DUP3 AND SWAP2 POP JUMPDEST PUSH1 0x20 DUP3 LT DUP2 EQ ISZERO PUSH3 0x1F3 JUMPI PUSH3 0x1F2 PUSH3 0x228 JUMP JUMPDEST JUMPDEST POP SWAP2 SWAP1 POP JUMP JUMPDEST PUSH32 0x4E487B7100000000000000000000000000000000000000000000000000000000 PUSH1 0x0 MSTORE PUSH1 0x21 PUSH1 0x4 MSTORE PUSH1 0x24 PUSH1 0x0 REVERT JUMPDEST PUSH32 0x4E487B7100000000000000000000000000000000000000000000000000000000 PUSH1 0x0 MSTORE PUSH1 0x22 PUSH1 0x4 MSTORE PUSH1 0x24 PUSH1 0x0 REVERT JUMPDEST PUSH1 0x80 MLOAD PUSH1 0x60 SHR PUSH2 0x610D PUSH3 0x2D1 PUSH1 0x0 CODECOPY PUSH1 0x0 DUP2 DUP2 PUSH2 0x9A3 ADD MSTORE DUP2 DUP2 PUSH2 0x9F8 ADD MSTORE DUP2 DUP2 PUSH2 0x1041 ADD MSTORE DUP2 DUP2 PUSH2 0x1065 ADD MSTORE DUP2 DUP2 PUSH2 0x10BA ADD MSTORE DUP2 DUP2 PUSH2 0x1CD9 ADD MSTORE DUP2 DUP2 PUSH2 0x1D2E ADD MSTORE DUP2 DUP2 PUSH2 0x2000 ADD MSTORE DUP2 DUP2 PUSH2 0x2055 ADD MSTORE DUP2 DUP2 PUSH2 0x2C33 ADD MSTORE DUP2 DUP2 PUSH2 0x32DC ADD MSTORE DUP2 DUP2 PUSH2 0x3331 ADD MSTORE DUP2 DUP2 PUSH2 0x3B2B ADD MSTORE PUSH2 0x3B80 ADD MSTORE PUSH2 0x610D PUSH1 0x0 RETURN INVALID PUSH1 0x80 PUSH1 0x40 MSTORE CALLVALUE DUP1 ISZERO PUSH2 0x10 JUMPI PUSH1 0x0 DUP1 REVERT JUMPDEST POP PUSH1 0x4 CALLDATASIZE LT PUSH2 0x21C JUMPI PUSH1 0x0 CALLDATALOAD PUSH1 0xE0 SHR DUP1 PUSH4 0x77440E06 GT PUSH2 0x125 JUMPI DUP1 PUSH4 0xB798867F GT PUSH2 0xAD JUMPI DUP1 PUSH4 0xC1B43357 GT PUSH2 0x7C JUMPI DUP1 PUSH4 0xC1B43357 EQ PUSH2 0x468 JUMPI DUP1 PUSH4 0xC1C16EFC EQ PUSH2 0x499 JUMPI DUP1 PUSH4 0xE9B16CA3 EQ PUSH2 0x4B7 JUMPI DUP1 PUSH4 0xFC7FFBBA EQ PUSH2 0x4E7 JUMPI DUP1 PUSH4 0xFF289691 EQ PUSH2 0x4F1 JUMPI PUSH2 0x21C JUMP JUMPDEST DUP1 PUSH4 0xB798867F EQ PUSH2 0x42C JUMPI DUP1 PUSH4 0xB9223946 EQ PUSH2 0x44A JUMPI DUP1 PUSH4 0xBBB97DED EQ PUSH2 0x454 JUMPI DUP1 PUSH4 0xBDB1D745 EQ PUSH2 0x45E JUMPI PUSH2 0x21C JUMP JUMPDEST DUP1 PUSH4 0xA24A4E88 GT PUSH2 0xF4 JUMPI DUP1 PUSH4 0xA24A4E88 EQ PUSH2 0x3E6 JUMPI DUP1 PUSH4 0xA3BEF4D7 EQ PUSH2 0x3F0 JUMPI DUP1 PUSH4 0xA5627CF0 EQ PUSH2 0x40E JUMPI DUP1 PUSH4 0xA8267245 EQ PUSH2 0x418 JUMPI DUP1 PUSH4 0xA9A4070C EQ PUSH2 0x422 JUMPI PUSH2 0x21C JUMP JUMPDEST DUP1 PUSH4 0x77440E06 EQ PUSH2 0x3BE JUMPI DUP1 PUSH4 0x7FEA0D4B EQ PUSH2 0x3C8 JUMPI DUP1 PUSH4 0x848B4427 EQ PUSH2 0x3D2 JUMPI DUP1 PUSH4 0x947AEA86 EQ PUSH2 0x3DC JUMPI PUSH2 0x21C JUMP JUMPDEST DUP1 PUSH4 0x4C0A6AF0 GT PUSH2 0x1A8 JUMPI DUP1 PUSH4 0x632A9A52 GT PUSH2 0x177 JUMPI DUP1 PUSH4 0x632A9A52 EQ PUSH2 0x352 JUMPI DUP1 PUSH4 0x6629D50A EQ PUSH2 0x35C JUMPI DUP1 PUSH4 0x6D77BD3E EQ PUSH2 0x366 JUMPI DUP1 PUSH4 0x71135F8B EQ PUSH2 0x396 JUMPI DUP1 PUSH4 0x75F12B21 EQ PUSH2 0x3A0 JUMPI PUSH2 0x21C JUMP JUMPDEST DUP1 PUSH4 0x4C0A6AF0 EQ PUSH2 0x316 JUMPI DUP1 PUSH4 0x4F575698 EQ PUSH2 0x320 JUMPI DUP1 PUSH4 0x512A6FBB EQ PUSH2 0x32A JUMPI DUP1 PUSH4 0x5BF5D54C EQ PUSH2 0x334 JUMPI PUSH2 0x21C JUMP JUMPDEST DUP1 PUSH4 0x3231D447 GT PUSH2 0x1EF JUMPI DUP1 PUSH4 0x3231D447 EQ PUSH2 0x296 JUMPI DUP1 PUSH4 0x3B9F708D EQ PUSH2 0x2A0 JUMPI DUP1 PUSH4 0x44BF1451 EQ PUSH2 0x2D0 JUMPI DUP1 PUSH4 0x47098F36 EQ PUSH2 0x2DA JUMPI DUP1 PUSH4 0x481C6A75 EQ PUSH2 0x2F8 JUMPI PUSH2 0x21C JUMP JUMPDEST DUP1 PUSH4 0x12A4591A EQ PUSH2 0x221 JUMPI DUP1 PUSH4 0x19A06F27 EQ PUSH2 0x22B JUMPI DUP1 PUSH4 0x1DDABF7A EQ PUSH2 0x25B JUMPI DUP1 PUSH4 0x2955FEA3 EQ PUSH2 0x28C JUMPI JUMPDEST PUSH1 0x0 DUP1 REVERT JUMPDEST PUSH2 0x229 PUSH2 0x4FB JUMP JUMPDEST STOP JUMPDEST PUSH2 0x245 PUSH1 0x4 DUP1 CALLDATASIZE SUB DUP2 ADD SWAP1 PUSH2 0x240 SWAP2 SWAP1 PUSH2 0x4458 JUMP JUMPDEST PUSH2 0x68D JUMP JUMPDEST PUSH1 0x40 MLOAD PUSH2 0x252 SWAP2 SWAP1 PUSH2 0x508D JUMP JUMPDEST PUSH1 0x40 MLOAD DUP1 SWAP2 SUB SWAP1 RETURN JUMPDEST PUSH2 0x275 PUSH1 0x4 DUP1 CALLDATASIZE SUB DUP2 ADD SWAP1 PUSH2 0x270 SWAP2 SWAP1 PUSH2 0x432C JUMP JUMPDEST PUSH2 0x72D JUMP JUMPDEST PUSH1 0x40 MLOAD PUSH2 0x283 SWAP3 SWAP2 SWAP1 PUSH2 0x50AF JUMP JUMPDEST PUSH1 0x40 MLOAD DUP1 SWAP2 SUB SWAP1 RETURN JUMPDEST PUSH2 0x294 PUSH2 0x7E6 JUMP JUMPDEST STOP JUMPDEST PUSH2 0x29E PUSH2 0x8A3 JUMP JUMPDEST STOP JUMPDEST PUSH2 0x2BA PUSH1 0x4 DUP1 CALLDATASIZE SUB DUP2 ADD SWAP1 PUSH2 0x2B5 SWAP2 SWAP1 PUSH2 0x4386 JUMP JUMPDEST PUSH2 0x99F JUMP JUMPDEST PUSH1 0x40 MLOAD PUSH2 0x2C7 SWAP2 SWAP1 PUSH2 0x53EB JUMP JUMPDEST PUSH1 0x40 MLOAD DUP1 SWAP2 SUB SWAP1 RETURN JUMPDEST PUSH2 0x2D8 PUSH2 0xCC5 JUMP JUMPDEST STOP JUMPDEST PUSH2 0x2E2 PUSH2 0x102C JUMP JUMPDEST PUSH1 0x40 MLOAD PUSH2 0x2EF SWAP2 SWAP1 PUSH2 0x53EB JUMP JUMPDEST PUSH1 0x40 MLOAD DUP1 SWAP2 SUB SWAP1 RETURN JUMPDEST PUSH2 0x300 PUSH2 0x103F JUMP JUMPDEST PUSH1 0x40 MLOAD PUSH2 0x30D SWAP2 SWAP1 PUSH2 0x4C5E JUMP JUMPDEST PUSH1 0x40 MLOAD DUP1 SWAP2 SUB SWAP1 RETURN JUMPDEST PUSH2 0x31E PUSH2 0x1063 JUMP JUMPDEST STOP JUMPDEST PUSH2 0x328 PUSH2 0x1239 JUMP JUMPDEST STOP JUMPDEST PUSH2 0x332 PUSH2 0x1595 JUMP JUMPDEST STOP JUMPDEST PUSH2 0x33C PUSH2 0x18CF JUMP JUMPDEST PUSH1 0x40 MLOAD PUSH2 0x349 SWAP2 SWAP1 PUSH2 0x4FB5 JUMP JUMPDEST PUSH1 0x40 MLOAD DUP1 SWAP2 SUB SWAP1 RETURN JUMPDEST PUSH2 0x35A PUSH2 0x18E0 JUMP JUMPDEST STOP JUMPDEST PUSH2 0x364 PUSH2 0x199D JUMP JUMPDEST STOP JUMPDEST PUSH2 0x380 PUSH1 0x4 DUP1 CALLDATASIZE SUB DUP2 ADD SWAP1 PUSH2 0x37B SWAP2 SWAP1 PUSH2 0x440F JUMP JUMPDEST PUSH2 0x1CD5 JUMP JUMPDEST PUSH1 0x40 MLOAD PUSH2 0x38D SWAP2 SWAP1 PUSH2 0x53EB JUMP JUMPDEST PUSH1 0x40 MLOAD DUP1 SWAP2 SUB SWAP1 RETURN JUMPDEST PUSH2 0x39E PUSH2 0x1FFE JUMP JUMPDEST STOP JUMPDEST PUSH2 0x3A8 PUSH2 0x210E JUMP JUMPDEST PUSH1 0x40 MLOAD PUSH2 0x3B5 SWAP2 SWAP1 PUSH2 0x4D3A JUMP JUMPDEST PUSH1 0x40 MLOAD DUP1 SWAP2 SUB SWAP1 RETURN JUMPDEST PUSH2 0x3C6 PUSH2 0x2121 JUMP JUMPDEST STOP JUMPDEST PUSH2 0x3D0 PUSH2 0x247F JUMP JUMPDEST STOP JUMPDEST PUSH2 0x3DA PUSH2 0x2869 JUMP JUMPDEST STOP JUMPDEST PUSH2 0x3E4 PUSH2 0x2C17 JUMP JUMPDEST STOP JUMPDEST PUSH2 0x3EE PUSH2 0x2CE5 JUMP JUMPDEST STOP JUMPDEST PUSH2 0x3F8 PUSH2 0x2DA2 JUMP JUMPDEST PUSH1 0x40 MLOAD PUSH2 0x405 SWAP2 SWAP1 PUSH2 0x53EB JUMP JUMPDEST PUSH1 0x40 MLOAD DUP1 SWAP2 SUB SWAP1 RETURN JUMPDEST PUSH2 0x416 PUSH2 0x2DB5 JUMP JUMPDEST STOP JUMPDEST PUSH2 0x420 PUSH2 0x311C JUMP JUMPDEST STOP JUMPDEST PUSH2 0x42A PUSH2 0x3207 JUMP JUMPDEST STOP JUMPDEST PUSH2 0x434 PUSH2 0x32C7 JUMP JUMPDEST PUSH1 0x40 MLOAD PUSH2 0x441 SWAP2 SWAP1 PUSH2 0x53EB JUMP JUMPDEST PUSH1 0x40 MLOAD DUP1 SWAP2 SUB SWAP1 RETURN JUMPDEST PUSH2 0x452 PUSH2 0x32DA JUMP JUMPDEST STOP JUMPDEST PUSH2 0x45C PUSH2 0x3519 JUMP JUMPDEST STOP JUMPDEST PUSH2 0x466 PUSH2 0x35D6 JUMP JUMPDEST STOP JUMPDEST PUSH2 0x482 PUSH1 0x4 DUP1 CALLDATASIZE SUB DUP2 ADD SWAP1 PUSH2 0x47D SWAP2 SWAP1 PUSH2 0x4458 JUMP JUMPDEST PUSH2 0x3696 JUMP JUMPDEST PUSH1 0x40 MLOAD PUSH2 0x490 SWAP3 SWAP2 SWAP1 PUSH2 0x4D11 JUMP JUMPDEST PUSH1 0x40 MLOAD DUP1 SWAP2 SUB SWAP1 RETURN JUMPDEST PUSH2 0x4A1 PUSH2 0x36E7 JUMP JUMPDEST PUSH1 0x40 MLOAD PUSH2 0x4AE SWAP2 SWAP1 PUSH2 0x508D JUMP JUMPDEST PUSH1 0x40 MLOAD DUP1 SWAP2 SUB SWAP1 RETURN JUMPDEST PUSH2 0x4D1 PUSH1 0x4 DUP1 CALLDATASIZE SUB DUP2 ADD SWAP1 PUSH2 0x4CC SWAP2 SWAP1 PUSH2 0x4458 JUMP JUMPDEST PUSH2 0x3775 JUMP JUMPDEST PUSH1 0x40 MLOAD PUSH2 0x4DE SWAP2 SWAP1 PUSH2 0x4D3A JUMP JUMPDEST PUSH1 0x40 MLOAD DUP1 SWAP2 SUB SWAP1 RETURN JUMPDEST PUSH2 0x4EF PUSH2 0x3B29 JUMP JUMPDEST STOP JUMPDEST PUSH2 0x4F9 PUSH2 0x3CFF JUMP JUMPDEST STOP JUMPDEST PUSH20 0x0 PUSH4 0xABCD7960 PUSH2 0x553 PUSH1 0x40 MLOAD DUP1 PUSH1 0x40 ADD PUSH1 0x40 MSTORE DUP1 PUSH1 0xE DUP2 MSTORE PUSH1 0x20 ADD PUSH32 0x436F757274796172642043616665000000000000000000000000000000000000 DUP2 MSTORE POP PUSH2 0x1CD5 JUMP JUMPDEST PUSH1 0x1 PUSH1 0x40 MLOAD DUP4 PUSH4 0xFFFFFFFF AND PUSH1 0xE0 SHL DUP2 MSTORE PUSH1 0x4 ADD PUSH2 0x572 SWAP3 SWAP2 SWAP1 PUSH2 0x5406 JUMP JUMPDEST PUSH1 0x20 PUSH1 0x40 MLOAD DUP1 DUP4 SUB DUP2 DUP7 DUP1 EXTCODESIZE ISZERO DUP1 ISZERO PUSH2 0x58A JUMPI PUSH1 0x0 DUP1 REVERT JUMPDEST POP GAS DELEGATECALL ISZERO DUP1 ISZERO PUSH2 0x59E JUMPI RETURNDATASIZE PUSH1 0x0 DUP1 RETURNDATACOPY RETURNDATASIZE PUSH1 0x0 REVERT JUMPDEST POP POP POP POP PUSH1 0x40 MLOAD RETURNDATASIZE PUSH1 0x1F NOT PUSH1 0x1F DUP3 ADD AND DUP3 ADD DUP1 PUSH1 0x40 MSTORE POP DUP2 ADD SWAP1 PUSH2 0x5C2 SWAP2 SWAP1 PUSH2 0x43E2 JUMP JUMPDEST POP PUSH20 0x0 PUSH4 0xABCD7960 PUSH2 0x61B PUSH1 0x40 MLOAD DUP1 PUSH1 0x40 ADD PUSH1 0x40 MSTORE DUP1 PUSH1 0x8 DUP2 MSTORE PUSH1 0x20 ADD PUSH32 0x556E692043616665000000000000000000000000000000000000000000000000 DUP2 MSTORE POP PUSH2 0x1CD5 JUMP JUMPDEST PUSH1 0x2 PUSH1 0x40 MLOAD DUP4 PUSH4 0xFFFFFFFF AND PUSH1 0xE0 SHL DUP2 MSTORE PUSH1 0x4 ADD PUSH2 0x63A SWAP3 SWAP2 SWAP1 PUSH2 0x5442 JUMP JUMPDEST PUSH1 0x20 PUSH1 0x40 MLOAD DUP1 DUP4 SUB DUP2 DUP7 DUP1 EXTCODESIZE ISZERO DUP1 ISZERO PUSH2 0x652 JUMPI PUSH1 0x0 DUP1 REVERT JUMPDEST POP GAS DELEGATECALL ISZERO DUP1 ISZERO PUSH2 0x666 JUMPI RETURNDATASIZE PUSH1 0x0 DUP1 RETURNDATACOPY RETURNDATASIZE PUSH1 0x0 REVERT JUMPDEST POP POP POP POP PUSH1 0x40 MLOAD RETURNDATASIZE PUSH1 0x1F NOT PUSH1 0x1F DUP3 ADD AND DUP3 ADD DUP1 PUSH1 0x40 MSTORE POP DUP2 ADD SWAP1 PUSH2 0x68A SWAP2 SWAP1 PUSH2 0x43E2 JUMP JUMPDEST POP JUMP JUMPDEST PUSH1 0x1 PUSH1 0x20 MSTORE DUP1 PUSH1 0x0 MSTORE PUSH1 0x40 PUSH1 0x0 KECCAK256 PUSH1 0x0 SWAP2 POP SWAP1 POP DUP1 SLOAD PUSH2 0x6AC SWAP1 PUSH2 0x57D7 JUMP JUMPDEST DUP1 PUSH1 0x1F ADD PUSH1 0x20 DUP1 SWAP2 DIV MUL PUSH1 0x20 ADD PUSH1 0x40 MLOAD SWAP1 DUP2 ADD PUSH1 0x40 MSTORE DUP1 SWAP3 SWAP2 SWAP1 DUP2 DUP2 MSTORE PUSH1 0x20 ADD DUP3 DUP1 SLOAD PUSH2 0x6D8 SWAP1 PUSH2 0x57D7 JUMP JUMPDEST DUP1 ISZERO PUSH2 0x725 JUMPI DUP1 PUSH1 0x1F LT PUSH2 0x6FA JUMPI PUSH2 0x100 DUP1 DUP4 SLOAD DIV MUL DUP4 MSTORE SWAP2 PUSH1 0x20 ADD SWAP2 PUSH2 0x725 JUMP JUMPDEST DUP3 ADD SWAP2 SWAP1 PUSH1 0x0 MSTORE PUSH1 0x20 PUSH1 0x0 KECCAK256 SWAP1 JUMPDEST DUP2 SLOAD DUP2 MSTORE SWAP1 PUSH1 0x1 ADD SWAP1 PUSH1 0x20 ADD DUP1 DUP4 GT PUSH2 0x708 JUMPI DUP3 SWAP1 SUB PUSH1 0x1F AND DUP3 ADD SWAP2 JUMPDEST POP POP POP POP POP DUP2 JUMP JUMPDEST PUSH1 0x2 PUSH1 0x20 MSTORE DUP1 PUSH1 0x0 MSTORE PUSH1 0x40 PUSH1 0x0 KECCAK256 PUSH1 0x0 SWAP2 POP SWAP1 POP DUP1 PUSH1 0x0 ADD DUP1 SLOAD PUSH2 0x750 SWAP1 PUSH2 0x57D7 JUMP JUMPDEST DUP1 PUSH1 0x1F ADD PUSH1 0x20 DUP1 SWAP2 DIV MUL PUSH1 0x20 ADD PUSH1 0x40 MLOAD SWAP1 DUP2 ADD PUSH1 0x40 MSTORE DUP1 SWAP3 SWAP2 SWAP1 DUP2 DUP2 MSTORE PUSH1 0x20 ADD DUP3 DUP1 SLOAD PUSH2 0x77C SWAP1 PUSH2 0x57D7 JUMP JUMPDEST DUP1 ISZERO PUSH2 0x7C9 JUMPI DUP1 PUSH1 0x1F LT PUSH2 0x79E JUMPI PUSH2 0x100 DUP1 DUP4 SLOAD DIV MUL DUP4 MSTORE SWAP2 PUSH1 0x20 ADD SWAP2 PUSH2 0x7C9 JUMP JUMPDEST DUP3 ADD SWAP2 SWAP1 PUSH1 0x0 MSTORE PUSH1 0x20 PUSH1 0x0 KECCAK256 SWAP1 JUMPDEST DUP2 SLOAD DUP2 MSTORE SWAP1 PUSH1 0x1 ADD SWAP1 PUSH1 0x20 ADD DUP1 DUP4 GT PUSH2 0x7AC JUMPI DUP3 SWAP1 SUB PUSH1 0x1F AND DUP3 ADD SWAP2 JUMPDEST POP POP POP POP POP SWAP1 DUP1 PUSH1 0x1 ADD PUSH1 0x0 SWAP1 SLOAD SWAP1 PUSH2 0x100 EXP SWAP1 DIV PUSH1 0xFF AND SWAP1 POP DUP3 JUMP JUMPDEST PUSH1 0x1 PUSH1 0x0 DUP1 PUSH2 0x100 EXP DUP2 SLOAD DUP2 PUSH1 0xFF MUL NOT AND SWAP1 DUP4 PUSH1 0x2 DUP2 GT ISZERO PUSH2 0x80B JUMPI PUSH2 0x80A PUSH2 0x58C2 JUMP JUMPDEST JUMPDEST MUL OR SWAP1 SSTORE POP PUSH20 0x0 PUSH4 0x39DF137F PUSH2 0x834 PUSH1 0x2 PUSH2 0x3775 JUMP JUMPDEST PUSH1 0x40 MLOAD DUP3 PUSH4 0xFFFFFFFF AND PUSH1 0xE0 SHL DUP2 MSTORE PUSH1 0x4 ADD PUSH2 0x850 SWAP2 SWAP1 PUSH2 0x4F59 JUMP JUMPDEST PUSH1 0x20 PUSH1 0x40 MLOAD DUP1 DUP4 SUB DUP2 DUP7 DUP1 EXTCODESIZE ISZERO DUP1 ISZERO PUSH2 0x868 JUMPI PUSH1 0x0 DUP1 REVERT JUMPDEST POP GAS DELEGATECALL ISZERO DUP1 ISZERO PUSH2 0x87C JUMPI RETURNDATASIZE PUSH1 0x0 DUP1 RETURNDATACOPY RETURNDATASIZE PUSH1 0x0 REVERT JUMPDEST POP POP POP POP PUSH1 0x40 MLOAD RETURNDATASIZE PUSH1 0x1F NOT PUSH1 0x1F DUP3 ADD AND DUP3 ADD DUP1 PUSH1 0x40 MSTORE POP DUP2 ADD SWAP1 PUSH2 0x8A0 SWAP2 SWAP1 PUSH2 0x43E2 JUMP JUMPDEST POP JUMP JUMPDEST ADDRESS PUSH20 0xFFFFFFFFFFFFFFFFFFFFFFFFFFFFFFFFFFFFFFFF AND PUSH4 0x71135F8B PUSH1 0x40 MLOAD DUP2 PUSH4 0xFFFFFFFF AND PUSH1 0xE0 SHL DUP2 MSTORE PUSH1 0x4 ADD PUSH1 0x0 PUSH1 0x40 MLOAD DUP1 DUP4 SUB DUP2 PUSH1 0x0 DUP8 DUP1 EXTCODESIZE ISZERO DUP1 ISZERO PUSH2 0x8EB JUMPI PUSH1 0x0 DUP1 REVERT JUMPDEST POP GAS CALL ISZERO DUP1 ISZERO PUSH2 0x8FF JUMPI RETURNDATASIZE PUSH1 0x0 DUP1 RETURNDATACOPY RETURNDATASIZE PUSH1 0x0 REVERT JUMPDEST POP POP POP POP PUSH20 0x0 PUSH4 0x767392B3 PUSH1 0x7 PUSH1 0x0 SWAP1 SLOAD SWAP1 PUSH2 0x100 EXP SWAP1 DIV PUSH1 0xFF AND PUSH1 0x1 PUSH1 0x40 MLOAD DUP4 PUSH4 0xFFFFFFFF AND PUSH1 0xE0 SHL DUP2 MSTORE PUSH1 0x4 ADD PUSH2 0x94C SWAP3 SWAP2 SWAP1 PUSH2 0x4D55 JUMP JUMPDEST PUSH1 0x20 PUSH1 0x40 MLOAD DUP1 DUP4 SUB DUP2 DUP7 DUP1 EXTCODESIZE ISZERO DUP1 ISZERO PUSH2 0x964 JUMPI PUSH1 0x0 DUP1 REVERT JUMPDEST POP GAS DELEGATECALL ISZERO DUP1 ISZERO PUSH2 0x978 JUMPI RETURNDATASIZE PUSH1 0x0 DUP1 RETURNDATACOPY RETURNDATASIZE PUSH1 0x0 REVERT JUMPDEST POP POP POP POP PUSH1 0x40 MLOAD RETURNDATASIZE PUSH1 0x1F NOT PUSH1 0x1F DUP3 ADD AND DUP3 ADD DUP1 PUSH1 0x40 MSTORE POP DUP2 ADD SWAP1 PUSH2 0x99C SWAP2 SWAP1 PUSH2 0x43E2 JUMP JUMPDEST POP JUMP JUMPDEST PUSH1 0x0 PUSH32 0x0 PUSH20 0xFFFFFFFFFFFFFFFFFFFFFFFFFFFFFFFFFFFFFFFF AND ORIGIN PUSH20 0xFFFFFFFFFFFFFFFFFFFFFFFFFFFFFFFFFFFFFFFF AND EQ DUP1 PUSH2 0xA46 JUMPI POP PUSH32 0x0 PUSH20 0xFFFFFFFFFFFFFFFFFFFFFFFFFFFFFFFFFFFFFFFF AND CALLER PUSH20 0xFFFFFFFFFFFFFFFFFFFFFFFFFFFFFFFFFFFFFFFF AND EQ JUMPDEST PUSH2 0xA85 JUMPI PUSH1 0x40 MLOAD PUSH32 0x8C379A000000000000000000000000000000000000000000000000000000000 DUP2 MSTORE PUSH1 0x4 ADD PUSH2 0xA7C SWAP1 PUSH2 0x534F JUMP JUMPDEST PUSH1 0x40 MLOAD DUP1 SWAP2 SUB SWAP1 REVERT JUMPDEST DUP3 PUSH1 0x0 PUSH1 0x2 PUSH1 0x0 DUP4 PUSH20 0xFFFFFFFFFFFFFFFFFFFFFFFFFFFFFFFFFFFFFFFF AND PUSH20 0xFFFFFFFFFFFFFFFFFFFFFFFFFFFFFFFFFFFFFFFF AND DUP2 MSTORE PUSH1 0x20 ADD SWAP1 DUP2 MSTORE PUSH1 0x20 ADD PUSH1 0x0 KECCAK256 PUSH1 0x0 ADD DUP1 SLOAD PUSH2 0xAD5 SWAP1 PUSH2 0x57D7 JUMP JUMPDEST SWAP1 POP EQ PUSH2 0xB17 JUMPI PUSH1 0x40 MLOAD PUSH32 0x8C379A000000000000000000000000000000000000000000000000000000000 DUP2 MSTORE PUSH1 0x4 ADD PUSH2 0xB0E SWAP1 PUSH2 0x532F JUMP JUMPDEST PUSH1 0x40 MLOAD DUP1 SWAP2 SUB SWAP1 REVERT JUMPDEST PUSH1 0x0 DUP1 PUSH1 0x2 DUP2 GT ISZERO PUSH2 0xB2C JUMPI PUSH2 0xB2B PUSH2 0x58C2 JUMP JUMPDEST JUMPDEST PUSH1 0x0 DUP1 SLOAD SWAP1 PUSH2 0x100 EXP SWAP1 DIV PUSH1 0xFF AND PUSH1 0x2 DUP2 GT ISZERO PUSH2 0xB4C JUMPI PUSH2 0xB4B PUSH2 0x58C2 JUMP JUMPDEST JUMPDEST EQ PUSH2 0xB8C JUMPI PUSH1 0x40 MLOAD PUSH32 0x8C379A000000000000000000000000000000000000000000000000000000000 DUP2 MSTORE PUSH1 0x4 ADD PUSH2 0xB83 SWAP1 PUSH2 0x530F JUMP JUMPDEST PUSH1 0x40 MLOAD DUP1 SWAP2 SUB SWAP1 REVERT JUMPDEST PUSH1 0x7 PUSH1 0x0 SWAP1 SLOAD SWAP1 PUSH2 0x100 EXP SWAP1 DIV PUSH1 0xFF AND ISZERO PUSH2 0xBDC JUMPI PUSH1 0x40 MLOAD PUSH32 0x8C379A000000000000000000000000000000000000000000000000000000000 DUP2 MSTORE PUSH1 0x4 ADD PUSH2 0xBD3 SWAP1 PUSH2 0x52EF JUMP JUMPDEST PUSH1 0x40 MLOAD DUP1 SWAP2 SUB SWAP1 REVERT JUMPDEST PUSH1 0x40 MLOAD DUP1 PUSH1 0x40 ADD PUSH1 0x40 MSTORE DUP1 DUP6 DUP2 MSTORE PUSH1 0x20 ADD PUSH1 0x0 ISZERO ISZERO DUP2 MSTORE POP PUSH1 0x2 PUSH1 0x0 DUP8 PUSH20 0xFFFFFFFFFFFFFFFFFFFFFFFFFFFFFFFFFFFFFFFF AND PUSH20 0xFFFFFFFFFFFFFFFFFFFFFFFFFFFFFFFFFFFFFFFF AND DUP2 MSTORE PUSH1 0x20 ADD SWAP1 DUP2 MSTORE PUSH1 0x20 ADD PUSH1 0x0 KECCAK256 PUSH1 0x0 DUP3 ADD MLOAD DUP2 PUSH1 0x0 ADD SWAP1 DUP1 MLOAD SWAP1 PUSH1 0x20 ADD SWAP1 PUSH2 0xC4F SWAP3 SWAP2 SWAP1 PUSH2 0x4123 JUMP JUMPDEST POP PUSH1 0x20 DUP3 ADD MLOAD DUP2 PUSH1 0x1 ADD PUSH1 0x0 PUSH2 0x100 EXP DUP2 SLOAD DUP2 PUSH1 0xFF MUL NOT AND SWAP1 DUP4 ISZERO ISZERO MUL OR SWAP1 SSTORE POP SWAP1 POP POP PUSH1 0x3 PUSH1 0x1 DUP2 DUP2 SWAP1 SLOAD SWAP1 PUSH2 0x100 EXP SWAP1 DIV PUSH1 0xFF AND DUP1 SWAP3 SWAP2 SWAP1 PUSH2 0xC92 SWAP1 PUSH2 0x583A JUMP JUMPDEST SWAP2 SWAP1 PUSH2 0x100 EXP DUP2 SLOAD DUP2 PUSH1 0xFF MUL NOT AND SWAP1 DUP4 PUSH1 0xFF AND MUL OR SWAP1 SSTORE POP POP PUSH1 0x3 PUSH1 0x1 SWAP1 SLOAD SWAP1 PUSH2 0x100 EXP SWAP1 DIV PUSH1 0xFF AND SWAP3 POP POP POP SWAP3 SWAP2 POP POP JUMP JUMPDEST PUSH1 0x1 PUSH1 0x0 DUP1 PUSH2 0x100 EXP DUP2 SLOAD DUP2 PUSH1 0xFF MUL NOT AND SWAP1 DUP4 PUSH1 0x2 DUP2 GT ISZERO PUSH2 0xCEA JUMPI PUSH2 0xCE9 PUSH2 0x58C2 JUMP JUMPDEST JUMPDEST MUL OR SWAP1 SSTORE POP ADDRESS PUSH20 0xFFFFFFFFFFFFFFFFFFFFFFFFFFFFFFFFFFFFFFFF AND PUSH4 0xE9B16CA3 PUSH1 0x2 PUSH1 0x40 MLOAD DUP3 PUSH4 0xFFFFFFFF AND PUSH1 0xE0 SHL DUP2 MSTORE PUSH1 0x4 ADD PUSH2 0xD29 SWAP2 SWAP1 PUSH2 0x503C JUMP JUMPDEST PUSH1 0x20 PUSH1 0x40 MLOAD DUP1 DUP4 SUB DUP2 PUSH1 0x0 DUP8 DUP1 EXTCODESIZE ISZERO DUP1 ISZERO PUSH2 0xD43 JUMPI PUSH1 0x0 DUP1 REVERT JUMPDEST POP GAS CALL SWAP3 POP POP POP DUP1 ISZERO PUSH2 0xD74 JUMPI POP PUSH1 0x40 MLOAD RETURNDATASIZE PUSH1 0x1F NOT PUSH1 0x1F DUP3 ADD AND DUP3 ADD DUP1 PUSH1 0x40 MSTORE POP DUP2 ADD SWAP1 PUSH2 0xD71 SWAP2 SWAP1 PUSH2 0x43E2 JUMP JUMPDEST PUSH1 0x1 JUMPDEST PUSH2 0xF9D JUMPI PUSH2 0xD80 PUSH2 0x594F JUMP JUMPDEST DUP1 PUSH4 0x8C379A0 EQ ISZERO PUSH2 0xE2E JUMPI POP PUSH2 0xD95 PUSH2 0x5FC7 JUMP JUMPDEST DUP1 PUSH2 0xDA0 JUMPI POP PUSH2 0xEDB JUMP JUMPDEST PUSH20 0x0 PUSH4 0xE8C2CB16 DUP3 PUSH1 0x40 MLOAD DUP3 PUSH4 0xFFFFFFFF AND PUSH1 0xE0 SHL DUP2 MSTORE PUSH1 0x4 ADD PUSH2 0xDD7 SWAP2 SWAP1 PUSH2 0x50DF JUMP JUMPDEST PUSH1 0x20 PUSH1 0x40 MLOAD DUP1 DUP4 SUB DUP2 DUP7 DUP1 EXTCODESIZE ISZERO DUP1 ISZERO PUSH2 0xDEF JUMPI PUSH1 0x0 DUP1 REVERT JUMPDEST POP GAS DELEGATECALL ISZERO DUP1 ISZERO PUSH2 0xE03 JUMPI RETURNDATASIZE PUSH1 0x0 DUP1 RETURNDATACOPY RETURNDATASIZE PUSH1 0x0 REVERT JUMPDEST POP POP POP POP PUSH1 0x40 MLOAD RETURNDATASIZE PUSH1 0x1F NOT PUSH1 0x1F DUP3 ADD AND DUP3 ADD DUP1 PUSH1 0x40 MSTORE POP DUP2 ADD SWAP1 PUSH2 0xE27 SWAP2 SWAP1 PUSH2 0x43E2 JUMP JUMPDEST POP POP PUSH2 0xF98 JUMP JUMPDEST PUSH4 0x4E487B71 EQ ISZERO PUSH2 0xEDB JUMPI PUSH2 0xE41 PUSH2 0x605D JUMP JUMPDEST SWAP1 PUSH2 0xE4C JUMPI POP PUSH2 0xEDB JUMP JUMPDEST PUSH20 0x0 PUSH4 0x39DF137F PUSH1 0x0 PUSH1 0x40 MLOAD DUP3 PUSH4 0xFFFFFFFF AND PUSH1 0xE0 SHL DUP2 MSTORE PUSH1 0x4 ADD PUSH2 0xE84 SWAP2 SWAP1 PUSH2 0x4EFD JUMP JUMPDEST PUSH1 0x20 PUSH1 0x40 MLOAD DUP1 DUP4 SUB DUP2 DUP7 DUP1 EXTCODESIZE ISZERO DUP1 ISZERO PUSH2 0xE9C JUMPI PUSH1 0x0 DUP1 REVERT JUMPDEST POP GAS DELEGATECALL ISZERO DUP1 ISZERO PUSH2 0xEB0 JUMPI RETURNDATASIZE PUSH1 0x0 DUP1 RETURNDATACOPY RETURNDATASIZE PUSH1 0x0 REVERT JUMPDEST POP POP POP POP PUSH1 0x40 MLOAD RETURNDATASIZE PUSH1 0x1F NOT PUSH1 0x1F DUP3 ADD AND DUP3 ADD DUP1 PUSH1 0x40 MSTORE POP DUP2 ADD SWAP1 PUSH2 0xED4 SWAP2 SWAP1 PUSH2 0x43E2 JUMP JUMPDEST POP POP PUSH2 0xF98 JUMP JUMPDEST RETURNDATASIZE DUP1 PUSH1 0x0 DUP2 EQ PUSH2 0xF07 JUMPI PUSH1 0x40 MLOAD SWAP2 POP PUSH1 0x1F NOT PUSH1 0x3F RETURNDATASIZE ADD AND DUP3 ADD PUSH1 0x40 MSTORE RETURNDATASIZE DUP3 MSTORE RETURNDATASIZE PUSH1 0x0 PUSH1 0x20 DUP5 ADD RETURNDATACOPY PUSH2 0xF0C JUMP JUMPDEST PUSH1 0x60 SWAP2 POP JUMPDEST POP PUSH20 0x0 PUSH4 0x39DF137F PUSH1 0x0 PUSH1 0x40 MLOAD DUP3 PUSH4 0xFFFFFFFF AND PUSH1 0xE0 SHL DUP2 MSTORE PUSH1 0x4 ADD PUSH2 0xF45 SWAP2 SWAP1 PUSH2 0x4E45 JUMP JUMPDEST PUSH1 0x20 PUSH1 0x40 MLOAD DUP1 DUP4 SUB DUP2 DUP7 DUP1 EXTCODESIZE ISZERO DUP1 ISZERO PUSH2 0xF5D JUMPI PUSH1 0x0 DUP1 REVERT JUMPDEST POP GAS DELEGATECALL ISZERO DUP1 ISZERO PUSH2 0xF71 JUMPI RETURNDATASIZE PUSH1 0x0 DUP1 RETURNDATACOPY RETURNDATASIZE PUSH1 0x0 REVERT JUMPDEST POP POP POP POP PUSH1 0x40 MLOAD RETURNDATASIZE PUSH1 0x1F NOT PUSH1 0x1F DUP3 ADD AND DUP3 ADD DUP1 PUSH1 0x40 MSTORE POP DUP2 ADD SWAP1 PUSH2 0xF95 SWAP2 SWAP1 PUSH2 0x43E2 JUMP JUMPDEST POP POP JUMPDEST PUSH2 0x102A JUMP JUMPDEST PUSH20 0x0 PUSH4 0x767392B3 DUP3 PUSH1 0x1 PUSH1 0x40 MLOAD DUP4 PUSH4 0xFFFFFFFF AND PUSH1 0xE0 SHL DUP2 MSTORE PUSH1 0x4 ADD PUSH2 0xFD7 SWAP3 SWAP2 SWAP1 PUSH2 0x4DCD JUMP JUMPDEST PUSH1 0x20 PUSH1 0x40 MLOAD DUP1 DUP4 SUB DUP2 DUP7 DUP1 EXTCODESIZE ISZERO DUP1 ISZERO PUSH2 0xFEF JUMPI PUSH1 0x0 DUP1 REVERT JUMPDEST POP GAS DELEGATECALL ISZERO DUP1 ISZERO PUSH2 0x1003 JUMPI RETURNDATASIZE PUSH1 0x0 DUP1 RETURNDATACOPY RETURNDATASIZE PUSH1 0x0 REVERT JUMPDEST POP POP POP POP PUSH1 0x40 MLOAD RETURNDATASIZE PUSH1 0x1F NOT PUSH1 0x1F DUP3 ADD AND DUP3 ADD DUP1 PUSH1 0x40 MSTORE POP DUP2 ADD SWAP1 PUSH2 0x1027 SWAP2 SWAP1 PUSH2 0x43E2 JUMP JUMPDEST POP POP JUMPDEST JUMP JUMPDEST PUSH1 0x3 PUSH1 0x1 SWAP1 SLOAD SWAP1 PUSH2 0x100 EXP SWAP1 DIV PUSH1 0xFF AND DUP2 JUMP JUMPDEST PUSH32 0x0 DUP2 JUMP JUMPDEST PUSH32 0x0 PUSH20 0xFFFFFFFFFFFFFFFFFFFFFFFFFFFFFFFFFFFFFFFF AND ORIGIN PUSH20 0xFFFFFFFFFFFFFFFFFFFFFFFFFFFFFFFFFFFFFFFF AND EQ DUP1 PUSH2 0x1108 JUMPI POP PUSH32 0x0 PUSH20 0xFFFFFFFFFFFFFFFFFFFFFFFFFFFFFFFFFFFFFFFF AND CALLER PUSH20 0xFFFFFFFFFFFFFFFFFFFFFFFFFFFFFFFFFFFFFFFF AND EQ JUMPDEST PUSH2 0x1147 JUMPI PUSH1 0x40 MLOAD PUSH32 0x8C379A000000000000000000000000000000000000000000000000000000000 DUP2 MSTORE PUSH1 0x4 ADD PUSH2 0x113E SWAP1 PUSH2 0x534F JUMP JUMPDEST PUSH1 0x40 MLOAD DUP1 SWAP2 SUB SWAP1 REVERT JUMPDEST PUSH1 0x0 DUP1 PUSH1 0x2 DUP2 GT ISZERO PUSH2 0x115C JUMPI PUSH2 0x115B PUSH2 0x58C2 JUMP JUMPDEST JUMPDEST PUSH1 0x0 DUP1 SLOAD SWAP1 PUSH2 0x100 EXP SWAP1 DIV PUSH1 0xFF AND PUSH1 0x2 DUP2 GT ISZERO PUSH2 0x117C JUMPI PUSH2 0x117B PUSH2 0x58C2 JUMP JUMPDEST JUMPDEST EQ PUSH2 0x11BC JUMPI PUSH1 0x40 MLOAD PUSH32 0x8C379A000000000000000000000000000000000000000000000000000000000 DUP2 MSTORE PUSH1 0x4 ADD PUSH2 0x11B3 SWAP1 PUSH2 0x530F JUMP JUMPDEST PUSH1 0x40 MLOAD DUP1 SWAP2 SUB SWAP1 REVERT JUMPDEST PUSH1 0x7 PUSH1 0x0 SWAP1 SLOAD SWAP1 PUSH2 0x100 EXP SWAP1 DIV PUSH1 0xFF AND ISZERO PUSH2 0x120C JUMPI PUSH1 0x40 MLOAD PUSH32 0x8C379A000000000000000000000000000000000000000000000000000000000 DUP2 MSTORE PUSH1 0x4 ADD PUSH2 0x1203 SWAP1 PUSH2 0x52EF JUMP JUMPDEST PUSH1 0x40 MLOAD DUP1 SWAP2 SUB SWAP1 REVERT JUMPDEST PUSH1 0x1 PUSH1 0x0 DUP1 PUSH2 0x100 EXP DUP2 SLOAD DUP2 PUSH1 0xFF MUL NOT AND SWAP1 DUP4 PUSH1 0x2 DUP2 GT ISZERO PUSH2 0x1231 JUMPI PUSH2 0x1230 PUSH2 0x58C2 JUMP JUMPDEST JUMPDEST MUL OR SWAP1 SSTORE POP POP JUMP JUMPDEST ADDRESS PUSH20 0xFFFFFFFFFFFFFFFFFFFFFFFFFFFFFFFFFFFFFFFF AND PUSH4 0x3B9F708D PUSH1 0x7 PUSH1 0x1 SWAP1 SLOAD SWAP1 PUSH2 0x100 EXP SWAP1 DIV PUSH20 0xFFFFFFFFFFFFFFFFFFFFFFFFFFFFFFFFFFFFFFFF AND PUSH1 0x40 MLOAD DUP3 PUSH4 0xFFFFFFFF AND PUSH1 0xE0 SHL DUP2 MSTORE PUSH1 0x4 ADD PUSH2 0x1294 SWAP2 SWAP1 PUSH2 0x4CB5 JUMP JUMPDEST PUSH1 0x20 PUSH1 0x40 MLOAD DUP1 DUP4 SUB DUP2 PUSH1 0x0 DUP8 DUP1 EXTCODESIZE ISZERO DUP1 ISZERO PUSH2 0x12AE JUMPI PUSH1 0x0 DUP1 REVERT JUMPDEST POP GAS CALL SWAP3 POP POP POP DUP1 ISZERO PUSH2 0x12DF JUMPI POP PUSH1 0x40 MLOAD RETURNDATASIZE PUSH1 0x1F NOT PUSH1 0x1F DUP3 ADD AND DUP3 ADD DUP1 PUSH1 0x40 MSTORE POP DUP2 ADD SWAP1 PUSH2 0x12DC SWAP2 SWAP1 PUSH2 0x4485 JUMP JUMPDEST PUSH1 0x1 JUMPDEST PUSH2 0x1508 JUMPI PUSH2 0x12EB PUSH2 0x594F JUMP JUMPDEST DUP1 PUSH4 0x8C379A0 EQ ISZERO PUSH2 0x1399 JUMPI POP PUSH2 0x1300 PUSH2 0x5FC7 JUMP JUMPDEST DUP1 PUSH2 0x130B JUMPI POP PUSH2 0x1446 JUMP JUMPDEST PUSH20 0x0 PUSH4 0xE8C2CB16 DUP3 PUSH1 0x40 MLOAD DUP3 PUSH4 0xFFFFFFFF AND PUSH1 0xE0 SHL DUP2 MSTORE PUSH1 0x4 ADD PUSH2 0x1342 SWAP2 SWAP1 PUSH2 0x516F JUMP JUMPDEST PUSH1 0x20 PUSH1 0x40 MLOAD DUP1 DUP4 SUB DUP2 DUP7 DUP1 EXTCODESIZE ISZERO DUP1 ISZERO PUSH2 0x135A JUMPI PUSH1 0x0 DUP1 REVERT JUMPDEST POP GAS DELEGATECALL ISZERO DUP1 ISZERO PUSH2 0x136E JUMPI RETURNDATASIZE PUSH1 0x0 DUP1 RETURNDATACOPY RETURNDATASIZE PUSH1 0x0 REVERT JUMPDEST POP POP POP POP PUSH1 0x40 MLOAD RETURNDATASIZE PUSH1 0x1F NOT PUSH1 0x1F DUP3 ADD AND DUP3 ADD DUP1 PUSH1 0x40 MSTORE POP DUP2 ADD SWAP1 PUSH2 0x1392 SWAP2 SWAP1 PUSH2 0x43E2 JUMP JUMPDEST POP POP PUSH2 0x1503 JUMP JUMPDEST PUSH4 0x4E487B71 EQ ISZERO PUSH2 0x1446 JUMPI PUSH2 0x13AC PUSH2 0x605D JUMP JUMPDEST SWAP1 PUSH2 0x13B7 JUMPI POP PUSH2 0x1446 JUMP JUMPDEST PUSH20 0x0 PUSH4 0x39DF137F PUSH1 0x0 PUSH1 0x40 MLOAD DUP3 PUSH4 0xFFFFFFFF AND PUSH1 0xE0 SHL DUP2 MSTORE PUSH1 0x4 ADD PUSH2 0x13EF SWAP2 SWAP1 PUSH2 0x4EFD JUMP JUMPDEST PUSH1 0x20 PUSH1 0x40 MLOAD DUP1 DUP4 SUB DUP2 DUP7 DUP1 EXTCODESIZE ISZERO DUP1 ISZERO PUSH2 0x1407 JUMPI PUSH1 0x0 DUP1 REVERT JUMPDEST POP GAS DELEGATECALL ISZERO DUP1 ISZERO PUSH2 0x141B JUMPI RETURNDATASIZE PUSH1 0x0 DUP1 RETURNDATACOPY RETURNDATASIZE PUSH1 0x0 REVERT JUMPDEST POP POP POP POP PUSH1 0x40 MLOAD RETURNDATASIZE PUSH1 0x1F NOT PUSH1 0x1F DUP3 ADD AND DUP3 ADD DUP1 PUSH1 0x40 MSTORE POP DUP2 ADD SWAP1 PUSH2 0x143F SWAP2 SWAP1 PUSH2 0x43E2 JUMP JUMPDEST POP POP PUSH2 0x1503 JUMP JUMPDEST RETURNDATASIZE DUP1 PUSH1 0x0 DUP2 EQ PUSH2 0x1472 JUMPI PUSH1 0x40 MLOAD SWAP2 POP PUSH1 0x1F NOT PUSH1 0x3F RETURNDATASIZE ADD AND DUP3 ADD PUSH1 0x40 MSTORE RETURNDATASIZE DUP3 MSTORE RETURNDATASIZE PUSH1 0x0 PUSH1 0x20 DUP5 ADD RETURNDATACOPY PUSH2 0x1477 JUMP JUMPDEST PUSH1 0x60 SWAP2 POP JUMPDEST POP PUSH20 0x0 PUSH4 0x39DF137F PUSH1 0x0 PUSH1 0x40 MLOAD DUP3 PUSH4 0xFFFFFFFF AND PUSH1 0xE0 SHL DUP2 MSTORE PUSH1 0x4 ADD PUSH2 0x14B0 SWAP2 SWAP1 PUSH2 0x4ECF JUMP JUMPDEST PUSH1 0x20 PUSH1 0x40 MLOAD DUP1 DUP4 SUB DUP2 DUP7 DUP1 EXTCODESIZE ISZERO DUP1 ISZERO PUSH2 0x14C8 JUMPI PUSH1 0x0 DUP1 REVERT JUMPDEST POP GAS DELEGATECALL ISZERO DUP1 ISZERO PUSH2 0x14DC JUMPI RETURNDATASIZE PUSH1 0x0 DUP1 RETURNDATACOPY RETURNDATASIZE PUSH1 0x0 REVERT JUMPDEST POP POP POP POP PUSH1 0x40 MLOAD RETURNDATASIZE PUSH1 0x1F NOT PUSH1 0x1F DUP3 ADD AND DUP3 ADD DUP1 PUSH1 0x40 MSTORE POP DUP2 ADD SWAP1 PUSH2 0x1500 SWAP2 SWAP1 PUSH2 0x43E2 JUMP JUMPDEST POP POP JUMPDEST PUSH2 0x1593 JUMP JUMPDEST PUSH20 0x0 PUSH4 0x39DF137F PUSH1 0x0 PUSH1 0x40 MLOAD DUP3 PUSH4 0xFFFFFFFF AND PUSH1 0xE0 SHL DUP2 MSTORE PUSH1 0x4 ADD PUSH2 0x1540 SWAP2 SWAP1 PUSH2 0x4F2B JUMP JUMPDEST PUSH1 0x20 PUSH1 0x40 MLOAD DUP1 DUP4 SUB DUP2 DUP7 DUP1 EXTCODESIZE ISZERO DUP1 ISZERO PUSH2 0x1558 JUMPI PUSH1 0x0 DUP1 REVERT JUMPDEST POP GAS DELEGATECALL ISZERO DUP1 ISZERO PUSH2 0x156C JUMPI RETURNDATASIZE PUSH1 0x0 DUP1 RETURNDATACOPY RETURNDATASIZE PUSH1 0x0 REVERT JUMPDEST POP POP POP POP PUSH1 0x40 MLOAD RETURNDATASIZE PUSH1 0x1F NOT PUSH1 0x1F DUP3 ADD AND DUP3 ADD DUP1 PUSH1 0x40 MSTORE POP DUP2 ADD SWAP1 PUSH2 0x1590 SWAP2 SWAP1 PUSH2 0x43E2 JUMP JUMPDEST POP POP JUMPDEST JUMP JUMPDEST ADDRESS PUSH20 0xFFFFFFFFFFFFFFFFFFFFFFFFFFFFFFFFFFFFFFFF AND PUSH4 0x6D77BD3E PUSH1 0x40 MLOAD DUP2 PUSH4 0xFFFFFFFF AND PUSH1 0xE0 SHL DUP2 MSTORE PUSH1 0x4 ADD PUSH2 0x15CC SWAP1 PUSH2 0x536F JUMP JUMPDEST PUSH1 0x20 PUSH1 0x40 MLOAD DUP1 DUP4 SUB DUP2 PUSH1 0x0 DUP8 DUP1 EXTCODESIZE ISZERO DUP1 ISZERO PUSH2 0x15E6 JUMPI PUSH1 0x0 DUP1 REVERT JUMPDEST POP GAS CALL SWAP3 POP POP POP DUP1 ISZERO PUSH2 0x1617 JUMPI POP PUSH1 0x40 MLOAD RETURNDATASIZE PUSH1 0x1F NOT PUSH1 0x1F DUP3 ADD AND DUP3 ADD DUP1 PUSH1 0x40 MSTORE POP DUP2 ADD SWAP1 PUSH2 0x1614 SWAP2 SWAP1 PUSH2 0x4485 JUMP JUMPDEST PUSH1 0x1 JUMPDEST PUSH2 0x1840 JUMPI PUSH2 0x1623 PUSH2 0x594F JUMP JUMPDEST DUP1 PUSH4 0x8C379A0 EQ ISZERO PUSH2 0x16D1 JUMPI POP PUSH2 0x1638 PUSH2 0x5FC7 JUMP JUMPDEST DUP1 PUSH2 0x1643 JUMPI POP PUSH2 0x177E JUMP JUMPDEST PUSH20 0x0 PUSH4 0xE8C2CB16 DUP3 PUSH1 0x40 MLOAD DUP3 PUSH4 0xFFFFFFFF AND PUSH1 0xE0 SHL DUP2 MSTORE PUSH1 0x4 ADD PUSH2 0x167A SWAP2 SWAP1 PUSH2 0x51B7 JUMP JUMPDEST PUSH1 0x20 PUSH1 0x40 MLOAD DUP1 DUP4 SUB DUP2 DUP7 DUP1 EXTCODESIZE ISZERO DUP1 ISZERO PUSH2 0x1692 JUMPI PUSH1 0x0 DUP1 REVERT JUMPDEST POP GAS DELEGATECALL ISZERO DUP1 ISZERO PUSH2 0x16A6 JUMPI RETURNDATASIZE PUSH1 0x0 DUP1 RETURNDATACOPY RETURNDATASIZE PUSH1 0x0 REVERT JUMPDEST POP POP POP POP PUSH1 0x40 MLOAD RETURNDATASIZE PUSH1 0x1F NOT PUSH1 0x1F DUP3 ADD AND DUP3 ADD DUP1 PUSH1 0x40 MSTORE POP DUP2 ADD SWAP1 PUSH2 0x16CA SWAP2 SWAP1 PUSH2 0x43E2 JUMP JUMPDEST POP POP PUSH2 0x183B JUMP JUMPDEST PUSH4 0x4E487B71 EQ ISZERO PUSH2 0x177E JUMPI PUSH2 0x16E4 PUSH2 0x605D JUMP JUMPDEST SWAP1 PUSH2 0x16EF JUMPI POP PUSH2 0x177E JUMP JUMPDEST PUSH20 0x0 PUSH4 0x39DF137F PUSH1 0x0 PUSH1 0x40 MLOAD DUP3 PUSH4 0xFFFFFFFF AND PUSH1 0xE0 SHL DUP2 MSTORE PUSH1 0x4 ADD PUSH2 0x1727 SWAP2 SWAP1 PUSH2 0x4EFD JUMP JUMPDEST PUSH1 0x20 PUSH1 0x40 MLOAD DUP1 DUP4 SUB DUP2 DUP7 DUP1 EXTCODESIZE ISZERO DUP1 ISZERO PUSH2 0x173F JUMPI PUSH1 0x0 DUP1 REVERT JUMPDEST POP GAS DELEGATECALL ISZERO DUP1 ISZERO PUSH2 0x1753 JUMPI RETURNDATASIZE PUSH1 0x0 DUP1 RETURNDATACOPY RETURNDATASIZE PUSH1 0x0 REVERT JUMPDEST POP POP POP POP PUSH1 0x40 MLOAD RETURNDATASIZE PUSH1 0x1F NOT PUSH1 0x1F DUP3 ADD AND DUP3 ADD DUP1 PUSH1 0x40 MSTORE POP DUP2 ADD SWAP1 PUSH2 0x1777 SWAP2 SWAP1 PUSH2 0x43E2 JUMP JUMPDEST POP POP PUSH2 0x183B JUMP JUMPDEST RETURNDATASIZE DUP1 PUSH1 0x0 DUP2 EQ PUSH2 0x17AA JUMPI PUSH1 0x40 MLOAD SWAP2 POP PUSH1 0x1F NOT PUSH1 0x3F RETURNDATASIZE ADD AND DUP3 ADD PUSH1 0x40 MSTORE RETURNDATASIZE DUP3 MSTORE RETURNDATASIZE PUSH1 0x0 PUSH1 0x20 DUP5 ADD RETURNDATACOPY PUSH2 0x17AF JUMP JUMPDEST PUSH1 0x60 SWAP2 POP JUMPDEST POP PUSH20 0x0 PUSH4 0x39DF137F PUSH1 0x0 PUSH1 0x40 MLOAD DUP3 PUSH4 0xFFFFFFFF AND PUSH1 0xE0 SHL DUP2 MSTORE PUSH1 0x4 ADD PUSH2 0x17E8 SWAP2 SWAP1 PUSH2 0x4ECF JUMP JUMPDEST PUSH1 0x20 PUSH1 0x40 MLOAD DUP1 DUP4 SUB DUP2 DUP7 DUP1 EXTCODESIZE ISZERO DUP1 ISZERO PUSH2 0x1800 JUMPI PUSH1 0x0 DUP1 REVERT JUMPDEST POP GAS DELEGATECALL ISZERO DUP1 ISZERO PUSH2 0x1814 JUMPI RETURNDATASIZE PUSH1 0x0 DUP1 RETURNDATACOPY RETURNDATASIZE PUSH1 0x0 REVERT JUMPDEST POP POP POP POP PUSH1 0x40 MLOAD RETURNDATASIZE PUSH1 0x1F NOT PUSH1 0x1F DUP3 ADD AND DUP3 ADD DUP1 PUSH1 0x40 MSTORE POP DUP2 ADD SWAP1 PUSH2 0x1838 SWAP2 SWAP1 PUSH2 0x43E2 JUMP JUMPDEST POP POP JUMPDEST PUSH2 0x18CD JUMP JUMPDEST PUSH20 0x0 PUSH4 0x561015E2 DUP3 PUSH1 0x3 PUSH1 0x40 MLOAD DUP4 PUSH4 0xFFFFFFFF AND PUSH1 0xE0 SHL DUP2 MSTORE PUSH1 0x4 ADD PUSH2 0x187A SWAP3 SWAP2 SWAP1 PUSH2 0x54BA JUMP JUMPDEST PUSH1 0x20 PUSH1 0x40 MLOAD DUP1 DUP4 SUB DUP2 DUP7 DUP1 EXTCODESIZE ISZERO DUP1 ISZERO PUSH2 0x1892 JUMPI PUSH1 0x0 DUP1 REVERT JUMPDEST POP GAS DELEGATECALL ISZERO DUP1 ISZERO PUSH2 0x18A6 JUMPI RETURNDATASIZE PUSH1 0x0 DUP1 RETURNDATACOPY RETURNDATASIZE PUSH1 0x0 REVERT JUMPDEST POP POP POP POP PUSH1 0x40 MLOAD RETURNDATASIZE PUSH1 0x1F NOT PUSH1 0x1F DUP3 ADD AND DUP3 ADD DUP1 PUSH1 0x40 MSTORE POP DUP2 ADD SWAP1 PUSH2 0x18CA SWAP2 SWAP1 PUSH2 0x43E2 JUMP JUMPDEST POP POP JUMPDEST JUMP JUMPDEST PUSH1 0x0 DUP1 SLOAD SWAP1 PUSH2 0x100 EXP SWAP1 DIV PUSH1 0xFF AND DUP2 JUMP JUMPDEST PUSH1 0x1 PUSH1 0x0 DUP1 PUSH2 0x100 EXP DUP2 SLOAD DUP2 PUSH1 0xFF MUL NOT AND SWAP1 DUP4 PUSH1 0x2 DUP2 GT ISZERO PUSH2 0x1905 JUMPI PUSH2 0x1904 PUSH2 0x58C2 JUMP JUMPDEST JUMPDEST MUL OR SWAP1 SSTORE POP PUSH20 0x0 PUSH4 0x39DF137F PUSH2 0x192E PUSH1 0x2 PUSH2 0x3775 JUMP JUMPDEST PUSH1 0x40 MLOAD DUP3 PUSH4 0xFFFFFFFF AND PUSH1 0xE0 SHL DUP2 MSTORE PUSH1 0x4 ADD PUSH2 0x194A SWAP2 SWAP1 PUSH2 0x4F59 JUMP JUMPDEST PUSH1 0x20 PUSH1 0x40 MLOAD DUP1 DUP4 SUB DUP2 DUP7 DUP1 EXTCODESIZE ISZERO DUP1 ISZERO PUSH2 0x1962 JUMPI PUSH1 0x0 DUP1 REVERT JUMPDEST POP GAS DELEGATECALL ISZERO DUP1 ISZERO PUSH2 0x1976 JUMPI RETURNDATASIZE PUSH1 0x0 DUP1 RETURNDATACOPY RETURNDATASIZE PUSH1 0x0 REVERT JUMPDEST POP POP POP POP PUSH1 0x40 MLOAD RETURNDATASIZE PUSH1 0x1F NOT PUSH1 0x1F DUP3 ADD AND DUP3 ADD DUP1 PUSH1 0x40 MSTORE POP DUP2 ADD SWAP1 PUSH2 0x199A SWAP2 SWAP1 PUSH2 0x43E2 JUMP JUMPDEST POP JUMP JUMPDEST ADDRESS PUSH20 0xFFFFFFFFFFFFFFFFFFFFFFFFFFFFFFFFFFFFFFFF AND PUSH4 0x6D77BD3E PUSH1 0x40 MLOAD DUP2 PUSH4 0xFFFFFFFF AND PUSH1 0xE0 SHL DUP2 MSTORE PUSH1 0x4 ADD PUSH2 0x19D4 SWAP1 PUSH2 0x52CF JUMP JUMPDEST PUSH1 0x20 PUSH1 0x40 MLOAD DUP1 DUP4 SUB DUP2 PUSH1 0x0 DUP8 DUP1 EXTCODESIZE ISZERO DUP1 ISZERO PUSH2 0x19EE JUMPI PUSH1 0x0 DUP1 REVERT JUMPDEST POP GAS CALL SWAP3 POP POP POP DUP1 ISZERO PUSH2 0x1A1F JUMPI POP PUSH1 0x40 MLOAD RETURNDATASIZE PUSH1 0x1F NOT PUSH1 0x1F DUP3 ADD AND DUP3 ADD DUP1 PUSH1 0x40 MSTORE POP DUP2 ADD SWAP1 PUSH2 0x1A1C SWAP2 SWAP1 PUSH2 0x4485 JUMP JUMPDEST PUSH1 0x1 JUMPDEST PUSH2 0x1C48 JUMPI PUSH2 0x1A2B PUSH2 0x594F JUMP JUMPDEST DUP1 PUSH4 0x8C379A0 EQ ISZERO PUSH2 0x1AD9 JUMPI POP PUSH2 0x1A40 PUSH2 0x5FC7 JUMP JUMPDEST DUP1 PUSH2 0x1A4B JUMPI POP PUSH2 0x1B86 JUMP JUMPDEST PUSH20 0x0 PUSH4 0xE8C2CB16 DUP3 PUSH1 0x40 MLOAD DUP3 PUSH4 0xFFFFFFFF AND PUSH1 0xE0 SHL DUP2 MSTORE PUSH1 0x4 ADD PUSH2 0x1A82 SWAP2 SWAP1 PUSH2 0x51FF JUMP JUMPDEST PUSH1 0x20 PUSH1 0x40 MLOAD DUP1 DUP4 SUB DUP2 DUP7 DUP1 EXTCODESIZE ISZERO DUP1 ISZERO PUSH2 0x1A9A JUMPI PUSH1 0x0 DUP1 REVERT JUMPDEST POP GAS DELEGATECALL ISZERO DUP1 ISZERO PUSH2 0x1AAE JUMPI RETURNDATASIZE PUSH1 0x0 DUP1 RETURNDATACOPY RETURNDATASIZE PUSH1 0x0 REVERT JUMPDEST POP POP POP POP PUSH1 0x40 MLOAD RETURNDATASIZE PUSH1 0x1F NOT PUSH1 0x1F DUP3 ADD AND DUP3 ADD DUP1 PUSH1 0x40 MSTORE POP DUP2 ADD SWAP1 PUSH2 0x1AD2 SWAP2 SWAP1 PUSH2 0x43E2 JUMP JUMPDEST POP POP PUSH2 0x1C43 JUMP JUMPDEST PUSH4 0x4E487B71 EQ ISZERO PUSH2 0x1B86 JUMPI PUSH2 0x1AEC PUSH2 0x605D JUMP JUMPDEST SWAP1 PUSH2 0x1AF7 JUMPI POP PUSH2 0x1B86 JUMP JUMPDEST PUSH20 0x0 PUSH4 0x39DF137F PUSH1 0x0 PUSH1 0x40 MLOAD DUP3 PUSH4 0xFFFFFFFF AND PUSH1 0xE0 SHL DUP2 MSTORE PUSH1 0x4 ADD PUSH2 0x1B2F SWAP2 SWAP1 PUSH2 0x4EFD JUMP JUMPDEST PUSH1 0x20 PUSH1 0x40 MLOAD DUP1 DUP4 SUB DUP2 DUP7 DUP1 EXTCODESIZE ISZERO DUP1 ISZERO PUSH2 0x1B47 JUMPI PUSH1 0x0 DUP1 REVERT JUMPDEST POP GAS DELEGATECALL ISZERO DUP1 ISZERO PUSH2 0x1B5B JUMPI RETURNDATASIZE PUSH1 0x0 DUP1 RETURNDATACOPY RETURNDATASIZE PUSH1 0x0 REVERT JUMPDEST POP POP POP POP PUSH1 0x40 MLOAD RETURNDATASIZE PUSH1 0x1F NOT PUSH1 0x1F DUP3 ADD AND DUP3 ADD DUP1 PUSH1 0x40 MSTORE POP DUP2 ADD SWAP1 PUSH2 0x1B7F SWAP2 SWAP1 PUSH2 0x43E2 JUMP JUMPDEST POP POP PUSH2 0x1C43 JUMP JUMPDEST RETURNDATASIZE DUP1 PUSH1 0x0 DUP2 EQ PUSH2 0x1BB2 JUMPI PUSH1 0x40 MLOAD SWAP2 POP PUSH1 0x1F NOT PUSH1 0x3F RETURNDATASIZE ADD AND DUP3 ADD PUSH1 0x40 MSTORE RETURNDATASIZE DUP3 MSTORE RETURNDATASIZE PUSH1 0x0 PUSH1 0x20 DUP5 ADD RETURNDATACOPY PUSH2 0x1BB7 JUMP JUMPDEST PUSH1 0x60 SWAP2 POP JUMPDEST POP PUSH20 0x0 PUSH4 0x39DF137F PUSH1 0x0 PUSH1 0x40 MLOAD DUP3 PUSH4 0xFFFFFFFF AND PUSH1 0xE0 SHL DUP2 MSTORE PUSH1 0x4 ADD PUSH2 0x1BF0 SWAP2 SWAP1 PUSH2 0x4ECF JUMP JUMPDEST PUSH1 0x20 PUSH1 0x40 MLOAD DUP1 DUP4 SUB DUP2 DUP7 DUP1 EXTCODESIZE ISZERO DUP1 ISZERO PUSH2 0x1C08 JUMPI PUSH1 0x0 DUP1 REVERT JUMPDEST POP GAS DELEGATECALL ISZERO DUP1 ISZERO PUSH2 0x1C1C JUMPI RETURNDATASIZE PUSH1 0x0 DUP1 RETURNDATACOPY RETURNDATASIZE PUSH1 0x0 REVERT JUMPDEST POP POP POP POP PUSH1 0x40 MLOAD RETURNDATASIZE PUSH1 0x1F NOT PUSH1 0x1F DUP3 ADD AND DUP3 ADD DUP1 PUSH1 0x40 MSTORE POP DUP2 ADD SWAP1 PUSH2 0x1C40 SWAP2 SWAP1 PUSH2 0x43E2 JUMP JUMPDEST POP POP JUMPDEST PUSH2 0x1CD3 JUMP JUMPDEST PUSH20 0x0 PUSH4 0x39DF137F PUSH1 0x0 PUSH1 0x40 MLOAD DUP3 PUSH4 0xFFFFFFFF AND PUSH1 0xE0 SHL DUP2 MSTORE PUSH1 0x4 ADD PUSH2 0x1C80 SWAP2 SWAP1 PUSH2 0x4F87 JUMP JUMPDEST PUSH1 0x20 PUSH1 0x40 MLOAD DUP1 DUP4 SUB DUP2 DUP7 DUP1 EXTCODESIZE ISZERO DUP1 ISZERO PUSH2 0x1C98 JUMPI PUSH1 0x0 DUP1 REVERT JUMPDEST POP GAS DELEGATECALL ISZERO DUP1 ISZERO PUSH2 0x1CAC JUMPI RETURNDATASIZE PUSH1 0x0 DUP1 RETURNDATACOPY RETURNDATASIZE PUSH1 0x0 REVERT JUMPDEST POP POP POP POP PUSH1 0x40 MLOAD RETURNDATASIZE PUSH1 0x1F NOT PUSH1 0x1F DUP3 ADD AND DUP3 ADD DUP1 PUSH1 0x40 MSTORE POP DUP2 ADD SWAP1 PUSH2 0x1CD0 SWAP2 SWAP1 PUSH2 0x43E2 JUMP JUMPDEST POP POP JUMPDEST JUMP JUMPDEST PUSH1 0x0 PUSH32 0x0 PUSH20 0xFFFFFFFFFFFFFFFFFFFFFFFFFFFFFFFFFFFFFFFF AND ORIGIN PUSH20 0xFFFFFFFFFFFFFFFFFFFFFFFFFFFFFFFFFFFFFFFF AND EQ DUP1 PUSH2 0x1D7C JUMPI POP PUSH32 0x0 PUSH20 0xFFFFFFFFFFFFFFFFFFFFFFFFFFFFFFFFFFFFFFFF AND CALLER PUSH20 0xFFFFFFFFFFFFFFFFFFFFFFFFFFFFFFFFFFFFFFFF AND EQ JUMPDEST PUSH2 0x1DBB JUMPI PUSH1 0x40 MLOAD PUSH32 0x8C379A000000000000000000000000000000000000000000000000000000000 DUP2 MSTORE PUSH1 0x4 ADD PUSH2 0x1DB2 SWAP1 PUSH2 0x534F JUMP JUMPDEST PUSH1 0x40 MLOAD DUP1 SWAP2 SUB SWAP1 REVERT JUMPDEST DUP2 PUSH1 0x0 DUP1 PUSH1 0x1 SWAP1 POP JUMPDEST PUSH1 0x3 PUSH1 0x0 SWAP1 SLOAD SWAP1 PUSH2 0x100 EXP SWAP1 DIV PUSH1 0xFF AND PUSH1 0xFF AND DUP2 PUSH1 0xFF AND GT PUSH2 0x1E68 JUMPI DUP3 PUSH1 0x40 MLOAD PUSH1 0x20 ADD PUSH2 0x1DF1 SWAP2 SWAP1 PUSH2 0x4C30 JUMP JUMPDEST PUSH1 0x40 MLOAD PUSH1 0x20 DUP2 DUP4 SUB SUB DUP2 MSTORE SWAP1 PUSH1 0x40 MSTORE DUP1 MLOAD SWAP1 PUSH1 0x20 ADD KECCAK256 PUSH1 0x1 PUSH1 0x0 DUP4 PUSH1 0xFF AND PUSH1 0xFF AND DUP2 MSTORE PUSH1 0x20 ADD SWAP1 DUP2 MSTORE PUSH1 0x20 ADD PUSH1 0x0 KECCAK256 PUSH1 0x40 MLOAD PUSH1 0x20 ADD PUSH2 0x1E30 SWAP2 SWAP1 PUSH2 0x4C47 JUMP JUMPDEST PUSH1 0x40 MLOAD PUSH1 0x20 DUP2 DUP4 SUB SUB DUP2 MSTORE SWAP1 PUSH1 0x40 MSTORE DUP1 MLOAD SWAP1 PUSH1 0x20 ADD KECCAK256 EQ ISZERO PUSH2 0x1E55 JUMPI PUSH1 0x1 SWAP2 POP PUSH2 0x1E68 JUMP JUMPDEST DUP1 DUP1 PUSH2 0x1E60 SWAP1 PUSH2 0x583A JUMP JUMPDEST SWAP2 POP POP PUSH2 0x1DC4 JUMP JUMPDEST POP DUP1 ISZERO PUSH2 0x1EAA JUMPI PUSH1 0x40 MLOAD PUSH32 0x8C379A000000000000000000000000000000000000000000000000000000000 DUP2 MSTORE PUSH1 0x4 ADD PUSH2 0x1EA1 SWAP1 PUSH2 0x538F JUMP JUMPDEST PUSH1 0x40 MLOAD DUP1 SWAP2 SUB SWAP1 REVERT JUMPDEST PUSH1 0x0 DUP1 PUSH1 0x2 DUP2 GT ISZERO PUSH2 0x1EBF JUMPI PUSH2 0x1EBE PUSH2 0x58C2 JUMP JUMPDEST JUMPDEST PUSH1 0x0 DUP1 SLOAD SWAP1 PUSH2 0x100 EXP SWAP1 DIV PUSH1 0xFF AND PUSH1 0x2 DUP2 GT ISZERO PUSH2 0x1EDF JUMPI PUSH2 0x1EDE PUSH2 0x58C2 JUMP JUMPDEST JUMPDEST EQ PUSH2 0x1F1F JUMPI PUSH1 0x40 MLOAD PUSH32 0x8C379A000000000000000000000000000000000000000000000000000000000 DUP2 MSTORE PUSH1 0x4 ADD PUSH2 0x1F16 SWAP1 PUSH2 0x530F JUMP JUMPDEST PUSH1 0x40 MLOAD DUP1 SWAP2 SUB SWAP1 REVERT JUMPDEST PUSH1 0x7 PUSH1 0x0 SWAP1 SLOAD SWAP1 PUSH2 0x100 EXP SWAP1 DIV PUSH1 0xFF AND ISZERO PUSH2 0x1F6F JUMPI PUSH1 0x40 MLOAD PUSH32 0x8C379A000000000000000000000000000000000000000000000000000000000 DUP2 MSTORE PUSH1 0x4 ADD PUSH2 0x1F66 SWAP1 PUSH2 0x52EF JUMP JUMPDEST PUSH1 0x40 MLOAD DUP1 SWAP2 SUB SWAP1 REVERT JUMPDEST PUSH1 0x3 PUSH1 0x0 DUP2 DUP2 SWAP1 SLOAD SWAP1 PUSH2 0x100 EXP SWAP1 DIV PUSH1 0xFF AND DUP1 SWAP3 SWAP2 SWAP1 PUSH2 0x1F8E SWAP1 PUSH2 0x583A JUMP JUMPDEST SWAP2 SWAP1 PUSH2 0x100 EXP DUP2 SLOAD DUP2 PUSH1 0xFF MUL NOT AND SWAP1 DUP4 PUSH1 0xFF AND MUL OR SWAP1 SSTORE POP POP DUP5 PUSH1 0x1 PUSH1 0x0 PUSH1 0x3 PUSH1 0x0 SWAP1 SLOAD SWAP1 PUSH2 0x100 EXP SWAP1 DIV PUSH1 0xFF AND PUSH1 0xFF AND PUSH1 0xFF AND DUP2 MSTORE PUSH1 0x20 ADD SWAP1 DUP2 MSTORE PUSH1 0x20 ADD PUSH1 0x0 KECCAK256 SWAP1 DUP1 MLOAD SWAP1 PUSH1 0x20 ADD SWAP1 PUSH2 0x1FE3 SWAP3 SWAP2 SWAP1 PUSH2 0x4123 JUMP JUMPDEST POP PUSH1 0x3 PUSH1 0x0 SWAP1 SLOAD SWAP1 PUSH2 0x100 EXP SWAP1 DIV PUSH1 0xFF AND SWAP4 POP POP POP POP SWAP2 SWAP1 POP JUMP JUMPDEST PUSH32 0x0 PUSH20 0xFFFFFFFFFFFFFFFFFFFFFFFFFFFFFFFFFFFFFFFF AND ORIGIN PUSH20 0xFFFFFFFFFFFFFFFFFFFFFFFFFFFFFFFFFFFFFFFF AND EQ DUP1 PUSH2 0x20A3 JUMPI POP PUSH32 0x0 PUSH20 0xFFFFFFFFFFFFFFFFFFFFFFFFFFFFFFFFFFFFFFFF AND CALLER PUSH20 0xFFFFFFFFFFFFFFFFFFFFFFFFFFFFFFFFFFFFFFFF AND EQ JUMPDEST PUSH2 0x20E2 JUMPI PUSH1 0x40 MLOAD PUSH32 0x8C379A000000000000000000000000000000000000000000000000000000000 DUP2 MSTORE PUSH1 0x4 ADD PUSH2 0x20D9 SWAP1 PUSH2 0x534F JUMP JUMPDEST PUSH1 0x40 MLOAD DUP1 SWAP2 SUB SWAP1 REVERT JUMPDEST PUSH1 0x7 PUSH1 0x0 SWAP1 SLOAD SWAP1 PUSH2 0x100 EXP SWAP1 DIV PUSH1 0xFF AND ISZERO PUSH1 0x7 PUSH1 0x0 PUSH2 0x100 EXP DUP2 SLOAD DUP2 PUSH1 0xFF MUL NOT AND SWAP1 DUP4 ISZERO ISZERO MUL OR SWAP1 SSTORE POP JUMP JUMPDEST PUSH1 0x7 PUSH1 0x0 SWAP1 SLOAD SWAP1 PUSH2 0x100 EXP SWAP1 DIV PUSH1 0xFF AND DUP2 JUMP JUMPDEST ADDRESS PUSH20 0xFFFFFFFFFFFFFFFFFFFFFFFFFFFFFFFFFFFFFFFF AND PUSH4 0x3B9F708D PUSH1 0xC PUSH1 0x0 SWAP1 SLOAD SWAP1 PUSH2 0x100 EXP SWAP1 DIV PUSH20 0xFFFFFFFFFFFFFFFFFFFFFFFFFFFFFFFFFFFFFFFF AND PUSH1 0x40 MLOAD DUP3 PUSH4 0xFFFFFFFF AND PUSH1 0xE0 SHL DUP2 MSTORE PUSH1 0x4 ADD PUSH2 0x217C SWAP2 SWAP1 PUSH2 0x4CE3 JUMP JUMPDEST PUSH1 0x20 PUSH1 0x40 MLOAD DUP1 DUP4 SUB DUP2 PUSH1 0x0 DUP8 DUP1 EXTCODESIZE ISZERO DUP1 ISZERO PUSH2 0x2196 JUMPI PUSH1 0x0 DUP1 REVERT JUMPDEST POP GAS CALL SWAP3 POP POP POP DUP1 ISZERO PUSH2 0x21C7 JUMPI POP PUSH1 0x40 MLOAD RETURNDATASIZE PUSH1 0x1F NOT PUSH1 0x1F DUP3 ADD AND DUP3 ADD DUP1 PUSH1 0x40 MSTORE POP DUP2 ADD SWAP1 PUSH2 0x21C4 SWAP2 SWAP1 PUSH2 0x4485 JUMP JUMPDEST PUSH1 0x1 JUMPDEST PUSH2 0x23F0 JUMPI PUSH2 0x21D3 PUSH2 0x594F JUMP JUMPDEST DUP1 PUSH4 0x8C379A0 EQ ISZERO PUSH2 0x2281 JUMPI POP PUSH2 0x21E8 PUSH2 0x5FC7 JUMP JUMPDEST DUP1 PUSH2 0x21F3 JUMPI POP PUSH2 0x232E JUMP JUMPDEST PUSH20 0x0 PUSH4 0xE8C2CB16 DUP3 PUSH1 0x40 MLOAD DUP3 PUSH4 0xFFFFFFFF AND PUSH1 0xE0 SHL DUP2 MSTORE PUSH1 0x4 ADD PUSH2 0x222A SWAP2 SWAP1 PUSH2 0x51B7 JUMP JUMPDEST PUSH1 0x20 PUSH1 0x40 MLOAD DUP1 DUP4 SUB DUP2 DUP7 DUP1 EXTCODESIZE ISZERO DUP1 ISZERO PUSH2 0x2242 JUMPI PUSH1 0x0 DUP1 REVERT JUMPDEST POP GAS DELEGATECALL ISZERO DUP1 ISZERO PUSH2 0x2256 JUMPI RETURNDATASIZE PUSH1 0x0 DUP1 RETURNDATACOPY RETURNDATASIZE PUSH1 0x0 REVERT JUMPDEST POP POP POP POP PUSH1 0x40 MLOAD RETURNDATASIZE PUSH1 0x1F NOT PUSH1 0x1F DUP3 ADD AND DUP3 ADD DUP1 PUSH1 0x40 MSTORE POP DUP2 ADD SWAP1 PUSH2 0x227A SWAP2 SWAP1 PUSH2 0x43E2 JUMP JUMPDEST POP POP PUSH2 0x23EB JUMP JUMPDEST PUSH4 0x4E487B71 EQ ISZERO PUSH2 0x232E JUMPI PUSH2 0x2294 PUSH2 0x605D JUMP JUMPDEST SWAP1 PUSH2 0x229F JUMPI POP PUSH2 0x232E JUMP JUMPDEST PUSH20 0x0 PUSH4 0x39DF137F PUSH1 0x0 PUSH1 0x40 MLOAD DUP3 PUSH4 0xFFFFFFFF AND PUSH1 0xE0 SHL DUP2 MSTORE PUSH1 0x4 ADD PUSH2 0x22D7 SWAP2 SWAP1 PUSH2 0x4EA1 JUMP JUMPDEST PUSH1 0x20 PUSH1 0x40 MLOAD DUP1 DUP4 SUB DUP2 DUP7 DUP1 EXTCODESIZE ISZERO DUP1 ISZERO PUSH2 0x22EF JUMPI PUSH1 0x0 DUP1 REVERT JUMPDEST POP GAS DELEGATECALL ISZERO DUP1 ISZERO PUSH2 0x2303 JUMPI RETURNDATASIZE PUSH1 0x0 DUP1 RETURNDATACOPY RETURNDATASIZE PUSH1 0x0 REVERT JUMPDEST POP POP POP POP PUSH1 0x40 MLOAD RETURNDATASIZE PUSH1 0x1F NOT PUSH1 0x1F DUP3 ADD AND DUP3 ADD DUP1 PUSH1 0x40 MSTORE POP DUP2 ADD SWAP1 PUSH2 0x2327 SWAP2 SWAP1 PUSH2 0x43E2 JUMP JUMPDEST POP POP PUSH2 0x23EB JUMP JUMPDEST RETURNDATASIZE DUP1 PUSH1 0x0 DUP2 EQ PUSH2 0x235A JUMPI PUSH1 0x40 MLOAD SWAP2 POP PUSH1 0x1F NOT PUSH1 0x3F RETURNDATASIZE ADD AND DUP3 ADD PUSH1 0x40 MSTORE RETURNDATASIZE DUP3 MSTORE RETURNDATASIZE PUSH1 0x0 PUSH1 0x20 DUP5 ADD RETURNDATACOPY PUSH2 0x235F JUMP JUMPDEST PUSH1 0x60 SWAP2 POP JUMPDEST POP PUSH20 0x0 PUSH4 0x39DF137F PUSH1 0x0 PUSH1 0x40 MLOAD DUP3 PUSH4 0xFFFFFFFF AND PUSH1 0xE0 SHL DUP2 MSTORE PUSH1 0x4 ADD PUSH2 0x2398 SWAP2 SWAP1 PUSH2 0x4E45 JUMP JUMPDEST PUSH1 0x20 PUSH1 0x40 MLOAD DUP1 DUP4 SUB DUP2 DUP7 DUP1 EXTCODESIZE ISZERO DUP1 ISZERO PUSH2 0x23B0 JUMPI PUSH1 0x0 DUP1 REVERT JUMPDEST POP GAS DELEGATECALL ISZERO DUP1 ISZERO PUSH2 0x23C4 JUMPI RETURNDATASIZE PUSH1 0x0 DUP1 RETURNDATACOPY RETURNDATASIZE PUSH1 0x0 REVERT JUMPDEST POP POP POP POP PUSH1 0x40 MLOAD RETURNDATASIZE PUSH1 0x1F NOT PUSH1 0x1F DUP3 ADD AND DUP3 ADD DUP1 PUSH1 0x40 MSTORE POP DUP2 ADD SWAP1 PUSH2 0x23E8 SWAP2 SWAP1 PUSH2 0x43E2 JUMP JUMPDEST POP POP JUMPDEST PUSH2 0x247D JUMP JUMPDEST PUSH20 0x0 PUSH4 0x561015E2 DUP3 PUSH1 0x6 PUSH1 0x40 MLOAD DUP4 PUSH4 0xFFFFFFFF AND PUSH1 0xE0 SHL DUP2 MSTORE PUSH1 0x4 ADD PUSH2 0x242A SWAP3 SWAP2 SWAP1 PUSH2 0x5532 JUMP JUMPDEST PUSH1 0x20 PUSH1 0x40 MLOAD DUP1 DUP4 SUB DUP2 DUP7 DUP1 EXTCODESIZE ISZERO DUP1 ISZERO PUSH2 0x2442 JUMPI PUSH1 0x0 DUP1 REVERT JUMPDEST POP GAS DELEGATECALL ISZERO DUP1 ISZERO PUSH2 0x2456 JUMPI RETURNDATASIZE PUSH1 0x0 DUP1 RETURNDATACOPY RETURNDATASIZE PUSH1 0x0 REVERT JUMPDEST POP POP POP POP PUSH1 0x40 MLOAD RETURNDATASIZE PUSH1 0x1F NOT PUSH1 0x1F DUP3 ADD AND DUP3 ADD DUP1 PUSH1 0x40 MSTORE POP DUP2 ADD SWAP1 PUSH2 0x247A SWAP2 SWAP1 PUSH2 0x43E2 JUMP JUMPDEST POP POP JUMPDEST JUMP JUMPDEST PUSH20 0x0 PUSH4 0xCE88B145 PUSH1 0x0 PUSH1 0x40 MLOAD DUP3 PUSH4 0xFFFFFFFF AND PUSH1 0xE0 SHL DUP2 MSTORE PUSH1 0x4 ADD PUSH2 0x24B7 SWAP2 SWAP1 PUSH2 0x4FD0 JUMP JUMPDEST PUSH1 0x20 PUSH1 0x40 MLOAD DUP1 DUP4 SUB DUP2 DUP7 DUP1 EXTCODESIZE ISZERO DUP1 ISZERO PUSH2 0x24CF JUMPI PUSH1 0x0 DUP1 REVERT JUMPDEST POP GAS DELEGATECALL ISZERO DUP1 ISZERO PUSH2 0x24E3 JUMPI RETURNDATASIZE PUSH1 0x0 DUP1 RETURNDATACOPY RETURNDATASIZE PUSH1 0x0 REVERT JUMPDEST POP POP POP POP PUSH1 0x40 MLOAD RETURNDATASIZE PUSH1 0x1F NOT PUSH1 0x1F DUP3 ADD AND DUP3 ADD DUP1 PUSH1 0x40 MSTORE POP DUP2 ADD SWAP1 PUSH2 0x2507 SWAP2 SWAP1 PUSH2 0x4359 JUMP JUMPDEST PUSH1 0x7 PUSH1 0x1 PUSH2 0x100 EXP DUP2 SLOAD DUP2 PUSH20 0xFFFFFFFFFFFFFFFFFFFFFFFFFFFFFFFFFFFFFFFF MUL NOT AND SWAP1 DUP4 PUSH20 0xFFFFFFFFFFFFFFFFFFFFFFFFFFFFFFFFFFFFFFFF AND MUL OR SWAP1 SSTORE POP PUSH20 0x0 PUSH4 0xCE88B145 PUSH1 0x1 PUSH1 0x40 MLOAD DUP3 PUSH4 0xFFFFFFFF AND PUSH1 0xE0 SHL DUP2 MSTORE PUSH1 0x4 ADD PUSH2 0x257F SWAP2 SWAP1 PUSH2 0x4FEB JUMP JUMPDEST PUSH1 0x20 PUSH1 0x40 MLOAD DUP1 DUP4 SUB DUP2 DUP7 DUP1 EXTCODESIZE ISZERO DUP1 ISZERO PUSH2 0x2597 JUMPI PUSH1 0x0 DUP1 REVERT JUMPDEST POP GAS DELEGATECALL ISZERO DUP1 ISZERO PUSH2 0x25AB JUMPI RETURNDATASIZE PUSH1 0x0 DUP1 RETURNDATACOPY RETURNDATASIZE PUSH1 0x0 REVERT JUMPDEST POP POP POP POP PUSH1 0x40 MLOAD RETURNDATASIZE PUSH1 0x1F NOT PUSH1 0x1F DUP3 ADD AND DUP3 ADD DUP1 PUSH1 0x40 MSTORE POP DUP2 ADD SWAP1 PUSH2 0x25CF SWAP2 SWAP1 PUSH2 0x4359 JUMP JUMPDEST PUSH1 0x8 PUSH1 0x0 PUSH2 0x100 EXP DUP2 SLOAD DUP2 PUSH20 0xFFFFFFFFFFFFFFFFFFFFFFFFFFFFFFFFFFFFFFFF MUL NOT AND SWAP1 DUP4 PUSH20 0xFFFFFFFFFFFFFFFFFFFFFFFFFFFFFFFFFFFFFFFF AND MUL OR SWAP1 SSTORE POP PUSH20 0x0 PUSH4 0xCE88B145 PUSH1 0x2 PUSH1 0x40 MLOAD DUP3 PUSH4 0xFFFFFFFF AND PUSH1 0xE0 SHL DUP2 MSTORE PUSH1 0x4 ADD PUSH2 0x2647 SWAP2 SWAP1 PUSH2 0x5021 JUMP JUMPDEST PUSH1 0x20 PUSH1 0x40 MLOAD DUP1 DUP4 SUB DUP2 DUP7 DUP1 EXTCODESIZE ISZERO DUP1 ISZERO PUSH2 0x265F JUMPI PUSH1 0x0 DUP1 REVERT JUMPDEST POP GAS DELEGATECALL ISZERO DUP1 ISZERO PUSH2 0x2673 JUMPI RETURNDATASIZE PUSH1 0x0 DUP1 RETURNDATACOPY RETURNDATASIZE PUSH1 0x0 REVERT JUMPDEST POP POP POP POP PUSH1 0x40 MLOAD RETURNDATASIZE PUSH1 0x1F NOT PUSH1 0x1F DUP3 ADD AND DUP3 ADD DUP1 PUSH1 0x40 MSTORE POP DUP2 ADD SWAP1 PUSH2 0x2697 SWAP2 SWAP1 PUSH2 0x4359 JUMP JUMPDEST PUSH1 0x9 PUSH1 0x0 PUSH2 0x100 EXP DUP2 SLOAD DUP2 PUSH20 0xFFFFFFFFFFFFFFFFFFFFFFFFFFFFFFFFFFFFFFFF MUL NOT AND SWAP1 DUP4 PUSH20 0xFFFFFFFFFFFFFFFFFFFFFFFFFFFFFFFFFFFFFFFF AND MUL OR SWAP1 SSTORE POP PUSH20 0x0 PUSH4 0xCE88B145 PUSH1 0x3 PUSH1 0x40 MLOAD DUP3 PUSH4 0xFFFFFFFF AND PUSH1 0xE0 SHL DUP2 MSTORE PUSH1 0x4 ADD PUSH2 0x270F SWAP2 SWAP1 PUSH2 0x5057 JUMP JUMPDEST PUSH1 0x20 PUSH1 0x40 MLOAD DUP1 DUP4 SUB DUP2 DUP7 DUP1 EXTCODESIZE ISZERO DUP1 ISZERO PUSH2 0x2727 JUMPI PUSH1 0x0 DUP1 REVERT JUMPDEST POP GAS DELEGATECALL ISZERO DUP1 ISZERO PUSH2 0x273B JUMPI RETURNDATASIZE PUSH1 0x0 DUP1 RETURNDATACOPY RETURNDATASIZE PUSH1 0x0 REVERT JUMPDEST POP POP POP POP PUSH1 0x40 MLOAD RETURNDATASIZE PUSH1 0x1F NOT PUSH1 0x1F DUP3 ADD AND DUP3 ADD DUP1 PUSH1 0x40 MSTORE POP DUP2 ADD SWAP1 PUSH2 0x275F SWAP2 SWAP1 PUSH2 0x4359 JUMP JUMPDEST PUSH1 0xA PUSH1 0x0 PUSH2 0x100 EXP DUP2 SLOAD DUP2 PUSH20 0xFFFFFFFFFFFFFFFFFFFFFFFFFFFFFFFFFFFFFFFF MUL NOT AND SWAP1 DUP4 PUSH20 0xFFFFFFFFFFFFFFFFFFFFFFFFFFFFFFFFFFFFFFFF AND MUL OR SWAP1 SSTORE POP PUSH20 0x0 PUSH4 0xCE88B145 PUSH1 0x4 PUSH1 0x40 MLOAD DUP3 PUSH4 0xFFFFFFFF AND PUSH1 0xE0 SHL DUP2 MSTORE PUSH1 0x4 ADD PUSH2 0x27D7 SWAP2 SWAP1 PUSH2 0x5072 JUMP JUMPDEST PUSH1 0x20 PUSH1 0x40 MLOAD DUP1 DUP4 SUB DUP2 DUP7 DUP1 EXTCODESIZE ISZERO DUP1 ISZERO PUSH2 0x27EF JUMPI PUSH1 0x0 DUP1 REVERT JUMPDEST POP GAS DELEGATECALL ISZERO DUP1 ISZERO PUSH2 0x2803 JUMPI RETURNDATASIZE PUSH1 0x0 DUP1 RETURNDATACOPY RETURNDATASIZE PUSH1 0x0 REVERT JUMPDEST POP POP POP POP PUSH1 0x40 MLOAD RETURNDATASIZE PUSH1 0x1F NOT PUSH1 0x1F DUP3 ADD AND DUP3 ADD DUP1 PUSH1 0x40 MSTORE POP DUP2 ADD SWAP1 PUSH2 0x2827 SWAP2 SWAP1 PUSH2 0x4359 JUMP JUMPDEST PUSH1 0xB PUSH1 0x0 PUSH2 0x100 EXP DUP2 SLOAD DUP2 PUSH20 0xFFFFFFFFFFFFFFFFFFFFFFFFFFFFFFFFFFFFFFFF MUL NOT AND SWAP1 DUP4 PUSH20 0xFFFFFFFFFFFFFFFFFFFFFFFFFFFFFFFFFFFFFFFF AND MUL OR SWAP1 SSTORE POP JUMP JUMPDEST PUSH20 0x0 PUSH4 0xABCD7960 PUSH2 0x28E4 PUSH1 0x7 PUSH1 0x1 SWAP1 SLOAD SWAP1 PUSH2 0x100 EXP SWAP1 DIV PUSH20 0xFFFFFFFFFFFFFFFFFFFFFFFFFFFFFFFFFFFFFFFF AND PUSH1 0x40 MLOAD DUP1 PUSH1 0x40 ADD PUSH1 0x40 MSTORE DUP1 PUSH1 0x5 DUP2 MSTORE PUSH1 0x20 ADD PUSH32 0x416C696365000000000000000000000000000000000000000000000000000000 DUP2 MSTORE POP PUSH2 0x99F JUMP JUMPDEST PUSH1 0x1 PUSH1 0x40 MLOAD DUP4 PUSH4 0xFFFFFFFF AND PUSH1 0xE0 SHL DUP2 MSTORE PUSH1 0x4 ADD PUSH2 0x2903 SWAP3 SWAP2 SWAP1 PUSH2 0x5406 JUMP JUMPDEST PUSH1 0x20 PUSH1 0x40 MLOAD DUP1 DUP4 SUB DUP2 DUP7 DUP1 EXTCODESIZE ISZERO DUP1 ISZERO PUSH2 0x291B JUMPI PUSH1 0x0 DUP1 REVERT JUMPDEST POP GAS DELEGATECALL ISZERO DUP1 ISZERO PUSH2 0x292F JUMPI RETURNDATASIZE PUSH1 0x0 DUP1 RETURNDATACOPY RETURNDATASIZE PUSH1 0x0 REVERT JUMPDEST POP POP POP POP PUSH1 0x40 MLOAD RETURNDATASIZE PUSH1 0x1F NOT PUSH1 0x1F DUP3 ADD AND DUP3 ADD DUP1 PUSH1 0x40 MSTORE POP DUP2 ADD SWAP1 PUSH2 0x2953 SWAP2 SWAP1 PUSH2 0x43E2 JUMP JUMPDEST POP PUSH20 0x0 PUSH4 0xABCD7960 PUSH2 0x29CF PUSH1 0x8 PUSH1 0x0 SWAP1 SLOAD SWAP1 PUSH2 0x100 EXP SWAP1 DIV PUSH20 0xFFFFFFFFFFFFFFFFFFFFFFFFFFFFFFFFFFFFFFFF AND PUSH1 0x40 MLOAD DUP1 PUSH1 0x40 ADD PUSH1 0x40 MSTORE DUP1 PUSH1 0x3 DUP2 MSTORE PUSH1 0x20 ADD PUSH32 0x426F620000000000000000000000000000000000000000000000000000000000 DUP2 MSTORE POP PUSH2 0x99F JUMP JUMPDEST PUSH1 0x2 PUSH1 0x40 MLOAD DUP4 PUSH4 0xFFFFFFFF AND PUSH1 0xE0 SHL DUP2 MSTORE PUSH1 0x4 ADD PUSH2 0x29EE SWAP3 SWAP2 SWAP1 PUSH2 0x5442 JUMP JUMPDEST PUSH1 0x20 PUSH1 0x40 MLOAD DUP1 DUP4 SUB DUP2 DUP7 DUP1 EXTCODESIZE ISZERO DUP1 ISZERO PUSH2 0x2A06 JUMPI PUSH1 0x0 DUP1 REVERT JUMPDEST POP GAS DELEGATECALL ISZERO DUP1 ISZERO PUSH2 0x2A1A JUMPI RETURNDATASIZE PUSH1 0x0 DUP1 RETURNDATACOPY RETURNDATASIZE PUSH1 0x0 REVERT JUMPDEST POP POP POP POP PUSH1 0x40 MLOAD RETURNDATASIZE PUSH1 0x1F NOT PUSH1 0x1F DUP3 ADD AND DUP3 ADD DUP1 PUSH1 0x40 MSTORE POP DUP2 ADD SWAP1 PUSH2 0x2A3E SWAP2 SWAP1 PUSH2 0x43E2 JUMP JUMPDEST POP PUSH20 0x0 PUSH4 0xABCD7960 PUSH2 0x2ABA PUSH1 0x9 PUSH1 0x0 SWAP1 SLOAD SWAP1 PUSH2 0x100 EXP SWAP1 DIV PUSH20 0xFFFFFFFFFFFFFFFFFFFFFFFFFFFFFFFFFFFFFFFF AND PUSH1 0x40 MLOAD DUP1 PUSH1 0x40 ADD PUSH1 0x40 MSTORE DUP1 PUSH1 0x7 DUP2 MSTORE PUSH1 0x20 ADD PUSH32 0x436861726C696500000000000000000000000000000000000000000000000000 DUP2 MSTORE POP PUSH2 0x99F JUMP JUMPDEST PUSH1 0x3 PUSH1 0x40 MLOAD DUP4 PUSH4 0xFFFFFFFF AND PUSH1 0xE0 SHL DUP2 MSTORE PUSH1 0x4 ADD PUSH2 0x2AD9 SWAP3 SWAP2 SWAP1 PUSH2 0x547E JUMP JUMPDEST PUSH1 0x20 PUSH1 0x40 MLOAD DUP1 DUP4 SUB DUP2 DUP7 DUP1 EXTCODESIZE ISZERO DUP1 ISZERO PUSH2 0x2AF1 JUMPI PUSH1 0x0 DUP1 REVERT JUMPDEST POP GAS DELEGATECALL ISZERO DUP1 ISZERO PUSH2 0x2B05 JUMPI RETURNDATASIZE PUSH1 0x0 DUP1 RETURNDATACOPY RETURNDATASIZE PUSH1 0x0 REVERT JUMPDEST POP POP POP POP PUSH1 0x40 MLOAD RETURNDATASIZE PUSH1 0x1F NOT PUSH1 0x1F DUP3 ADD AND DUP3 ADD DUP1 PUSH1 0x40 MSTORE POP DUP2 ADD SWAP1 PUSH2 0x2B29 SWAP2 SWAP1 PUSH2 0x43E2 JUMP JUMPDEST POP PUSH20 0x0 PUSH4 0xABCD7960 PUSH2 0x2BA5 PUSH1 0xA PUSH1 0x0 SWAP1 SLOAD SWAP1 PUSH2 0x100 EXP SWAP1 DIV PUSH20 0xFFFFFFFFFFFFFFFFFFFFFFFFFFFFFFFFFFFFFFFF AND PUSH1 0x40 MLOAD DUP1 PUSH1 0x40 ADD PUSH1 0x40 MSTORE DUP1 PUSH1 0x3 DUP2 MSTORE PUSH1 0x20 ADD PUSH32 0x4576650000000000000000000000000000000000000000000000000000000000 DUP2 MSTORE POP PUSH2 0x99F JUMP JUMPDEST PUSH1 0x4 PUSH1 0x40 MLOAD DUP4 PUSH4 0xFFFFFFFF AND PUSH1 0xE0 SHL DUP2 MSTORE PUSH1 0x4 ADD PUSH2 0x2BC4 SWAP3 SWAP2 SWAP1 PUSH2 0x54F6 JUMP JUMPDEST PUSH1 0x20 PUSH1 0x40 MLOAD DUP1 DUP4 SUB DUP2 DUP7 DUP1 EXTCODESIZE ISZERO DUP1 ISZERO PUSH2 0x2BDC JUMPI PUSH1 0x0 DUP1 REVERT JUMPDEST POP GAS DELEGATECALL ISZERO DUP1 ISZERO PUSH2 0x2BF0 JUMPI RETURNDATASIZE PUSH1 0x0 DUP1 RETURNDATACOPY RETURNDATASIZE PUSH1 0x0 REVERT JUMPDEST POP POP POP POP PUSH1 0x40 MLOAD RETURNDATASIZE PUSH1 0x1F NOT PUSH1 0x1F DUP3 ADD AND DUP3 ADD DUP1 PUSH1 0x40 MSTORE POP DUP2 ADD SWAP1 PUSH2 0x2C14 SWAP2 SWAP1 PUSH2 0x43E2 JUMP JUMPDEST POP JUMP JUMPDEST PUSH20 0x0 PUSH4 0xBFBA5DD6 PUSH32 0x0 PUSH1 0x7 PUSH1 0x1 SWAP1 SLOAD SWAP1 PUSH2 0x100 EXP SWAP1 DIV PUSH20 0xFFFFFFFFFFFFFFFFFFFFFFFFFFFFFFFFFFFFFFFF AND PUSH1 0x40 MLOAD DUP4 PUSH4 0xFFFFFFFF AND PUSH1 0xE0 SHL DUP2 MSTORE PUSH1 0x4 ADD PUSH2 0x2C92 SWAP3 SWAP2 SWAP1 PUSH2 0x4C79 JUMP JUMPDEST PUSH1 0x20 PUSH1 0x40 MLOAD DUP1 DUP4 SUB DUP2 DUP7 DUP1 EXTCODESIZE ISZERO DUP1 ISZERO PUSH2 0x2CAA JUMPI PUSH1 0x0 DUP1 REVERT JUMPDEST POP GAS DELEGATECALL ISZERO DUP1 ISZERO PUSH2 0x2CBE JUMPI RETURNDATASIZE PUSH1 0x0 DUP1 RETURNDATACOPY RETURNDATASIZE PUSH1 0x0 REVERT JUMPDEST POP POP POP POP PUSH1 0x40 MLOAD RETURNDATASIZE PUSH1 0x1F NOT PUSH1 0x1F DUP3 ADD AND DUP3 ADD DUP1 PUSH1 0x40 MSTORE POP DUP2 ADD SWAP1 PUSH2 0x2CE2 SWAP2 SWAP1 PUSH2 0x43E2 JUMP JUMPDEST POP JUMP JUMPDEST PUSH1 0x1 PUSH1 0x0 DUP1 PUSH2 0x100 EXP DUP2 SLOAD DUP2 PUSH1 0xFF MUL NOT AND SWAP1 DUP4 PUSH1 0x2 DUP2 GT ISZERO PUSH2 0x2D0A JUMPI PUSH2 0x2D09 PUSH2 0x58C2 JUMP JUMPDEST JUMPDEST MUL OR SWAP1 SSTORE POP PUSH20 0x0 PUSH4 0x39DF137F PUSH2 0x2D33 PUSH1 0x1 PUSH2 0x3775 JUMP JUMPDEST PUSH1 0x40 MLOAD DUP3 PUSH4 0xFFFFFFFF AND PUSH1 0xE0 SHL DUP2 MSTORE PUSH1 0x4 ADD PUSH2 0x2D4F SWAP2 SWAP1 PUSH2 0x4F59 JUMP JUMPDEST PUSH1 0x20 PUSH1 0x40 MLOAD DUP1 DUP4 SUB DUP2 DUP7 DUP1 EXTCODESIZE ISZERO DUP1 ISZERO PUSH2 0x2D67 JUMPI PUSH1 0x0 DUP1 REVERT JUMPDEST POP GAS DELEGATECALL ISZERO DUP1 ISZERO PUSH2 0x2D7B JUMPI RETURNDATASIZE PUSH1 0x0 DUP1 RETURNDATACOPY RETURNDATASIZE PUSH1 0x0 REVERT JUMPDEST POP POP POP POP PUSH1 0x40 MLOAD RETURNDATASIZE PUSH1 0x1F NOT PUSH1 0x1F DUP3 ADD AND DUP3 ADD DUP1 PUSH1 0x40 MSTORE POP DUP2 ADD SWAP1 PUSH2 0x2D9F SWAP2 SWAP1 PUSH2 0x43E2 JUMP JUMPDEST POP JUMP JUMPDEST PUSH1 0x3 PUSH1 0x2 SWAP1 SLOAD SWAP1 PUSH2 0x100 EXP SWAP1 DIV PUSH1 0xFF AND DUP2 JUMP JUMPDEST PUSH1 0x2 PUSH1 0x0 DUP1 PUSH2 0x100 EXP DUP2 SLOAD DUP2 PUSH1 0xFF MUL NOT AND SWAP1 DUP4 PUSH1 0x2 DUP2 GT ISZERO PUSH2 0x2DDA JUMPI PUSH2 0x2DD9 PUSH2 0x58C2 JUMP JUMPDEST JUMPDEST MUL OR SWAP1 SSTORE POP ADDRESS PUSH20 0xFFFFFFFFFFFFFFFFFFFFFFFFFFFFFFFFFFFFFFFF AND PUSH4 0xE9B16CA3 PUSH1 0x1 PUSH1 0x40 MLOAD DUP3 PUSH4 0xFFFFFFFF AND PUSH1 0xE0 SHL DUP2 MSTORE PUSH1 0x4 ADD PUSH2 0x2E19 SWAP2 SWAP1 PUSH2 0x5006 JUMP JUMPDEST PUSH1 0x20 PUSH1 0x40 MLOAD DUP1 DUP4 SUB DUP2 PUSH1 0x0 DUP8 DUP1 EXTCODESIZE ISZERO DUP1 ISZERO PUSH2 0x2E33 JUMPI PUSH1 0x0 DUP1 REVERT JUMPDEST POP GAS CALL SWAP3 POP POP POP DUP1 ISZERO PUSH2 0x2E64 JUMPI POP PUSH1 0x40 MLOAD RETURNDATASIZE PUSH1 0x1F NOT PUSH1 0x1F DUP3 ADD AND DUP3 ADD DUP1 PUSH1 0x40 MSTORE POP DUP2 ADD SWAP1 PUSH2 0x2E61 SWAP2 SWAP1 PUSH2 0x43E2 JUMP JUMPDEST PUSH1 0x1 JUMPDEST PUSH2 0x308D JUMPI PUSH2 0x2E70 PUSH2 0x594F JUMP JUMPDEST DUP1 PUSH4 0x8C379A0 EQ ISZERO PUSH2 0x2F1E JUMPI POP PUSH2 0x2E85 PUSH2 0x5FC7 JUMP JUMPDEST DUP1 PUSH2 0x2E90 JUMPI POP PUSH2 0x2FCB JUMP JUMPDEST PUSH20 0x0 PUSH4 0xE8C2CB16 DUP3 PUSH1 0x40 MLOAD DUP3 PUSH4 0xFFFFFFFF AND PUSH1 0xE0 SHL DUP2 MSTORE PUSH1 0x4 ADD PUSH2 0x2EC7 SWAP2 SWAP1 PUSH2 0x5127 JUMP JUMPDEST PUSH1 0x20 PUSH1 0x40 MLOAD DUP1 DUP4 SUB DUP2 DUP7 DUP1 EXTCODESIZE ISZERO DUP1 ISZERO PUSH2 0x2EDF JUMPI PUSH1 0x0 DUP1 REVERT JUMPDEST POP GAS DELEGATECALL ISZERO DUP1 ISZERO PUSH2 0x2EF3 JUMPI RETURNDATASIZE PUSH1 0x0 DUP1 RETURNDATACOPY RETURNDATASIZE PUSH1 0x0 REVERT JUMPDEST POP POP POP POP PUSH1 0x40 MLOAD RETURNDATASIZE PUSH1 0x1F NOT PUSH1 0x1F DUP3 ADD AND DUP3 ADD DUP1 PUSH1 0x40 MSTORE POP DUP2 ADD SWAP1 PUSH2 0x2F17 SWAP2 SWAP1 PUSH2 0x43E2 JUMP JUMPDEST POP POP PUSH2 0x3088 JUMP JUMPDEST PUSH4 0x4E487B71 EQ ISZERO PUSH2 0x2FCB JUMPI PUSH2 0x2F31 PUSH2 0x605D JUMP JUMPDEST SWAP1 PUSH2 0x2F3C JUMPI POP PUSH2 0x2FCB JUMP JUMPDEST PUSH20 0x0 PUSH4 0x39DF137F PUSH1 0x0 PUSH1 0x40 MLOAD DUP3 PUSH4 0xFFFFFFFF AND PUSH1 0xE0 SHL DUP2 MSTORE PUSH1 0x4 ADD PUSH2 0x2F74 SWAP2 SWAP1 PUSH2 0x4EFD JUMP JUMPDEST PUSH1 0x20 PUSH1 0x40 MLOAD DUP1 DUP4 SUB DUP2 DUP7 DUP1 EXTCODESIZE ISZERO DUP1 ISZERO PUSH2 0x2F8C JUMPI PUSH1 0x0 DUP1 REVERT JUMPDEST POP GAS DELEGATECALL ISZERO DUP1 ISZERO PUSH2 0x2FA0 JUMPI RETURNDATASIZE PUSH1 0x0 DUP1 RETURNDATACOPY RETURNDATASIZE PUSH1 0x0 REVERT JUMPDEST POP POP POP POP PUSH1 0x40 MLOAD RETURNDATASIZE PUSH1 0x1F NOT PUSH1 0x1F DUP3 ADD AND DUP3 ADD DUP1 PUSH1 0x40 MSTORE POP DUP2 ADD SWAP1 PUSH2 0x2FC4 SWAP2 SWAP1 PUSH2 0x43E2 JUMP JUMPDEST POP POP PUSH2 0x3088 JUMP JUMPDEST RETURNDATASIZE DUP1 PUSH1 0x0 DUP2 EQ PUSH2 0x2FF7 JUMPI PUSH1 0x40 MLOAD SWAP2 POP PUSH1 0x1F NOT PUSH1 0x3F RETURNDATASIZE ADD AND DUP3 ADD PUSH1 0x40 MSTORE RETURNDATASIZE DUP3 MSTORE RETURNDATASIZE PUSH1 0x0 PUSH1 0x20 DUP5 ADD RETURNDATACOPY PUSH2 0x2FFC JUMP JUMPDEST PUSH1 0x60 SWAP2 POP JUMPDEST POP PUSH20 0x0 PUSH4 0x39DF137F PUSH1 0x0 PUSH1 0x40 MLOAD DUP3 PUSH4 0xFFFFFFFF AND PUSH1 0xE0 SHL DUP2 MSTORE PUSH1 0x4 ADD PUSH2 0x3035 SWAP2 SWAP1 PUSH2 0x4E45 JUMP JUMPDEST PUSH1 0x20 PUSH1 0x40 MLOAD DUP1 DUP4 SUB DUP2 DUP7 DUP1 EXTCODESIZE ISZERO DUP1 ISZERO PUSH2 0x304D JUMPI PUSH1 0x0 DUP1 REVERT JUMPDEST POP GAS DELEGATECALL ISZERO DUP1 ISZERO PUSH2 0x3061 JUMPI RETURNDATASIZE PUSH1 0x0 DUP1 RETURNDATACOPY RETURNDATASIZE PUSH1 0x0 REVERT JUMPDEST POP POP POP POP PUSH1 0x40 MLOAD RETURNDATASIZE PUSH1 0x1F NOT PUSH1 0x1F DUP3 ADD AND DUP3 ADD DUP1 PUSH1 0x40 MSTORE POP DUP2 ADD SWAP1 PUSH2 0x3085 SWAP2 SWAP1 PUSH2 0x43E2 JUMP JUMPDEST POP POP JUMPDEST PUSH2 0x311A JUMP JUMPDEST PUSH20 0x0 PUSH4 0x767392B3 DUP3 PUSH1 0x1 PUSH1 0x40 MLOAD DUP4 PUSH4 0xFFFFFFFF AND PUSH1 0xE0 SHL DUP2 MSTORE PUSH1 0x4 ADD PUSH2 0x30C7 SWAP3 SWAP2 SWAP1 PUSH2 0x4DCD JUMP JUMPDEST PUSH1 0x20 PUSH1 0x40 MLOAD DUP1 DUP4 SUB DUP2 DUP7 DUP1 EXTCODESIZE ISZERO DUP1 ISZERO PUSH2 0x30DF JUMPI PUSH1 0x0 DUP1 REVERT JUMPDEST POP GAS DELEGATECALL ISZERO DUP1 ISZERO PUSH2 0x30F3 JUMPI RETURNDATASIZE PUSH1 0x0 DUP1 RETURNDATACOPY RETURNDATASIZE PUSH1 0x0 REVERT JUMPDEST POP POP POP POP PUSH1 0x40 MLOAD RETURNDATASIZE PUSH1 0x1F NOT PUSH1 0x1F DUP3 ADD AND DUP3 ADD DUP1 PUSH1 0x40 MSTORE POP DUP2 ADD SWAP1 PUSH2 0x3117 SWAP2 SWAP1 PUSH2 0x43E2 JUMP JUMPDEST POP POP JUMPDEST JUMP JUMPDEST ADDRESS PUSH20 0xFFFFFFFFFFFFFFFFFFFFFFFFFFFFFFFFFFFFFFFF AND PUSH4 0xB9223946 PUSH1 0x40 MLOAD DUP2 PUSH4 0xFFFFFFFF AND PUSH1 0xE0 SHL DUP2 MSTORE PUSH1 0x4 ADD PUSH1 0x0 PUSH1 0x40 MLOAD DUP1 DUP4 SUB DUP2 PUSH1 0x0 DUP8 DUP1 EXTCODESIZE ISZERO DUP1 ISZERO PUSH2 0x3164 JUMPI PUSH1 0x0 DUP1 REVERT JUMPDEST POP GAS CALL ISZERO DUP1 ISZERO PUSH2 0x3178 JUMPI RETURNDATASIZE PUSH1 0x0 DUP1 RETURNDATACOPY RETURNDATASIZE PUSH1 0x0 REVERT JUMPDEST POP POP POP POP PUSH20 0x0 PUSH4 0xE8C2CB16 PUSH1 0x4 PUSH1 0x40 MLOAD DUP3 PUSH4 0xFFFFFFFF AND PUSH1 0xE0 SHL DUP2 MSTORE PUSH1 0x4 ADD PUSH2 0x31B4 SWAP2 SWAP1 PUSH2 0x5247 JUMP JUMPDEST PUSH1 0x20 PUSH1 0x40 MLOAD DUP1 DUP4 SUB DUP2 DUP7 DUP1 EXTCODESIZE ISZERO DUP1 ISZERO PUSH2 0x31CC JUMPI PUSH1 0x0 DUP1 REVERT JUMPDEST POP GAS DELEGATECALL ISZERO DUP1 ISZERO PUSH2 0x31E0 JUMPI RETURNDATASIZE PUSH1 0x0 DUP1 RETURNDATACOPY RETURNDATASIZE PUSH1 0x0 REVERT JUMPDEST POP POP POP POP PUSH1 0x40 MLOAD RETURNDATASIZE PUSH1 0x1F NOT PUSH1 0x1F DUP3 ADD AND DUP3 ADD DUP1 PUSH1 0x40 MSTORE POP DUP2 ADD SWAP1 PUSH2 0x3204 SWAP2 SWAP1 PUSH2 0x43E2 JUMP JUMPDEST POP JUMP JUMPDEST PUSH1 0x1 PUSH1 0x0 DUP1 PUSH2 0x100 EXP DUP2 SLOAD DUP2 PUSH1 0xFF MUL NOT AND SWAP1 DUP4 PUSH1 0x2 DUP2 GT ISZERO PUSH2 0x322C JUMPI PUSH2 0x322B PUSH2 0x58C2 JUMP JUMPDEST JUMPDEST MUL OR SWAP1 SSTORE POP PUSH20 0x0 PUSH4 0x767392B3 PUSH2 0x3255 PUSH1 0x1 PUSH2 0x3775 JUMP JUMPDEST PUSH1 0x0 PUSH1 0x40 MLOAD DUP4 PUSH4 0xFFFFFFFF AND PUSH1 0xE0 SHL DUP2 MSTORE PUSH1 0x4 ADD PUSH2 0x3274 SWAP3 SWAP2 SWAP1 PUSH2 0x4D91 JUMP JUMPDEST PUSH1 0x20 PUSH1 0x40 MLOAD DUP1 DUP4 SUB DUP2 DUP7 DUP1 EXTCODESIZE ISZERO DUP1 ISZERO PUSH2 0x328C JUMPI PUSH1 0x0 DUP1 REVERT JUMPDEST POP GAS DELEGATECALL ISZERO DUP1 ISZERO PUSH2 0x32A0 JUMPI RETURNDATASIZE PUSH1 0x0 DUP1 RETURNDATACOPY RETURNDATASIZE PUSH1 0x0 REVERT JUMPDEST POP POP POP POP PUSH1 0x40 MLOAD RETURNDATASIZE PUSH1 0x1F NOT PUSH1 0x1F DUP3 ADD AND DUP3 ADD DUP1 PUSH1 0x40 MSTORE POP DUP2 ADD SWAP1 PUSH2 0x32C4 SWAP2 SWAP1 PUSH2 0x43E2 JUMP JUMPDEST POP JUMP JUMPDEST PUSH1 0x3 PUSH1 0x0 SWAP1 SLOAD SWAP1 PUSH2 0x100 EXP SWAP1 DIV PUSH1 0xFF AND DUP2 JUMP JUMPDEST PUSH32 0x0 PUSH20 0xFFFFFFFFFFFFFFFFFFFFFFFFFFFFFFFFFFFFFFFF AND ORIGIN PUSH20 0xFFFFFFFFFFFFFFFFFFFFFFFFFFFFFFFFFFFFFFFF AND EQ DUP1 PUSH2 0x337F JUMPI POP PUSH32 0x0 PUSH20 0xFFFFFFFFFFFFFFFFFFFFFFFFFFFFFFFFFFFFFFFF AND CALLER PUSH20 0xFFFFFFFFFFFFFFFFFFFFFFFFFFFFFFFFFFFFFFFF AND EQ JUMPDEST PUSH2 0x33BE JUMPI PUSH1 0x40 MLOAD PUSH32 0x8C379A000000000000000000000000000000000000000000000000000000000 DUP2 MSTORE PUSH1 0x4 ADD PUSH2 0x33B5 SWAP1 PUSH2 0x534F JUMP JUMPDEST PUSH1 0x40 MLOAD DUP1 SWAP2 SUB SWAP1 REVERT JUMPDEST PUSH1 0x2 DUP1 PUSH1 0x2 DUP2 GT ISZERO PUSH2 0x33D3 JUMPI PUSH2 0x33D2 PUSH2 0x58C2 JUMP JUMPDEST JUMPDEST PUSH1 0x0 DUP1 SLOAD SWAP1 PUSH2 0x100 EXP SWAP1 DIV PUSH1 0xFF AND PUSH1 0x2 DUP2 GT ISZERO PUSH2 0x33F3 JUMPI PUSH2 0x33F2 PUSH2 0x58C2 JUMP JUMPDEST JUMPDEST EQ PUSH2 0x3433 JUMPI PUSH1 0x40 MLOAD PUSH32 0x8C379A000000000000000000000000000000000000000000000000000000000 DUP2 MSTORE PUSH1 0x4 ADD PUSH2 0x342A SWAP1 PUSH2 0x530F JUMP JUMPDEST PUSH1 0x40 MLOAD DUP1 SWAP2 SUB SWAP1 REVERT JUMPDEST PUSH1 0x0 PUSH1 0x1 PUSH1 0x2 PUSH1 0x3 PUSH1 0x1 SWAP1 SLOAD SWAP1 PUSH2 0x100 EXP SWAP1 DIV PUSH1 0xFF AND PUSH2 0x3453 SWAP2 SWAP1 PUSH2 0x5648 JUMP JUMPDEST PUSH2 0x345D SWAP2 SWAP1 PUSH2 0x5611 JUMP JUMPDEST PUSH1 0xFF AND PUSH1 0x3 PUSH1 0x2 SWAP1 SLOAD SWAP1 PUSH2 0x100 EXP SWAP1 DIV PUSH1 0xFF AND PUSH1 0xFF AND LT PUSH2 0x347D JUMPI PUSH1 0x1 SWAP1 POP JUMPDEST DUP1 PUSH2 0x34BD JUMPI PUSH1 0x40 MLOAD PUSH32 0x8C379A000000000000000000000000000000000000000000000000000000000 DUP2 MSTORE PUSH1 0x4 ADD PUSH2 0x34B4 SWAP1 PUSH2 0x528F JUMP JUMPDEST PUSH1 0x40 MLOAD DUP1 SWAP2 SUB SWAP1 REVERT JUMPDEST PUSH1 0x7 PUSH1 0x0 SWAP1 SLOAD SWAP1 PUSH2 0x100 EXP SWAP1 DIV PUSH1 0xFF AND ISZERO PUSH2 0x350D JUMPI PUSH1 0x40 MLOAD PUSH32 0x8C379A000000000000000000000000000000000000000000000000000000000 DUP2 MSTORE PUSH1 0x4 ADD PUSH2 0x3504 SWAP1 PUSH2 0x52EF JUMP JUMPDEST PUSH1 0x40 MLOAD DUP1 SWAP2 SUB SWAP1 REVERT JUMPDEST PUSH2 0x3515 PUSH2 0x3F59 JUMP JUMPDEST POP POP JUMP JUMPDEST PUSH20 0x0 PUSH4 0xABCD7960 PUSH1 0x0 DUP1 SLOAD SWAP1 PUSH2 0x100 EXP SWAP1 DIV PUSH1 0xFF AND PUSH1 0x2 DUP2 GT ISZERO PUSH2 0x3553 JUMPI PUSH2 0x3552 PUSH2 0x58C2 JUMP JUMPDEST JUMPDEST PUSH1 0x2 DUP1 DUP2 GT ISZERO PUSH2 0x3566 JUMPI PUSH2 0x3565 PUSH2 0x58C2 JUMP JUMPDEST JUMPDEST PUSH1 0x40 MLOAD DUP4 PUSH4 0xFFFFFFFF AND PUSH1 0xE0 SHL DUP2 MSTORE PUSH1 0x4 ADD PUSH2 0x3583 SWAP3 SWAP2 SWAP1 PUSH2 0x53AF JUMP JUMPDEST PUSH1 0x20 PUSH1 0x40 MLOAD DUP1 DUP4 SUB DUP2 DUP7 DUP1 EXTCODESIZE ISZERO DUP1 ISZERO PUSH2 0x359B JUMPI PUSH1 0x0 DUP1 REVERT JUMPDEST POP GAS DELEGATECALL ISZERO DUP1 ISZERO PUSH2 0x35AF JUMPI RETURNDATASIZE PUSH1 0x0 DUP1 RETURNDATACOPY RETURNDATASIZE PUSH1 0x0 REVERT JUMPDEST POP POP POP POP PUSH1 0x40 MLOAD RETURNDATASIZE PUSH1 0x1F NOT PUSH1 0x1F DUP3 ADD AND DUP3 ADD DUP1 PUSH1 0x40 MSTORE POP DUP2 ADD SWAP1 PUSH2 0x35D3 SWAP2 SWAP1 PUSH2 0x43E2 JUMP JUMPDEST POP JUMP JUMPDEST PUSH1 0x1 PUSH1 0x0 DUP1 PUSH2 0x100 EXP DUP2 SLOAD DUP2 PUSH1 0xFF MUL NOT AND SWAP1 DUP4 PUSH1 0x2 DUP2 GT ISZERO PUSH2 0x35FB JUMPI PUSH2 0x35FA PUSH2 0x58C2 JUMP JUMPDEST JUMPDEST MUL OR SWAP1 SSTORE POP PUSH20 0x0 PUSH4 0x767392B3 PUSH2 0x3624 PUSH1 0x3 PUSH2 0x3775 JUMP JUMPDEST PUSH1 0x0 PUSH1 0x40 MLOAD DUP4 PUSH4 0xFFFFFFFF AND PUSH1 0xE0 SHL DUP2 MSTORE PUSH1 0x4 ADD PUSH2 0x3643 SWAP3 SWAP2 SWAP1 PUSH2 0x4E09 JUMP JUMPDEST PUSH1 0x20 PUSH1 0x40 MLOAD DUP1 DUP4 SUB DUP2 DUP7 DUP1 EXTCODESIZE ISZERO DUP1 ISZERO PUSH2 0x365B JUMPI PUSH1 0x0 DUP1 REVERT JUMPDEST POP GAS DELEGATECALL ISZERO DUP1 ISZERO PUSH2 0x366F JUMPI RETURNDATASIZE PUSH1 0x0 DUP1 RETURNDATACOPY RETURNDATASIZE PUSH1 0x0 REVERT JUMPDEST POP POP POP POP PUSH1 0x40 MLOAD RETURNDATASIZE PUSH1 0x1F NOT PUSH1 0x1F DUP3 ADD AND DUP3 ADD DUP1 PUSH1 0x40 MSTORE POP DUP2 ADD SWAP1 PUSH2 0x3693 SWAP2 SWAP1 PUSH2 0x43E2 JUMP JUMPDEST POP JUMP JUMPDEST PUSH1 0x5 PUSH1 0x20 MSTORE DUP1 PUSH1 0x0 MSTORE PUSH1 0x40 PUSH1 0x0 KECCAK256 PUSH1 0x0 SWAP2 POP SWAP1 POP DUP1 PUSH1 0x0 ADD PUSH1 0x0 SWAP1 SLOAD SWAP1 PUSH2 0x100 EXP SWAP1 DIV PUSH20 0xFFFFFFFFFFFFFFFFFFFFFFFFFFFFFFFFFFFFFFFF AND SWAP1 DUP1 PUSH1 0x0 ADD PUSH1 0x14 SWAP1 SLOAD SWAP1 PUSH2 0x100 EXP SWAP1 DIV PUSH1 0xFF AND SWAP1 POP DUP3 JUMP JUMPDEST PUSH1 0x4 DUP1 SLOAD PUSH2 0x36F4 SWAP1 PUSH2 0x57D7 JUMP JUMPDEST DUP1 PUSH1 0x1F ADD PUSH1 0x20 DUP1 SWAP2 DIV MUL PUSH1 0x20 ADD PUSH1 0x40 MLOAD SWAP1 DUP2 ADD PUSH1 0x40 MSTORE DUP1 SWAP3 SWAP2 SWAP1 DUP2 DUP2 MSTORE PUSH1 0x20 ADD DUP3 DUP1 SLOAD PUSH2 0x3720 SWAP1 PUSH2 0x57D7 JUMP JUMPDEST DUP1 ISZERO PUSH2 0x376D JUMPI DUP1 PUSH1 0x1F LT PUSH2 0x3742 JUMPI PUSH2 0x100 DUP1 DUP4 SLOAD DIV MUL DUP4 MSTORE SWAP2 PUSH1 0x20 ADD SWAP2 PUSH2 0x376D JUMP JUMPDEST DUP3 ADD SWAP2 SWAP1 PUSH1 0x0 MSTORE PUSH1 0x20 PUSH1 0x0 KECCAK256 SWAP1 JUMPDEST DUP2 SLOAD DUP2 MSTORE SWAP1 PUSH1 0x1 ADD SWAP1 PUSH1 0x20 ADD DUP1 DUP4 GT PUSH2 0x3750 JUMPI DUP3 SWAP1 SUB PUSH1 0x1F AND DUP3 ADD SWAP2 JUMPDEST POP POP POP POP POP DUP2 JUMP JUMPDEST PUSH1 0x0 CALLER PUSH1 0x0 ISZERO ISZERO PUSH1 0x2 PUSH1 0x0 DUP4 PUSH20 0xFFFFFFFFFFFFFFFFFFFFFFFFFFFFFFFFFFFFFFFF AND PUSH20 0xFFFFFFFFFFFFFFFFFFFFFFFFFFFFFFFFFFFFFFFF AND DUP2 MSTORE PUSH1 0x20 ADD SWAP1 DUP2 MSTORE PUSH1 0x20 ADD PUSH1 0x0 KECCAK256 PUSH1 0x1 ADD PUSH1 0x0 SWAP1 SLOAD SWAP1 PUSH2 0x100 EXP SWAP1 DIV PUSH1 0xFF AND ISZERO ISZERO EQ PUSH2 0x380E JUMPI PUSH1 0x40 MLOAD PUSH32 0x8C379A000000000000000000000000000000000000000000000000000000000 DUP2 MSTORE PUSH1 0x4 ADD PUSH2 0x3805 SWAP1 PUSH2 0x52AF JUMP JUMPDEST PUSH1 0x40 MLOAD DUP1 SWAP2 SUB SWAP1 REVERT JUMPDEST PUSH1 0x1 DUP1 PUSH1 0x2 DUP2 GT ISZERO PUSH2 0x3823 JUMPI PUSH2 0x3822 PUSH2 0x58C2 JUMP JUMPDEST JUMPDEST PUSH1 0x0 DUP1 SLOAD SWAP1 PUSH2 0x100 EXP SWAP1 DIV PUSH1 0xFF AND PUSH1 0x2 DUP2 GT ISZERO PUSH2 0x3843 JUMPI PUSH2 0x3842 PUSH2 0x58C2 JUMP JUMPDEST JUMPDEST EQ PUSH2 0x3883 JUMPI PUSH1 0x40 MLOAD PUSH32 0x8C379A000000000000000000000000000000000000000000000000000000000 DUP2 MSTORE PUSH1 0x4 ADD PUSH2 0x387A SWAP1 PUSH2 0x530F JUMP JUMPDEST PUSH1 0x40 MLOAD DUP1 SWAP2 SUB SWAP1 REVERT JUMPDEST PUSH1 0x7 PUSH1 0x0 SWAP1 SLOAD SWAP1 PUSH2 0x100 EXP SWAP1 DIV PUSH1 0xFF AND ISZERO PUSH2 0x38D3 JUMPI PUSH1 0x40 MLOAD PUSH32 0x8C379A000000000000000000000000000000000000000000000000000000000 DUP2 MSTORE PUSH1 0x4 ADD PUSH2 0x38CA SWAP1 PUSH2 0x52EF JUMP JUMPDEST PUSH1 0x40 MLOAD DUP1 SWAP2 SUB SWAP1 REVERT JUMPDEST PUSH1 0x0 SWAP3 POP PUSH1 0x0 PUSH1 0x2 PUSH1 0x0 CALLER PUSH20 0xFFFFFFFFFFFFFFFFFFFFFFFFFFFFFFFFFFFFFFFF AND PUSH20 0xFFFFFFFFFFFFFFFFFFFFFFFFFFFFFFFFFFFFFFFF AND DUP2 MSTORE PUSH1 0x20 ADD SWAP1 DUP2 MSTORE PUSH1 0x20 ADD PUSH1 0x0 KECCAK256 PUSH1 0x0 ADD DUP1 SLOAD PUSH2 0x3926 SWAP1 PUSH2 0x57D7 JUMP JUMPDEST SWAP1 POP EQ PUSH2 0x3AB4 JUMPI PUSH1 0x0 PUSH1 0x1 PUSH1 0x0 DUP7 PUSH1 0xFF AND PUSH1 0xFF AND DUP2 MSTORE PUSH1 0x20 ADD SWAP1 DUP2 MSTORE PUSH1 0x20 ADD PUSH1 0x0 KECCAK256 DUP1 SLOAD PUSH2 0x3953 SWAP1 PUSH2 0x57D7 JUMP JUMPDEST SWAP1 POP EQ PUSH2 0x3AB3 JUMPI PUSH1 0x1 SWAP3 POP PUSH1 0x1 PUSH1 0x2 PUSH1 0x0 CALLER PUSH20 0xFFFFFFFFFFFFFFFFFFFFFFFFFFFFFFFFFFFFFFFF AND PUSH20 0xFFFFFFFFFFFFFFFFFFFFFFFFFFFFFFFFFFFFFFFF AND DUP2 MSTORE PUSH1 0x20 ADD SWAP1 DUP2 MSTORE PUSH1 0x20 ADD PUSH1 0x0 KECCAK256 PUSH1 0x1 ADD PUSH1 0x0 PUSH2 0x100 EXP DUP2 SLOAD DUP2 PUSH1 0xFF MUL NOT AND SWAP1 DUP4 ISZERO ISZERO MUL OR SWAP1 SSTORE POP PUSH1 0x3 PUSH1 0x2 DUP2 DUP2 SWAP1 SLOAD SWAP1 PUSH2 0x100 EXP SWAP1 DIV PUSH1 0xFF AND DUP1 SWAP3 SWAP2 SWAP1 PUSH2 0x39D8 SWAP1 PUSH2 0x583A JUMP JUMPDEST SWAP2 SWAP1 PUSH2 0x100 EXP DUP2 SLOAD DUP2 PUSH1 0xFF MUL NOT AND SWAP1 DUP4 PUSH1 0xFF AND MUL OR SWAP1 SSTORE POP POP PUSH1 0x40 MLOAD DUP1 PUSH1 0x40 ADD PUSH1 0x40 MSTORE DUP1 CALLER PUSH20 0xFFFFFFFFFFFFFFFFFFFFFFFFFFFFFFFFFFFFFFFF AND DUP2 MSTORE PUSH1 0x20 ADD DUP6 PUSH1 0xFF AND DUP2 MSTORE POP PUSH1 0x5 PUSH1 0x0 PUSH1 0x3 PUSH1 0x2 SWAP1 SLOAD SWAP1 PUSH2 0x100 EXP SWAP1 DIV PUSH1 0xFF AND PUSH1 0xFF AND PUSH1 0xFF AND DUP2 MSTORE PUSH1 0x20 ADD SWAP1 DUP2 MSTORE PUSH1 0x20 ADD PUSH1 0x0 KECCAK256 PUSH1 0x0 DUP3 ADD MLOAD DUP2 PUSH1 0x0 ADD PUSH1 0x0 PUSH2 0x100 EXP DUP2 SLOAD DUP2 PUSH20 0xFFFFFFFFFFFFFFFFFFFFFFFFFFFFFFFFFFFFFFFF MUL NOT AND SWAP1 DUP4 PUSH20 0xFFFFFFFFFFFFFFFFFFFFFFFFFFFFFFFFFFFFFFFF AND MUL OR SWAP1 SSTORE POP PUSH1 0x20 DUP3 ADD MLOAD DUP2 PUSH1 0x0 ADD PUSH1 0x14 PUSH2 0x100 EXP DUP2 SLOAD DUP2 PUSH1 0xFF MUL NOT AND SWAP1 DUP4 PUSH1 0xFF AND MUL OR SWAP1 SSTORE POP SWAP1 POP POP JUMPDEST JUMPDEST PUSH1 0x1 PUSH1 0x2 PUSH1 0x3 PUSH1 0x1 SWAP1 SLOAD SWAP1 PUSH2 0x100 EXP SWAP1 DIV PUSH1 0xFF AND PUSH2 0x3AD2 SWAP2 SWAP1 PUSH2 0x5648 JUMP JUMPDEST PUSH2 0x3ADC SWAP2 SWAP1 PUSH2 0x5611 JUMP JUMPDEST PUSH1 0xFF AND PUSH1 0x3 PUSH1 0x2 SWAP1 SLOAD SWAP1 PUSH2 0x100 EXP SWAP1 DIV PUSH1 0xFF AND PUSH1 0xFF AND LT PUSH2 0x3B22 JUMPI PUSH1 0x2 PUSH1 0x0 DUP1 PUSH2 0x100 EXP DUP2 SLOAD DUP2 PUSH1 0xFF MUL NOT AND SWAP1 DUP4 PUSH1 0x2 DUP2 GT ISZERO PUSH2 0x3B1C JUMPI PUSH2 0x3B1B PUSH2 0x58C2 JUMP JUMPDEST JUMPDEST MUL OR SWAP1 SSTORE POP JUMPDEST POP POP SWAP2 SWAP1 POP JUMP JUMPDEST PUSH32 0x0 PUSH20 0xFFFFFFFFFFFFFFFFFFFFFFFFFFFFFFFFFFFFFFFF AND ORIGIN PUSH20 0xFFFFFFFFFFFFFFFFFFFFFFFFFFFFFFFFFFFFFFFF AND EQ DUP1 PUSH2 0x3BCE JUMPI POP PUSH32 0x0 PUSH20 0xFFFFFFFFFFFFFFFFFFFFFFFFFFFFFFFFFFFFFFFF AND CALLER PUSH20 0xFFFFFFFFFFFFFFFFFFFFFFFFFFFFFFFFFFFFFFFF AND EQ JUMPDEST PUSH2 0x3C0D JUMPI PUSH1 0x40 MLOAD PUSH32 0x8C379A000000000000000000000000000000000000000000000000000000000 DUP2 MSTORE PUSH1 0x4 ADD PUSH2 0x3C04 SWAP1 PUSH2 0x534F JUMP JUMPDEST PUSH1 0x40 MLOAD DUP1 SWAP2 SUB SWAP1 REVERT JUMPDEST PUSH1 0x1 DUP1 PUSH1 0x2 DUP2 GT ISZERO PUSH2 0x3C22 JUMPI PUSH2 0x3C21 PUSH2 0x58C2 JUMP JUMPDEST JUMPDEST PUSH1 0x0 DUP1 SLOAD SWAP1 PUSH2 0x100 EXP SWAP1 DIV PUSH1 0xFF AND PUSH1 0x2 DUP2 GT ISZERO PUSH2 0x3C42 JUMPI PUSH2 0x3C41 PUSH2 0x58C2 JUMP JUMPDEST JUMPDEST EQ PUSH2 0x3C82 JUMPI PUSH1 0x40 MLOAD PUSH32 0x8C379A000000000000000000000000000000000000000000000000000000000 DUP2 MSTORE PUSH1 0x4 ADD PUSH2 0x3C79 SWAP1 PUSH2 0x530F JUMP JUMPDEST PUSH1 0x40 MLOAD DUP1 SWAP2 SUB SWAP1 REVERT JUMPDEST PUSH1 0x7 PUSH1 0x0 SWAP1 SLOAD SWAP1 PUSH2 0x100 EXP SWAP1 DIV PUSH1 0xFF AND ISZERO PUSH2 0x3CD2 JUMPI PUSH1 0x40 MLOAD PUSH32 0x8C379A000000000000000000000000000000000000000000000000000000000 DUP2 MSTORE PUSH1 0x4 ADD PUSH2 0x3CC9 SWAP1 PUSH2 0x52EF JUMP JUMPDEST PUSH1 0x40 MLOAD DUP1 SWAP2 SUB SWAP1 REVERT JUMPDEST PUSH1 0x0 DUP1 PUSH1 0x0 PUSH2 0x100 EXP DUP2 SLOAD DUP2 PUSH1 0xFF MUL NOT AND SWAP1 DUP4 PUSH1 0x2 DUP2 GT ISZERO PUSH2 0x3CF7 JUMPI PUSH2 0x3CF6 PUSH2 0x58C2 JUMP JUMPDEST JUMPDEST MUL OR SWAP1 SSTORE POP POP JUMP JUMPDEST PUSH1 0x0 DUP1 PUSH1 0x0 PUSH2 0x100 EXP DUP2 SLOAD DUP2 PUSH1 0xFF MUL NOT AND SWAP1 DUP4 PUSH1 0x2 DUP2 GT ISZERO PUSH2 0x3D24 JUMPI PUSH2 0x3D23 PUSH2 0x58C2 JUMP JUMPDEST JUMPDEST MUL OR SWAP1 SSTORE POP ADDRESS PUSH20 0xFFFFFFFFFFFFFFFFFFFFFFFFFFFFFFFFFFFFFFFF AND PUSH4 0xB9223946 PUSH1 0x40 MLOAD DUP2 PUSH4 0xFFFFFFFF AND PUSH1 0xE0 SHL DUP2 MSTORE PUSH1 0x4 ADD PUSH1 0x0 PUSH1 0x40 MLOAD DUP1 DUP4 SUB DUP2 PUSH1 0x0 DUP8 DUP1 EXTCODESIZE ISZERO DUP1 ISZERO PUSH2 0x3D71 JUMPI PUSH1 0x0 DUP1 REVERT JUMPDEST POP GAS CALL SWAP3 POP POP POP DUP1 ISZERO PUSH2 0x3D82 JUMPI POP PUSH1 0x1 JUMPDEST PUSH2 0x3ECD JUMPI PUSH2 0x3D8E PUSH2 0x594F JUMP JUMPDEST DUP1 PUSH4 0x8C379A0 EQ ISZERO PUSH2 0x3E3C JUMPI POP PUSH2 0x3DA3 PUSH2 0x5FC7 JUMP JUMPDEST DUP1 PUSH2 0x3DAE JUMPI POP PUSH2 0x3E3E JUMP JUMPDEST PUSH20 0x0 PUSH4 0xE8C2CB16 DUP3 PUSH1 0x40 MLOAD DUP3 PUSH4 0xFFFFFFFF AND PUSH1 0xE0 SHL DUP2 MSTORE PUSH1 0x4 ADD PUSH2 0x3DE5 SWAP2 SWAP1 PUSH2 0x5127 JUMP JUMPDEST PUSH1 0x20 PUSH1 0x40 MLOAD DUP1 DUP4 SUB DUP2 DUP7 DUP1 EXTCODESIZE ISZERO DUP1 ISZERO PUSH2 0x3DFD JUMPI PUSH1 0x0 DUP1 REVERT JUMPDEST POP GAS DELEGATECALL ISZERO DUP1 ISZERO PUSH2 0x3E11 JUMPI RETURNDATASIZE PUSH1 0x0 DUP1 RETURNDATACOPY RETURNDATASIZE PUSH1 0x0 REVERT JUMPDEST POP POP POP POP PUSH1 0x40 MLOAD RETURNDATASIZE PUSH1 0x1F NOT PUSH1 0x1F DUP3 ADD AND DUP3 ADD DUP1 PUSH1 0x40 MSTORE POP DUP2 ADD SWAP1 PUSH2 0x3E35 SWAP2 SWAP1 PUSH2 0x43E2 JUMP JUMPDEST POP POP PUSH2 0x3EC8 JUMP JUMPDEST POP JUMPDEST PUSH20 0x0 PUSH4 0x39DF137F PUSH1 0x0 PUSH1 0x40 MLOAD DUP3 PUSH4 0xFFFFFFFF AND PUSH1 0xE0 SHL DUP2 MSTORE PUSH1 0x4 ADD PUSH2 0x3E76 SWAP2 SWAP1 PUSH2 0x4E73 JUMP JUMPDEST PUSH1 0x20 PUSH1 0x40 MLOAD DUP1 DUP4 SUB DUP2 DUP7 DUP1 EXTCODESIZE ISZERO DUP1 ISZERO PUSH2 0x3E8E JUMPI PUSH1 0x0 DUP1 REVERT JUMPDEST POP GAS DELEGATECALL ISZERO DUP1 ISZERO PUSH2 0x3EA2 JUMPI RETURNDATASIZE PUSH1 0x0 DUP1 RETURNDATACOPY RETURNDATASIZE PUSH1 0x0 REVERT JUMPDEST POP POP POP POP PUSH1 0x40 MLOAD RETURNDATASIZE PUSH1 0x1F NOT PUSH1 0x1F DUP3 ADD AND DUP3 ADD DUP1 PUSH1 0x40 MSTORE POP DUP2 ADD SWAP1 PUSH2 0x3EC6 SWAP2 SWAP1 PUSH2 0x43E2 JUMP JUMPDEST POP JUMPDEST PUSH2 0x3F57 JUMP JUMPDEST PUSH20 0x0 PUSH4 0x39DF137F PUSH1 0x0 PUSH1 0x40 MLOAD DUP3 PUSH4 0xFFFFFFFF AND PUSH1 0xE0 SHL DUP2 MSTORE PUSH1 0x4 ADD PUSH2 0x3F05 SWAP2 SWAP1 PUSH2 0x4F87 JUMP JUMPDEST PUSH1 0x20 PUSH1 0x40 MLOAD DUP1 DUP4 SUB DUP2 DUP7 DUP1 EXTCODESIZE ISZERO DUP1 ISZERO PUSH2 0x3F1D JUMPI PUSH1 0x0 DUP1 REVERT JUMPDEST POP GAS DELEGATECALL ISZERO DUP1 ISZERO PUSH2 0x3F31 JUMPI RETURNDATASIZE PUSH1 0x0 DUP1 RETURNDATACOPY RETURNDATASIZE PUSH1 0x0 REVERT JUMPDEST POP POP POP POP PUSH1 0x40 MLOAD RETURNDATASIZE PUSH1 0x1F NOT PUSH1 0x1F DUP3 ADD AND DUP3 ADD DUP1 PUSH1 0x40 MSTORE POP DUP2 ADD SWAP1 PUSH2 0x3F55 SWAP2 SWAP1 PUSH2 0x43E2 JUMP JUMPDEST POP JUMPDEST JUMP JUMPDEST PUSH1 0x0 DUP1 PUSH1 0x0 PUSH1 0x1 SWAP1 POP JUMPDEST PUSH1 0x3 PUSH1 0x2 SWAP1 SLOAD SWAP1 PUSH2 0x100 EXP SWAP1 DIV PUSH1 0xFF AND PUSH1 0xFF AND DUP2 PUSH1 0xFF AND GT PUSH2 0x40EB JUMPI PUSH1 0x0 PUSH1 0x1 SWAP1 POP PUSH1 0x0 PUSH1 0x6 PUSH1 0x0 PUSH1 0x5 PUSH1 0x0 DUP7 PUSH1 0xFF AND PUSH1 0xFF AND DUP2 MSTORE PUSH1 0x20 ADD SWAP1 DUP2 MSTORE PUSH1 0x20 ADD PUSH1 0x0 KECCAK256 PUSH1 0x0 ADD PUSH1 0x14 SWAP1 SLOAD SWAP1 PUSH2 0x100 EXP SWAP1 DIV PUSH1 0xFF AND PUSH1 0xFF AND PUSH1 0xFF AND DUP2 MSTORE PUSH1 0x20 ADD SWAP1 DUP2 MSTORE PUSH1 0x20 ADD PUSH1 0x0 KECCAK256 PUSH1 0x0 SWAP1 SLOAD SWAP1 PUSH2 0x100 EXP SWAP1 DIV PUSH1 0xFF AND PUSH1 0xFF AND GT ISZERO PUSH2 0x403E JUMPI PUSH1 0x6 PUSH1 0x0 PUSH1 0x5 PUSH1 0x0 DUP6 PUSH1 0xFF AND PUSH1 0xFF AND DUP2 MSTORE PUSH1 0x20 ADD SWAP1 DUP2 MSTORE PUSH1 0x20 ADD PUSH1 0x0 KECCAK256 PUSH1 0x0 ADD PUSH1 0x14 SWAP1 SLOAD SWAP1 PUSH2 0x100 EXP SWAP1 DIV PUSH1 0xFF AND PUSH1 0xFF AND PUSH1 0xFF AND DUP2 MSTORE PUSH1 0x20 ADD SWAP1 DUP2 MSTORE PUSH1 0x20 ADD PUSH1 0x0 KECCAK256 PUSH1 0x0 SWAP1 SLOAD SWAP1 PUSH2 0x100 EXP SWAP1 DIV PUSH1 0xFF AND DUP2 PUSH2 0x403B SWAP2 SWAP1 PUSH2 0x5611 JUMP JUMPDEST SWAP1 POP JUMPDEST DUP1 PUSH1 0x6 PUSH1 0x0 PUSH1 0x5 PUSH1 0x0 DUP7 PUSH1 0xFF AND PUSH1 0xFF AND DUP2 MSTORE PUSH1 0x20 ADD SWAP1 DUP2 MSTORE PUSH1 0x20 ADD PUSH1 0x0 KECCAK256 PUSH1 0x0 ADD PUSH1 0x14 SWAP1 SLOAD SWAP1 PUSH2 0x100 EXP SWAP1 DIV PUSH1 0xFF AND PUSH1 0xFF AND PUSH1 0xFF AND DUP2 MSTORE PUSH1 0x20 ADD SWAP1 DUP2 MSTORE PUSH1 0x20 ADD PUSH1 0x0 KECCAK256 PUSH1 0x0 PUSH2 0x100 EXP DUP2 SLOAD DUP2 PUSH1 0xFF MUL NOT AND SWAP1 DUP4 PUSH1 0xFF AND MUL OR SWAP1 SSTORE POP DUP4 PUSH1 0xFF AND DUP2 PUSH1 0xFF AND GT ISZERO PUSH2 0x40D7 JUMPI DUP1 SWAP4 POP PUSH1 0x5 PUSH1 0x0 DUP4 PUSH1 0xFF AND PUSH1 0xFF AND DUP2 MSTORE PUSH1 0x20 ADD SWAP1 DUP2 MSTORE PUSH1 0x20 ADD PUSH1 0x0 KECCAK256 PUSH1 0x0 ADD PUSH1 0x14 SWAP1 SLOAD SWAP1 PUSH2 0x100 EXP SWAP1 DIV PUSH1 0xFF AND SWAP3 POP JUMPDEST POP DUP1 DUP1 PUSH2 0x40E3 SWAP1 PUSH2 0x583A JUMP JUMPDEST SWAP2 POP POP PUSH2 0x3F63 JUMP JUMPDEST POP PUSH1 0x1 PUSH1 0x0 DUP3 PUSH1 0xFF AND PUSH1 0xFF AND DUP2 MSTORE PUSH1 0x20 ADD SWAP1 DUP2 MSTORE PUSH1 0x20 ADD PUSH1 0x0 KECCAK256 PUSH1 0x4 SWAP1 DUP1 SLOAD PUSH2 0x4113 SWAP1 PUSH2 0x57D7 JUMP JUMPDEST PUSH2 0x411E SWAP3 SWAP2 SWAP1 PUSH2 0x41A9 JUMP JUMPDEST POP POP POP JUMP JUMPDEST DUP3 DUP1 SLOAD PUSH2 0x412F SWAP1 PUSH2 0x57D7 JUMP JUMPDEST SWAP1 PUSH1 0x0 MSTORE PUSH1 0x20 PUSH1 0x0 KECCAK256 SWAP1 PUSH1 0x1F ADD PUSH1 0x20 SWAP1 DIV DUP2 ADD SWAP3 DUP3 PUSH2 0x4151 JUMPI PUSH1 0x0 DUP6 SSTORE PUSH2 0x4198 JUMP JUMPDEST DUP3 PUSH1 0x1F LT PUSH2 0x416A JUMPI DUP1 MLOAD PUSH1 0xFF NOT AND DUP4 DUP1 ADD OR DUP6 SSTORE PUSH2 0x4198 JUMP JUMPDEST DUP3 DUP1 ADD PUSH1 0x1 ADD DUP6 SSTORE DUP3 ISZERO PUSH2 0x4198 JUMPI SWAP2 DUP3 ADD JUMPDEST DUP3 DUP2 GT ISZERO PUSH2 0x4197 JUMPI DUP3 MLOAD DUP3 SSTORE SWAP2 PUSH1 0x20 ADD SWAP2 SWAP1 PUSH1 0x1 ADD SWAP1 PUSH2 0x417C JUMP JUMPDEST JUMPDEST POP SWAP1 POP PUSH2 0x41A5 SWAP2 SWAP1 PUSH2 0x4236 JUMP JUMPDEST POP SWAP1 JUMP JUMPDEST DUP3 DUP1 SLOAD PUSH2 0x41B5 SWAP1 PUSH2 0x57D7 JUMP JUMPDEST SWAP1 PUSH1 0x0 MSTORE PUSH1 0x20 PUSH1 0x0 KECCAK256 SWAP1 PUSH1 0x1F ADD PUSH1 0x20 SWAP1 DIV DUP2 ADD SWAP3 DUP3 PUSH2 0x41D7 JUMPI PUSH1 0x0 DUP6 SSTORE PUSH2 0x4225 JUMP JUMPDEST DUP3 PUSH1 0x1F LT PUSH2 0x41E8 JUMPI DUP1 SLOAD DUP6 SSTORE PUSH2 0x4225 JUMP JUMPDEST DUP3 DUP1 ADD PUSH1 0x1 ADD DUP6 SSTORE DUP3 ISZERO PUSH2 0x4225 JUMPI PUSH1 0x0 MSTORE PUSH1 0x20 PUSH1 0x0 KECCAK256 SWAP2 PUSH1 0x1F ADD PUSH1 0x20 SWAP1 DIV DUP3 ADD JUMPDEST DUP3 DUP2 GT ISZERO PUSH2 0x4224 JUMPI DUP3 SLOAD DUP3 SSTORE SWAP2 PUSH1 0x1 ADD SWAP2 SWAP1 PUSH1 0x1 ADD SWAP1 PUSH2 0x4209 JUMP JUMPDEST JUMPDEST POP SWAP1 POP PUSH2 0x4232 SWAP2 SWAP1 PUSH2 0x4236 JUMP JUMPDEST POP SWAP1 JUMP JUMPDEST JUMPDEST DUP1 DUP3 GT ISZERO PUSH2 0x424F JUMPI PUSH1 0x0 DUP2 PUSH1 0x0 SWAP1 SSTORE POP PUSH1 0x1 ADD PUSH2 0x4237 JUMP JUMPDEST POP SWAP1 JUMP JUMPDEST PUSH1 0x0 PUSH2 0x4266 PUSH2 0x4261 DUP5 PUSH2 0x5593 JUMP JUMPDEST PUSH2 0x556E JUMP JUMPDEST SWAP1 POP DUP3 DUP2 MSTORE PUSH1 0x20 DUP2 ADD DUP5 DUP5 DUP5 ADD GT ISZERO PUSH2 0x4282 JUMPI PUSH2 0x4281 PUSH2 0x5976 JUMP JUMPDEST JUMPDEST PUSH2 0x428D DUP5 DUP3 DUP6 PUSH2 0x5795 JUMP JUMPDEST POP SWAP4 SWAP3 POP POP POP JUMP JUMPDEST PUSH1 0x0 DUP2 CALLDATALOAD SWAP1 POP PUSH2 0x42A4 DUP2 PUSH2 0x6092 JUMP JUMPDEST SWAP3 SWAP2 POP POP JUMP JUMPDEST PUSH1 0x0 DUP2 MLOAD SWAP1 POP PUSH2 0x42B9 DUP2 PUSH2 0x6092 JUMP JUMPDEST SWAP3 SWAP2 POP POP JUMP JUMPDEST PUSH1 0x0 DUP2 MLOAD SWAP1 POP PUSH2 0x42CE DUP2 PUSH2 0x60A9 JUMP JUMPDEST SWAP3 SWAP2 POP POP JUMP JUMPDEST PUSH1 0x0 DUP3 PUSH1 0x1F DUP4 ADD SLT PUSH2 0x42E9 JUMPI PUSH2 0x42E8 PUSH2 0x5971 JUMP JUMPDEST JUMPDEST DUP2 CALLDATALOAD PUSH2 0x42F9 DUP5 DUP3 PUSH1 0x20 DUP7 ADD PUSH2 0x4253 JUMP JUMPDEST SWAP2 POP POP SWAP3 SWAP2 POP POP JUMP JUMPDEST PUSH1 0x0 DUP2 CALLDATALOAD SWAP1 POP PUSH2 0x4311 DUP2 PUSH2 0x60C0 JUMP JUMPDEST SWAP3 SWAP2 POP POP JUMP JUMPDEST PUSH1 0x0 DUP2 MLOAD SWAP1 POP PUSH2 0x4326 DUP2 PUSH2 0x60C0 JUMP JUMPDEST SWAP3 SWAP2 POP POP JUMP JUMPDEST PUSH1 0x0 PUSH1 0x20 DUP3 DUP5 SUB SLT ISZERO PUSH2 0x4342 JUMPI PUSH2 0x4341 PUSH2 0x5980 JUMP JUMPDEST JUMPDEST PUSH1 0x0 PUSH2 0x4350 DUP5 DUP3 DUP6 ADD PUSH2 0x4295 JUMP JUMPDEST SWAP2 POP POP SWAP3 SWAP2 POP POP JUMP JUMPDEST PUSH1 0x0 PUSH1 0x20 DUP3 DUP5 SUB SLT ISZERO PUSH2 0x436F JUMPI PUSH2 0x436E PUSH2 0x5980 JUMP JUMPDEST JUMPDEST PUSH1 0x0 PUSH2 0x437D DUP5 DUP3 DUP6 ADD PUSH2 0x42AA JUMP JUMPDEST SWAP2 POP POP SWAP3 SWAP2 POP POP JUMP JUMPDEST PUSH1 0x0 DUP1 PUSH1 0x40 DUP4 DUP6 SUB SLT ISZERO PUSH2 0x439D JUMPI PUSH2 0x439C PUSH2 0x5980 JUMP JUMPDEST JUMPDEST PUSH1 0x0 PUSH2 0x43AB DUP6 DUP3 DUP7 ADD PUSH2 0x4295 JUMP JUMPDEST SWAP3 POP POP PUSH1 0x20 DUP4 ADD CALLDATALOAD PUSH8 0xFFFFFFFFFFFFFFFF DUP2 GT ISZERO PUSH2 0x43CC JUMPI PUSH2 0x43CB PUSH2 0x597B JUMP JUMPDEST JUMPDEST PUSH2 0x43D8 DUP6 DUP3 DUP7 ADD PUSH2 0x42D4 JUMP JUMPDEST SWAP2 POP POP SWAP3 POP SWAP3 SWAP1 POP JUMP JUMPDEST PUSH1 0x0 PUSH1 0x20 DUP3 DUP5 SUB SLT ISZERO PUSH2 0x43F8 JUMPI PUSH2 0x43F7 PUSH2 0x5980 JUMP JUMPDEST JUMPDEST PUSH1 0x0 PUSH2 0x4406 DUP5 DUP3 DUP6 ADD PUSH2 0x42BF JUMP JUMPDEST SWAP2 POP POP SWAP3 SWAP2 POP POP JUMP JUMPDEST PUSH1 0x0 PUSH1 0x20 DUP3 DUP5 SUB SLT ISZERO PUSH2 0x4425 JUMPI PUSH2 0x4424 PUSH2 0x5980 JUMP JUMPDEST JUMPDEST PUSH1 0x0 DUP3 ADD CALLDATALOAD PUSH8 0xFFFFFFFFFFFFFFFF DUP2 GT ISZERO PUSH2 0x4443 JUMPI PUSH2 0x4442 PUSH2 0x597B JUMP JUMPDEST JUMPDEST PUSH2 0x444F DUP5 DUP3 DUP6 ADD PUSH2 0x42D4 JUMP JUMPDEST SWAP2 POP POP SWAP3 SWAP2 POP POP JUMP JUMPDEST PUSH1 0x0 PUSH1 0x20 DUP3 DUP5 SUB SLT ISZERO PUSH2 0x446E JUMPI PUSH2 0x446D PUSH2 0x5980 JUMP JUMPDEST JUMPDEST PUSH1 0x0 PUSH2 0x447C DUP5 DUP3 DUP6 ADD PUSH2 0x4302 JUMP JUMPDEST SWAP2 POP POP SWAP3 SWAP2 POP POP JUMP JUMPDEST PUSH1 0x0 PUSH1 0x20 DUP3 DUP5 SUB SLT ISZERO PUSH2 0x449B JUMPI PUSH2 0x449A PUSH2 0x5980 JUMP JUMPDEST JUMPDEST PUSH1 0x0 PUSH2 0x44A9 DUP5 DUP3 DUP6 ADD PUSH2 0x4317 JUMP JUMPDEST SWAP2 POP POP SWAP3 SWAP2 POP POP JUMP JUMPDEST PUSH2 0x44BB DUP2 PUSH2 0x5679 JUMP JUMPDEST DUP3 MSTORE POP POP JUMP JUMPDEST PUSH2 0x44CA DUP2 PUSH2 0x5679 JUMP JUMPDEST DUP3 MSTORE POP POP JUMP JUMPDEST PUSH2 0x44D9 DUP2 PUSH2 0x568B JUMP JUMPDEST DUP3 MSTORE POP POP JUMP JUMPDEST PUSH2 0x44E8 DUP2 PUSH2 0x568B JUMP JUMPDEST DUP3 MSTORE POP POP JUMP JUMPDEST PUSH2 0x44F7 DUP2 PUSH2 0x56E1 JUMP JUMPDEST DUP3 MSTORE POP POP JUMP JUMPDEST PUSH2 0x4506 DUP2 PUSH2 0x56F3 JUMP JUMPDEST DUP3 MSTORE POP POP JUMP JUMPDEST PUSH2 0x4515 DUP2 PUSH2 0x5705 JUMP JUMPDEST DUP3 MSTORE POP POP JUMP JUMPDEST PUSH2 0x4524 DUP2 PUSH2 0x5717 JUMP JUMPDEST DUP3 MSTORE POP POP JUMP JUMPDEST PUSH2 0x4533 DUP2 PUSH2 0x5729 JUMP JUMPDEST DUP3 MSTORE POP POP JUMP JUMPDEST PUSH2 0x4542 DUP2 PUSH2 0x573B JUMP JUMPDEST DUP3 MSTORE POP POP JUMP JUMPDEST PUSH2 0x4551 DUP2 PUSH2 0x574D JUMP JUMPDEST DUP3 MSTORE POP POP JUMP JUMPDEST PUSH2 0x4560 DUP2 PUSH2 0x575F JUMP JUMPDEST DUP3 MSTORE POP POP JUMP JUMPDEST PUSH2 0x456F DUP2 PUSH2 0x5771 JUMP JUMPDEST DUP3 MSTORE POP POP JUMP JUMPDEST PUSH1 0x0 PUSH2 0x4580 DUP3 PUSH2 0x55D9 JUMP JUMPDEST PUSH2 0x458A DUP2 DUP6 PUSH2 0x55E4 JUMP JUMPDEST SWAP4 POP PUSH2 0x459A DUP2 DUP6 PUSH1 0x20 DUP7 ADD PUSH2 0x57A4 JUMP JUMPDEST PUSH2 0x45A3 DUP2 PUSH2 0x5985 JUMP JUMPDEST DUP5 ADD SWAP2 POP POP SWAP3 SWAP2 POP POP JUMP JUMPDEST PUSH1 0x0 PUSH2 0x45B9 DUP3 PUSH2 0x55D9 JUMP JUMPDEST PUSH2 0x45C3 DUP2 DUP6 PUSH2 0x55F5 JUMP JUMPDEST SWAP4 POP PUSH2 0x45D3 DUP2 DUP6 PUSH1 0x20 DUP7 ADD PUSH2 0x57A4 JUMP JUMPDEST PUSH2 0x45DC DUP2 PUSH2 0x5985 JUMP JUMPDEST DUP5 ADD SWAP2 POP POP SWAP3 SWAP2 POP POP JUMP JUMPDEST PUSH1 0x0 PUSH2 0x45F2 DUP3 PUSH2 0x55D9 JUMP JUMPDEST PUSH2 0x45FC DUP2 DUP6 PUSH2 0x5606 JUMP JUMPDEST SWAP4 POP PUSH2 0x460C DUP2 DUP6 PUSH1 0x20 DUP7 ADD PUSH2 0x57A4 JUMP JUMPDEST DUP1 DUP5 ADD SWAP2 POP POP SWAP3 SWAP2 POP POP JUMP JUMPDEST PUSH1 0x0 DUP2 SLOAD PUSH2 0x4625 DUP2 PUSH2 0x57D7 JUMP JUMPDEST PUSH2 0x462F DUP2 DUP7 PUSH2 0x55F5 JUMP JUMPDEST SWAP5 POP PUSH1 0x1 DUP3 AND PUSH1 0x0 DUP2 EQ PUSH2 0x464A JUMPI PUSH1 0x1 DUP2 EQ PUSH2 0x465C JUMPI PUSH2 0x468F JUMP JUMPDEST PUSH1 0xFF NOT DUP4 AND DUP7 MSTORE PUSH1 0x20 DUP7 ADD SWAP4 POP PUSH2 0x468F JUMP JUMPDEST PUSH2 0x4665 DUP6 PUSH2 0x55C4 JUMP JUMPDEST PUSH1 0x0 JUMPDEST DUP4 DUP2 LT ISZERO PUSH2 0x4687 JUMPI DUP2 SLOAD DUP2 DUP10 ADD MSTORE PUSH1 0x1 DUP3 ADD SWAP2 POP PUSH1 0x20 DUP2 ADD SWAP1 POP PUSH2 0x4668 JUMP JUMPDEST DUP1 DUP9 ADD SWAP6 POP POP POP JUMPDEST POP POP POP SWAP3 SWAP2 POP POP JUMP JUMPDEST PUSH1 0x0 DUP2 SLOAD PUSH2 0x46A5 DUP2 PUSH2 0x57D7 JUMP JUMPDEST PUSH2 0x46AF DUP2 DUP7 PUSH2 0x5606 JUMP JUMPDEST SWAP5 POP PUSH1 0x1 DUP3 AND PUSH1 0x0 DUP2 EQ PUSH2 0x46CA JUMPI PUSH1 0x1 DUP2 EQ PUSH2 0x46DB JUMPI PUSH2 0x470E JUMP JUMPDEST PUSH1 0xFF NOT DUP4 AND DUP7 MSTORE DUP2 DUP7 ADD SWAP4 POP PUSH2 0x470E JUMP JUMPDEST PUSH2 0x46E4 DUP6 PUSH2 0x55C4 JUMP JUMPDEST PUSH1 0x0 JUMPDEST DUP4 DUP2 LT ISZERO PUSH2 0x4706 JUMPI DUP2 SLOAD DUP2 DUP10 ADD MSTORE PUSH1 0x1 DUP3 ADD SWAP2 POP PUSH1 0x20 DUP2 ADD SWAP1 POP PUSH2 0x46E7 JUMP JUMPDEST DUP4 DUP9 ADD SWAP6 POP POP POP JUMPDEST POP POP POP SWAP3 SWAP2 POP POP JUMP JUMPDEST PUSH1 0x0 PUSH2 0x4724 PUSH1 0x13 DUP4 PUSH2 0x55F5 JUMP JUMPDEST SWAP2 POP PUSH2 0x472F DUP3 PUSH2 0x59A3 JUMP JUMPDEST PUSH1 0x20 DUP3 ADD SWAP1 POP SWAP2 SWAP1 POP JUMP JUMPDEST PUSH1 0x0 PUSH2 0x4747 PUSH1 0x26 DUP4 PUSH2 0x55E4 JUMP JUMPDEST SWAP2 POP PUSH2 0x4752 DUP3 PUSH2 0x59CC JUMP JUMPDEST PUSH1 0x40 DUP3 ADD SWAP1 POP SWAP2 SWAP1 POP JUMP JUMPDEST PUSH1 0x0 PUSH2 0x476A PUSH1 0x1D DUP4 PUSH2 0x55F5 JUMP JUMPDEST SWAP2 POP PUSH2 0x4775 DUP3 PUSH2 0x5A1B JUMP JUMPDEST PUSH1 0x20 DUP3 ADD SWAP1 POP SWAP2 SWAP1 POP JUMP JUMPDEST PUSH1 0x0 PUSH2 0x478D PUSH1 0x13 DUP4 PUSH2 0x55E4 JUMP JUMPDEST SWAP2 POP PUSH2 0x4798 DUP3 PUSH2 0x5A44 JUMP JUMPDEST PUSH1 0x20 DUP3 ADD SWAP1 POP SWAP2 SWAP1 POP JUMP JUMPDEST PUSH1 0x0 PUSH2 0x47B0 PUSH1 0x13 DUP4 PUSH2 0x55F5 JUMP JUMPDEST SWAP2 POP PUSH2 0x47BB DUP3 PUSH2 0x5A44 JUMP JUMPDEST PUSH1 0x20 DUP3 ADD SWAP1 POP SWAP2 SWAP1 POP JUMP JUMPDEST PUSH1 0x0 PUSH2 0x47D3 PUSH1 0x1C DUP4 PUSH2 0x55F5 JUMP JUMPDEST SWAP2 POP PUSH2 0x47DE DUP3 PUSH2 0x5A6D JUMP JUMPDEST PUSH1 0x20 DUP3 ADD SWAP1 POP SWAP2 SWAP1 POP JUMP JUMPDEST PUSH1 0x0 PUSH2 0x47F6 PUSH1 0x8 DUP4 PUSH2 0x55E4 JUMP JUMPDEST SWAP2 POP PUSH2 0x4801 DUP3 PUSH2 0x5A96 JUMP JUMPDEST PUSH1 0x20 DUP3 ADD SWAP1 POP SWAP2 SWAP1 POP JUMP JUMPDEST PUSH1 0x0 PUSH2 0x4819 PUSH1 0x8 DUP4 PUSH2 0x55F5 JUMP JUMPDEST SWAP2 POP PUSH2 0x4824 DUP3 PUSH2 0x5A96 JUMP JUMPDEST PUSH1 0x20 DUP3 ADD SWAP1 POP SWAP2 SWAP1 POP JUMP JUMPDEST PUSH1 0x0 PUSH2 0x483C PUSH1 0x14 DUP4 PUSH2 0x55F5 JUMP JUMPDEST SWAP2 POP PUSH2 0x4847 DUP3 PUSH2 0x5ABF JUMP JUMPDEST PUSH1 0x20 DUP3 ADD SWAP1 POP SWAP2 SWAP1 POP JUMP JUMPDEST PUSH1 0x0 PUSH2 0x485F PUSH1 0x14 DUP4 PUSH2 0x55F5 JUMP JUMPDEST SWAP2 POP PUSH2 0x486A DUP3 PUSH2 0x5AE8 JUMP JUMPDEST PUSH1 0x20 DUP3 ADD SWAP1 POP SWAP2 SWAP1 POP JUMP JUMPDEST PUSH1 0x0 PUSH2 0x4882 PUSH1 0x14 DUP4 PUSH2 0x55F5 JUMP JUMPDEST SWAP2 POP PUSH2 0x488D DUP3 PUSH2 0x5B11 JUMP JUMPDEST PUSH1 0x20 DUP3 ADD SWAP1 POP SWAP2 SWAP1 POP JUMP JUMPDEST PUSH1 0x0 PUSH2 0x48A5 PUSH1 0x29 DUP4 PUSH2 0x55F5 JUMP JUMPDEST SWAP2 POP PUSH2 0x48B0 DUP3 PUSH2 0x5B3A JUMP JUMPDEST PUSH1 0x40 DUP3 ADD SWAP1 POP SWAP2 SWAP1 POP JUMP JUMPDEST PUSH1 0x0 PUSH2 0x48C8 PUSH1 0x11 DUP4 PUSH2 0x55F5 JUMP JUMPDEST SWAP2 POP PUSH2 0x48D3 DUP3 PUSH2 0x5B89 JUMP JUMPDEST PUSH1 0x20 DUP3 ADD SWAP1 POP SWAP2 SWAP1 POP JUMP JUMPDEST PUSH1 0x0 PUSH2 0x48EB PUSH1 0x14 DUP4 PUSH2 0x55E4 JUMP JUMPDEST SWAP2 POP PUSH2 0x48F6 DUP3 PUSH2 0x5BB2 JUMP JUMPDEST PUSH1 0x20 DUP3 ADD SWAP1 POP SWAP2 SWAP1 POP JUMP JUMPDEST PUSH1 0x0 PUSH2 0x490E PUSH1 0x29 DUP4 PUSH2 0x55E4 JUMP JUMPDEST SWAP2 POP PUSH2 0x4919 DUP3 PUSH2 0x5BDB JUMP JUMPDEST PUSH1 0x40 DUP3 ADD SWAP1 POP SWAP2 SWAP1 POP JUMP JUMPDEST PUSH1 0x0 PUSH2 0x4931 PUSH1 0x29 DUP4 PUSH2 0x55F5 JUMP JUMPDEST SWAP2 POP PUSH2 0x493C DUP3 PUSH2 0x5BDB JUMP JUMPDEST PUSH1 0x40 DUP3 ADD SWAP1 POP SWAP2 SWAP1 POP JUMP JUMPDEST PUSH1 0x0 PUSH2 0x4954 PUSH1 0x16 DUP4 PUSH2 0x55E4 JUMP JUMPDEST SWAP2 POP PUSH2 0x495F DUP3 PUSH2 0x5C2A JUMP JUMPDEST PUSH1 0x20 DUP3 ADD SWAP1 POP SWAP2 SWAP1 POP JUMP JUMPDEST PUSH1 0x0 PUSH2 0x4977 PUSH1 0x16 DUP4 PUSH2 0x55F5 JUMP JUMPDEST SWAP2 POP PUSH2 0x4982 DUP3 PUSH2 0x5C2A JUMP JUMPDEST PUSH1 0x20 DUP3 ADD SWAP1 POP SWAP2 SWAP1 POP JUMP JUMPDEST PUSH1 0x0 PUSH2 0x499A PUSH1 0x17 DUP4 PUSH2 0x55F5 JUMP JUMPDEST SWAP2 POP PUSH2 0x49A5 DUP3 PUSH2 0x5C53 JUMP JUMPDEST PUSH1 0x20 DUP3 ADD SWAP1 POP SWAP2 SWAP1 POP JUMP JUMPDEST PUSH1 0x0 PUSH2 0x49BD PUSH1 0x21 DUP4 PUSH2 0x55F5 JUMP JUMPDEST SWAP2 POP PUSH2 0x49C8 DUP3 PUSH2 0x5C7C JUMP JUMPDEST PUSH1 0x40 DUP3 ADD SWAP1 POP SWAP2 SWAP1 POP JUMP JUMPDEST PUSH1 0x0 PUSH2 0x49E0 PUSH1 0x22 DUP4 PUSH2 0x55F5 JUMP JUMPDEST SWAP2 POP PUSH2 0x49EB DUP3 PUSH2 0x5CCB JUMP JUMPDEST PUSH1 0x40 DUP3 ADD SWAP1 POP SWAP2 SWAP1 POP JUMP JUMPDEST PUSH1 0x0 PUSH2 0x4A03 PUSH1 0x31 DUP4 PUSH2 0x55F5 JUMP JUMPDEST SWAP2 POP PUSH2 0x4A0E DUP3 PUSH2 0x5D1A JUMP JUMPDEST PUSH1 0x40 DUP3 ADD SWAP1 POP SWAP2 SWAP1 POP JUMP JUMPDEST PUSH1 0x0 PUSH2 0x4A26 PUSH1 0x1C DUP4 PUSH2 0x55F5 JUMP JUMPDEST SWAP2 POP PUSH2 0x4A31 DUP3 PUSH2 0x5D69 JUMP JUMPDEST PUSH1 0x20 DUP3 ADD SWAP1 POP SWAP2 SWAP1 POP JUMP JUMPDEST PUSH1 0x0 PUSH2 0x4A49 PUSH1 0x14 DUP4 PUSH2 0x55F5 JUMP JUMPDEST SWAP2 POP PUSH2 0x4A54 DUP3 PUSH2 0x5D92 JUMP JUMPDEST PUSH1 0x20 DUP3 ADD SWAP1 POP SWAP2 SWAP1 POP JUMP JUMPDEST PUSH1 0x0 PUSH2 0x4A6C PUSH1 0x5 DUP4 PUSH2 0x55E4 JUMP JUMPDEST SWAP2 POP PUSH2 0x4A77 DUP3 PUSH2 0x5DBB JUMP JUMPDEST PUSH1 0x20 DUP3 ADD SWAP1 POP SWAP2 SWAP1 POP JUMP JUMPDEST PUSH1 0x0 PUSH2 0x4A8F PUSH1 0x23 DUP4 PUSH2 0x55E4 JUMP JUMPDEST SWAP2 POP PUSH2 0x4A9A DUP3 PUSH2 0x5DE4 JUMP JUMPDEST PUSH1 0x40 DUP3 ADD SWAP1 POP SWAP2 SWAP1 POP JUMP JUMPDEST PUSH1 0x0 PUSH2 0x4AB2 PUSH1 0x23 DUP4 PUSH2 0x55F5 JUMP JUMPDEST SWAP2 POP PUSH2 0x4ABD DUP3 PUSH2 0x5DE4 JUMP JUMPDEST PUSH1 0x40 DUP3 ADD SWAP1 POP SWAP2 SWAP1 POP JUMP JUMPDEST PUSH1 0x0 PUSH2 0x4AD5 PUSH1 0x26 DUP4 PUSH2 0x55F5 JUMP JUMPDEST SWAP2 POP PUSH2 0x4AE0 DUP3 PUSH2 0x5E33 JUMP JUMPDEST PUSH1 0x40 DUP3 ADD SWAP1 POP SWAP2 SWAP1 POP JUMP JUMPDEST PUSH1 0x0 PUSH2 0x4AF8 PUSH1 0x1D DUP4 PUSH2 0x55F5 JUMP JUMPDEST SWAP2 POP PUSH2 0x4B03 DUP3 PUSH2 0x5E82 JUMP JUMPDEST PUSH1 0x20 DUP3 ADD SWAP1 POP SWAP2 SWAP1 POP JUMP JUMPDEST PUSH1 0x0 PUSH2 0x4B1B PUSH1 0xB DUP4 PUSH2 0x55E4 JUMP JUMPDEST SWAP2 POP PUSH2 0x4B26 DUP3 PUSH2 0x5EAB JUMP JUMPDEST PUSH1 0x20 DUP3 ADD SWAP1 POP SWAP2 SWAP1 POP JUMP JUMPDEST PUSH1 0x0 PUSH2 0x4B3E PUSH1 0x1D DUP4 PUSH2 0x55F5 JUMP JUMPDEST SWAP2 POP PUSH2 0x4B49 DUP3 PUSH2 0x5ED4 JUMP JUMPDEST PUSH1 0x20 DUP3 ADD SWAP1 POP SWAP2 SWAP1 POP JUMP JUMPDEST PUSH1 0x0 PUSH2 0x4B61 PUSH1 0x1A DUP4 PUSH2 0x55E4 JUMP JUMPDEST SWAP2 POP PUSH2 0x4B6C DUP3 PUSH2 0x5EFD JUMP JUMPDEST PUSH1 0x20 DUP3 ADD SWAP1 POP SWAP2 SWAP1 POP JUMP JUMPDEST PUSH1 0x0 PUSH2 0x4B84 PUSH1 0x1A DUP4 PUSH2 0x55F5 JUMP JUMPDEST SWAP2 POP PUSH2 0x4B8F DUP3 PUSH2 0x5EFD JUMP JUMPDEST PUSH1 0x20 DUP3 ADD SWAP1 POP SWAP2 SWAP1 POP JUMP JUMPDEST PUSH1 0x0 PUSH2 0x4BA7 PUSH1 0x34 DUP4 PUSH2 0x55F5 JUMP JUMPDEST SWAP2 POP PUSH2 0x4BB2 DUP3 PUSH2 0x5F26 JUMP JUMPDEST PUSH1 0x40 DUP3 ADD SWAP1 POP SWAP2 SWAP1 POP JUMP JUMPDEST PUSH1 0x0 PUSH2 0x4BCA PUSH1 0x16 DUP4 PUSH2 0x55F5 JUMP JUMPDEST SWAP2 POP PUSH2 0x4BD5 DUP3 PUSH2 0x5F75 JUMP JUMPDEST PUSH1 0x20 DUP3 ADD SWAP1 POP SWAP2 SWAP1 POP JUMP JUMPDEST PUSH1 0x0 PUSH2 0x4BED PUSH1 0x7 DUP4 PUSH2 0x55E4 JUMP JUMPDEST SWAP2 POP PUSH2 0x4BF8 DUP3 PUSH2 0x5F9E JUMP JUMPDEST PUSH1 0x20 DUP3 ADD SWAP1 POP SWAP2 SWAP1 POP JUMP JUMPDEST PUSH2 0x4C0C DUP2 PUSH2 0x56CA JUMP JUMPDEST DUP3 MSTORE POP POP JUMP JUMPDEST PUSH2 0x4C1B DUP2 PUSH2 0x5783 JUMP JUMPDEST DUP3 MSTORE POP POP JUMP JUMPDEST PUSH2 0x4C2A DUP2 PUSH2 0x56D4 JUMP JUMPDEST DUP3 MSTORE POP POP JUMP JUMPDEST PUSH1 0x0 PUSH2 0x4C3C DUP3 DUP5 PUSH2 0x45E7 JUMP JUMPDEST SWAP2 POP DUP2 SWAP1 POP SWAP3 SWAP2 POP POP JUMP JUMPDEST PUSH1 0x0 PUSH2 0x4C53 DUP3 DUP5 PUSH2 0x4698 JUMP JUMPDEST SWAP2 POP DUP2 SWAP1 POP SWAP3 SWAP2 POP POP JUMP JUMPDEST PUSH1 0x0 PUSH1 0x20 DUP3 ADD SWAP1 POP PUSH2 0x4C73 PUSH1 0x0 DUP4 ADD DUP5 PUSH2 0x44B2 JUMP JUMPDEST SWAP3 SWAP2 POP POP JUMP JUMPDEST PUSH1 0x0 PUSH1 0x60 DUP3 ADD SWAP1 POP PUSH2 0x4C8E PUSH1 0x0 DUP4 ADD DUP6 PUSH2 0x44C1 JUMP JUMPDEST PUSH2 0x4C9B PUSH1 0x20 DUP4 ADD DUP5 PUSH2 0x44C1 JUMP JUMPDEST DUP2 DUP2 SUB PUSH1 0x40 DUP4 ADD MSTORE PUSH2 0x4CAC DUP2 PUSH2 0x4BBD JUMP JUMPDEST SWAP1 POP SWAP4 SWAP3 POP POP POP JUMP JUMPDEST PUSH1 0x0 PUSH1 0x40 DUP3 ADD SWAP1 POP PUSH2 0x4CCA PUSH1 0x0 DUP4 ADD DUP5 PUSH2 0x44B2 JUMP JUMPDEST DUP2 DUP2 SUB PUSH1 0x20 DUP4 ADD MSTORE PUSH2 0x4CDB DUP2 PUSH2 0x4A5F JUMP JUMPDEST SWAP1 POP SWAP3 SWAP2 POP POP JUMP JUMPDEST PUSH1 0x0 PUSH1 0x40 DUP3 ADD SWAP1 POP PUSH2 0x4CF8 PUSH1 0x0 DUP4 ADD DUP5 PUSH2 0x44B2 JUMP JUMPDEST DUP2 DUP2 SUB PUSH1 0x20 DUP4 ADD MSTORE PUSH2 0x4D09 DUP2 PUSH2 0x4BE0 JUMP JUMPDEST SWAP1 POP SWAP3 SWAP2 POP POP JUMP JUMPDEST PUSH1 0x0 PUSH1 0x40 DUP3 ADD SWAP1 POP PUSH2 0x4D26 PUSH1 0x0 DUP4 ADD DUP6 PUSH2 0x44B2 JUMP JUMPDEST PUSH2 0x4D33 PUSH1 0x20 DUP4 ADD DUP5 PUSH2 0x4C21 JUMP JUMPDEST SWAP4 SWAP3 POP POP POP JUMP JUMPDEST PUSH1 0x0 PUSH1 0x20 DUP3 ADD SWAP1 POP PUSH2 0x4D4F PUSH1 0x0 DUP4 ADD DUP5 PUSH2 0x44D0 JUMP JUMPDEST SWAP3 SWAP2 POP POP JUMP JUMPDEST PUSH1 0x0 PUSH1 0x60 DUP3 ADD SWAP1 POP PUSH2 0x4D6A PUSH1 0x0 DUP4 ADD DUP6 PUSH2 0x44DF JUMP JUMPDEST PUSH2 0x4D77 PUSH1 0x20 DUP4 ADD DUP5 PUSH2 0x44DF JUMP JUMPDEST DUP2 DUP2 SUB PUSH1 0x40 DUP4 ADD MSTORE PUSH2 0x4D88 DUP2 PUSH2 0x49F6 JUMP JUMPDEST SWAP1 POP SWAP4 SWAP3 POP POP POP JUMP JUMPDEST PUSH1 0x0 PUSH1 0x60 DUP3 ADD SWAP1 POP PUSH2 0x4DA6 PUSH1 0x0 DUP4 ADD DUP6 PUSH2 0x44DF JUMP JUMPDEST PUSH2 0x4DB3 PUSH1 0x20 DUP4 ADD DUP5 PUSH2 0x44DF JUMP JUMPDEST DUP2 DUP2 SUB PUSH1 0x40 DUP4 ADD MSTORE PUSH2 0x4DC4 DUP2 PUSH2 0x4AEB JUMP JUMPDEST SWAP1 POP SWAP4 SWAP3 POP POP POP JUMP JUMPDEST PUSH1 0x0 PUSH1 0x60 DUP3 ADD SWAP1 POP PUSH2 0x4DE2 PUSH1 0x0 DUP4 ADD DUP6 PUSH2 0x44DF JUMP JUMPDEST PUSH2 0x4DEF PUSH1 0x20 DUP4 ADD DUP5 PUSH2 0x44DF JUMP JUMPDEST DUP2 DUP2 SUB PUSH1 0x40 DUP4 ADD MSTORE PUSH2 0x4E00 DUP2 PUSH2 0x4B31 JUMP JUMPDEST SWAP1 POP SWAP4 SWAP3 POP POP POP JUMP JUMPDEST PUSH1 0x0 PUSH1 0x60 DUP3 ADD SWAP1 POP PUSH2 0x4E1E PUSH1 0x0 DUP4 ADD DUP6 PUSH2 0x44DF JUMP JUMPDEST PUSH2 0x4E2B PUSH1 0x20 DUP4 ADD DUP5 PUSH2 0x44DF JUMP JUMPDEST DUP2 DUP2 SUB PUSH1 0x40 DUP4 ADD MSTORE PUSH2 0x4E3C DUP2 PUSH2 0x4B9A JUMP JUMPDEST SWAP1 POP SWAP4 SWAP3 POP POP POP JUMP JUMPDEST PUSH1 0x0 PUSH1 0x40 DUP3 ADD SWAP1 POP PUSH2 0x4E5A PUSH1 0x0 DUP4 ADD DUP5 PUSH2 0x44DF JUMP JUMPDEST DUP2 DUP2 SUB PUSH1 0x20 DUP4 ADD MSTORE PUSH2 0x4E6B DUP2 PUSH2 0x4717 JUMP JUMPDEST SWAP1 POP SWAP3 SWAP2 POP POP JUMP JUMPDEST PUSH1 0x0 PUSH1 0x40 DUP3 ADD SWAP1 POP PUSH2 0x4E88 PUSH1 0x0 DUP4 ADD DUP5 PUSH2 0x44DF JUMP JUMPDEST DUP2 DUP2 SUB PUSH1 0x20 DUP4 ADD MSTORE PUSH2 0x4E99 DUP2 PUSH2 0x47C6 JUMP JUMPDEST SWAP1 POP SWAP3 SWAP2 POP POP JUMP JUMPDEST PUSH1 0x0 PUSH1 0x40 DUP3 ADD SWAP1 POP PUSH2 0x4EB6 PUSH1 0x0 DUP4 ADD DUP5 PUSH2 0x44DF JUMP JUMPDEST DUP2 DUP2 SUB PUSH1 0x20 DUP4 ADD MSTORE PUSH2 0x4EC7 DUP2 PUSH2 0x4898 JUMP JUMPDEST SWAP1 POP SWAP3 SWAP2 POP POP JUMP JUMPDEST PUSH1 0x0 PUSH1 0x40 DUP3 ADD SWAP1 POP PUSH2 0x4EE4 PUSH1 0x0 DUP4 ADD DUP5 PUSH2 0x44DF JUMP JUMPDEST DUP2 DUP2 SUB PUSH1 0x20 DUP4 ADD MSTORE PUSH2 0x4EF5 DUP2 PUSH2 0x48BB JUMP JUMPDEST SWAP1 POP SWAP3 SWAP2 POP POP JUMP JUMPDEST PUSH1 0x0 PUSH1 0x40 DUP3 ADD SWAP1 POP PUSH2 0x4F12 PUSH1 0x0 DUP4 ADD DUP5 PUSH2 0x44DF JUMP JUMPDEST DUP2 DUP2 SUB PUSH1 0x20 DUP4 ADD MSTORE PUSH2 0x4F23 DUP2 PUSH2 0x49B0 JUMP JUMPDEST SWAP1 POP SWAP3 SWAP2 POP POP JUMP JUMPDEST PUSH1 0x0 PUSH1 0x40 DUP3 ADD SWAP1 POP PUSH2 0x4F40 PUSH1 0x0 DUP4 ADD DUP5 PUSH2 0x44DF JUMP JUMPDEST DUP2 DUP2 SUB PUSH1 0x20 DUP4 ADD MSTORE PUSH2 0x4F51 DUP2 PUSH2 0x49D3 JUMP JUMPDEST SWAP1 POP SWAP3 SWAP2 POP POP JUMP JUMPDEST PUSH1 0x0 PUSH1 0x40 DUP3 ADD SWAP1 POP PUSH2 0x4F6E PUSH1 0x0 DUP4 ADD DUP5 PUSH2 0x44DF JUMP JUMPDEST DUP2 DUP2 SUB PUSH1 0x20 DUP4 ADD MSTORE PUSH2 0x4F7F DUP2 PUSH2 0x4A19 JUMP JUMPDEST SWAP1 POP SWAP3 SWAP2 POP POP JUMP JUMPDEST PUSH1 0x0 PUSH1 0x40 DUP3 ADD SWAP1 POP PUSH2 0x4F9C PUSH1 0x0 DUP4 ADD DUP5 PUSH2 0x44DF JUMP JUMPDEST DUP2 DUP2 SUB PUSH1 0x20 DUP4 ADD MSTORE PUSH2 0x4FAD DUP2 PUSH2 0x4B31 JUMP JUMPDEST SWAP1 POP SWAP3 SWAP2 POP POP JUMP JUMPDEST PUSH1 0x0 PUSH1 0x20 DUP3 ADD SWAP1 POP PUSH2 0x4FCA PUSH1 0x0 DUP4 ADD DUP5 PUSH2 0x44EE JUMP JUMPDEST SWAP3 SWAP2 POP POP JUMP JUMPDEST PUSH1 0x0 PUSH1 0x20 DUP3 ADD SWAP1 POP PUSH2 0x4FE5 PUSH1 0x0 DUP4 ADD DUP5 PUSH2 0x44FD JUMP JUMPDEST SWAP3 SWAP2 POP POP JUMP JUMPDEST PUSH1 0x0 PUSH1 0x20 DUP3 ADD SWAP1 POP PUSH2 0x5000 PUSH1 0x0 DUP4 ADD DUP5 PUSH2 0x450C JUMP JUMPDEST SWAP3 SWAP2 POP POP JUMP JUMPDEST PUSH1 0x0 PUSH1 0x20 DUP3 ADD SWAP1 POP PUSH2 0x501B PUSH1 0x0 DUP4 ADD DUP5 PUSH2 0x451B JUMP JUMPDEST SWAP3 SWAP2 POP POP JUMP JUMPDEST PUSH1 0x0 PUSH1 0x20 DUP3 ADD SWAP1 POP PUSH2 0x5036 PUSH1 0x0 DUP4 ADD DUP5 PUSH2 0x452A JUMP JUMPDEST SWAP3 SWAP2 POP POP JUMP JUMPDEST PUSH1 0x0 PUSH1 0x20 DUP3 ADD SWAP1 POP PUSH2 0x5051 PUSH1 0x0 DUP4 ADD DUP5 PUSH2 0x4539 JUMP JUMPDEST SWAP3 SWAP2 POP POP JUMP JUMPDEST PUSH1 0x0 PUSH1 0x20 DUP3 ADD SWAP1 POP PUSH2 0x506C PUSH1 0x0 DUP4 ADD DUP5 PUSH2 0x4548 JUMP JUMPDEST SWAP3 SWAP2 POP POP JUMP JUMPDEST PUSH1 0x0 PUSH1 0x20 DUP3 ADD SWAP1 POP PUSH2 0x5087 PUSH1 0x0 DUP4 ADD DUP5 PUSH2 0x4557 JUMP JUMPDEST SWAP3 SWAP2 POP POP JUMP JUMPDEST PUSH1 0x0 PUSH1 0x20 DUP3 ADD SWAP1 POP DUP2 DUP2 SUB PUSH1 0x0 DUP4 ADD MSTORE PUSH2 0x50A7 DUP2 DUP5 PUSH2 0x4575 JUMP JUMPDEST SWAP1 POP SWAP3 SWAP2 POP POP JUMP JUMPDEST PUSH1 0x0 PUSH1 0x40 DUP3 ADD SWAP1 POP DUP2 DUP2 SUB PUSH1 0x0 DUP4 ADD MSTORE PUSH2 0x50C9 DUP2 DUP6 PUSH2 0x4575 JUMP JUMPDEST SWAP1 POP PUSH2 0x50D8 PUSH1 0x20 DUP4 ADD DUP5 PUSH2 0x44D0 JUMP JUMPDEST SWAP4 SWAP3 POP POP POP JUMP JUMPDEST PUSH1 0x0 PUSH1 0x60 DUP3 ADD SWAP1 POP DUP2 DUP2 SUB PUSH1 0x0 DUP4 ADD MSTORE PUSH2 0x50F9 DUP2 DUP5 PUSH2 0x45AE JUMP JUMPDEST SWAP1 POP DUP2 DUP2 SUB PUSH1 0x20 DUP4 ADD MSTORE PUSH2 0x510C DUP2 PUSH2 0x47A3 JUMP JUMPDEST SWAP1 POP DUP2 DUP2 SUB PUSH1 0x40 DUP4 ADD MSTORE PUSH2 0x511F DUP2 PUSH2 0x475D JUMP JUMPDEST SWAP1 POP SWAP3 SWAP2 POP POP JUMP JUMPDEST PUSH1 0x0 PUSH1 0x60 DUP3 ADD SWAP1 POP DUP2 DUP2 SUB PUSH1 0x0 DUP4 ADD MSTORE PUSH2 0x5141 DUP2 DUP5 PUSH2 0x45AE JUMP JUMPDEST SWAP1 POP DUP2 DUP2 SUB PUSH1 0x20 DUP4 ADD MSTORE PUSH2 0x5154 DUP2 PUSH2 0x4924 JUMP JUMPDEST SWAP1 POP DUP2 DUP2 SUB PUSH1 0x40 DUP4 ADD MSTORE PUSH2 0x5167 DUP2 PUSH2 0x475D JUMP JUMPDEST SWAP1 POP SWAP3 SWAP2 POP POP JUMP JUMPDEST PUSH1 0x0 PUSH1 0x60 DUP3 ADD SWAP1 POP DUP2 DUP2 SUB PUSH1 0x0 DUP4 ADD MSTORE PUSH2 0x5189 DUP2 DUP5 PUSH2 0x45AE JUMP JUMPDEST SWAP1 POP DUP2 DUP2 SUB PUSH1 0x20 DUP4 ADD MSTORE PUSH2 0x519C DUP2 PUSH2 0x496A JUMP JUMPDEST SWAP1 POP DUP2 DUP2 SUB PUSH1 0x40 DUP4 ADD MSTORE PUSH2 0x51AF DUP2 PUSH2 0x475D JUMP JUMPDEST SWAP1 POP SWAP3 SWAP2 POP POP JUMP JUMPDEST PUSH1 0x0 PUSH1 0x60 DUP3 ADD SWAP1 POP DUP2 DUP2 SUB PUSH1 0x0 DUP4 ADD MSTORE PUSH2 0x51D1 DUP2 DUP5 PUSH2 0x45AE JUMP JUMPDEST SWAP1 POP DUP2 DUP2 SUB PUSH1 0x20 DUP4 ADD MSTORE PUSH2 0x51E4 DUP2 PUSH2 0x4AA5 JUMP JUMPDEST SWAP1 POP DUP2 DUP2 SUB PUSH1 0x40 DUP4 ADD MSTORE PUSH2 0x51F7 DUP2 PUSH2 0x475D JUMP JUMPDEST SWAP1 POP SWAP3 SWAP2 POP POP JUMP JUMPDEST PUSH1 0x0 PUSH1 0x60 DUP3 ADD SWAP1 POP DUP2 DUP2 SUB PUSH1 0x0 DUP4 ADD MSTORE PUSH2 0x5219 DUP2 DUP5 PUSH2 0x45AE JUMP JUMPDEST SWAP1 POP DUP2 DUP2 SUB PUSH1 0x20 DUP4 ADD MSTORE PUSH2 0x522C DUP2 PUSH2 0x4B77 JUMP JUMPDEST SWAP1 POP DUP2 DUP2 SUB PUSH1 0x40 DUP4 ADD MSTORE PUSH2 0x523F DUP2 PUSH2 0x475D JUMP JUMPDEST SWAP1 POP SWAP3 SWAP2 POP POP JUMP JUMPDEST PUSH1 0x0 PUSH1 0x60 DUP3 ADD SWAP1 POP DUP2 DUP2 SUB PUSH1 0x0 DUP4 ADD MSTORE PUSH2 0x5261 DUP2 DUP5 PUSH2 0x4618 JUMP JUMPDEST SWAP1 POP DUP2 DUP2 SUB PUSH1 0x20 DUP4 ADD MSTORE PUSH2 0x5274 DUP2 PUSH2 0x480C JUMP JUMPDEST SWAP1 POP DUP2 DUP2 SUB PUSH1 0x40 DUP4 ADD MSTORE PUSH2 0x5287 DUP2 PUSH2 0x4AC8 JUMP JUMPDEST SWAP1 POP SWAP3 SWAP2 POP POP JUMP JUMPDEST PUSH1 0x0 PUSH1 0x20 DUP3 ADD SWAP1 POP DUP2 DUP2 SUB PUSH1 0x0 DUP4 ADD MSTORE PUSH2 0x52A8 DUP2 PUSH2 0x473A JUMP JUMPDEST SWAP1 POP SWAP2 SWAP1 POP JUMP JUMPDEST PUSH1 0x0 PUSH1 0x20 DUP3 ADD SWAP1 POP DUP2 DUP2 SUB PUSH1 0x0 DUP4 ADD MSTORE PUSH2 0x52C8 DUP2 PUSH2 0x4780 JUMP JUMPDEST SWAP1 POP SWAP2 SWAP1 POP JUMP JUMPDEST PUSH1 0x0 PUSH1 0x20 DUP3 ADD SWAP1 POP DUP2 DUP2 SUB PUSH1 0x0 DUP4 ADD MSTORE PUSH2 0x52E8 DUP2 PUSH2 0x47E9 JUMP JUMPDEST SWAP1 POP SWAP2 SWAP1 POP JUMP JUMPDEST PUSH1 0x0 PUSH1 0x20 DUP3 ADD SWAP1 POP DUP2 DUP2 SUB PUSH1 0x0 DUP4 ADD MSTORE PUSH2 0x5308 DUP2 PUSH2 0x48DE JUMP JUMPDEST SWAP1 POP SWAP2 SWAP1 POP JUMP JUMPDEST PUSH1 0x0 PUSH1 0x20 DUP3 ADD SWAP1 POP DUP2 DUP2 SUB PUSH1 0x0 DUP4 ADD MSTORE PUSH2 0x5328 DUP2 PUSH2 0x4901 JUMP JUMPDEST SWAP1 POP SWAP2 SWAP1 POP JUMP JUMPDEST PUSH1 0x0 PUSH1 0x20 DUP3 ADD SWAP1 POP DUP2 DUP2 SUB PUSH1 0x0 DUP4 ADD MSTORE PUSH2 0x5348 DUP2 PUSH2 0x4947 JUMP JUMPDEST SWAP1 POP SWAP2 SWAP1 POP JUMP JUMPDEST PUSH1 0x0 PUSH1 0x20 DUP3 ADD SWAP1 POP DUP2 DUP2 SUB PUSH1 0x0 DUP4 ADD MSTORE PUSH2 0x5368 DUP2 PUSH2 0x4A82 JUMP JUMPDEST SWAP1 POP SWAP2 SWAP1 POP JUMP JUMPDEST PUSH1 0x0 PUSH1 0x20 DUP3 ADD SWAP1 POP DUP2 DUP2 SUB PUSH1 0x0 DUP4 ADD MSTORE PUSH2 0x5388 DUP2 PUSH2 0x4B0E JUMP JUMPDEST SWAP1 POP SWAP2 SWAP1 POP JUMP JUMPDEST PUSH1 0x0 PUSH1 0x20 DUP3 ADD SWAP1 POP DUP2 DUP2 SUB PUSH1 0x0 DUP4 ADD MSTORE PUSH2 0x53A8 DUP2 PUSH2 0x4B54 JUMP JUMPDEST SWAP1 POP SWAP2 SWAP1 POP JUMP JUMPDEST PUSH1 0x0 PUSH1 0x60 DUP3 ADD SWAP1 POP PUSH2 0x53C4 PUSH1 0x0 DUP4 ADD DUP6 PUSH2 0x4C03 JUMP JUMPDEST PUSH2 0x53D1 PUSH1 0x20 DUP4 ADD DUP5 PUSH2 0x4C03 JUMP JUMPDEST DUP2 DUP2 SUB PUSH1 0x40 DUP4 ADD MSTORE PUSH2 0x53E2 DUP2 PUSH2 0x498D JUMP JUMPDEST SWAP1 POP SWAP4 SWAP3 POP POP POP JUMP JUMPDEST PUSH1 0x0 PUSH1 0x20 DUP3 ADD SWAP1 POP PUSH2 0x5400 PUSH1 0x0 DUP4 ADD DUP5 PUSH2 0x4C21 JUMP JUMPDEST SWAP3 SWAP2 POP POP JUMP JUMPDEST PUSH1 0x0 PUSH1 0x60 DUP3 ADD SWAP1 POP PUSH2 0x541B PUSH1 0x0 DUP4 ADD DUP6 PUSH2 0x4C12 JUMP JUMPDEST PUSH2 0x5428 PUSH1 0x20 DUP4 ADD DUP5 PUSH2 0x450C JUMP JUMPDEST DUP2 DUP2 SUB PUSH1 0x40 DUP4 ADD MSTORE PUSH2 0x5439 DUP2 PUSH2 0x4A3C JUMP JUMPDEST SWAP1 POP SWAP4 SWAP3 POP POP POP JUMP JUMPDEST PUSH1 0x0 PUSH1 0x60 DUP3 ADD SWAP1 POP PUSH2 0x5457 PUSH1 0x0 DUP4 ADD DUP6 PUSH2 0x4C12 JUMP JUMPDEST PUSH2 0x5464 PUSH1 0x20 DUP4 ADD DUP5 PUSH2 0x452A JUMP JUMPDEST DUP2 DUP2 SUB PUSH1 0x40 DUP4 ADD MSTORE PUSH2 0x5475 DUP2 PUSH2 0x482F JUMP JUMPDEST SWAP1 POP SWAP4 SWAP3 POP POP POP JUMP JUMPDEST PUSH1 0x0 PUSH1 0x60 DUP3 ADD SWAP1 POP PUSH2 0x5493 PUSH1 0x0 DUP4 ADD DUP6 PUSH2 0x4C12 JUMP JUMPDEST PUSH2 0x54A0 PUSH1 0x20 DUP4 ADD DUP5 PUSH2 0x4548 JUMP JUMPDEST DUP2 DUP2 SUB PUSH1 0x40 DUP4 ADD MSTORE PUSH2 0x54B1 DUP2 PUSH2 0x4875 JUMP JUMPDEST SWAP1 POP SWAP4 SWAP3 POP POP POP JUMP JUMPDEST PUSH1 0x0 PUSH1 0x60 DUP3 ADD SWAP1 POP PUSH2 0x54CF PUSH1 0x0 DUP4 ADD DUP6 PUSH2 0x4C12 JUMP JUMPDEST PUSH2 0x54DC PUSH1 0x20 DUP4 ADD DUP5 PUSH2 0x4548 JUMP JUMPDEST DUP2 DUP2 SUB PUSH1 0x40 DUP4 ADD MSTORE PUSH2 0x54ED DUP2 PUSH2 0x4B31 JUMP JUMPDEST SWAP1 POP SWAP4 SWAP3 POP POP POP JUMP JUMPDEST PUSH1 0x0 PUSH1 0x60 DUP3 ADD SWAP1 POP PUSH2 0x550B PUSH1 0x0 DUP4 ADD DUP6 PUSH2 0x4C12 JUMP JUMPDEST PUSH2 0x5518 PUSH1 0x20 DUP4 ADD DUP5 PUSH2 0x4557 JUMP JUMPDEST DUP2 DUP2 SUB PUSH1 0x40 DUP4 ADD MSTORE PUSH2 0x5529 DUP2 PUSH2 0x4852 JUMP JUMPDEST SWAP1 POP SWAP4 SWAP3 POP POP POP JUMP JUMPDEST PUSH1 0x0 PUSH1 0x60 DUP3 ADD SWAP1 POP PUSH2 0x5547 PUSH1 0x0 DUP4 ADD DUP6 PUSH2 0x4C12 JUMP JUMPDEST PUSH2 0x5554 PUSH1 0x20 DUP4 ADD DUP5 PUSH2 0x4566 JUMP JUMPDEST DUP2 DUP2 SUB PUSH1 0x40 DUP4 ADD MSTORE PUSH2 0x5565 DUP2 PUSH2 0x4B31 JUMP JUMPDEST SWAP1 POP SWAP4 SWAP3 POP POP POP JUMP JUMPDEST PUSH1 0x0 PUSH2 0x5578 PUSH2 0x5589 JUMP JUMPDEST SWAP1 POP PUSH2 0x5584 DUP3 DUP3 PUSH2 0x5809 JUMP JUMPDEST SWAP2 SWAP1 POP JUMP JUMPDEST PUSH1 0x0 PUSH1 0x40 MLOAD SWAP1 POP SWAP1 JUMP JUMPDEST PUSH1 0x0 PUSH8 0xFFFFFFFFFFFFFFFF DUP3 GT ISZERO PUSH2 0x55AE JUMPI PUSH2 0x55AD PUSH2 0x5920 JUMP JUMPDEST JUMPDEST PUSH2 0x55B7 DUP3 PUSH2 0x5985 JUMP JUMPDEST SWAP1 POP PUSH1 0x20 DUP2 ADD SWAP1 POP SWAP2 SWAP1 POP JUMP JUMPDEST PUSH1 0x0 DUP2 SWAP1 POP DUP2 PUSH1 0x0 MSTORE PUSH1 0x20 PUSH1 0x0 KECCAK256 SWAP1 POP SWAP2 SWAP1 POP JUMP JUMPDEST PUSH1 0x0 DUP2 MLOAD SWAP1 POP SWAP2 SWAP1 POP JUMP JUMPDEST PUSH1 0x0 DUP3 DUP3 MSTORE PUSH1 0x20 DUP3 ADD SWAP1 POP SWAP3 SWAP2 POP POP JUMP JUMPDEST PUSH1 0x0 DUP3 DUP3 MSTORE PUSH1 0x20 DUP3 ADD SWAP1 POP SWAP3 SWAP2 POP POP JUMP JUMPDEST PUSH1 0x0 DUP2 SWAP1 POP SWAP3 SWAP2 POP POP JUMP JUMPDEST PUSH1 0x0 PUSH2 0x561C DUP3 PUSH2 0x56D4 JUMP JUMPDEST SWAP2 POP PUSH2 0x5627 DUP4 PUSH2 0x56D4 JUMP JUMPDEST SWAP3 POP DUP3 PUSH1 0xFF SUB DUP3 GT ISZERO PUSH2 0x563D JUMPI PUSH2 0x563C PUSH2 0x5864 JUMP JUMPDEST JUMPDEST DUP3 DUP3 ADD SWAP1 POP SWAP3 SWAP2 POP POP JUMP JUMPDEST PUSH1 0x0 PUSH2 0x5653 DUP3 PUSH2 0x56D4 JUMP JUMPDEST SWAP2 POP PUSH2 0x565E DUP4 PUSH2 0x56D4 JUMP JUMPDEST SWAP3 POP DUP3 PUSH2 0x566E JUMPI PUSH2 0x566D PUSH2 0x5893 JUMP JUMPDEST JUMPDEST DUP3 DUP3 DIV SWAP1 POP SWAP3 SWAP2 POP POP JUMP JUMPDEST PUSH1 0x0 PUSH2 0x5684 DUP3 PUSH2 0x56AA JUMP JUMPDEST SWAP1 POP SWAP2 SWAP1 POP JUMP JUMPDEST PUSH1 0x0 DUP2 ISZERO ISZERO SWAP1 POP SWAP2 SWAP1 POP JUMP JUMPDEST PUSH1 0x0 DUP2 SWAP1 POP PUSH2 0x56A5 DUP3 PUSH2 0x607E JUMP JUMPDEST SWAP2 SWAP1 POP JUMP JUMPDEST PUSH1 0x0 PUSH20 0xFFFFFFFFFFFFFFFFFFFFFFFFFFFFFFFFFFFFFFFF DUP3 AND SWAP1 POP SWAP2 SWAP1 POP JUMP JUMPDEST PUSH1 0x0 DUP2 SWAP1 POP SWAP2 SWAP1 POP JUMP JUMPDEST PUSH1 0x0 PUSH1 0xFF DUP3 AND SWAP1 POP SWAP2 SWAP1 POP JUMP JUMPDEST PUSH1 0x0 PUSH2 0x56EC DUP3 PUSH2 0x5697 JUMP JUMPDEST SWAP1 POP SWAP2 SWAP1 POP JUMP JUMPDEST PUSH1 0x0 PUSH2 0x56FE DUP3 PUSH2 0x56CA JUMP JUMPDEST SWAP1 POP SWAP2 SWAP1 POP JUMP JUMPDEST PUSH1 0x0 PUSH2 0x5710 DUP3 PUSH2 0x56CA JUMP JUMPDEST SWAP1 POP SWAP2 SWAP1 POP JUMP JUMPDEST PUSH1 0x0 PUSH2 0x5722 DUP3 PUSH2 0x56D4 JUMP JUMPDEST SWAP1 POP SWAP2 SWAP1 POP JUMP JUMPDEST PUSH1 0x0 PUSH2 0x5734 DUP3 PUSH2 0x56CA JUMP JUMPDEST SWAP1 POP SWAP2 SWAP1 POP JUMP JUMPDEST PUSH1 0x0 PUSH2 0x5746 DUP3 PUSH2 0x56D4 JUMP JUMPDEST SWAP1 POP SWAP2 SWAP1 POP JUMP JUMPDEST PUSH1 0x0 PUSH2 0x5758 DUP3 PUSH2 0x56CA JUMP JUMPDEST SWAP1 POP SWAP2 SWAP1 POP JUMP JUMPDEST PUSH1 0x0 PUSH2 0x576A DUP3 PUSH2 0x56CA JUMP JUMPDEST SWAP1 POP SWAP2 SWAP1 POP JUMP JUMPDEST PUSH1 0x0 PUSH2 0x577C DUP3 PUSH2 0x56CA JUMP JUMPDEST SWAP1 POP SWAP2 SWAP1 POP JUMP JUMPDEST PUSH1 0x0 PUSH2 0x578E DUP3 PUSH2 0x56D4 JUMP JUMPDEST SWAP1 POP SWAP2 SWAP1 POP JUMP JUMPDEST DUP3 DUP2 DUP4 CALLDATACOPY PUSH1 0x0 DUP4 DUP4 ADD MSTORE POP POP POP JUMP JUMPDEST PUSH1 0x0 JUMPDEST DUP4 DUP2 LT ISZERO PUSH2 0x57C2 JUMPI DUP1 DUP3 ADD MLOAD DUP2 DUP5 ADD MSTORE PUSH1 0x20 DUP2 ADD SWAP1 POP PUSH2 0x57A7 JUMP JUMPDEST DUP4 DUP2 GT ISZERO PUSH2 0x57D1 JUMPI PUSH1 0x0 DUP5 DUP5 ADD MSTORE JUMPDEST POP POP POP POP JUMP JUMPDEST PUSH1 0x0 PUSH1 0x2 DUP3 DIV SWAP1 POP PUSH1 0x1 DUP3 AND DUP1 PUSH2 0x57EF JUMPI PUSH1 0x7F DUP3 AND SWAP2 POP JUMPDEST PUSH1 0x20 DUP3 LT DUP2 EQ ISZERO PUSH2 0x5803 JUMPI PUSH2 0x5802 PUSH2 0x58F1 JUMP JUMPDEST JUMPDEST POP SWAP2 SWAP1 POP JUMP JUMPDEST PUSH2 0x5812 DUP3 PUSH2 0x5985 JUMP JUMPDEST DUP2 ADD DUP2 DUP2 LT PUSH8 0xFFFFFFFFFFFFFFFF DUP3 GT OR ISZERO PUSH2 0x5831 JUMPI PUSH2 0x5830 PUSH2 0x5920 JUMP JUMPDEST JUMPDEST DUP1 PUSH1 0x40 MSTORE POP POP POP JUMP JUMPDEST PUSH1 0x0 PUSH2 0x5845 DUP3 PUSH2 0x56D4 JUMP JUMPDEST SWAP2 POP PUSH1 0xFF DUP3 EQ ISZERO PUSH2 0x5859 JUMPI PUSH2 0x5858 PUSH2 0x5864 JUMP JUMPDEST JUMPDEST PUSH1 0x1 DUP3 ADD SWAP1 POP SWAP2 SWAP1 POP JUMP JUMPDEST PUSH32 0x4E487B7100000000000000000000000000000000000000000000000000000000 PUSH1 0x0 MSTORE PUSH1 0x11 PUSH1 0x4 MSTORE PUSH1 0x24 PUSH1 0x0 REVERT JUMPDEST PUSH32 0x4E487B7100000000000000000000000000000000000000000000000000000000 PUSH1 0x0 MSTORE PUSH1 0x12 PUSH1 0x4 MSTORE PUSH1 0x24 PUSH1 0x0 REVERT JUMPDEST PUSH32 0x4E487B7100000000000000000000000000000000000000000000000000000000 PUSH1 0x0 MSTORE PUSH1 0x21 PUSH1 0x4 MSTORE PUSH1 0x24 PUSH1 0x0 REVERT JUMPDEST PUSH32 0x4E487B7100000000000000000000000000000000000000000000000000000000 PUSH1 0x0 MSTORE PUSH1 0x22 PUSH1 0x4 MSTORE PUSH1 0x24 PUSH1 0x0 REVERT JUMPDEST PUSH32 0x4E487B7100000000000000000000000000000000000000000000000000000000 PUSH1 0x0 MSTORE PUSH1 0x41 PUSH1 0x4 MSTORE PUSH1 0x24 PUSH1 0x0 REVERT JUMPDEST PUSH1 0x0 PUSH1 0x3 RETURNDATASIZE GT ISZERO PUSH2 0x596E JUMPI PUSH1 0x4 PUSH1 0x0 DUP1 RETURNDATACOPY PUSH2 0x596B PUSH1 0x0 MLOAD PUSH2 0x5996 JUMP JUMPDEST SWAP1 POP JUMPDEST SWAP1 JUMP JUMPDEST PUSH1 0x0 DUP1 REVERT JUMPDEST PUSH1 0x0 DUP1 REVERT JUMPDEST PUSH1 0x0 DUP1 REVERT JUMPDEST PUSH1 0x0 DUP1 REVERT JUMPDEST PUSH1 0x0 PUSH1 0x1F NOT PUSH1 0x1F DUP4 ADD AND SWAP1 POP SWAP2 SWAP1 POP JUMP JUMPDEST PUSH1 0x0 DUP2 PUSH1 0xE0 SHR SWAP1 POP SWAP2 SWAP1 POP JUMP JUMPDEST PUSH32 0x4661696C656420756E65787065637465646C7900000000000000000000000000 PUSH1 0x0 DUP3 ADD MSTORE POP JUMP JUMPDEST PUSH32 0x566F74696E672071756F72756D206973206E6F74206D65742E204B6565702076 PUSH1 0x0 DUP3 ADD MSTORE PUSH32 0x6F74696E672E0000000000000000000000000000000000000000000000000000 PUSH1 0x20 DUP3 ADD MSTORE POP JUMP JUMPDEST PUSH32 0x4661696C6564207769746820756E657870656374656420726561736F6E000000 PUSH1 0x0 DUP3 ADD MSTORE POP JUMP JUMPDEST PUSH32 0x43616E206F6E6C7920766F7465206F6E63652E00000000000000000000000000 PUSH1 0x0 DUP3 ADD MSTORE POP JUMP JUMPDEST PUSH32 0x4661696C6564207769746820756E6578706563746564206572726F7200000000 PUSH1 0x0 DUP3 ADD MSTORE POP JUMP JUMPDEST PUSH32 0x556E692043616665000000000000000000000000000000000000000000000000 PUSH1 0x0 DUP3 ADD MSTORE POP JUMP JUMPDEST PUSH32 0x53686F756C6420626520657175616C20746F2032000000000000000000000000 PUSH1 0x0 DUP3 ADD MSTORE POP JUMP JUMPDEST PUSH32 0x53686F756C6420626520657175616C20746F2034000000000000000000000000 PUSH1 0x0 DUP3 ADD MSTORE POP JUMP JUMPDEST PUSH32 0x53686F756C6420626520657175616C20746F2033000000000000000000000000 PUSH1 0x0 DUP3 ADD MSTORE POP JUMP JUMPDEST PUSH32 0x4661696C656420756E65787065637465646C7920776974682070616E69632065 PUSH1 0x0 DUP3 ADD MSTORE PUSH32 0x72726F7220636F64650000000000000000000000000000000000000000000000 PUSH1 0x20 DUP3 ADD MSTORE POP JUMP JUMPDEST PUSH32 0x4661696C656420756E6578706563746564000000000000000000000000000000 PUSH1 0x0 DUP3 ADD MSTORE POP JUMP JUMPDEST PUSH32 0x436F6E74726163742069732073746F707065642E000000000000000000000000 PUSH1 0x0 DUP3 ADD MSTORE POP JUMP JUMPDEST PUSH32 0x46756E6374696F6E2063616E206E6F742062652063616C6C656420696E207468 PUSH1 0x0 DUP3 ADD MSTORE PUSH32 0x69732073746167652E0000000000000000000000000000000000000000000000 PUSH1 0x20 DUP3 ADD MSTORE POP JUMP JUMPDEST PUSH32 0x467269656E6420616C7265616479206578697374732E00000000000000000000 PUSH1 0x0 DUP3 ADD MSTORE POP JUMP JUMPDEST PUSH32 0x566F74696E672073686F756C6420626520636C6F736564000000000000000000 PUSH1 0x0 DUP3 ADD MSTORE POP JUMP JUMPDEST PUSH32 0x4661696C656420756E65787065637465642077697468206572726F7220636F64 PUSH1 0x0 DUP3 ADD MSTORE PUSH32 0x6500000000000000000000000000000000000000000000000000000000000000 PUSH1 0x20 DUP3 ADD MSTORE POP JUMP JUMPDEST PUSH32 0x416464696E67206578697374696E6720667269656E642073686F756C64206661 PUSH1 0x0 DUP3 ADD MSTORE PUSH32 0x696C000000000000000000000000000000000000000000000000000000000000 PUSH1 0x20 DUP3 ADD MSTORE POP JUMP JUMPDEST PUSH32 0x53746F707065642073746174652073686F756C64206265207472756520616674 PUSH1 0x0 DUP3 ADD MSTORE PUSH32 0x6572206D616E6167657227732063616C6C000000000000000000000000000000 PUSH1 0x20 DUP3 ADD MSTORE POP JUMP JUMPDEST PUSH32 0x566F74696E6720726573756C742073686F756C64206265207472756500000000 PUSH1 0x0 DUP3 ADD MSTORE POP JUMP JUMPDEST PUSH32 0x53686F756C6420626520657175616C20746F2031000000000000000000000000 PUSH1 0x0 DUP3 ADD MSTORE POP JUMP JUMPDEST PUSH32 0x416C696365000000000000000000000000000000000000000000000000000000 PUSH1 0x0 DUP3 ADD MSTORE POP JUMP JUMPDEST PUSH32 0x43616E206F6E6C7920626520657865637574656420627920746865206D616E61 PUSH1 0x0 DUP3 ADD MSTORE PUSH32 0x6765720000000000000000000000000000000000000000000000000000000000 PUSH1 0x20 DUP3 ADD MSTORE POP JUMP JUMPDEST PUSH32 0x53656C65637465642072657374617572616E742073686F756C6420626520556E PUSH1 0x0 DUP3 ADD MSTORE PUSH32 0x6920436166650000000000000000000000000000000000000000000000000000 PUSH1 0x20 DUP3 ADD MSTORE POP JUMP JUMPDEST PUSH32 0x566F74696E6720726573756C742073686F756C642062652066616C7365000000 PUSH1 0x0 DUP3 ADD MSTORE POP JUMP JUMPDEST PUSH32 0x41746F6D69632043616665000000000000000000000000000000000000000000 PUSH1 0x0 DUP3 ADD MSTORE POP JUMP JUMPDEST PUSH32 0x4D6574686F6420657865637574696F6E20646964206E6F74206661696C000000 PUSH1 0x0 DUP3 ADD MSTORE POP JUMP JUMPDEST PUSH32 0x52657374617572616E7420616C7265616479206578697374732E000000000000 PUSH1 0x0 DUP3 ADD MSTORE POP JUMP JUMPDEST PUSH32 0x566F74696E6720726573756C742073686F756C642062652066616C736520666F PUSH1 0x0 DUP3 ADD MSTORE PUSH32 0x7220696E76616C69642072657374617572616E74000000000000000000000000 PUSH1 0x20 DUP3 ADD MSTORE POP JUMP JUMPDEST PUSH32 0x4D616E616765722073686F756C64206265206163633000000000000000000000 PUSH1 0x0 DUP3 ADD MSTORE POP JUMP JUMPDEST PUSH32 0x44616E69656C7300000000000000000000000000000000000000000000000000 PUSH1 0x0 DUP3 ADD MSTORE POP JUMP JUMPDEST PUSH1 0x0 PUSH1 0x44 RETURNDATASIZE LT ISZERO PUSH2 0x5FD7 JUMPI PUSH2 0x605A JUMP JUMPDEST PUSH2 0x5FDF PUSH2 0x5589 JUMP JUMPDEST PUSH1 0x4 RETURNDATASIZE SUB PUSH1 0x4 DUP3 RETURNDATACOPY DUP1 MLOAD RETURNDATASIZE PUSH1 0x24 DUP3 ADD GT PUSH8 0xFFFFFFFFFFFFFFFF DUP3 GT OR ISZERO PUSH2 0x6007 JUMPI POP POP PUSH2 0x605A JUMP JUMPDEST DUP1 DUP3 ADD DUP1 MLOAD PUSH8 0xFFFFFFFFFFFFFFFF DUP2 GT ISZERO PUSH2 0x6025 JUMPI POP POP POP POP PUSH2 0x605A JUMP JUMPDEST DUP1 PUSH1 0x20 DUP4 ADD ADD PUSH1 0x4 RETURNDATASIZE SUB DUP6 ADD DUP2 GT ISZERO PUSH2 0x6042 JUMPI POP POP POP POP POP PUSH2 0x605A JUMP JUMPDEST PUSH2 0x6051 DUP3 PUSH1 0x20 ADD DUP6 ADD DUP7 PUSH2 0x5809 JUMP JUMPDEST DUP3 SWAP6 POP POP POP POP POP POP JUMPDEST SWAP1 JUMP JUMPDEST PUSH1 0x0 DUP1 PUSH1 0x23 RETURNDATASIZE GT ISZERO PUSH2 0x607A JUMPI PUSH1 0x20 PUSH1 0x4 PUSH1 0x0 RETURNDATACOPY PUSH1 0x1 SWAP2 POP PUSH1 0x0 MLOAD SWAP1 POP JUMPDEST SWAP1 SWAP2 JUMP JUMPDEST PUSH1 0x3 DUP2 LT PUSH2 0x608F JUMPI PUSH2 0x608E PUSH2 0x58C2 JUMP JUMPDEST JUMPDEST POP JUMP JUMPDEST PUSH2 0x609B DUP2 PUSH2 0x5679 JUMP JUMPDEST DUP2 EQ PUSH2 0x60A6 JUMPI PUSH1 0x0 DUP1 REVERT JUMPDEST POP JUMP JUMPDEST PUSH2 0x60B2 DUP2 PUSH2 0x568B JUMP JUMPDEST DUP2 EQ PUSH2 0x60BD JUMPI PUSH1 0x0 DUP1 REVERT JUMPDEST POP JUMP JUMPDEST PUSH2 0x60C9 DUP2 PUSH2 0x56D4 JUMP JUMPDEST DUP2 EQ PUSH2 0x60D4 JUMPI PUSH1 0x0 DUP1 REVERT JUMPDEST POP JUMP INVALID LOG2 PUSH5 0x6970667358 0x22 SLT KECCAK256 CALLDATALOAD CALLER 0xC8 SWAP15 0x2E PUSH28 0x6596BE49C79566F2159D0D7FA813A3C53689CD7F9EAA5E3FA0E56473 PUSH16 0x6C634300080500330000000000000000 "
		},
		"gasEstimates": {
			"creation": {
				"codeDepositCost": "4969000",
				"executionCost": "infinite",
				"totalCost": "infinite"
			},
			"external": {
				"addFriend(address,string)": "infinite",
				"addFriendTwiceShouldFail()": "infinite",
				"addRestaurant(string)": "infinite",
				"beforeAll()": "infinite",
				"currentStage()": "2669",
				"doVote(uint8)": "infinite",
				"endVote()": "infinite",
				"endVoteInCreateStageShouldFail()": "infinite",
				"friends(address)": "infinite",
				"lunchVenueTest()": "infinite",
				"manager()": "infinite",
				"managerTest()": "infinite",
				"numFriends()": "2633",
				"numRestaurants()": "2516",
				"numVotes()": "2588",
				"restaurants(uint8)": "infinite",
				"setFriend()": "infinite",
				"setFriendFailure()": "infinite",
				"setRestaurant()": "infinite",
				"setRestaurantFailure()": "infinite",
				"setRestaurantTwiceShouldFail()": "infinite",
				"setStopped()": "infinite",
				"setStoppedByManager()": "infinite",
				"startCreate()": "infinite",
				"startVote()": "infinite",
				"stopped()": "2604",
				"vote()": "infinite",
				"vote2()": "infinite",
				"vote3()": "infinite",
				"voteAfterClosedFailure()": "infinite",
				"voteFailure()": "infinite",
				"voteInvalidRestaurantShouldFail()": "infinite",
				"voteOpenTest()": "infinite",
				"voteTwiceShouldFail()": "infinite",
				"votedRestaurant()": "infinite",
				"votes(uint8)": "infinite"
			}
		},
		"methodIdentifiers": {
			"addFriend(address,string)": "3b9f708d",
			"addFriendTwiceShouldFail()": "4f575698",
			"addRestaurant(string)": "6d77bd3e",
			"beforeAll()": "7fea0d4b",
			"currentStage()": "5bf5d54c",
			"doVote(uint8)": "e9b16ca3",
			"endVote()": "b9223946",
			"endVoteInCreateStageShouldFail()": "ff289691",
			"friends(address)": "1ddabf7a",
			"lunchVenueTest()": "a8267245",
			"manager()": "481c6a75",
			"managerTest()": "947aea86",
			"numFriends()": "47098f36",
			"numRestaurants()": "b798867f",
			"numVotes()": "a3bef4d7",
			"restaurants(uint8)": "19a06f27",
			"setFriend()": "848b4427",
			"setFriendFailure()": "77440e06",
			"setRestaurant()": "12a4591a",
			"setRestaurantFailure()": "512a6fbb",
			"setRestaurantTwiceShouldFail()": "6629d50a",
			"setStopped()": "71135f8b",
			"setStoppedByManager()": "3231d447",
			"startCreate()": "fc7ffbba",
			"startVote()": "4c0a6af0",
			"stopped()": "75f12b21",
			"vote()": "632a9a52",
			"vote2()": "a24a4e88",
			"vote3()": "2955fea3",
			"voteAfterClosedFailure()": "a5627cf0",
			"voteFailure()": "a9a4070c",
			"voteInvalidRestaurantShouldFail()": "bdb1d745",
			"voteOpenTest()": "bbb97ded",
			"voteTwiceShouldFail()": "44bf1451",
			"votedRestaurant()": "c1c16efc",
			"votes(uint8)": "c1b43357"
		}
	},
	"abi": [
		{
			"inputs": [
				{
					"internalType": "address",
					"name": "friendAddress",
					"type": "address"
				},
				{
					"internalType": "string",
					"name": "name",
					"type": "string"
				}
			],
			"name": "addFriend",
			"outputs": [
				{
					"internalType": "uint8",
					"name": "",
					"type": "uint8"
				}
			],
			"stateMutability": "nonpayable",
			"type": "function"
		},
		{
			"inputs": [],
			"name": "addFriendTwiceShouldFail",
			"outputs": [],
			"stateMutability": "nonpayable",
			"type": "function"
		},
		{
			"inputs": [
				{
					"internalType": "string",
					"name": "name",
					"type": "string"
				}
			],
			"name": "addRestaurant",
			"outputs": [
				{
					"internalType": "uint8",
					"name": "",
					"type": "uint8"
				}
			],
			"stateMutability": "nonpayable",
			"type": "function"
		},
		{
			"inputs": [],
			"name": "beforeAll",
			"outputs": [],
			"stateMutability": "nonpayable",
			"type": "function"
		},
		{
			"inputs": [],
			"name": "currentStage",
			"outputs": [
				{
					"internalType": "enum LunchVenue_updated.Stage",
					"name": "",
					"type": "uint8"
				}
			],
			"stateMutability": "view",
			"type": "function"
		},
		{
			"inputs": [
				{
					"internalType": "uint8",
					"name": "restaurant",
					"type": "uint8"
				}
			],
			"name": "doVote",
			"outputs": [
				{
					"internalType": "bool",
					"name": "validVote",
					"type": "bool"
				}
			],
			"stateMutability": "nonpayable",
			"type": "function"
		},
		{
			"inputs": [],
			"name": "endVote",
			"outputs": [],
			"stateMutability": "nonpayable",
			"type": "function"
		},
		{
			"inputs": [],
			"name": "endVoteInCreateStageShouldFail",
			"outputs": [],
			"stateMutability": "nonpayable",
			"type": "function"
		},
		{
			"inputs": [
				{
					"internalType": "address",
					"name": "",
					"type": "address"
				}
			],
			"name": "friends",
			"outputs": [
				{
					"internalType": "string",
					"name": "name",
					"type": "string"
				},
				{
					"internalType": "bool",
					"name": "voted",
					"type": "bool"
				}
			],
			"stateMutability": "view",
			"type": "function"
		},
		{
			"inputs": [],
			"name": "lunchVenueTest",
			"outputs": [],
			"stateMutability": "nonpayable",
			"type": "function"
		},
		{
			"inputs": [],
			"name": "manager",
			"outputs": [
				{
					"internalType": "address",
					"name": "",
					"type": "address"
				}
			],
			"stateMutability": "view",
			"type": "function"
		},
		{
			"inputs": [],
			"name": "managerTest",
			"outputs": [],
			"stateMutability": "nonpayable",
			"type": "function"
		},
		{
			"inputs": [],
			"name": "numFriends",
			"outputs": [
				{
					"internalType": "uint8",
					"name": "",
					"type": "uint8"
				}
			],
			"stateMutability": "view",
			"type": "function"
		},
		{
			"inputs": [],
			"name": "numRestaurants",
			"outputs": [
				{
					"internalType": "uint8",
					"name": "",
					"type": "uint8"
				}
			],
			"stateMutability": "view",
			"type": "function"
		},
		{
			"inputs": [],
			"name": "numVotes",
			"outputs": [
				{
					"internalType": "uint8",
					"name": "",
					"type": "uint8"
				}
			],
			"stateMutability": "view",
			"type": "function"
		},
		{
			"inputs": [
				{
					"internalType": "uint8",
					"name": "",
					"type": "uint8"
				}
			],
			"name": "restaurants",
			"outputs": [
				{
					"internalType": "string",
					"name": "",
					"type": "string"
				}
			],
			"stateMutability": "view",
			"type": "function"
		},
		{
			"inputs": [],
			"name": "setFriend",
			"outputs": [],
			"stateMutability": "nonpayable",
			"type": "function"
		},
		{
			"inputs": [],
			"name": "setFriendFailure",
			"outputs": [],
			"stateMutability": "nonpayable",
			"type": "function"
		},
		{
			"inputs": [],
			"name": "setRestaurant",
			"outputs": [],
			"stateMutability": "nonpayable",
			"type": "function"
		},
		{
			"inputs": [],
			"name": "setRestaurantFailure",
			"outputs": [],
			"stateMutability": "nonpayable",
			"type": "function"
		},
		{
			"inputs": [],
			"name": "setRestaurantTwiceShouldFail",
			"outputs": [],
			"stateMutability": "nonpayable",
			"type": "function"
		},
		{
			"inputs": [],
			"name": "setStopped",
			"outputs": [],
			"stateMutability": "nonpayable",
			"type": "function"
		},
		{
			"inputs": [],
			"name": "setStoppedByManager",
			"outputs": [],
			"stateMutability": "nonpayable",
			"type": "function"
		},
		{
			"inputs": [],
			"name": "startCreate",
			"outputs": [],
			"stateMutability": "nonpayable",
			"type": "function"
		},
		{
			"inputs": [],
			"name": "startVote",
			"outputs": [],
			"stateMutability": "nonpayable",
			"type": "function"
		},
		{
			"inputs": [],
			"name": "stopped",
			"outputs": [
				{
					"internalType": "bool",
					"name": "",
					"type": "bool"
				}
			],
			"stateMutability": "view",
			"type": "function"
		},
		{
			"inputs": [],
			"name": "vote",
			"outputs": [],
			"stateMutability": "nonpayable",
			"type": "function"
		},
		{
			"inputs": [],
			"name": "vote2",
			"outputs": [],
			"stateMutability": "nonpayable",
			"type": "function"
		},
		{
			"inputs": [],
			"name": "vote3",
			"outputs": [],
			"stateMutability": "nonpayable",
			"type": "function"
		},
		{
			"inputs": [],
			"name": "voteAfterClosedFailure",
			"outputs": [],
			"stateMutability": "nonpayable",
			"type": "function"
		},
		{
			"inputs": [],
			"name": "voteFailure",
			"outputs": [],
			"stateMutability": "nonpayable",
			"type": "function"
		},
		{
			"inputs": [],
			"name": "voteInvalidRestaurantShouldFail",
			"outputs": [],
			"stateMutability": "nonpayable",
			"type": "function"
		},
		{
			"inputs": [],
			"name": "voteOpenTest",
			"outputs": [],
			"stateMutability": "nonpayable",
			"type": "function"
		},
		{
			"inputs": [],
			"name": "voteTwiceShouldFail",
			"outputs": [],
			"stateMutability": "nonpayable",
			"type": "function"
		},
		{
			"inputs": [],
			"name": "votedRestaurant",
			"outputs": [
				{
					"internalType": "string",
					"name": "",
					"type": "string"
				}
			],
			"stateMutability": "view",
			"type": "function"
		},
		{
			"inputs": [
				{
					"internalType": "uint8",
					"name": "",
					"type": "uint8"
				}
			],
			"name": "votes",
			"outputs": [
				{
					"internalType": "address",
					"name": "voterAddress",
					"type": "address"
				},
				{
					"internalType": "uint8",
					"name": "restaurant",
					"type": "uint8"
				}
			],
			"stateMutability": "view",
			"type": "function"
		}
	]
}