{
	"data": {
		"bytecode": {
			"linkReferences": {
				"remix_accounts.sol": {
					"TestsAccounts": [
						{
							"length": 20,
							"start": 10085
						},
						{
							"length": 20,
							"start": 10285
						},
						{
							"length": 20,
							"start": 10485
						},
						{
							"length": 20,
							"start": 10685
						},
						{
							"length": 20,
							"start": 10885
						}
					]
				},
				"remix_tests.sol": {
					"Assert": [
						{
							"length": 20,
							"start": 2019
						},
						{
							"length": 20,
							"start": 2219
						},
						{
							"length": 20,
							"start": 2808
						},
						{
							"length": 20,
							"start": 3051
						},
						{
							"length": 20,
							"start": 4232
						},
						{
							"length": 20,
							"start": 4404
						},
						{
							"length": 20,
							"start": 4597
						},
						{
							"length": 20,
							"start": 4741
						},
						{
							"length": 20,
							"start": 5619
						},
						{
							"length": 20,
							"start": 5791
						},
						{
							"length": 20,
							"start": 5984
						},
						{
							"length": 20,
							"start": 6128
						},
						{
							"length": 20,
							"start": 6443
						},
						{
							"length": 20,
							"start": 6615
						},
						{
							"length": 20,
							"start": 6808
						},
						{
							"length": 20,
							"start": 6952
						},
						{
							"length": 20,
							"start": 7154
						},
						{
							"length": 20,
							"start": 7475
						},
						{
							"length": 20,
							"start": 7647
						},
						{
							"length": 20,
							"start": 7840
						},
						{
							"length": 20,
							"start": 7984
						},
						{
							"length": 20,
							"start": 9435
						},
						{
							"length": 20,
							"start": 9607
						},
						{
							"length": 20,
							"start": 9800
						},
						{
							"length": 20,
							"start": 9944
						},
						{
							"length": 20,
							"start": 11156
						},
						{
							"length": 20,
							"start": 11391
						},
						{
							"length": 20,
							"start": 11626
						},
						{
							"length": 20,
							"start": 11861
						},
						{
							"length": 20,
							"start": 12098
						},
						{
							"length": 20,
							"start": 12346
						},
						{
							"length": 20,
							"start": 12731
						},
						{
							"length": 20,
							"start": 12903
						},
						{
							"length": 20,
							"start": 13096
						},
						{
							"length": 20,
							"start": 13240
						},
						{
							"length": 20,
							"start": 13479
						},
						{
							"length": 20,
							"start": 13660
						},
						{
							"length": 20,
							"start": 14404
						},
						{
							"length": 20,
							"start": 14635
						},
						{
							"length": 20,
							"start": 15254
						},
						{
							"length": 20,
							"start": 15426
						},
						{
							"length": 20,
							"start": 15619
						},
						{
							"length": 20,
							"start": 15763
						},
						{
							"length": 20,
							"start": 17499
						},
						{
							"length": 20,
							"start": 17643
						},
						{
							"length": 20,
							"start": 17786
						}
					]
				}
			},
			"object": "60a060405260008060006101000a81548160ff021916908360028111156200002c576200002b620001f9565b5b02179055506000600360006101000a81548160ff021916908360ff1602179055506000600360016101000a81548160ff021916908360ff1602179055506000600360026101000a81548160ff021916908360ff1602179055506040518060200160405280600081525060049080519060200190620000ac92919062000113565b506000600760006101000a81548160ff021916908315150217905550348015620000d557600080fd5b503373ffffffffffffffffffffffffffffffffffffffff1660808173ffffffffffffffffffffffffffffffffffffffff1660601b8152505062000257565b8280546200012190620001c3565b90600052602060002090601f01602090048101928262000145576000855562000191565b82601f106200016057805160ff191683800117855562000191565b8280016001018555821562000191579182015b828111156200019057825182559160200191906001019062000173565b5b509050620001a09190620001a4565b5090565b5b80821115620001bf576000816000905550600101620001a5565b5090565b60006002820490506001821680620001dc57607f821691505b60208210811415620001f357620001f262000228565b5b50919050565b7f4e487b7100000000000000000000000000000000000000000000000000000000600052602160045260246000fd5b7f4e487b7100000000000000000000000000000000000000000000000000000000600052602260045260246000fd5b60805160601c6165b6620002d1600039600081816109b801528181610a0d015281816110560152818161107a015281816110cf01528181611cee01528181611d43015281816120150152818161206a01528181612c8b015281816133340152818161338901528181613f050152613f5a01526165b66000f3fe608060405234801561001057600080fd5b50600436106102275760003560e01c806377440e0611610130578063b798867f116100b8578063c1c16efc1161007c578063c1c16efc146104a4578063d24fc8e1146104c2578063e9b16ca3146104cc578063fc7ffbba146104fc578063ff2896911461050657610227565b8063b798867f14610437578063b922394614610455578063bbb97ded1461045f578063bdb1d74514610469578063c1b433571461047357610227565b8063a24a4e88116100ff578063a24a4e88146103f1578063a3bef4d7146103fb578063a5627cf014610419578063a826724514610423578063a9a4070c1461042d57610227565b806377440e06146103c95780637fea0d4b146103d3578063848b4427146103dd578063947aea86146103e757610227565b80634c0a6af0116101b3578063632a9a5211610182578063632a9a521461035d5780636629d50a146103675780636d77bd3e1461037157806371135f8b146103a157806375f12b21146103ab57610227565b80634c0a6af0146103215780634f5756981461032b578063512a6fbb146103355780635bf5d54c1461033f57610227565b80633231d447116101fa5780633231d447146102a15780633b9f708d146102ab57806344bf1451146102db57806347098f36146102e5578063481c6a751461030357610227565b806312a4591a1461022c57806319a06f27146102365780631ddabf7a146102665780632955fea314610297575b600080fd5b610234610510565b005b610250600480360381019061024b9190614832565b6106a2565b60405161025d91906154db565b60405180910390f35b610280600480360381019061027b9190614706565b610742565b60405161028e9291906154fd565b60405180910390f35b61029f6107fb565b005b6102a96108b8565b005b6102c560048036038101906102c09190614760565b6109b4565b6040516102d29190615881565b60405180910390f35b6102e3610cda565b005b6102ed611041565b6040516102fa9190615881565b60405180910390f35b61030b611054565b604051610318919061507e565b60405180910390f35b610329611078565b005b61033361124e565b005b61033d6115aa565b005b6103476118e4565b6040516103549190615403565b60405180910390f35b6103656118f5565b005b61036f6119b2565b005b61038b600480360381019061038691906147e9565b611cea565b6040516103989190615881565b60405180910390f35b6103a9612013565b005b6103b3612123565b6040516103c0919061515a565b60405180910390f35b6103d1612136565b005b6103db612492565b005b6103e56128c1565b005b6103ef612c6f565b005b6103f9612d3d565b005b610403612dfa565b6040516104109190615881565b60405180910390f35b610421612e0d565b005b61042b613174565b005b61043561325f565b005b61043f61331f565b60405161044c9190615881565b60405180910390f35b61045d613332565b005b610467613571565b005b61047161362e565b005b61048d60048036038101906104889190614832565b6136ee565b60405161049b929190615131565b60405180910390f35b6104ac61373f565b6040516104b991906154db565b60405180910390f35b6104ca6137cd565b005b6104e660048036038101906104e19190614832565b613b4f565b6040516104f3919061515a565b60405180910390f35b610504613f03565b005b61050e6140d9565b005b73__$acbfb1c35000d78352310b16a054a6b106$__63abcd79606105686040518060400160405280600e81526020017f436f757274796172642043616665000000000000000000000000000000000000815250611cea565b60016040518363ffffffff1660e01b815260040161058792919061589c565b60206040518083038186803b15801561059f57600080fd5b505af41580156105b3573d6000803e3d6000fd5b505050506040513d601f19601f820116820180604052508101906105d791906147bc565b5073__$acbfb1c35000d78352310b16a054a6b106$__63abcd79606106306040518060400160405280600881526020017f556e692043616665000000000000000000000000000000000000000000000000815250611cea565b60026040518363ffffffff1660e01b815260040161064f9291906158d8565b60206040518083038186803b15801561066757600080fd5b505af415801561067b573d6000803e3d6000fd5b505050506040513d601f19601f8201168201806040525081019061069f91906147bc565b50565b600160205280600052604060002060009150905080546106c190615c31565b80601f01602080910402602001604051908101604052809291908181526020018280546106ed90615c31565b801561073a5780601f1061070f5761010080835404028352916020019161073a565b820191906000526020600020905b81548152906001019060200180831161071d57829003601f168201915b505050505081565b600260205280600052604060002060009150905080600001805461076590615c31565b80601f016020809104026020016040519081016040528092919081815260200182805461079190615c31565b80156107de5780601f106107b3576101008083540402835291602001916107de565b820191906000526020600020905b8154815290600101906020018083116107c157829003601f168201915b5050505050908060010160009054906101000a900460ff16905082565b60016000806101000a81548160ff021916908360028111156108205761081f615d1c565b5b021790555073__$acbfb1c35000d78352310b16a054a6b106$__6339df137f6108496002613b4f565b6040518263ffffffff1660e01b81526004016108659190615379565b60206040518083038186803b15801561087d57600080fd5b505af4158015610891573d6000803e3d6000fd5b505050506040513d601f19601f820116820180604052508101906108b591906147bc565b50565b3073ffffffffffffffffffffffffffffffffffffffff166371135f8b6040518163ffffffff1660e01b8152600401600060405180830381600087803b15801561090057600080fd5b505af1158015610914573d6000803e3d6000fd5b5050505073__$acbfb1c35000d78352310b16a054a6b106$__63767392b3600760009054906101000a900460ff1660016040518363ffffffff1660e01b8152600401610961929190615175565b60206040518083038186803b15801561097957600080fd5b505af415801561098d573d6000803e3d6000fd5b505050506040513d601f19601f820116820180604052508101906109b191906147bc565b50565b60007f000000000000000000000000000000000000000000000000000000000000000073ffffffffffffffffffffffffffffffffffffffff163273ffffffffffffffffffffffffffffffffffffffff161480610a5b57507f000000000000000000000000000000000000000000000000000000000000000073ffffffffffffffffffffffffffffffffffffffff163373ffffffffffffffffffffffffffffffffffffffff16145b610a9a576040517f08c379a0000000000000000000000000000000000000000000000000000000008152600401610a91906157e5565b60405180910390fd5b826000600260008373ffffffffffffffffffffffffffffffffffffffff1673ffffffffffffffffffffffffffffffffffffffff1681526020019081526020016000206000018054610aea90615c31565b905014610b2c576040517f08c379a0000000000000000000000000000000000000000000000000000000008152600401610b23906157c5565b60405180910390fd5b6000806002811115610b4157610b40615d1c565b5b60008054906101000a900460ff166002811115610b6157610b60615d1c565b5b14610ba1576040517f08c379a0000000000000000000000000000000000000000000000000000000008152600401610b98906157a5565b60405180910390fd5b600760009054906101000a900460ff1615610bf1576040517f08c379a0000000000000000000000000000000000000000000000000000000008152600401610be890615785565b60405180910390fd5b604051806040016040528085815260200160001515815250600260008773ffffffffffffffffffffffffffffffffffffffff1673ffffffffffffffffffffffffffffffffffffffff1681526020019081526020016000206000820151816000019080519060200190610c649291906144fd565b5060208201518160010160006101000a81548160ff0219169083151502179055509050506003600181819054906101000a900460ff1680929190610ca790615c94565b91906101000a81548160ff021916908360ff16021790555050600360019054906101000a900460ff169250505092915050565b60016000806101000a81548160ff02191690836002811115610cff57610cfe615d1c565b5b02179055503073ffffffffffffffffffffffffffffffffffffffff1663e9b16ca360026040518263ffffffff1660e01b8152600401610d3e919061548a565b602060405180830381600087803b158015610d5857600080fd5b505af1925050508015610d8957506040513d601f19601f82011682018060405250810190610d8691906147bc565b60015b610fb257610d95615da9565b806308c379a01415610e435750610daa616470565b80610db55750610ef0565b73__$acbfb1c35000d78352310b16a054a6b106$__63e8c2cb16826040518263ffffffff1660e01b8152600401610dec919061552d565b60206040518083038186803b158015610e0457600080fd5b505af4158015610e18573d6000803e3d6000fd5b505050506040513d601f19601f82011682018060405250810190610e3c91906147bc565b5050610fad565b634e487b711415610ef057610e56616506565b90610e615750610ef0565b73__$acbfb1c35000d78352310b16a054a6b106$__6339df137f60006040518263ffffffff1660e01b8152600401610e99919061531d565b60206040518083038186803b158015610eb157600080fd5b505af4158015610ec5573d6000803e3d6000fd5b505050506040513d601f19601f82011682018060405250810190610ee991906147bc565b5050610fad565b3d8060008114610f1c576040519150601f19603f3d011682016040523d82523d6000602084013e610f21565b606091505b5073__$acbfb1c35000d78352310b16a054a6b106$__6339df137f60006040518263ffffffff1660e01b8152600401610f5a9190615265565b60206040518083038186803b158015610f7257600080fd5b505af4158015610f86573d6000803e3d6000fd5b505050506040513d601f19601f82011682018060405250810190610faa91906147bc565b50505b61103f565b73__$acbfb1c35000d78352310b16a054a6b106$__63767392b38260006040518363ffffffff1660e01b8152600401610fec9291906151ed565b60206040518083038186803b15801561100457600080fd5b505af4158015611018573d6000803e3d6000fd5b505050506040513d601f19601f8201168201806040525081019061103c91906147bc565b50505b565b600360019054906101000a900460ff1681565b7f000000000000000000000000000000000000000000000000000000000000000081565b7f000000000000000000000000000000000000000000000000000000000000000073ffffffffffffffffffffffffffffffffffffffff163273ffffffffffffffffffffffffffffffffffffffff16148061111d57507f000000000000000000000000000000000000000000000000000000000000000073ffffffffffffffffffffffffffffffffffffffff163373ffffffffffffffffffffffffffffffffffffffff16145b61115c576040517f08c379a0000000000000000000000000000000000000000000000000000000008152600401611153906157e5565b60405180910390fd5b600080600281111561117157611170615d1c565b5b60008054906101000a900460ff16600281111561119157611190615d1c565b5b146111d1576040517f08c379a00000000000000000000000000000000000000000000000000000000081526004016111c8906157a5565b60405180910390fd5b600760009054906101000a900460ff1615611221576040517f08c379a000000000000000000000000000000000000000000000000000000000815260040161121890615785565b60405180910390fd5b60016000806101000a81548160ff0219169083600281111561124657611245615d1c565b5b021790555050565b3073ffffffffffffffffffffffffffffffffffffffff16633b9f708d600760019054906101000a900473ffffffffffffffffffffffffffffffffffffffff166040518263ffffffff1660e01b81526004016112a991906150d5565b602060405180830381600087803b1580156112c357600080fd5b505af19250505080156112f457506040513d601f19601f820116820180604052508101906112f1919061485f565b60015b61151d57611300615da9565b806308c379a014156113ae5750611315616470565b80611320575061145b565b73__$acbfb1c35000d78352310b16a054a6b106$__63e8c2cb16826040518263ffffffff1660e01b81526004016113579190615605565b60206040518083038186803b15801561136f57600080fd5b505af4158015611383573d6000803e3d6000fd5b505050506040513d601f19601f820116820180604052508101906113a791906147bc565b5050611518565b634e487b71141561145b576113c1616506565b906113cc575061145b565b73__$acbfb1c35000d78352310b16a054a6b106$__6339df137f60006040518263ffffffff1660e01b8152600401611404919061531d565b60206040518083038186803b15801561141c57600080fd5b505af4158015611430573d6000803e3d6000fd5b505050506040513d601f19601f8201168201806040525081019061145491906147bc565b5050611518565b3d8060008114611487576040519150601f19603f3d011682016040523d82523d6000602084013e61148c565b606091505b5073__$acbfb1c35000d78352310b16a054a6b106$__6339df137f60006040518263ffffffff1660e01b81526004016114c591906152ef565b60206040518083038186803b1580156114dd57600080fd5b505af41580156114f1573d6000803e3d6000fd5b505050506040513d601f19601f8201168201806040525081019061151591906147bc565b50505b6115a8565b73__$acbfb1c35000d78352310b16a054a6b106$__6339df137f60006040518263ffffffff1660e01b8152600401611555919061534b565b60206040518083038186803b15801561156d57600080fd5b505af4158015611581573d6000803e3d6000fd5b505050506040513d601f19601f820116820180604052508101906115a591906147bc565b50505b565b3073ffffffffffffffffffffffffffffffffffffffff16636d77bd3e6040518163ffffffff1660e01b81526004016115e190615805565b602060405180830381600087803b1580156115fb57600080fd5b505af192505050801561162c57506040513d601f19601f82011682018060405250810190611629919061485f565b60015b61185557611638615da9565b806308c379a014156116e6575061164d616470565b806116585750611793565b73__$acbfb1c35000d78352310b16a054a6b106$__63e8c2cb16826040518263ffffffff1660e01b815260040161168f919061564d565b60206040518083038186803b1580156116a757600080fd5b505af41580156116bb573d6000803e3d6000fd5b505050506040513d601f19601f820116820180604052508101906116df91906147bc565b5050611850565b634e487b711415611793576116f9616506565b906117045750611793565b73__$acbfb1c35000d78352310b16a054a6b106$__6339df137f60006040518263ffffffff1660e01b815260040161173c919061531d565b60206040518083038186803b15801561175457600080fd5b505af4158015611768573d6000803e3d6000fd5b505050506040513d601f19601f8201168201806040525081019061178c91906147bc565b5050611850565b3d80600081146117bf576040519150601f19603f3d011682016040523d82523d6000602084013e6117c4565b606091505b5073__$acbfb1c35000d78352310b16a054a6b106$__6339df137f60006040518263ffffffff1660e01b81526004016117fd91906152ef565b60206040518083038186803b15801561181557600080fd5b505af4158015611829573d6000803e3d6000fd5b505050506040513d601f19601f8201168201806040525081019061184d91906147bc565b50505b6118e2565b73__$acbfb1c35000d78352310b16a054a6b106$__63561015e28260036040518363ffffffff1660e01b815260040161188f929190615950565b60206040518083038186803b1580156118a757600080fd5b505af41580156118bb573d6000803e3d6000fd5b505050506040513d601f19601f820116820180604052508101906118df91906147bc565b50505b565b60008054906101000a900460ff1681565b60016000806101000a81548160ff0219169083600281111561191a57611919615d1c565b5b021790555073__$acbfb1c35000d78352310b16a054a6b106$__6339df137f6119436002613b4f565b6040518263ffffffff1660e01b815260040161195f9190615379565b60206040518083038186803b15801561197757600080fd5b505af415801561198b573d6000803e3d6000fd5b505050506040513d601f19601f820116820180604052508101906119af91906147bc565b50565b3073ffffffffffffffffffffffffffffffffffffffff16636d77bd3e6040518163ffffffff1660e01b81526004016119e990615765565b602060405180830381600087803b158015611a0357600080fd5b505af1925050508015611a3457506040513d601f19601f82011682018060405250810190611a31919061485f565b60015b611c5d57611a40615da9565b806308c379a01415611aee5750611a55616470565b80611a605750611b9b565b73__$acbfb1c35000d78352310b16a054a6b106$__63e8c2cb16826040518263ffffffff1660e01b8152600401611a979190615695565b60206040518083038186803b158015611aaf57600080fd5b505af4158015611ac3573d6000803e3d6000fd5b505050506040513d601f19601f82011682018060405250810190611ae791906147bc565b5050611c58565b634e487b711415611b9b57611b01616506565b90611b0c5750611b9b565b73__$acbfb1c35000d78352310b16a054a6b106$__6339df137f60006040518263ffffffff1660e01b8152600401611b44919061531d565b60206040518083038186803b158015611b5c57600080fd5b505af4158015611b70573d6000803e3d6000fd5b505050506040513d601f19601f82011682018060405250810190611b9491906147bc565b5050611c58565b3d8060008114611bc7576040519150601f19603f3d011682016040523d82523d6000602084013e611bcc565b606091505b5073__$acbfb1c35000d78352310b16a054a6b106$__6339df137f60006040518263ffffffff1660e01b8152600401611c0591906152ef565b60206040518083038186803b158015611c1d57600080fd5b505af4158015611c31573d6000803e3d6000fd5b505050506040513d601f19601f82011682018060405250810190611c5591906147bc565b50505b611ce8565b73__$acbfb1c35000d78352310b16a054a6b106$__6339df137f60006040518263ffffffff1660e01b8152600401611c9591906153d5565b60206040518083038186803b158015611cad57600080fd5b505af4158015611cc1573d6000803e3d6000fd5b505050506040513d601f19601f82011682018060405250810190611ce591906147bc565b50505b565b60007f000000000000000000000000000000000000000000000000000000000000000073ffffffffffffffffffffffffffffffffffffffff163273ffffffffffffffffffffffffffffffffffffffff161480611d9157507f000000000000000000000000000000000000000000000000000000000000000073ffffffffffffffffffffffffffffffffffffffff163373ffffffffffffffffffffffffffffffffffffffff16145b611dd0576040517f08c379a0000000000000000000000000000000000000000000000000000000008152600401611dc7906157e5565b60405180910390fd5b81600080600190505b600360009054906101000a900460ff1660ff168160ff1611611e7d5782604051602001611e069190615050565b60405160208183030381529060405280519060200120600160008360ff1660ff168152602001908152602001600020604051602001611e459190615067565b604051602081830303815290604052805190602001201415611e6a5760019150611e7d565b8080611e7590615c94565b915050611dd9565b508015611ebf576040517f08c379a0000000000000000000000000000000000000000000000000000000008152600401611eb690615825565b60405180910390fd5b6000806002811115611ed457611ed3615d1c565b5b60008054906101000a900460ff166002811115611ef457611ef3615d1c565b5b14611f34576040517f08c379a0000000000000000000000000000000000000000000000000000000008152600401611f2b906157a5565b60405180910390fd5b600760009054906101000a900460ff1615611f84576040517f08c379a0000000000000000000000000000000000000000000000000000000008152600401611f7b90615785565b60405180910390fd5b6003600081819054906101000a900460ff1680929190611fa390615c94565b91906101000a81548160ff021916908360ff160217905550508460016000600360009054906101000a900460ff1660ff1660ff1681526020019081526020016000209080519060200190611ff89291906144fd565b50600360009054906101000a900460ff169350505050919050565b7f000000000000000000000000000000000000000000000000000000000000000073ffffffffffffffffffffffffffffffffffffffff163273ffffffffffffffffffffffffffffffffffffffff1614806120b857507f000000000000000000000000000000000000000000000000000000000000000073ffffffffffffffffffffffffffffffffffffffff163373ffffffffffffffffffffffffffffffffffffffff16145b6120f7576040517f08c379a00000000000000000000000000000000000000000000000000000000081526004016120ee906157e5565b60405180910390fd5b600760009054906101000a900460ff1615600760006101000a81548160ff021916908315150217905550565b600760009054906101000a900460ff1681565b3073ffffffffffffffffffffffffffffffffffffffff16633b9f708d600b60009054906101000a900473ffffffffffffffffffffffffffffffffffffffff166040518263ffffffff1660e01b81526004016121919190615103565b602060405180830381600087803b1580156121ab57600080fd5b505af19250505080156121dc57506040513d601f19601f820116820180604052508101906121d9919061485f565b60015b612405576121e8615da9565b806308c379a0141561229657506121fd616470565b806122085750612343565b73__$acbfb1c35000d78352310b16a054a6b106$__63e8c2cb16826040518263ffffffff1660e01b815260040161223f919061564d565b60206040518083038186803b15801561225757600080fd5b505af415801561226b573d6000803e3d6000fd5b505050506040513d601f19601f8201168201806040525081019061228f91906147bc565b5050612400565b634e487b711415612343576122a9616506565b906122b45750612343565b73__$acbfb1c35000d78352310b16a054a6b106$__6339df137f60006040518263ffffffff1660e01b81526004016122ec91906152c1565b60206040518083038186803b15801561230457600080fd5b505af4158015612318573d6000803e3d6000fd5b505050506040513d601f19601f8201168201806040525081019061233c91906147bc565b5050612400565b3d806000811461236f576040519150601f19603f3d011682016040523d82523d6000602084013e612374565b606091505b5073__$acbfb1c35000d78352310b16a054a6b106$__6339df137f60006040518263ffffffff1660e01b81526004016123ad9190615265565b60206040518083038186803b1580156123c557600080fd5b505af41580156123d9573d6000803e3d6000fd5b505050506040513d601f19601f820116820180604052508101906123fd91906147bc565b50505b612490565b73__$acbfb1c35000d78352310b16a054a6b106$__6339df137f60006040518263ffffffff1660e01b815260040161243d91906153a7565b60206040518083038186803b15801561245557600080fd5b505af4158015612469573d6000803e3d6000fd5b505050506040513d601f19601f8201168201806040525081019061248d91906147bc565b50505b565b73__$1068a87eb54ed04c4e435de35b2ebf536f$__63ce88b14560006040518263ffffffff1660e01b81526004016124ca919061541e565b60206040518083038186803b1580156124e257600080fd5b505af41580156124f6573d6000803e3d6000fd5b505050506040513d601f19601f8201168201806040525081019061251a9190614733565b600760016101000a81548173ffffffffffffffffffffffffffffffffffffffff021916908373ffffffffffffffffffffffffffffffffffffffff16021790555073__$1068a87eb54ed04c4e435de35b2ebf536f$__63ce88b14560016040518263ffffffff1660e01b81526004016125929190615439565b60206040518083038186803b1580156125aa57600080fd5b505af41580156125be573d6000803e3d6000fd5b505050506040513d601f19601f820116820180604052508101906125e29190614733565b600860006101000a81548173ffffffffffffffffffffffffffffffffffffffff021916908373ffffffffffffffffffffffffffffffffffffffff16021790555073__$1068a87eb54ed04c4e435de35b2ebf536f$__63ce88b14560026040518263ffffffff1660e01b815260040161265a919061546f565b60206040518083038186803b15801561267257600080fd5b505af4158015612686573d6000803e3d6000fd5b505050506040513d601f19601f820116820180604052508101906126aa9190614733565b600960006101000a81548173ffffffffffffffffffffffffffffffffffffffff021916908373ffffffffffffffffffffffffffffffffffffffff16021790555073__$1068a87eb54ed04c4e435de35b2ebf536f$__63ce88b14560036040518263ffffffff1660e01b815260040161272291906154a5565b60206040518083038186803b15801561273a57600080fd5b505af415801561274e573d6000803e3d6000fd5b505050506040513d601f19601f820116820180604052508101906127729190614733565b600a60006101000a81548173ffffffffffffffffffffffffffffffffffffffff021916908373ffffffffffffffffffffffffffffffffffffffff16021790555073__$1068a87eb54ed04c4e435de35b2ebf536f$__63ce88b14560056040518263ffffffff1660e01b81526004016127ea91906154c0565b60206040518083038186803b15801561280257600080fd5b505af4158015612816573d6000803e3d6000fd5b505050506040513d601f19601f8201168201806040525081019061283a9190614733565b600b60006101000a81548173ffffffffffffffffffffffffffffffffffffffff021916908373ffffffffffffffffffffffffffffffffffffffff16021790555060008060006101000a81548160ff0219169083600281111561289f5761289e615d1c565b5b02179055506000600760006101000a81548160ff021916908315150217905550565b73__$acbfb1c35000d78352310b16a054a6b106$__63abcd796061293c600760019054906101000a900473ffffffffffffffffffffffffffffffffffffffff166040518060400160405280600581526020017f416c6963650000000000000000000000000000000000000000000000000000008152506109b4565b60016040518363ffffffff1660e01b815260040161295b92919061589c565b60206040518083038186803b15801561297357600080fd5b505af4158015612987573d6000803e3d6000fd5b505050506040513d601f19601f820116820180604052508101906129ab91906147bc565b5073__$acbfb1c35000d78352310b16a054a6b106$__63abcd7960612a27600860009054906101000a900473ffffffffffffffffffffffffffffffffffffffff166040518060400160405280600381526020017f426f6200000000000000000000000000000000000000000000000000000000008152506109b4565b60026040518363ffffffff1660e01b8152600401612a469291906158d8565b60206040518083038186803b158015612a5e57600080fd5b505af4158015612a72573d6000803e3d6000fd5b505050506040513d601f19601f82011682018060405250810190612a9691906147bc565b5073__$acbfb1c35000d78352310b16a054a6b106$__63abcd7960612b12600960009054906101000a900473ffffffffffffffffffffffffffffffffffffffff166040518060400160405280600781526020017f436861726c6965000000000000000000000000000000000000000000000000008152506109b4565b60036040518363ffffffff1660e01b8152600401612b31929190615914565b60206040518083038186803b158015612b4957600080fd5b505af4158015612b5d573d6000803e3d6000fd5b505050506040513d601f19601f82011682018060405250810190612b8191906147bc565b5073__$acbfb1c35000d78352310b16a054a6b106$__63abcd7960612bfd600a60009054906101000a900473ffffffffffffffffffffffffffffffffffffffff166040518060400160405280600381526020017f45766500000000000000000000000000000000000000000000000000000000008152506109b4565b60046040518363ffffffff1660e01b8152600401612c1c92919061598c565b60206040518083038186803b158015612c3457600080fd5b505af4158015612c48573d6000803e3d6000fd5b505050506040513d601f19601f82011682018060405250810190612c6c91906147bc565b50565b73__$acbfb1c35000d78352310b16a054a6b106$__63bfba5dd67f0000000000000000000000000000000000000000000000000000000000000000600760019054906101000a900473ffffffffffffffffffffffffffffffffffffffff166040518363ffffffff1660e01b8152600401612cea929190615099565b60206040518083038186803b158015612d0257600080fd5b505af4158015612d16573d6000803e3d6000fd5b505050506040513d601f19601f82011682018060405250810190612d3a91906147bc565b50565b60016000806101000a81548160ff02191690836002811115612d6257612d61615d1c565b5b021790555073__$acbfb1c35000d78352310b16a054a6b106$__6339df137f612d8b6001613b4f565b6040518263ffffffff1660e01b8152600401612da79190615379565b60206040518083038186803b158015612dbf57600080fd5b505af4158015612dd3573d6000803e3d6000fd5b505050506040513d601f19601f82011682018060405250810190612df791906147bc565b50565b600360029054906101000a900460ff1681565b60026000806101000a81548160ff02191690836002811115612e3257612e31615d1c565b5b02179055503073ffffffffffffffffffffffffffffffffffffffff1663e9b16ca360016040518263ffffffff1660e01b8152600401612e719190615454565b602060405180830381600087803b158015612e8b57600080fd5b505af1925050508015612ebc57506040513d601f19601f82011682018060405250810190612eb991906147bc565b60015b6130e557612ec8615da9565b806308c379a01415612f765750612edd616470565b80612ee85750613023565b73__$acbfb1c35000d78352310b16a054a6b106$__63e8c2cb16826040518263ffffffff1660e01b8152600401612f1f91906155bd565b60206040518083038186803b158015612f3757600080fd5b505af4158015612f4b573d6000803e3d6000fd5b505050506040513d601f19601f82011682018060405250810190612f6f91906147bc565b50506130e0565b634e487b71141561302357612f89616506565b90612f945750613023565b73__$acbfb1c35000d78352310b16a054a6b106$__6339df137f60006040518263ffffffff1660e01b8152600401612fcc919061531d565b60206040518083038186803b158015612fe457600080fd5b505af4158015612ff8573d6000803e3d6000fd5b505050506040513d601f19601f8201168201806040525081019061301c91906147bc565b50506130e0565b3d806000811461304f576040519150601f19603f3d011682016040523d82523d6000602084013e613054565b606091505b5073__$acbfb1c35000d78352310b16a054a6b106$__6339df137f60006040518263ffffffff1660e01b815260040161308d9190615265565b60206040518083038186803b1580156130a557600080fd5b505af41580156130b9573d6000803e3d6000fd5b505050506040513d601f19601f820116820180604052508101906130dd91906147bc565b50505b613172565b73__$acbfb1c35000d78352310b16a054a6b106$__63767392b38260016040518363ffffffff1660e01b815260040161311f9291906151ed565b60206040518083038186803b15801561313757600080fd5b505af415801561314b573d6000803e3d6000fd5b505050506040513d601f19601f8201168201806040525081019061316f91906147bc565b50505b565b3073ffffffffffffffffffffffffffffffffffffffff1663b92239466040518163ffffffff1660e01b8152600401600060405180830381600087803b1580156131bc57600080fd5b505af11580156131d0573d6000803e3d6000fd5b5050505073__$acbfb1c35000d78352310b16a054a6b106$__63e8c2cb1660046040518263ffffffff1660e01b815260040161320c91906156dd565b60206040518083038186803b15801561322457600080fd5b505af4158015613238573d6000803e3d6000fd5b505050506040513d601f19601f8201168201806040525081019061325c91906147bc565b50565b60016000806101000a81548160ff0219169083600281111561328457613283615d1c565b5b021790555073__$acbfb1c35000d78352310b16a054a6b106$__63767392b36132ad6001613b4f565b60006040518363ffffffff1660e01b81526004016132cc9291906151b1565b60206040518083038186803b1580156132e457600080fd5b505af41580156132f8573d6000803e3d6000fd5b505050506040513d601f19601f8201168201806040525081019061331c91906147bc565b50565b600360009054906101000a900460ff1681565b7f000000000000000000000000000000000000000000000000000000000000000073ffffffffffffffffffffffffffffffffffffffff163273ffffffffffffffffffffffffffffffffffffffff1614806133d757507f000000000000000000000000000000000000000000000000000000000000000073ffffffffffffffffffffffffffffffffffffffff163373ffffffffffffffffffffffffffffffffffffffff16145b613416576040517f08c379a000000000000000000000000000000000000000000000000000000000815260040161340d906157e5565b60405180910390fd5b600280600281111561342b5761342a615d1c565b5b60008054906101000a900460ff16600281111561344b5761344a615d1c565b5b1461348b576040517f08c379a0000000000000000000000000000000000000000000000000000000008152600401613482906157a5565b60405180910390fd5b600060016002600360019054906101000a900460ff166134ab9190615aa2565b6134b59190615a6b565b60ff16600360029054906101000a900460ff1660ff16106134d557600190505b80613515576040517f08c379a000000000000000000000000000000000000000000000000000000000815260040161350c90615725565b60405180910390fd5b600760009054906101000a900460ff1615613565576040517f08c379a000000000000000000000000000000000000000000000000000000000815260040161355c90615785565b60405180910390fd5b61356d614333565b5050565b73__$acbfb1c35000d78352310b16a054a6b106$__63abcd796060008054906101000a900460ff1660028111156135ab576135aa615d1c565b5b6002808111156135be576135bd615d1c565b5b6040518363ffffffff1660e01b81526004016135db929190615845565b60206040518083038186803b1580156135f357600080fd5b505af4158015613607573d6000803e3d6000fd5b505050506040513d601f19601f8201168201806040525081019061362b91906147bc565b50565b60016000806101000a81548160ff0219169083600281111561365357613652615d1c565b5b021790555073__$acbfb1c35000d78352310b16a054a6b106$__63767392b361367c6003613b4f565b60006040518363ffffffff1660e01b815260040161369b929190615229565b60206040518083038186803b1580156136b357600080fd5b505af41580156136c7573d6000803e3d6000fd5b505050506040513d601f19601f820116820180604052508101906136eb91906147bc565b50565b60056020528060005260406000206000915090508060000160009054906101000a900473ffffffffffffffffffffffffffffffffffffffff16908060000160149054906101000a900460ff16905082565b6004805461374c90615c31565b80601f016020809104026020016040519081016040528092919081815260200182805461377890615c31565b80156137c55780601f1061379a576101008083540402835291602001916137c5565b820191906000526020600020905b8154815290600101906020018083116137a857829003601f168201915b505050505081565b6001600760006101000a81548160ff02191690831515021790555060016000806101000a81548160ff0219169083600281111561380d5761380c615d1c565b5b02179055503073ffffffffffffffffffffffffffffffffffffffff1663e9b16ca360016040518263ffffffff1660e01b815260040161384c9190615454565b602060405180830381600087803b15801561386657600080fd5b505af192505050801561389757506040513d601f19601f8201168201806040525081019061389491906147bc565b60015b613ac0576138a3615da9565b806308c379a0141561395157506138b8616470565b806138c357506139fe565b73__$acbfb1c35000d78352310b16a054a6b106$__63e8c2cb16826040518263ffffffff1660e01b81526004016138fa9190615575565b60206040518083038186803b15801561391257600080fd5b505af4158015613926573d6000803e3d6000fd5b505050506040513d601f19601f8201168201806040525081019061394a91906147bc565b5050613abb565b634e487b7114156139fe57613964616506565b9061396f57506139fe565b73__$acbfb1c35000d78352310b16a054a6b106$__6339df137f60006040518263ffffffff1660e01b81526004016139a7919061531d565b60206040518083038186803b1580156139bf57600080fd5b505af41580156139d3573d6000803e3d6000fd5b505050506040513d601f19601f820116820180604052508101906139f791906147bc565b5050613abb565b3d8060008114613a2a576040519150601f19603f3d011682016040523d82523d6000602084013e613a2f565b606091505b5073__$acbfb1c35000d78352310b16a054a6b106$__6339df137f60006040518263ffffffff1660e01b8152600401613a689190615265565b60206040518083038186803b158015613a8057600080fd5b505af4158015613a94573d6000803e3d6000fd5b505050506040513d601f19601f82011682018060405250810190613ab891906147bc565b50505b613b4d565b73__$acbfb1c35000d78352310b16a054a6b106$__63767392b38260016040518363ffffffff1660e01b8152600401613afa9291906151ed565b60206040518083038186803b158015613b1257600080fd5b505af4158015613b26573d6000803e3d6000fd5b505050506040513d601f19601f82011682018060405250810190613b4a91906147bc565b50505b565b60003360001515600260008373ffffffffffffffffffffffffffffffffffffffff1673ffffffffffffffffffffffffffffffffffffffff16815260200190815260200160002060010160009054906101000a900460ff16151514613be8576040517f08c379a0000000000000000000000000000000000000000000000000000000008152600401613bdf90615745565b60405180910390fd5b6001806002811115613bfd57613bfc615d1c565b5b60008054906101000a900460ff166002811115613c1d57613c1c615d1c565b5b14613c5d576040517f08c379a0000000000000000000000000000000000000000000000000000000008152600401613c54906157a5565b60405180910390fd5b600760009054906101000a900460ff1615613cad576040517f08c379a0000000000000000000000000000000000000000000000000000000008152600401613ca490615785565b60405180910390fd5b600092506000600260003373ffffffffffffffffffffffffffffffffffffffff1673ffffffffffffffffffffffffffffffffffffffff1681526020019081526020016000206000018054613d0090615c31565b905014613e8e576000600160008660ff1660ff1681526020019081526020016000208054613d2d90615c31565b905014613e8d57600192506001600260003373ffffffffffffffffffffffffffffffffffffffff1673ffffffffffffffffffffffffffffffffffffffff16815260200190815260200160002060010160006101000a81548160ff0219169083151502179055506003600281819054906101000a900460ff1680929190613db290615c94565b91906101000a81548160ff021916908360ff1602179055505060405180604001604052803373ffffffffffffffffffffffffffffffffffffffff1681526020018560ff1681525060056000600360029054906101000a900460ff1660ff1660ff16815260200190815260200160002060008201518160000160006101000a81548173ffffffffffffffffffffffffffffffffffffffff021916908373ffffffffffffffffffffffffffffffffffffffff16021790555060208201518160000160146101000a81548160ff021916908360ff1602179055509050505b5b60016002600360019054906101000a900460ff16613eac9190615aa2565b613eb69190615a6b565b60ff16600360029054906101000a900460ff1660ff1610613efc5760026000806101000a81548160ff02191690836002811115613ef657613ef5615d1c565b5b02179055505b5050919050565b7f000000000000000000000000000000000000000000000000000000000000000073ffffffffffffffffffffffffffffffffffffffff163273ffffffffffffffffffffffffffffffffffffffff161480613fa857507f000000000000000000000000000000000000000000000000000000000000000073ffffffffffffffffffffffffffffffffffffffff163373ffffffffffffffffffffffffffffffffffffffff16145b613fe7576040517f08c379a0000000000000000000000000000000000000000000000000000000008152600401613fde906157e5565b60405180910390fd5b6001806002811115613ffc57613ffb615d1c565b5b60008054906101000a900460ff16600281111561401c5761401b615d1c565b5b1461405c576040517f08c379a0000000000000000000000000000000000000000000000000000000008152600401614053906157a5565b60405180910390fd5b600760009054906101000a900460ff16156140ac576040517f08c379a00000000000000000000000000000000000000000000000000000000081526004016140a390615785565b60405180910390fd5b60008060006101000a81548160ff021916908360028111156140d1576140d0615d1c565b5b021790555050565b60008060006101000a81548160ff021916908360028111156140fe576140fd615d1c565b5b02179055503073ffffffffffffffffffffffffffffffffffffffff1663b92239466040518163ffffffff1660e01b8152600401600060405180830381600087803b15801561414b57600080fd5b505af192505050801561415c575060015b6142a757614168615da9565b806308c379a01415614216575061417d616470565b806141885750614218565b73__$acbfb1c35000d78352310b16a054a6b106$__63e8c2cb16826040518263ffffffff1660e01b81526004016141bf91906155bd565b60206040518083038186803b1580156141d757600080fd5b505af41580156141eb573d6000803e3d6000fd5b505050506040513d601f19601f8201168201806040525081019061420f91906147bc565b50506142a2565b505b73__$acbfb1c35000d78352310b16a054a6b106$__6339df137f60006040518263ffffffff1660e01b81526004016142509190615293565b60206040518083038186803b15801561426857600080fd5b505af415801561427c573d6000803e3d6000fd5b505050506040513d601f19601f820116820180604052508101906142a091906147bc565b505b614331565b73__$acbfb1c35000d78352310b16a054a6b106$__6339df137f60006040518263ffffffff1660e01b81526004016142df91906153d5565b60206040518083038186803b1580156142f757600080fd5b505af415801561430b573d6000803e3d6000fd5b505050506040513d601f19601f8201168201806040525081019061432f91906147bc565b505b565b6000806000600190505b600360029054906101000a900460ff1660ff168160ff16116144c557600060019050600060066000600560008660ff1660ff16815260200190815260200160002060000160149054906101000a900460ff1660ff1660ff16815260200190815260200160002060009054906101000a900460ff1660ff1611156144185760066000600560008560ff1660ff16815260200190815260200160002060000160149054906101000a900460ff1660ff1660ff16815260200190815260200160002060009054906101000a900460ff16816144159190615a6b565b90505b8060066000600560008660ff1660ff16815260200190815260200160002060000160149054906101000a900460ff1660ff1660ff16815260200190815260200160002060006101000a81548160ff021916908360ff1602179055508360ff168160ff1611156144b157809350600560008360ff1660ff16815260200190815260200160002060000160149054906101000a900460ff1692505b5080806144bd90615c94565b91505061433d565b50600160008260ff1660ff16815260200190815260200160002060049080546144ed90615c31565b6144f8929190614583565b505050565b82805461450990615c31565b90600052602060002090601f01602090048101928261452b5760008555614572565b82601f1061454457805160ff1916838001178555614572565b82800160010185558215614572579182015b82811115614571578251825591602001919060010190614556565b5b50905061457f9190614610565b5090565b82805461458f90615c31565b90600052602060002090601f0160209004810192826145b157600085556145ff565b82601f106145c257805485556145ff565b828001600101855582156145ff57600052602060002091601f016020900482015b828111156145fe5782548255916001019190600101906145e3565b5b50905061460c9190614610565b5090565b5b80821115614629576000816000905550600101614611565b5090565b600061464061463b846159ed565b6159c8565b90508281526020810184848401111561465c5761465b615dd0565b5b614667848285615bef565b509392505050565b60008135905061467e8161653b565b92915050565b6000815190506146938161653b565b92915050565b6000815190506146a881616552565b92915050565b600082601f8301126146c3576146c2615dcb565b5b81356146d384826020860161462d565b91505092915050565b6000813590506146eb81616569565b92915050565b60008151905061470081616569565b92915050565b60006020828403121561471c5761471b615dda565b5b600061472a8482850161466f565b91505092915050565b60006020828403121561474957614748615dda565b5b600061475784828501614684565b91505092915050565b6000806040838503121561477757614776615dda565b5b60006147858582860161466f565b925050602083013567ffffffffffffffff8111156147a6576147a5615dd5565b5b6147b2858286016146ae565b9150509250929050565b6000602082840312156147d2576147d1615dda565b5b60006147e084828501614699565b91505092915050565b6000602082840312156147ff576147fe615dda565b5b600082013567ffffffffffffffff81111561481d5761481c615dd5565b5b614829848285016146ae565b91505092915050565b60006020828403121561484857614847615dda565b5b6000614856848285016146dc565b91505092915050565b60006020828403121561487557614874615dda565b5b6000614883848285016146f1565b91505092915050565b61489581615ad3565b82525050565b6148a481615ad3565b82525050565b6148b381615ae5565b82525050565b6148c281615ae5565b82525050565b6148d181615b3b565b82525050565b6148e081615b4d565b82525050565b6148ef81615b5f565b82525050565b6148fe81615b71565b82525050565b61490d81615b83565b82525050565b61491c81615b95565b82525050565b61492b81615ba7565b82525050565b61493a81615bb9565b82525050565b61494981615bcb565b82525050565b600061495a82615a33565b6149648185615a3e565b9350614974818560208601615bfe565b61497d81615ddf565b840191505092915050565b600061499382615a33565b61499d8185615a4f565b93506149ad818560208601615bfe565b6149b681615ddf565b840191505092915050565b60006149cc82615a33565b6149d68185615a60565b93506149e6818560208601615bfe565b80840191505092915050565b600081546149ff81615c31565b614a098186615a4f565b94506001821660008114614a245760018114614a3657614a69565b60ff1983168652602086019350614a69565b614a3f85615a1e565b60005b83811015614a6157815481890152600182019150602081019050614a42565b808801955050505b50505092915050565b60008154614a7f81615c31565b614a898186615a60565b94506001821660008114614aa45760018114614ab557614ae8565b60ff19831686528186019350614ae8565b614abe85615a1e565b60005b83811015614ae057815481890152600182019150602081019050614ac1565b838801955050505b50505092915050565b6000614afe601383615a4f565b9150614b0982615dfd565b602082019050919050565b6000614b21602683615a3e565b9150614b2c82615e26565b604082019050919050565b6000614b44601d83615a4f565b9150614b4f82615e75565b602082019050919050565b6000614b67601383615a3e565b9150614b7282615e9e565b602082019050919050565b6000614b8a601383615a4f565b9150614b9582615e9e565b602082019050919050565b6000614bad601c83615a4f565b9150614bb882615ec7565b602082019050919050565b6000614bd0600883615a3e565b9150614bdb82615ef0565b602082019050919050565b6000614bf3600883615a4f565b9150614bfe82615ef0565b602082019050919050565b6000614c16601483615a4f565b9150614c2182615f19565b602082019050919050565b6000614c39601483615a4f565b9150614c4482615f42565b602082019050919050565b6000614c5c601483615a4f565b9150614c6782615f6b565b602082019050919050565b6000614c7f602983615a4f565b9150614c8a82615f94565b604082019050919050565b6000614ca2601183615a4f565b9150614cad82615fe3565b602082019050919050565b6000614cc5601483615a3e565b9150614cd08261600c565b602082019050919050565b6000614ce8601483615a4f565b9150614cf38261600c565b602082019050919050565b6000614d0b602983615a3e565b9150614d1682616035565b604082019050919050565b6000614d2e602983615a4f565b9150614d3982616035565b604082019050919050565b6000614d51601683615a3e565b9150614d5c82616084565b602082019050919050565b6000614d74601683615a4f565b9150614d7f82616084565b602082019050919050565b6000614d97601783615a4f565b9150614da2826160ad565b602082019050919050565b6000614dba602183615a4f565b9150614dc5826160d6565b604082019050919050565b6000614ddd602283615a4f565b9150614de882616125565b604082019050919050565b6000614e00603183615a4f565b9150614e0b82616174565b604082019050919050565b6000614e23601c83615a4f565b9150614e2e826161c3565b602082019050919050565b6000614e46603783615a4f565b9150614e51826161ec565b604082019050919050565b6000614e69601483615a4f565b9150614e748261623b565b602082019050919050565b6000614e8c600583615a3e565b9150614e9782616264565b602082019050919050565b6000614eaf602383615a3e565b9150614eba8261628d565b604082019050919050565b6000614ed2602383615a4f565b9150614edd8261628d565b604082019050919050565b6000614ef5602683615a4f565b9150614f00826162dc565b604082019050919050565b6000614f18601d83615a4f565b9150614f238261632b565b602082019050919050565b6000614f3b600b83615a3e565b9150614f4682616354565b602082019050919050565b6000614f5e601d83615a4f565b9150614f698261637d565b602082019050919050565b6000614f81601a83615a3e565b9150614f8c826163a6565b602082019050919050565b6000614fa4601a83615a4f565b9150614faf826163a6565b602082019050919050565b6000614fc7603483615a4f565b9150614fd2826163cf565b604082019050919050565b6000614fea601683615a4f565b9150614ff58261641e565b602082019050919050565b600061500d600783615a3e565b915061501882616447565b602082019050919050565b61502c81615b24565b82525050565b61503b81615bdd565b82525050565b61504a81615b2e565b82525050565b600061505c82846149c1565b915081905092915050565b60006150738284614a72565b915081905092915050565b6000602082019050615093600083018461488c565b92915050565b60006060820190506150ae600083018561489b565b6150bb602083018461489b565b81810360408301526150cc81614fdd565b90509392505050565b60006040820190506150ea600083018461488c565b81810360208301526150fb81614e7f565b905092915050565b6000604082019050615118600083018461488c565b818103602083015261512981615000565b905092915050565b6000604082019050615146600083018561488c565b6151536020830184615041565b9392505050565b600060208201905061516f60008301846148aa565b92915050565b600060608201905061518a60008301856148b9565b61519760208301846148b9565b81810360408301526151a881614df3565b90509392505050565b60006060820190506151c660008301856148b9565b6151d360208301846148b9565b81810360408301526151e481614f0b565b90509392505050565b600060608201905061520260008301856148b9565b61520f60208301846148b9565b818103604083015261522081614f51565b90509392505050565b600060608201905061523e60008301856148b9565b61524b60208301846148b9565b818103604083015261525c81614fba565b90509392505050565b600060408201905061527a60008301846148b9565b818103602083015261528b81614af1565b905092915050565b60006040820190506152a860008301846148b9565b81810360208301526152b981614ba0565b905092915050565b60006040820190506152d660008301846148b9565b81810360208301526152e781614c72565b905092915050565b600060408201905061530460008301846148b9565b818103602083015261531581614c95565b905092915050565b600060408201905061533260008301846148b9565b818103602083015261534381614dad565b905092915050565b600060408201905061536060008301846148b9565b818103602083015261537181614dd0565b905092915050565b600060408201905061538e60008301846148b9565b818103602083015261539f81614e16565b905092915050565b60006040820190506153bc60008301846148b9565b81810360208301526153cd81614e39565b905092915050565b60006040820190506153ea60008301846148b9565b81810360208301526153fb81614f51565b905092915050565b600060208201905061541860008301846148c8565b92915050565b600060208201905061543360008301846148d7565b92915050565b600060208201905061544e60008301846148e6565b92915050565b600060208201905061546960008301846148f5565b92915050565b60006020820190506154846000830184614904565b92915050565b600060208201905061549f6000830184614913565b92915050565b60006020820190506154ba6000830184614922565b92915050565b60006020820190506154d56000830184614940565b92915050565b600060208201905081810360008301526154f5818461494f565b905092915050565b60006040820190508181036000830152615517818561494f565b905061552660208301846148aa565b9392505050565b600060608201905081810360008301526155478184614988565b9050818103602083015261555a81614b7d565b9050818103604083015261556d81614b37565b905092915050565b6000606082019050818103600083015261558f8184614988565b905081810360208301526155a281614cdb565b905081810360408301526155b581614b37565b905092915050565b600060608201905081810360008301526155d78184614988565b905081810360208301526155ea81614d21565b905081810360408301526155fd81614b37565b905092915050565b6000606082019050818103600083015261561f8184614988565b9050818103602083015261563281614d67565b9050818103604083015261564581614b37565b905092915050565b600060608201905081810360008301526156678184614988565b9050818103602083015261567a81614ec5565b9050818103604083015261568d81614b37565b905092915050565b600060608201905081810360008301526156af8184614988565b905081810360208301526156c281614f97565b905081810360408301526156d581614b37565b905092915050565b600060608201905081810360008301526156f781846149f2565b9050818103602083015261570a81614be6565b9050818103604083015261571d81614ee8565b905092915050565b6000602082019050818103600083015261573e81614b14565b9050919050565b6000602082019050818103600083015261575e81614b5a565b9050919050565b6000602082019050818103600083015261577e81614bc3565b9050919050565b6000602082019050818103600083015261579e81614cb8565b9050919050565b600060208201905081810360008301526157be81614cfe565b9050919050565b600060208201905081810360008301526157de81614d44565b9050919050565b600060208201905081810360008301526157fe81614ea2565b9050919050565b6000602082019050818103600083015261581e81614f2e565b9050919050565b6000602082019050818103600083015261583e81614f74565b9050919050565b600060608201905061585a6000830185615023565b6158676020830184615023565b818103604083015261587881614d8a565b90509392505050565b60006020820190506158966000830184615041565b92915050565b60006060820190506158b16000830185615032565b6158be60208301846148e6565b81810360408301526158cf81614e5c565b90509392505050565b60006060820190506158ed6000830185615032565b6158fa6020830184614904565b818103604083015261590b81614c09565b90509392505050565b60006060820190506159296000830185615032565b6159366020830184614922565b818103604083015261594781614c4f565b90509392505050565b60006060820190506159656000830185615032565b6159726020830184614922565b818103604083015261598381614f51565b90509392505050565b60006060820190506159a16000830185615032565b6159ae6020830184614931565b81810360408301526159bf81614c2c565b90509392505050565b60006159d26159e3565b90506159de8282615c63565b919050565b6000604051905090565b600067ffffffffffffffff821115615a0857615a07615d7a565b5b615a1182615ddf565b9050602081019050919050565b60008190508160005260206000209050919050565b600081519050919050565b600082825260208201905092915050565b600082825260208201905092915050565b600081905092915050565b6000615a7682615b2e565b9150615a8183615b2e565b92508260ff03821115615a9757615a96615cbe565b5b828201905092915050565b6000615aad82615b2e565b9150615ab883615b2e565b925082615ac857615ac7615ced565b5b828204905092915050565b6000615ade82615b04565b9050919050565b60008115159050919050565b6000819050615aff82616527565b919050565b600073ffffffffffffffffffffffffffffffffffffffff82169050919050565b6000819050919050565b600060ff82169050919050565b6000615b4682615af1565b9050919050565b6000615b5882615b24565b9050919050565b6000615b6a82615b24565b9050919050565b6000615b7c82615b2e565b9050919050565b6000615b8e82615b24565b9050919050565b6000615ba082615b2e565b9050919050565b6000615bb282615b24565b9050919050565b6000615bc482615b24565b9050919050565b6000615bd682615b24565b9050919050565b6000615be882615b2e565b9050919050565b82818337600083830152505050565b60005b83811015615c1c578082015181840152602081019050615c01565b83811115615c2b576000848401525b50505050565b60006002820490506001821680615c4957607f821691505b60208210811415615c5d57615c5c615d4b565b5b50919050565b615c6c82615ddf565b810181811067ffffffffffffffff82111715615c8b57615c8a615d7a565b5b80604052505050565b6000615c9f82615b2e565b915060ff821415615cb357615cb2615cbe565b5b600182019050919050565b7f4e487b7100000000000000000000000000000000000000000000000000000000600052601160045260246000fd5b7f4e487b7100000000000000000000000000000000000000000000000000000000600052601260045260246000fd5b7f4e487b7100000000000000000000000000000000000000000000000000000000600052602160045260246000fd5b7f4e487b7100000000000000000000000000000000000000000000000000000000600052602260045260246000fd5b7f4e487b7100000000000000000000000000000000000000000000000000000000600052604160045260246000fd5b600060033d1115615dc85760046000803e615dc5600051615df0565b90505b90565b600080fd5b600080fd5b600080fd5b600080fd5b6000601f19601f8301169050919050565b60008160e01c9050919050565b7f4661696c656420756e65787065637465646c7900000000000000000000000000600082015250565b7f566f74696e672071756f72756d206973206e6f74206d65742e204b656570207660008201527f6f74696e672e0000000000000000000000000000000000000000000000000000602082015250565b7f4661696c6564207769746820756e657870656374656420726561736f6e000000600082015250565b7f43616e206f6e6c7920766f7465206f6e63652e00000000000000000000000000600082015250565b7f4661696c6564207769746820756e6578706563746564206572726f7200000000600082015250565b7f556e692043616665000000000000000000000000000000000000000000000000600082015250565b7f53686f756c6420626520657175616c20746f2032000000000000000000000000600082015250565b7f53686f756c6420626520657175616c20746f2034000000000000000000000000600082015250565b7f53686f756c6420626520657175616c20746f2033000000000000000000000000600082015250565b7f4661696c656420756e65787065637465646c7920776974682070616e6963206560008201527f72726f7220636f64650000000000000000000000000000000000000000000000602082015250565b7f4661696c656420756e6578706563746564000000000000000000000000000000600082015250565b7f436f6e74726163742069732073746f707065642e000000000000000000000000600082015250565b7f46756e6374696f6e2063616e206e6f742062652063616c6c656420696e20746860008201527f69732073746167652e0000000000000000000000000000000000000000000000602082015250565b7f467269656e6420616c7265616479206578697374732e00000000000000000000600082015250565b7f566f74696e672073686f756c6420626520636c6f736564000000000000000000600082015250565b7f4661696c656420756e65787065637465642077697468206572726f7220636f6460008201527f6500000000000000000000000000000000000000000000000000000000000000602082015250565b7f416464696e67206578697374696e6720667269656e642073686f756c6420666160008201527f696c000000000000000000000000000000000000000000000000000000000000602082015250565b7f53746f707065642073746174652073686f756c6420626520747275652061667460008201527f6572206d616e6167657227732063616c6c000000000000000000000000000000602082015250565b7f566f74696e6720726573756c742073686f756c64206265207472756500000000600082015250565b7f41646464696e6720667269656e6420617320612075736572206f74686572207460008201527f68616e206d616e616765722073686f756c64206661696c000000000000000000602082015250565b7f53686f756c6420626520657175616c20746f2031000000000000000000000000600082015250565b7f416c696365000000000000000000000000000000000000000000000000000000600082015250565b7f43616e206f6e6c7920626520657865637574656420627920746865206d616e6160008201527f6765720000000000000000000000000000000000000000000000000000000000602082015250565b7f53656c65637465642072657374617572616e742073686f756c6420626520556e60008201527f6920436166650000000000000000000000000000000000000000000000000000602082015250565b7f566f74696e6720726573756c742073686f756c642062652066616c7365000000600082015250565b7f41746f6d69632043616665000000000000000000000000000000000000000000600082015250565b7f4d6574686f6420657865637574696f6e20646964206e6f74206661696c000000600082015250565b7f52657374617572616e7420616c7265616479206578697374732e000000000000600082015250565b7f566f74696e6720726573756c742073686f756c642062652066616c736520666f60008201527f7220696e76616c69642072657374617572616e74000000000000000000000000602082015250565b7f4d616e616765722073686f756c64206265206163633000000000000000000000600082015250565b7f44616e69656c7300000000000000000000000000000000000000000000000000600082015250565b600060443d101561648057616503565b6164886159e3565b60043d036004823e80513d602482011167ffffffffffffffff821117156164b0575050616503565b808201805167ffffffffffffffff8111156164ce5750505050616503565b80602083010160043d0385018111156164eb575050505050616503565b6164fa82602001850186615c63565b82955050505050505b90565b60008060233d1115616523576020600460003e6001915060005190505b9091565b6003811061653857616537615d1c565b5b50565b61654481615ad3565b811461654f57600080fd5b50565b61655b81615ae5565b811461656657600080fd5b50565b61657281615b2e565b811461657d57600080fd5b5056fea2646970667358221220ab7ff77d9af21f3329291aa3004c24076549de39b311b28637723eaad86ced1564736f6c63430008050033",
			"opcodes": "PUSH1 0xA0 PUSH1 0x40 MSTORE PUSH1 0x0 DUP1 PUSH1 0x0 PUSH2 0x100 EXP DUP2 SLOAD DUP2 PUSH1 0xFF MUL NOT AND SWAP1 DUP4 PUSH1 0x2 DUP2 GT ISZERO PUSH3 0x2C JUMPI PUSH3 0x2B PUSH3 0x1F9 JUMP JUMPDEST JUMPDEST MUL OR SWAP1 SSTORE POP PUSH1 0x0 PUSH1 0x3 PUSH1 0x0 PUSH2 0x100 EXP DUP2 SLOAD DUP2 PUSH1 0xFF MUL NOT AND SWAP1 DUP4 PUSH1 0xFF AND MUL OR SWAP1 SSTORE POP PUSH1 0x0 PUSH1 0x3 PUSH1 0x1 PUSH2 0x100 EXP DUP2 SLOAD DUP2 PUSH1 0xFF MUL NOT AND SWAP1 DUP4 PUSH1 0xFF AND MUL OR SWAP1 SSTORE POP PUSH1 0x0 PUSH1 0x3 PUSH1 0x2 PUSH2 0x100 EXP DUP2 SLOAD DUP2 PUSH1 0xFF MUL NOT AND SWAP1 DUP4 PUSH1 0xFF AND MUL OR SWAP1 SSTORE POP PUSH1 0x40 MLOAD DUP1 PUSH1 0x20 ADD PUSH1 0x40 MSTORE DUP1 PUSH1 0x0 DUP2 MSTORE POP PUSH1 0x4 SWAP1 DUP1 MLOAD SWAP1 PUSH1 0x20 ADD SWAP1 PUSH3 0xAC SWAP3 SWAP2 SWAP1 PUSH3 0x113 JUMP JUMPDEST POP PUSH1 0x0 PUSH1 0x7 PUSH1 0x0 PUSH2 0x100 EXP DUP2 SLOAD DUP2 PUSH1 0xFF MUL NOT AND SWAP1 DUP4 ISZERO ISZERO MUL OR SWAP1 SSTORE POP CALLVALUE DUP1 ISZERO PUSH3 0xD5 JUMPI PUSH1 0x0 DUP1 REVERT JUMPDEST POP CALLER PUSH20 0xFFFFFFFFFFFFFFFFFFFFFFFFFFFFFFFFFFFFFFFF AND PUSH1 0x80 DUP2 PUSH20 0xFFFFFFFFFFFFFFFFFFFFFFFFFFFFFFFFFFFFFFFF AND PUSH1 0x60 SHL DUP2 MSTORE POP POP PUSH3 0x257 JUMP JUMPDEST DUP3 DUP1 SLOAD PUSH3 0x121 SWAP1 PUSH3 0x1C3 JUMP JUMPDEST SWAP1 PUSH1 0x0 MSTORE PUSH1 0x20 PUSH1 0x0 KECCAK256 SWAP1 PUSH1 0x1F ADD PUSH1 0x20 SWAP1 DIV DUP2 ADD SWAP3 DUP3 PUSH3 0x145 JUMPI PUSH1 0x0 DUP6 SSTORE PUSH3 0x191 JUMP JUMPDEST DUP3 PUSH1 0x1F LT PUSH3 0x160 JUMPI DUP1 MLOAD PUSH1 0xFF NOT AND DUP4 DUP1 ADD OR DUP6 SSTORE PUSH3 0x191 JUMP JUMPDEST DUP3 DUP1 ADD PUSH1 0x1 ADD DUP6 SSTORE DUP3 ISZERO PUSH3 0x191 JUMPI SWAP2 DUP3 ADD JUMPDEST DUP3 DUP2 GT ISZERO PUSH3 0x190 JUMPI DUP3 MLOAD DUP3 SSTORE SWAP2 PUSH1 0x20 ADD SWAP2 SWAP1 PUSH1 0x1 ADD SWAP1 PUSH3 0x173 JUMP JUMPDEST JUMPDEST POP SWAP1 POP PUSH3 0x1A0 SWAP2 SWAP1 PUSH3 0x1A4 JUMP JUMPDEST POP SWAP1 JUMP JUMPDEST JUMPDEST DUP1 DUP3 GT ISZERO PUSH3 0x1BF JUMPI PUSH1 0x0 DUP2 PUSH1 0x0 SWAP1 SSTORE POP PUSH1 0x1 ADD PUSH3 0x1A5 JUMP JUMPDEST POP SWAP1 JUMP JUMPDEST PUSH1 0x0 PUSH1 0x2 DUP3 DIV SWAP1 POP PUSH1 0x1 DUP3 AND DUP1 PUSH3 0x1DC JUMPI PUSH1 0x7F DUP3 AND SWAP2 POP JUMPDEST PUSH1 0x20 DUP3 LT DUP2 EQ ISZERO PUSH3 0x1F3 JUMPI PUSH3 0x1F2 PUSH3 0x228 JUMP JUMPDEST JUMPDEST POP SWAP2 SWAP1 POP JUMP JUMPDEST PUSH32 0x4E487B7100000000000000000000000000000000000000000000000000000000 PUSH1 0x0 MSTORE PUSH1 0x21 PUSH1 0x4 MSTORE PUSH1 0x24 PUSH1 0x0 REVERT JUMPDEST PUSH32 0x4E487B7100000000000000000000000000000000000000000000000000000000 PUSH1 0x0 MSTORE PUSH1 0x22 PUSH1 0x4 MSTORE PUSH1 0x24 PUSH1 0x0 REVERT JUMPDEST PUSH1 0x80 MLOAD PUSH1 0x60 SHR PUSH2 0x65B6 PUSH3 0x2D1 PUSH1 0x0 CODECOPY PUSH1 0x0 DUP2 DUP2 PUSH2 0x9B8 ADD MSTORE DUP2 DUP2 PUSH2 0xA0D ADD MSTORE DUP2 DUP2 PUSH2 0x1056 ADD MSTORE DUP2 DUP2 PUSH2 0x107A ADD MSTORE DUP2 DUP2 PUSH2 0x10CF ADD MSTORE DUP2 DUP2 PUSH2 0x1CEE ADD MSTORE DUP2 DUP2 PUSH2 0x1D43 ADD MSTORE DUP2 DUP2 PUSH2 0x2015 ADD MSTORE DUP2 DUP2 PUSH2 0x206A ADD MSTORE DUP2 DUP2 PUSH2 0x2C8B ADD MSTORE DUP2 DUP2 PUSH2 0x3334 ADD MSTORE DUP2 DUP2 PUSH2 0x3389 ADD MSTORE DUP2 DUP2 PUSH2 0x3F05 ADD MSTORE PUSH2 0x3F5A ADD MSTORE PUSH2 0x65B6 PUSH1 0x0 RETURN INVALID PUSH1 0x80 PUSH1 0x40 MSTORE CALLVALUE DUP1 ISZERO PUSH2 0x10 JUMPI PUSH1 0x0 DUP1 REVERT JUMPDEST POP PUSH1 0x4 CALLDATASIZE LT PUSH2 0x227 JUMPI PUSH1 0x0 CALLDATALOAD PUSH1 0xE0 SHR DUP1 PUSH4 0x77440E06 GT PUSH2 0x130 JUMPI DUP1 PUSH4 0xB798867F GT PUSH2 0xB8 JUMPI DUP1 PUSH4 0xC1C16EFC GT PUSH2 0x7C JUMPI DUP1 PUSH4 0xC1C16EFC EQ PUSH2 0x4A4 JUMPI DUP1 PUSH4 0xD24FC8E1 EQ PUSH2 0x4C2 JUMPI DUP1 PUSH4 0xE9B16CA3 EQ PUSH2 0x4CC JUMPI DUP1 PUSH4 0xFC7FFBBA EQ PUSH2 0x4FC JUMPI DUP1 PUSH4 0xFF289691 EQ PUSH2 0x506 JUMPI PUSH2 0x227 JUMP JUMPDEST DUP1 PUSH4 0xB798867F EQ PUSH2 0x437 JUMPI DUP1 PUSH4 0xB9223946 EQ PUSH2 0x455 JUMPI DUP1 PUSH4 0xBBB97DED EQ PUSH2 0x45F JUMPI DUP1 PUSH4 0xBDB1D745 EQ PUSH2 0x469 JUMPI DUP1 PUSH4 0xC1B43357 EQ PUSH2 0x473 JUMPI PUSH2 0x227 JUMP JUMPDEST DUP1 PUSH4 0xA24A4E88 GT PUSH2 0xFF JUMPI DUP1 PUSH4 0xA24A4E88 EQ PUSH2 0x3F1 JUMPI DUP1 PUSH4 0xA3BEF4D7 EQ PUSH2 0x3FB JUMPI DUP1 PUSH4 0xA5627CF0 EQ PUSH2 0x419 JUMPI DUP1 PUSH4 0xA8267245 EQ PUSH2 0x423 JUMPI DUP1 PUSH4 0xA9A4070C EQ PUSH2 0x42D JUMPI PUSH2 0x227 JUMP JUMPDEST DUP1 PUSH4 0x77440E06 EQ PUSH2 0x3C9 JUMPI DUP1 PUSH4 0x7FEA0D4B EQ PUSH2 0x3D3 JUMPI DUP1 PUSH4 0x848B4427 EQ PUSH2 0x3DD JUMPI DUP1 PUSH4 0x947AEA86 EQ PUSH2 0x3E7 JUMPI PUSH2 0x227 JUMP JUMPDEST DUP1 PUSH4 0x4C0A6AF0 GT PUSH2 0x1B3 JUMPI DUP1 PUSH4 0x632A9A52 GT PUSH2 0x182 JUMPI DUP1 PUSH4 0x632A9A52 EQ PUSH2 0x35D JUMPI DUP1 PUSH4 0x6629D50A EQ PUSH2 0x367 JUMPI DUP1 PUSH4 0x6D77BD3E EQ PUSH2 0x371 JUMPI DUP1 PUSH4 0x71135F8B EQ PUSH2 0x3A1 JUMPI DUP1 PUSH4 0x75F12B21 EQ PUSH2 0x3AB JUMPI PUSH2 0x227 JUMP JUMPDEST DUP1 PUSH4 0x4C0A6AF0 EQ PUSH2 0x321 JUMPI DUP1 PUSH4 0x4F575698 EQ PUSH2 0x32B JUMPI DUP1 PUSH4 0x512A6FBB EQ PUSH2 0x335 JUMPI DUP1 PUSH4 0x5BF5D54C EQ PUSH2 0x33F JUMPI PUSH2 0x227 JUMP JUMPDEST DUP1 PUSH4 0x3231D447 GT PUSH2 0x1FA JUMPI DUP1 PUSH4 0x3231D447 EQ PUSH2 0x2A1 JUMPI DUP1 PUSH4 0x3B9F708D EQ PUSH2 0x2AB JUMPI DUP1 PUSH4 0x44BF1451 EQ PUSH2 0x2DB JUMPI DUP1 PUSH4 0x47098F36 EQ PUSH2 0x2E5 JUMPI DUP1 PUSH4 0x481C6A75 EQ PUSH2 0x303 JUMPI PUSH2 0x227 JUMP JUMPDEST DUP1 PUSH4 0x12A4591A EQ PUSH2 0x22C JUMPI DUP1 PUSH4 0x19A06F27 EQ PUSH2 0x236 JUMPI DUP1 PUSH4 0x1DDABF7A EQ PUSH2 0x266 JUMPI DUP1 PUSH4 0x2955FEA3 EQ PUSH2 0x297 JUMPI JUMPDEST PUSH1 0x0 DUP1 REVERT JUMPDEST PUSH2 0x234 PUSH2 0x510 JUMP JUMPDEST STOP JUMPDEST PUSH2 0x250 PUSH1 0x4 DUP1 CALLDATASIZE SUB DUP2 ADD SWAP1 PUSH2 0x24B SWAP2 SWAP1 PUSH2 0x4832 JUMP JUMPDEST PUSH2 0x6A2 JUMP JUMPDEST PUSH1 0x40 MLOAD PUSH2 0x25D SWAP2 SWAP1 PUSH2 0x54DB JUMP JUMPDEST PUSH1 0x40 MLOAD DUP1 SWAP2 SUB SWAP1 RETURN JUMPDEST PUSH2 0x280 PUSH1 0x4 DUP1 CALLDATASIZE SUB DUP2 ADD SWAP1 PUSH2 0x27B SWAP2 SWAP1 PUSH2 0x4706 JUMP JUMPDEST PUSH2 0x742 JUMP JUMPDEST PUSH1 0x40 MLOAD PUSH2 0x28E SWAP3 SWAP2 SWAP1 PUSH2 0x54FD JUMP JUMPDEST PUSH1 0x40 MLOAD DUP1 SWAP2 SUB SWAP1 RETURN JUMPDEST PUSH2 0x29F PUSH2 0x7FB JUMP JUMPDEST STOP JUMPDEST PUSH2 0x2A9 PUSH2 0x8B8 JUMP JUMPDEST STOP JUMPDEST PUSH2 0x2C5 PUSH1 0x4 DUP1 CALLDATASIZE SUB DUP2 ADD SWAP1 PUSH2 0x2C0 SWAP2 SWAP1 PUSH2 0x4760 JUMP JUMPDEST PUSH2 0x9B4 JUMP JUMPDEST PUSH1 0x40 MLOAD PUSH2 0x2D2 SWAP2 SWAP1 PUSH2 0x5881 JUMP JUMPDEST PUSH1 0x40 MLOAD DUP1 SWAP2 SUB SWAP1 RETURN JUMPDEST PUSH2 0x2E3 PUSH2 0xCDA JUMP JUMPDEST STOP JUMPDEST PUSH2 0x2ED PUSH2 0x1041 JUMP JUMPDEST PUSH1 0x40 MLOAD PUSH2 0x2FA SWAP2 SWAP1 PUSH2 0x5881 JUMP JUMPDEST PUSH1 0x40 MLOAD DUP1 SWAP2 SUB SWAP1 RETURN JUMPDEST PUSH2 0x30B PUSH2 0x1054 JUMP JUMPDEST PUSH1 0x40 MLOAD PUSH2 0x318 SWAP2 SWAP1 PUSH2 0x507E JUMP JUMPDEST PUSH1 0x40 MLOAD DUP1 SWAP2 SUB SWAP1 RETURN JUMPDEST PUSH2 0x329 PUSH2 0x1078 JUMP JUMPDEST STOP JUMPDEST PUSH2 0x333 PUSH2 0x124E JUMP JUMPDEST STOP JUMPDEST PUSH2 0x33D PUSH2 0x15AA JUMP JUMPDEST STOP JUMPDEST PUSH2 0x347 PUSH2 0x18E4 JUMP JUMPDEST PUSH1 0x40 MLOAD PUSH2 0x354 SWAP2 SWAP1 PUSH2 0x5403 JUMP JUMPDEST PUSH1 0x40 MLOAD DUP1 SWAP2 SUB SWAP1 RETURN JUMPDEST PUSH2 0x365 PUSH2 0x18F5 JUMP JUMPDEST STOP JUMPDEST PUSH2 0x36F PUSH2 0x19B2 JUMP JUMPDEST STOP JUMPDEST PUSH2 0x38B PUSH1 0x4 DUP1 CALLDATASIZE SUB DUP2 ADD SWAP1 PUSH2 0x386 SWAP2 SWAP1 PUSH2 0x47E9 JUMP JUMPDEST PUSH2 0x1CEA JUMP JUMPDEST PUSH1 0x40 MLOAD PUSH2 0x398 SWAP2 SWAP1 PUSH2 0x5881 JUMP JUMPDEST PUSH1 0x40 MLOAD DUP1 SWAP2 SUB SWAP1 RETURN JUMPDEST PUSH2 0x3A9 PUSH2 0x2013 JUMP JUMPDEST STOP JUMPDEST PUSH2 0x3B3 PUSH2 0x2123 JUMP JUMPDEST PUSH1 0x40 MLOAD PUSH2 0x3C0 SWAP2 SWAP1 PUSH2 0x515A JUMP JUMPDEST PUSH1 0x40 MLOAD DUP1 SWAP2 SUB SWAP1 RETURN JUMPDEST PUSH2 0x3D1 PUSH2 0x2136 JUMP JUMPDEST STOP JUMPDEST PUSH2 0x3DB PUSH2 0x2492 JUMP JUMPDEST STOP JUMPDEST PUSH2 0x3E5 PUSH2 0x28C1 JUMP JUMPDEST STOP JUMPDEST PUSH2 0x3EF PUSH2 0x2C6F JUMP JUMPDEST STOP JUMPDEST PUSH2 0x3F9 PUSH2 0x2D3D JUMP JUMPDEST STOP JUMPDEST PUSH2 0x403 PUSH2 0x2DFA JUMP JUMPDEST PUSH1 0x40 MLOAD PUSH2 0x410 SWAP2 SWAP1 PUSH2 0x5881 JUMP JUMPDEST PUSH1 0x40 MLOAD DUP1 SWAP2 SUB SWAP1 RETURN JUMPDEST PUSH2 0x421 PUSH2 0x2E0D JUMP JUMPDEST STOP JUMPDEST PUSH2 0x42B PUSH2 0x3174 JUMP JUMPDEST STOP JUMPDEST PUSH2 0x435 PUSH2 0x325F JUMP JUMPDEST STOP JUMPDEST PUSH2 0x43F PUSH2 0x331F JUMP JUMPDEST PUSH1 0x40 MLOAD PUSH2 0x44C SWAP2 SWAP1 PUSH2 0x5881 JUMP JUMPDEST PUSH1 0x40 MLOAD DUP1 SWAP2 SUB SWAP1 RETURN JUMPDEST PUSH2 0x45D PUSH2 0x3332 JUMP JUMPDEST STOP JUMPDEST PUSH2 0x467 PUSH2 0x3571 JUMP JUMPDEST STOP JUMPDEST PUSH2 0x471 PUSH2 0x362E JUMP JUMPDEST STOP JUMPDEST PUSH2 0x48D PUSH1 0x4 DUP1 CALLDATASIZE SUB DUP2 ADD SWAP1 PUSH2 0x488 SWAP2 SWAP1 PUSH2 0x4832 JUMP JUMPDEST PUSH2 0x36EE JUMP JUMPDEST PUSH1 0x40 MLOAD PUSH2 0x49B SWAP3 SWAP2 SWAP1 PUSH2 0x5131 JUMP JUMPDEST PUSH1 0x40 MLOAD DUP1 SWAP2 SUB SWAP1 RETURN JUMPDEST PUSH2 0x4AC PUSH2 0x373F JUMP JUMPDEST PUSH1 0x40 MLOAD PUSH2 0x4B9 SWAP2 SWAP1 PUSH2 0x54DB JUMP JUMPDEST PUSH1 0x40 MLOAD DUP1 SWAP2 SUB SWAP1 RETURN JUMPDEST PUSH2 0x4CA PUSH2 0x37CD JUMP JUMPDEST STOP JUMPDEST PUSH2 0x4E6 PUSH1 0x4 DUP1 CALLDATASIZE SUB DUP2 ADD SWAP1 PUSH2 0x4E1 SWAP2 SWAP1 PUSH2 0x4832 JUMP JUMPDEST PUSH2 0x3B4F JUMP JUMPDEST PUSH1 0x40 MLOAD PUSH2 0x4F3 SWAP2 SWAP1 PUSH2 0x515A JUMP JUMPDEST PUSH1 0x40 MLOAD DUP1 SWAP2 SUB SWAP1 RETURN JUMPDEST PUSH2 0x504 PUSH2 0x3F03 JUMP JUMPDEST STOP JUMPDEST PUSH2 0x50E PUSH2 0x40D9 JUMP JUMPDEST STOP JUMPDEST PUSH20 0x0 PUSH4 0xABCD7960 PUSH2 0x568 PUSH1 0x40 MLOAD DUP1 PUSH1 0x40 ADD PUSH1 0x40 MSTORE DUP1 PUSH1 0xE DUP2 MSTORE PUSH1 0x20 ADD PUSH32 0x436F757274796172642043616665000000000000000000000000000000000000 DUP2 MSTORE POP PUSH2 0x1CEA JUMP JUMPDEST PUSH1 0x1 PUSH1 0x40 MLOAD DUP4 PUSH4 0xFFFFFFFF AND PUSH1 0xE0 SHL DUP2 MSTORE PUSH1 0x4 ADD PUSH2 0x587 SWAP3 SWAP2 SWAP1 PUSH2 0x589C JUMP JUMPDEST PUSH1 0x20 PUSH1 0x40 MLOAD DUP1 DUP4 SUB DUP2 DUP7 DUP1 EXTCODESIZE ISZERO DUP1 ISZERO PUSH2 0x59F JUMPI PUSH1 0x0 DUP1 REVERT JUMPDEST POP GAS DELEGATECALL ISZERO DUP1 ISZERO PUSH2 0x5B3 JUMPI RETURNDATASIZE PUSH1 0x0 DUP1 RETURNDATACOPY RETURNDATASIZE PUSH1 0x0 REVERT JUMPDEST POP POP POP POP PUSH1 0x40 MLOAD RETURNDATASIZE PUSH1 0x1F NOT PUSH1 0x1F DUP3 ADD AND DUP3 ADD DUP1 PUSH1 0x40 MSTORE POP DUP2 ADD SWAP1 PUSH2 0x5D7 SWAP2 SWAP1 PUSH2 0x47BC JUMP JUMPDEST POP PUSH20 0x0 PUSH4 0xABCD7960 PUSH2 0x630 PUSH1 0x40 MLOAD DUP1 PUSH1 0x40 ADD PUSH1 0x40 MSTORE DUP1 PUSH1 0x8 DUP2 MSTORE PUSH1 0x20 ADD PUSH32 0x556E692043616665000000000000000000000000000000000000000000000000 DUP2 MSTORE POP PUSH2 0x1CEA JUMP JUMPDEST PUSH1 0x2 PUSH1 0x40 MLOAD DUP4 PUSH4 0xFFFFFFFF AND PUSH1 0xE0 SHL DUP2 MSTORE PUSH1 0x4 ADD PUSH2 0x64F SWAP3 SWAP2 SWAP1 PUSH2 0x58D8 JUMP JUMPDEST PUSH1 0x20 PUSH1 0x40 MLOAD DUP1 DUP4 SUB DUP2 DUP7 DUP1 EXTCODESIZE ISZERO DUP1 ISZERO PUSH2 0x667 JUMPI PUSH1 0x0 DUP1 REVERT JUMPDEST POP GAS DELEGATECALL ISZERO DUP1 ISZERO PUSH2 0x67B JUMPI RETURNDATASIZE PUSH1 0x0 DUP1 RETURNDATACOPY RETURNDATASIZE PUSH1 0x0 REVERT JUMPDEST POP POP POP POP PUSH1 0x40 MLOAD RETURNDATASIZE PUSH1 0x1F NOT PUSH1 0x1F DUP3 ADD AND DUP3 ADD DUP1 PUSH1 0x40 MSTORE POP DUP2 ADD SWAP1 PUSH2 0x69F SWAP2 SWAP1 PUSH2 0x47BC JUMP JUMPDEST POP JUMP JUMPDEST PUSH1 0x1 PUSH1 0x20 MSTORE DUP1 PUSH1 0x0 MSTORE PUSH1 0x40 PUSH1 0x0 KECCAK256 PUSH1 0x0 SWAP2 POP SWAP1 POP DUP1 SLOAD PUSH2 0x6C1 SWAP1 PUSH2 0x5C31 JUMP JUMPDEST DUP1 PUSH1 0x1F ADD PUSH1 0x20 DUP1 SWAP2 DIV MUL PUSH1 0x20 ADD PUSH1 0x40 MLOAD SWAP1 DUP2 ADD PUSH1 0x40 MSTORE DUP1 SWAP3 SWAP2 SWAP1 DUP2 DUP2 MSTORE PUSH1 0x20 ADD DUP3 DUP1 SLOAD PUSH2 0x6ED SWAP1 PUSH2 0x5C31 JUMP JUMPDEST DUP1 ISZERO PUSH2 0x73A JUMPI DUP1 PUSH1 0x1F LT PUSH2 0x70F JUMPI PUSH2 0x100 DUP1 DUP4 SLOAD DIV MUL DUP4 MSTORE SWAP2 PUSH1 0x20 ADD SWAP2 PUSH2 0x73A JUMP JUMPDEST DUP3 ADD SWAP2 SWAP1 PUSH1 0x0 MSTORE PUSH1 0x20 PUSH1 0x0 KECCAK256 SWAP1 JUMPDEST DUP2 SLOAD DUP2 MSTORE SWAP1 PUSH1 0x1 ADD SWAP1 PUSH1 0x20 ADD DUP1 DUP4 GT PUSH2 0x71D JUMPI DUP3 SWAP1 SUB PUSH1 0x1F AND DUP3 ADD SWAP2 JUMPDEST POP POP POP POP POP DUP2 JUMP JUMPDEST PUSH1 0x2 PUSH1 0x20 MSTORE DUP1 PUSH1 0x0 MSTORE PUSH1 0x40 PUSH1 0x0 KECCAK256 PUSH1 0x0 SWAP2 POP SWAP1 POP DUP1 PUSH1 0x0 ADD DUP1 SLOAD PUSH2 0x765 SWAP1 PUSH2 0x5C31 JUMP JUMPDEST DUP1 PUSH1 0x1F ADD PUSH1 0x20 DUP1 SWAP2 DIV MUL PUSH1 0x20 ADD PUSH1 0x40 MLOAD SWAP1 DUP2 ADD PUSH1 0x40 MSTORE DUP1 SWAP3 SWAP2 SWAP1 DUP2 DUP2 MSTORE PUSH1 0x20 ADD DUP3 DUP1 SLOAD PUSH2 0x791 SWAP1 PUSH2 0x5C31 JUMP JUMPDEST DUP1 ISZERO PUSH2 0x7DE JUMPI DUP1 PUSH1 0x1F LT PUSH2 0x7B3 JUMPI PUSH2 0x100 DUP1 DUP4 SLOAD DIV MUL DUP4 MSTORE SWAP2 PUSH1 0x20 ADD SWAP2 PUSH2 0x7DE JUMP JUMPDEST DUP3 ADD SWAP2 SWAP1 PUSH1 0x0 MSTORE PUSH1 0x20 PUSH1 0x0 KECCAK256 SWAP1 JUMPDEST DUP2 SLOAD DUP2 MSTORE SWAP1 PUSH1 0x1 ADD SWAP1 PUSH1 0x20 ADD DUP1 DUP4 GT PUSH2 0x7C1 JUMPI DUP3 SWAP1 SUB PUSH1 0x1F AND DUP3 ADD SWAP2 JUMPDEST POP POP POP POP POP SWAP1 DUP1 PUSH1 0x1 ADD PUSH1 0x0 SWAP1 SLOAD SWAP1 PUSH2 0x100 EXP SWAP1 DIV PUSH1 0xFF AND SWAP1 POP DUP3 JUMP JUMPDEST PUSH1 0x1 PUSH1 0x0 DUP1 PUSH2 0x100 EXP DUP2 SLOAD DUP2 PUSH1 0xFF MUL NOT AND SWAP1 DUP4 PUSH1 0x2 DUP2 GT ISZERO PUSH2 0x820 JUMPI PUSH2 0x81F PUSH2 0x5D1C JUMP JUMPDEST JUMPDEST MUL OR SWAP1 SSTORE POP PUSH20 0x0 PUSH4 0x39DF137F PUSH2 0x849 PUSH1 0x2 PUSH2 0x3B4F JUMP JUMPDEST PUSH1 0x40 MLOAD DUP3 PUSH4 0xFFFFFFFF AND PUSH1 0xE0 SHL DUP2 MSTORE PUSH1 0x4 ADD PUSH2 0x865 SWAP2 SWAP1 PUSH2 0x5379 JUMP JUMPDEST PUSH1 0x20 PUSH1 0x40 MLOAD DUP1 DUP4 SUB DUP2 DUP7 DUP1 EXTCODESIZE ISZERO DUP1 ISZERO PUSH2 0x87D JUMPI PUSH1 0x0 DUP1 REVERT JUMPDEST POP GAS DELEGATECALL ISZERO DUP1 ISZERO PUSH2 0x891 JUMPI RETURNDATASIZE PUSH1 0x0 DUP1 RETURNDATACOPY RETURNDATASIZE PUSH1 0x0 REVERT JUMPDEST POP POP POP POP PUSH1 0x40 MLOAD RETURNDATASIZE PUSH1 0x1F NOT PUSH1 0x1F DUP3 ADD AND DUP3 ADD DUP1 PUSH1 0x40 MSTORE POP DUP2 ADD SWAP1 PUSH2 0x8B5 SWAP2 SWAP1 PUSH2 0x47BC JUMP JUMPDEST POP JUMP JUMPDEST ADDRESS PUSH20 0xFFFFFFFFFFFFFFFFFFFFFFFFFFFFFFFFFFFFFFFF AND PUSH4 0x71135F8B PUSH1 0x40 MLOAD DUP2 PUSH4 0xFFFFFFFF AND PUSH1 0xE0 SHL DUP2 MSTORE PUSH1 0x4 ADD PUSH1 0x0 PUSH1 0x40 MLOAD DUP1 DUP4 SUB DUP2 PUSH1 0x0 DUP8 DUP1 EXTCODESIZE ISZERO DUP1 ISZERO PUSH2 0x900 JUMPI PUSH1 0x0 DUP1 REVERT JUMPDEST POP GAS CALL ISZERO DUP1 ISZERO PUSH2 0x914 JUMPI RETURNDATASIZE PUSH1 0x0 DUP1 RETURNDATACOPY RETURNDATASIZE PUSH1 0x0 REVERT JUMPDEST POP POP POP POP PUSH20 0x0 PUSH4 0x767392B3 PUSH1 0x7 PUSH1 0x0 SWAP1 SLOAD SWAP1 PUSH2 0x100 EXP SWAP1 DIV PUSH1 0xFF AND PUSH1 0x1 PUSH1 0x40 MLOAD DUP4 PUSH4 0xFFFFFFFF AND PUSH1 0xE0 SHL DUP2 MSTORE PUSH1 0x4 ADD PUSH2 0x961 SWAP3 SWAP2 SWAP1 PUSH2 0x5175 JUMP JUMPDEST PUSH1 0x20 PUSH1 0x40 MLOAD DUP1 DUP4 SUB DUP2 DUP7 DUP1 EXTCODESIZE ISZERO DUP1 ISZERO PUSH2 0x979 JUMPI PUSH1 0x0 DUP1 REVERT JUMPDEST POP GAS DELEGATECALL ISZERO DUP1 ISZERO PUSH2 0x98D JUMPI RETURNDATASIZE PUSH1 0x0 DUP1 RETURNDATACOPY RETURNDATASIZE PUSH1 0x0 REVERT JUMPDEST POP POP POP POP PUSH1 0x40 MLOAD RETURNDATASIZE PUSH1 0x1F NOT PUSH1 0x1F DUP3 ADD AND DUP3 ADD DUP1 PUSH1 0x40 MSTORE POP DUP2 ADD SWAP1 PUSH2 0x9B1 SWAP2 SWAP1 PUSH2 0x47BC JUMP JUMPDEST POP JUMP JUMPDEST PUSH1 0x0 PUSH32 0x0 PUSH20 0xFFFFFFFFFFFFFFFFFFFFFFFFFFFFFFFFFFFFFFFF AND ORIGIN PUSH20 0xFFFFFFFFFFFFFFFFFFFFFFFFFFFFFFFFFFFFFFFF AND EQ DUP1 PUSH2 0xA5B JUMPI POP PUSH32 0x0 PUSH20 0xFFFFFFFFFFFFFFFFFFFFFFFFFFFFFFFFFFFFFFFF AND CALLER PUSH20 0xFFFFFFFFFFFFFFFFFFFFFFFFFFFFFFFFFFFFFFFF AND EQ JUMPDEST PUSH2 0xA9A JUMPI PUSH1 0x40 MLOAD PUSH32 0x8C379A000000000000000000000000000000000000000000000000000000000 DUP2 MSTORE PUSH1 0x4 ADD PUSH2 0xA91 SWAP1 PUSH2 0x57E5 JUMP JUMPDEST PUSH1 0x40 MLOAD DUP1 SWAP2 SUB SWAP1 REVERT JUMPDEST DUP3 PUSH1 0x0 PUSH1 0x2 PUSH1 0x0 DUP4 PUSH20 0xFFFFFFFFFFFFFFFFFFFFFFFFFFFFFFFFFFFFFFFF AND PUSH20 0xFFFFFFFFFFFFFFFFFFFFFFFFFFFFFFFFFFFFFFFF AND DUP2 MSTORE PUSH1 0x20 ADD SWAP1 DUP2 MSTORE PUSH1 0x20 ADD PUSH1 0x0 KECCAK256 PUSH1 0x0 ADD DUP1 SLOAD PUSH2 0xAEA SWAP1 PUSH2 0x5C31 JUMP JUMPDEST SWAP1 POP EQ PUSH2 0xB2C JUMPI PUSH1 0x40 MLOAD PUSH32 0x8C379A000000000000000000000000000000000000000000000000000000000 DUP2 MSTORE PUSH1 0x4 ADD PUSH2 0xB23 SWAP1 PUSH2 0x57C5 JUMP JUMPDEST PUSH1 0x40 MLOAD DUP1 SWAP2 SUB SWAP1 REVERT JUMPDEST PUSH1 0x0 DUP1 PUSH1 0x2 DUP2 GT ISZERO PUSH2 0xB41 JUMPI PUSH2 0xB40 PUSH2 0x5D1C JUMP JUMPDEST JUMPDEST PUSH1 0x0 DUP1 SLOAD SWAP1 PUSH2 0x100 EXP SWAP1 DIV PUSH1 0xFF AND PUSH1 0x2 DUP2 GT ISZERO PUSH2 0xB61 JUMPI PUSH2 0xB60 PUSH2 0x5D1C JUMP JUMPDEST JUMPDEST EQ PUSH2 0xBA1 JUMPI PUSH1 0x40 MLOAD PUSH32 0x8C379A000000000000000000000000000000000000000000000000000000000 DUP2 MSTORE PUSH1 0x4 ADD PUSH2 0xB98 SWAP1 PUSH2 0x57A5 JUMP JUMPDEST PUSH1 0x40 MLOAD DUP1 SWAP2 SUB SWAP1 REVERT JUMPDEST PUSH1 0x7 PUSH1 0x0 SWAP1 SLOAD SWAP1 PUSH2 0x100 EXP SWAP1 DIV PUSH1 0xFF AND ISZERO PUSH2 0xBF1 JUMPI PUSH1 0x40 MLOAD PUSH32 0x8C379A000000000000000000000000000000000000000000000000000000000 DUP2 MSTORE PUSH1 0x4 ADD PUSH2 0xBE8 SWAP1 PUSH2 0x5785 JUMP JUMPDEST PUSH1 0x40 MLOAD DUP1 SWAP2 SUB SWAP1 REVERT JUMPDEST PUSH1 0x40 MLOAD DUP1 PUSH1 0x40 ADD PUSH1 0x40 MSTORE DUP1 DUP6 DUP2 MSTORE PUSH1 0x20 ADD PUSH1 0x0 ISZERO ISZERO DUP2 MSTORE POP PUSH1 0x2 PUSH1 0x0 DUP8 PUSH20 0xFFFFFFFFFFFFFFFFFFFFFFFFFFFFFFFFFFFFFFFF AND PUSH20 0xFFFFFFFFFFFFFFFFFFFFFFFFFFFFFFFFFFFFFFFF AND DUP2 MSTORE PUSH1 0x20 ADD SWAP1 DUP2 MSTORE PUSH1 0x20 ADD PUSH1 0x0 KECCAK256 PUSH1 0x0 DUP3 ADD MLOAD DUP2 PUSH1 0x0 ADD SWAP1 DUP1 MLOAD SWAP1 PUSH1 0x20 ADD SWAP1 PUSH2 0xC64 SWAP3 SWAP2 SWAP1 PUSH2 0x44FD JUMP JUMPDEST POP PUSH1 0x20 DUP3 ADD MLOAD DUP2 PUSH1 0x1 ADD PUSH1 0x0 PUSH2 0x100 EXP DUP2 SLOAD DUP2 PUSH1 0xFF MUL NOT AND SWAP1 DUP4 ISZERO ISZERO MUL OR SWAP1 SSTORE POP SWAP1 POP POP PUSH1 0x3 PUSH1 0x1 DUP2 DUP2 SWAP1 SLOAD SWAP1 PUSH2 0x100 EXP SWAP1 DIV PUSH1 0xFF AND DUP1 SWAP3 SWAP2 SWAP1 PUSH2 0xCA7 SWAP1 PUSH2 0x5C94 JUMP JUMPDEST SWAP2 SWAP1 PUSH2 0x100 EXP DUP2 SLOAD DUP2 PUSH1 0xFF MUL NOT AND SWAP1 DUP4 PUSH1 0xFF AND MUL OR SWAP1 SSTORE POP POP PUSH1 0x3 PUSH1 0x1 SWAP1 SLOAD SWAP1 PUSH2 0x100 EXP SWAP1 DIV PUSH1 0xFF AND SWAP3 POP POP POP SWAP3 SWAP2 POP POP JUMP JUMPDEST PUSH1 0x1 PUSH1 0x0 DUP1 PUSH2 0x100 EXP DUP2 SLOAD DUP2 PUSH1 0xFF MUL NOT AND SWAP1 DUP4 PUSH1 0x2 DUP2 GT ISZERO PUSH2 0xCFF JUMPI PUSH2 0xCFE PUSH2 0x5D1C JUMP JUMPDEST JUMPDEST MUL OR SWAP1 SSTORE POP ADDRESS PUSH20 0xFFFFFFFFFFFFFFFFFFFFFFFFFFFFFFFFFFFFFFFF AND PUSH4 0xE9B16CA3 PUSH1 0x2 PUSH1 0x40 MLOAD DUP3 PUSH4 0xFFFFFFFF AND PUSH1 0xE0 SHL DUP2 MSTORE PUSH1 0x4 ADD PUSH2 0xD3E SWAP2 SWAP1 PUSH2 0x548A JUMP JUMPDEST PUSH1 0x20 PUSH1 0x40 MLOAD DUP1 DUP4 SUB DUP2 PUSH1 0x0 DUP8 DUP1 EXTCODESIZE ISZERO DUP1 ISZERO PUSH2 0xD58 JUMPI PUSH1 0x0 DUP1 REVERT JUMPDEST POP GAS CALL SWAP3 POP POP POP DUP1 ISZERO PUSH2 0xD89 JUMPI POP PUSH1 0x40 MLOAD RETURNDATASIZE PUSH1 0x1F NOT PUSH1 0x1F DUP3 ADD AND DUP3 ADD DUP1 PUSH1 0x40 MSTORE POP DUP2 ADD SWAP1 PUSH2 0xD86 SWAP2 SWAP1 PUSH2 0x47BC JUMP JUMPDEST PUSH1 0x1 JUMPDEST PUSH2 0xFB2 JUMPI PUSH2 0xD95 PUSH2 0x5DA9 JUMP JUMPDEST DUP1 PUSH4 0x8C379A0 EQ ISZERO PUSH2 0xE43 JUMPI POP PUSH2 0xDAA PUSH2 0x6470 JUMP JUMPDEST DUP1 PUSH2 0xDB5 JUMPI POP PUSH2 0xEF0 JUMP JUMPDEST PUSH20 0x0 PUSH4 0xE8C2CB16 DUP3 PUSH1 0x40 MLOAD DUP3 PUSH4 0xFFFFFFFF AND PUSH1 0xE0 SHL DUP2 MSTORE PUSH1 0x4 ADD PUSH2 0xDEC SWAP2 SWAP1 PUSH2 0x552D JUMP JUMPDEST PUSH1 0x20 PUSH1 0x40 MLOAD DUP1 DUP4 SUB DUP2 DUP7 DUP1 EXTCODESIZE ISZERO DUP1 ISZERO PUSH2 0xE04 JUMPI PUSH1 0x0 DUP1 REVERT JUMPDEST POP GAS DELEGATECALL ISZERO DUP1 ISZERO PUSH2 0xE18 JUMPI RETURNDATASIZE PUSH1 0x0 DUP1 RETURNDATACOPY RETURNDATASIZE PUSH1 0x0 REVERT JUMPDEST POP POP POP POP PUSH1 0x40 MLOAD RETURNDATASIZE PUSH1 0x1F NOT PUSH1 0x1F DUP3 ADD AND DUP3 ADD DUP1 PUSH1 0x40 MSTORE POP DUP2 ADD SWAP1 PUSH2 0xE3C SWAP2 SWAP1 PUSH2 0x47BC JUMP JUMPDEST POP POP PUSH2 0xFAD JUMP JUMPDEST PUSH4 0x4E487B71 EQ ISZERO PUSH2 0xEF0 JUMPI PUSH2 0xE56 PUSH2 0x6506 JUMP JUMPDEST SWAP1 PUSH2 0xE61 JUMPI POP PUSH2 0xEF0 JUMP JUMPDEST PUSH20 0x0 PUSH4 0x39DF137F PUSH1 0x0 PUSH1 0x40 MLOAD DUP3 PUSH4 0xFFFFFFFF AND PUSH1 0xE0 SHL DUP2 MSTORE PUSH1 0x4 ADD PUSH2 0xE99 SWAP2 SWAP1 PUSH2 0x531D JUMP JUMPDEST PUSH1 0x20 PUSH1 0x40 MLOAD DUP1 DUP4 SUB DUP2 DUP7 DUP1 EXTCODESIZE ISZERO DUP1 ISZERO PUSH2 0xEB1 JUMPI PUSH1 0x0 DUP1 REVERT JUMPDEST POP GAS DELEGATECALL ISZERO DUP1 ISZERO PUSH2 0xEC5 JUMPI RETURNDATASIZE PUSH1 0x0 DUP1 RETURNDATACOPY RETURNDATASIZE PUSH1 0x0 REVERT JUMPDEST POP POP POP POP PUSH1 0x40 MLOAD RETURNDATASIZE PUSH1 0x1F NOT PUSH1 0x1F DUP3 ADD AND DUP3 ADD DUP1 PUSH1 0x40 MSTORE POP DUP2 ADD SWAP1 PUSH2 0xEE9 SWAP2 SWAP1 PUSH2 0x47BC JUMP JUMPDEST POP POP PUSH2 0xFAD JUMP JUMPDEST RETURNDATASIZE DUP1 PUSH1 0x0 DUP2 EQ PUSH2 0xF1C JUMPI PUSH1 0x40 MLOAD SWAP2 POP PUSH1 0x1F NOT PUSH1 0x3F RETURNDATASIZE ADD AND DUP3 ADD PUSH1 0x40 MSTORE RETURNDATASIZE DUP3 MSTORE RETURNDATASIZE PUSH1 0x0 PUSH1 0x20 DUP5 ADD RETURNDATACOPY PUSH2 0xF21 JUMP JUMPDEST PUSH1 0x60 SWAP2 POP JUMPDEST POP PUSH20 0x0 PUSH4 0x39DF137F PUSH1 0x0 PUSH1 0x40 MLOAD DUP3 PUSH4 0xFFFFFFFF AND PUSH1 0xE0 SHL DUP2 MSTORE PUSH1 0x4 ADD PUSH2 0xF5A SWAP2 SWAP1 PUSH2 0x5265 JUMP JUMPDEST PUSH1 0x20 PUSH1 0x40 MLOAD DUP1 DUP4 SUB DUP2 DUP7 DUP1 EXTCODESIZE ISZERO DUP1 ISZERO PUSH2 0xF72 JUMPI PUSH1 0x0 DUP1 REVERT JUMPDEST POP GAS DELEGATECALL ISZERO DUP1 ISZERO PUSH2 0xF86 JUMPI RETURNDATASIZE PUSH1 0x0 DUP1 RETURNDATACOPY RETURNDATASIZE PUSH1 0x0 REVERT JUMPDEST POP POP POP POP PUSH1 0x40 MLOAD RETURNDATASIZE PUSH1 0x1F NOT PUSH1 0x1F DUP3 ADD AND DUP3 ADD DUP1 PUSH1 0x40 MSTORE POP DUP2 ADD SWAP1 PUSH2 0xFAA SWAP2 SWAP1 PUSH2 0x47BC JUMP JUMPDEST POP POP JUMPDEST PUSH2 0x103F JUMP JUMPDEST PUSH20 0x0 PUSH4 0x767392B3 DUP3 PUSH1 0x0 PUSH1 0x40 MLOAD DUP4 PUSH4 0xFFFFFFFF AND PUSH1 0xE0 SHL DUP2 MSTORE PUSH1 0x4 ADD PUSH2 0xFEC SWAP3 SWAP2 SWAP1 PUSH2 0x51ED JUMP JUMPDEST PUSH1 0x20 PUSH1 0x40 MLOAD DUP1 DUP4 SUB DUP2 DUP7 DUP1 EXTCODESIZE ISZERO DUP1 ISZERO PUSH2 0x1004 JUMPI PUSH1 0x0 DUP1 REVERT JUMPDEST POP GAS DELEGATECALL ISZERO DUP1 ISZERO PUSH2 0x1018 JUMPI RETURNDATASIZE PUSH1 0x0 DUP1 RETURNDATACOPY RETURNDATASIZE PUSH1 0x0 REVERT JUMPDEST POP POP POP POP PUSH1 0x40 MLOAD RETURNDATASIZE PUSH1 0x1F NOT PUSH1 0x1F DUP3 ADD AND DUP3 ADD DUP1 PUSH1 0x40 MSTORE POP DUP2 ADD SWAP1 PUSH2 0x103C SWAP2 SWAP1 PUSH2 0x47BC JUMP JUMPDEST POP POP JUMPDEST JUMP JUMPDEST PUSH1 0x3 PUSH1 0x1 SWAP1 SLOAD SWAP1 PUSH2 0x100 EXP SWAP1 DIV PUSH1 0xFF AND DUP2 JUMP JUMPDEST PUSH32 0x0 DUP2 JUMP JUMPDEST PUSH32 0x0 PUSH20 0xFFFFFFFFFFFFFFFFFFFFFFFFFFFFFFFFFFFFFFFF AND ORIGIN PUSH20 0xFFFFFFFFFFFFFFFFFFFFFFFFFFFFFFFFFFFFFFFF AND EQ DUP1 PUSH2 0x111D JUMPI POP PUSH32 0x0 PUSH20 0xFFFFFFFFFFFFFFFFFFFFFFFFFFFFFFFFFFFFFFFF AND CALLER PUSH20 0xFFFFFFFFFFFFFFFFFFFFFFFFFFFFFFFFFFFFFFFF AND EQ JUMPDEST PUSH2 0x115C JUMPI PUSH1 0x40 MLOAD PUSH32 0x8C379A000000000000000000000000000000000000000000000000000000000 DUP2 MSTORE PUSH1 0x4 ADD PUSH2 0x1153 SWAP1 PUSH2 0x57E5 JUMP JUMPDEST PUSH1 0x40 MLOAD DUP1 SWAP2 SUB SWAP1 REVERT JUMPDEST PUSH1 0x0 DUP1 PUSH1 0x2 DUP2 GT ISZERO PUSH2 0x1171 JUMPI PUSH2 0x1170 PUSH2 0x5D1C JUMP JUMPDEST JUMPDEST PUSH1 0x0 DUP1 SLOAD SWAP1 PUSH2 0x100 EXP SWAP1 DIV PUSH1 0xFF AND PUSH1 0x2 DUP2 GT ISZERO PUSH2 0x1191 JUMPI PUSH2 0x1190 PUSH2 0x5D1C JUMP JUMPDEST JUMPDEST EQ PUSH2 0x11D1 JUMPI PUSH1 0x40 MLOAD PUSH32 0x8C379A000000000000000000000000000000000000000000000000000000000 DUP2 MSTORE PUSH1 0x4 ADD PUSH2 0x11C8 SWAP1 PUSH2 0x57A5 JUMP JUMPDEST PUSH1 0x40 MLOAD DUP1 SWAP2 SUB SWAP1 REVERT JUMPDEST PUSH1 0x7 PUSH1 0x0 SWAP1 SLOAD SWAP1 PUSH2 0x100 EXP SWAP1 DIV PUSH1 0xFF AND ISZERO PUSH2 0x1221 JUMPI PUSH1 0x40 MLOAD PUSH32 0x8C379A000000000000000000000000000000000000000000000000000000000 DUP2 MSTORE PUSH1 0x4 ADD PUSH2 0x1218 SWAP1 PUSH2 0x5785 JUMP JUMPDEST PUSH1 0x40 MLOAD DUP1 SWAP2 SUB SWAP1 REVERT JUMPDEST PUSH1 0x1 PUSH1 0x0 DUP1 PUSH2 0x100 EXP DUP2 SLOAD DUP2 PUSH1 0xFF MUL NOT AND SWAP1 DUP4 PUSH1 0x2 DUP2 GT ISZERO PUSH2 0x1246 JUMPI PUSH2 0x1245 PUSH2 0x5D1C JUMP JUMPDEST JUMPDEST MUL OR SWAP1 SSTORE POP POP JUMP JUMPDEST ADDRESS PUSH20 0xFFFFFFFFFFFFFFFFFFFFFFFFFFFFFFFFFFFFFFFF AND PUSH4 0x3B9F708D PUSH1 0x7 PUSH1 0x1 SWAP1 SLOAD SWAP1 PUSH2 0x100 EXP SWAP1 DIV PUSH20 0xFFFFFFFFFFFFFFFFFFFFFFFFFFFFFFFFFFFFFFFF AND PUSH1 0x40 MLOAD DUP3 PUSH4 0xFFFFFFFF AND PUSH1 0xE0 SHL DUP2 MSTORE PUSH1 0x4 ADD PUSH2 0x12A9 SWAP2 SWAP1 PUSH2 0x50D5 JUMP JUMPDEST PUSH1 0x20 PUSH1 0x40 MLOAD DUP1 DUP4 SUB DUP2 PUSH1 0x0 DUP8 DUP1 EXTCODESIZE ISZERO DUP1 ISZERO PUSH2 0x12C3 JUMPI PUSH1 0x0 DUP1 REVERT JUMPDEST POP GAS CALL SWAP3 POP POP POP DUP1 ISZERO PUSH2 0x12F4 JUMPI POP PUSH1 0x40 MLOAD RETURNDATASIZE PUSH1 0x1F NOT PUSH1 0x1F DUP3 ADD AND DUP3 ADD DUP1 PUSH1 0x40 MSTORE POP DUP2 ADD SWAP1 PUSH2 0x12F1 SWAP2 SWAP1 PUSH2 0x485F JUMP JUMPDEST PUSH1 0x1 JUMPDEST PUSH2 0x151D JUMPI PUSH2 0x1300 PUSH2 0x5DA9 JUMP JUMPDEST DUP1 PUSH4 0x8C379A0 EQ ISZERO PUSH2 0x13AE JUMPI POP PUSH2 0x1315 PUSH2 0x6470 JUMP JUMPDEST DUP1 PUSH2 0x1320 JUMPI POP PUSH2 0x145B JUMP JUMPDEST PUSH20 0x0 PUSH4 0xE8C2CB16 DUP3 PUSH1 0x40 MLOAD DUP3 PUSH4 0xFFFFFFFF AND PUSH1 0xE0 SHL DUP2 MSTORE PUSH1 0x4 ADD PUSH2 0x1357 SWAP2 SWAP1 PUSH2 0x5605 JUMP JUMPDEST PUSH1 0x20 PUSH1 0x40 MLOAD DUP1 DUP4 SUB DUP2 DUP7 DUP1 EXTCODESIZE ISZERO DUP1 ISZERO PUSH2 0x136F JUMPI PUSH1 0x0 DUP1 REVERT JUMPDEST POP GAS DELEGATECALL ISZERO DUP1 ISZERO PUSH2 0x1383 JUMPI RETURNDATASIZE PUSH1 0x0 DUP1 RETURNDATACOPY RETURNDATASIZE PUSH1 0x0 REVERT JUMPDEST POP POP POP POP PUSH1 0x40 MLOAD RETURNDATASIZE PUSH1 0x1F NOT PUSH1 0x1F DUP3 ADD AND DUP3 ADD DUP1 PUSH1 0x40 MSTORE POP DUP2 ADD SWAP1 PUSH2 0x13A7 SWAP2 SWAP1 PUSH2 0x47BC JUMP JUMPDEST POP POP PUSH2 0x1518 JUMP JUMPDEST PUSH4 0x4E487B71 EQ ISZERO PUSH2 0x145B JUMPI PUSH2 0x13C1 PUSH2 0x6506 JUMP JUMPDEST SWAP1 PUSH2 0x13CC JUMPI POP PUSH2 0x145B JUMP JUMPDEST PUSH20 0x0 PUSH4 0x39DF137F PUSH1 0x0 PUSH1 0x40 MLOAD DUP3 PUSH4 0xFFFFFFFF AND PUSH1 0xE0 SHL DUP2 MSTORE PUSH1 0x4 ADD PUSH2 0x1404 SWAP2 SWAP1 PUSH2 0x531D JUMP JUMPDEST PUSH1 0x20 PUSH1 0x40 MLOAD DUP1 DUP4 SUB DUP2 DUP7 DUP1 EXTCODESIZE ISZERO DUP1 ISZERO PUSH2 0x141C JUMPI PUSH1 0x0 DUP1 REVERT JUMPDEST POP GAS DELEGATECALL ISZERO DUP1 ISZERO PUSH2 0x1430 JUMPI RETURNDATASIZE PUSH1 0x0 DUP1 RETURNDATACOPY RETURNDATASIZE PUSH1 0x0 REVERT JUMPDEST POP POP POP POP PUSH1 0x40 MLOAD RETURNDATASIZE PUSH1 0x1F NOT PUSH1 0x1F DUP3 ADD AND DUP3 ADD DUP1 PUSH1 0x40 MSTORE POP DUP2 ADD SWAP1 PUSH2 0x1454 SWAP2 SWAP1 PUSH2 0x47BC JUMP JUMPDEST POP POP PUSH2 0x1518 JUMP JUMPDEST RETURNDATASIZE DUP1 PUSH1 0x0 DUP2 EQ PUSH2 0x1487 JUMPI PUSH1 0x40 MLOAD SWAP2 POP PUSH1 0x1F NOT PUSH1 0x3F RETURNDATASIZE ADD AND DUP3 ADD PUSH1 0x40 MSTORE RETURNDATASIZE DUP3 MSTORE RETURNDATASIZE PUSH1 0x0 PUSH1 0x20 DUP5 ADD RETURNDATACOPY PUSH2 0x148C JUMP JUMPDEST PUSH1 0x60 SWAP2 POP JUMPDEST POP PUSH20 0x0 PUSH4 0x39DF137F PUSH1 0x0 PUSH1 0x40 MLOAD DUP3 PUSH4 0xFFFFFFFF AND PUSH1 0xE0 SHL DUP2 MSTORE PUSH1 0x4 ADD PUSH2 0x14C5 SWAP2 SWAP1 PUSH2 0x52EF JUMP JUMPDEST PUSH1 0x20 PUSH1 0x40 MLOAD DUP1 DUP4 SUB DUP2 DUP7 DUP1 EXTCODESIZE ISZERO DUP1 ISZERO PUSH2 0x14DD JUMPI PUSH1 0x0 DUP1 REVERT JUMPDEST POP GAS DELEGATECALL ISZERO DUP1 ISZERO PUSH2 0x14F1 JUMPI RETURNDATASIZE PUSH1 0x0 DUP1 RETURNDATACOPY RETURNDATASIZE PUSH1 0x0 REVERT JUMPDEST POP POP POP POP PUSH1 0x40 MLOAD RETURNDATASIZE PUSH1 0x1F NOT PUSH1 0x1F DUP3 ADD AND DUP3 ADD DUP1 PUSH1 0x40 MSTORE POP DUP2 ADD SWAP1 PUSH2 0x1515 SWAP2 SWAP1 PUSH2 0x47BC JUMP JUMPDEST POP POP JUMPDEST PUSH2 0x15A8 JUMP JUMPDEST PUSH20 0x0 PUSH4 0x39DF137F PUSH1 0x0 PUSH1 0x40 MLOAD DUP3 PUSH4 0xFFFFFFFF AND PUSH1 0xE0 SHL DUP2 MSTORE PUSH1 0x4 ADD PUSH2 0x1555 SWAP2 SWAP1 PUSH2 0x534B JUMP JUMPDEST PUSH1 0x20 PUSH1 0x40 MLOAD DUP1 DUP4 SUB DUP2 DUP7 DUP1 EXTCODESIZE ISZERO DUP1 ISZERO PUSH2 0x156D JUMPI PUSH1 0x0 DUP1 REVERT JUMPDEST POP GAS DELEGATECALL ISZERO DUP1 ISZERO PUSH2 0x1581 JUMPI RETURNDATASIZE PUSH1 0x0 DUP1 RETURNDATACOPY RETURNDATASIZE PUSH1 0x0 REVERT JUMPDEST POP POP POP POP PUSH1 0x40 MLOAD RETURNDATASIZE PUSH1 0x1F NOT PUSH1 0x1F DUP3 ADD AND DUP3 ADD DUP1 PUSH1 0x40 MSTORE POP DUP2 ADD SWAP1 PUSH2 0x15A5 SWAP2 SWAP1 PUSH2 0x47BC JUMP JUMPDEST POP POP JUMPDEST JUMP JUMPDEST ADDRESS PUSH20 0xFFFFFFFFFFFFFFFFFFFFFFFFFFFFFFFFFFFFFFFF AND PUSH4 0x6D77BD3E PUSH1 0x40 MLOAD DUP2 PUSH4 0xFFFFFFFF AND PUSH1 0xE0 SHL DUP2 MSTORE PUSH1 0x4 ADD PUSH2 0x15E1 SWAP1 PUSH2 0x5805 JUMP JUMPDEST PUSH1 0x20 PUSH1 0x40 MLOAD DUP1 DUP4 SUB DUP2 PUSH1 0x0 DUP8 DUP1 EXTCODESIZE ISZERO DUP1 ISZERO PUSH2 0x15FB JUMPI PUSH1 0x0 DUP1 REVERT JUMPDEST POP GAS CALL SWAP3 POP POP POP DUP1 ISZERO PUSH2 0x162C JUMPI POP PUSH1 0x40 MLOAD RETURNDATASIZE PUSH1 0x1F NOT PUSH1 0x1F DUP3 ADD AND DUP3 ADD DUP1 PUSH1 0x40 MSTORE POP DUP2 ADD SWAP1 PUSH2 0x1629 SWAP2 SWAP1 PUSH2 0x485F JUMP JUMPDEST PUSH1 0x1 JUMPDEST PUSH2 0x1855 JUMPI PUSH2 0x1638 PUSH2 0x5DA9 JUMP JUMPDEST DUP1 PUSH4 0x8C379A0 EQ ISZERO PUSH2 0x16E6 JUMPI POP PUSH2 0x164D PUSH2 0x6470 JUMP JUMPDEST DUP1 PUSH2 0x1658 JUMPI POP PUSH2 0x1793 JUMP JUMPDEST PUSH20 0x0 PUSH4 0xE8C2CB16 DUP3 PUSH1 0x40 MLOAD DUP3 PUSH4 0xFFFFFFFF AND PUSH1 0xE0 SHL DUP2 MSTORE PUSH1 0x4 ADD PUSH2 0x168F SWAP2 SWAP1 PUSH2 0x564D JUMP JUMPDEST PUSH1 0x20 PUSH1 0x40 MLOAD DUP1 DUP4 SUB DUP2 DUP7 DUP1 EXTCODESIZE ISZERO DUP1 ISZERO PUSH2 0x16A7 JUMPI PUSH1 0x0 DUP1 REVERT JUMPDEST POP GAS DELEGATECALL ISZERO DUP1 ISZERO PUSH2 0x16BB JUMPI RETURNDATASIZE PUSH1 0x0 DUP1 RETURNDATACOPY RETURNDATASIZE PUSH1 0x0 REVERT JUMPDEST POP POP POP POP PUSH1 0x40 MLOAD RETURNDATASIZE PUSH1 0x1F NOT PUSH1 0x1F DUP3 ADD AND DUP3 ADD DUP1 PUSH1 0x40 MSTORE POP DUP2 ADD SWAP1 PUSH2 0x16DF SWAP2 SWAP1 PUSH2 0x47BC JUMP JUMPDEST POP POP PUSH2 0x1850 JUMP JUMPDEST PUSH4 0x4E487B71 EQ ISZERO PUSH2 0x1793 JUMPI PUSH2 0x16F9 PUSH2 0x6506 JUMP JUMPDEST SWAP1 PUSH2 0x1704 JUMPI POP PUSH2 0x1793 JUMP JUMPDEST PUSH20 0x0 PUSH4 0x39DF137F PUSH1 0x0 PUSH1 0x40 MLOAD DUP3 PUSH4 0xFFFFFFFF AND PUSH1 0xE0 SHL DUP2 MSTORE PUSH1 0x4 ADD PUSH2 0x173C SWAP2 SWAP1 PUSH2 0x531D JUMP JUMPDEST PUSH1 0x20 PUSH1 0x40 MLOAD DUP1 DUP4 SUB DUP2 DUP7 DUP1 EXTCODESIZE ISZERO DUP1 ISZERO PUSH2 0x1754 JUMPI PUSH1 0x0 DUP1 REVERT JUMPDEST POP GAS DELEGATECALL ISZERO DUP1 ISZERO PUSH2 0x1768 JUMPI RETURNDATASIZE PUSH1 0x0 DUP1 RETURNDATACOPY RETURNDATASIZE PUSH1 0x0 REVERT JUMPDEST POP POP POP POP PUSH1 0x40 MLOAD RETURNDATASIZE PUSH1 0x1F NOT PUSH1 0x1F DUP3 ADD AND DUP3 ADD DUP1 PUSH1 0x40 MSTORE POP DUP2 ADD SWAP1 PUSH2 0x178C SWAP2 SWAP1 PUSH2 0x47BC JUMP JUMPDEST POP POP PUSH2 0x1850 JUMP JUMPDEST RETURNDATASIZE DUP1 PUSH1 0x0 DUP2 EQ PUSH2 0x17BF JUMPI PUSH1 0x40 MLOAD SWAP2 POP PUSH1 0x1F NOT PUSH1 0x3F RETURNDATASIZE ADD AND DUP3 ADD PUSH1 0x40 MSTORE RETURNDATASIZE DUP3 MSTORE RETURNDATASIZE PUSH1 0x0 PUSH1 0x20 DUP5 ADD RETURNDATACOPY PUSH2 0x17C4 JUMP JUMPDEST PUSH1 0x60 SWAP2 POP JUMPDEST POP PUSH20 0x0 PUSH4 0x39DF137F PUSH1 0x0 PUSH1 0x40 MLOAD DUP3 PUSH4 0xFFFFFFFF AND PUSH1 0xE0 SHL DUP2 MSTORE PUSH1 0x4 ADD PUSH2 0x17FD SWAP2 SWAP1 PUSH2 0x52EF JUMP JUMPDEST PUSH1 0x20 PUSH1 0x40 MLOAD DUP1 DUP4 SUB DUP2 DUP7 DUP1 EXTCODESIZE ISZERO DUP1 ISZERO PUSH2 0x1815 JUMPI PUSH1 0x0 DUP1 REVERT JUMPDEST POP GAS DELEGATECALL ISZERO DUP1 ISZERO PUSH2 0x1829 JUMPI RETURNDATASIZE PUSH1 0x0 DUP1 RETURNDATACOPY RETURNDATASIZE PUSH1 0x0 REVERT JUMPDEST POP POP POP POP PUSH1 0x40 MLOAD RETURNDATASIZE PUSH1 0x1F NOT PUSH1 0x1F DUP3 ADD AND DUP3 ADD DUP1 PUSH1 0x40 MSTORE POP DUP2 ADD SWAP1 PUSH2 0x184D SWAP2 SWAP1 PUSH2 0x47BC JUMP JUMPDEST POP POP JUMPDEST PUSH2 0x18E2 JUMP JUMPDEST PUSH20 0x0 PUSH4 0x561015E2 DUP3 PUSH1 0x3 PUSH1 0x40 MLOAD DUP4 PUSH4 0xFFFFFFFF AND PUSH1 0xE0 SHL DUP2 MSTORE PUSH1 0x4 ADD PUSH2 0x188F SWAP3 SWAP2 SWAP1 PUSH2 0x5950 JUMP JUMPDEST PUSH1 0x20 PUSH1 0x40 MLOAD DUP1 DUP4 SUB DUP2 DUP7 DUP1 EXTCODESIZE ISZERO DUP1 ISZERO PUSH2 0x18A7 JUMPI PUSH1 0x0 DUP1 REVERT JUMPDEST POP GAS DELEGATECALL ISZERO DUP1 ISZERO PUSH2 0x18BB JUMPI RETURNDATASIZE PUSH1 0x0 DUP1 RETURNDATACOPY RETURNDATASIZE PUSH1 0x0 REVERT JUMPDEST POP POP POP POP PUSH1 0x40 MLOAD RETURNDATASIZE PUSH1 0x1F NOT PUSH1 0x1F DUP3 ADD AND DUP3 ADD DUP1 PUSH1 0x40 MSTORE POP DUP2 ADD SWAP1 PUSH2 0x18DF SWAP2 SWAP1 PUSH2 0x47BC JUMP JUMPDEST POP POP JUMPDEST JUMP JUMPDEST PUSH1 0x0 DUP1 SLOAD SWAP1 PUSH2 0x100 EXP SWAP1 DIV PUSH1 0xFF AND DUP2 JUMP JUMPDEST PUSH1 0x1 PUSH1 0x0 DUP1 PUSH2 0x100 EXP DUP2 SLOAD DUP2 PUSH1 0xFF MUL NOT AND SWAP1 DUP4 PUSH1 0x2 DUP2 GT ISZERO PUSH2 0x191A JUMPI PUSH2 0x1919 PUSH2 0x5D1C JUMP JUMPDEST JUMPDEST MUL OR SWAP1 SSTORE POP PUSH20 0x0 PUSH4 0x39DF137F PUSH2 0x1943 PUSH1 0x2 PUSH2 0x3B4F JUMP JUMPDEST PUSH1 0x40 MLOAD DUP3 PUSH4 0xFFFFFFFF AND PUSH1 0xE0 SHL DUP2 MSTORE PUSH1 0x4 ADD PUSH2 0x195F SWAP2 SWAP1 PUSH2 0x5379 JUMP JUMPDEST PUSH1 0x20 PUSH1 0x40 MLOAD DUP1 DUP4 SUB DUP2 DUP7 DUP1 EXTCODESIZE ISZERO DUP1 ISZERO PUSH2 0x1977 JUMPI PUSH1 0x0 DUP1 REVERT JUMPDEST POP GAS DELEGATECALL ISZERO DUP1 ISZERO PUSH2 0x198B JUMPI RETURNDATASIZE PUSH1 0x0 DUP1 RETURNDATACOPY RETURNDATASIZE PUSH1 0x0 REVERT JUMPDEST POP POP POP POP PUSH1 0x40 MLOAD RETURNDATASIZE PUSH1 0x1F NOT PUSH1 0x1F DUP3 ADD AND DUP3 ADD DUP1 PUSH1 0x40 MSTORE POP DUP2 ADD SWAP1 PUSH2 0x19AF SWAP2 SWAP1 PUSH2 0x47BC JUMP JUMPDEST POP JUMP JUMPDEST ADDRESS PUSH20 0xFFFFFFFFFFFFFFFFFFFFFFFFFFFFFFFFFFFFFFFF AND PUSH4 0x6D77BD3E PUSH1 0x40 MLOAD DUP2 PUSH4 0xFFFFFFFF AND PUSH1 0xE0 SHL DUP2 MSTORE PUSH1 0x4 ADD PUSH2 0x19E9 SWAP1 PUSH2 0x5765 JUMP JUMPDEST PUSH1 0x20 PUSH1 0x40 MLOAD DUP1 DUP4 SUB DUP2 PUSH1 0x0 DUP8 DUP1 EXTCODESIZE ISZERO DUP1 ISZERO PUSH2 0x1A03 JUMPI PUSH1 0x0 DUP1 REVERT JUMPDEST POP GAS CALL SWAP3 POP POP POP DUP1 ISZERO PUSH2 0x1A34 JUMPI POP PUSH1 0x40 MLOAD RETURNDATASIZE PUSH1 0x1F NOT PUSH1 0x1F DUP3 ADD AND DUP3 ADD DUP1 PUSH1 0x40 MSTORE POP DUP2 ADD SWAP1 PUSH2 0x1A31 SWAP2 SWAP1 PUSH2 0x485F JUMP JUMPDEST PUSH1 0x1 JUMPDEST PUSH2 0x1C5D JUMPI PUSH2 0x1A40 PUSH2 0x5DA9 JUMP JUMPDEST DUP1 PUSH4 0x8C379A0 EQ ISZERO PUSH2 0x1AEE JUMPI POP PUSH2 0x1A55 PUSH2 0x6470 JUMP JUMPDEST DUP1 PUSH2 0x1A60 JUMPI POP PUSH2 0x1B9B JUMP JUMPDEST PUSH20 0x0 PUSH4 0xE8C2CB16 DUP3 PUSH1 0x40 MLOAD DUP3 PUSH4 0xFFFFFFFF AND PUSH1 0xE0 SHL DUP2 MSTORE PUSH1 0x4 ADD PUSH2 0x1A97 SWAP2 SWAP1 PUSH2 0x5695 JUMP JUMPDEST PUSH1 0x20 PUSH1 0x40 MLOAD DUP1 DUP4 SUB DUP2 DUP7 DUP1 EXTCODESIZE ISZERO DUP1 ISZERO PUSH2 0x1AAF JUMPI PUSH1 0x0 DUP1 REVERT JUMPDEST POP GAS DELEGATECALL ISZERO DUP1 ISZERO PUSH2 0x1AC3 JUMPI RETURNDATASIZE PUSH1 0x0 DUP1 RETURNDATACOPY RETURNDATASIZE PUSH1 0x0 REVERT JUMPDEST POP POP POP POP PUSH1 0x40 MLOAD RETURNDATASIZE PUSH1 0x1F NOT PUSH1 0x1F DUP3 ADD AND DUP3 ADD DUP1 PUSH1 0x40 MSTORE POP DUP2 ADD SWAP1 PUSH2 0x1AE7 SWAP2 SWAP1 PUSH2 0x47BC JUMP JUMPDEST POP POP PUSH2 0x1C58 JUMP JUMPDEST PUSH4 0x4E487B71 EQ ISZERO PUSH2 0x1B9B JUMPI PUSH2 0x1B01 PUSH2 0x6506 JUMP JUMPDEST SWAP1 PUSH2 0x1B0C JUMPI POP PUSH2 0x1B9B JUMP JUMPDEST PUSH20 0x0 PUSH4 0x39DF137F PUSH1 0x0 PUSH1 0x40 MLOAD DUP3 PUSH4 0xFFFFFFFF AND PUSH1 0xE0 SHL DUP2 MSTORE PUSH1 0x4 ADD PUSH2 0x1B44 SWAP2 SWAP1 PUSH2 0x531D JUMP JUMPDEST PUSH1 0x20 PUSH1 0x40 MLOAD DUP1 DUP4 SUB DUP2 DUP7 DUP1 EXTCODESIZE ISZERO DUP1 ISZERO PUSH2 0x1B5C JUMPI PUSH1 0x0 DUP1 REVERT JUMPDEST POP GAS DELEGATECALL ISZERO DUP1 ISZERO PUSH2 0x1B70 JUMPI RETURNDATASIZE PUSH1 0x0 DUP1 RETURNDATACOPY RETURNDATASIZE PUSH1 0x0 REVERT JUMPDEST POP POP POP POP PUSH1 0x40 MLOAD RETURNDATASIZE PUSH1 0x1F NOT PUSH1 0x1F DUP3 ADD AND DUP3 ADD DUP1 PUSH1 0x40 MSTORE POP DUP2 ADD SWAP1 PUSH2 0x1B94 SWAP2 SWAP1 PUSH2 0x47BC JUMP JUMPDEST POP POP PUSH2 0x1C58 JUMP JUMPDEST RETURNDATASIZE DUP1 PUSH1 0x0 DUP2 EQ PUSH2 0x1BC7 JUMPI PUSH1 0x40 MLOAD SWAP2 POP PUSH1 0x1F NOT PUSH1 0x3F RETURNDATASIZE ADD AND DUP3 ADD PUSH1 0x40 MSTORE RETURNDATASIZE DUP3 MSTORE RETURNDATASIZE PUSH1 0x0 PUSH1 0x20 DUP5 ADD RETURNDATACOPY PUSH2 0x1BCC JUMP JUMPDEST PUSH1 0x60 SWAP2 POP JUMPDEST POP PUSH20 0x0 PUSH4 0x39DF137F PUSH1 0x0 PUSH1 0x40 MLOAD DUP3 PUSH4 0xFFFFFFFF AND PUSH1 0xE0 SHL DUP2 MSTORE PUSH1 0x4 ADD PUSH2 0x1C05 SWAP2 SWAP1 PUSH2 0x52EF JUMP JUMPDEST PUSH1 0x20 PUSH1 0x40 MLOAD DUP1 DUP4 SUB DUP2 DUP7 DUP1 EXTCODESIZE ISZERO DUP1 ISZERO PUSH2 0x1C1D JUMPI PUSH1 0x0 DUP1 REVERT JUMPDEST POP GAS DELEGATECALL ISZERO DUP1 ISZERO PUSH2 0x1C31 JUMPI RETURNDATASIZE PUSH1 0x0 DUP1 RETURNDATACOPY RETURNDATASIZE PUSH1 0x0 REVERT JUMPDEST POP POP POP POP PUSH1 0x40 MLOAD RETURNDATASIZE PUSH1 0x1F NOT PUSH1 0x1F DUP3 ADD AND DUP3 ADD DUP1 PUSH1 0x40 MSTORE POP DUP2 ADD SWAP1 PUSH2 0x1C55 SWAP2 SWAP1 PUSH2 0x47BC JUMP JUMPDEST POP POP JUMPDEST PUSH2 0x1CE8 JUMP JUMPDEST PUSH20 0x0 PUSH4 0x39DF137F PUSH1 0x0 PUSH1 0x40 MLOAD DUP3 PUSH4 0xFFFFFFFF AND PUSH1 0xE0 SHL DUP2 MSTORE PUSH1 0x4 ADD PUSH2 0x1C95 SWAP2 SWAP1 PUSH2 0x53D5 JUMP JUMPDEST PUSH1 0x20 PUSH1 0x40 MLOAD DUP1 DUP4 SUB DUP2 DUP7 DUP1 EXTCODESIZE ISZERO DUP1 ISZERO PUSH2 0x1CAD JUMPI PUSH1 0x0 DUP1 REVERT JUMPDEST POP GAS DELEGATECALL ISZERO DUP1 ISZERO PUSH2 0x1CC1 JUMPI RETURNDATASIZE PUSH1 0x0 DUP1 RETURNDATACOPY RETURNDATASIZE PUSH1 0x0 REVERT JUMPDEST POP POP POP POP PUSH1 0x40 MLOAD RETURNDATASIZE PUSH1 0x1F NOT PUSH1 0x1F DUP3 ADD AND DUP3 ADD DUP1 PUSH1 0x40 MSTORE POP DUP2 ADD SWAP1 PUSH2 0x1CE5 SWAP2 SWAP1 PUSH2 0x47BC JUMP JUMPDEST POP POP JUMPDEST JUMP JUMPDEST PUSH1 0x0 PUSH32 0x0 PUSH20 0xFFFFFFFFFFFFFFFFFFFFFFFFFFFFFFFFFFFFFFFF AND ORIGIN PUSH20 0xFFFFFFFFFFFFFFFFFFFFFFFFFFFFFFFFFFFFFFFF AND EQ DUP1 PUSH2 0x1D91 JUMPI POP PUSH32 0x0 PUSH20 0xFFFFFFFFFFFFFFFFFFFFFFFFFFFFFFFFFFFFFFFF AND CALLER PUSH20 0xFFFFFFFFFFFFFFFFFFFFFFFFFFFFFFFFFFFFFFFF AND EQ JUMPDEST PUSH2 0x1DD0 JUMPI PUSH1 0x40 MLOAD PUSH32 0x8C379A000000000000000000000000000000000000000000000000000000000 DUP2 MSTORE PUSH1 0x4 ADD PUSH2 0x1DC7 SWAP1 PUSH2 0x57E5 JUMP JUMPDEST PUSH1 0x40 MLOAD DUP1 SWAP2 SUB SWAP1 REVERT JUMPDEST DUP2 PUSH1 0x0 DUP1 PUSH1 0x1 SWAP1 POP JUMPDEST PUSH1 0x3 PUSH1 0x0 SWAP1 SLOAD SWAP1 PUSH2 0x100 EXP SWAP1 DIV PUSH1 0xFF AND PUSH1 0xFF AND DUP2 PUSH1 0xFF AND GT PUSH2 0x1E7D JUMPI DUP3 PUSH1 0x40 MLOAD PUSH1 0x20 ADD PUSH2 0x1E06 SWAP2 SWAP1 PUSH2 0x5050 JUMP JUMPDEST PUSH1 0x40 MLOAD PUSH1 0x20 DUP2 DUP4 SUB SUB DUP2 MSTORE SWAP1 PUSH1 0x40 MSTORE DUP1 MLOAD SWAP1 PUSH1 0x20 ADD KECCAK256 PUSH1 0x1 PUSH1 0x0 DUP4 PUSH1 0xFF AND PUSH1 0xFF AND DUP2 MSTORE PUSH1 0x20 ADD SWAP1 DUP2 MSTORE PUSH1 0x20 ADD PUSH1 0x0 KECCAK256 PUSH1 0x40 MLOAD PUSH1 0x20 ADD PUSH2 0x1E45 SWAP2 SWAP1 PUSH2 0x5067 JUMP JUMPDEST PUSH1 0x40 MLOAD PUSH1 0x20 DUP2 DUP4 SUB SUB DUP2 MSTORE SWAP1 PUSH1 0x40 MSTORE DUP1 MLOAD SWAP1 PUSH1 0x20 ADD KECCAK256 EQ ISZERO PUSH2 0x1E6A JUMPI PUSH1 0x1 SWAP2 POP PUSH2 0x1E7D JUMP JUMPDEST DUP1 DUP1 PUSH2 0x1E75 SWAP1 PUSH2 0x5C94 JUMP JUMPDEST SWAP2 POP POP PUSH2 0x1DD9 JUMP JUMPDEST POP DUP1 ISZERO PUSH2 0x1EBF JUMPI PUSH1 0x40 MLOAD PUSH32 0x8C379A000000000000000000000000000000000000000000000000000000000 DUP2 MSTORE PUSH1 0x4 ADD PUSH2 0x1EB6 SWAP1 PUSH2 0x5825 JUMP JUMPDEST PUSH1 0x40 MLOAD DUP1 SWAP2 SUB SWAP1 REVERT JUMPDEST PUSH1 0x0 DUP1 PUSH1 0x2 DUP2 GT ISZERO PUSH2 0x1ED4 JUMPI PUSH2 0x1ED3 PUSH2 0x5D1C JUMP JUMPDEST JUMPDEST PUSH1 0x0 DUP1 SLOAD SWAP1 PUSH2 0x100 EXP SWAP1 DIV PUSH1 0xFF AND PUSH1 0x2 DUP2 GT ISZERO PUSH2 0x1EF4 JUMPI PUSH2 0x1EF3 PUSH2 0x5D1C JUMP JUMPDEST JUMPDEST EQ PUSH2 0x1F34 JUMPI PUSH1 0x40 MLOAD PUSH32 0x8C379A000000000000000000000000000000000000000000000000000000000 DUP2 MSTORE PUSH1 0x4 ADD PUSH2 0x1F2B SWAP1 PUSH2 0x57A5 JUMP JUMPDEST PUSH1 0x40 MLOAD DUP1 SWAP2 SUB SWAP1 REVERT JUMPDEST PUSH1 0x7 PUSH1 0x0 SWAP1 SLOAD SWAP1 PUSH2 0x100 EXP SWAP1 DIV PUSH1 0xFF AND ISZERO PUSH2 0x1F84 JUMPI PUSH1 0x40 MLOAD PUSH32 0x8C379A000000000000000000000000000000000000000000000000000000000 DUP2 MSTORE PUSH1 0x4 ADD PUSH2 0x1F7B SWAP1 PUSH2 0x5785 JUMP JUMPDEST PUSH1 0x40 MLOAD DUP1 SWAP2 SUB SWAP1 REVERT JUMPDEST PUSH1 0x3 PUSH1 0x0 DUP2 DUP2 SWAP1 SLOAD SWAP1 PUSH2 0x100 EXP SWAP1 DIV PUSH1 0xFF AND DUP1 SWAP3 SWAP2 SWAP1 PUSH2 0x1FA3 SWAP1 PUSH2 0x5C94 JUMP JUMPDEST SWAP2 SWAP1 PUSH2 0x100 EXP DUP2 SLOAD DUP2 PUSH1 0xFF MUL NOT AND SWAP1 DUP4 PUSH1 0xFF AND MUL OR SWAP1 SSTORE POP POP DUP5 PUSH1 0x1 PUSH1 0x0 PUSH1 0x3 PUSH1 0x0 SWAP1 SLOAD SWAP1 PUSH2 0x100 EXP SWAP1 DIV PUSH1 0xFF AND PUSH1 0xFF AND PUSH1 0xFF AND DUP2 MSTORE PUSH1 0x20 ADD SWAP1 DUP2 MSTORE PUSH1 0x20 ADD PUSH1 0x0 KECCAK256 SWAP1 DUP1 MLOAD SWAP1 PUSH1 0x20 ADD SWAP1 PUSH2 0x1FF8 SWAP3 SWAP2 SWAP1 PUSH2 0x44FD JUMP JUMPDEST POP PUSH1 0x3 PUSH1 0x0 SWAP1 SLOAD SWAP1 PUSH2 0x100 EXP SWAP1 DIV PUSH1 0xFF AND SWAP4 POP POP POP POP SWAP2 SWAP1 POP JUMP JUMPDEST PUSH32 0x0 PUSH20 0xFFFFFFFFFFFFFFFFFFFFFFFFFFFFFFFFFFFFFFFF AND ORIGIN PUSH20 0xFFFFFFFFFFFFFFFFFFFFFFFFFFFFFFFFFFFFFFFF AND EQ DUP1 PUSH2 0x20B8 JUMPI POP PUSH32 0x0 PUSH20 0xFFFFFFFFFFFFFFFFFFFFFFFFFFFFFFFFFFFFFFFF AND CALLER PUSH20 0xFFFFFFFFFFFFFFFFFFFFFFFFFFFFFFFFFFFFFFFF AND EQ JUMPDEST PUSH2 0x20F7 JUMPI PUSH1 0x40 MLOAD PUSH32 0x8C379A000000000000000000000000000000000000000000000000000000000 DUP2 MSTORE PUSH1 0x4 ADD PUSH2 0x20EE SWAP1 PUSH2 0x57E5 JUMP JUMPDEST PUSH1 0x40 MLOAD DUP1 SWAP2 SUB SWAP1 REVERT JUMPDEST PUSH1 0x7 PUSH1 0x0 SWAP1 SLOAD SWAP1 PUSH2 0x100 EXP SWAP1 DIV PUSH1 0xFF AND ISZERO PUSH1 0x7 PUSH1 0x0 PUSH2 0x100 EXP DUP2 SLOAD DUP2 PUSH1 0xFF MUL NOT AND SWAP1 DUP4 ISZERO ISZERO MUL OR SWAP1 SSTORE POP JUMP JUMPDEST PUSH1 0x7 PUSH1 0x0 SWAP1 SLOAD SWAP1 PUSH2 0x100 EXP SWAP1 DIV PUSH1 0xFF AND DUP2 JUMP JUMPDEST ADDRESS PUSH20 0xFFFFFFFFFFFFFFFFFFFFFFFFFFFFFFFFFFFFFFFF AND PUSH4 0x3B9F708D PUSH1 0xB PUSH1 0x0 SWAP1 SLOAD SWAP1 PUSH2 0x100 EXP SWAP1 DIV PUSH20 0xFFFFFFFFFFFFFFFFFFFFFFFFFFFFFFFFFFFFFFFF AND PUSH1 0x40 MLOAD DUP3 PUSH4 0xFFFFFFFF AND PUSH1 0xE0 SHL DUP2 MSTORE PUSH1 0x4 ADD PUSH2 0x2191 SWAP2 SWAP1 PUSH2 0x5103 JUMP JUMPDEST PUSH1 0x20 PUSH1 0x40 MLOAD DUP1 DUP4 SUB DUP2 PUSH1 0x0 DUP8 DUP1 EXTCODESIZE ISZERO DUP1 ISZERO PUSH2 0x21AB JUMPI PUSH1 0x0 DUP1 REVERT JUMPDEST POP GAS CALL SWAP3 POP POP POP DUP1 ISZERO PUSH2 0x21DC JUMPI POP PUSH1 0x40 MLOAD RETURNDATASIZE PUSH1 0x1F NOT PUSH1 0x1F DUP3 ADD AND DUP3 ADD DUP1 PUSH1 0x40 MSTORE POP DUP2 ADD SWAP1 PUSH2 0x21D9 SWAP2 SWAP1 PUSH2 0x485F JUMP JUMPDEST PUSH1 0x1 JUMPDEST PUSH2 0x2405 JUMPI PUSH2 0x21E8 PUSH2 0x5DA9 JUMP JUMPDEST DUP1 PUSH4 0x8C379A0 EQ ISZERO PUSH2 0x2296 JUMPI POP PUSH2 0x21FD PUSH2 0x6470 JUMP JUMPDEST DUP1 PUSH2 0x2208 JUMPI POP PUSH2 0x2343 JUMP JUMPDEST PUSH20 0x0 PUSH4 0xE8C2CB16 DUP3 PUSH1 0x40 MLOAD DUP3 PUSH4 0xFFFFFFFF AND PUSH1 0xE0 SHL DUP2 MSTORE PUSH1 0x4 ADD PUSH2 0x223F SWAP2 SWAP1 PUSH2 0x564D JUMP JUMPDEST PUSH1 0x20 PUSH1 0x40 MLOAD DUP1 DUP4 SUB DUP2 DUP7 DUP1 EXTCODESIZE ISZERO DUP1 ISZERO PUSH2 0x2257 JUMPI PUSH1 0x0 DUP1 REVERT JUMPDEST POP GAS DELEGATECALL ISZERO DUP1 ISZERO PUSH2 0x226B JUMPI RETURNDATASIZE PUSH1 0x0 DUP1 RETURNDATACOPY RETURNDATASIZE PUSH1 0x0 REVERT JUMPDEST POP POP POP POP PUSH1 0x40 MLOAD RETURNDATASIZE PUSH1 0x1F NOT PUSH1 0x1F DUP3 ADD AND DUP3 ADD DUP1 PUSH1 0x40 MSTORE POP DUP2 ADD SWAP1 PUSH2 0x228F SWAP2 SWAP1 PUSH2 0x47BC JUMP JUMPDEST POP POP PUSH2 0x2400 JUMP JUMPDEST PUSH4 0x4E487B71 EQ ISZERO PUSH2 0x2343 JUMPI PUSH2 0x22A9 PUSH2 0x6506 JUMP JUMPDEST SWAP1 PUSH2 0x22B4 JUMPI POP PUSH2 0x2343 JUMP JUMPDEST PUSH20 0x0 PUSH4 0x39DF137F PUSH1 0x0 PUSH1 0x40 MLOAD DUP3 PUSH4 0xFFFFFFFF AND PUSH1 0xE0 SHL DUP2 MSTORE PUSH1 0x4 ADD PUSH2 0x22EC SWAP2 SWAP1 PUSH2 0x52C1 JUMP JUMPDEST PUSH1 0x20 PUSH1 0x40 MLOAD DUP1 DUP4 SUB DUP2 DUP7 DUP1 EXTCODESIZE ISZERO DUP1 ISZERO PUSH2 0x2304 JUMPI PUSH1 0x0 DUP1 REVERT JUMPDEST POP GAS DELEGATECALL ISZERO DUP1 ISZERO PUSH2 0x2318 JUMPI RETURNDATASIZE PUSH1 0x0 DUP1 RETURNDATACOPY RETURNDATASIZE PUSH1 0x0 REVERT JUMPDEST POP POP POP POP PUSH1 0x40 MLOAD RETURNDATASIZE PUSH1 0x1F NOT PUSH1 0x1F DUP3 ADD AND DUP3 ADD DUP1 PUSH1 0x40 MSTORE POP DUP2 ADD SWAP1 PUSH2 0x233C SWAP2 SWAP1 PUSH2 0x47BC JUMP JUMPDEST POP POP PUSH2 0x2400 JUMP JUMPDEST RETURNDATASIZE DUP1 PUSH1 0x0 DUP2 EQ PUSH2 0x236F JUMPI PUSH1 0x40 MLOAD SWAP2 POP PUSH1 0x1F NOT PUSH1 0x3F RETURNDATASIZE ADD AND DUP3 ADD PUSH1 0x40 MSTORE RETURNDATASIZE DUP3 MSTORE RETURNDATASIZE PUSH1 0x0 PUSH1 0x20 DUP5 ADD RETURNDATACOPY PUSH2 0x2374 JUMP JUMPDEST PUSH1 0x60 SWAP2 POP JUMPDEST POP PUSH20 0x0 PUSH4 0x39DF137F PUSH1 0x0 PUSH1 0x40 MLOAD DUP3 PUSH4 0xFFFFFFFF AND PUSH1 0xE0 SHL DUP2 MSTORE PUSH1 0x4 ADD PUSH2 0x23AD SWAP2 SWAP1 PUSH2 0x5265 JUMP JUMPDEST PUSH1 0x20 PUSH1 0x40 MLOAD DUP1 DUP4 SUB DUP2 DUP7 DUP1 EXTCODESIZE ISZERO DUP1 ISZERO PUSH2 0x23C5 JUMPI PUSH1 0x0 DUP1 REVERT JUMPDEST POP GAS DELEGATECALL ISZERO DUP1 ISZERO PUSH2 0x23D9 JUMPI RETURNDATASIZE PUSH1 0x0 DUP1 RETURNDATACOPY RETURNDATASIZE PUSH1 0x0 REVERT JUMPDEST POP POP POP POP PUSH1 0x40 MLOAD RETURNDATASIZE PUSH1 0x1F NOT PUSH1 0x1F DUP3 ADD AND DUP3 ADD DUP1 PUSH1 0x40 MSTORE POP DUP2 ADD SWAP1 PUSH2 0x23FD SWAP2 SWAP1 PUSH2 0x47BC JUMP JUMPDEST POP POP JUMPDEST PUSH2 0x2490 JUMP JUMPDEST PUSH20 0x0 PUSH4 0x39DF137F PUSH1 0x0 PUSH1 0x40 MLOAD DUP3 PUSH4 0xFFFFFFFF AND PUSH1 0xE0 SHL DUP2 MSTORE PUSH1 0x4 ADD PUSH2 0x243D SWAP2 SWAP1 PUSH2 0x53A7 JUMP JUMPDEST PUSH1 0x20 PUSH1 0x40 MLOAD DUP1 DUP4 SUB DUP2 DUP7 DUP1 EXTCODESIZE ISZERO DUP1 ISZERO PUSH2 0x2455 JUMPI PUSH1 0x0 DUP1 REVERT JUMPDEST POP GAS DELEGATECALL ISZERO DUP1 ISZERO PUSH2 0x2469 JUMPI RETURNDATASIZE PUSH1 0x0 DUP1 RETURNDATACOPY RETURNDATASIZE PUSH1 0x0 REVERT JUMPDEST POP POP POP POP PUSH1 0x40 MLOAD RETURNDATASIZE PUSH1 0x1F NOT PUSH1 0x1F DUP3 ADD AND DUP3 ADD DUP1 PUSH1 0x40 MSTORE POP DUP2 ADD SWAP1 PUSH2 0x248D SWAP2 SWAP1 PUSH2 0x47BC JUMP JUMPDEST POP POP JUMPDEST JUMP JUMPDEST PUSH20 0x0 PUSH4 0xCE88B145 PUSH1 0x0 PUSH1 0x40 MLOAD DUP3 PUSH4 0xFFFFFFFF AND PUSH1 0xE0 SHL DUP2 MSTORE PUSH1 0x4 ADD PUSH2 0x24CA SWAP2 SWAP1 PUSH2 0x541E JUMP JUMPDEST PUSH1 0x20 PUSH1 0x40 MLOAD DUP1 DUP4 SUB DUP2 DUP7 DUP1 EXTCODESIZE ISZERO DUP1 ISZERO PUSH2 0x24E2 JUMPI PUSH1 0x0 DUP1 REVERT JUMPDEST POP GAS DELEGATECALL ISZERO DUP1 ISZERO PUSH2 0x24F6 JUMPI RETURNDATASIZE PUSH1 0x0 DUP1 RETURNDATACOPY RETURNDATASIZE PUSH1 0x0 REVERT JUMPDEST POP POP POP POP PUSH1 0x40 MLOAD RETURNDATASIZE PUSH1 0x1F NOT PUSH1 0x1F DUP3 ADD AND DUP3 ADD DUP1 PUSH1 0x40 MSTORE POP DUP2 ADD SWAP1 PUSH2 0x251A SWAP2 SWAP1 PUSH2 0x4733 JUMP JUMPDEST PUSH1 0x7 PUSH1 0x1 PUSH2 0x100 EXP DUP2 SLOAD DUP2 PUSH20 0xFFFFFFFFFFFFFFFFFFFFFFFFFFFFFFFFFFFFFFFF MUL NOT AND SWAP1 DUP4 PUSH20 0xFFFFFFFFFFFFFFFFFFFFFFFFFFFFFFFFFFFFFFFF AND MUL OR SWAP1 SSTORE POP PUSH20 0x0 PUSH4 0xCE88B145 PUSH1 0x1 PUSH1 0x40 MLOAD DUP3 PUSH4 0xFFFFFFFF AND PUSH1 0xE0 SHL DUP2 MSTORE PUSH1 0x4 ADD PUSH2 0x2592 SWAP2 SWAP1 PUSH2 0x5439 JUMP JUMPDEST PUSH1 0x20 PUSH1 0x40 MLOAD DUP1 DUP4 SUB DUP2 DUP7 DUP1 EXTCODESIZE ISZERO DUP1 ISZERO PUSH2 0x25AA JUMPI PUSH1 0x0 DUP1 REVERT JUMPDEST POP GAS DELEGATECALL ISZERO DUP1 ISZERO PUSH2 0x25BE JUMPI RETURNDATASIZE PUSH1 0x0 DUP1 RETURNDATACOPY RETURNDATASIZE PUSH1 0x0 REVERT JUMPDEST POP POP POP POP PUSH1 0x40 MLOAD RETURNDATASIZE PUSH1 0x1F NOT PUSH1 0x1F DUP3 ADD AND DUP3 ADD DUP1 PUSH1 0x40 MSTORE POP DUP2 ADD SWAP1 PUSH2 0x25E2 SWAP2 SWAP1 PUSH2 0x4733 JUMP JUMPDEST PUSH1 0x8 PUSH1 0x0 PUSH2 0x100 EXP DUP2 SLOAD DUP2 PUSH20 0xFFFFFFFFFFFFFFFFFFFFFFFFFFFFFFFFFFFFFFFF MUL NOT AND SWAP1 DUP4 PUSH20 0xFFFFFFFFFFFFFFFFFFFFFFFFFFFFFFFFFFFFFFFF AND MUL OR SWAP1 SSTORE POP PUSH20 0x0 PUSH4 0xCE88B145 PUSH1 0x2 PUSH1 0x40 MLOAD DUP3 PUSH4 0xFFFFFFFF AND PUSH1 0xE0 SHL DUP2 MSTORE PUSH1 0x4 ADD PUSH2 0x265A SWAP2 SWAP1 PUSH2 0x546F JUMP JUMPDEST PUSH1 0x20 PUSH1 0x40 MLOAD DUP1 DUP4 SUB DUP2 DUP7 DUP1 EXTCODESIZE ISZERO DUP1 ISZERO PUSH2 0x2672 JUMPI PUSH1 0x0 DUP1 REVERT JUMPDEST POP GAS DELEGATECALL ISZERO DUP1 ISZERO PUSH2 0x2686 JUMPI RETURNDATASIZE PUSH1 0x0 DUP1 RETURNDATACOPY RETURNDATASIZE PUSH1 0x0 REVERT JUMPDEST POP POP POP POP PUSH1 0x40 MLOAD RETURNDATASIZE PUSH1 0x1F NOT PUSH1 0x1F DUP3 ADD AND DUP3 ADD DUP1 PUSH1 0x40 MSTORE POP DUP2 ADD SWAP1 PUSH2 0x26AA SWAP2 SWAP1 PUSH2 0x4733 JUMP JUMPDEST PUSH1 0x9 PUSH1 0x0 PUSH2 0x100 EXP DUP2 SLOAD DUP2 PUSH20 0xFFFFFFFFFFFFFFFFFFFFFFFFFFFFFFFFFFFFFFFF MUL NOT AND SWAP1 DUP4 PUSH20 0xFFFFFFFFFFFFFFFFFFFFFFFFFFFFFFFFFFFFFFFF AND MUL OR SWAP1 SSTORE POP PUSH20 0x0 PUSH4 0xCE88B145 PUSH1 0x3 PUSH1 0x40 MLOAD DUP3 PUSH4 0xFFFFFFFF AND PUSH1 0xE0 SHL DUP2 MSTORE PUSH1 0x4 ADD PUSH2 0x2722 SWAP2 SWAP1 PUSH2 0x54A5 JUMP JUMPDEST PUSH1 0x20 PUSH1 0x40 MLOAD DUP1 DUP4 SUB DUP2 DUP7 DUP1 EXTCODESIZE ISZERO DUP1 ISZERO PUSH2 0x273A JUMPI PUSH1 0x0 DUP1 REVERT JUMPDEST POP GAS DELEGATECALL ISZERO DUP1 ISZERO PUSH2 0x274E JUMPI RETURNDATASIZE PUSH1 0x0 DUP1 RETURNDATACOPY RETURNDATASIZE PUSH1 0x0 REVERT JUMPDEST POP POP POP POP PUSH1 0x40 MLOAD RETURNDATASIZE PUSH1 0x1F NOT PUSH1 0x1F DUP3 ADD AND DUP3 ADD DUP1 PUSH1 0x40 MSTORE POP DUP2 ADD SWAP1 PUSH2 0x2772 SWAP2 SWAP1 PUSH2 0x4733 JUMP JUMPDEST PUSH1 0xA PUSH1 0x0 PUSH2 0x100 EXP DUP2 SLOAD DUP2 PUSH20 0xFFFFFFFFFFFFFFFFFFFFFFFFFFFFFFFFFFFFFFFF MUL NOT AND SWAP1 DUP4 PUSH20 0xFFFFFFFFFFFFFFFFFFFFFFFFFFFFFFFFFFFFFFFF AND MUL OR SWAP1 SSTORE POP PUSH20 0x0 PUSH4 0xCE88B145 PUSH1 0x5 PUSH1 0x40 MLOAD DUP3 PUSH4 0xFFFFFFFF AND PUSH1 0xE0 SHL DUP2 MSTORE PUSH1 0x4 ADD PUSH2 0x27EA SWAP2 SWAP1 PUSH2 0x54C0 JUMP JUMPDEST PUSH1 0x20 PUSH1 0x40 MLOAD DUP1 DUP4 SUB DUP2 DUP7 DUP1 EXTCODESIZE ISZERO DUP1 ISZERO PUSH2 0x2802 JUMPI PUSH1 0x0 DUP1 REVERT JUMPDEST POP GAS DELEGATECALL ISZERO DUP1 ISZERO PUSH2 0x2816 JUMPI RETURNDATASIZE PUSH1 0x0 DUP1 RETURNDATACOPY RETURNDATASIZE PUSH1 0x0 REVERT JUMPDEST POP POP POP POP PUSH1 0x40 MLOAD RETURNDATASIZE PUSH1 0x1F NOT PUSH1 0x1F DUP3 ADD AND DUP3 ADD DUP1 PUSH1 0x40 MSTORE POP DUP2 ADD SWAP1 PUSH2 0x283A SWAP2 SWAP1 PUSH2 0x4733 JUMP JUMPDEST PUSH1 0xB PUSH1 0x0 PUSH2 0x100 EXP DUP2 SLOAD DUP2 PUSH20 0xFFFFFFFFFFFFFFFFFFFFFFFFFFFFFFFFFFFFFFFF MUL NOT AND SWAP1 DUP4 PUSH20 0xFFFFFFFFFFFFFFFFFFFFFFFFFFFFFFFFFFFFFFFF AND MUL OR SWAP1 SSTORE POP PUSH1 0x0 DUP1 PUSH1 0x0 PUSH2 0x100 EXP DUP2 SLOAD DUP2 PUSH1 0xFF MUL NOT AND SWAP1 DUP4 PUSH1 0x2 DUP2 GT ISZERO PUSH2 0x289F JUMPI PUSH2 0x289E PUSH2 0x5D1C JUMP JUMPDEST JUMPDEST MUL OR SWAP1 SSTORE POP PUSH1 0x0 PUSH1 0x7 PUSH1 0x0 PUSH2 0x100 EXP DUP2 SLOAD DUP2 PUSH1 0xFF MUL NOT AND SWAP1 DUP4 ISZERO ISZERO MUL OR SWAP1 SSTORE POP JUMP JUMPDEST PUSH20 0x0 PUSH4 0xABCD7960 PUSH2 0x293C PUSH1 0x7 PUSH1 0x1 SWAP1 SLOAD SWAP1 PUSH2 0x100 EXP SWAP1 DIV PUSH20 0xFFFFFFFFFFFFFFFFFFFFFFFFFFFFFFFFFFFFFFFF AND PUSH1 0x40 MLOAD DUP1 PUSH1 0x40 ADD PUSH1 0x40 MSTORE DUP1 PUSH1 0x5 DUP2 MSTORE PUSH1 0x20 ADD PUSH32 0x416C696365000000000000000000000000000000000000000000000000000000 DUP2 MSTORE POP PUSH2 0x9B4 JUMP JUMPDEST PUSH1 0x1 PUSH1 0x40 MLOAD DUP4 PUSH4 0xFFFFFFFF AND PUSH1 0xE0 SHL DUP2 MSTORE PUSH1 0x4 ADD PUSH2 0x295B SWAP3 SWAP2 SWAP1 PUSH2 0x589C JUMP JUMPDEST PUSH1 0x20 PUSH1 0x40 MLOAD DUP1 DUP4 SUB DUP2 DUP7 DUP1 EXTCODESIZE ISZERO DUP1 ISZERO PUSH2 0x2973 JUMPI PUSH1 0x0 DUP1 REVERT JUMPDEST POP GAS DELEGATECALL ISZERO DUP1 ISZERO PUSH2 0x2987 JUMPI RETURNDATASIZE PUSH1 0x0 DUP1 RETURNDATACOPY RETURNDATASIZE PUSH1 0x0 REVERT JUMPDEST POP POP POP POP PUSH1 0x40 MLOAD RETURNDATASIZE PUSH1 0x1F NOT PUSH1 0x1F DUP3 ADD AND DUP3 ADD DUP1 PUSH1 0x40 MSTORE POP DUP2 ADD SWAP1 PUSH2 0x29AB SWAP2 SWAP1 PUSH2 0x47BC JUMP JUMPDEST POP PUSH20 0x0 PUSH4 0xABCD7960 PUSH2 0x2A27 PUSH1 0x8 PUSH1 0x0 SWAP1 SLOAD SWAP1 PUSH2 0x100 EXP SWAP1 DIV PUSH20 0xFFFFFFFFFFFFFFFFFFFFFFFFFFFFFFFFFFFFFFFF AND PUSH1 0x40 MLOAD DUP1 PUSH1 0x40 ADD PUSH1 0x40 MSTORE DUP1 PUSH1 0x3 DUP2 MSTORE PUSH1 0x20 ADD PUSH32 0x426F620000000000000000000000000000000000000000000000000000000000 DUP2 MSTORE POP PUSH2 0x9B4 JUMP JUMPDEST PUSH1 0x2 PUSH1 0x40 MLOAD DUP4 PUSH4 0xFFFFFFFF AND PUSH1 0xE0 SHL DUP2 MSTORE PUSH1 0x4 ADD PUSH2 0x2A46 SWAP3 SWAP2 SWAP1 PUSH2 0x58D8 JUMP JUMPDEST PUSH1 0x20 PUSH1 0x40 MLOAD DUP1 DUP4 SUB DUP2 DUP7 DUP1 EXTCODESIZE ISZERO DUP1 ISZERO PUSH2 0x2A5E JUMPI PUSH1 0x0 DUP1 REVERT JUMPDEST POP GAS DELEGATECALL ISZERO DUP1 ISZERO PUSH2 0x2A72 JUMPI RETURNDATASIZE PUSH1 0x0 DUP1 RETURNDATACOPY RETURNDATASIZE PUSH1 0x0 REVERT JUMPDEST POP POP POP POP PUSH1 0x40 MLOAD RETURNDATASIZE PUSH1 0x1F NOT PUSH1 0x1F DUP3 ADD AND DUP3 ADD DUP1 PUSH1 0x40 MSTORE POP DUP2 ADD SWAP1 PUSH2 0x2A96 SWAP2 SWAP1 PUSH2 0x47BC JUMP JUMPDEST POP PUSH20 0x0 PUSH4 0xABCD7960 PUSH2 0x2B12 PUSH1 0x9 PUSH1 0x0 SWAP1 SLOAD SWAP1 PUSH2 0x100 EXP SWAP1 DIV PUSH20 0xFFFFFFFFFFFFFFFFFFFFFFFFFFFFFFFFFFFFFFFF AND PUSH1 0x40 MLOAD DUP1 PUSH1 0x40 ADD PUSH1 0x40 MSTORE DUP1 PUSH1 0x7 DUP2 MSTORE PUSH1 0x20 ADD PUSH32 0x436861726C696500000000000000000000000000000000000000000000000000 DUP2 MSTORE POP PUSH2 0x9B4 JUMP JUMPDEST PUSH1 0x3 PUSH1 0x40 MLOAD DUP4 PUSH4 0xFFFFFFFF AND PUSH1 0xE0 SHL DUP2 MSTORE PUSH1 0x4 ADD PUSH2 0x2B31 SWAP3 SWAP2 SWAP1 PUSH2 0x5914 JUMP JUMPDEST PUSH1 0x20 PUSH1 0x40 MLOAD DUP1 DUP4 SUB DUP2 DUP7 DUP1 EXTCODESIZE ISZERO DUP1 ISZERO PUSH2 0x2B49 JUMPI PUSH1 0x0 DUP1 REVERT JUMPDEST POP GAS DELEGATECALL ISZERO DUP1 ISZERO PUSH2 0x2B5D JUMPI RETURNDATASIZE PUSH1 0x0 DUP1 RETURNDATACOPY RETURNDATASIZE PUSH1 0x0 REVERT JUMPDEST POP POP POP POP PUSH1 0x40 MLOAD RETURNDATASIZE PUSH1 0x1F NOT PUSH1 0x1F DUP3 ADD AND DUP3 ADD DUP1 PUSH1 0x40 MSTORE POP DUP2 ADD SWAP1 PUSH2 0x2B81 SWAP2 SWAP1 PUSH2 0x47BC JUMP JUMPDEST POP PUSH20 0x0 PUSH4 0xABCD7960 PUSH2 0x2BFD PUSH1 0xA PUSH1 0x0 SWAP1 SLOAD SWAP1 PUSH2 0x100 EXP SWAP1 DIV PUSH20 0xFFFFFFFFFFFFFFFFFFFFFFFFFFFFFFFFFFFFFFFF AND PUSH1 0x40 MLOAD DUP1 PUSH1 0x40 ADD PUSH1 0x40 MSTORE DUP1 PUSH1 0x3 DUP2 MSTORE PUSH1 0x20 ADD PUSH32 0x4576650000000000000000000000000000000000000000000000000000000000 DUP2 MSTORE POP PUSH2 0x9B4 JUMP JUMPDEST PUSH1 0x4 PUSH1 0x40 MLOAD DUP4 PUSH4 0xFFFFFFFF AND PUSH1 0xE0 SHL DUP2 MSTORE PUSH1 0x4 ADD PUSH2 0x2C1C SWAP3 SWAP2 SWAP1 PUSH2 0x598C JUMP JUMPDEST PUSH1 0x20 PUSH1 0x40 MLOAD DUP1 DUP4 SUB DUP2 DUP7 DUP1 EXTCODESIZE ISZERO DUP1 ISZERO PUSH2 0x2C34 JUMPI PUSH1 0x0 DUP1 REVERT JUMPDEST POP GAS DELEGATECALL ISZERO DUP1 ISZERO PUSH2 0x2C48 JUMPI RETURNDATASIZE PUSH1 0x0 DUP1 RETURNDATACOPY RETURNDATASIZE PUSH1 0x0 REVERT JUMPDEST POP POP POP POP PUSH1 0x40 MLOAD RETURNDATASIZE PUSH1 0x1F NOT PUSH1 0x1F DUP3 ADD AND DUP3 ADD DUP1 PUSH1 0x40 MSTORE POP DUP2 ADD SWAP1 PUSH2 0x2C6C SWAP2 SWAP1 PUSH2 0x47BC JUMP JUMPDEST POP JUMP JUMPDEST PUSH20 0x0 PUSH4 0xBFBA5DD6 PUSH32 0x0 PUSH1 0x7 PUSH1 0x1 SWAP1 SLOAD SWAP1 PUSH2 0x100 EXP SWAP1 DIV PUSH20 0xFFFFFFFFFFFFFFFFFFFFFFFFFFFFFFFFFFFFFFFF AND PUSH1 0x40 MLOAD DUP4 PUSH4 0xFFFFFFFF AND PUSH1 0xE0 SHL DUP2 MSTORE PUSH1 0x4 ADD PUSH2 0x2CEA SWAP3 SWAP2 SWAP1 PUSH2 0x5099 JUMP JUMPDEST PUSH1 0x20 PUSH1 0x40 MLOAD DUP1 DUP4 SUB DUP2 DUP7 DUP1 EXTCODESIZE ISZERO DUP1 ISZERO PUSH2 0x2D02 JUMPI PUSH1 0x0 DUP1 REVERT JUMPDEST POP GAS DELEGATECALL ISZERO DUP1 ISZERO PUSH2 0x2D16 JUMPI RETURNDATASIZE PUSH1 0x0 DUP1 RETURNDATACOPY RETURNDATASIZE PUSH1 0x0 REVERT JUMPDEST POP POP POP POP PUSH1 0x40 MLOAD RETURNDATASIZE PUSH1 0x1F NOT PUSH1 0x1F DUP3 ADD AND DUP3 ADD DUP1 PUSH1 0x40 MSTORE POP DUP2 ADD SWAP1 PUSH2 0x2D3A SWAP2 SWAP1 PUSH2 0x47BC JUMP JUMPDEST POP JUMP JUMPDEST PUSH1 0x1 PUSH1 0x0 DUP1 PUSH2 0x100 EXP DUP2 SLOAD DUP2 PUSH1 0xFF MUL NOT AND SWAP1 DUP4 PUSH1 0x2 DUP2 GT ISZERO PUSH2 0x2D62 JUMPI PUSH2 0x2D61 PUSH2 0x5D1C JUMP JUMPDEST JUMPDEST MUL OR SWAP1 SSTORE POP PUSH20 0x0 PUSH4 0x39DF137F PUSH2 0x2D8B PUSH1 0x1 PUSH2 0x3B4F JUMP JUMPDEST PUSH1 0x40 MLOAD DUP3 PUSH4 0xFFFFFFFF AND PUSH1 0xE0 SHL DUP2 MSTORE PUSH1 0x4 ADD PUSH2 0x2DA7 SWAP2 SWAP1 PUSH2 0x5379 JUMP JUMPDEST PUSH1 0x20 PUSH1 0x40 MLOAD DUP1 DUP4 SUB DUP2 DUP7 DUP1 EXTCODESIZE ISZERO DUP1 ISZERO PUSH2 0x2DBF JUMPI PUSH1 0x0 DUP1 REVERT JUMPDEST POP GAS DELEGATECALL ISZERO DUP1 ISZERO PUSH2 0x2DD3 JUMPI RETURNDATASIZE PUSH1 0x0 DUP1 RETURNDATACOPY RETURNDATASIZE PUSH1 0x0 REVERT JUMPDEST POP POP POP POP PUSH1 0x40 MLOAD RETURNDATASIZE PUSH1 0x1F NOT PUSH1 0x1F DUP3 ADD AND DUP3 ADD DUP1 PUSH1 0x40 MSTORE POP DUP2 ADD SWAP1 PUSH2 0x2DF7 SWAP2 SWAP1 PUSH2 0x47BC JUMP JUMPDEST POP JUMP JUMPDEST PUSH1 0x3 PUSH1 0x2 SWAP1 SLOAD SWAP1 PUSH2 0x100 EXP SWAP1 DIV PUSH1 0xFF AND DUP2 JUMP JUMPDEST PUSH1 0x2 PUSH1 0x0 DUP1 PUSH2 0x100 EXP DUP2 SLOAD DUP2 PUSH1 0xFF MUL NOT AND SWAP1 DUP4 PUSH1 0x2 DUP2 GT ISZERO PUSH2 0x2E32 JUMPI PUSH2 0x2E31 PUSH2 0x5D1C JUMP JUMPDEST JUMPDEST MUL OR SWAP1 SSTORE POP ADDRESS PUSH20 0xFFFFFFFFFFFFFFFFFFFFFFFFFFFFFFFFFFFFFFFF AND PUSH4 0xE9B16CA3 PUSH1 0x1 PUSH1 0x40 MLOAD DUP3 PUSH4 0xFFFFFFFF AND PUSH1 0xE0 SHL DUP2 MSTORE PUSH1 0x4 ADD PUSH2 0x2E71 SWAP2 SWAP1 PUSH2 0x5454 JUMP JUMPDEST PUSH1 0x20 PUSH1 0x40 MLOAD DUP1 DUP4 SUB DUP2 PUSH1 0x0 DUP8 DUP1 EXTCODESIZE ISZERO DUP1 ISZERO PUSH2 0x2E8B JUMPI PUSH1 0x0 DUP1 REVERT JUMPDEST POP GAS CALL SWAP3 POP POP POP DUP1 ISZERO PUSH2 0x2EBC JUMPI POP PUSH1 0x40 MLOAD RETURNDATASIZE PUSH1 0x1F NOT PUSH1 0x1F DUP3 ADD AND DUP3 ADD DUP1 PUSH1 0x40 MSTORE POP DUP2 ADD SWAP1 PUSH2 0x2EB9 SWAP2 SWAP1 PUSH2 0x47BC JUMP JUMPDEST PUSH1 0x1 JUMPDEST PUSH2 0x30E5 JUMPI PUSH2 0x2EC8 PUSH2 0x5DA9 JUMP JUMPDEST DUP1 PUSH4 0x8C379A0 EQ ISZERO PUSH2 0x2F76 JUMPI POP PUSH2 0x2EDD PUSH2 0x6470 JUMP JUMPDEST DUP1 PUSH2 0x2EE8 JUMPI POP PUSH2 0x3023 JUMP JUMPDEST PUSH20 0x0 PUSH4 0xE8C2CB16 DUP3 PUSH1 0x40 MLOAD DUP3 PUSH4 0xFFFFFFFF AND PUSH1 0xE0 SHL DUP2 MSTORE PUSH1 0x4 ADD PUSH2 0x2F1F SWAP2 SWAP1 PUSH2 0x55BD JUMP JUMPDEST PUSH1 0x20 PUSH1 0x40 MLOAD DUP1 DUP4 SUB DUP2 DUP7 DUP1 EXTCODESIZE ISZERO DUP1 ISZERO PUSH2 0x2F37 JUMPI PUSH1 0x0 DUP1 REVERT JUMPDEST POP GAS DELEGATECALL ISZERO DUP1 ISZERO PUSH2 0x2F4B JUMPI RETURNDATASIZE PUSH1 0x0 DUP1 RETURNDATACOPY RETURNDATASIZE PUSH1 0x0 REVERT JUMPDEST POP POP POP POP PUSH1 0x40 MLOAD RETURNDATASIZE PUSH1 0x1F NOT PUSH1 0x1F DUP3 ADD AND DUP3 ADD DUP1 PUSH1 0x40 MSTORE POP DUP2 ADD SWAP1 PUSH2 0x2F6F SWAP2 SWAP1 PUSH2 0x47BC JUMP JUMPDEST POP POP PUSH2 0x30E0 JUMP JUMPDEST PUSH4 0x4E487B71 EQ ISZERO PUSH2 0x3023 JUMPI PUSH2 0x2F89 PUSH2 0x6506 JUMP JUMPDEST SWAP1 PUSH2 0x2F94 JUMPI POP PUSH2 0x3023 JUMP JUMPDEST PUSH20 0x0 PUSH4 0x39DF137F PUSH1 0x0 PUSH1 0x40 MLOAD DUP3 PUSH4 0xFFFFFFFF AND PUSH1 0xE0 SHL DUP2 MSTORE PUSH1 0x4 ADD PUSH2 0x2FCC SWAP2 SWAP1 PUSH2 0x531D JUMP JUMPDEST PUSH1 0x20 PUSH1 0x40 MLOAD DUP1 DUP4 SUB DUP2 DUP7 DUP1 EXTCODESIZE ISZERO DUP1 ISZERO PUSH2 0x2FE4 JUMPI PUSH1 0x0 DUP1 REVERT JUMPDEST POP GAS DELEGATECALL ISZERO DUP1 ISZERO PUSH2 0x2FF8 JUMPI RETURNDATASIZE PUSH1 0x0 DUP1 RETURNDATACOPY RETURNDATASIZE PUSH1 0x0 REVERT JUMPDEST POP POP POP POP PUSH1 0x40 MLOAD RETURNDATASIZE PUSH1 0x1F NOT PUSH1 0x1F DUP3 ADD AND DUP3 ADD DUP1 PUSH1 0x40 MSTORE POP DUP2 ADD SWAP1 PUSH2 0x301C SWAP2 SWAP1 PUSH2 0x47BC JUMP JUMPDEST POP POP PUSH2 0x30E0 JUMP JUMPDEST RETURNDATASIZE DUP1 PUSH1 0x0 DUP2 EQ PUSH2 0x304F JUMPI PUSH1 0x40 MLOAD SWAP2 POP PUSH1 0x1F NOT PUSH1 0x3F RETURNDATASIZE ADD AND DUP3 ADD PUSH1 0x40 MSTORE RETURNDATASIZE DUP3 MSTORE RETURNDATASIZE PUSH1 0x0 PUSH1 0x20 DUP5 ADD RETURNDATACOPY PUSH2 0x3054 JUMP JUMPDEST PUSH1 0x60 SWAP2 POP JUMPDEST POP PUSH20 0x0 PUSH4 0x39DF137F PUSH1 0x0 PUSH1 0x40 MLOAD DUP3 PUSH4 0xFFFFFFFF AND PUSH1 0xE0 SHL DUP2 MSTORE PUSH1 0x4 ADD PUSH2 0x308D SWAP2 SWAP1 PUSH2 0x5265 JUMP JUMPDEST PUSH1 0x20 PUSH1 0x40 MLOAD DUP1 DUP4 SUB DUP2 DUP7 DUP1 EXTCODESIZE ISZERO DUP1 ISZERO PUSH2 0x30A5 JUMPI PUSH1 0x0 DUP1 REVERT JUMPDEST POP GAS DELEGATECALL ISZERO DUP1 ISZERO PUSH2 0x30B9 JUMPI RETURNDATASIZE PUSH1 0x0 DUP1 RETURNDATACOPY RETURNDATASIZE PUSH1 0x0 REVERT JUMPDEST POP POP POP POP PUSH1 0x40 MLOAD RETURNDATASIZE PUSH1 0x1F NOT PUSH1 0x1F DUP3 ADD AND DUP3 ADD DUP1 PUSH1 0x40 MSTORE POP DUP2 ADD SWAP1 PUSH2 0x30DD SWAP2 SWAP1 PUSH2 0x47BC JUMP JUMPDEST POP POP JUMPDEST PUSH2 0x3172 JUMP JUMPDEST PUSH20 0x0 PUSH4 0x767392B3 DUP3 PUSH1 0x1 PUSH1 0x40 MLOAD DUP4 PUSH4 0xFFFFFFFF AND PUSH1 0xE0 SHL DUP2 MSTORE PUSH1 0x4 ADD PUSH2 0x311F SWAP3 SWAP2 SWAP1 PUSH2 0x51ED JUMP JUMPDEST PUSH1 0x20 PUSH1 0x40 MLOAD DUP1 DUP4 SUB DUP2 DUP7 DUP1 EXTCODESIZE ISZERO DUP1 ISZERO PUSH2 0x3137 JUMPI PUSH1 0x0 DUP1 REVERT JUMPDEST POP GAS DELEGATECALL ISZERO DUP1 ISZERO PUSH2 0x314B JUMPI RETURNDATASIZE PUSH1 0x0 DUP1 RETURNDATACOPY RETURNDATASIZE PUSH1 0x0 REVERT JUMPDEST POP POP POP POP PUSH1 0x40 MLOAD RETURNDATASIZE PUSH1 0x1F NOT PUSH1 0x1F DUP3 ADD AND DUP3 ADD DUP1 PUSH1 0x40 MSTORE POP DUP2 ADD SWAP1 PUSH2 0x316F SWAP2 SWAP1 PUSH2 0x47BC JUMP JUMPDEST POP POP JUMPDEST JUMP JUMPDEST ADDRESS PUSH20 0xFFFFFFFFFFFFFFFFFFFFFFFFFFFFFFFFFFFFFFFF AND PUSH4 0xB9223946 PUSH1 0x40 MLOAD DUP2 PUSH4 0xFFFFFFFF AND PUSH1 0xE0 SHL DUP2 MSTORE PUSH1 0x4 ADD PUSH1 0x0 PUSH1 0x40 MLOAD DUP1 DUP4 SUB DUP2 PUSH1 0x0 DUP8 DUP1 EXTCODESIZE ISZERO DUP1 ISZERO PUSH2 0x31BC JUMPI PUSH1 0x0 DUP1 REVERT JUMPDEST POP GAS CALL ISZERO DUP1 ISZERO PUSH2 0x31D0 JUMPI RETURNDATASIZE PUSH1 0x0 DUP1 RETURNDATACOPY RETURNDATASIZE PUSH1 0x0 REVERT JUMPDEST POP POP POP POP PUSH20 0x0 PUSH4 0xE8C2CB16 PUSH1 0x4 PUSH1 0x40 MLOAD DUP3 PUSH4 0xFFFFFFFF AND PUSH1 0xE0 SHL DUP2 MSTORE PUSH1 0x4 ADD PUSH2 0x320C SWAP2 SWAP1 PUSH2 0x56DD JUMP JUMPDEST PUSH1 0x20 PUSH1 0x40 MLOAD DUP1 DUP4 SUB DUP2 DUP7 DUP1 EXTCODESIZE ISZERO DUP1 ISZERO PUSH2 0x3224 JUMPI PUSH1 0x0 DUP1 REVERT JUMPDEST POP GAS DELEGATECALL ISZERO DUP1 ISZERO PUSH2 0x3238 JUMPI RETURNDATASIZE PUSH1 0x0 DUP1 RETURNDATACOPY RETURNDATASIZE PUSH1 0x0 REVERT JUMPDEST POP POP POP POP PUSH1 0x40 MLOAD RETURNDATASIZE PUSH1 0x1F NOT PUSH1 0x1F DUP3 ADD AND DUP3 ADD DUP1 PUSH1 0x40 MSTORE POP DUP2 ADD SWAP1 PUSH2 0x325C SWAP2 SWAP1 PUSH2 0x47BC JUMP JUMPDEST POP JUMP JUMPDEST PUSH1 0x1 PUSH1 0x0 DUP1 PUSH2 0x100 EXP DUP2 SLOAD DUP2 PUSH1 0xFF MUL NOT AND SWAP1 DUP4 PUSH1 0x2 DUP2 GT ISZERO PUSH2 0x3284 JUMPI PUSH2 0x3283 PUSH2 0x5D1C JUMP JUMPDEST JUMPDEST MUL OR SWAP1 SSTORE POP PUSH20 0x0 PUSH4 0x767392B3 PUSH2 0x32AD PUSH1 0x1 PUSH2 0x3B4F JUMP JUMPDEST PUSH1 0x0 PUSH1 0x40 MLOAD DUP4 PUSH4 0xFFFFFFFF AND PUSH1 0xE0 SHL DUP2 MSTORE PUSH1 0x4 ADD PUSH2 0x32CC SWAP3 SWAP2 SWAP1 PUSH2 0x51B1 JUMP JUMPDEST PUSH1 0x20 PUSH1 0x40 MLOAD DUP1 DUP4 SUB DUP2 DUP7 DUP1 EXTCODESIZE ISZERO DUP1 ISZERO PUSH2 0x32E4 JUMPI PUSH1 0x0 DUP1 REVERT JUMPDEST POP GAS DELEGATECALL ISZERO DUP1 ISZERO PUSH2 0x32F8 JUMPI RETURNDATASIZE PUSH1 0x0 DUP1 RETURNDATACOPY RETURNDATASIZE PUSH1 0x0 REVERT JUMPDEST POP POP POP POP PUSH1 0x40 MLOAD RETURNDATASIZE PUSH1 0x1F NOT PUSH1 0x1F DUP3 ADD AND DUP3 ADD DUP1 PUSH1 0x40 MSTORE POP DUP2 ADD SWAP1 PUSH2 0x331C SWAP2 SWAP1 PUSH2 0x47BC JUMP JUMPDEST POP JUMP JUMPDEST PUSH1 0x3 PUSH1 0x0 SWAP1 SLOAD SWAP1 PUSH2 0x100 EXP SWAP1 DIV PUSH1 0xFF AND DUP2 JUMP JUMPDEST PUSH32 0x0 PUSH20 0xFFFFFFFFFFFFFFFFFFFFFFFFFFFFFFFFFFFFFFFF AND ORIGIN PUSH20 0xFFFFFFFFFFFFFFFFFFFFFFFFFFFFFFFFFFFFFFFF AND EQ DUP1 PUSH2 0x33D7 JUMPI POP PUSH32 0x0 PUSH20 0xFFFFFFFFFFFFFFFFFFFFFFFFFFFFFFFFFFFFFFFF AND CALLER PUSH20 0xFFFFFFFFFFFFFFFFFFFFFFFFFFFFFFFFFFFFFFFF AND EQ JUMPDEST PUSH2 0x3416 JUMPI PUSH1 0x40 MLOAD PUSH32 0x8C379A000000000000000000000000000000000000000000000000000000000 DUP2 MSTORE PUSH1 0x4 ADD PUSH2 0x340D SWAP1 PUSH2 0x57E5 JUMP JUMPDEST PUSH1 0x40 MLOAD DUP1 SWAP2 SUB SWAP1 REVERT JUMPDEST PUSH1 0x2 DUP1 PUSH1 0x2 DUP2 GT ISZERO PUSH2 0x342B JUMPI PUSH2 0x342A PUSH2 0x5D1C JUMP JUMPDEST JUMPDEST PUSH1 0x0 DUP1 SLOAD SWAP1 PUSH2 0x100 EXP SWAP1 DIV PUSH1 0xFF AND PUSH1 0x2 DUP2 GT ISZERO PUSH2 0x344B JUMPI PUSH2 0x344A PUSH2 0x5D1C JUMP JUMPDEST JUMPDEST EQ PUSH2 0x348B JUMPI PUSH1 0x40 MLOAD PUSH32 0x8C379A000000000000000000000000000000000000000000000000000000000 DUP2 MSTORE PUSH1 0x4 ADD PUSH2 0x3482 SWAP1 PUSH2 0x57A5 JUMP JUMPDEST PUSH1 0x40 MLOAD DUP1 SWAP2 SUB SWAP1 REVERT JUMPDEST PUSH1 0x0 PUSH1 0x1 PUSH1 0x2 PUSH1 0x3 PUSH1 0x1 SWAP1 SLOAD SWAP1 PUSH2 0x100 EXP SWAP1 DIV PUSH1 0xFF AND PUSH2 0x34AB SWAP2 SWAP1 PUSH2 0x5AA2 JUMP JUMPDEST PUSH2 0x34B5 SWAP2 SWAP1 PUSH2 0x5A6B JUMP JUMPDEST PUSH1 0xFF AND PUSH1 0x3 PUSH1 0x2 SWAP1 SLOAD SWAP1 PUSH2 0x100 EXP SWAP1 DIV PUSH1 0xFF AND PUSH1 0xFF AND LT PUSH2 0x34D5 JUMPI PUSH1 0x1 SWAP1 POP JUMPDEST DUP1 PUSH2 0x3515 JUMPI PUSH1 0x40 MLOAD PUSH32 0x8C379A000000000000000000000000000000000000000000000000000000000 DUP2 MSTORE PUSH1 0x4 ADD PUSH2 0x350C SWAP1 PUSH2 0x5725 JUMP JUMPDEST PUSH1 0x40 MLOAD DUP1 SWAP2 SUB SWAP1 REVERT JUMPDEST PUSH1 0x7 PUSH1 0x0 SWAP1 SLOAD SWAP1 PUSH2 0x100 EXP SWAP1 DIV PUSH1 0xFF AND ISZERO PUSH2 0x3565 JUMPI PUSH1 0x40 MLOAD PUSH32 0x8C379A000000000000000000000000000000000000000000000000000000000 DUP2 MSTORE PUSH1 0x4 ADD PUSH2 0x355C SWAP1 PUSH2 0x5785 JUMP JUMPDEST PUSH1 0x40 MLOAD DUP1 SWAP2 SUB SWAP1 REVERT JUMPDEST PUSH2 0x356D PUSH2 0x4333 JUMP JUMPDEST POP POP JUMP JUMPDEST PUSH20 0x0 PUSH4 0xABCD7960 PUSH1 0x0 DUP1 SLOAD SWAP1 PUSH2 0x100 EXP SWAP1 DIV PUSH1 0xFF AND PUSH1 0x2 DUP2 GT ISZERO PUSH2 0x35AB JUMPI PUSH2 0x35AA PUSH2 0x5D1C JUMP JUMPDEST JUMPDEST PUSH1 0x2 DUP1 DUP2 GT ISZERO PUSH2 0x35BE JUMPI PUSH2 0x35BD PUSH2 0x5D1C JUMP JUMPDEST JUMPDEST PUSH1 0x40 MLOAD DUP4 PUSH4 0xFFFFFFFF AND PUSH1 0xE0 SHL DUP2 MSTORE PUSH1 0x4 ADD PUSH2 0x35DB SWAP3 SWAP2 SWAP1 PUSH2 0x5845 JUMP JUMPDEST PUSH1 0x20 PUSH1 0x40 MLOAD DUP1 DUP4 SUB DUP2 DUP7 DUP1 EXTCODESIZE ISZERO DUP1 ISZERO PUSH2 0x35F3 JUMPI PUSH1 0x0 DUP1 REVERT JUMPDEST POP GAS DELEGATECALL ISZERO DUP1 ISZERO PUSH2 0x3607 JUMPI RETURNDATASIZE PUSH1 0x0 DUP1 RETURNDATACOPY RETURNDATASIZE PUSH1 0x0 REVERT JUMPDEST POP POP POP POP PUSH1 0x40 MLOAD RETURNDATASIZE PUSH1 0x1F NOT PUSH1 0x1F DUP3 ADD AND DUP3 ADD DUP1 PUSH1 0x40 MSTORE POP DUP2 ADD SWAP1 PUSH2 0x362B SWAP2 SWAP1 PUSH2 0x47BC JUMP JUMPDEST POP JUMP JUMPDEST PUSH1 0x1 PUSH1 0x0 DUP1 PUSH2 0x100 EXP DUP2 SLOAD DUP2 PUSH1 0xFF MUL NOT AND SWAP1 DUP4 PUSH1 0x2 DUP2 GT ISZERO PUSH2 0x3653 JUMPI PUSH2 0x3652 PUSH2 0x5D1C JUMP JUMPDEST JUMPDEST MUL OR SWAP1 SSTORE POP PUSH20 0x0 PUSH4 0x767392B3 PUSH2 0x367C PUSH1 0x3 PUSH2 0x3B4F JUMP JUMPDEST PUSH1 0x0 PUSH1 0x40 MLOAD DUP4 PUSH4 0xFFFFFFFF AND PUSH1 0xE0 SHL DUP2 MSTORE PUSH1 0x4 ADD PUSH2 0x369B SWAP3 SWAP2 SWAP1 PUSH2 0x5229 JUMP JUMPDEST PUSH1 0x20 PUSH1 0x40 MLOAD DUP1 DUP4 SUB DUP2 DUP7 DUP1 EXTCODESIZE ISZERO DUP1 ISZERO PUSH2 0x36B3 JUMPI PUSH1 0x0 DUP1 REVERT JUMPDEST POP GAS DELEGATECALL ISZERO DUP1 ISZERO PUSH2 0x36C7 JUMPI RETURNDATASIZE PUSH1 0x0 DUP1 RETURNDATACOPY RETURNDATASIZE PUSH1 0x0 REVERT JUMPDEST POP POP POP POP PUSH1 0x40 MLOAD RETURNDATASIZE PUSH1 0x1F NOT PUSH1 0x1F DUP3 ADD AND DUP3 ADD DUP1 PUSH1 0x40 MSTORE POP DUP2 ADD SWAP1 PUSH2 0x36EB SWAP2 SWAP1 PUSH2 0x47BC JUMP JUMPDEST POP JUMP JUMPDEST PUSH1 0x5 PUSH1 0x20 MSTORE DUP1 PUSH1 0x0 MSTORE PUSH1 0x40 PUSH1 0x0 KECCAK256 PUSH1 0x0 SWAP2 POP SWAP1 POP DUP1 PUSH1 0x0 ADD PUSH1 0x0 SWAP1 SLOAD SWAP1 PUSH2 0x100 EXP SWAP1 DIV PUSH20 0xFFFFFFFFFFFFFFFFFFFFFFFFFFFFFFFFFFFFFFFF AND SWAP1 DUP1 PUSH1 0x0 ADD PUSH1 0x14 SWAP1 SLOAD SWAP1 PUSH2 0x100 EXP SWAP1 DIV PUSH1 0xFF AND SWAP1 POP DUP3 JUMP JUMPDEST PUSH1 0x4 DUP1 SLOAD PUSH2 0x374C SWAP1 PUSH2 0x5C31 JUMP JUMPDEST DUP1 PUSH1 0x1F ADD PUSH1 0x20 DUP1 SWAP2 DIV MUL PUSH1 0x20 ADD PUSH1 0x40 MLOAD SWAP1 DUP2 ADD PUSH1 0x40 MSTORE DUP1 SWAP3 SWAP2 SWAP1 DUP2 DUP2 MSTORE PUSH1 0x20 ADD DUP3 DUP1 SLOAD PUSH2 0x3778 SWAP1 PUSH2 0x5C31 JUMP JUMPDEST DUP1 ISZERO PUSH2 0x37C5 JUMPI DUP1 PUSH1 0x1F LT PUSH2 0x379A JUMPI PUSH2 0x100 DUP1 DUP4 SLOAD DIV MUL DUP4 MSTORE SWAP2 PUSH1 0x20 ADD SWAP2 PUSH2 0x37C5 JUMP JUMPDEST DUP3 ADD SWAP2 SWAP1 PUSH1 0x0 MSTORE PUSH1 0x20 PUSH1 0x0 KECCAK256 SWAP1 JUMPDEST DUP2 SLOAD DUP2 MSTORE SWAP1 PUSH1 0x1 ADD SWAP1 PUSH1 0x20 ADD DUP1 DUP4 GT PUSH2 0x37A8 JUMPI DUP3 SWAP1 SUB PUSH1 0x1F AND DUP3 ADD SWAP2 JUMPDEST POP POP POP POP POP DUP2 JUMP JUMPDEST PUSH1 0x1 PUSH1 0x7 PUSH1 0x0 PUSH2 0x100 EXP DUP2 SLOAD DUP2 PUSH1 0xFF MUL NOT AND SWAP1 DUP4 ISZERO ISZERO MUL OR SWAP1 SSTORE POP PUSH1 0x1 PUSH1 0x0 DUP1 PUSH2 0x100 EXP DUP2 SLOAD DUP2 PUSH1 0xFF MUL NOT AND SWAP1 DUP4 PUSH1 0x2 DUP2 GT ISZERO PUSH2 0x380D JUMPI PUSH2 0x380C PUSH2 0x5D1C JUMP JUMPDEST JUMPDEST MUL OR SWAP1 SSTORE POP ADDRESS PUSH20 0xFFFFFFFFFFFFFFFFFFFFFFFFFFFFFFFFFFFFFFFF AND PUSH4 0xE9B16CA3 PUSH1 0x1 PUSH1 0x40 MLOAD DUP3 PUSH4 0xFFFFFFFF AND PUSH1 0xE0 SHL DUP2 MSTORE PUSH1 0x4 ADD PUSH2 0x384C SWAP2 SWAP1 PUSH2 0x5454 JUMP JUMPDEST PUSH1 0x20 PUSH1 0x40 MLOAD DUP1 DUP4 SUB DUP2 PUSH1 0x0 DUP8 DUP1 EXTCODESIZE ISZERO DUP1 ISZERO PUSH2 0x3866 JUMPI PUSH1 0x0 DUP1 REVERT JUMPDEST POP GAS CALL SWAP3 POP POP POP DUP1 ISZERO PUSH2 0x3897 JUMPI POP PUSH1 0x40 MLOAD RETURNDATASIZE PUSH1 0x1F NOT PUSH1 0x1F DUP3 ADD AND DUP3 ADD DUP1 PUSH1 0x40 MSTORE POP DUP2 ADD SWAP1 PUSH2 0x3894 SWAP2 SWAP1 PUSH2 0x47BC JUMP JUMPDEST PUSH1 0x1 JUMPDEST PUSH2 0x3AC0 JUMPI PUSH2 0x38A3 PUSH2 0x5DA9 JUMP JUMPDEST DUP1 PUSH4 0x8C379A0 EQ ISZERO PUSH2 0x3951 JUMPI POP PUSH2 0x38B8 PUSH2 0x6470 JUMP JUMPDEST DUP1 PUSH2 0x38C3 JUMPI POP PUSH2 0x39FE JUMP JUMPDEST PUSH20 0x0 PUSH4 0xE8C2CB16 DUP3 PUSH1 0x40 MLOAD DUP3 PUSH4 0xFFFFFFFF AND PUSH1 0xE0 SHL DUP2 MSTORE PUSH1 0x4 ADD PUSH2 0x38FA SWAP2 SWAP1 PUSH2 0x5575 JUMP JUMPDEST PUSH1 0x20 PUSH1 0x40 MLOAD DUP1 DUP4 SUB DUP2 DUP7 DUP1 EXTCODESIZE ISZERO DUP1 ISZERO PUSH2 0x3912 JUMPI PUSH1 0x0 DUP1 REVERT JUMPDEST POP GAS DELEGATECALL ISZERO DUP1 ISZERO PUSH2 0x3926 JUMPI RETURNDATASIZE PUSH1 0x0 DUP1 RETURNDATACOPY RETURNDATASIZE PUSH1 0x0 REVERT JUMPDEST POP POP POP POP PUSH1 0x40 MLOAD RETURNDATASIZE PUSH1 0x1F NOT PUSH1 0x1F DUP3 ADD AND DUP3 ADD DUP1 PUSH1 0x40 MSTORE POP DUP2 ADD SWAP1 PUSH2 0x394A SWAP2 SWAP1 PUSH2 0x47BC JUMP JUMPDEST POP POP PUSH2 0x3ABB JUMP JUMPDEST PUSH4 0x4E487B71 EQ ISZERO PUSH2 0x39FE JUMPI PUSH2 0x3964 PUSH2 0x6506 JUMP JUMPDEST SWAP1 PUSH2 0x396F JUMPI POP PUSH2 0x39FE JUMP JUMPDEST PUSH20 0x0 PUSH4 0x39DF137F PUSH1 0x0 PUSH1 0x40 MLOAD DUP3 PUSH4 0xFFFFFFFF AND PUSH1 0xE0 SHL DUP2 MSTORE PUSH1 0x4 ADD PUSH2 0x39A7 SWAP2 SWAP1 PUSH2 0x531D JUMP JUMPDEST PUSH1 0x20 PUSH1 0x40 MLOAD DUP1 DUP4 SUB DUP2 DUP7 DUP1 EXTCODESIZE ISZERO DUP1 ISZERO PUSH2 0x39BF JUMPI PUSH1 0x0 DUP1 REVERT JUMPDEST POP GAS DELEGATECALL ISZERO DUP1 ISZERO PUSH2 0x39D3 JUMPI RETURNDATASIZE PUSH1 0x0 DUP1 RETURNDATACOPY RETURNDATASIZE PUSH1 0x0 REVERT JUMPDEST POP POP POP POP PUSH1 0x40 MLOAD RETURNDATASIZE PUSH1 0x1F NOT PUSH1 0x1F DUP3 ADD AND DUP3 ADD DUP1 PUSH1 0x40 MSTORE POP DUP2 ADD SWAP1 PUSH2 0x39F7 SWAP2 SWAP1 PUSH2 0x47BC JUMP JUMPDEST POP POP PUSH2 0x3ABB JUMP JUMPDEST RETURNDATASIZE DUP1 PUSH1 0x0 DUP2 EQ PUSH2 0x3A2A JUMPI PUSH1 0x40 MLOAD SWAP2 POP PUSH1 0x1F NOT PUSH1 0x3F RETURNDATASIZE ADD AND DUP3 ADD PUSH1 0x40 MSTORE RETURNDATASIZE DUP3 MSTORE RETURNDATASIZE PUSH1 0x0 PUSH1 0x20 DUP5 ADD RETURNDATACOPY PUSH2 0x3A2F JUMP JUMPDEST PUSH1 0x60 SWAP2 POP JUMPDEST POP PUSH20 0x0 PUSH4 0x39DF137F PUSH1 0x0 PUSH1 0x40 MLOAD DUP3 PUSH4 0xFFFFFFFF AND PUSH1 0xE0 SHL DUP2 MSTORE PUSH1 0x4 ADD PUSH2 0x3A68 SWAP2 SWAP1 PUSH2 0x5265 JUMP JUMPDEST PUSH1 0x20 PUSH1 0x40 MLOAD DUP1 DUP4 SUB DUP2 DUP7 DUP1 EXTCODESIZE ISZERO DUP1 ISZERO PUSH2 0x3A80 JUMPI PUSH1 0x0 DUP1 REVERT JUMPDEST POP GAS DELEGATECALL ISZERO DUP1 ISZERO PUSH2 0x3A94 JUMPI RETURNDATASIZE PUSH1 0x0 DUP1 RETURNDATACOPY RETURNDATASIZE PUSH1 0x0 REVERT JUMPDEST POP POP POP POP PUSH1 0x40 MLOAD RETURNDATASIZE PUSH1 0x1F NOT PUSH1 0x1F DUP3 ADD AND DUP3 ADD DUP1 PUSH1 0x40 MSTORE POP DUP2 ADD SWAP1 PUSH2 0x3AB8 SWAP2 SWAP1 PUSH2 0x47BC JUMP JUMPDEST POP POP JUMPDEST PUSH2 0x3B4D JUMP JUMPDEST PUSH20 0x0 PUSH4 0x767392B3 DUP3 PUSH1 0x1 PUSH1 0x40 MLOAD DUP4 PUSH4 0xFFFFFFFF AND PUSH1 0xE0 SHL DUP2 MSTORE PUSH1 0x4 ADD PUSH2 0x3AFA SWAP3 SWAP2 SWAP1 PUSH2 0x51ED JUMP JUMPDEST PUSH1 0x20 PUSH1 0x40 MLOAD DUP1 DUP4 SUB DUP2 DUP7 DUP1 EXTCODESIZE ISZERO DUP1 ISZERO PUSH2 0x3B12 JUMPI PUSH1 0x0 DUP1 REVERT JUMPDEST POP GAS DELEGATECALL ISZERO DUP1 ISZERO PUSH2 0x3B26 JUMPI RETURNDATASIZE PUSH1 0x0 DUP1 RETURNDATACOPY RETURNDATASIZE PUSH1 0x0 REVERT JUMPDEST POP POP POP POP PUSH1 0x40 MLOAD RETURNDATASIZE PUSH1 0x1F NOT PUSH1 0x1F DUP3 ADD AND DUP3 ADD DUP1 PUSH1 0x40 MSTORE POP DUP2 ADD SWAP1 PUSH2 0x3B4A SWAP2 SWAP1 PUSH2 0x47BC JUMP JUMPDEST POP POP JUMPDEST JUMP JUMPDEST PUSH1 0x0 CALLER PUSH1 0x0 ISZERO ISZERO PUSH1 0x2 PUSH1 0x0 DUP4 PUSH20 0xFFFFFFFFFFFFFFFFFFFFFFFFFFFFFFFFFFFFFFFF AND PUSH20 0xFFFFFFFFFFFFFFFFFFFFFFFFFFFFFFFFFFFFFFFF AND DUP2 MSTORE PUSH1 0x20 ADD SWAP1 DUP2 MSTORE PUSH1 0x20 ADD PUSH1 0x0 KECCAK256 PUSH1 0x1 ADD PUSH1 0x0 SWAP1 SLOAD SWAP1 PUSH2 0x100 EXP SWAP1 DIV PUSH1 0xFF AND ISZERO ISZERO EQ PUSH2 0x3BE8 JUMPI PUSH1 0x40 MLOAD PUSH32 0x8C379A000000000000000000000000000000000000000000000000000000000 DUP2 MSTORE PUSH1 0x4 ADD PUSH2 0x3BDF SWAP1 PUSH2 0x5745 JUMP JUMPDEST PUSH1 0x40 MLOAD DUP1 SWAP2 SUB SWAP1 REVERT JUMPDEST PUSH1 0x1 DUP1 PUSH1 0x2 DUP2 GT ISZERO PUSH2 0x3BFD JUMPI PUSH2 0x3BFC PUSH2 0x5D1C JUMP JUMPDEST JUMPDEST PUSH1 0x0 DUP1 SLOAD SWAP1 PUSH2 0x100 EXP SWAP1 DIV PUSH1 0xFF AND PUSH1 0x2 DUP2 GT ISZERO PUSH2 0x3C1D JUMPI PUSH2 0x3C1C PUSH2 0x5D1C JUMP JUMPDEST JUMPDEST EQ PUSH2 0x3C5D JUMPI PUSH1 0x40 MLOAD PUSH32 0x8C379A000000000000000000000000000000000000000000000000000000000 DUP2 MSTORE PUSH1 0x4 ADD PUSH2 0x3C54 SWAP1 PUSH2 0x57A5 JUMP JUMPDEST PUSH1 0x40 MLOAD DUP1 SWAP2 SUB SWAP1 REVERT JUMPDEST PUSH1 0x7 PUSH1 0x0 SWAP1 SLOAD SWAP1 PUSH2 0x100 EXP SWAP1 DIV PUSH1 0xFF AND ISZERO PUSH2 0x3CAD JUMPI PUSH1 0x40 MLOAD PUSH32 0x8C379A000000000000000000000000000000000000000000000000000000000 DUP2 MSTORE PUSH1 0x4 ADD PUSH2 0x3CA4 SWAP1 PUSH2 0x5785 JUMP JUMPDEST PUSH1 0x40 MLOAD DUP1 SWAP2 SUB SWAP1 REVERT JUMPDEST PUSH1 0x0 SWAP3 POP PUSH1 0x0 PUSH1 0x2 PUSH1 0x0 CALLER PUSH20 0xFFFFFFFFFFFFFFFFFFFFFFFFFFFFFFFFFFFFFFFF AND PUSH20 0xFFFFFFFFFFFFFFFFFFFFFFFFFFFFFFFFFFFFFFFF AND DUP2 MSTORE PUSH1 0x20 ADD SWAP1 DUP2 MSTORE PUSH1 0x20 ADD PUSH1 0x0 KECCAK256 PUSH1 0x0 ADD DUP1 SLOAD PUSH2 0x3D00 SWAP1 PUSH2 0x5C31 JUMP JUMPDEST SWAP1 POP EQ PUSH2 0x3E8E JUMPI PUSH1 0x0 PUSH1 0x1 PUSH1 0x0 DUP7 PUSH1 0xFF AND PUSH1 0xFF AND DUP2 MSTORE PUSH1 0x20 ADD SWAP1 DUP2 MSTORE PUSH1 0x20 ADD PUSH1 0x0 KECCAK256 DUP1 SLOAD PUSH2 0x3D2D SWAP1 PUSH2 0x5C31 JUMP JUMPDEST SWAP1 POP EQ PUSH2 0x3E8D JUMPI PUSH1 0x1 SWAP3 POP PUSH1 0x1 PUSH1 0x2 PUSH1 0x0 CALLER PUSH20 0xFFFFFFFFFFFFFFFFFFFFFFFFFFFFFFFFFFFFFFFF AND PUSH20 0xFFFFFFFFFFFFFFFFFFFFFFFFFFFFFFFFFFFFFFFF AND DUP2 MSTORE PUSH1 0x20 ADD SWAP1 DUP2 MSTORE PUSH1 0x20 ADD PUSH1 0x0 KECCAK256 PUSH1 0x1 ADD PUSH1 0x0 PUSH2 0x100 EXP DUP2 SLOAD DUP2 PUSH1 0xFF MUL NOT AND SWAP1 DUP4 ISZERO ISZERO MUL OR SWAP1 SSTORE POP PUSH1 0x3 PUSH1 0x2 DUP2 DUP2 SWAP1 SLOAD SWAP1 PUSH2 0x100 EXP SWAP1 DIV PUSH1 0xFF AND DUP1 SWAP3 SWAP2 SWAP1 PUSH2 0x3DB2 SWAP1 PUSH2 0x5C94 JUMP JUMPDEST SWAP2 SWAP1 PUSH2 0x100 EXP DUP2 SLOAD DUP2 PUSH1 0xFF MUL NOT AND SWAP1 DUP4 PUSH1 0xFF AND MUL OR SWAP1 SSTORE POP POP PUSH1 0x40 MLOAD DUP1 PUSH1 0x40 ADD PUSH1 0x40 MSTORE DUP1 CALLER PUSH20 0xFFFFFFFFFFFFFFFFFFFFFFFFFFFFFFFFFFFFFFFF AND DUP2 MSTORE PUSH1 0x20 ADD DUP6 PUSH1 0xFF AND DUP2 MSTORE POP PUSH1 0x5 PUSH1 0x0 PUSH1 0x3 PUSH1 0x2 SWAP1 SLOAD SWAP1 PUSH2 0x100 EXP SWAP1 DIV PUSH1 0xFF AND PUSH1 0xFF AND PUSH1 0xFF AND DUP2 MSTORE PUSH1 0x20 ADD SWAP1 DUP2 MSTORE PUSH1 0x20 ADD PUSH1 0x0 KECCAK256 PUSH1 0x0 DUP3 ADD MLOAD DUP2 PUSH1 0x0 ADD PUSH1 0x0 PUSH2 0x100 EXP DUP2 SLOAD DUP2 PUSH20 0xFFFFFFFFFFFFFFFFFFFFFFFFFFFFFFFFFFFFFFFF MUL NOT AND SWAP1 DUP4 PUSH20 0xFFFFFFFFFFFFFFFFFFFFFFFFFFFFFFFFFFFFFFFF AND MUL OR SWAP1 SSTORE POP PUSH1 0x20 DUP3 ADD MLOAD DUP2 PUSH1 0x0 ADD PUSH1 0x14 PUSH2 0x100 EXP DUP2 SLOAD DUP2 PUSH1 0xFF MUL NOT AND SWAP1 DUP4 PUSH1 0xFF AND MUL OR SWAP1 SSTORE POP SWAP1 POP POP JUMPDEST JUMPDEST PUSH1 0x1 PUSH1 0x2 PUSH1 0x3 PUSH1 0x1 SWAP1 SLOAD SWAP1 PUSH2 0x100 EXP SWAP1 DIV PUSH1 0xFF AND PUSH2 0x3EAC SWAP2 SWAP1 PUSH2 0x5AA2 JUMP JUMPDEST PUSH2 0x3EB6 SWAP2 SWAP1 PUSH2 0x5A6B JUMP JUMPDEST PUSH1 0xFF AND PUSH1 0x3 PUSH1 0x2 SWAP1 SLOAD SWAP1 PUSH2 0x100 EXP SWAP1 DIV PUSH1 0xFF AND PUSH1 0xFF AND LT PUSH2 0x3EFC JUMPI PUSH1 0x2 PUSH1 0x0 DUP1 PUSH2 0x100 EXP DUP2 SLOAD DUP2 PUSH1 0xFF MUL NOT AND SWAP1 DUP4 PUSH1 0x2 DUP2 GT ISZERO PUSH2 0x3EF6 JUMPI PUSH2 0x3EF5 PUSH2 0x5D1C JUMP JUMPDEST JUMPDEST MUL OR SWAP1 SSTORE POP JUMPDEST POP POP SWAP2 SWAP1 POP JUMP JUMPDEST PUSH32 0x0 PUSH20 0xFFFFFFFFFFFFFFFFFFFFFFFFFFFFFFFFFFFFFFFF AND ORIGIN PUSH20 0xFFFFFFFFFFFFFFFFFFFFFFFFFFFFFFFFFFFFFFFF AND EQ DUP1 PUSH2 0x3FA8 JUMPI POP PUSH32 0x0 PUSH20 0xFFFFFFFFFFFFFFFFFFFFFFFFFFFFFFFFFFFFFFFF AND CALLER PUSH20 0xFFFFFFFFFFFFFFFFFFFFFFFFFFFFFFFFFFFFFFFF AND EQ JUMPDEST PUSH2 0x3FE7 JUMPI PUSH1 0x40 MLOAD PUSH32 0x8C379A000000000000000000000000000000000000000000000000000000000 DUP2 MSTORE PUSH1 0x4 ADD PUSH2 0x3FDE SWAP1 PUSH2 0x57E5 JUMP JUMPDEST PUSH1 0x40 MLOAD DUP1 SWAP2 SUB SWAP1 REVERT JUMPDEST PUSH1 0x1 DUP1 PUSH1 0x2 DUP2 GT ISZERO PUSH2 0x3FFC JUMPI PUSH2 0x3FFB PUSH2 0x5D1C JUMP JUMPDEST JUMPDEST PUSH1 0x0 DUP1 SLOAD SWAP1 PUSH2 0x100 EXP SWAP1 DIV PUSH1 0xFF AND PUSH1 0x2 DUP2 GT ISZERO PUSH2 0x401C JUMPI PUSH2 0x401B PUSH2 0x5D1C JUMP JUMPDEST JUMPDEST EQ PUSH2 0x405C JUMPI PUSH1 0x40 MLOAD PUSH32 0x8C379A000000000000000000000000000000000000000000000000000000000 DUP2 MSTORE PUSH1 0x4 ADD PUSH2 0x4053 SWAP1 PUSH2 0x57A5 JUMP JUMPDEST PUSH1 0x40 MLOAD DUP1 SWAP2 SUB SWAP1 REVERT JUMPDEST PUSH1 0x7 PUSH1 0x0 SWAP1 SLOAD SWAP1 PUSH2 0x100 EXP SWAP1 DIV PUSH1 0xFF AND ISZERO PUSH2 0x40AC JUMPI PUSH1 0x40 MLOAD PUSH32 0x8C379A000000000000000000000000000000000000000000000000000000000 DUP2 MSTORE PUSH1 0x4 ADD PUSH2 0x40A3 SWAP1 PUSH2 0x5785 JUMP JUMPDEST PUSH1 0x40 MLOAD DUP1 SWAP2 SUB SWAP1 REVERT JUMPDEST PUSH1 0x0 DUP1 PUSH1 0x0 PUSH2 0x100 EXP DUP2 SLOAD DUP2 PUSH1 0xFF MUL NOT AND SWAP1 DUP4 PUSH1 0x2 DUP2 GT ISZERO PUSH2 0x40D1 JUMPI PUSH2 0x40D0 PUSH2 0x5D1C JUMP JUMPDEST JUMPDEST MUL OR SWAP1 SSTORE POP POP JUMP JUMPDEST PUSH1 0x0 DUP1 PUSH1 0x0 PUSH2 0x100 EXP DUP2 SLOAD DUP2 PUSH1 0xFF MUL NOT AND SWAP1 DUP4 PUSH1 0x2 DUP2 GT ISZERO PUSH2 0x40FE JUMPI PUSH2 0x40FD PUSH2 0x5D1C JUMP JUMPDEST JUMPDEST MUL OR SWAP1 SSTORE POP ADDRESS PUSH20 0xFFFFFFFFFFFFFFFFFFFFFFFFFFFFFFFFFFFFFFFF AND PUSH4 0xB9223946 PUSH1 0x40 MLOAD DUP2 PUSH4 0xFFFFFFFF AND PUSH1 0xE0 SHL DUP2 MSTORE PUSH1 0x4 ADD PUSH1 0x0 PUSH1 0x40 MLOAD DUP1 DUP4 SUB DUP2 PUSH1 0x0 DUP8 DUP1 EXTCODESIZE ISZERO DUP1 ISZERO PUSH2 0x414B JUMPI PUSH1 0x0 DUP1 REVERT JUMPDEST POP GAS CALL SWAP3 POP POP POP DUP1 ISZERO PUSH2 0x415C JUMPI POP PUSH1 0x1 JUMPDEST PUSH2 0x42A7 JUMPI PUSH2 0x4168 PUSH2 0x5DA9 JUMP JUMPDEST DUP1 PUSH4 0x8C379A0 EQ ISZERO PUSH2 0x4216 JUMPI POP PUSH2 0x417D PUSH2 0x6470 JUMP JUMPDEST DUP1 PUSH2 0x4188 JUMPI POP PUSH2 0x4218 JUMP JUMPDEST PUSH20 0x0 PUSH4 0xE8C2CB16 DUP3 PUSH1 0x40 MLOAD DUP3 PUSH4 0xFFFFFFFF AND PUSH1 0xE0 SHL DUP2 MSTORE PUSH1 0x4 ADD PUSH2 0x41BF SWAP2 SWAP1 PUSH2 0x55BD JUMP JUMPDEST PUSH1 0x20 PUSH1 0x40 MLOAD DUP1 DUP4 SUB DUP2 DUP7 DUP1 EXTCODESIZE ISZERO DUP1 ISZERO PUSH2 0x41D7 JUMPI PUSH1 0x0 DUP1 REVERT JUMPDEST POP GAS DELEGATECALL ISZERO DUP1 ISZERO PUSH2 0x41EB JUMPI RETURNDATASIZE PUSH1 0x0 DUP1 RETURNDATACOPY RETURNDATASIZE PUSH1 0x0 REVERT JUMPDEST POP POP POP POP PUSH1 0x40 MLOAD RETURNDATASIZE PUSH1 0x1F NOT PUSH1 0x1F DUP3 ADD AND DUP3 ADD DUP1 PUSH1 0x40 MSTORE POP DUP2 ADD SWAP1 PUSH2 0x420F SWAP2 SWAP1 PUSH2 0x47BC JUMP JUMPDEST POP POP PUSH2 0x42A2 JUMP JUMPDEST POP JUMPDEST PUSH20 0x0 PUSH4 0x39DF137F PUSH1 0x0 PUSH1 0x40 MLOAD DUP3 PUSH4 0xFFFFFFFF AND PUSH1 0xE0 SHL DUP2 MSTORE PUSH1 0x4 ADD PUSH2 0x4250 SWAP2 SWAP1 PUSH2 0x5293 JUMP JUMPDEST PUSH1 0x20 PUSH1 0x40 MLOAD DUP1 DUP4 SUB DUP2 DUP7 DUP1 EXTCODESIZE ISZERO DUP1 ISZERO PUSH2 0x4268 JUMPI PUSH1 0x0 DUP1 REVERT JUMPDEST POP GAS DELEGATECALL ISZERO DUP1 ISZERO PUSH2 0x427C JUMPI RETURNDATASIZE PUSH1 0x0 DUP1 RETURNDATACOPY RETURNDATASIZE PUSH1 0x0 REVERT JUMPDEST POP POP POP POP PUSH1 0x40 MLOAD RETURNDATASIZE PUSH1 0x1F NOT PUSH1 0x1F DUP3 ADD AND DUP3 ADD DUP1 PUSH1 0x40 MSTORE POP DUP2 ADD SWAP1 PUSH2 0x42A0 SWAP2 SWAP1 PUSH2 0x47BC JUMP JUMPDEST POP JUMPDEST PUSH2 0x4331 JUMP JUMPDEST PUSH20 0x0 PUSH4 0x39DF137F PUSH1 0x0 PUSH1 0x40 MLOAD DUP3 PUSH4 0xFFFFFFFF AND PUSH1 0xE0 SHL DUP2 MSTORE PUSH1 0x4 ADD PUSH2 0x42DF SWAP2 SWAP1 PUSH2 0x53D5 JUMP JUMPDEST PUSH1 0x20 PUSH1 0x40 MLOAD DUP1 DUP4 SUB DUP2 DUP7 DUP1 EXTCODESIZE ISZERO DUP1 ISZERO PUSH2 0x42F7 JUMPI PUSH1 0x0 DUP1 REVERT JUMPDEST POP GAS DELEGATECALL ISZERO DUP1 ISZERO PUSH2 0x430B JUMPI RETURNDATASIZE PUSH1 0x0 DUP1 RETURNDATACOPY RETURNDATASIZE PUSH1 0x0 REVERT JUMPDEST POP POP POP POP PUSH1 0x40 MLOAD RETURNDATASIZE PUSH1 0x1F NOT PUSH1 0x1F DUP3 ADD AND DUP3 ADD DUP1 PUSH1 0x40 MSTORE POP DUP2 ADD SWAP1 PUSH2 0x432F SWAP2 SWAP1 PUSH2 0x47BC JUMP JUMPDEST POP JUMPDEST JUMP JUMPDEST PUSH1 0x0 DUP1 PUSH1 0x0 PUSH1 0x1 SWAP1 POP JUMPDEST PUSH1 0x3 PUSH1 0x2 SWAP1 SLOAD SWAP1 PUSH2 0x100 EXP SWAP1 DIV PUSH1 0xFF AND PUSH1 0xFF AND DUP2 PUSH1 0xFF AND GT PUSH2 0x44C5 JUMPI PUSH1 0x0 PUSH1 0x1 SWAP1 POP PUSH1 0x0 PUSH1 0x6 PUSH1 0x0 PUSH1 0x5 PUSH1 0x0 DUP7 PUSH1 0xFF AND PUSH1 0xFF AND DUP2 MSTORE PUSH1 0x20 ADD SWAP1 DUP2 MSTORE PUSH1 0x20 ADD PUSH1 0x0 KECCAK256 PUSH1 0x0 ADD PUSH1 0x14 SWAP1 SLOAD SWAP1 PUSH2 0x100 EXP SWAP1 DIV PUSH1 0xFF AND PUSH1 0xFF AND PUSH1 0xFF AND DUP2 MSTORE PUSH1 0x20 ADD SWAP1 DUP2 MSTORE PUSH1 0x20 ADD PUSH1 0x0 KECCAK256 PUSH1 0x0 SWAP1 SLOAD SWAP1 PUSH2 0x100 EXP SWAP1 DIV PUSH1 0xFF AND PUSH1 0xFF AND GT ISZERO PUSH2 0x4418 JUMPI PUSH1 0x6 PUSH1 0x0 PUSH1 0x5 PUSH1 0x0 DUP6 PUSH1 0xFF AND PUSH1 0xFF AND DUP2 MSTORE PUSH1 0x20 ADD SWAP1 DUP2 MSTORE PUSH1 0x20 ADD PUSH1 0x0 KECCAK256 PUSH1 0x0 ADD PUSH1 0x14 SWAP1 SLOAD SWAP1 PUSH2 0x100 EXP SWAP1 DIV PUSH1 0xFF AND PUSH1 0xFF AND PUSH1 0xFF AND DUP2 MSTORE PUSH1 0x20 ADD SWAP1 DUP2 MSTORE PUSH1 0x20 ADD PUSH1 0x0 KECCAK256 PUSH1 0x0 SWAP1 SLOAD SWAP1 PUSH2 0x100 EXP SWAP1 DIV PUSH1 0xFF AND DUP2 PUSH2 0x4415 SWAP2 SWAP1 PUSH2 0x5A6B JUMP JUMPDEST SWAP1 POP JUMPDEST DUP1 PUSH1 0x6 PUSH1 0x0 PUSH1 0x5 PUSH1 0x0 DUP7 PUSH1 0xFF AND PUSH1 0xFF AND DUP2 MSTORE PUSH1 0x20 ADD SWAP1 DUP2 MSTORE PUSH1 0x20 ADD PUSH1 0x0 KECCAK256 PUSH1 0x0 ADD PUSH1 0x14 SWAP1 SLOAD SWAP1 PUSH2 0x100 EXP SWAP1 DIV PUSH1 0xFF AND PUSH1 0xFF AND PUSH1 0xFF AND DUP2 MSTORE PUSH1 0x20 ADD SWAP1 DUP2 MSTORE PUSH1 0x20 ADD PUSH1 0x0 KECCAK256 PUSH1 0x0 PUSH2 0x100 EXP DUP2 SLOAD DUP2 PUSH1 0xFF MUL NOT AND SWAP1 DUP4 PUSH1 0xFF AND MUL OR SWAP1 SSTORE POP DUP4 PUSH1 0xFF AND DUP2 PUSH1 0xFF AND GT ISZERO PUSH2 0x44B1 JUMPI DUP1 SWAP4 POP PUSH1 0x5 PUSH1 0x0 DUP4 PUSH1 0xFF AND PUSH1 0xFF AND DUP2 MSTORE PUSH1 0x20 ADD SWAP1 DUP2 MSTORE PUSH1 0x20 ADD PUSH1 0x0 KECCAK256 PUSH1 0x0 ADD PUSH1 0x14 SWAP1 SLOAD SWAP1 PUSH2 0x100 EXP SWAP1 DIV PUSH1 0xFF AND SWAP3 POP JUMPDEST POP DUP1 DUP1 PUSH2 0x44BD SWAP1 PUSH2 0x5C94 JUMP JUMPDEST SWAP2 POP POP PUSH2 0x433D JUMP JUMPDEST POP PUSH1 0x1 PUSH1 0x0 DUP3 PUSH1 0xFF AND PUSH1 0xFF AND DUP2 MSTORE PUSH1 0x20 ADD SWAP1 DUP2 MSTORE PUSH1 0x20 ADD PUSH1 0x0 KECCAK256 PUSH1 0x4 SWAP1 DUP1 SLOAD PUSH2 0x44ED SWAP1 PUSH2 0x5C31 JUMP JUMPDEST PUSH2 0x44F8 SWAP3 SWAP2 SWAP1 PUSH2 0x4583 JUMP JUMPDEST POP POP POP JUMP JUMPDEST DUP3 DUP1 SLOAD PUSH2 0x4509 SWAP1 PUSH2 0x5C31 JUMP JUMPDEST SWAP1 PUSH1 0x0 MSTORE PUSH1 0x20 PUSH1 0x0 KECCAK256 SWAP1 PUSH1 0x1F ADD PUSH1 0x20 SWAP1 DIV DUP2 ADD SWAP3 DUP3 PUSH2 0x452B JUMPI PUSH1 0x0 DUP6 SSTORE PUSH2 0x4572 JUMP JUMPDEST DUP3 PUSH1 0x1F LT PUSH2 0x4544 JUMPI DUP1 MLOAD PUSH1 0xFF NOT AND DUP4 DUP1 ADD OR DUP6 SSTORE PUSH2 0x4572 JUMP JUMPDEST DUP3 DUP1 ADD PUSH1 0x1 ADD DUP6 SSTORE DUP3 ISZERO PUSH2 0x4572 JUMPI SWAP2 DUP3 ADD JUMPDEST DUP3 DUP2 GT ISZERO PUSH2 0x4571 JUMPI DUP3 MLOAD DUP3 SSTORE SWAP2 PUSH1 0x20 ADD SWAP2 SWAP1 PUSH1 0x1 ADD SWAP1 PUSH2 0x4556 JUMP JUMPDEST JUMPDEST POP SWAP1 POP PUSH2 0x457F SWAP2 SWAP1 PUSH2 0x4610 JUMP JUMPDEST POP SWAP1 JUMP JUMPDEST DUP3 DUP1 SLOAD PUSH2 0x458F SWAP1 PUSH2 0x5C31 JUMP JUMPDEST SWAP1 PUSH1 0x0 MSTORE PUSH1 0x20 PUSH1 0x0 KECCAK256 SWAP1 PUSH1 0x1F ADD PUSH1 0x20 SWAP1 DIV DUP2 ADD SWAP3 DUP3 PUSH2 0x45B1 JUMPI PUSH1 0x0 DUP6 SSTORE PUSH2 0x45FF JUMP JUMPDEST DUP3 PUSH1 0x1F LT PUSH2 0x45C2 JUMPI DUP1 SLOAD DUP6 SSTORE PUSH2 0x45FF JUMP JUMPDEST DUP3 DUP1 ADD PUSH1 0x1 ADD DUP6 SSTORE DUP3 ISZERO PUSH2 0x45FF JUMPI PUSH1 0x0 MSTORE PUSH1 0x20 PUSH1 0x0 KECCAK256 SWAP2 PUSH1 0x1F ADD PUSH1 0x20 SWAP1 DIV DUP3 ADD JUMPDEST DUP3 DUP2 GT ISZERO PUSH2 0x45FE JUMPI DUP3 SLOAD DUP3 SSTORE SWAP2 PUSH1 0x1 ADD SWAP2 SWAP1 PUSH1 0x1 ADD SWAP1 PUSH2 0x45E3 JUMP JUMPDEST JUMPDEST POP SWAP1 POP PUSH2 0x460C SWAP2 SWAP1 PUSH2 0x4610 JUMP JUMPDEST POP SWAP1 JUMP JUMPDEST JUMPDEST DUP1 DUP3 GT ISZERO PUSH2 0x4629 JUMPI PUSH1 0x0 DUP2 PUSH1 0x0 SWAP1 SSTORE POP PUSH1 0x1 ADD PUSH2 0x4611 JUMP JUMPDEST POP SWAP1 JUMP JUMPDEST PUSH1 0x0 PUSH2 0x4640 PUSH2 0x463B DUP5 PUSH2 0x59ED JUMP JUMPDEST PUSH2 0x59C8 JUMP JUMPDEST SWAP1 POP DUP3 DUP2 MSTORE PUSH1 0x20 DUP2 ADD DUP5 DUP5 DUP5 ADD GT ISZERO PUSH2 0x465C JUMPI PUSH2 0x465B PUSH2 0x5DD0 JUMP JUMPDEST JUMPDEST PUSH2 0x4667 DUP5 DUP3 DUP6 PUSH2 0x5BEF JUMP JUMPDEST POP SWAP4 SWAP3 POP POP POP JUMP JUMPDEST PUSH1 0x0 DUP2 CALLDATALOAD SWAP1 POP PUSH2 0x467E DUP2 PUSH2 0x653B JUMP JUMPDEST SWAP3 SWAP2 POP POP JUMP JUMPDEST PUSH1 0x0 DUP2 MLOAD SWAP1 POP PUSH2 0x4693 DUP2 PUSH2 0x653B JUMP JUMPDEST SWAP3 SWAP2 POP POP JUMP JUMPDEST PUSH1 0x0 DUP2 MLOAD SWAP1 POP PUSH2 0x46A8 DUP2 PUSH2 0x6552 JUMP JUMPDEST SWAP3 SWAP2 POP POP JUMP JUMPDEST PUSH1 0x0 DUP3 PUSH1 0x1F DUP4 ADD SLT PUSH2 0x46C3 JUMPI PUSH2 0x46C2 PUSH2 0x5DCB JUMP JUMPDEST JUMPDEST DUP2 CALLDATALOAD PUSH2 0x46D3 DUP5 DUP3 PUSH1 0x20 DUP7 ADD PUSH2 0x462D JUMP JUMPDEST SWAP2 POP POP SWAP3 SWAP2 POP POP JUMP JUMPDEST PUSH1 0x0 DUP2 CALLDATALOAD SWAP1 POP PUSH2 0x46EB DUP2 PUSH2 0x6569 JUMP JUMPDEST SWAP3 SWAP2 POP POP JUMP JUMPDEST PUSH1 0x0 DUP2 MLOAD SWAP1 POP PUSH2 0x4700 DUP2 PUSH2 0x6569 JUMP JUMPDEST SWAP3 SWAP2 POP POP JUMP JUMPDEST PUSH1 0x0 PUSH1 0x20 DUP3 DUP5 SUB SLT ISZERO PUSH2 0x471C JUMPI PUSH2 0x471B PUSH2 0x5DDA JUMP JUMPDEST JUMPDEST PUSH1 0x0 PUSH2 0x472A DUP5 DUP3 DUP6 ADD PUSH2 0x466F JUMP JUMPDEST SWAP2 POP POP SWAP3 SWAP2 POP POP JUMP JUMPDEST PUSH1 0x0 PUSH1 0x20 DUP3 DUP5 SUB SLT ISZERO PUSH2 0x4749 JUMPI PUSH2 0x4748 PUSH2 0x5DDA JUMP JUMPDEST JUMPDEST PUSH1 0x0 PUSH2 0x4757 DUP5 DUP3 DUP6 ADD PUSH2 0x4684 JUMP JUMPDEST SWAP2 POP POP SWAP3 SWAP2 POP POP JUMP JUMPDEST PUSH1 0x0 DUP1 PUSH1 0x40 DUP4 DUP6 SUB SLT ISZERO PUSH2 0x4777 JUMPI PUSH2 0x4776 PUSH2 0x5DDA JUMP JUMPDEST JUMPDEST PUSH1 0x0 PUSH2 0x4785 DUP6 DUP3 DUP7 ADD PUSH2 0x466F JUMP JUMPDEST SWAP3 POP POP PUSH1 0x20 DUP4 ADD CALLDATALOAD PUSH8 0xFFFFFFFFFFFFFFFF DUP2 GT ISZERO PUSH2 0x47A6 JUMPI PUSH2 0x47A5 PUSH2 0x5DD5 JUMP JUMPDEST JUMPDEST PUSH2 0x47B2 DUP6 DUP3 DUP7 ADD PUSH2 0x46AE JUMP JUMPDEST SWAP2 POP POP SWAP3 POP SWAP3 SWAP1 POP JUMP JUMPDEST PUSH1 0x0 PUSH1 0x20 DUP3 DUP5 SUB SLT ISZERO PUSH2 0x47D2 JUMPI PUSH2 0x47D1 PUSH2 0x5DDA JUMP JUMPDEST JUMPDEST PUSH1 0x0 PUSH2 0x47E0 DUP5 DUP3 DUP6 ADD PUSH2 0x4699 JUMP JUMPDEST SWAP2 POP POP SWAP3 SWAP2 POP POP JUMP JUMPDEST PUSH1 0x0 PUSH1 0x20 DUP3 DUP5 SUB SLT ISZERO PUSH2 0x47FF JUMPI PUSH2 0x47FE PUSH2 0x5DDA JUMP JUMPDEST JUMPDEST PUSH1 0x0 DUP3 ADD CALLDATALOAD PUSH8 0xFFFFFFFFFFFFFFFF DUP2 GT ISZERO PUSH2 0x481D JUMPI PUSH2 0x481C PUSH2 0x5DD5 JUMP JUMPDEST JUMPDEST PUSH2 0x4829 DUP5 DUP3 DUP6 ADD PUSH2 0x46AE JUMP JUMPDEST SWAP2 POP POP SWAP3 SWAP2 POP POP JUMP JUMPDEST PUSH1 0x0 PUSH1 0x20 DUP3 DUP5 SUB SLT ISZERO PUSH2 0x4848 JUMPI PUSH2 0x4847 PUSH2 0x5DDA JUMP JUMPDEST JUMPDEST PUSH1 0x0 PUSH2 0x4856 DUP5 DUP3 DUP6 ADD PUSH2 0x46DC JUMP JUMPDEST SWAP2 POP POP SWAP3 SWAP2 POP POP JUMP JUMPDEST PUSH1 0x0 PUSH1 0x20 DUP3 DUP5 SUB SLT ISZERO PUSH2 0x4875 JUMPI PUSH2 0x4874 PUSH2 0x5DDA JUMP JUMPDEST JUMPDEST PUSH1 0x0 PUSH2 0x4883 DUP5 DUP3 DUP6 ADD PUSH2 0x46F1 JUMP JUMPDEST SWAP2 POP POP SWAP3 SWAP2 POP POP JUMP JUMPDEST PUSH2 0x4895 DUP2 PUSH2 0x5AD3 JUMP JUMPDEST DUP3 MSTORE POP POP JUMP JUMPDEST PUSH2 0x48A4 DUP2 PUSH2 0x5AD3 JUMP JUMPDEST DUP3 MSTORE POP POP JUMP JUMPDEST PUSH2 0x48B3 DUP2 PUSH2 0x5AE5 JUMP JUMPDEST DUP3 MSTORE POP POP JUMP JUMPDEST PUSH2 0x48C2 DUP2 PUSH2 0x5AE5 JUMP JUMPDEST DUP3 MSTORE POP POP JUMP JUMPDEST PUSH2 0x48D1 DUP2 PUSH2 0x5B3B JUMP JUMPDEST DUP3 MSTORE POP POP JUMP JUMPDEST PUSH2 0x48E0 DUP2 PUSH2 0x5B4D JUMP JUMPDEST DUP3 MSTORE POP POP JUMP JUMPDEST PUSH2 0x48EF DUP2 PUSH2 0x5B5F JUMP JUMPDEST DUP3 MSTORE POP POP JUMP JUMPDEST PUSH2 0x48FE DUP2 PUSH2 0x5B71 JUMP JUMPDEST DUP3 MSTORE POP POP JUMP JUMPDEST PUSH2 0x490D DUP2 PUSH2 0x5B83 JUMP JUMPDEST DUP3 MSTORE POP POP JUMP JUMPDEST PUSH2 0x491C DUP2 PUSH2 0x5B95 JUMP JUMPDEST DUP3 MSTORE POP POP JUMP JUMPDEST PUSH2 0x492B DUP2 PUSH2 0x5BA7 JUMP JUMPDEST DUP3 MSTORE POP POP JUMP JUMPDEST PUSH2 0x493A DUP2 PUSH2 0x5BB9 JUMP JUMPDEST DUP3 MSTORE POP POP JUMP JUMPDEST PUSH2 0x4949 DUP2 PUSH2 0x5BCB JUMP JUMPDEST DUP3 MSTORE POP POP JUMP JUMPDEST PUSH1 0x0 PUSH2 0x495A DUP3 PUSH2 0x5A33 JUMP JUMPDEST PUSH2 0x4964 DUP2 DUP6 PUSH2 0x5A3E JUMP JUMPDEST SWAP4 POP PUSH2 0x4974 DUP2 DUP6 PUSH1 0x20 DUP7 ADD PUSH2 0x5BFE JUMP JUMPDEST PUSH2 0x497D DUP2 PUSH2 0x5DDF JUMP JUMPDEST DUP5 ADD SWAP2 POP POP SWAP3 SWAP2 POP POP JUMP JUMPDEST PUSH1 0x0 PUSH2 0x4993 DUP3 PUSH2 0x5A33 JUMP JUMPDEST PUSH2 0x499D DUP2 DUP6 PUSH2 0x5A4F JUMP JUMPDEST SWAP4 POP PUSH2 0x49AD DUP2 DUP6 PUSH1 0x20 DUP7 ADD PUSH2 0x5BFE JUMP JUMPDEST PUSH2 0x49B6 DUP2 PUSH2 0x5DDF JUMP JUMPDEST DUP5 ADD SWAP2 POP POP SWAP3 SWAP2 POP POP JUMP JUMPDEST PUSH1 0x0 PUSH2 0x49CC DUP3 PUSH2 0x5A33 JUMP JUMPDEST PUSH2 0x49D6 DUP2 DUP6 PUSH2 0x5A60 JUMP JUMPDEST SWAP4 POP PUSH2 0x49E6 DUP2 DUP6 PUSH1 0x20 DUP7 ADD PUSH2 0x5BFE JUMP JUMPDEST DUP1 DUP5 ADD SWAP2 POP POP SWAP3 SWAP2 POP POP JUMP JUMPDEST PUSH1 0x0 DUP2 SLOAD PUSH2 0x49FF DUP2 PUSH2 0x5C31 JUMP JUMPDEST PUSH2 0x4A09 DUP2 DUP7 PUSH2 0x5A4F JUMP JUMPDEST SWAP5 POP PUSH1 0x1 DUP3 AND PUSH1 0x0 DUP2 EQ PUSH2 0x4A24 JUMPI PUSH1 0x1 DUP2 EQ PUSH2 0x4A36 JUMPI PUSH2 0x4A69 JUMP JUMPDEST PUSH1 0xFF NOT DUP4 AND DUP7 MSTORE PUSH1 0x20 DUP7 ADD SWAP4 POP PUSH2 0x4A69 JUMP JUMPDEST PUSH2 0x4A3F DUP6 PUSH2 0x5A1E JUMP JUMPDEST PUSH1 0x0 JUMPDEST DUP4 DUP2 LT ISZERO PUSH2 0x4A61 JUMPI DUP2 SLOAD DUP2 DUP10 ADD MSTORE PUSH1 0x1 DUP3 ADD SWAP2 POP PUSH1 0x20 DUP2 ADD SWAP1 POP PUSH2 0x4A42 JUMP JUMPDEST DUP1 DUP9 ADD SWAP6 POP POP POP JUMPDEST POP POP POP SWAP3 SWAP2 POP POP JUMP JUMPDEST PUSH1 0x0 DUP2 SLOAD PUSH2 0x4A7F DUP2 PUSH2 0x5C31 JUMP JUMPDEST PUSH2 0x4A89 DUP2 DUP7 PUSH2 0x5A60 JUMP JUMPDEST SWAP5 POP PUSH1 0x1 DUP3 AND PUSH1 0x0 DUP2 EQ PUSH2 0x4AA4 JUMPI PUSH1 0x1 DUP2 EQ PUSH2 0x4AB5 JUMPI PUSH2 0x4AE8 JUMP JUMPDEST PUSH1 0xFF NOT DUP4 AND DUP7 MSTORE DUP2 DUP7 ADD SWAP4 POP PUSH2 0x4AE8 JUMP JUMPDEST PUSH2 0x4ABE DUP6 PUSH2 0x5A1E JUMP JUMPDEST PUSH1 0x0 JUMPDEST DUP4 DUP2 LT ISZERO PUSH2 0x4AE0 JUMPI DUP2 SLOAD DUP2 DUP10 ADD MSTORE PUSH1 0x1 DUP3 ADD SWAP2 POP PUSH1 0x20 DUP2 ADD SWAP1 POP PUSH2 0x4AC1 JUMP JUMPDEST DUP4 DUP9 ADD SWAP6 POP POP POP JUMPDEST POP POP POP SWAP3 SWAP2 POP POP JUMP JUMPDEST PUSH1 0x0 PUSH2 0x4AFE PUSH1 0x13 DUP4 PUSH2 0x5A4F JUMP JUMPDEST SWAP2 POP PUSH2 0x4B09 DUP3 PUSH2 0x5DFD JUMP JUMPDEST PUSH1 0x20 DUP3 ADD SWAP1 POP SWAP2 SWAP1 POP JUMP JUMPDEST PUSH1 0x0 PUSH2 0x4B21 PUSH1 0x26 DUP4 PUSH2 0x5A3E JUMP JUMPDEST SWAP2 POP PUSH2 0x4B2C DUP3 PUSH2 0x5E26 JUMP JUMPDEST PUSH1 0x40 DUP3 ADD SWAP1 POP SWAP2 SWAP1 POP JUMP JUMPDEST PUSH1 0x0 PUSH2 0x4B44 PUSH1 0x1D DUP4 PUSH2 0x5A4F JUMP JUMPDEST SWAP2 POP PUSH2 0x4B4F DUP3 PUSH2 0x5E75 JUMP JUMPDEST PUSH1 0x20 DUP3 ADD SWAP1 POP SWAP2 SWAP1 POP JUMP JUMPDEST PUSH1 0x0 PUSH2 0x4B67 PUSH1 0x13 DUP4 PUSH2 0x5A3E JUMP JUMPDEST SWAP2 POP PUSH2 0x4B72 DUP3 PUSH2 0x5E9E JUMP JUMPDEST PUSH1 0x20 DUP3 ADD SWAP1 POP SWAP2 SWAP1 POP JUMP JUMPDEST PUSH1 0x0 PUSH2 0x4B8A PUSH1 0x13 DUP4 PUSH2 0x5A4F JUMP JUMPDEST SWAP2 POP PUSH2 0x4B95 DUP3 PUSH2 0x5E9E JUMP JUMPDEST PUSH1 0x20 DUP3 ADD SWAP1 POP SWAP2 SWAP1 POP JUMP JUMPDEST PUSH1 0x0 PUSH2 0x4BAD PUSH1 0x1C DUP4 PUSH2 0x5A4F JUMP JUMPDEST SWAP2 POP PUSH2 0x4BB8 DUP3 PUSH2 0x5EC7 JUMP JUMPDEST PUSH1 0x20 DUP3 ADD SWAP1 POP SWAP2 SWAP1 POP JUMP JUMPDEST PUSH1 0x0 PUSH2 0x4BD0 PUSH1 0x8 DUP4 PUSH2 0x5A3E JUMP JUMPDEST SWAP2 POP PUSH2 0x4BDB DUP3 PUSH2 0x5EF0 JUMP JUMPDEST PUSH1 0x20 DUP3 ADD SWAP1 POP SWAP2 SWAP1 POP JUMP JUMPDEST PUSH1 0x0 PUSH2 0x4BF3 PUSH1 0x8 DUP4 PUSH2 0x5A4F JUMP JUMPDEST SWAP2 POP PUSH2 0x4BFE DUP3 PUSH2 0x5EF0 JUMP JUMPDEST PUSH1 0x20 DUP3 ADD SWAP1 POP SWAP2 SWAP1 POP JUMP JUMPDEST PUSH1 0x0 PUSH2 0x4C16 PUSH1 0x14 DUP4 PUSH2 0x5A4F JUMP JUMPDEST SWAP2 POP PUSH2 0x4C21 DUP3 PUSH2 0x5F19 JUMP JUMPDEST PUSH1 0x20 DUP3 ADD SWAP1 POP SWAP2 SWAP1 POP JUMP JUMPDEST PUSH1 0x0 PUSH2 0x4C39 PUSH1 0x14 DUP4 PUSH2 0x5A4F JUMP JUMPDEST SWAP2 POP PUSH2 0x4C44 DUP3 PUSH2 0x5F42 JUMP JUMPDEST PUSH1 0x20 DUP3 ADD SWAP1 POP SWAP2 SWAP1 POP JUMP JUMPDEST PUSH1 0x0 PUSH2 0x4C5C PUSH1 0x14 DUP4 PUSH2 0x5A4F JUMP JUMPDEST SWAP2 POP PUSH2 0x4C67 DUP3 PUSH2 0x5F6B JUMP JUMPDEST PUSH1 0x20 DUP3 ADD SWAP1 POP SWAP2 SWAP1 POP JUMP JUMPDEST PUSH1 0x0 PUSH2 0x4C7F PUSH1 0x29 DUP4 PUSH2 0x5A4F JUMP JUMPDEST SWAP2 POP PUSH2 0x4C8A DUP3 PUSH2 0x5F94 JUMP JUMPDEST PUSH1 0x40 DUP3 ADD SWAP1 POP SWAP2 SWAP1 POP JUMP JUMPDEST PUSH1 0x0 PUSH2 0x4CA2 PUSH1 0x11 DUP4 PUSH2 0x5A4F JUMP JUMPDEST SWAP2 POP PUSH2 0x4CAD DUP3 PUSH2 0x5FE3 JUMP JUMPDEST PUSH1 0x20 DUP3 ADD SWAP1 POP SWAP2 SWAP1 POP JUMP JUMPDEST PUSH1 0x0 PUSH2 0x4CC5 PUSH1 0x14 DUP4 PUSH2 0x5A3E JUMP JUMPDEST SWAP2 POP PUSH2 0x4CD0 DUP3 PUSH2 0x600C JUMP JUMPDEST PUSH1 0x20 DUP3 ADD SWAP1 POP SWAP2 SWAP1 POP JUMP JUMPDEST PUSH1 0x0 PUSH2 0x4CE8 PUSH1 0x14 DUP4 PUSH2 0x5A4F JUMP JUMPDEST SWAP2 POP PUSH2 0x4CF3 DUP3 PUSH2 0x600C JUMP JUMPDEST PUSH1 0x20 DUP3 ADD SWAP1 POP SWAP2 SWAP1 POP JUMP JUMPDEST PUSH1 0x0 PUSH2 0x4D0B PUSH1 0x29 DUP4 PUSH2 0x5A3E JUMP JUMPDEST SWAP2 POP PUSH2 0x4D16 DUP3 PUSH2 0x6035 JUMP JUMPDEST PUSH1 0x40 DUP3 ADD SWAP1 POP SWAP2 SWAP1 POP JUMP JUMPDEST PUSH1 0x0 PUSH2 0x4D2E PUSH1 0x29 DUP4 PUSH2 0x5A4F JUMP JUMPDEST SWAP2 POP PUSH2 0x4D39 DUP3 PUSH2 0x6035 JUMP JUMPDEST PUSH1 0x40 DUP3 ADD SWAP1 POP SWAP2 SWAP1 POP JUMP JUMPDEST PUSH1 0x0 PUSH2 0x4D51 PUSH1 0x16 DUP4 PUSH2 0x5A3E JUMP JUMPDEST SWAP2 POP PUSH2 0x4D5C DUP3 PUSH2 0x6084 JUMP JUMPDEST PUSH1 0x20 DUP3 ADD SWAP1 POP SWAP2 SWAP1 POP JUMP JUMPDEST PUSH1 0x0 PUSH2 0x4D74 PUSH1 0x16 DUP4 PUSH2 0x5A4F JUMP JUMPDEST SWAP2 POP PUSH2 0x4D7F DUP3 PUSH2 0x6084 JUMP JUMPDEST PUSH1 0x20 DUP3 ADD SWAP1 POP SWAP2 SWAP1 POP JUMP JUMPDEST PUSH1 0x0 PUSH2 0x4D97 PUSH1 0x17 DUP4 PUSH2 0x5A4F JUMP JUMPDEST SWAP2 POP PUSH2 0x4DA2 DUP3 PUSH2 0x60AD JUMP JUMPDEST PUSH1 0x20 DUP3 ADD SWAP1 POP SWAP2 SWAP1 POP JUMP JUMPDEST PUSH1 0x0 PUSH2 0x4DBA PUSH1 0x21 DUP4 PUSH2 0x5A4F JUMP JUMPDEST SWAP2 POP PUSH2 0x4DC5 DUP3 PUSH2 0x60D6 JUMP JUMPDEST PUSH1 0x40 DUP3 ADD SWAP1 POP SWAP2 SWAP1 POP JUMP JUMPDEST PUSH1 0x0 PUSH2 0x4DDD PUSH1 0x22 DUP4 PUSH2 0x5A4F JUMP JUMPDEST SWAP2 POP PUSH2 0x4DE8 DUP3 PUSH2 0x6125 JUMP JUMPDEST PUSH1 0x40 DUP3 ADD SWAP1 POP SWAP2 SWAP1 POP JUMP JUMPDEST PUSH1 0x0 PUSH2 0x4E00 PUSH1 0x31 DUP4 PUSH2 0x5A4F JUMP JUMPDEST SWAP2 POP PUSH2 0x4E0B DUP3 PUSH2 0x6174 JUMP JUMPDEST PUSH1 0x40 DUP3 ADD SWAP1 POP SWAP2 SWAP1 POP JUMP JUMPDEST PUSH1 0x0 PUSH2 0x4E23 PUSH1 0x1C DUP4 PUSH2 0x5A4F JUMP JUMPDEST SWAP2 POP PUSH2 0x4E2E DUP3 PUSH2 0x61C3 JUMP JUMPDEST PUSH1 0x20 DUP3 ADD SWAP1 POP SWAP2 SWAP1 POP JUMP JUMPDEST PUSH1 0x0 PUSH2 0x4E46 PUSH1 0x37 DUP4 PUSH2 0x5A4F JUMP JUMPDEST SWAP2 POP PUSH2 0x4E51 DUP3 PUSH2 0x61EC JUMP JUMPDEST PUSH1 0x40 DUP3 ADD SWAP1 POP SWAP2 SWAP1 POP JUMP JUMPDEST PUSH1 0x0 PUSH2 0x4E69 PUSH1 0x14 DUP4 PUSH2 0x5A4F JUMP JUMPDEST SWAP2 POP PUSH2 0x4E74 DUP3 PUSH2 0x623B JUMP JUMPDEST PUSH1 0x20 DUP3 ADD SWAP1 POP SWAP2 SWAP1 POP JUMP JUMPDEST PUSH1 0x0 PUSH2 0x4E8C PUSH1 0x5 DUP4 PUSH2 0x5A3E JUMP JUMPDEST SWAP2 POP PUSH2 0x4E97 DUP3 PUSH2 0x6264 JUMP JUMPDEST PUSH1 0x20 DUP3 ADD SWAP1 POP SWAP2 SWAP1 POP JUMP JUMPDEST PUSH1 0x0 PUSH2 0x4EAF PUSH1 0x23 DUP4 PUSH2 0x5A3E JUMP JUMPDEST SWAP2 POP PUSH2 0x4EBA DUP3 PUSH2 0x628D JUMP JUMPDEST PUSH1 0x40 DUP3 ADD SWAP1 POP SWAP2 SWAP1 POP JUMP JUMPDEST PUSH1 0x0 PUSH2 0x4ED2 PUSH1 0x23 DUP4 PUSH2 0x5A4F JUMP JUMPDEST SWAP2 POP PUSH2 0x4EDD DUP3 PUSH2 0x628D JUMP JUMPDEST PUSH1 0x40 DUP3 ADD SWAP1 POP SWAP2 SWAP1 POP JUMP JUMPDEST PUSH1 0x0 PUSH2 0x4EF5 PUSH1 0x26 DUP4 PUSH2 0x5A4F JUMP JUMPDEST SWAP2 POP PUSH2 0x4F00 DUP3 PUSH2 0x62DC JUMP JUMPDEST PUSH1 0x40 DUP3 ADD SWAP1 POP SWAP2 SWAP1 POP JUMP JUMPDEST PUSH1 0x0 PUSH2 0x4F18 PUSH1 0x1D DUP4 PUSH2 0x5A4F JUMP JUMPDEST SWAP2 POP PUSH2 0x4F23 DUP3 PUSH2 0x632B JUMP JUMPDEST PUSH1 0x20 DUP3 ADD SWAP1 POP SWAP2 SWAP1 POP JUMP JUMPDEST PUSH1 0x0 PUSH2 0x4F3B PUSH1 0xB DUP4 PUSH2 0x5A3E JUMP JUMPDEST SWAP2 POP PUSH2 0x4F46 DUP3 PUSH2 0x6354 JUMP JUMPDEST PUSH1 0x20 DUP3 ADD SWAP1 POP SWAP2 SWAP1 POP JUMP JUMPDEST PUSH1 0x0 PUSH2 0x4F5E PUSH1 0x1D DUP4 PUSH2 0x5A4F JUMP JUMPDEST SWAP2 POP PUSH2 0x4F69 DUP3 PUSH2 0x637D JUMP JUMPDEST PUSH1 0x20 DUP3 ADD SWAP1 POP SWAP2 SWAP1 POP JUMP JUMPDEST PUSH1 0x0 PUSH2 0x4F81 PUSH1 0x1A DUP4 PUSH2 0x5A3E JUMP JUMPDEST SWAP2 POP PUSH2 0x4F8C DUP3 PUSH2 0x63A6 JUMP JUMPDEST PUSH1 0x20 DUP3 ADD SWAP1 POP SWAP2 SWAP1 POP JUMP JUMPDEST PUSH1 0x0 PUSH2 0x4FA4 PUSH1 0x1A DUP4 PUSH2 0x5A4F JUMP JUMPDEST SWAP2 POP PUSH2 0x4FAF DUP3 PUSH2 0x63A6 JUMP JUMPDEST PUSH1 0x20 DUP3 ADD SWAP1 POP SWAP2 SWAP1 POP JUMP JUMPDEST PUSH1 0x0 PUSH2 0x4FC7 PUSH1 0x34 DUP4 PUSH2 0x5A4F JUMP JUMPDEST SWAP2 POP PUSH2 0x4FD2 DUP3 PUSH2 0x63CF JUMP JUMPDEST PUSH1 0x40 DUP3 ADD SWAP1 POP SWAP2 SWAP1 POP JUMP JUMPDEST PUSH1 0x0 PUSH2 0x4FEA PUSH1 0x16 DUP4 PUSH2 0x5A4F JUMP JUMPDEST SWAP2 POP PUSH2 0x4FF5 DUP3 PUSH2 0x641E JUMP JUMPDEST PUSH1 0x20 DUP3 ADD SWAP1 POP SWAP2 SWAP1 POP JUMP JUMPDEST PUSH1 0x0 PUSH2 0x500D PUSH1 0x7 DUP4 PUSH2 0x5A3E JUMP JUMPDEST SWAP2 POP PUSH2 0x5018 DUP3 PUSH2 0x6447 JUMP JUMPDEST PUSH1 0x20 DUP3 ADD SWAP1 POP SWAP2 SWAP1 POP JUMP JUMPDEST PUSH2 0x502C DUP2 PUSH2 0x5B24 JUMP JUMPDEST DUP3 MSTORE POP POP JUMP JUMPDEST PUSH2 0x503B DUP2 PUSH2 0x5BDD JUMP JUMPDEST DUP3 MSTORE POP POP JUMP JUMPDEST PUSH2 0x504A DUP2 PUSH2 0x5B2E JUMP JUMPDEST DUP3 MSTORE POP POP JUMP JUMPDEST PUSH1 0x0 PUSH2 0x505C DUP3 DUP5 PUSH2 0x49C1 JUMP JUMPDEST SWAP2 POP DUP2 SWAP1 POP SWAP3 SWAP2 POP POP JUMP JUMPDEST PUSH1 0x0 PUSH2 0x5073 DUP3 DUP5 PUSH2 0x4A72 JUMP JUMPDEST SWAP2 POP DUP2 SWAP1 POP SWAP3 SWAP2 POP POP JUMP JUMPDEST PUSH1 0x0 PUSH1 0x20 DUP3 ADD SWAP1 POP PUSH2 0x5093 PUSH1 0x0 DUP4 ADD DUP5 PUSH2 0x488C JUMP JUMPDEST SWAP3 SWAP2 POP POP JUMP JUMPDEST PUSH1 0x0 PUSH1 0x60 DUP3 ADD SWAP1 POP PUSH2 0x50AE PUSH1 0x0 DUP4 ADD DUP6 PUSH2 0x489B JUMP JUMPDEST PUSH2 0x50BB PUSH1 0x20 DUP4 ADD DUP5 PUSH2 0x489B JUMP JUMPDEST DUP2 DUP2 SUB PUSH1 0x40 DUP4 ADD MSTORE PUSH2 0x50CC DUP2 PUSH2 0x4FDD JUMP JUMPDEST SWAP1 POP SWAP4 SWAP3 POP POP POP JUMP JUMPDEST PUSH1 0x0 PUSH1 0x40 DUP3 ADD SWAP1 POP PUSH2 0x50EA PUSH1 0x0 DUP4 ADD DUP5 PUSH2 0x488C JUMP JUMPDEST DUP2 DUP2 SUB PUSH1 0x20 DUP4 ADD MSTORE PUSH2 0x50FB DUP2 PUSH2 0x4E7F JUMP JUMPDEST SWAP1 POP SWAP3 SWAP2 POP POP JUMP JUMPDEST PUSH1 0x0 PUSH1 0x40 DUP3 ADD SWAP1 POP PUSH2 0x5118 PUSH1 0x0 DUP4 ADD DUP5 PUSH2 0x488C JUMP JUMPDEST DUP2 DUP2 SUB PUSH1 0x20 DUP4 ADD MSTORE PUSH2 0x5129 DUP2 PUSH2 0x5000 JUMP JUMPDEST SWAP1 POP SWAP3 SWAP2 POP POP JUMP JUMPDEST PUSH1 0x0 PUSH1 0x40 DUP3 ADD SWAP1 POP PUSH2 0x5146 PUSH1 0x0 DUP4 ADD DUP6 PUSH2 0x488C JUMP JUMPDEST PUSH2 0x5153 PUSH1 0x20 DUP4 ADD DUP5 PUSH2 0x5041 JUMP JUMPDEST SWAP4 SWAP3 POP POP POP JUMP JUMPDEST PUSH1 0x0 PUSH1 0x20 DUP3 ADD SWAP1 POP PUSH2 0x516F PUSH1 0x0 DUP4 ADD DUP5 PUSH2 0x48AA JUMP JUMPDEST SWAP3 SWAP2 POP POP JUMP JUMPDEST PUSH1 0x0 PUSH1 0x60 DUP3 ADD SWAP1 POP PUSH2 0x518A PUSH1 0x0 DUP4 ADD DUP6 PUSH2 0x48B9 JUMP JUMPDEST PUSH2 0x5197 PUSH1 0x20 DUP4 ADD DUP5 PUSH2 0x48B9 JUMP JUMPDEST DUP2 DUP2 SUB PUSH1 0x40 DUP4 ADD MSTORE PUSH2 0x51A8 DUP2 PUSH2 0x4DF3 JUMP JUMPDEST SWAP1 POP SWAP4 SWAP3 POP POP POP JUMP JUMPDEST PUSH1 0x0 PUSH1 0x60 DUP3 ADD SWAP1 POP PUSH2 0x51C6 PUSH1 0x0 DUP4 ADD DUP6 PUSH2 0x48B9 JUMP JUMPDEST PUSH2 0x51D3 PUSH1 0x20 DUP4 ADD DUP5 PUSH2 0x48B9 JUMP JUMPDEST DUP2 DUP2 SUB PUSH1 0x40 DUP4 ADD MSTORE PUSH2 0x51E4 DUP2 PUSH2 0x4F0B JUMP JUMPDEST SWAP1 POP SWAP4 SWAP3 POP POP POP JUMP JUMPDEST PUSH1 0x0 PUSH1 0x60 DUP3 ADD SWAP1 POP PUSH2 0x5202 PUSH1 0x0 DUP4 ADD DUP6 PUSH2 0x48B9 JUMP JUMPDEST PUSH2 0x520F PUSH1 0x20 DUP4 ADD DUP5 PUSH2 0x48B9 JUMP JUMPDEST DUP2 DUP2 SUB PUSH1 0x40 DUP4 ADD MSTORE PUSH2 0x5220 DUP2 PUSH2 0x4F51 JUMP JUMPDEST SWAP1 POP SWAP4 SWAP3 POP POP POP JUMP JUMPDEST PUSH1 0x0 PUSH1 0x60 DUP3 ADD SWAP1 POP PUSH2 0x523E PUSH1 0x0 DUP4 ADD DUP6 PUSH2 0x48B9 JUMP JUMPDEST PUSH2 0x524B PUSH1 0x20 DUP4 ADD DUP5 PUSH2 0x48B9 JUMP JUMPDEST DUP2 DUP2 SUB PUSH1 0x40 DUP4 ADD MSTORE PUSH2 0x525C DUP2 PUSH2 0x4FBA JUMP JUMPDEST SWAP1 POP SWAP4 SWAP3 POP POP POP JUMP JUMPDEST PUSH1 0x0 PUSH1 0x40 DUP3 ADD SWAP1 POP PUSH2 0x527A PUSH1 0x0 DUP4 ADD DUP5 PUSH2 0x48B9 JUMP JUMPDEST DUP2 DUP2 SUB PUSH1 0x20 DUP4 ADD MSTORE PUSH2 0x528B DUP2 PUSH2 0x4AF1 JUMP JUMPDEST SWAP1 POP SWAP3 SWAP2 POP POP JUMP JUMPDEST PUSH1 0x0 PUSH1 0x40 DUP3 ADD SWAP1 POP PUSH2 0x52A8 PUSH1 0x0 DUP4 ADD DUP5 PUSH2 0x48B9 JUMP JUMPDEST DUP2 DUP2 SUB PUSH1 0x20 DUP4 ADD MSTORE PUSH2 0x52B9 DUP2 PUSH2 0x4BA0 JUMP JUMPDEST SWAP1 POP SWAP3 SWAP2 POP POP JUMP JUMPDEST PUSH1 0x0 PUSH1 0x40 DUP3 ADD SWAP1 POP PUSH2 0x52D6 PUSH1 0x0 DUP4 ADD DUP5 PUSH2 0x48B9 JUMP JUMPDEST DUP2 DUP2 SUB PUSH1 0x20 DUP4 ADD MSTORE PUSH2 0x52E7 DUP2 PUSH2 0x4C72 JUMP JUMPDEST SWAP1 POP SWAP3 SWAP2 POP POP JUMP JUMPDEST PUSH1 0x0 PUSH1 0x40 DUP3 ADD SWAP1 POP PUSH2 0x5304 PUSH1 0x0 DUP4 ADD DUP5 PUSH2 0x48B9 JUMP JUMPDEST DUP2 DUP2 SUB PUSH1 0x20 DUP4 ADD MSTORE PUSH2 0x5315 DUP2 PUSH2 0x4C95 JUMP JUMPDEST SWAP1 POP SWAP3 SWAP2 POP POP JUMP JUMPDEST PUSH1 0x0 PUSH1 0x40 DUP3 ADD SWAP1 POP PUSH2 0x5332 PUSH1 0x0 DUP4 ADD DUP5 PUSH2 0x48B9 JUMP JUMPDEST DUP2 DUP2 SUB PUSH1 0x20 DUP4 ADD MSTORE PUSH2 0x5343 DUP2 PUSH2 0x4DAD JUMP JUMPDEST SWAP1 POP SWAP3 SWAP2 POP POP JUMP JUMPDEST PUSH1 0x0 PUSH1 0x40 DUP3 ADD SWAP1 POP PUSH2 0x5360 PUSH1 0x0 DUP4 ADD DUP5 PUSH2 0x48B9 JUMP JUMPDEST DUP2 DUP2 SUB PUSH1 0x20 DUP4 ADD MSTORE PUSH2 0x5371 DUP2 PUSH2 0x4DD0 JUMP JUMPDEST SWAP1 POP SWAP3 SWAP2 POP POP JUMP JUMPDEST PUSH1 0x0 PUSH1 0x40 DUP3 ADD SWAP1 POP PUSH2 0x538E PUSH1 0x0 DUP4 ADD DUP5 PUSH2 0x48B9 JUMP JUMPDEST DUP2 DUP2 SUB PUSH1 0x20 DUP4 ADD MSTORE PUSH2 0x539F DUP2 PUSH2 0x4E16 JUMP JUMPDEST SWAP1 POP SWAP3 SWAP2 POP POP JUMP JUMPDEST PUSH1 0x0 PUSH1 0x40 DUP3 ADD SWAP1 POP PUSH2 0x53BC PUSH1 0x0 DUP4 ADD DUP5 PUSH2 0x48B9 JUMP JUMPDEST DUP2 DUP2 SUB PUSH1 0x20 DUP4 ADD MSTORE PUSH2 0x53CD DUP2 PUSH2 0x4E39 JUMP JUMPDEST SWAP1 POP SWAP3 SWAP2 POP POP JUMP JUMPDEST PUSH1 0x0 PUSH1 0x40 DUP3 ADD SWAP1 POP PUSH2 0x53EA PUSH1 0x0 DUP4 ADD DUP5 PUSH2 0x48B9 JUMP JUMPDEST DUP2 DUP2 SUB PUSH1 0x20 DUP4 ADD MSTORE PUSH2 0x53FB DUP2 PUSH2 0x4F51 JUMP JUMPDEST SWAP1 POP SWAP3 SWAP2 POP POP JUMP JUMPDEST PUSH1 0x0 PUSH1 0x20 DUP3 ADD SWAP1 POP PUSH2 0x5418 PUSH1 0x0 DUP4 ADD DUP5 PUSH2 0x48C8 JUMP JUMPDEST SWAP3 SWAP2 POP POP JUMP JUMPDEST PUSH1 0x0 PUSH1 0x20 DUP3 ADD SWAP1 POP PUSH2 0x5433 PUSH1 0x0 DUP4 ADD DUP5 PUSH2 0x48D7 JUMP JUMPDEST SWAP3 SWAP2 POP POP JUMP JUMPDEST PUSH1 0x0 PUSH1 0x20 DUP3 ADD SWAP1 POP PUSH2 0x544E PUSH1 0x0 DUP4 ADD DUP5 PUSH2 0x48E6 JUMP JUMPDEST SWAP3 SWAP2 POP POP JUMP JUMPDEST PUSH1 0x0 PUSH1 0x20 DUP3 ADD SWAP1 POP PUSH2 0x5469 PUSH1 0x0 DUP4 ADD DUP5 PUSH2 0x48F5 JUMP JUMPDEST SWAP3 SWAP2 POP POP JUMP JUMPDEST PUSH1 0x0 PUSH1 0x20 DUP3 ADD SWAP1 POP PUSH2 0x5484 PUSH1 0x0 DUP4 ADD DUP5 PUSH2 0x4904 JUMP JUMPDEST SWAP3 SWAP2 POP POP JUMP JUMPDEST PUSH1 0x0 PUSH1 0x20 DUP3 ADD SWAP1 POP PUSH2 0x549F PUSH1 0x0 DUP4 ADD DUP5 PUSH2 0x4913 JUMP JUMPDEST SWAP3 SWAP2 POP POP JUMP JUMPDEST PUSH1 0x0 PUSH1 0x20 DUP3 ADD SWAP1 POP PUSH2 0x54BA PUSH1 0x0 DUP4 ADD DUP5 PUSH2 0x4922 JUMP JUMPDEST SWAP3 SWAP2 POP POP JUMP JUMPDEST PUSH1 0x0 PUSH1 0x20 DUP3 ADD SWAP1 POP PUSH2 0x54D5 PUSH1 0x0 DUP4 ADD DUP5 PUSH2 0x4940 JUMP JUMPDEST SWAP3 SWAP2 POP POP JUMP JUMPDEST PUSH1 0x0 PUSH1 0x20 DUP3 ADD SWAP1 POP DUP2 DUP2 SUB PUSH1 0x0 DUP4 ADD MSTORE PUSH2 0x54F5 DUP2 DUP5 PUSH2 0x494F JUMP JUMPDEST SWAP1 POP SWAP3 SWAP2 POP POP JUMP JUMPDEST PUSH1 0x0 PUSH1 0x40 DUP3 ADD SWAP1 POP DUP2 DUP2 SUB PUSH1 0x0 DUP4 ADD MSTORE PUSH2 0x5517 DUP2 DUP6 PUSH2 0x494F JUMP JUMPDEST SWAP1 POP PUSH2 0x5526 PUSH1 0x20 DUP4 ADD DUP5 PUSH2 0x48AA JUMP JUMPDEST SWAP4 SWAP3 POP POP POP JUMP JUMPDEST PUSH1 0x0 PUSH1 0x60 DUP3 ADD SWAP1 POP DUP2 DUP2 SUB PUSH1 0x0 DUP4 ADD MSTORE PUSH2 0x5547 DUP2 DUP5 PUSH2 0x4988 JUMP JUMPDEST SWAP1 POP DUP2 DUP2 SUB PUSH1 0x20 DUP4 ADD MSTORE PUSH2 0x555A DUP2 PUSH2 0x4B7D JUMP JUMPDEST SWAP1 POP DUP2 DUP2 SUB PUSH1 0x40 DUP4 ADD MSTORE PUSH2 0x556D DUP2 PUSH2 0x4B37 JUMP JUMPDEST SWAP1 POP SWAP3 SWAP2 POP POP JUMP JUMPDEST PUSH1 0x0 PUSH1 0x60 DUP3 ADD SWAP1 POP DUP2 DUP2 SUB PUSH1 0x0 DUP4 ADD MSTORE PUSH2 0x558F DUP2 DUP5 PUSH2 0x4988 JUMP JUMPDEST SWAP1 POP DUP2 DUP2 SUB PUSH1 0x20 DUP4 ADD MSTORE PUSH2 0x55A2 DUP2 PUSH2 0x4CDB JUMP JUMPDEST SWAP1 POP DUP2 DUP2 SUB PUSH1 0x40 DUP4 ADD MSTORE PUSH2 0x55B5 DUP2 PUSH2 0x4B37 JUMP JUMPDEST SWAP1 POP SWAP3 SWAP2 POP POP JUMP JUMPDEST PUSH1 0x0 PUSH1 0x60 DUP3 ADD SWAP1 POP DUP2 DUP2 SUB PUSH1 0x0 DUP4 ADD MSTORE PUSH2 0x55D7 DUP2 DUP5 PUSH2 0x4988 JUMP JUMPDEST SWAP1 POP DUP2 DUP2 SUB PUSH1 0x20 DUP4 ADD MSTORE PUSH2 0x55EA DUP2 PUSH2 0x4D21 JUMP JUMPDEST SWAP1 POP DUP2 DUP2 SUB PUSH1 0x40 DUP4 ADD MSTORE PUSH2 0x55FD DUP2 PUSH2 0x4B37 JUMP JUMPDEST SWAP1 POP SWAP3 SWAP2 POP POP JUMP JUMPDEST PUSH1 0x0 PUSH1 0x60 DUP3 ADD SWAP1 POP DUP2 DUP2 SUB PUSH1 0x0 DUP4 ADD MSTORE PUSH2 0x561F DUP2 DUP5 PUSH2 0x4988 JUMP JUMPDEST SWAP1 POP DUP2 DUP2 SUB PUSH1 0x20 DUP4 ADD MSTORE PUSH2 0x5632 DUP2 PUSH2 0x4D67 JUMP JUMPDEST SWAP1 POP DUP2 DUP2 SUB PUSH1 0x40 DUP4 ADD MSTORE PUSH2 0x5645 DUP2 PUSH2 0x4B37 JUMP JUMPDEST SWAP1 POP SWAP3 SWAP2 POP POP JUMP JUMPDEST PUSH1 0x0 PUSH1 0x60 DUP3 ADD SWAP1 POP DUP2 DUP2 SUB PUSH1 0x0 DUP4 ADD MSTORE PUSH2 0x5667 DUP2 DUP5 PUSH2 0x4988 JUMP JUMPDEST SWAP1 POP DUP2 DUP2 SUB PUSH1 0x20 DUP4 ADD MSTORE PUSH2 0x567A DUP2 PUSH2 0x4EC5 JUMP JUMPDEST SWAP1 POP DUP2 DUP2 SUB PUSH1 0x40 DUP4 ADD MSTORE PUSH2 0x568D DUP2 PUSH2 0x4B37 JUMP JUMPDEST SWAP1 POP SWAP3 SWAP2 POP POP JUMP JUMPDEST PUSH1 0x0 PUSH1 0x60 DUP3 ADD SWAP1 POP DUP2 DUP2 SUB PUSH1 0x0 DUP4 ADD MSTORE PUSH2 0x56AF DUP2 DUP5 PUSH2 0x4988 JUMP JUMPDEST SWAP1 POP DUP2 DUP2 SUB PUSH1 0x20 DUP4 ADD MSTORE PUSH2 0x56C2 DUP2 PUSH2 0x4F97 JUMP JUMPDEST SWAP1 POP DUP2 DUP2 SUB PUSH1 0x40 DUP4 ADD MSTORE PUSH2 0x56D5 DUP2 PUSH2 0x4B37 JUMP JUMPDEST SWAP1 POP SWAP3 SWAP2 POP POP JUMP JUMPDEST PUSH1 0x0 PUSH1 0x60 DUP3 ADD SWAP1 POP DUP2 DUP2 SUB PUSH1 0x0 DUP4 ADD MSTORE PUSH2 0x56F7 DUP2 DUP5 PUSH2 0x49F2 JUMP JUMPDEST SWAP1 POP DUP2 DUP2 SUB PUSH1 0x20 DUP4 ADD MSTORE PUSH2 0x570A DUP2 PUSH2 0x4BE6 JUMP JUMPDEST SWAP1 POP DUP2 DUP2 SUB PUSH1 0x40 DUP4 ADD MSTORE PUSH2 0x571D DUP2 PUSH2 0x4EE8 JUMP JUMPDEST SWAP1 POP SWAP3 SWAP2 POP POP JUMP JUMPDEST PUSH1 0x0 PUSH1 0x20 DUP3 ADD SWAP1 POP DUP2 DUP2 SUB PUSH1 0x0 DUP4 ADD MSTORE PUSH2 0x573E DUP2 PUSH2 0x4B14 JUMP JUMPDEST SWAP1 POP SWAP2 SWAP1 POP JUMP JUMPDEST PUSH1 0x0 PUSH1 0x20 DUP3 ADD SWAP1 POP DUP2 DUP2 SUB PUSH1 0x0 DUP4 ADD MSTORE PUSH2 0x575E DUP2 PUSH2 0x4B5A JUMP JUMPDEST SWAP1 POP SWAP2 SWAP1 POP JUMP JUMPDEST PUSH1 0x0 PUSH1 0x20 DUP3 ADD SWAP1 POP DUP2 DUP2 SUB PUSH1 0x0 DUP4 ADD MSTORE PUSH2 0x577E DUP2 PUSH2 0x4BC3 JUMP JUMPDEST SWAP1 POP SWAP2 SWAP1 POP JUMP JUMPDEST PUSH1 0x0 PUSH1 0x20 DUP3 ADD SWAP1 POP DUP2 DUP2 SUB PUSH1 0x0 DUP4 ADD MSTORE PUSH2 0x579E DUP2 PUSH2 0x4CB8 JUMP JUMPDEST SWAP1 POP SWAP2 SWAP1 POP JUMP JUMPDEST PUSH1 0x0 PUSH1 0x20 DUP3 ADD SWAP1 POP DUP2 DUP2 SUB PUSH1 0x0 DUP4 ADD MSTORE PUSH2 0x57BE DUP2 PUSH2 0x4CFE JUMP JUMPDEST SWAP1 POP SWAP2 SWAP1 POP JUMP JUMPDEST PUSH1 0x0 PUSH1 0x20 DUP3 ADD SWAP1 POP DUP2 DUP2 SUB PUSH1 0x0 DUP4 ADD MSTORE PUSH2 0x57DE DUP2 PUSH2 0x4D44 JUMP JUMPDEST SWAP1 POP SWAP2 SWAP1 POP JUMP JUMPDEST PUSH1 0x0 PUSH1 0x20 DUP3 ADD SWAP1 POP DUP2 DUP2 SUB PUSH1 0x0 DUP4 ADD MSTORE PUSH2 0x57FE DUP2 PUSH2 0x4EA2 JUMP JUMPDEST SWAP1 POP SWAP2 SWAP1 POP JUMP JUMPDEST PUSH1 0x0 PUSH1 0x20 DUP3 ADD SWAP1 POP DUP2 DUP2 SUB PUSH1 0x0 DUP4 ADD MSTORE PUSH2 0x581E DUP2 PUSH2 0x4F2E JUMP JUMPDEST SWAP1 POP SWAP2 SWAP1 POP JUMP JUMPDEST PUSH1 0x0 PUSH1 0x20 DUP3 ADD SWAP1 POP DUP2 DUP2 SUB PUSH1 0x0 DUP4 ADD MSTORE PUSH2 0x583E DUP2 PUSH2 0x4F74 JUMP JUMPDEST SWAP1 POP SWAP2 SWAP1 POP JUMP JUMPDEST PUSH1 0x0 PUSH1 0x60 DUP3 ADD SWAP1 POP PUSH2 0x585A PUSH1 0x0 DUP4 ADD DUP6 PUSH2 0x5023 JUMP JUMPDEST PUSH2 0x5867 PUSH1 0x20 DUP4 ADD DUP5 PUSH2 0x5023 JUMP JUMPDEST DUP2 DUP2 SUB PUSH1 0x40 DUP4 ADD MSTORE PUSH2 0x5878 DUP2 PUSH2 0x4D8A JUMP JUMPDEST SWAP1 POP SWAP4 SWAP3 POP POP POP JUMP JUMPDEST PUSH1 0x0 PUSH1 0x20 DUP3 ADD SWAP1 POP PUSH2 0x5896 PUSH1 0x0 DUP4 ADD DUP5 PUSH2 0x5041 JUMP JUMPDEST SWAP3 SWAP2 POP POP JUMP JUMPDEST PUSH1 0x0 PUSH1 0x60 DUP3 ADD SWAP1 POP PUSH2 0x58B1 PUSH1 0x0 DUP4 ADD DUP6 PUSH2 0x5032 JUMP JUMPDEST PUSH2 0x58BE PUSH1 0x20 DUP4 ADD DUP5 PUSH2 0x48E6 JUMP JUMPDEST DUP2 DUP2 SUB PUSH1 0x40 DUP4 ADD MSTORE PUSH2 0x58CF DUP2 PUSH2 0x4E5C JUMP JUMPDEST SWAP1 POP SWAP4 SWAP3 POP POP POP JUMP JUMPDEST PUSH1 0x0 PUSH1 0x60 DUP3 ADD SWAP1 POP PUSH2 0x58ED PUSH1 0x0 DUP4 ADD DUP6 PUSH2 0x5032 JUMP JUMPDEST PUSH2 0x58FA PUSH1 0x20 DUP4 ADD DUP5 PUSH2 0x4904 JUMP JUMPDEST DUP2 DUP2 SUB PUSH1 0x40 DUP4 ADD MSTORE PUSH2 0x590B DUP2 PUSH2 0x4C09 JUMP JUMPDEST SWAP1 POP SWAP4 SWAP3 POP POP POP JUMP JUMPDEST PUSH1 0x0 PUSH1 0x60 DUP3 ADD SWAP1 POP PUSH2 0x5929 PUSH1 0x0 DUP4 ADD DUP6 PUSH2 0x5032 JUMP JUMPDEST PUSH2 0x5936 PUSH1 0x20 DUP4 ADD DUP5 PUSH2 0x4922 JUMP JUMPDEST DUP2 DUP2 SUB PUSH1 0x40 DUP4 ADD MSTORE PUSH2 0x5947 DUP2 PUSH2 0x4C4F JUMP JUMPDEST SWAP1 POP SWAP4 SWAP3 POP POP POP JUMP JUMPDEST PUSH1 0x0 PUSH1 0x60 DUP3 ADD SWAP1 POP PUSH2 0x5965 PUSH1 0x0 DUP4 ADD DUP6 PUSH2 0x5032 JUMP JUMPDEST PUSH2 0x5972 PUSH1 0x20 DUP4 ADD DUP5 PUSH2 0x4922 JUMP JUMPDEST DUP2 DUP2 SUB PUSH1 0x40 DUP4 ADD MSTORE PUSH2 0x5983 DUP2 PUSH2 0x4F51 JUMP JUMPDEST SWAP1 POP SWAP4 SWAP3 POP POP POP JUMP JUMPDEST PUSH1 0x0 PUSH1 0x60 DUP3 ADD SWAP1 POP PUSH2 0x59A1 PUSH1 0x0 DUP4 ADD DUP6 PUSH2 0x5032 JUMP JUMPDEST PUSH2 0x59AE PUSH1 0x20 DUP4 ADD DUP5 PUSH2 0x4931 JUMP JUMPDEST DUP2 DUP2 SUB PUSH1 0x40 DUP4 ADD MSTORE PUSH2 0x59BF DUP2 PUSH2 0x4C2C JUMP JUMPDEST SWAP1 POP SWAP4 SWAP3 POP POP POP JUMP JUMPDEST PUSH1 0x0 PUSH2 0x59D2 PUSH2 0x59E3 JUMP JUMPDEST SWAP1 POP PUSH2 0x59DE DUP3 DUP3 PUSH2 0x5C63 JUMP JUMPDEST SWAP2 SWAP1 POP JUMP JUMPDEST PUSH1 0x0 PUSH1 0x40 MLOAD SWAP1 POP SWAP1 JUMP JUMPDEST PUSH1 0x0 PUSH8 0xFFFFFFFFFFFFFFFF DUP3 GT ISZERO PUSH2 0x5A08 JUMPI PUSH2 0x5A07 PUSH2 0x5D7A JUMP JUMPDEST JUMPDEST PUSH2 0x5A11 DUP3 PUSH2 0x5DDF JUMP JUMPDEST SWAP1 POP PUSH1 0x20 DUP2 ADD SWAP1 POP SWAP2 SWAP1 POP JUMP JUMPDEST PUSH1 0x0 DUP2 SWAP1 POP DUP2 PUSH1 0x0 MSTORE PUSH1 0x20 PUSH1 0x0 KECCAK256 SWAP1 POP SWAP2 SWAP1 POP JUMP JUMPDEST PUSH1 0x0 DUP2 MLOAD SWAP1 POP SWAP2 SWAP1 POP JUMP JUMPDEST PUSH1 0x0 DUP3 DUP3 MSTORE PUSH1 0x20 DUP3 ADD SWAP1 POP SWAP3 SWAP2 POP POP JUMP JUMPDEST PUSH1 0x0 DUP3 DUP3 MSTORE PUSH1 0x20 DUP3 ADD SWAP1 POP SWAP3 SWAP2 POP POP JUMP JUMPDEST PUSH1 0x0 DUP2 SWAP1 POP SWAP3 SWAP2 POP POP JUMP JUMPDEST PUSH1 0x0 PUSH2 0x5A76 DUP3 PUSH2 0x5B2E JUMP JUMPDEST SWAP2 POP PUSH2 0x5A81 DUP4 PUSH2 0x5B2E JUMP JUMPDEST SWAP3 POP DUP3 PUSH1 0xFF SUB DUP3 GT ISZERO PUSH2 0x5A97 JUMPI PUSH2 0x5A96 PUSH2 0x5CBE JUMP JUMPDEST JUMPDEST DUP3 DUP3 ADD SWAP1 POP SWAP3 SWAP2 POP POP JUMP JUMPDEST PUSH1 0x0 PUSH2 0x5AAD DUP3 PUSH2 0x5B2E JUMP JUMPDEST SWAP2 POP PUSH2 0x5AB8 DUP4 PUSH2 0x5B2E JUMP JUMPDEST SWAP3 POP DUP3 PUSH2 0x5AC8 JUMPI PUSH2 0x5AC7 PUSH2 0x5CED JUMP JUMPDEST JUMPDEST DUP3 DUP3 DIV SWAP1 POP SWAP3 SWAP2 POP POP JUMP JUMPDEST PUSH1 0x0 PUSH2 0x5ADE DUP3 PUSH2 0x5B04 JUMP JUMPDEST SWAP1 POP SWAP2 SWAP1 POP JUMP JUMPDEST PUSH1 0x0 DUP2 ISZERO ISZERO SWAP1 POP SWAP2 SWAP1 POP JUMP JUMPDEST PUSH1 0x0 DUP2 SWAP1 POP PUSH2 0x5AFF DUP3 PUSH2 0x6527 JUMP JUMPDEST SWAP2 SWAP1 POP JUMP JUMPDEST PUSH1 0x0 PUSH20 0xFFFFFFFFFFFFFFFFFFFFFFFFFFFFFFFFFFFFFFFF DUP3 AND SWAP1 POP SWAP2 SWAP1 POP JUMP JUMPDEST PUSH1 0x0 DUP2 SWAP1 POP SWAP2 SWAP1 POP JUMP JUMPDEST PUSH1 0x0 PUSH1 0xFF DUP3 AND SWAP1 POP SWAP2 SWAP1 POP JUMP JUMPDEST PUSH1 0x0 PUSH2 0x5B46 DUP3 PUSH2 0x5AF1 JUMP JUMPDEST SWAP1 POP SWAP2 SWAP1 POP JUMP JUMPDEST PUSH1 0x0 PUSH2 0x5B58 DUP3 PUSH2 0x5B24 JUMP JUMPDEST SWAP1 POP SWAP2 SWAP1 POP JUMP JUMPDEST PUSH1 0x0 PUSH2 0x5B6A DUP3 PUSH2 0x5B24 JUMP JUMPDEST SWAP1 POP SWAP2 SWAP1 POP JUMP JUMPDEST PUSH1 0x0 PUSH2 0x5B7C DUP3 PUSH2 0x5B2E JUMP JUMPDEST SWAP1 POP SWAP2 SWAP1 POP JUMP JUMPDEST PUSH1 0x0 PUSH2 0x5B8E DUP3 PUSH2 0x5B24 JUMP JUMPDEST SWAP1 POP SWAP2 SWAP1 POP JUMP JUMPDEST PUSH1 0x0 PUSH2 0x5BA0 DUP3 PUSH2 0x5B2E JUMP JUMPDEST SWAP1 POP SWAP2 SWAP1 POP JUMP JUMPDEST PUSH1 0x0 PUSH2 0x5BB2 DUP3 PUSH2 0x5B24 JUMP JUMPDEST SWAP1 POP SWAP2 SWAP1 POP JUMP JUMPDEST PUSH1 0x0 PUSH2 0x5BC4 DUP3 PUSH2 0x5B24 JUMP JUMPDEST SWAP1 POP SWAP2 SWAP1 POP JUMP JUMPDEST PUSH1 0x0 PUSH2 0x5BD6 DUP3 PUSH2 0x5B24 JUMP JUMPDEST SWAP1 POP SWAP2 SWAP1 POP JUMP JUMPDEST PUSH1 0x0 PUSH2 0x5BE8 DUP3 PUSH2 0x5B2E JUMP JUMPDEST SWAP1 POP SWAP2 SWAP1 POP JUMP JUMPDEST DUP3 DUP2 DUP4 CALLDATACOPY PUSH1 0x0 DUP4 DUP4 ADD MSTORE POP POP POP JUMP JUMPDEST PUSH1 0x0 JUMPDEST DUP4 DUP2 LT ISZERO PUSH2 0x5C1C JUMPI DUP1 DUP3 ADD MLOAD DUP2 DUP5 ADD MSTORE PUSH1 0x20 DUP2 ADD SWAP1 POP PUSH2 0x5C01 JUMP JUMPDEST DUP4 DUP2 GT ISZERO PUSH2 0x5C2B JUMPI PUSH1 0x0 DUP5 DUP5 ADD MSTORE JUMPDEST POP POP POP POP JUMP JUMPDEST PUSH1 0x0 PUSH1 0x2 DUP3 DIV SWAP1 POP PUSH1 0x1 DUP3 AND DUP1 PUSH2 0x5C49 JUMPI PUSH1 0x7F DUP3 AND SWAP2 POP JUMPDEST PUSH1 0x20 DUP3 LT DUP2 EQ ISZERO PUSH2 0x5C5D JUMPI PUSH2 0x5C5C PUSH2 0x5D4B JUMP JUMPDEST JUMPDEST POP SWAP2 SWAP1 POP JUMP JUMPDEST PUSH2 0x5C6C DUP3 PUSH2 0x5DDF JUMP JUMPDEST DUP2 ADD DUP2 DUP2 LT PUSH8 0xFFFFFFFFFFFFFFFF DUP3 GT OR ISZERO PUSH2 0x5C8B JUMPI PUSH2 0x5C8A PUSH2 0x5D7A JUMP JUMPDEST JUMPDEST DUP1 PUSH1 0x40 MSTORE POP POP POP JUMP JUMPDEST PUSH1 0x0 PUSH2 0x5C9F DUP3 PUSH2 0x5B2E JUMP JUMPDEST SWAP2 POP PUSH1 0xFF DUP3 EQ ISZERO PUSH2 0x5CB3 JUMPI PUSH2 0x5CB2 PUSH2 0x5CBE JUMP JUMPDEST JUMPDEST PUSH1 0x1 DUP3 ADD SWAP1 POP SWAP2 SWAP1 POP JUMP JUMPDEST PUSH32 0x4E487B7100000000000000000000000000000000000000000000000000000000 PUSH1 0x0 MSTORE PUSH1 0x11 PUSH1 0x4 MSTORE PUSH1 0x24 PUSH1 0x0 REVERT JUMPDEST PUSH32 0x4E487B7100000000000000000000000000000000000000000000000000000000 PUSH1 0x0 MSTORE PUSH1 0x12 PUSH1 0x4 MSTORE PUSH1 0x24 PUSH1 0x0 REVERT JUMPDEST PUSH32 0x4E487B7100000000000000000000000000000000000000000000000000000000 PUSH1 0x0 MSTORE PUSH1 0x21 PUSH1 0x4 MSTORE PUSH1 0x24 PUSH1 0x0 REVERT JUMPDEST PUSH32 0x4E487B7100000000000000000000000000000000000000000000000000000000 PUSH1 0x0 MSTORE PUSH1 0x22 PUSH1 0x4 MSTORE PUSH1 0x24 PUSH1 0x0 REVERT JUMPDEST PUSH32 0x4E487B7100000000000000000000000000000000000000000000000000000000 PUSH1 0x0 MSTORE PUSH1 0x41 PUSH1 0x4 MSTORE PUSH1 0x24 PUSH1 0x0 REVERT JUMPDEST PUSH1 0x0 PUSH1 0x3 RETURNDATASIZE GT ISZERO PUSH2 0x5DC8 JUMPI PUSH1 0x4 PUSH1 0x0 DUP1 RETURNDATACOPY PUSH2 0x5DC5 PUSH1 0x0 MLOAD PUSH2 0x5DF0 JUMP JUMPDEST SWAP1 POP JUMPDEST SWAP1 JUMP JUMPDEST PUSH1 0x0 DUP1 REVERT JUMPDEST PUSH1 0x0 DUP1 REVERT JUMPDEST PUSH1 0x0 DUP1 REVERT JUMPDEST PUSH1 0x0 DUP1 REVERT JUMPDEST PUSH1 0x0 PUSH1 0x1F NOT PUSH1 0x1F DUP4 ADD AND SWAP1 POP SWAP2 SWAP1 POP JUMP JUMPDEST PUSH1 0x0 DUP2 PUSH1 0xE0 SHR SWAP1 POP SWAP2 SWAP1 POP JUMP JUMPDEST PUSH32 0x4661696C656420756E65787065637465646C7900000000000000000000000000 PUSH1 0x0 DUP3 ADD MSTORE POP JUMP JUMPDEST PUSH32 0x566F74696E672071756F72756D206973206E6F74206D65742E204B6565702076 PUSH1 0x0 DUP3 ADD MSTORE PUSH32 0x6F74696E672E0000000000000000000000000000000000000000000000000000 PUSH1 0x20 DUP3 ADD MSTORE POP JUMP JUMPDEST PUSH32 0x4661696C6564207769746820756E657870656374656420726561736F6E000000 PUSH1 0x0 DUP3 ADD MSTORE POP JUMP JUMPDEST PUSH32 0x43616E206F6E6C7920766F7465206F6E63652E00000000000000000000000000 PUSH1 0x0 DUP3 ADD MSTORE POP JUMP JUMPDEST PUSH32 0x4661696C6564207769746820756E6578706563746564206572726F7200000000 PUSH1 0x0 DUP3 ADD MSTORE POP JUMP JUMPDEST PUSH32 0x556E692043616665000000000000000000000000000000000000000000000000 PUSH1 0x0 DUP3 ADD MSTORE POP JUMP JUMPDEST PUSH32 0x53686F756C6420626520657175616C20746F2032000000000000000000000000 PUSH1 0x0 DUP3 ADD MSTORE POP JUMP JUMPDEST PUSH32 0x53686F756C6420626520657175616C20746F2034000000000000000000000000 PUSH1 0x0 DUP3 ADD MSTORE POP JUMP JUMPDEST PUSH32 0x53686F756C6420626520657175616C20746F2033000000000000000000000000 PUSH1 0x0 DUP3 ADD MSTORE POP JUMP JUMPDEST PUSH32 0x4661696C656420756E65787065637465646C7920776974682070616E69632065 PUSH1 0x0 DUP3 ADD MSTORE PUSH32 0x72726F7220636F64650000000000000000000000000000000000000000000000 PUSH1 0x20 DUP3 ADD MSTORE POP JUMP JUMPDEST PUSH32 0x4661696C656420756E6578706563746564000000000000000000000000000000 PUSH1 0x0 DUP3 ADD MSTORE POP JUMP JUMPDEST PUSH32 0x436F6E74726163742069732073746F707065642E000000000000000000000000 PUSH1 0x0 DUP3 ADD MSTORE POP JUMP JUMPDEST PUSH32 0x46756E6374696F6E2063616E206E6F742062652063616C6C656420696E207468 PUSH1 0x0 DUP3 ADD MSTORE PUSH32 0x69732073746167652E0000000000000000000000000000000000000000000000 PUSH1 0x20 DUP3 ADD MSTORE POP JUMP JUMPDEST PUSH32 0x467269656E6420616C7265616479206578697374732E00000000000000000000 PUSH1 0x0 DUP3 ADD MSTORE POP JUMP JUMPDEST PUSH32 0x566F74696E672073686F756C6420626520636C6F736564000000000000000000 PUSH1 0x0 DUP3 ADD MSTORE POP JUMP JUMPDEST PUSH32 0x4661696C656420756E65787065637465642077697468206572726F7220636F64 PUSH1 0x0 DUP3 ADD MSTORE PUSH32 0x6500000000000000000000000000000000000000000000000000000000000000 PUSH1 0x20 DUP3 ADD MSTORE POP JUMP JUMPDEST PUSH32 0x416464696E67206578697374696E6720667269656E642073686F756C64206661 PUSH1 0x0 DUP3 ADD MSTORE PUSH32 0x696C000000000000000000000000000000000000000000000000000000000000 PUSH1 0x20 DUP3 ADD MSTORE POP JUMP JUMPDEST PUSH32 0x53746F707065642073746174652073686F756C64206265207472756520616674 PUSH1 0x0 DUP3 ADD MSTORE PUSH32 0x6572206D616E6167657227732063616C6C000000000000000000000000000000 PUSH1 0x20 DUP3 ADD MSTORE POP JUMP JUMPDEST PUSH32 0x566F74696E6720726573756C742073686F756C64206265207472756500000000 PUSH1 0x0 DUP3 ADD MSTORE POP JUMP JUMPDEST PUSH32 0x41646464696E6720667269656E6420617320612075736572206F746865722074 PUSH1 0x0 DUP3 ADD MSTORE PUSH32 0x68616E206D616E616765722073686F756C64206661696C000000000000000000 PUSH1 0x20 DUP3 ADD MSTORE POP JUMP JUMPDEST PUSH32 0x53686F756C6420626520657175616C20746F2031000000000000000000000000 PUSH1 0x0 DUP3 ADD MSTORE POP JUMP JUMPDEST PUSH32 0x416C696365000000000000000000000000000000000000000000000000000000 PUSH1 0x0 DUP3 ADD MSTORE POP JUMP JUMPDEST PUSH32 0x43616E206F6E6C7920626520657865637574656420627920746865206D616E61 PUSH1 0x0 DUP3 ADD MSTORE PUSH32 0x6765720000000000000000000000000000000000000000000000000000000000 PUSH1 0x20 DUP3 ADD MSTORE POP JUMP JUMPDEST PUSH32 0x53656C65637465642072657374617572616E742073686F756C6420626520556E PUSH1 0x0 DUP3 ADD MSTORE PUSH32 0x6920436166650000000000000000000000000000000000000000000000000000 PUSH1 0x20 DUP3 ADD MSTORE POP JUMP JUMPDEST PUSH32 0x566F74696E6720726573756C742073686F756C642062652066616C7365000000 PUSH1 0x0 DUP3 ADD MSTORE POP JUMP JUMPDEST PUSH32 0x41746F6D69632043616665000000000000000000000000000000000000000000 PUSH1 0x0 DUP3 ADD MSTORE POP JUMP JUMPDEST PUSH32 0x4D6574686F6420657865637574696F6E20646964206E6F74206661696C000000 PUSH1 0x0 DUP3 ADD MSTORE POP JUMP JUMPDEST PUSH32 0x52657374617572616E7420616C7265616479206578697374732E000000000000 PUSH1 0x0 DUP3 ADD MSTORE POP JUMP JUMPDEST PUSH32 0x566F74696E6720726573756C742073686F756C642062652066616C736520666F PUSH1 0x0 DUP3 ADD MSTORE PUSH32 0x7220696E76616C69642072657374617572616E74000000000000000000000000 PUSH1 0x20 DUP3 ADD MSTORE POP JUMP JUMPDEST PUSH32 0x4D616E616765722073686F756C64206265206163633000000000000000000000 PUSH1 0x0 DUP3 ADD MSTORE POP JUMP JUMPDEST PUSH32 0x44616E69656C7300000000000000000000000000000000000000000000000000 PUSH1 0x0 DUP3 ADD MSTORE POP JUMP JUMPDEST PUSH1 0x0 PUSH1 0x44 RETURNDATASIZE LT ISZERO PUSH2 0x6480 JUMPI PUSH2 0x6503 JUMP JUMPDEST PUSH2 0x6488 PUSH2 0x59E3 JUMP JUMPDEST PUSH1 0x4 RETURNDATASIZE SUB PUSH1 0x4 DUP3 RETURNDATACOPY DUP1 MLOAD RETURNDATASIZE PUSH1 0x24 DUP3 ADD GT PUSH8 0xFFFFFFFFFFFFFFFF DUP3 GT OR ISZERO PUSH2 0x64B0 JUMPI POP POP PUSH2 0x6503 JUMP JUMPDEST DUP1 DUP3 ADD DUP1 MLOAD PUSH8 0xFFFFFFFFFFFFFFFF DUP2 GT ISZERO PUSH2 0x64CE JUMPI POP POP POP POP PUSH2 0x6503 JUMP JUMPDEST DUP1 PUSH1 0x20 DUP4 ADD ADD PUSH1 0x4 RETURNDATASIZE SUB DUP6 ADD DUP2 GT ISZERO PUSH2 0x64EB JUMPI POP POP POP POP POP PUSH2 0x6503 JUMP JUMPDEST PUSH2 0x64FA DUP3 PUSH1 0x20 ADD DUP6 ADD DUP7 PUSH2 0x5C63 JUMP JUMPDEST DUP3 SWAP6 POP POP POP POP POP POP JUMPDEST SWAP1 JUMP JUMPDEST PUSH1 0x0 DUP1 PUSH1 0x23 RETURNDATASIZE GT ISZERO PUSH2 0x6523 JUMPI PUSH1 0x20 PUSH1 0x4 PUSH1 0x0 RETURNDATACOPY PUSH1 0x1 SWAP2 POP PUSH1 0x0 MLOAD SWAP1 POP JUMPDEST SWAP1 SWAP2 JUMP JUMPDEST PUSH1 0x3 DUP2 LT PUSH2 0x6538 JUMPI PUSH2 0x6537 PUSH2 0x5D1C JUMP JUMPDEST JUMPDEST POP JUMP JUMPDEST PUSH2 0x6544 DUP2 PUSH2 0x5AD3 JUMP JUMPDEST DUP2 EQ PUSH2 0x654F JUMPI PUSH1 0x0 DUP1 REVERT JUMPDEST POP JUMP JUMPDEST PUSH2 0x655B DUP2 PUSH2 0x5AE5 JUMP JUMPDEST DUP2 EQ PUSH2 0x6566 JUMPI PUSH1 0x0 DUP1 REVERT JUMPDEST POP JUMP JUMPDEST PUSH2 0x6572 DUP2 PUSH2 0x5B2E JUMP JUMPDEST DUP2 EQ PUSH2 0x657D JUMPI PUSH1 0x0 DUP1 REVERT JUMPDEST POP JUMP INVALID LOG2 PUSH5 0x6970667358 0x22 SLT KECCAK256 0xAB PUSH32 0xF77D9AF21F3329291AA3004C24076549DE39B311B28637723EAAD86CED156473 PUSH16 0x6C634300080500330000000000000000 "
		},
		"gasEstimates": {
			"creation": {
				"codeDepositCost": "5207600",
				"executionCost": "infinite",
				"totalCost": "infinite"
			},
			"external": {
				"addFriend(address,string)": "infinite",
				"addFriendTwiceShouldFail()": "infinite",
				"addRestaurant(string)": "infinite",
				"beforeAll()": "infinite",
				"currentStage()": "2669",
				"doVote(uint8)": "infinite",
				"endVote()": "infinite",
				"endVoteInCreateStageShouldFail()": "infinite",
				"friends(address)": "infinite",
				"lunchVenueTest()": "infinite",
				"manager()": "infinite",
				"managerTest()": "infinite",
				"numFriends()": "2633",
				"numRestaurants()": "2516",
				"numVotes()": "2588",
				"restaurants(uint8)": "infinite",
				"setFriend()": "infinite",
				"setFriendFailure()": "infinite",
				"setRestaurant()": "infinite",
				"setRestaurantFailure()": "infinite",
				"setRestaurantTwiceShouldFail()": "infinite",
				"setStopped()": "infinite",
				"setStoppedByManager()": "infinite",
				"startCreate()": "infinite",
				"startVote()": "infinite",
				"stopped()": "2604",
				"testDoVoteWhenStoppedShouldFail()": "infinite",
				"vote()": "infinite",
				"vote2()": "infinite",
				"vote3()": "infinite",
				"voteAfterClosedFailure()": "infinite",
				"voteFailure()": "infinite",
				"voteInvalidRestaurantShouldFail()": "infinite",
				"voteOpenTest()": "infinite",
				"voteTwiceShouldFail()": "infinite",
				"votedRestaurant()": "infinite",
				"votes(uint8)": "infinite"
			}
		},
		"methodIdentifiers": {
			"addFriend(address,string)": "3b9f708d",
			"addFriendTwiceShouldFail()": "4f575698",
			"addRestaurant(string)": "6d77bd3e",
			"beforeAll()": "7fea0d4b",
			"currentStage()": "5bf5d54c",
			"doVote(uint8)": "e9b16ca3",
			"endVote()": "b9223946",
			"endVoteInCreateStageShouldFail()": "ff289691",
			"friends(address)": "1ddabf7a",
			"lunchVenueTest()": "a8267245",
			"manager()": "481c6a75",
			"managerTest()": "947aea86",
			"numFriends()": "47098f36",
			"numRestaurants()": "b798867f",
			"numVotes()": "a3bef4d7",
			"restaurants(uint8)": "19a06f27",
			"setFriend()": "848b4427",
			"setFriendFailure()": "77440e06",
			"setRestaurant()": "12a4591a",
			"setRestaurantFailure()": "512a6fbb",
			"setRestaurantTwiceShouldFail()": "6629d50a",
			"setStopped()": "71135f8b",
			"setStoppedByManager()": "3231d447",
			"startCreate()": "fc7ffbba",
			"startVote()": "4c0a6af0",
			"stopped()": "75f12b21",
			"testDoVoteWhenStoppedShouldFail()": "d24fc8e1",
			"vote()": "632a9a52",
			"vote2()": "a24a4e88",
			"vote3()": "2955fea3",
			"voteAfterClosedFailure()": "a5627cf0",
			"voteFailure()": "a9a4070c",
			"voteInvalidRestaurantShouldFail()": "bdb1d745",
			"voteOpenTest()": "bbb97ded",
			"voteTwiceShouldFail()": "44bf1451",
			"votedRestaurant()": "c1c16efc",
			"votes(uint8)": "c1b43357"
		}
	},
	"abi": [
		{
			"inputs": [
				{
					"internalType": "address",
					"name": "friendAddress",
					"type": "address"
				},
				{
					"internalType": "string",
					"name": "name",
					"type": "string"
				}
			],
			"name": "addFriend",
			"outputs": [
				{
					"internalType": "uint8",
					"name": "",
					"type": "uint8"
				}
			],
			"stateMutability": "nonpayable",
			"type": "function"
		},
		{
			"inputs": [],
			"name": "addFriendTwiceShouldFail",
			"outputs": [],
			"stateMutability": "nonpayable",
			"type": "function"
		},
		{
			"inputs": [
				{
					"internalType": "string",
					"name": "name",
					"type": "string"
				}
			],
			"name": "addRestaurant",
			"outputs": [
				{
					"internalType": "uint8",
					"name": "",
					"type": "uint8"
				}
			],
			"stateMutability": "nonpayable",
			"type": "function"
		},
		{
			"inputs": [],
			"name": "beforeAll",
			"outputs": [],
			"stateMutability": "nonpayable",
			"type": "function"
		},
		{
			"inputs": [],
			"name": "currentStage",
			"outputs": [
				{
					"internalType": "enum LunchVenue_updated.Stage",
					"name": "",
					"type": "uint8"
				}
			],
			"stateMutability": "view",
			"type": "function"
		},
		{
			"inputs": [
				{
					"internalType": "uint8",
					"name": "restaurant",
					"type": "uint8"
				}
			],
			"name": "doVote",
			"outputs": [
				{
					"internalType": "bool",
					"name": "validVote",
					"type": "bool"
				}
			],
			"stateMutability": "nonpayable",
			"type": "function"
		},
		{
			"inputs": [],
			"name": "endVote",
			"outputs": [],
			"stateMutability": "nonpayable",
			"type": "function"
		},
		{
			"inputs": [],
			"name": "endVoteInCreateStageShouldFail",
			"outputs": [],
			"stateMutability": "nonpayable",
			"type": "function"
		},
		{
			"inputs": [
				{
					"internalType": "address",
					"name": "",
					"type": "address"
				}
			],
			"name": "friends",
			"outputs": [
				{
					"internalType": "string",
					"name": "name",
					"type": "string"
				},
				{
					"internalType": "bool",
					"name": "voted",
					"type": "bool"
				}
			],
			"stateMutability": "view",
			"type": "function"
		},
		{
			"inputs": [],
			"name": "lunchVenueTest",
			"outputs": [],
			"stateMutability": "nonpayable",
			"type": "function"
		},
		{
			"inputs": [],
			"name": "manager",
			"outputs": [
				{
					"internalType": "address",
					"name": "",
					"type": "address"
				}
			],
			"stateMutability": "view",
			"type": "function"
		},
		{
			"inputs": [],
			"name": "managerTest",
			"outputs": [],
			"stateMutability": "nonpayable",
			"type": "function"
		},
		{
			"inputs": [],
			"name": "numFriends",
			"outputs": [
				{
					"internalType": "uint8",
					"name": "",
					"type": "uint8"
				}
			],
			"stateMutability": "view",
			"type": "function"
		},
		{
			"inputs": [],
			"name": "numRestaurants",
			"outputs": [
				{
					"internalType": "uint8",
					"name": "",
					"type": "uint8"
				}
			],
			"stateMutability": "view",
			"type": "function"
		},
		{
			"inputs": [],
			"name": "numVotes",
			"outputs": [
				{
					"internalType": "uint8",
					"name": "",
					"type": "uint8"
				}
			],
			"stateMutability": "view",
			"type": "function"
		},
		{
			"inputs": [
				{
					"internalType": "uint8",
					"name": "",
					"type": "uint8"
				}
			],
			"name": "restaurants",
			"outputs": [
				{
					"internalType": "string",
					"name": "",
					"type": "string"
				}
			],
			"stateMutability": "view",
			"type": "function"
		},
		{
			"inputs": [],
			"name": "setFriend",
			"outputs": [],
			"stateMutability": "nonpayable",
			"type": "function"
		},
		{
			"inputs": [],
			"name": "setFriendFailure",
			"outputs": [],
			"stateMutability": "nonpayable",
			"type": "function"
		},
		{
			"inputs": [],
			"name": "setRestaurant",
			"outputs": [],
			"stateMutability": "nonpayable",
			"type": "function"
		},
		{
			"inputs": [],
			"name": "setRestaurantFailure",
			"outputs": [],
			"stateMutability": "nonpayable",
			"type": "function"
		},
		{
			"inputs": [],
			"name": "setRestaurantTwiceShouldFail",
			"outputs": [],
			"stateMutability": "nonpayable",
			"type": "function"
		},
		{
			"inputs": [],
			"name": "setStopped",
			"outputs": [],
			"stateMutability": "nonpayable",
			"type": "function"
		},
		{
			"inputs": [],
			"name": "setStoppedByManager",
			"outputs": [],
			"stateMutability": "nonpayable",
			"type": "function"
		},
		{
			"inputs": [],
			"name": "startCreate",
			"outputs": [],
			"stateMutability": "nonpayable",
			"type": "function"
		},
		{
			"inputs": [],
			"name": "startVote",
			"outputs": [],
			"stateMutability": "nonpayable",
			"type": "function"
		},
		{
			"inputs": [],
			"name": "stopped",
			"outputs": [
				{
					"internalType": "bool",
					"name": "",
					"type": "bool"
				}
			],
			"stateMutability": "view",
			"type": "function"
		},
		{
			"inputs": [],
			"name": "testDoVoteWhenStoppedShouldFail",
			"outputs": [],
			"stateMutability": "nonpayable",
			"type": "function"
		},
		{
			"inputs": [],
			"name": "vote",
			"outputs": [],
			"stateMutability": "nonpayable",
			"type": "function"
		},
		{
			"inputs": [],
			"name": "vote2",
			"outputs": [],
			"stateMutability": "nonpayable",
			"type": "function"
		},
		{
			"inputs": [],
			"name": "vote3",
			"outputs": [],
			"stateMutability": "nonpayable",
			"type": "function"
		},
		{
			"inputs": [],
			"name": "voteAfterClosedFailure",
			"outputs": [],
			"stateMutability": "nonpayable",
			"type": "function"
		},
		{
			"inputs": [],
			"name": "voteFailure",
			"outputs": [],
			"stateMutability": "nonpayable",
			"type": "function"
		},
		{
			"inputs": [],
			"name": "voteInvalidRestaurantShouldFail",
			"outputs": [],
			"stateMutability": "nonpayable",
			"type": "function"
		},
		{
			"inputs": [],
			"name": "voteOpenTest",
			"outputs": [],
			"stateMutability": "nonpayable",
			"type": "function"
		},
		{
			"inputs": [],
			"name": "voteTwiceShouldFail",
			"outputs": [],
			"stateMutability": "nonpayable",
			"type": "function"
		},
		{
			"inputs": [],
			"name": "votedRestaurant",
			"outputs": [
				{
					"internalType": "string",
					"name": "",
					"type": "string"
				}
			],
			"stateMutability": "view",
			"type": "function"
		},
		{
			"inputs": [
				{
					"internalType": "uint8",
					"name": "",
					"type": "uint8"
				}
			],
			"name": "votes",
			"outputs": [
				{
					"internalType": "address",
					"name": "voterAddress",
					"type": "address"
				},
				{
					"internalType": "uint8",
					"name": "restaurant",
					"type": "uint8"
				}
			],
			"stateMutability": "view",
			"type": "function"
		}
	]
}