{
	"contracts/LunchVenue_updated.sol": {
		"LunchVenue_updated": {
			"abi": [
				{
					"inputs": [],
					"stateMutability": "nonpayable",
					"type": "constructor"
				},
				{
					"inputs": [
						{
							"internalType": "address",
							"name": "friendAddress",
							"type": "address"
						},
						{
							"internalType": "string",
							"name": "name",
							"type": "string"
						}
					],
					"name": "addFriend",
					"outputs": [
						{
							"internalType": "uint256",
							"name": "",
							"type": "uint256"
						}
					],
					"stateMutability": "nonpayable",
					"type": "function"
				},
				{
					"inputs": [
						{
							"internalType": "string",
							"name": "name",
							"type": "string"
						}
					],
					"name": "addRestaurant",
					"outputs": [
						{
							"internalType": "uint256",
							"name": "",
							"type": "uint256"
						}
					],
					"stateMutability": "nonpayable",
					"type": "function"
				},
				{
					"inputs": [
						{
							"internalType": "address",
							"name": "friendAddress",
							"type": "address"
						}
					],
					"name": "checkIfAlreadyVoted",
					"outputs": [
						{
							"internalType": "bool",
							"name": "votedAlready",
							"type": "bool"
						}
					],
					"stateMutability": "view",
					"type": "function"
				},
				{
					"inputs": [
						{
							"internalType": "uint256",
							"name": "restaurant",
							"type": "uint256"
						}
					],
					"name": "doVote",
					"outputs": [
						{
							"internalType": "bool",
							"name": "validVote",
							"type": "bool"
						}
					],
					"stateMutability": "nonpayable",
					"type": "function"
				},
				{
					"inputs": [
						{
							"internalType": "address",
							"name": "",
							"type": "address"
						}
					],
					"name": "friends",
					"outputs": [
						{
							"internalType": "string",
							"name": "name",
							"type": "string"
						},
						{
							"internalType": "bool",
							"name": "voted",
							"type": "bool"
						}
					],
					"stateMutability": "view",
					"type": "function"
				},
				{
					"inputs": [],
					"name": "manager",
					"outputs": [
						{
							"internalType": "address",
							"name": "",
							"type": "address"
						}
					],
					"stateMutability": "view",
					"type": "function"
				},
				{
					"inputs": [],
					"name": "numFriends",
					"outputs": [
						{
							"internalType": "uint256",
							"name": "",
							"type": "uint256"
						}
					],
					"stateMutability": "view",
					"type": "function"
				},
				{
					"inputs": [],
					"name": "numRestaurants",
					"outputs": [
						{
							"internalType": "uint256",
							"name": "",
							"type": "uint256"
						}
					],
					"stateMutability": "view",
					"type": "function"
				},
				{
					"inputs": [],
					"name": "numVotes",
					"outputs": [
						{
							"internalType": "uint256",
							"name": "",
							"type": "uint256"
						}
					],
					"stateMutability": "view",
					"type": "function"
				},
				{
					"inputs": [
						{
							"internalType": "uint256",
							"name": "",
							"type": "uint256"
						}
					],
					"name": "restaurants",
					"outputs": [
						{
							"internalType": "string",
							"name": "",
							"type": "string"
						}
					],
					"stateMutability": "view",
					"type": "function"
				},
				{
					"inputs": [],
					"name": "voteOpen",
					"outputs": [
						{
							"internalType": "bool",
							"name": "",
							"type": "bool"
						}
					],
					"stateMutability": "view",
					"type": "function"
				},
				{
					"inputs": [],
					"name": "votedRestaurant",
					"outputs": [
						{
							"internalType": "string",
							"name": "",
							"type": "string"
						}
					],
					"stateMutability": "view",
					"type": "function"
				},
				{
					"inputs": [
						{
							"internalType": "uint256",
							"name": "",
							"type": "uint256"
						}
					],
					"name": "votes",
					"outputs": [
						{
							"internalType": "address",
							"name": "voterAddress",
							"type": "address"
						},
						{
							"internalType": "uint256",
							"name": "restaurant",
							"type": "uint256"
						}
					],
					"stateMutability": "view",
					"type": "function"
				}
			],
			"devdoc": {
				"author": "Dilum Bandara, CSIRO's Data61",
				"kind": "dev",
				"methods": {
					"addFriend(address,string)": {
						"details": "To simplify the code duplication of friends is not checked",
						"params": {
							"friendAddress": "Friend's account/address",
							"name": "Friend's name"
						},
						"returns": {
							"_0": "Number of friends added so far"
						}
					},
					"addRestaurant(string)": {
						"details": "To simplify the code, duplication of restaurants isn't checked",
						"params": {
							"name": "Restaurant name"
						},
						"returns": {
							"_0": "Number of restaurants added so far"
						}
					},
					"checkIfAlreadyVoted(address)": {
						"params": {
							"friendAddress": "Friend's account/address"
						},
						"returns": {
							"votedAlready": "Has the friend voted already?"
						}
					},
					"constructor": {
						"details": "Set manager when contract starts"
					},
					"doVote(uint256)": {
						"details": "To simplify the code duplicate votes by a friend is not checked",
						"params": {
							"restaurant": "Restaurant number being voted"
						},
						"returns": {
							"validVote": "Is the vote valid? A valid vote should be from a registered  friend to a registered restaurant"
						}
					}
				},
				"title": "Contract to agree on the lunch venue",
				"version": 1
			},
			"evm": {
				"assembly": "    /* \"contracts/LunchVenue_updated.sol\":157:4940  contract LunchVenue_updated{... */\n  mstore(0x40, 0x80)\n    /* \"contracts/LunchVenue_updated.sol\":566:567  0 */\n  0x00\n    /* \"contracts/LunchVenue_updated.sol\":537:567  uint public numRestaurants = 0 */\n  0x02\n  sstore\n    /* \"contracts/LunchVenue_updated.sol\":598:599  0 */\n  0x00\n    /* \"contracts/LunchVenue_updated.sol\":573:599  uint public numFriends = 0 */\n  0x03\n  sstore\n    /* \"contracts/LunchVenue_updated.sol\":628:629  0 */\n  0x00\n    /* \"contracts/LunchVenue_updated.sol\":605:629  uint public numVotes = 0 */\n  0x04\n  sstore\n    /* \"contracts/LunchVenue_updated.sol\":702:736  string public votedRestaurant = \"\" */\n  mload(0x40)\n  dup1\n  0x20\n  add\n  0x40\n  mstore\n  dup1\n  0x00\n  dup2\n  mstore\n  pop\n  0x06\n  swap1\n  dup1\n  mload\n  swap1\n  0x20\n  add\n  swap1\n  tag_1\n  swap3\n  swap2\n  swap1\n  tag_2\n  jump\t// in\ntag_1:\n  pop\n    /* \"contracts/LunchVenue_updated.sol\":975:979  true */\n  0x01\n    /* \"contracts/LunchVenue_updated.sol\":952:979  bool public voteOpen = true */\n  0x09\n  exp(0x0100, 0x00)\n  dup2\n  sload\n  dup2\n  0xff\n  mul\n  not\n  and\n  swap1\n  dup4\n  iszero\n  iszero\n  mul\n  or\n  swap1\n  sstore\n  pop\n    /* \"contracts/LunchVenue_updated.sol\":1079:1183  constructor () {... */\n  callvalue\n  dup1\n  iszero\n  tag_3\n  jumpi\n  0x00\n  dup1\n  revert\ntag_3:\n  pop\n    /* \"contracts/LunchVenue_updated.sol\":1114:1124  msg.sender */\n  caller\n    /* \"contracts/LunchVenue_updated.sol\":1104:1111  manager */\n  0x05\n  0x00\n    /* \"contracts/LunchVenue_updated.sol\":1104:1124  manager = msg.sender */\n  0x0100\n  exp\n  dup2\n  sload\n  dup2\n  0xffffffffffffffffffffffffffffffffffffffff\n  mul\n  not\n  and\n  swap1\n  dup4\n  0xffffffffffffffffffffffffffffffffffffffff\n  and\n  mul\n  or\n  swap1\n  sstore\n  pop\n    /* \"contracts/LunchVenue_updated.sol\":157:4940  contract LunchVenue_updated{... */\n  jump(tag_6)\ntag_2:\n  dup3\n  dup1\n  sload\n  tag_7\n  swap1\n  tag_8\n  jump\t// in\ntag_7:\n  swap1\n  0x00\n  mstore\n  keccak256(0x00, 0x20)\n  swap1\n  0x1f\n  add\n  0x20\n  swap1\n  div\n  dup2\n  add\n  swap3\n  dup3\n  tag_10\n  jumpi\n  0x00\n  dup6\n  sstore\n  jump(tag_9)\ntag_10:\n  dup3\n  0x1f\n  lt\n  tag_11\n  jumpi\n  dup1\n  mload\n  not(0xff)\n  and\n  dup4\n  dup1\n  add\n  or\n  dup6\n  sstore\n  jump(tag_9)\ntag_11:\n  dup3\n  dup1\n  add\n  0x01\n  add\n  dup6\n  sstore\n  dup3\n  iszero\n  tag_9\n  jumpi\n  swap2\n  dup3\n  add\ntag_12:\n  dup3\n  dup2\n  gt\n  iszero\n  tag_13\n  jumpi\n  dup3\n  mload\n  dup3\n  sstore\n  swap2\n  0x20\n  add\n  swap2\n  swap1\n  0x01\n  add\n  swap1\n  jump(tag_12)\ntag_13:\ntag_9:\n  pop\n  swap1\n  pop\n  tag_14\n  swap2\n  swap1\n  tag_15\n  jump\t// in\ntag_14:\n  pop\n  swap1\n  jump\t// out\ntag_15:\ntag_16:\n  dup1\n  dup3\n  gt\n  iszero\n  tag_17\n  jumpi\n  0x00\n  dup2\n  0x00\n  swap1\n  sstore\n  pop\n  0x01\n  add\n  jump(tag_16)\ntag_17:\n  pop\n  swap1\n  jump\t// out\n    /* \"#utility.yul\":7:327   */\ntag_8:\n    /* \"#utility.yul\":51:57   */\n  0x00\n    /* \"#utility.yul\":88:89   */\n  0x02\n    /* \"#utility.yul\":82:86   */\n  dup3\n    /* \"#utility.yul\":78:90   */\n  div\n    /* \"#utility.yul\":68:90   */\n  swap1\n  pop\n    /* \"#utility.yul\":135:136   */\n  0x01\n    /* \"#utility.yul\":129:133   */\n  dup3\n    /* \"#utility.yul\":125:137   */\n  and\n    /* \"#utility.yul\":156:174   */\n  dup1\n    /* \"#utility.yul\":146:148   */\n  tag_20\n  jumpi\n    /* \"#utility.yul\":212:216   */\n  0x7f\n    /* \"#utility.yul\":204:210   */\n  dup3\n    /* \"#utility.yul\":200:217   */\n  and\n    /* \"#utility.yul\":190:217   */\n  swap2\n  pop\n    /* \"#utility.yul\":146:148   */\ntag_20:\n    /* \"#utility.yul\":274:276   */\n  0x20\n    /* \"#utility.yul\":266:272   */\n  dup3\n    /* \"#utility.yul\":263:277   */\n  lt\n    /* \"#utility.yul\":243:261   */\n  dup2\n    /* \"#utility.yul\":240:278   */\n  eq\n    /* \"#utility.yul\":237:239   */\n  iszero\n  tag_21\n  jumpi\n    /* \"#utility.yul\":293:311   */\n  tag_22\n  tag_23\n  jump\t// in\ntag_22:\n    /* \"#utility.yul\":237:239   */\ntag_21:\n    /* \"#utility.yul\":58:327   */\n  pop\n  swap2\n  swap1\n  pop\n  jump\t// out\n    /* \"#utility.yul\":333:513   */\ntag_23:\n    /* \"#utility.yul\":381:458   */\n  0x4e487b7100000000000000000000000000000000000000000000000000000000\n    /* \"#utility.yul\":378:379   */\n  0x00\n    /* \"#utility.yul\":371:459   */\n  mstore\n    /* \"#utility.yul\":478:482   */\n  0x22\n    /* \"#utility.yul\":475:476   */\n  0x04\n    /* \"#utility.yul\":468:483   */\n  mstore\n    /* \"#utility.yul\":502:506   */\n  0x24\n    /* \"#utility.yul\":499:500   */\n  0x00\n    /* \"#utility.yul\":492:507   */\n  revert\n    /* \"contracts/LunchVenue_updated.sol\":157:4940  contract LunchVenue_updated{... */\ntag_6:\n  dataSize(sub_0)\n  dup1\n  dataOffset(sub_0)\n  0x00\n  codecopy\n  0x00\n  return\nstop\n\nsub_0: assembly {\n        /* \"contracts/LunchVenue_updated.sol\":157:4940  contract LunchVenue_updated{... */\n      mstore(0x40, 0x80)\n      callvalue\n      dup1\n      iszero\n      tag_1\n      jumpi\n      0x00\n      dup1\n      revert\n    tag_1:\n      pop\n      jumpi(tag_2, lt(calldatasize, 0x04))\n      shr(0xe0, calldataload(0x00))\n      dup1\n      0x5df81330\n      gt\n      tag_16\n      jumpi\n      dup1\n      0xa3bef4d7\n      gt\n      tag_17\n      jumpi\n      dup1\n      0xa3bef4d7\n      eq\n      tag_12\n      jumpi\n      dup1\n      0xad5461d8\n      eq\n      tag_13\n      jumpi\n      dup1\n      0xb798867f\n      eq\n      tag_14\n      jumpi\n      dup1\n      0xc1c16efc\n      eq\n      tag_15\n      jumpi\n      jump(tag_2)\n    tag_17:\n      dup1\n      0x5df81330\n      eq\n      tag_9\n      jumpi\n      dup1\n      0x6d77bd3e\n      eq\n      tag_10\n      jumpi\n      dup1\n      0x788d3851\n      eq\n      tag_11\n      jumpi\n      jump(tag_2)\n    tag_16:\n      dup1\n      0x124258c6\n      eq\n      tag_3\n      jumpi\n      dup1\n      0x1ddabf7a\n      eq\n      tag_4\n      jumpi\n      dup1\n      0x3b9f708d\n      eq\n      tag_5\n      jumpi\n      dup1\n      0x46331c3e\n      eq\n      tag_6\n      jumpi\n      dup1\n      0x47098f36\n      eq\n      tag_7\n      jumpi\n      dup1\n      0x481c6a75\n      eq\n      tag_8\n      jumpi\n    tag_2:\n      0x00\n      dup1\n      revert\n        /* \"contracts/LunchVenue_updated.sol\":2887:3644  function doVote(uint restaurant) public votingOpen returns (bool validVote){... */\n    tag_3:\n      tag_18\n      0x04\n      dup1\n      calldatasize\n      sub\n      dup2\n      add\n      swap1\n      tag_19\n      swap2\n      swap1\n      tag_20\n      jump\t// in\n    tag_19:\n      tag_21\n      jump\t// in\n    tag_18:\n      mload(0x40)\n      tag_22\n      swap2\n      swap1\n      tag_23\n      jump\t// in\n    tag_22:\n      mload(0x40)\n      dup1\n      swap2\n      sub\n      swap1\n      return\n        /* \"contracts/LunchVenue_updated.sol\":453:494  mapping(address => Friend) public friends */\n    tag_4:\n      tag_24\n      0x04\n      dup1\n      calldatasize\n      sub\n      dup2\n      add\n      swap1\n      tag_25\n      swap2\n      swap1\n      tag_26\n      jump\t// in\n    tag_25:\n      tag_27\n      jump\t// in\n    tag_24:\n      mload(0x40)\n      tag_28\n      swap3\n      swap2\n      swap1\n      tag_29\n      jump\t// in\n    tag_28:\n      mload(0x40)\n      dup1\n      swap2\n      sub\n      swap1\n      return\n        /* \"contracts/LunchVenue_updated.sol\":1869:2128  function addFriend(address friendAddress, string memory name) public restricted returns (uint){... */\n    tag_5:\n      tag_30\n      0x04\n      dup1\n      calldatasize\n      sub\n      dup2\n      add\n      swap1\n      tag_31\n      swap2\n      swap1\n      tag_32\n      jump\t// in\n    tag_31:\n      tag_33\n      jump\t// in\n    tag_30:\n      mload(0x40)\n      tag_34\n      swap2\n      swap1\n      tag_35\n      jump\t// in\n    tag_34:\n      mload(0x40)\n      dup1\n      swap2\n      sub\n      swap1\n      return\n        /* \"contracts/LunchVenue_updated.sol\":2319:2563  function checkIfAlreadyVoted(address friendAddress) public view returns (bool votedAlready){... */\n    tag_6:\n      tag_36\n      0x04\n      dup1\n      calldatasize\n      sub\n      dup2\n      add\n      swap1\n      tag_37\n      swap2\n      swap1\n      tag_26\n      jump\t// in\n    tag_37:\n      tag_38\n      jump\t// in\n    tag_36:\n      mload(0x40)\n      tag_39\n      swap2\n      swap1\n      tag_23\n      jump\t// in\n    tag_39:\n      mload(0x40)\n      dup1\n      swap2\n      sub\n      swap1\n      return\n        /* \"contracts/LunchVenue_updated.sol\":573:599  uint public numFriends = 0 */\n    tag_7:\n      tag_40\n      tag_41\n      jump\t// in\n    tag_40:\n      mload(0x40)\n      tag_42\n      swap2\n      swap1\n      tag_35\n      jump\t// in\n    tag_42:\n      mload(0x40)\n      dup1\n      swap2\n      sub\n      swap1\n      return\n        /* \"contracts/LunchVenue_updated.sol\":635:657  address public manager */\n    tag_8:\n      tag_43\n      tag_44\n      jump\t// in\n    tag_43:\n      mload(0x40)\n      tag_45\n      swap2\n      swap1\n      tag_46\n      jump\t// in\n    tag_45:\n      mload(0x40)\n      dup1\n      swap2\n      sub\n      swap1\n      return\n        /* \"contracts/LunchVenue_updated.sol\":773:808  mapping (uint => Vote) public votes */\n    tag_9:\n      tag_47\n      0x04\n      dup1\n      calldatasize\n      sub\n      dup2\n      add\n      swap1\n      tag_48\n      swap2\n      swap1\n      tag_20\n      jump\t// in\n    tag_48:\n      tag_49\n      jump\t// in\n    tag_47:\n      mload(0x40)\n      tag_50\n      swap3\n      swap2\n      swap1\n      tag_51\n      jump\t// in\n    tag_50:\n      mload(0x40)\n      dup1\n      swap2\n      sub\n      swap1\n      return\n        /* \"contracts/LunchVenue_updated.sol\":1408:1591  function addRestaurant(string memory name) public restricted returns (uint){... */\n    tag_10:\n      tag_52\n      0x04\n      dup1\n      calldatasize\n      sub\n      dup2\n      add\n      swap1\n      tag_53\n      swap2\n      swap1\n      tag_54\n      jump\t// in\n    tag_53:\n      tag_55\n      jump\t// in\n    tag_52:\n      mload(0x40)\n      tag_56\n      swap2\n      swap1\n      tag_35\n      jump\t// in\n    tag_56:\n      mload(0x40)\n      dup1\n      swap2\n      sub\n      swap1\n      return\n        /* \"contracts/LunchVenue_updated.sol\":952:979  bool public voteOpen = true */\n    tag_11:\n      tag_57\n      tag_58\n      jump\t// in\n    tag_57:\n      mload(0x40)\n      tag_59\n      swap2\n      swap1\n      tag_23\n      jump\t// in\n    tag_59:\n      mload(0x40)\n      dup1\n      swap2\n      sub\n      swap1\n      return\n        /* \"contracts/LunchVenue_updated.sol\":605:629  uint public numVotes = 0 */\n    tag_12:\n      tag_60\n      tag_61\n      jump\t// in\n    tag_60:\n      mload(0x40)\n      tag_62\n      swap2\n      swap1\n      tag_35\n      jump\t// in\n    tag_62:\n      mload(0x40)\n      dup1\n      swap2\n      sub\n      swap1\n      return\n        /* \"contracts/LunchVenue_updated.sol\":360:403  mapping (uint => string) public restaurants */\n    tag_13:\n      tag_63\n      0x04\n      dup1\n      calldatasize\n      sub\n      dup2\n      add\n      swap1\n      tag_64\n      swap2\n      swap1\n      tag_20\n      jump\t// in\n    tag_64:\n      tag_65\n      jump\t// in\n    tag_63:\n      mload(0x40)\n      tag_66\n      swap2\n      swap1\n      tag_67\n      jump\t// in\n    tag_66:\n      mload(0x40)\n      dup1\n      swap2\n      sub\n      swap1\n      return\n        /* \"contracts/LunchVenue_updated.sol\":537:567  uint public numRestaurants = 0 */\n    tag_14:\n      tag_68\n      tag_69\n      jump\t// in\n    tag_68:\n      mload(0x40)\n      tag_70\n      swap2\n      swap1\n      tag_35\n      jump\t// in\n    tag_70:\n      mload(0x40)\n      dup1\n      swap2\n      sub\n      swap1\n      return\n        /* \"contracts/LunchVenue_updated.sol\":702:736  string public votedRestaurant = \"\" */\n    tag_15:\n      tag_71\n      tag_72\n      jump\t// in\n    tag_71:\n      mload(0x40)\n      tag_73\n      swap2\n      swap1\n      tag_67\n      jump\t// in\n    tag_73:\n      mload(0x40)\n      dup1\n      swap2\n      sub\n      swap1\n      return\n        /* \"contracts/LunchVenue_updated.sol\":2887:3644  function doVote(uint restaurant) public votingOpen returns (bool validVote){... */\n    tag_21:\n        /* \"contracts/LunchVenue_updated.sol\":2947:2961  bool validVote */\n      0x00\n        /* \"contracts/LunchVenue_updated.sol\":4876:4880  true */\n      0x01\n        /* \"contracts/LunchVenue_updated.sol\":4864:4880  voteOpen == true */\n      iszero\n      iszero\n        /* \"contracts/LunchVenue_updated.sol\":4864:4872  voteOpen */\n      0x09\n      0x00\n      swap1\n      sload\n      swap1\n      0x0100\n      exp\n      swap1\n      div\n      0xff\n      and\n        /* \"contracts/LunchVenue_updated.sol\":4864:4880  voteOpen == true */\n      iszero\n      iszero\n      eq\n        /* \"contracts/LunchVenue_updated.sol\":4856:4920  require(voteOpen == true, \"Can vote only while voting is open.\") */\n      tag_75\n      jumpi\n      mload(0x40)\n      0x08c379a000000000000000000000000000000000000000000000000000000000\n      dup2\n      mstore\n      0x04\n      add\n      tag_76\n      swap1\n      tag_77\n      jump\t// in\n    tag_76:\n      mload(0x40)\n      dup1\n      swap2\n      sub\n      swap1\n      revert\n    tag_75:\n        /* \"contracts/LunchVenue_updated.sol\":2984:2989  false */\n      0x00\n        /* \"contracts/LunchVenue_updated.sol\":2972:2989  validVote = false */\n      swap1\n      pop\n        /* \"contracts/LunchVenue_updated.sol\":3099:3100  0 */\n      0x00\n        /* \"contracts/LunchVenue_updated.sol\":3063:3070  friends */\n      0x01\n        /* \"contracts/LunchVenue_updated.sol\":3063:3082  friends[msg.sender] */\n      0x00\n        /* \"contracts/LunchVenue_updated.sol\":3071:3081  msg.sender */\n      caller\n        /* \"contracts/LunchVenue_updated.sol\":3063:3082  friends[msg.sender] */\n      0xffffffffffffffffffffffffffffffffffffffff\n      and\n      0xffffffffffffffffffffffffffffffffffffffff\n      and\n      dup2\n      mstore\n      0x20\n      add\n      swap1\n      dup2\n      mstore\n      0x20\n      add\n      0x00\n      keccak256\n        /* \"contracts/LunchVenue_updated.sol\":3063:3087  friends[msg.sender].name */\n      0x00\n      add\n        /* \"contracts/LunchVenue_updated.sol\":3057:3095  bytes(friends[msg.sender].name).length */\n      dup1\n      sload\n      tag_79\n      swap1\n      tag_80\n      jump\t// in\n    tag_79:\n      swap1\n      pop\n        /* \"contracts/LunchVenue_updated.sol\":3057:3100  bytes(friends[msg.sender].name).length != 0 */\n      eq\n        /* \"contracts/LunchVenue_updated.sol\":3053:3506  if (bytes(friends[msg.sender].name).length != 0) {  //Does friend exist?... */\n      tag_81\n      jumpi\n        /* \"contracts/LunchVenue_updated.sol\":3183:3184  0 */\n      0x00\n        /* \"contracts/LunchVenue_updated.sol\":3148:3159  restaurants */\n      dup1\n        /* \"contracts/LunchVenue_updated.sol\":3148:3171  restaurants[restaurant] */\n      0x00\n        /* \"contracts/LunchVenue_updated.sol\":3160:3170  restaurant */\n      dup5\n        /* \"contracts/LunchVenue_updated.sol\":3148:3171  restaurants[restaurant] */\n      dup2\n      mstore\n      0x20\n      add\n      swap1\n      dup2\n      mstore\n      0x20\n      add\n      0x00\n      keccak256\n        /* \"contracts/LunchVenue_updated.sol\":3142:3179  bytes(restaurants[restaurant]).length */\n      dup1\n      sload\n      tag_82\n      swap1\n      tag_80\n      jump\t// in\n    tag_82:\n      swap1\n      pop\n        /* \"contracts/LunchVenue_updated.sol\":3142:3184  bytes(restaurants[restaurant]).length != 0 */\n      eq\n        /* \"contracts/LunchVenue_updated.sol\":3138:3496  if (bytes(restaurants[restaurant]).length != 0) {   //Does restaurant exist?... */\n      tag_83\n      jumpi\n        /* \"contracts/LunchVenue_updated.sol\":3243:3247  true */\n      0x01\n        /* \"contracts/LunchVenue_updated.sol\":3231:3247  validVote = true */\n      swap1\n      pop\n        /* \"contracts/LunchVenue_updated.sol\":3293:3297  true */\n      0x01\n        /* \"contracts/LunchVenue_updated.sol\":3265:3272  friends */\n      dup1\n        /* \"contracts/LunchVenue_updated.sol\":3265:3284  friends[msg.sender] */\n      0x00\n        /* \"contracts/LunchVenue_updated.sol\":3273:3283  msg.sender */\n      caller\n        /* \"contracts/LunchVenue_updated.sol\":3265:3284  friends[msg.sender] */\n      0xffffffffffffffffffffffffffffffffffffffff\n      and\n      0xffffffffffffffffffffffffffffffffffffffff\n      and\n      dup2\n      mstore\n      0x20\n      add\n      swap1\n      dup2\n      mstore\n      0x20\n      add\n      0x00\n      keccak256\n        /* \"contracts/LunchVenue_updated.sol\":3265:3290  friends[msg.sender].voted */\n      0x01\n      add\n      0x00\n        /* \"contracts/LunchVenue_updated.sol\":3265:3297  friends[msg.sender].voted = true */\n      0x0100\n      exp\n      dup2\n      sload\n      dup2\n      0xff\n      mul\n      not\n      and\n      swap1\n      dup4\n      iszero\n      iszero\n      mul\n      or\n      swap1\n      sstore\n      pop\n        /* \"contracts/LunchVenue_updated.sol\":3315:3328  Vote memory v */\n      tag_84\n      tag_85\n      jump\t// in\n    tag_84:\n        /* \"contracts/LunchVenue_updated.sol\":3363:3373  msg.sender */\n      caller\n        /* \"contracts/LunchVenue_updated.sol\":3346:3347  v */\n      dup2\n        /* \"contracts/LunchVenue_updated.sol\":3346:3360  v.voterAddress */\n      0x00\n      add\n        /* \"contracts/LunchVenue_updated.sol\":3346:3373  v.voterAddress = msg.sender */\n      swap1\n      0xffffffffffffffffffffffffffffffffffffffff\n      and\n      swap1\n      dup2\n      0xffffffffffffffffffffffffffffffffffffffff\n      and\n      dup2\n      mstore\n      pop\n      pop\n        /* \"contracts/LunchVenue_updated.sol\":3406:3416  restaurant */\n      dup3\n        /* \"contracts/LunchVenue_updated.sol\":3391:3392  v */\n      dup2\n        /* \"contracts/LunchVenue_updated.sol\":3391:3403  v.restaurant */\n      0x20\n      add\n        /* \"contracts/LunchVenue_updated.sol\":3391:3416  v.restaurant = restaurant */\n      dup2\n      dup2\n      mstore\n      pop\n      pop\n        /* \"contracts/LunchVenue_updated.sol\":3434:3442  numVotes */\n      0x04\n      0x00\n        /* \"contracts/LunchVenue_updated.sol\":3434:3444  numVotes++ */\n      dup2\n      sload\n      dup1\n      swap3\n      swap2\n      swap1\n      tag_86\n      swap1\n      tag_87\n      jump\t// in\n    tag_86:\n      swap2\n      swap1\n      pop\n      sstore\n      pop\n        /* \"contracts/LunchVenue_updated.sol\":3480:3481  v */\n      dup1\n        /* \"contracts/LunchVenue_updated.sol\":3462:3467  votes */\n      0x07\n        /* \"contracts/LunchVenue_updated.sol\":3462:3477  votes[numVotes] */\n      0x00\n        /* \"contracts/LunchVenue_updated.sol\":3468:3476  numVotes */\n      sload(0x04)\n        /* \"contracts/LunchVenue_updated.sol\":3462:3477  votes[numVotes] */\n      dup2\n      mstore\n      0x20\n      add\n      swap1\n      dup2\n      mstore\n      0x20\n      add\n      0x00\n      keccak256\n        /* \"contracts/LunchVenue_updated.sol\":3462:3481  votes[numVotes] = v */\n      0x00\n      dup3\n      add\n      mload\n      dup2\n      0x00\n      add\n      exp(0x0100, 0x00)\n      dup2\n      sload\n      dup2\n      0xffffffffffffffffffffffffffffffffffffffff\n      mul\n      not\n      and\n      swap1\n      dup4\n      0xffffffffffffffffffffffffffffffffffffffff\n      and\n      mul\n      or\n      swap1\n      sstore\n      pop\n      0x20\n      dup3\n      add\n      mload\n      dup2\n      0x01\n      add\n      sstore\n      swap1\n      pop\n      pop\n        /* \"contracts/LunchVenue_updated.sol\":3186:3496  {   //Does restaurant exist?... */\n      pop\n        /* \"contracts/LunchVenue_updated.sol\":3138:3496  if (bytes(restaurants[restaurant]).length != 0) {   //Does restaurant exist?... */\n    tag_83:\n        /* \"contracts/LunchVenue_updated.sol\":3053:3506  if (bytes(friends[msg.sender].name).length != 0) {  //Does friend exist?... */\n    tag_81:\n        /* \"contracts/LunchVenue_updated.sol\":3555:3556  1 */\n      0x01\n        /* \"contracts/LunchVenue_updated.sol\":3551:3552  2 */\n      0x02\n        /* \"contracts/LunchVenue_updated.sol\":3540:3550  numFriends */\n      sload(0x03)\n        /* \"contracts/LunchVenue_updated.sol\":3540:3552  numFriends/2 */\n      tag_88\n      swap2\n      swap1\n      tag_89\n      jump\t// in\n    tag_88:\n        /* \"contracts/LunchVenue_updated.sol\":3540:3556  numFriends/2 + 1 */\n      tag_90\n      swap2\n      swap1\n      tag_91\n      jump\t// in\n    tag_90:\n        /* \"contracts/LunchVenue_updated.sol\":3528:3536  numVotes */\n      sload(0x04)\n        /* \"contracts/LunchVenue_updated.sol\":3528:3556  numVotes >= numFriends/2 + 1 */\n      lt\n        /* \"contracts/LunchVenue_updated.sol\":3524:3612  if (numVotes >= numFriends/2 + 1) { //Quorum is met... */\n      tag_92\n      jumpi\n        /* \"contracts/LunchVenue_updated.sol\":3588:3601  finalResult() */\n      tag_93\n        /* \"contracts/LunchVenue_updated.sol\":3588:3599  finalResult */\n      tag_94\n        /* \"contracts/LunchVenue_updated.sol\":3588:3601  finalResult() */\n      jump\t// in\n    tag_93:\n        /* \"contracts/LunchVenue_updated.sol\":3524:3612  if (numVotes >= numFriends/2 + 1) { //Quorum is met... */\n    tag_92:\n        /* \"contracts/LunchVenue_updated.sol\":2887:3644  function doVote(uint restaurant) public votingOpen returns (bool validVote){... */\n      swap2\n      swap1\n      pop\n      jump\t// out\n        /* \"contracts/LunchVenue_updated.sol\":453:494  mapping(address => Friend) public friends */\n    tag_27:\n      mstore(0x20, 0x01)\n      dup1\n      0x00\n      mstore\n      keccak256(0x00, 0x40)\n      0x00\n      swap2\n      pop\n      swap1\n      pop\n      dup1\n      0x00\n      add\n      dup1\n      sload\n      tag_95\n      swap1\n      tag_80\n      jump\t// in\n    tag_95:\n      dup1\n      0x1f\n      add\n      0x20\n      dup1\n      swap2\n      div\n      mul\n      0x20\n      add\n      mload(0x40)\n      swap1\n      dup2\n      add\n      0x40\n      mstore\n      dup1\n      swap3\n      swap2\n      swap1\n      dup2\n      dup2\n      mstore\n      0x20\n      add\n      dup3\n      dup1\n      sload\n      tag_96\n      swap1\n      tag_80\n      jump\t// in\n    tag_96:\n      dup1\n      iszero\n      tag_97\n      jumpi\n      dup1\n      0x1f\n      lt\n      tag_98\n      jumpi\n      0x0100\n      dup1\n      dup4\n      sload\n      div\n      mul\n      dup4\n      mstore\n      swap2\n      0x20\n      add\n      swap2\n      jump(tag_97)\n    tag_98:\n      dup3\n      add\n      swap2\n      swap1\n      0x00\n      mstore\n      keccak256(0x00, 0x20)\n      swap1\n    tag_99:\n      dup2\n      sload\n      dup2\n      mstore\n      swap1\n      0x01\n      add\n      swap1\n      0x20\n      add\n      dup1\n      dup4\n      gt\n      tag_99\n      jumpi\n      dup3\n      swap1\n      sub\n      0x1f\n      and\n      dup3\n      add\n      swap2\n    tag_97:\n      pop\n      pop\n      pop\n      pop\n      pop\n      swap1\n      dup1\n      0x01\n      add\n      0x00\n      swap1\n      sload\n      swap1\n      0x0100\n      exp\n      swap1\n      div\n      0xff\n      and\n      swap1\n      pop\n      dup3\n      jump\t// out\n        /* \"contracts/LunchVenue_updated.sol\":1869:2128  function addFriend(address friendAddress, string memory name) public restricted returns (uint){... */\n    tag_33:\n        /* \"contracts/LunchVenue_updated.sol\":1958:1962  uint */\n      0x00\n        /* \"contracts/LunchVenue_updated.sol\":4687:4694  manager */\n      0x05\n      0x00\n      swap1\n      sload\n      swap1\n      0x0100\n      exp\n      swap1\n      div\n      0xffffffffffffffffffffffffffffffffffffffff\n      and\n        /* \"contracts/LunchVenue_updated.sol\":4673:4694  msg.sender == manager */\n      0xffffffffffffffffffffffffffffffffffffffff\n      and\n        /* \"contracts/LunchVenue_updated.sol\":4673:4683  msg.sender */\n      caller\n        /* \"contracts/LunchVenue_updated.sol\":4673:4694  msg.sender == manager */\n      0xffffffffffffffffffffffffffffffffffffffff\n      and\n      eq\n        /* \"contracts/LunchVenue_updated.sol\":4664:4734  require (msg.sender == manager, \"Can only be executed by the manager\") */\n      tag_101\n      jumpi\n      mload(0x40)\n      0x08c379a000000000000000000000000000000000000000000000000000000000\n      dup2\n      mstore\n      0x04\n      add\n      tag_102\n      swap1\n      tag_103\n      jump\t// in\n    tag_102:\n      mload(0x40)\n      dup1\n      swap2\n      sub\n      swap1\n      revert\n    tag_101:\n        /* \"contracts/LunchVenue_updated.sol\":1973:1988  Friend memory f */\n      tag_105\n      tag_106\n      jump\t// in\n    tag_105:\n        /* \"contracts/LunchVenue_updated.sol\":2007:2011  name */\n      dup3\n        /* \"contracts/LunchVenue_updated.sol\":1998:1999  f */\n      dup2\n        /* \"contracts/LunchVenue_updated.sol\":1998:2004  f.name */\n      0x00\n      add\n        /* \"contracts/LunchVenue_updated.sol\":1998:2011  f.name = name */\n      dup2\n      swap1\n      mstore\n      pop\n        /* \"contracts/LunchVenue_updated.sol\":2031:2036  false */\n      0x00\n        /* \"contracts/LunchVenue_updated.sol\":2021:2022  f */\n      dup2\n        /* \"contracts/LunchVenue_updated.sol\":2021:2028  f.voted */\n      0x20\n      add\n        /* \"contracts/LunchVenue_updated.sol\":2021:2036  f.voted = false */\n      swap1\n      iszero\n      iszero\n      swap1\n      dup2\n      iszero\n      iszero\n      dup2\n      mstore\n      pop\n      pop\n        /* \"contracts/LunchVenue_updated.sol\":2071:2072  f */\n      dup1\n        /* \"contracts/LunchVenue_updated.sol\":2046:2053  friends */\n      0x01\n        /* \"contracts/LunchVenue_updated.sol\":2046:2068  friends[friendAddress] */\n      0x00\n        /* \"contracts/LunchVenue_updated.sol\":2054:2067  friendAddress */\n      dup7\n        /* \"contracts/LunchVenue_updated.sol\":2046:2068  friends[friendAddress] */\n      0xffffffffffffffffffffffffffffffffffffffff\n      and\n      0xffffffffffffffffffffffffffffffffffffffff\n      and\n      dup2\n      mstore\n      0x20\n      add\n      swap1\n      dup2\n      mstore\n      0x20\n      add\n      0x00\n      keccak256\n        /* \"contracts/LunchVenue_updated.sol\":2046:2072  friends[friendAddress] = f */\n      0x00\n      dup3\n      add\n      mload\n      dup2\n      0x00\n      add\n      swap1\n      dup1\n      mload\n      swap1\n      0x20\n      add\n      swap1\n      tag_107\n      swap3\n      swap2\n      swap1\n      tag_108\n      jump\t// in\n    tag_107:\n      pop\n      0x20\n      dup3\n      add\n      mload\n      dup2\n      0x01\n      add\n      exp(0x0100, 0x00)\n      dup2\n      sload\n      dup2\n      0xff\n      mul\n      not\n      and\n      swap1\n      dup4\n      iszero\n      iszero\n      mul\n      or\n      swap1\n      sstore\n      pop\n      swap1\n      pop\n      pop\n        /* \"contracts/LunchVenue_updated.sol\":2082:2092  numFriends */\n      0x03\n      0x00\n        /* \"contracts/LunchVenue_updated.sol\":2082:2094  numFriends++ */\n      dup2\n      sload\n      dup1\n      swap3\n      swap2\n      swap1\n      tag_109\n      swap1\n      tag_87\n      jump\t// in\n    tag_109:\n      swap2\n      swap1\n      pop\n      sstore\n      pop\n        /* \"contracts/LunchVenue_updated.sol\":2111:2121  numFriends */\n      sload(0x03)\n        /* \"contracts/LunchVenue_updated.sol\":2104:2121  return numFriends */\n      swap2\n      pop\n      pop\n        /* \"contracts/LunchVenue_updated.sol\":1869:2128  function addFriend(address friendAddress, string memory name) public restricted returns (uint){... */\n      swap3\n      swap2\n      pop\n      pop\n      jump\t// out\n        /* \"contracts/LunchVenue_updated.sol\":2319:2563  function checkIfAlreadyVoted(address friendAddress) public view returns (bool votedAlready){... */\n    tag_38:\n        /* \"contracts/LunchVenue_updated.sol\":2392:2409  bool votedAlready */\n      0x00\n        /* \"contracts/LunchVenue_updated.sol\":2454:2461  friends */\n      0x01\n        /* \"contracts/LunchVenue_updated.sol\":2454:2476  friends[friendAddress] */\n      0x00\n        /* \"contracts/LunchVenue_updated.sol\":2462:2475  friendAddress */\n      dup4\n        /* \"contracts/LunchVenue_updated.sol\":2454:2476  friends[friendAddress] */\n      0xffffffffffffffffffffffffffffffffffffffff\n      and\n      0xffffffffffffffffffffffffffffffffffffffff\n      and\n      dup2\n      mstore\n      0x20\n      add\n      swap1\n      dup2\n      mstore\n      0x20\n      add\n      0x00\n      keccak256\n        /* \"contracts/LunchVenue_updated.sol\":2454:2482  friends[friendAddress].voted */\n      0x01\n      add\n      0x00\n      swap1\n      sload\n      swap1\n      0x0100\n      exp\n      swap1\n      div\n      0xff\n      and\n        /* \"contracts/LunchVenue_updated.sol\":2450:2528  if (friends[friendAddress].voted) {... */\n      iszero\n      tag_111\n      jumpi\n        /* \"contracts/LunchVenue_updated.sol\":2513:2517  true */\n      0x01\n        /* \"contracts/LunchVenue_updated.sol\":2498:2517  votedAlready = true */\n      swap1\n      pop\n        /* \"contracts/LunchVenue_updated.sol\":2450:2528  if (friends[friendAddress].voted) {... */\n    tag_111:\n        /* \"contracts/LunchVenue_updated.sol\":2319:2563  function checkIfAlreadyVoted(address friendAddress) public view returns (bool votedAlready){... */\n      swap2\n      swap1\n      pop\n      jump\t// out\n        /* \"contracts/LunchVenue_updated.sol\":573:599  uint public numFriends = 0 */\n    tag_41:\n      sload(0x03)\n      dup2\n      jump\t// out\n        /* \"contracts/LunchVenue_updated.sol\":635:657  address public manager */\n    tag_44:\n      0x05\n      0x00\n      swap1\n      sload\n      swap1\n      0x0100\n      exp\n      swap1\n      div\n      0xffffffffffffffffffffffffffffffffffffffff\n      and\n      dup2\n      jump\t// out\n        /* \"contracts/LunchVenue_updated.sol\":773:808  mapping (uint => Vote) public votes */\n    tag_49:\n      mstore(0x20, 0x07)\n      dup1\n      0x00\n      mstore\n      keccak256(0x00, 0x40)\n      0x00\n      swap2\n      pop\n      swap1\n      pop\n      dup1\n      0x00\n      add\n      0x00\n      swap1\n      sload\n      swap1\n      0x0100\n      exp\n      swap1\n      div\n      0xffffffffffffffffffffffffffffffffffffffff\n      and\n      swap1\n      dup1\n      0x01\n      add\n      sload\n      swap1\n      pop\n      dup3\n      jump\t// out\n        /* \"contracts/LunchVenue_updated.sol\":1408:1591  function addRestaurant(string memory name) public restricted returns (uint){... */\n    tag_55:\n        /* \"contracts/LunchVenue_updated.sol\":1478:1482  uint */\n      0x00\n        /* \"contracts/LunchVenue_updated.sol\":4687:4694  manager */\n      0x05\n      0x00\n      swap1\n      sload\n      swap1\n      0x0100\n      exp\n      swap1\n      div\n      0xffffffffffffffffffffffffffffffffffffffff\n      and\n        /* \"contracts/LunchVenue_updated.sol\":4673:4694  msg.sender == manager */\n      0xffffffffffffffffffffffffffffffffffffffff\n      and\n        /* \"contracts/LunchVenue_updated.sol\":4673:4683  msg.sender */\n      caller\n        /* \"contracts/LunchVenue_updated.sol\":4673:4694  msg.sender == manager */\n      0xffffffffffffffffffffffffffffffffffffffff\n      and\n      eq\n        /* \"contracts/LunchVenue_updated.sol\":4664:4734  require (msg.sender == manager, \"Can only be executed by the manager\") */\n      tag_113\n      jumpi\n      mload(0x40)\n      0x08c379a000000000000000000000000000000000000000000000000000000000\n      dup2\n      mstore\n      0x04\n      add\n      tag_114\n      swap1\n      tag_103\n      jump\t// in\n    tag_114:\n      mload(0x40)\n      dup1\n      swap2\n      sub\n      swap1\n      revert\n    tag_113:\n        /* \"contracts/LunchVenue_updated.sol\":1493:1507  numRestaurants */\n      0x02\n      0x00\n        /* \"contracts/LunchVenue_updated.sol\":1493:1509  numRestaurants++ */\n      dup2\n      sload\n      dup1\n      swap3\n      swap2\n      swap1\n      tag_116\n      swap1\n      tag_87\n      jump\t// in\n    tag_116:\n      swap2\n      swap1\n      pop\n      sstore\n      pop\n        /* \"contracts/LunchVenue_updated.sol\":1549:1553  name */\n      dup2\n        /* \"contracts/LunchVenue_updated.sol\":1519:1530  restaurants */\n      0x00\n        /* \"contracts/LunchVenue_updated.sol\":1519:1546  restaurants[numRestaurants] */\n      dup1\n        /* \"contracts/LunchVenue_updated.sol\":1531:1545  numRestaurants */\n      sload(0x02)\n        /* \"contracts/LunchVenue_updated.sol\":1519:1546  restaurants[numRestaurants] */\n      dup2\n      mstore\n      0x20\n      add\n      swap1\n      dup2\n      mstore\n      0x20\n      add\n      0x00\n      keccak256\n        /* \"contracts/LunchVenue_updated.sol\":1519:1553  restaurants[numRestaurants] = name */\n      swap1\n      dup1\n      mload\n      swap1\n      0x20\n      add\n      swap1\n      tag_117\n      swap3\n      swap2\n      swap1\n      tag_108\n      jump\t// in\n    tag_117:\n      pop\n        /* \"contracts/LunchVenue_updated.sol\":1570:1584  numRestaurants */\n      sload(0x02)\n        /* \"contracts/LunchVenue_updated.sol\":1563:1584  return numRestaurants */\n      swap1\n      pop\n        /* \"contracts/LunchVenue_updated.sol\":1408:1591  function addRestaurant(string memory name) public restricted returns (uint){... */\n      swap2\n      swap1\n      pop\n      jump\t// out\n        /* \"contracts/LunchVenue_updated.sol\":952:979  bool public voteOpen = true */\n    tag_58:\n      0x09\n      0x00\n      swap1\n      sload\n      swap1\n      0x0100\n      exp\n      swap1\n      div\n      0xff\n      and\n      dup2\n      jump\t// out\n        /* \"contracts/LunchVenue_updated.sol\":605:629  uint public numVotes = 0 */\n    tag_61:\n      sload(0x04)\n      dup2\n      jump\t// out\n        /* \"contracts/LunchVenue_updated.sol\":360:403  mapping (uint => string) public restaurants */\n    tag_65:\n      mstore(0x20, 0x00)\n      dup1\n      0x00\n      mstore\n      keccak256(0x00, 0x40)\n      0x00\n      swap2\n      pop\n      swap1\n      pop\n      dup1\n      sload\n      tag_118\n      swap1\n      tag_80\n      jump\t// in\n    tag_118:\n      dup1\n      0x1f\n      add\n      0x20\n      dup1\n      swap2\n      div\n      mul\n      0x20\n      add\n      mload(0x40)\n      swap1\n      dup2\n      add\n      0x40\n      mstore\n      dup1\n      swap3\n      swap2\n      swap1\n      dup2\n      dup2\n      mstore\n      0x20\n      add\n      dup3\n      dup1\n      sload\n      tag_119\n      swap1\n      tag_80\n      jump\t// in\n    tag_119:\n      dup1\n      iszero\n      tag_120\n      jumpi\n      dup1\n      0x1f\n      lt\n      tag_121\n      jumpi\n      0x0100\n      dup1\n      dup4\n      sload\n      div\n      mul\n      dup4\n      mstore\n      swap2\n      0x20\n      add\n      swap2\n      jump(tag_120)\n    tag_121:\n      dup3\n      add\n      swap2\n      swap1\n      0x00\n      mstore\n      keccak256(0x00, 0x20)\n      swap1\n    tag_122:\n      dup2\n      sload\n      dup2\n      mstore\n      swap1\n      0x01\n      add\n      swap1\n      0x20\n      add\n      dup1\n      dup4\n      gt\n      tag_122\n      jumpi\n      dup3\n      swap1\n      sub\n      0x1f\n      and\n      dup3\n      add\n      swap2\n    tag_120:\n      pop\n      pop\n      pop\n      pop\n      pop\n      dup2\n      jump\t// out\n        /* \"contracts/LunchVenue_updated.sol\":537:567  uint public numRestaurants = 0 */\n    tag_69:\n      sload(0x02)\n      dup2\n      jump\t// out\n        /* \"contracts/LunchVenue_updated.sol\":702:736  string public votedRestaurant = \"\" */\n    tag_72:\n      0x06\n      dup1\n      sload\n      tag_123\n      swap1\n      tag_80\n      jump\t// in\n    tag_123:\n      dup1\n      0x1f\n      add\n      0x20\n      dup1\n      swap2\n      div\n      mul\n      0x20\n      add\n      mload(0x40)\n      swap1\n      dup2\n      add\n      0x40\n      mstore\n      dup1\n      swap3\n      swap2\n      swap1\n      dup2\n      dup2\n      mstore\n      0x20\n      add\n      dup3\n      dup1\n      sload\n      tag_124\n      swap1\n      tag_80\n      jump\t// in\n    tag_124:\n      dup1\n      iszero\n      tag_125\n      jumpi\n      dup1\n      0x1f\n      lt\n      tag_126\n      jumpi\n      0x0100\n      dup1\n      dup4\n      sload\n      div\n      mul\n      dup4\n      mstore\n      swap2\n      0x20\n      add\n      swap2\n      jump(tag_125)\n    tag_126:\n      dup3\n      add\n      swap2\n      swap1\n      0x00\n      mstore\n      keccak256(0x00, 0x20)\n      swap1\n    tag_127:\n      dup2\n      sload\n      dup2\n      mstore\n      swap1\n      0x01\n      add\n      swap1\n      0x20\n      add\n      dup1\n      dup4\n      gt\n      tag_127\n      jumpi\n      dup3\n      swap1\n      sub\n      0x1f\n      and\n      dup3\n      add\n      swap2\n    tag_125:\n      pop\n      pop\n      pop\n      pop\n      pop\n      dup2\n      jump\t// out\n        /* \"contracts/LunchVenue_updated.sol\":3798:4566  function finalResult() private{... */\n    tag_94:\n        /* \"contracts/LunchVenue_updated.sol\":3838:3855  uint highestVotes */\n      0x00\n        /* \"contracts/LunchVenue_updated.sol\":3869:3891  uint highestRestaurant */\n      dup1\n        /* \"contracts/LunchVenue_updated.sol\":3919:3925  uint i */\n      0x00\n        /* \"contracts/LunchVenue_updated.sol\":3928:3929  1 */\n      0x01\n        /* \"contracts/LunchVenue_updated.sol\":3919:3929  uint i = 1 */\n      swap1\n      pop\n        /* \"contracts/LunchVenue_updated.sol\":3914:4397  for (uint i = 1; i <= numVotes; i++){   //For each vote... */\n    tag_129:\n        /* \"contracts/LunchVenue_updated.sol\":3936:3944  numVotes */\n      sload(0x04)\n        /* \"contracts/LunchVenue_updated.sol\":3931:3932  i */\n      dup2\n        /* \"contracts/LunchVenue_updated.sol\":3931:3944  i <= numVotes */\n      gt\n        /* \"contracts/LunchVenue_updated.sol\":3914:4397  for (uint i = 1; i <= numVotes; i++){   //For each vote... */\n      tag_130\n      jumpi\n        /* \"contracts/LunchVenue_updated.sol\":3982:3996  uint voteCount */\n      0x00\n        /* \"contracts/LunchVenue_updated.sol\":3999:4000  1 */\n      0x01\n        /* \"contracts/LunchVenue_updated.sol\":3982:4000  uint voteCount = 1 */\n      swap1\n      pop\n        /* \"contracts/LunchVenue_updated.sol\":4049:4050  0 */\n      0x00\n        /* \"contracts/LunchVenue_updated.sol\":4017:4025  _results */\n      0x08\n        /* \"contracts/LunchVenue_updated.sol\":4017:4046  _results[votes[i].restaurant] */\n      0x00\n        /* \"contracts/LunchVenue_updated.sol\":4026:4031  votes */\n      0x07\n        /* \"contracts/LunchVenue_updated.sol\":4026:4034  votes[i] */\n      0x00\n        /* \"contracts/LunchVenue_updated.sol\":4032:4033  i */\n      dup7\n        /* \"contracts/LunchVenue_updated.sol\":4026:4034  votes[i] */\n      dup2\n      mstore\n      0x20\n      add\n      swap1\n      dup2\n      mstore\n      0x20\n      add\n      0x00\n      keccak256\n        /* \"contracts/LunchVenue_updated.sol\":4026:4045  votes[i].restaurant */\n      0x01\n      add\n      sload\n        /* \"contracts/LunchVenue_updated.sol\":4017:4046  _results[votes[i].restaurant] */\n      dup2\n      mstore\n      0x20\n      add\n      swap1\n      dup2\n      mstore\n      0x20\n      add\n      0x00\n      keccak256\n      sload\n        /* \"contracts/LunchVenue_updated.sol\":4017:4050  _results[votes[i].restaurant] > 0 */\n      gt\n        /* \"contracts/LunchVenue_updated.sol\":4014:4153  if(_results[votes[i].restaurant] > 0) { // Already start counting... */\n      iszero\n      tag_132\n      jumpi\n        /* \"contracts/LunchVenue_updated.sol\":4109:4117  _results */\n      0x08\n        /* \"contracts/LunchVenue_updated.sol\":4109:4138  _results[votes[i].restaurant] */\n      0x00\n        /* \"contracts/LunchVenue_updated.sol\":4118:4123  votes */\n      0x07\n        /* \"contracts/LunchVenue_updated.sol\":4118:4126  votes[i] */\n      0x00\n        /* \"contracts/LunchVenue_updated.sol\":4124:4125  i */\n      dup6\n        /* \"contracts/LunchVenue_updated.sol\":4118:4126  votes[i] */\n      dup2\n      mstore\n      0x20\n      add\n      swap1\n      dup2\n      mstore\n      0x20\n      add\n      0x00\n      keccak256\n        /* \"contracts/LunchVenue_updated.sol\":4118:4137  votes[i].restaurant */\n      0x01\n      add\n      sload\n        /* \"contracts/LunchVenue_updated.sol\":4109:4138  _results[votes[i].restaurant] */\n      dup2\n      mstore\n      0x20\n      add\n      swap1\n      dup2\n      mstore\n      0x20\n      add\n      0x00\n      keccak256\n      sload\n        /* \"contracts/LunchVenue_updated.sol\":4096:4138  voteCount += _results[votes[i].restaurant] */\n      dup2\n      tag_133\n      swap2\n      swap1\n      tag_91\n      jump\t// in\n    tag_133:\n      swap1\n      pop\n        /* \"contracts/LunchVenue_updated.sol\":4014:4153  if(_results[votes[i].restaurant] > 0) { // Already start counting... */\n    tag_132:\n        /* \"contracts/LunchVenue_updated.sol\":4198:4207  voteCount */\n      dup1\n        /* \"contracts/LunchVenue_updated.sol\":4166:4174  _results */\n      0x08\n        /* \"contracts/LunchVenue_updated.sol\":4166:4195  _results[votes[i].restaurant] */\n      0x00\n        /* \"contracts/LunchVenue_updated.sol\":4175:4180  votes */\n      0x07\n        /* \"contracts/LunchVenue_updated.sol\":4175:4183  votes[i] */\n      0x00\n        /* \"contracts/LunchVenue_updated.sol\":4181:4182  i */\n      dup7\n        /* \"contracts/LunchVenue_updated.sol\":4175:4183  votes[i] */\n      dup2\n      mstore\n      0x20\n      add\n      swap1\n      dup2\n      mstore\n      0x20\n      add\n      0x00\n      keccak256\n        /* \"contracts/LunchVenue_updated.sol\":4175:4194  votes[i].restaurant */\n      0x01\n      add\n      sload\n        /* \"contracts/LunchVenue_updated.sol\":4166:4195  _results[votes[i].restaurant] */\n      dup2\n      mstore\n      0x20\n      add\n      swap1\n      dup2\n      mstore\n      0x20\n      add\n      0x00\n      keccak256\n        /* \"contracts/LunchVenue_updated.sol\":4166:4207  _results[votes[i].restaurant] = voteCount */\n      dup2\n      swap1\n      sstore\n      pop\n        /* \"contracts/LunchVenue_updated.sol\":4246:4258  highestVotes */\n      dup4\n        /* \"contracts/LunchVenue_updated.sol\":4234:4243  voteCount */\n      dup2\n        /* \"contracts/LunchVenue_updated.sol\":4234:4258  voteCount > highestVotes */\n      gt\n        /* \"contracts/LunchVenue_updated.sol\":4230:4387  if (voteCount > highestVotes){ // New winner... */\n      iszero\n      tag_134\n      jumpi\n        /* \"contracts/LunchVenue_updated.sol\":4306:4315  voteCount */\n      dup1\n        /* \"contracts/LunchVenue_updated.sol\":4291:4315  highestVotes = voteCount */\n      swap4\n      pop\n        /* \"contracts/LunchVenue_updated.sol\":4353:4358  votes */\n      0x07\n        /* \"contracts/LunchVenue_updated.sol\":4353:4361  votes[i] */\n      0x00\n        /* \"contracts/LunchVenue_updated.sol\":4359:4360  i */\n      dup4\n        /* \"contracts/LunchVenue_updated.sol\":4353:4361  votes[i] */\n      dup2\n      mstore\n      0x20\n      add\n      swap1\n      dup2\n      mstore\n      0x20\n      add\n      0x00\n      keccak256\n        /* \"contracts/LunchVenue_updated.sol\":4353:4372  votes[i].restaurant */\n      0x01\n      add\n      sload\n        /* \"contracts/LunchVenue_updated.sol\":4333:4372  highestRestaurant = votes[i].restaurant */\n      swap3\n      pop\n        /* \"contracts/LunchVenue_updated.sol\":4230:4387  if (voteCount > highestVotes){ // New winner... */\n    tag_134:\n        /* \"contracts/LunchVenue_updated.sol\":3950:4397  {   //For each vote... */\n      pop\n        /* \"contracts/LunchVenue_updated.sol\":3946:3949  i++ */\n      dup1\n      dup1\n      tag_135\n      swap1\n      tag_87\n      jump\t// in\n    tag_135:\n      swap2\n      pop\n      pop\n        /* \"contracts/LunchVenue_updated.sol\":3914:4397  for (uint i = 1; i <= numVotes; i++){   //For each vote... */\n      jump(tag_129)\n    tag_130:\n      pop\n        /* \"contracts/LunchVenue_updated.sol\":4424:4435  restaurants */\n      0x00\n        /* \"contracts/LunchVenue_updated.sol\":4424:4454  restaurants[highestRestaurant] */\n      dup1\n        /* \"contracts/LunchVenue_updated.sol\":4436:4453  highestRestaurant */\n      dup3\n        /* \"contracts/LunchVenue_updated.sol\":4424:4454  restaurants[highestRestaurant] */\n      dup2\n      mstore\n      0x20\n      add\n      swap1\n      dup2\n      mstore\n      0x20\n      add\n      0x00\n      keccak256\n        /* \"contracts/LunchVenue_updated.sol\":4406:4421  votedRestaurant */\n      0x06\n        /* \"contracts/LunchVenue_updated.sol\":4406:4454  votedRestaurant = restaurants[highestRestaurant] */\n      swap1\n      dup1\n      sload\n      tag_136\n      swap1\n      tag_80\n      jump\t// in\n    tag_136:\n      tag_137\n      swap3\n      swap2\n      swap1\n      tag_138\n      jump\t// in\n    tag_137:\n      pop\n        /* \"contracts/LunchVenue_updated.sol\":4497:4502  false */\n      0x00\n        /* \"contracts/LunchVenue_updated.sol\":4486:4494  voteOpen */\n      0x09\n      0x00\n        /* \"contracts/LunchVenue_updated.sol\":4486:4502  voteOpen = false */\n      0x0100\n      exp\n      dup2\n      sload\n      dup2\n      0xff\n      mul\n      not\n      and\n      swap1\n      dup4\n      iszero\n      iszero\n      mul\n      or\n      swap1\n      sstore\n      pop\n        /* \"contracts/LunchVenue_updated.sol\":3828:4566  {... */\n      pop\n      pop\n        /* \"contracts/LunchVenue_updated.sol\":3798:4566  function finalResult() private{... */\n      jump\t// out\n    tag_85:\n      mload(0x40)\n      dup1\n      0x40\n      add\n      0x40\n      mstore\n      dup1\n      and(0xffffffffffffffffffffffffffffffffffffffff, 0x00)\n      dup2\n      mstore\n      0x20\n      add\n      0x00\n      dup2\n      mstore\n      pop\n      swap1\n      jump\t// out\n    tag_106:\n      mload(0x40)\n      dup1\n      0x40\n      add\n      0x40\n      mstore\n      dup1\n      0x60\n      dup2\n      mstore\n      0x20\n      add\n      iszero(iszero(0x00))\n      dup2\n      mstore\n      pop\n      swap1\n      jump\t// out\n    tag_108:\n      dup3\n      dup1\n      sload\n      tag_139\n      swap1\n      tag_80\n      jump\t// in\n    tag_139:\n      swap1\n      0x00\n      mstore\n      keccak256(0x00, 0x20)\n      swap1\n      0x1f\n      add\n      0x20\n      swap1\n      div\n      dup2\n      add\n      swap3\n      dup3\n      tag_141\n      jumpi\n      0x00\n      dup6\n      sstore\n      jump(tag_140)\n    tag_141:\n      dup3\n      0x1f\n      lt\n      tag_142\n      jumpi\n      dup1\n      mload\n      not(0xff)\n      and\n      dup4\n      dup1\n      add\n      or\n      dup6\n      sstore\n      jump(tag_140)\n    tag_142:\n      dup3\n      dup1\n      add\n      0x01\n      add\n      dup6\n      sstore\n      dup3\n      iszero\n      tag_140\n      jumpi\n      swap2\n      dup3\n      add\n    tag_143:\n      dup3\n      dup2\n      gt\n      iszero\n      tag_144\n      jumpi\n      dup3\n      mload\n      dup3\n      sstore\n      swap2\n      0x20\n      add\n      swap2\n      swap1\n      0x01\n      add\n      swap1\n      jump(tag_143)\n    tag_144:\n    tag_140:\n      pop\n      swap1\n      pop\n      tag_145\n      swap2\n      swap1\n      tag_146\n      jump\t// in\n    tag_145:\n      pop\n      swap1\n      jump\t// out\n    tag_138:\n      dup3\n      dup1\n      sload\n      tag_147\n      swap1\n      tag_80\n      jump\t// in\n    tag_147:\n      swap1\n      0x00\n      mstore\n      keccak256(0x00, 0x20)\n      swap1\n      0x1f\n      add\n      0x20\n      swap1\n      div\n      dup2\n      add\n      swap3\n      dup3\n      tag_149\n      jumpi\n      0x00\n      dup6\n      sstore\n      jump(tag_148)\n    tag_149:\n      dup3\n      0x1f\n      lt\n      tag_150\n      jumpi\n      dup1\n      sload\n      dup6\n      sstore\n      jump(tag_148)\n    tag_150:\n      dup3\n      dup1\n      add\n      0x01\n      add\n      dup6\n      sstore\n      dup3\n      iszero\n      tag_148\n      jumpi\n      0x00\n      mstore\n      keccak256(0x00, 0x20)\n      swap2\n      0x1f\n      add\n      0x20\n      swap1\n      div\n      dup3\n      add\n    tag_151:\n      dup3\n      dup2\n      gt\n      iszero\n      tag_152\n      jumpi\n      dup3\n      sload\n      dup3\n      sstore\n      swap2\n      0x01\n      add\n      swap2\n      swap1\n      0x01\n      add\n      swap1\n      jump(tag_151)\n    tag_152:\n    tag_148:\n      pop\n      swap1\n      pop\n      tag_153\n      swap2\n      swap1\n      tag_146\n      jump\t// in\n    tag_153:\n      pop\n      swap1\n      jump\t// out\n    tag_146:\n    tag_154:\n      dup1\n      dup3\n      gt\n      iszero\n      tag_155\n      jumpi\n      0x00\n      dup2\n      0x00\n      swap1\n      sstore\n      pop\n      0x01\n      add\n      jump(tag_154)\n    tag_155:\n      pop\n      swap1\n      jump\t// out\n        /* \"#utility.yul\":7:419   */\n    tag_157:\n        /* \"#utility.yul\":85:90   */\n      0x00\n        /* \"#utility.yul\":110:176   */\n      tag_159\n        /* \"#utility.yul\":126:175   */\n      tag_160\n        /* \"#utility.yul\":168:174   */\n      dup5\n        /* \"#utility.yul\":126:175   */\n      tag_161\n      jump\t// in\n    tag_160:\n        /* \"#utility.yul\":110:176   */\n      tag_162\n      jump\t// in\n    tag_159:\n        /* \"#utility.yul\":101:176   */\n      swap1\n      pop\n        /* \"#utility.yul\":199:205   */\n      dup3\n        /* \"#utility.yul\":192:197   */\n      dup2\n        /* \"#utility.yul\":185:206   */\n      mstore\n        /* \"#utility.yul\":237:241   */\n      0x20\n        /* \"#utility.yul\":230:235   */\n      dup2\n        /* \"#utility.yul\":226:242   */\n      add\n        /* \"#utility.yul\":275:278   */\n      dup5\n        /* \"#utility.yul\":266:272   */\n      dup5\n        /* \"#utility.yul\":261:264   */\n      dup5\n        /* \"#utility.yul\":257:273   */\n      add\n        /* \"#utility.yul\":254:279   */\n      gt\n        /* \"#utility.yul\":251:253   */\n      iszero\n      tag_163\n      jumpi\n        /* \"#utility.yul\":282:361   */\n      tag_164\n      tag_165\n      jump\t// in\n    tag_164:\n        /* \"#utility.yul\":251:253   */\n    tag_163:\n        /* \"#utility.yul\":372:413   */\n      tag_166\n        /* \"#utility.yul\":406:412   */\n      dup5\n        /* \"#utility.yul\":401:404   */\n      dup3\n        /* \"#utility.yul\":396:399   */\n      dup6\n        /* \"#utility.yul\":372:413   */\n      tag_167\n      jump\t// in\n    tag_166:\n        /* \"#utility.yul\":91:419   */\n      pop\n      swap4\n      swap3\n      pop\n      pop\n      pop\n      jump\t// out\n        /* \"#utility.yul\":425:564   */\n    tag_168:\n        /* \"#utility.yul\":471:476   */\n      0x00\n        /* \"#utility.yul\":509:515   */\n      dup2\n        /* \"#utility.yul\":496:516   */\n      calldataload\n        /* \"#utility.yul\":487:516   */\n      swap1\n      pop\n        /* \"#utility.yul\":525:558   */\n      tag_170\n        /* \"#utility.yul\":552:557   */\n      dup2\n        /* \"#utility.yul\":525:558   */\n      tag_171\n      jump\t// in\n    tag_170:\n        /* \"#utility.yul\":477:564   */\n      swap3\n      swap2\n      pop\n      pop\n      jump\t// out\n        /* \"#utility.yul\":584:924   */\n    tag_172:\n        /* \"#utility.yul\":640:645   */\n      0x00\n        /* \"#utility.yul\":689:692   */\n      dup3\n        /* \"#utility.yul\":682:686   */\n      0x1f\n        /* \"#utility.yul\":674:680   */\n      dup4\n        /* \"#utility.yul\":670:687   */\n      add\n        /* \"#utility.yul\":666:693   */\n      slt\n        /* \"#utility.yul\":656:658   */\n      tag_174\n      jumpi\n        /* \"#utility.yul\":697:776   */\n      tag_175\n      tag_176\n      jump\t// in\n    tag_175:\n        /* \"#utility.yul\":656:658   */\n    tag_174:\n        /* \"#utility.yul\":814:820   */\n      dup2\n        /* \"#utility.yul\":801:821   */\n      calldataload\n        /* \"#utility.yul\":839:918   */\n      tag_177\n        /* \"#utility.yul\":914:917   */\n      dup5\n        /* \"#utility.yul\":906:912   */\n      dup3\n        /* \"#utility.yul\":899:903   */\n      0x20\n        /* \"#utility.yul\":891:897   */\n      dup7\n        /* \"#utility.yul\":887:904   */\n      add\n        /* \"#utility.yul\":839:918   */\n      tag_157\n      jump\t// in\n    tag_177:\n        /* \"#utility.yul\":830:918   */\n      swap2\n      pop\n        /* \"#utility.yul\":646:924   */\n      pop\n      swap3\n      swap2\n      pop\n      pop\n      jump\t// out\n        /* \"#utility.yul\":930:1069   */\n    tag_178:\n        /* \"#utility.yul\":976:981   */\n      0x00\n        /* \"#utility.yul\":1014:1020   */\n      dup2\n        /* \"#utility.yul\":1001:1021   */\n      calldataload\n        /* \"#utility.yul\":992:1021   */\n      swap1\n      pop\n        /* \"#utility.yul\":1030:1063   */\n      tag_180\n        /* \"#utility.yul\":1057:1062   */\n      dup2\n        /* \"#utility.yul\":1030:1063   */\n      tag_181\n      jump\t// in\n    tag_180:\n        /* \"#utility.yul\":982:1069   */\n      swap3\n      swap2\n      pop\n      pop\n      jump\t// out\n        /* \"#utility.yul\":1075:1404   */\n    tag_26:\n        /* \"#utility.yul\":1134:1140   */\n      0x00\n        /* \"#utility.yul\":1183:1185   */\n      0x20\n        /* \"#utility.yul\":1171:1180   */\n      dup3\n        /* \"#utility.yul\":1162:1169   */\n      dup5\n        /* \"#utility.yul\":1158:1181   */\n      sub\n        /* \"#utility.yul\":1154:1186   */\n      slt\n        /* \"#utility.yul\":1151:1153   */\n      iszero\n      tag_183\n      jumpi\n        /* \"#utility.yul\":1189:1268   */\n      tag_184\n      tag_185\n      jump\t// in\n    tag_184:\n        /* \"#utility.yul\":1151:1153   */\n    tag_183:\n        /* \"#utility.yul\":1309:1310   */\n      0x00\n        /* \"#utility.yul\":1334:1387   */\n      tag_186\n        /* \"#utility.yul\":1379:1386   */\n      dup5\n        /* \"#utility.yul\":1370:1376   */\n      dup3\n        /* \"#utility.yul\":1359:1368   */\n      dup6\n        /* \"#utility.yul\":1355:1377   */\n      add\n        /* \"#utility.yul\":1334:1387   */\n      tag_168\n      jump\t// in\n    tag_186:\n        /* \"#utility.yul\":1324:1387   */\n      swap2\n      pop\n        /* \"#utility.yul\":1280:1397   */\n      pop\n        /* \"#utility.yul\":1141:1404   */\n      swap3\n      swap2\n      pop\n      pop\n      jump\t// out\n        /* \"#utility.yul\":1410:2064   */\n    tag_32:\n        /* \"#utility.yul\":1488:1494   */\n      0x00\n        /* \"#utility.yul\":1496:1502   */\n      dup1\n        /* \"#utility.yul\":1545:1547   */\n      0x40\n        /* \"#utility.yul\":1533:1542   */\n      dup4\n        /* \"#utility.yul\":1524:1531   */\n      dup6\n        /* \"#utility.yul\":1520:1543   */\n      sub\n        /* \"#utility.yul\":1516:1548   */\n      slt\n        /* \"#utility.yul\":1513:1515   */\n      iszero\n      tag_188\n      jumpi\n        /* \"#utility.yul\":1551:1630   */\n      tag_189\n      tag_185\n      jump\t// in\n    tag_189:\n        /* \"#utility.yul\":1513:1515   */\n    tag_188:\n        /* \"#utility.yul\":1671:1672   */\n      0x00\n        /* \"#utility.yul\":1696:1749   */\n      tag_190\n        /* \"#utility.yul\":1741:1748   */\n      dup6\n        /* \"#utility.yul\":1732:1738   */\n      dup3\n        /* \"#utility.yul\":1721:1730   */\n      dup7\n        /* \"#utility.yul\":1717:1739   */\n      add\n        /* \"#utility.yul\":1696:1749   */\n      tag_168\n      jump\t// in\n    tag_190:\n        /* \"#utility.yul\":1686:1749   */\n      swap3\n      pop\n        /* \"#utility.yul\":1642:1759   */\n      pop\n        /* \"#utility.yul\":1826:1828   */\n      0x20\n        /* \"#utility.yul\":1815:1824   */\n      dup4\n        /* \"#utility.yul\":1811:1829   */\n      add\n        /* \"#utility.yul\":1798:1830   */\n      calldataload\n        /* \"#utility.yul\":1857:1875   */\n      0xffffffffffffffff\n        /* \"#utility.yul\":1849:1855   */\n      dup2\n        /* \"#utility.yul\":1846:1876   */\n      gt\n        /* \"#utility.yul\":1843:1845   */\n      iszero\n      tag_191\n      jumpi\n        /* \"#utility.yul\":1879:1958   */\n      tag_192\n      tag_193\n      jump\t// in\n    tag_192:\n        /* \"#utility.yul\":1843:1845   */\n    tag_191:\n        /* \"#utility.yul\":1984:2047   */\n      tag_194\n        /* \"#utility.yul\":2039:2046   */\n      dup6\n        /* \"#utility.yul\":2030:2036   */\n      dup3\n        /* \"#utility.yul\":2019:2028   */\n      dup7\n        /* \"#utility.yul\":2015:2037   */\n      add\n        /* \"#utility.yul\":1984:2047   */\n      tag_172\n      jump\t// in\n    tag_194:\n        /* \"#utility.yul\":1974:2047   */\n      swap2\n      pop\n        /* \"#utility.yul\":1769:2057   */\n      pop\n        /* \"#utility.yul\":1503:2064   */\n      swap3\n      pop\n      swap3\n      swap1\n      pop\n      jump\t// out\n        /* \"#utility.yul\":2070:2579   */\n    tag_54:\n        /* \"#utility.yul\":2139:2145   */\n      0x00\n        /* \"#utility.yul\":2188:2190   */\n      0x20\n        /* \"#utility.yul\":2176:2185   */\n      dup3\n        /* \"#utility.yul\":2167:2174   */\n      dup5\n        /* \"#utility.yul\":2163:2186   */\n      sub\n        /* \"#utility.yul\":2159:2191   */\n      slt\n        /* \"#utility.yul\":2156:2158   */\n      iszero\n      tag_196\n      jumpi\n        /* \"#utility.yul\":2194:2273   */\n      tag_197\n      tag_185\n      jump\t// in\n    tag_197:\n        /* \"#utility.yul\":2156:2158   */\n    tag_196:\n        /* \"#utility.yul\":2342:2343   */\n      0x00\n        /* \"#utility.yul\":2331:2340   */\n      dup3\n        /* \"#utility.yul\":2327:2344   */\n      add\n        /* \"#utility.yul\":2314:2345   */\n      calldataload\n        /* \"#utility.yul\":2372:2390   */\n      0xffffffffffffffff\n        /* \"#utility.yul\":2364:2370   */\n      dup2\n        /* \"#utility.yul\":2361:2391   */\n      gt\n        /* \"#utility.yul\":2358:2360   */\n      iszero\n      tag_198\n      jumpi\n        /* \"#utility.yul\":2394:2473   */\n      tag_199\n      tag_193\n      jump\t// in\n    tag_199:\n        /* \"#utility.yul\":2358:2360   */\n    tag_198:\n        /* \"#utility.yul\":2499:2562   */\n      tag_200\n        /* \"#utility.yul\":2554:2561   */\n      dup5\n        /* \"#utility.yul\":2545:2551   */\n      dup3\n        /* \"#utility.yul\":2534:2543   */\n      dup6\n        /* \"#utility.yul\":2530:2552   */\n      add\n        /* \"#utility.yul\":2499:2562   */\n      tag_172\n      jump\t// in\n    tag_200:\n        /* \"#utility.yul\":2489:2562   */\n      swap2\n      pop\n        /* \"#utility.yul\":2285:2572   */\n      pop\n        /* \"#utility.yul\":2146:2579   */\n      swap3\n      swap2\n      pop\n      pop\n      jump\t// out\n        /* \"#utility.yul\":2585:2914   */\n    tag_20:\n        /* \"#utility.yul\":2644:2650   */\n      0x00\n        /* \"#utility.yul\":2693:2695   */\n      0x20\n        /* \"#utility.yul\":2681:2690   */\n      dup3\n        /* \"#utility.yul\":2672:2679   */\n      dup5\n        /* \"#utility.yul\":2668:2691   */\n      sub\n        /* \"#utility.yul\":2664:2696   */\n      slt\n        /* \"#utility.yul\":2661:2663   */\n      iszero\n      tag_202\n      jumpi\n        /* \"#utility.yul\":2699:2778   */\n      tag_203\n      tag_185\n      jump\t// in\n    tag_203:\n        /* \"#utility.yul\":2661:2663   */\n    tag_202:\n        /* \"#utility.yul\":2819:2820   */\n      0x00\n        /* \"#utility.yul\":2844:2897   */\n      tag_204\n        /* \"#utility.yul\":2889:2896   */\n      dup5\n        /* \"#utility.yul\":2880:2886   */\n      dup3\n        /* \"#utility.yul\":2869:2878   */\n      dup6\n        /* \"#utility.yul\":2865:2887   */\n      add\n        /* \"#utility.yul\":2844:2897   */\n      tag_178\n      jump\t// in\n    tag_204:\n        /* \"#utility.yul\":2834:2897   */\n      swap2\n      pop\n        /* \"#utility.yul\":2790:2907   */\n      pop\n        /* \"#utility.yul\":2651:2914   */\n      swap3\n      swap2\n      pop\n      pop\n      jump\t// out\n        /* \"#utility.yul\":2920:3038   */\n    tag_205:\n        /* \"#utility.yul\":3007:3031   */\n      tag_207\n        /* \"#utility.yul\":3025:3030   */\n      dup2\n        /* \"#utility.yul\":3007:3031   */\n      tag_208\n      jump\t// in\n    tag_207:\n        /* \"#utility.yul\":3002:3005   */\n      dup3\n        /* \"#utility.yul\":2995:3032   */\n      mstore\n        /* \"#utility.yul\":2985:3038   */\n      pop\n      pop\n      jump\t// out\n        /* \"#utility.yul\":3044:3153   */\n    tag_209:\n        /* \"#utility.yul\":3125:3146   */\n      tag_211\n        /* \"#utility.yul\":3140:3145   */\n      dup2\n        /* \"#utility.yul\":3125:3146   */\n      tag_212\n      jump\t// in\n    tag_211:\n        /* \"#utility.yul\":3120:3123   */\n      dup3\n        /* \"#utility.yul\":3113:3147   */\n      mstore\n        /* \"#utility.yul\":3103:3153   */\n      pop\n      pop\n      jump\t// out\n        /* \"#utility.yul\":3159:3523   */\n    tag_213:\n        /* \"#utility.yul\":3247:3250   */\n      0x00\n        /* \"#utility.yul\":3275:3314   */\n      tag_215\n        /* \"#utility.yul\":3308:3313   */\n      dup3\n        /* \"#utility.yul\":3275:3314   */\n      tag_216\n      jump\t// in\n    tag_215:\n        /* \"#utility.yul\":3330:3401   */\n      tag_217\n        /* \"#utility.yul\":3394:3400   */\n      dup2\n        /* \"#utility.yul\":3389:3392   */\n      dup6\n        /* \"#utility.yul\":3330:3401   */\n      tag_218\n      jump\t// in\n    tag_217:\n        /* \"#utility.yul\":3323:3401   */\n      swap4\n      pop\n        /* \"#utility.yul\":3410:3462   */\n      tag_219\n        /* \"#utility.yul\":3455:3461   */\n      dup2\n        /* \"#utility.yul\":3450:3453   */\n      dup6\n        /* \"#utility.yul\":3443:3447   */\n      0x20\n        /* \"#utility.yul\":3436:3441   */\n      dup7\n        /* \"#utility.yul\":3432:3448   */\n      add\n        /* \"#utility.yul\":3410:3462   */\n      tag_220\n      jump\t// in\n    tag_219:\n        /* \"#utility.yul\":3487:3516   */\n      tag_221\n        /* \"#utility.yul\":3509:3515   */\n      dup2\n        /* \"#utility.yul\":3487:3516   */\n      tag_222\n      jump\t// in\n    tag_221:\n        /* \"#utility.yul\":3482:3485   */\n      dup5\n        /* \"#utility.yul\":3478:3517   */\n      add\n        /* \"#utility.yul\":3471:3517   */\n      swap2\n      pop\n        /* \"#utility.yul\":3251:3523   */\n      pop\n      swap3\n      swap2\n      pop\n      pop\n      jump\t// out\n        /* \"#utility.yul\":3529:3895   */\n    tag_223:\n        /* \"#utility.yul\":3671:3674   */\n      0x00\n        /* \"#utility.yul\":3692:3759   */\n      tag_225\n        /* \"#utility.yul\":3756:3758   */\n      0x23\n        /* \"#utility.yul\":3751:3754   */\n      dup4\n        /* \"#utility.yul\":3692:3759   */\n      tag_218\n      jump\t// in\n    tag_225:\n        /* \"#utility.yul\":3685:3759   */\n      swap2\n      pop\n        /* \"#utility.yul\":3768:3861   */\n      tag_226\n        /* \"#utility.yul\":3857:3860   */\n      dup3\n        /* \"#utility.yul\":3768:3861   */\n      tag_227\n      jump\t// in\n    tag_226:\n        /* \"#utility.yul\":3886:3888   */\n      0x40\n        /* \"#utility.yul\":3881:3884   */\n      dup3\n        /* \"#utility.yul\":3877:3889   */\n      add\n        /* \"#utility.yul\":3870:3889   */\n      swap1\n      pop\n        /* \"#utility.yul\":3675:3895   */\n      swap2\n      swap1\n      pop\n      jump\t// out\n        /* \"#utility.yul\":3901:4267   */\n    tag_228:\n        /* \"#utility.yul\":4043:4046   */\n      0x00\n        /* \"#utility.yul\":4064:4131   */\n      tag_230\n        /* \"#utility.yul\":4128:4130   */\n      0x23\n        /* \"#utility.yul\":4123:4126   */\n      dup4\n        /* \"#utility.yul\":4064:4131   */\n      tag_218\n      jump\t// in\n    tag_230:\n        /* \"#utility.yul\":4057:4131   */\n      swap2\n      pop\n        /* \"#utility.yul\":4140:4233   */\n      tag_231\n        /* \"#utility.yul\":4229:4232   */\n      dup3\n        /* \"#utility.yul\":4140:4233   */\n      tag_232\n      jump\t// in\n    tag_231:\n        /* \"#utility.yul\":4258:4260   */\n      0x40\n        /* \"#utility.yul\":4253:4256   */\n      dup3\n        /* \"#utility.yul\":4249:4261   */\n      add\n        /* \"#utility.yul\":4242:4261   */\n      swap1\n      pop\n        /* \"#utility.yul\":4047:4267   */\n      swap2\n      swap1\n      pop\n      jump\t// out\n        /* \"#utility.yul\":4273:4391   */\n    tag_233:\n        /* \"#utility.yul\":4360:4384   */\n      tag_235\n        /* \"#utility.yul\":4378:4383   */\n      dup2\n        /* \"#utility.yul\":4360:4384   */\n      tag_236\n      jump\t// in\n    tag_235:\n        /* \"#utility.yul\":4355:4358   */\n      dup3\n        /* \"#utility.yul\":4348:4385   */\n      mstore\n        /* \"#utility.yul\":4338:4391   */\n      pop\n      pop\n      jump\t// out\n        /* \"#utility.yul\":4397:4619   */\n    tag_46:\n        /* \"#utility.yul\":4490:4494   */\n      0x00\n        /* \"#utility.yul\":4528:4530   */\n      0x20\n        /* \"#utility.yul\":4517:4526   */\n      dup3\n        /* \"#utility.yul\":4513:4531   */\n      add\n        /* \"#utility.yul\":4505:4531   */\n      swap1\n      pop\n        /* \"#utility.yul\":4541:4612   */\n      tag_238\n        /* \"#utility.yul\":4609:4610   */\n      0x00\n        /* \"#utility.yul\":4598:4607   */\n      dup4\n        /* \"#utility.yul\":4594:4611   */\n      add\n        /* \"#utility.yul\":4585:4591   */\n      dup5\n        /* \"#utility.yul\":4541:4612   */\n      tag_205\n      jump\t// in\n    tag_238:\n        /* \"#utility.yul\":4495:4619   */\n      swap3\n      swap2\n      pop\n      pop\n      jump\t// out\n        /* \"#utility.yul\":4625:4957   */\n    tag_51:\n        /* \"#utility.yul\":4746:4750   */\n      0x00\n        /* \"#utility.yul\":4784:4786   */\n      0x40\n        /* \"#utility.yul\":4773:4782   */\n      dup3\n        /* \"#utility.yul\":4769:4787   */\n      add\n        /* \"#utility.yul\":4761:4787   */\n      swap1\n      pop\n        /* \"#utility.yul\":4797:4868   */\n      tag_240\n        /* \"#utility.yul\":4865:4866   */\n      0x00\n        /* \"#utility.yul\":4854:4863   */\n      dup4\n        /* \"#utility.yul\":4850:4867   */\n      add\n        /* \"#utility.yul\":4841:4847   */\n      dup6\n        /* \"#utility.yul\":4797:4868   */\n      tag_205\n      jump\t// in\n    tag_240:\n        /* \"#utility.yul\":4878:4950   */\n      tag_241\n        /* \"#utility.yul\":4946:4948   */\n      0x20\n        /* \"#utility.yul\":4935:4944   */\n      dup4\n        /* \"#utility.yul\":4931:4949   */\n      add\n        /* \"#utility.yul\":4922:4928   */\n      dup5\n        /* \"#utility.yul\":4878:4950   */\n      tag_233\n      jump\t// in\n    tag_241:\n        /* \"#utility.yul\":4751:4957   */\n      swap4\n      swap3\n      pop\n      pop\n      pop\n      jump\t// out\n        /* \"#utility.yul\":4963:5173   */\n    tag_23:\n        /* \"#utility.yul\":5050:5054   */\n      0x00\n        /* \"#utility.yul\":5088:5090   */\n      0x20\n        /* \"#utility.yul\":5077:5086   */\n      dup3\n        /* \"#utility.yul\":5073:5091   */\n      add\n        /* \"#utility.yul\":5065:5091   */\n      swap1\n      pop\n        /* \"#utility.yul\":5101:5166   */\n      tag_243\n        /* \"#utility.yul\":5163:5164   */\n      0x00\n        /* \"#utility.yul\":5152:5161   */\n      dup4\n        /* \"#utility.yul\":5148:5165   */\n      add\n        /* \"#utility.yul\":5139:5145   */\n      dup5\n        /* \"#utility.yul\":5101:5166   */\n      tag_209\n      jump\t// in\n    tag_243:\n        /* \"#utility.yul\":5055:5173   */\n      swap3\n      swap2\n      pop\n      pop\n      jump\t// out\n        /* \"#utility.yul\":5179:5492   */\n    tag_67:\n        /* \"#utility.yul\":5292:5296   */\n      0x00\n        /* \"#utility.yul\":5330:5332   */\n      0x20\n        /* \"#utility.yul\":5319:5328   */\n      dup3\n        /* \"#utility.yul\":5315:5333   */\n      add\n        /* \"#utility.yul\":5307:5333   */\n      swap1\n      pop\n        /* \"#utility.yul\":5379:5388   */\n      dup2\n        /* \"#utility.yul\":5373:5377   */\n      dup2\n        /* \"#utility.yul\":5369:5389   */\n      sub\n        /* \"#utility.yul\":5365:5366   */\n      0x00\n        /* \"#utility.yul\":5354:5363   */\n      dup4\n        /* \"#utility.yul\":5350:5367   */\n      add\n        /* \"#utility.yul\":5343:5390   */\n      mstore\n        /* \"#utility.yul\":5407:5485   */\n      tag_245\n        /* \"#utility.yul\":5480:5484   */\n      dup2\n        /* \"#utility.yul\":5471:5477   */\n      dup5\n        /* \"#utility.yul\":5407:5485   */\n      tag_213\n      jump\t// in\n    tag_245:\n        /* \"#utility.yul\":5399:5485   */\n      swap1\n      pop\n        /* \"#utility.yul\":5297:5492   */\n      swap3\n      swap2\n      pop\n      pop\n      jump\t// out\n        /* \"#utility.yul\":5498:5909   */\n    tag_29:\n        /* \"#utility.yul\":5633:5637   */\n      0x00\n        /* \"#utility.yul\":5671:5673   */\n      0x40\n        /* \"#utility.yul\":5660:5669   */\n      dup3\n        /* \"#utility.yul\":5656:5674   */\n      add\n        /* \"#utility.yul\":5648:5674   */\n      swap1\n      pop\n        /* \"#utility.yul\":5720:5729   */\n      dup2\n        /* \"#utility.yul\":5714:5718   */\n      dup2\n        /* \"#utility.yul\":5710:5730   */\n      sub\n        /* \"#utility.yul\":5706:5707   */\n      0x00\n        /* \"#utility.yul\":5695:5704   */\n      dup4\n        /* \"#utility.yul\":5691:5708   */\n      add\n        /* \"#utility.yul\":5684:5731   */\n      mstore\n        /* \"#utility.yul\":5748:5826   */\n      tag_247\n        /* \"#utility.yul\":5821:5825   */\n      dup2\n        /* \"#utility.yul\":5812:5818   */\n      dup6\n        /* \"#utility.yul\":5748:5826   */\n      tag_213\n      jump\t// in\n    tag_247:\n        /* \"#utility.yul\":5740:5826   */\n      swap1\n      pop\n        /* \"#utility.yul\":5836:5902   */\n      tag_248\n        /* \"#utility.yul\":5898:5900   */\n      0x20\n        /* \"#utility.yul\":5887:5896   */\n      dup4\n        /* \"#utility.yul\":5883:5901   */\n      add\n        /* \"#utility.yul\":5874:5880   */\n      dup5\n        /* \"#utility.yul\":5836:5902   */\n      tag_209\n      jump\t// in\n    tag_248:\n        /* \"#utility.yul\":5638:5909   */\n      swap4\n      swap3\n      pop\n      pop\n      pop\n      jump\t// out\n        /* \"#utility.yul\":5915:6334   */\n    tag_103:\n        /* \"#utility.yul\":6081:6085   */\n      0x00\n        /* \"#utility.yul\":6119:6121   */\n      0x20\n        /* \"#utility.yul\":6108:6117   */\n      dup3\n        /* \"#utility.yul\":6104:6122   */\n      add\n        /* \"#utility.yul\":6096:6122   */\n      swap1\n      pop\n        /* \"#utility.yul\":6168:6177   */\n      dup2\n        /* \"#utility.yul\":6162:6166   */\n      dup2\n        /* \"#utility.yul\":6158:6178   */\n      sub\n        /* \"#utility.yul\":6154:6155   */\n      0x00\n        /* \"#utility.yul\":6143:6152   */\n      dup4\n        /* \"#utility.yul\":6139:6156   */\n      add\n        /* \"#utility.yul\":6132:6179   */\n      mstore\n        /* \"#utility.yul\":6196:6327   */\n      tag_250\n        /* \"#utility.yul\":6322:6326   */\n      dup2\n        /* \"#utility.yul\":6196:6327   */\n      tag_223\n      jump\t// in\n    tag_250:\n        /* \"#utility.yul\":6188:6327   */\n      swap1\n      pop\n        /* \"#utility.yul\":6086:6334   */\n      swap2\n      swap1\n      pop\n      jump\t// out\n        /* \"#utility.yul\":6340:6759   */\n    tag_77:\n        /* \"#utility.yul\":6506:6510   */\n      0x00\n        /* \"#utility.yul\":6544:6546   */\n      0x20\n        /* \"#utility.yul\":6533:6542   */\n      dup3\n        /* \"#utility.yul\":6529:6547   */\n      add\n        /* \"#utility.yul\":6521:6547   */\n      swap1\n      pop\n        /* \"#utility.yul\":6593:6602   */\n      dup2\n        /* \"#utility.yul\":6587:6591   */\n      dup2\n        /* \"#utility.yul\":6583:6603   */\n      sub\n        /* \"#utility.yul\":6579:6580   */\n      0x00\n        /* \"#utility.yul\":6568:6577   */\n      dup4\n        /* \"#utility.yul\":6564:6581   */\n      add\n        /* \"#utility.yul\":6557:6604   */\n      mstore\n        /* \"#utility.yul\":6621:6752   */\n      tag_252\n        /* \"#utility.yul\":6747:6751   */\n      dup2\n        /* \"#utility.yul\":6621:6752   */\n      tag_228\n      jump\t// in\n    tag_252:\n        /* \"#utility.yul\":6613:6752   */\n      swap1\n      pop\n        /* \"#utility.yul\":6511:6759   */\n      swap2\n      swap1\n      pop\n      jump\t// out\n        /* \"#utility.yul\":6765:6987   */\n    tag_35:\n        /* \"#utility.yul\":6858:6862   */\n      0x00\n        /* \"#utility.yul\":6896:6898   */\n      0x20\n        /* \"#utility.yul\":6885:6894   */\n      dup3\n        /* \"#utility.yul\":6881:6899   */\n      add\n        /* \"#utility.yul\":6873:6899   */\n      swap1\n      pop\n        /* \"#utility.yul\":6909:6980   */\n      tag_254\n        /* \"#utility.yul\":6977:6978   */\n      0x00\n        /* \"#utility.yul\":6966:6975   */\n      dup4\n        /* \"#utility.yul\":6962:6979   */\n      add\n        /* \"#utility.yul\":6953:6959   */\n      dup5\n        /* \"#utility.yul\":6909:6980   */\n      tag_233\n      jump\t// in\n    tag_254:\n        /* \"#utility.yul\":6863:6987   */\n      swap3\n      swap2\n      pop\n      pop\n      jump\t// out\n        /* \"#utility.yul\":6993:7122   */\n    tag_162:\n        /* \"#utility.yul\":7027:7033   */\n      0x00\n        /* \"#utility.yul\":7054:7074   */\n      tag_256\n      tag_257\n      jump\t// in\n    tag_256:\n        /* \"#utility.yul\":7044:7074   */\n      swap1\n      pop\n        /* \"#utility.yul\":7083:7116   */\n      tag_258\n        /* \"#utility.yul\":7111:7115   */\n      dup3\n        /* \"#utility.yul\":7103:7109   */\n      dup3\n        /* \"#utility.yul\":7083:7116   */\n      tag_259\n      jump\t// in\n    tag_258:\n        /* \"#utility.yul\":7034:7122   */\n      swap2\n      swap1\n      pop\n      jump\t// out\n        /* \"#utility.yul\":7128:7203   */\n    tag_257:\n        /* \"#utility.yul\":7161:7167   */\n      0x00\n        /* \"#utility.yul\":7194:7196   */\n      0x40\n        /* \"#utility.yul\":7188:7197   */\n      mload\n        /* \"#utility.yul\":7178:7197   */\n      swap1\n      pop\n        /* \"#utility.yul\":7168:7203   */\n      swap1\n      jump\t// out\n        /* \"#utility.yul\":7209:7517   */\n    tag_161:\n        /* \"#utility.yul\":7271:7275   */\n      0x00\n        /* \"#utility.yul\":7361:7379   */\n      0xffffffffffffffff\n        /* \"#utility.yul\":7353:7359   */\n      dup3\n        /* \"#utility.yul\":7350:7380   */\n      gt\n        /* \"#utility.yul\":7347:7349   */\n      iszero\n      tag_262\n      jumpi\n        /* \"#utility.yul\":7383:7401   */\n      tag_263\n      tag_264\n      jump\t// in\n    tag_263:\n        /* \"#utility.yul\":7347:7349   */\n    tag_262:\n        /* \"#utility.yul\":7421:7450   */\n      tag_265\n        /* \"#utility.yul\":7443:7449   */\n      dup3\n        /* \"#utility.yul\":7421:7450   */\n      tag_222\n      jump\t// in\n    tag_265:\n        /* \"#utility.yul\":7413:7450   */\n      swap1\n      pop\n        /* \"#utility.yul\":7505:7509   */\n      0x20\n        /* \"#utility.yul\":7499:7503   */\n      dup2\n        /* \"#utility.yul\":7495:7510   */\n      add\n        /* \"#utility.yul\":7487:7510   */\n      swap1\n      pop\n        /* \"#utility.yul\":7276:7517   */\n      swap2\n      swap1\n      pop\n      jump\t// out\n        /* \"#utility.yul\":7523:7622   */\n    tag_216:\n        /* \"#utility.yul\":7575:7581   */\n      0x00\n        /* \"#utility.yul\":7609:7614   */\n      dup2\n        /* \"#utility.yul\":7603:7615   */\n      mload\n        /* \"#utility.yul\":7593:7615   */\n      swap1\n      pop\n        /* \"#utility.yul\":7582:7622   */\n      swap2\n      swap1\n      pop\n      jump\t// out\n        /* \"#utility.yul\":7628:7797   */\n    tag_218:\n        /* \"#utility.yul\":7712:7723   */\n      0x00\n        /* \"#utility.yul\":7746:7752   */\n      dup3\n        /* \"#utility.yul\":7741:7744   */\n      dup3\n        /* \"#utility.yul\":7734:7753   */\n      mstore\n        /* \"#utility.yul\":7786:7790   */\n      0x20\n        /* \"#utility.yul\":7781:7784   */\n      dup3\n        /* \"#utility.yul\":7777:7791   */\n      add\n        /* \"#utility.yul\":7762:7791   */\n      swap1\n      pop\n        /* \"#utility.yul\":7724:7797   */\n      swap3\n      swap2\n      pop\n      pop\n      jump\t// out\n        /* \"#utility.yul\":7803:8108   */\n    tag_91:\n        /* \"#utility.yul\":7843:7846   */\n      0x00\n        /* \"#utility.yul\":7862:7882   */\n      tag_269\n        /* \"#utility.yul\":7880:7881   */\n      dup3\n        /* \"#utility.yul\":7862:7882   */\n      tag_236\n      jump\t// in\n    tag_269:\n        /* \"#utility.yul\":7857:7882   */\n      swap2\n      pop\n        /* \"#utility.yul\":7896:7916   */\n      tag_270\n        /* \"#utility.yul\":7914:7915   */\n      dup4\n        /* \"#utility.yul\":7896:7916   */\n      tag_236\n      jump\t// in\n    tag_270:\n        /* \"#utility.yul\":7891:7916   */\n      swap3\n      pop\n        /* \"#utility.yul\":8050:8051   */\n      dup3\n        /* \"#utility.yul\":7982:8048   */\n      0xffffffffffffffffffffffffffffffffffffffffffffffffffffffffffffffff\n        /* \"#utility.yul\":7978:8052   */\n      sub\n        /* \"#utility.yul\":7975:7976   */\n      dup3\n        /* \"#utility.yul\":7972:8053   */\n      gt\n        /* \"#utility.yul\":7969:7971   */\n      iszero\n      tag_271\n      jumpi\n        /* \"#utility.yul\":8056:8074   */\n      tag_272\n      tag_273\n      jump\t// in\n    tag_272:\n        /* \"#utility.yul\":7969:7971   */\n    tag_271:\n        /* \"#utility.yul\":8100:8101   */\n      dup3\n        /* \"#utility.yul\":8097:8098   */\n      dup3\n        /* \"#utility.yul\":8093:8102   */\n      add\n        /* \"#utility.yul\":8086:8102   */\n      swap1\n      pop\n        /* \"#utility.yul\":7847:8108   */\n      swap3\n      swap2\n      pop\n      pop\n      jump\t// out\n        /* \"#utility.yul\":8114:8299   */\n    tag_89:\n        /* \"#utility.yul\":8154:8155   */\n      0x00\n        /* \"#utility.yul\":8171:8191   */\n      tag_275\n        /* \"#utility.yul\":8189:8190   */\n      dup3\n        /* \"#utility.yul\":8171:8191   */\n      tag_236\n      jump\t// in\n    tag_275:\n        /* \"#utility.yul\":8166:8191   */\n      swap2\n      pop\n        /* \"#utility.yul\":8205:8225   */\n      tag_276\n        /* \"#utility.yul\":8223:8224   */\n      dup4\n        /* \"#utility.yul\":8205:8225   */\n      tag_236\n      jump\t// in\n    tag_276:\n        /* \"#utility.yul\":8200:8225   */\n      swap3\n      pop\n        /* \"#utility.yul\":8244:8245   */\n      dup3\n        /* \"#utility.yul\":8234:8236   */\n      tag_277\n      jumpi\n        /* \"#utility.yul\":8249:8267   */\n      tag_278\n      tag_279\n      jump\t// in\n    tag_278:\n        /* \"#utility.yul\":8234:8236   */\n    tag_277:\n        /* \"#utility.yul\":8291:8292   */\n      dup3\n        /* \"#utility.yul\":8288:8289   */\n      dup3\n        /* \"#utility.yul\":8284:8293   */\n      div\n        /* \"#utility.yul\":8279:8293   */\n      swap1\n      pop\n        /* \"#utility.yul\":8156:8299   */\n      swap3\n      swap2\n      pop\n      pop\n      jump\t// out\n        /* \"#utility.yul\":8305:8401   */\n    tag_208:\n        /* \"#utility.yul\":8342:8349   */\n      0x00\n        /* \"#utility.yul\":8371:8395   */\n      tag_281\n        /* \"#utility.yul\":8389:8394   */\n      dup3\n        /* \"#utility.yul\":8371:8395   */\n      tag_282\n      jump\t// in\n    tag_281:\n        /* \"#utility.yul\":8360:8395   */\n      swap1\n      pop\n        /* \"#utility.yul\":8350:8401   */\n      swap2\n      swap1\n      pop\n      jump\t// out\n        /* \"#utility.yul\":8407:8497   */\n    tag_212:\n        /* \"#utility.yul\":8441:8448   */\n      0x00\n        /* \"#utility.yul\":8484:8489   */\n      dup2\n        /* \"#utility.yul\":8477:8490   */\n      iszero\n        /* \"#utility.yul\":8470:8491   */\n      iszero\n        /* \"#utility.yul\":8459:8491   */\n      swap1\n      pop\n        /* \"#utility.yul\":8449:8497   */\n      swap2\n      swap1\n      pop\n      jump\t// out\n        /* \"#utility.yul\":8503:8629   */\n    tag_282:\n        /* \"#utility.yul\":8540:8547   */\n      0x00\n        /* \"#utility.yul\":8580:8622   */\n      0xffffffffffffffffffffffffffffffffffffffff\n        /* \"#utility.yul\":8573:8578   */\n      dup3\n        /* \"#utility.yul\":8569:8623   */\n      and\n        /* \"#utility.yul\":8558:8623   */\n      swap1\n      pop\n        /* \"#utility.yul\":8548:8629   */\n      swap2\n      swap1\n      pop\n      jump\t// out\n        /* \"#utility.yul\":8635:8712   */\n    tag_236:\n        /* \"#utility.yul\":8672:8679   */\n      0x00\n        /* \"#utility.yul\":8701:8706   */\n      dup2\n        /* \"#utility.yul\":8690:8706   */\n      swap1\n      pop\n        /* \"#utility.yul\":8680:8712   */\n      swap2\n      swap1\n      pop\n      jump\t// out\n        /* \"#utility.yul\":8718:8872   */\n    tag_167:\n        /* \"#utility.yul\":8802:8808   */\n      dup3\n        /* \"#utility.yul\":8797:8800   */\n      dup2\n        /* \"#utility.yul\":8792:8795   */\n      dup4\n        /* \"#utility.yul\":8779:8809   */\n      calldatacopy\n        /* \"#utility.yul\":8864:8865   */\n      0x00\n        /* \"#utility.yul\":8855:8861   */\n      dup4\n        /* \"#utility.yul\":8850:8853   */\n      dup4\n        /* \"#utility.yul\":8846:8862   */\n      add\n        /* \"#utility.yul\":8839:8866   */\n      mstore\n        /* \"#utility.yul\":8769:8872   */\n      pop\n      pop\n      pop\n      jump\t// out\n        /* \"#utility.yul\":8878:9185   */\n    tag_220:\n        /* \"#utility.yul\":8946:8947   */\n      0x00\n        /* \"#utility.yul\":8956:9069   */\n    tag_288:\n        /* \"#utility.yul\":8970:8976   */\n      dup4\n        /* \"#utility.yul\":8967:8968   */\n      dup2\n        /* \"#utility.yul\":8964:8977   */\n      lt\n        /* \"#utility.yul\":8956:9069   */\n      iszero\n      tag_290\n      jumpi\n        /* \"#utility.yul\":9055:9056   */\n      dup1\n        /* \"#utility.yul\":9050:9053   */\n      dup3\n        /* \"#utility.yul\":9046:9057   */\n      add\n        /* \"#utility.yul\":9040:9058   */\n      mload\n        /* \"#utility.yul\":9036:9037   */\n      dup2\n        /* \"#utility.yul\":9031:9034   */\n      dup5\n        /* \"#utility.yul\":9027:9038   */\n      add\n        /* \"#utility.yul\":9020:9059   */\n      mstore\n        /* \"#utility.yul\":8992:8994   */\n      0x20\n        /* \"#utility.yul\":8989:8990   */\n      dup2\n        /* \"#utility.yul\":8985:8995   */\n      add\n        /* \"#utility.yul\":8980:8995   */\n      swap1\n      pop\n        /* \"#utility.yul\":8956:9069   */\n      jump(tag_288)\n    tag_290:\n        /* \"#utility.yul\":9087:9093   */\n      dup4\n        /* \"#utility.yul\":9084:9085   */\n      dup2\n        /* \"#utility.yul\":9081:9094   */\n      gt\n        /* \"#utility.yul\":9078:9080   */\n      iszero\n      tag_291\n      jumpi\n        /* \"#utility.yul\":9167:9168   */\n      0x00\n        /* \"#utility.yul\":9158:9164   */\n      dup5\n        /* \"#utility.yul\":9153:9156   */\n      dup5\n        /* \"#utility.yul\":9149:9165   */\n      add\n        /* \"#utility.yul\":9142:9169   */\n      mstore\n        /* \"#utility.yul\":9078:9080   */\n    tag_291:\n        /* \"#utility.yul\":8927:9185   */\n      pop\n      pop\n      pop\n      pop\n      jump\t// out\n        /* \"#utility.yul\":9191:9511   */\n    tag_80:\n        /* \"#utility.yul\":9235:9241   */\n      0x00\n        /* \"#utility.yul\":9272:9273   */\n      0x02\n        /* \"#utility.yul\":9266:9270   */\n      dup3\n        /* \"#utility.yul\":9262:9274   */\n      div\n        /* \"#utility.yul\":9252:9274   */\n      swap1\n      pop\n        /* \"#utility.yul\":9319:9320   */\n      0x01\n        /* \"#utility.yul\":9313:9317   */\n      dup3\n        /* \"#utility.yul\":9309:9321   */\n      and\n        /* \"#utility.yul\":9340:9358   */\n      dup1\n        /* \"#utility.yul\":9330:9332   */\n      tag_293\n      jumpi\n        /* \"#utility.yul\":9396:9400   */\n      0x7f\n        /* \"#utility.yul\":9388:9394   */\n      dup3\n        /* \"#utility.yul\":9384:9401   */\n      and\n        /* \"#utility.yul\":9374:9401   */\n      swap2\n      pop\n        /* \"#utility.yul\":9330:9332   */\n    tag_293:\n        /* \"#utility.yul\":9458:9460   */\n      0x20\n        /* \"#utility.yul\":9450:9456   */\n      dup3\n        /* \"#utility.yul\":9447:9461   */\n      lt\n        /* \"#utility.yul\":9427:9445   */\n      dup2\n        /* \"#utility.yul\":9424:9462   */\n      eq\n        /* \"#utility.yul\":9421:9423   */\n      iszero\n      tag_294\n      jumpi\n        /* \"#utility.yul\":9477:9495   */\n      tag_295\n      tag_296\n      jump\t// in\n    tag_295:\n        /* \"#utility.yul\":9421:9423   */\n    tag_294:\n        /* \"#utility.yul\":9242:9511   */\n      pop\n      swap2\n      swap1\n      pop\n      jump\t// out\n        /* \"#utility.yul\":9517:9798   */\n    tag_259:\n        /* \"#utility.yul\":9600:9627   */\n      tag_298\n        /* \"#utility.yul\":9622:9626   */\n      dup3\n        /* \"#utility.yul\":9600:9627   */\n      tag_222\n      jump\t// in\n    tag_298:\n        /* \"#utility.yul\":9592:9598   */\n      dup2\n        /* \"#utility.yul\":9588:9628   */\n      add\n        /* \"#utility.yul\":9730:9736   */\n      dup2\n        /* \"#utility.yul\":9718:9728   */\n      dup2\n        /* \"#utility.yul\":9715:9737   */\n      lt\n        /* \"#utility.yul\":9694:9712   */\n      0xffffffffffffffff\n        /* \"#utility.yul\":9682:9692   */\n      dup3\n        /* \"#utility.yul\":9679:9713   */\n      gt\n        /* \"#utility.yul\":9676:9738   */\n      or\n        /* \"#utility.yul\":9673:9675   */\n      iszero\n      tag_299\n      jumpi\n        /* \"#utility.yul\":9741:9759   */\n      tag_300\n      tag_264\n      jump\t// in\n    tag_300:\n        /* \"#utility.yul\":9673:9675   */\n    tag_299:\n        /* \"#utility.yul\":9781:9791   */\n      dup1\n        /* \"#utility.yul\":9777:9779   */\n      0x40\n        /* \"#utility.yul\":9770:9792   */\n      mstore\n        /* \"#utility.yul\":9560:9798   */\n      pop\n      pop\n      pop\n      jump\t// out\n        /* \"#utility.yul\":9804:10037   */\n    tag_87:\n        /* \"#utility.yul\":9843:9846   */\n      0x00\n        /* \"#utility.yul\":9866:9890   */\n      tag_302\n        /* \"#utility.yul\":9884:9889   */\n      dup3\n        /* \"#utility.yul\":9866:9890   */\n      tag_236\n      jump\t// in\n    tag_302:\n        /* \"#utility.yul\":9857:9890   */\n      swap2\n      pop\n        /* \"#utility.yul\":9912:9978   */\n      0xffffffffffffffffffffffffffffffffffffffffffffffffffffffffffffffff\n        /* \"#utility.yul\":9905:9910   */\n      dup3\n        /* \"#utility.yul\":9902:9979   */\n      eq\n        /* \"#utility.yul\":9899:9901   */\n      iszero\n      tag_303\n      jumpi\n        /* \"#utility.yul\":9982:10000   */\n      tag_304\n      tag_273\n      jump\t// in\n    tag_304:\n        /* \"#utility.yul\":9899:9901   */\n    tag_303:\n        /* \"#utility.yul\":10029:10030   */\n      0x01\n        /* \"#utility.yul\":10022:10027   */\n      dup3\n        /* \"#utility.yul\":10018:10031   */\n      add\n        /* \"#utility.yul\":10011:10031   */\n      swap1\n      pop\n        /* \"#utility.yul\":9847:10037   */\n      swap2\n      swap1\n      pop\n      jump\t// out\n        /* \"#utility.yul\":10043:10223   */\n    tag_273:\n        /* \"#utility.yul\":10091:10168   */\n      0x4e487b7100000000000000000000000000000000000000000000000000000000\n        /* \"#utility.yul\":10088:10089   */\n      0x00\n        /* \"#utility.yul\":10081:10169   */\n      mstore\n        /* \"#utility.yul\":10188:10192   */\n      0x11\n        /* \"#utility.yul\":10185:10186   */\n      0x04\n        /* \"#utility.yul\":10178:10193   */\n      mstore\n        /* \"#utility.yul\":10212:10216   */\n      0x24\n        /* \"#utility.yul\":10209:10210   */\n      0x00\n        /* \"#utility.yul\":10202:10217   */\n      revert\n        /* \"#utility.yul\":10229:10409   */\n    tag_279:\n        /* \"#utility.yul\":10277:10354   */\n      0x4e487b7100000000000000000000000000000000000000000000000000000000\n        /* \"#utility.yul\":10274:10275   */\n      0x00\n        /* \"#utility.yul\":10267:10355   */\n      mstore\n        /* \"#utility.yul\":10374:10378   */\n      0x12\n        /* \"#utility.yul\":10371:10372   */\n      0x04\n        /* \"#utility.yul\":10364:10379   */\n      mstore\n        /* \"#utility.yul\":10398:10402   */\n      0x24\n        /* \"#utility.yul\":10395:10396   */\n      0x00\n        /* \"#utility.yul\":10388:10403   */\n      revert\n        /* \"#utility.yul\":10415:10595   */\n    tag_296:\n        /* \"#utility.yul\":10463:10540   */\n      0x4e487b7100000000000000000000000000000000000000000000000000000000\n        /* \"#utility.yul\":10460:10461   */\n      0x00\n        /* \"#utility.yul\":10453:10541   */\n      mstore\n        /* \"#utility.yul\":10560:10564   */\n      0x22\n        /* \"#utility.yul\":10557:10558   */\n      0x04\n        /* \"#utility.yul\":10550:10565   */\n      mstore\n        /* \"#utility.yul\":10584:10588   */\n      0x24\n        /* \"#utility.yul\":10581:10582   */\n      0x00\n        /* \"#utility.yul\":10574:10589   */\n      revert\n        /* \"#utility.yul\":10601:10781   */\n    tag_264:\n        /* \"#utility.yul\":10649:10726   */\n      0x4e487b7100000000000000000000000000000000000000000000000000000000\n        /* \"#utility.yul\":10646:10647   */\n      0x00\n        /* \"#utility.yul\":10639:10727   */\n      mstore\n        /* \"#utility.yul\":10746:10750   */\n      0x41\n        /* \"#utility.yul\":10743:10744   */\n      0x04\n        /* \"#utility.yul\":10736:10751   */\n      mstore\n        /* \"#utility.yul\":10770:10774   */\n      0x24\n        /* \"#utility.yul\":10767:10768   */\n      0x00\n        /* \"#utility.yul\":10760:10775   */\n      revert\n        /* \"#utility.yul\":10787:10904   */\n    tag_176:\n        /* \"#utility.yul\":10896:10897   */\n      0x00\n        /* \"#utility.yul\":10893:10894   */\n      dup1\n        /* \"#utility.yul\":10886:10898   */\n      revert\n        /* \"#utility.yul\":10910:11027   */\n    tag_165:\n        /* \"#utility.yul\":11019:11020   */\n      0x00\n        /* \"#utility.yul\":11016:11017   */\n      dup1\n        /* \"#utility.yul\":11009:11021   */\n      revert\n        /* \"#utility.yul\":11033:11150   */\n    tag_193:\n        /* \"#utility.yul\":11142:11143   */\n      0x00\n        /* \"#utility.yul\":11139:11140   */\n      dup1\n        /* \"#utility.yul\":11132:11144   */\n      revert\n        /* \"#utility.yul\":11156:11273   */\n    tag_185:\n        /* \"#utility.yul\":11265:11266   */\n      0x00\n        /* \"#utility.yul\":11262:11263   */\n      dup1\n        /* \"#utility.yul\":11255:11267   */\n      revert\n        /* \"#utility.yul\":11279:11381   */\n    tag_222:\n        /* \"#utility.yul\":11320:11326   */\n      0x00\n        /* \"#utility.yul\":11371:11373   */\n      0x1f\n        /* \"#utility.yul\":11367:11374   */\n      not\n        /* \"#utility.yul\":11362:11364   */\n      0x1f\n        /* \"#utility.yul\":11355:11360   */\n      dup4\n        /* \"#utility.yul\":11351:11365   */\n      add\n        /* \"#utility.yul\":11347:11375   */\n      and\n        /* \"#utility.yul\":11337:11375   */\n      swap1\n      pop\n        /* \"#utility.yul\":11327:11381   */\n      swap2\n      swap1\n      pop\n      jump\t// out\n        /* \"#utility.yul\":11387:11609   */\n    tag_227:\n        /* \"#utility.yul\":11527:11561   */\n      0x43616e206f6e6c7920626520657865637574656420627920746865206d616e61\n        /* \"#utility.yul\":11523:11524   */\n      0x00\n        /* \"#utility.yul\":11515:11521   */\n      dup3\n        /* \"#utility.yul\":11511:11525   */\n      add\n        /* \"#utility.yul\":11504:11562   */\n      mstore\n        /* \"#utility.yul\":11596:11601   */\n      0x6765720000000000000000000000000000000000000000000000000000000000\n        /* \"#utility.yul\":11591:11593   */\n      0x20\n        /* \"#utility.yul\":11583:11589   */\n      dup3\n        /* \"#utility.yul\":11579:11594   */\n      add\n        /* \"#utility.yul\":11572:11602   */\n      mstore\n        /* \"#utility.yul\":11493:11609   */\n      pop\n      jump\t// out\n        /* \"#utility.yul\":11615:11837   */\n    tag_232:\n        /* \"#utility.yul\":11755:11789   */\n      0x43616e20766f7465206f6e6c79207768696c6520766f74696e67206973206f70\n        /* \"#utility.yul\":11751:11752   */\n      0x00\n        /* \"#utility.yul\":11743:11749   */\n      dup3\n        /* \"#utility.yul\":11739:11753   */\n      add\n        /* \"#utility.yul\":11732:11790   */\n      mstore\n        /* \"#utility.yul\":11824:11829   */\n      0x656e2e0000000000000000000000000000000000000000000000000000000000\n        /* \"#utility.yul\":11819:11821   */\n      0x20\n        /* \"#utility.yul\":11811:11817   */\n      dup3\n        /* \"#utility.yul\":11807:11822   */\n      add\n        /* \"#utility.yul\":11800:11830   */\n      mstore\n        /* \"#utility.yul\":11721:11837   */\n      pop\n      jump\t// out\n        /* \"#utility.yul\":11843:11965   */\n    tag_171:\n        /* \"#utility.yul\":11916:11940   */\n      tag_317\n        /* \"#utility.yul\":11934:11939   */\n      dup2\n        /* \"#utility.yul\":11916:11940   */\n      tag_208\n      jump\t// in\n    tag_317:\n        /* \"#utility.yul\":11909:11914   */\n      dup2\n        /* \"#utility.yul\":11906:11941   */\n      eq\n        /* \"#utility.yul\":11896:11898   */\n      tag_318\n      jumpi\n        /* \"#utility.yul\":11955:11956   */\n      0x00\n        /* \"#utility.yul\":11952:11953   */\n      dup1\n        /* \"#utility.yul\":11945:11957   */\n      revert\n        /* \"#utility.yul\":11896:11898   */\n    tag_318:\n        /* \"#utility.yul\":11886:11965   */\n      pop\n      jump\t// out\n        /* \"#utility.yul\":11971:12093   */\n    tag_181:\n        /* \"#utility.yul\":12044:12068   */\n      tag_320\n        /* \"#utility.yul\":12062:12067   */\n      dup2\n        /* \"#utility.yul\":12044:12068   */\n      tag_236\n      jump\t// in\n    tag_320:\n        /* \"#utility.yul\":12037:12042   */\n      dup2\n        /* \"#utility.yul\":12034:12069   */\n      eq\n        /* \"#utility.yul\":12024:12026   */\n      tag_321\n      jumpi\n        /* \"#utility.yul\":12083:12084   */\n      0x00\n        /* \"#utility.yul\":12080:12081   */\n      dup1\n        /* \"#utility.yul\":12073:12085   */\n      revert\n        /* \"#utility.yul\":12024:12026   */\n    tag_321:\n        /* \"#utility.yul\":12014:12093   */\n      pop\n      jump\t// out\n\n    auxdata: 0xa2646970667358221220100f984c383c3d75e716b8820c3977da27b42e10a3d9c0040d0d3123b125e6b864736f6c63430008050033\n}\n",
				"bytecode": {
					"linkReferences": {},
					"object": "608060405260006002556000600355600060045560405180602001604052806000815250600690805190602001906200003a929190620000ab565b506001600960006101000a81548160ff0219169083151502179055503480156200006357600080fd5b5033600560006101000a81548173ffffffffffffffffffffffffffffffffffffffff021916908373ffffffffffffffffffffffffffffffffffffffff160217905550620001c0565b828054620000b9906200015b565b90600052602060002090601f016020900481019282620000dd576000855562000129565b82601f10620000f857805160ff191683800117855562000129565b8280016001018555821562000129579182015b82811115620001285782518255916020019190600101906200010b565b5b5090506200013891906200013c565b5090565b5b80821115620001575760008160009055506001016200013d565b5090565b600060028204905060018216806200017457607f821691505b602082108114156200018b576200018a62000191565b5b50919050565b7f4e487b7100000000000000000000000000000000000000000000000000000000600052602260045260246000fd5b61143180620001d06000396000f3fe608060405234801561001057600080fd5b50600436106100cf5760003560e01c80635df813301161008c578063a3bef4d711610066578063a3bef4d714610250578063ad5461d81461026e578063b798867f1461029e578063c1c16efc146102bc576100cf565b80635df81330146101d15780636d77bd3e14610202578063788d385114610232576100cf565b8063124258c6146100d45780631ddabf7a146101045780633b9f708d1461013557806346331c3e1461016557806347098f3614610195578063481c6a75146101b3575b600080fd5b6100ee60048036038101906100e99190610e3a565b6102da565b6040516100fb9190610f57565b60405180910390f35b61011e60048036038101906101199190610d68565b610510565b60405161012c929190610f94565b60405180910390f35b61014f600480360381019061014a9190610d95565b6105c9565b60405161015c9190611004565b60405180910390f35b61017f600480360381019061017a9190610d68565b610721565b60405161018c9190610f57565b60405180910390f35b61019d610782565b6040516101aa9190611004565b60405180910390f35b6101bb610788565b6040516101c89190610f13565b60405180910390f35b6101eb60048036038101906101e69190610e3a565b6107ae565b6040516101f9929190610f2e565b60405180910390f35b61021c60048036038101906102179190610df1565b6107f2565b6040516102299190611004565b60405180910390f35b61023a6108cf565b6040516102479190610f57565b60405180910390f35b6102586108e2565b6040516102659190611004565b60405180910390f35b61028860048036038101906102839190610e3a565b6108e8565b6040516102959190610f72565b60405180910390f35b6102a6610988565b6040516102b39190611004565b60405180910390f35b6102c461098e565b6040516102d19190610f72565b60405180910390f35b600060011515600960009054906101000a900460ff16151514610332576040517f08c379a000000000000000000000000000000000000000000000000000000000815260040161032990610fe4565b60405180910390fd5b600090506000600160003373ffffffffffffffffffffffffffffffffffffffff1673ffffffffffffffffffffffffffffffffffffffff1681526020019081526020016000206000018054610385906111a2565b9050146104df57600080600084815260200190815260200160002080546103ab906111a2565b9050146104de576001905060018060003373ffffffffffffffffffffffffffffffffffffffff1673ffffffffffffffffffffffffffffffffffffffff16815260200190815260200160002060010160006101000a81548160ff021916908315150217905550610418610b52565b33816000019073ffffffffffffffffffffffffffffffffffffffff16908173ffffffffffffffffffffffffffffffffffffffff1681525050828160200181815250506004600081548092919061046d90611205565b91905055508060076000600454815260200190815260200160002060008201518160000160006101000a81548173ffffffffffffffffffffffffffffffffffffffff021916908373ffffffffffffffffffffffffffffffffffffffff16021790555060208201518160010155905050505b5b600160026003546104f091906110e7565b6104fa9190611091565b6004541061050b5761050a610a1c565b5b919050565b6001602052806000526040600020600091509050806000018054610533906111a2565b80601f016020809104026020016040519081016040528092919081815260200182805461055f906111a2565b80156105ac5780601f10610581576101008083540402835291602001916105ac565b820191906000526020600020905b81548152906001019060200180831161058f57829003601f168201915b5050505050908060010160009054906101000a900460ff16905082565b6000600560009054906101000a900473ffffffffffffffffffffffffffffffffffffffff1673ffffffffffffffffffffffffffffffffffffffff163373ffffffffffffffffffffffffffffffffffffffff161461065b576040517f08c379a000000000000000000000000000000000000000000000000000000000815260040161065290610fc4565b60405180910390fd5b610663610b82565b828160000181905250600081602001901515908115158152505080600160008673ffffffffffffffffffffffffffffffffffffffff1673ffffffffffffffffffffffffffffffffffffffff16815260200190815260200160002060008201518160000190805190602001906106d9929190610b9e565b5060208201518160010160006101000a81548160ff0219169083151502179055509050506003600081548092919061071090611205565b919050555060035491505092915050565b6000600160008373ffffffffffffffffffffffffffffffffffffffff1673ffffffffffffffffffffffffffffffffffffffff16815260200190815260200160002060010160009054906101000a900460ff161561077d57600190505b919050565b60035481565b600560009054906101000a900473ffffffffffffffffffffffffffffffffffffffff1681565b60076020528060005260406000206000915090508060000160009054906101000a900473ffffffffffffffffffffffffffffffffffffffff16908060010154905082565b6000600560009054906101000a900473ffffffffffffffffffffffffffffffffffffffff1673ffffffffffffffffffffffffffffffffffffffff163373ffffffffffffffffffffffffffffffffffffffff1614610884576040517f08c379a000000000000000000000000000000000000000000000000000000000815260040161087b90610fc4565b60405180910390fd5b6002600081548092919061089790611205565b919050555081600080600254815260200190815260200160002090805190602001906108c4929190610b9e565b506002549050919050565b600960009054906101000a900460ff1681565b60045481565b60006020528060005260406000206000915090508054610907906111a2565b80601f0160208091040260200160405190810160405280929190818152602001828054610933906111a2565b80156109805780601f1061095557610100808354040283529160200191610980565b820191906000526020600020905b81548152906001019060200180831161096357829003601f168201915b505050505081565b60025481565b6006805461099b906111a2565b80601f01602080910402602001604051908101604052809291908181526020018280546109c7906111a2565b8015610a145780601f106109e957610100808354040283529160200191610a14565b820191906000526020600020905b8154815290600101906020018083116109f757829003601f168201915b505050505081565b6000806000600190505b6004548111610b065760006001905060006008600060076000868152602001908152602001600020600101548152602001908152602001600020541115610a9f5760086000600760008581526020019081526020016000206001015481526020019081526020016000205481610a9c9190611091565b90505b8060086000600760008681526020019081526020016000206001015481526020019081526020016000208190555083811115610af257809350600760008381526020019081526020016000206001015492505b508080610afe90611205565b915050610a26565b506000808281526020019081526020016000206006908054610b27906111a2565b610b32929190610c24565b506000600960006101000a81548160ff0219169083151502179055505050565b6040518060400160405280600073ffffffffffffffffffffffffffffffffffffffff168152602001600081525090565b6040518060400160405280606081526020016000151581525090565b828054610baa906111a2565b90600052602060002090601f016020900481019282610bcc5760008555610c13565b82601f10610be557805160ff1916838001178555610c13565b82800160010185558215610c13579182015b82811115610c12578251825591602001919060010190610bf7565b5b509050610c209190610cb1565b5090565b828054610c30906111a2565b90600052602060002090601f016020900481019282610c525760008555610ca0565b82601f10610c635780548555610ca0565b82800160010185558215610ca057600052602060002091601f016020900482015b82811115610c9f578254825591600101919060010190610c84565b5b509050610cad9190610cb1565b5090565b5b80821115610cca576000816000905550600101610cb2565b5090565b6000610ce1610cdc84611044565b61101f565b905082815260208101848484011115610cfd57610cfc61130f565b5b610d08848285611160565b509392505050565b600081359050610d1f816113cd565b92915050565b600082601f830112610d3a57610d3961130a565b5b8135610d4a848260208601610cce565b91505092915050565b600081359050610d62816113e4565b92915050565b600060208284031215610d7e57610d7d611319565b5b6000610d8c84828501610d10565b91505092915050565b60008060408385031215610dac57610dab611319565b5b6000610dba85828601610d10565b925050602083013567ffffffffffffffff811115610ddb57610dda611314565b5b610de785828601610d25565b9150509250929050565b600060208284031215610e0757610e06611319565b5b600082013567ffffffffffffffff811115610e2557610e24611314565b5b610e3184828501610d25565b91505092915050565b600060208284031215610e5057610e4f611319565b5b6000610e5e84828501610d53565b91505092915050565b610e7081611118565b82525050565b610e7f8161112a565b82525050565b6000610e9082611075565b610e9a8185611080565b9350610eaa81856020860161116f565b610eb38161131e565b840191505092915050565b6000610ecb602383611080565b9150610ed68261132f565b604082019050919050565b6000610eee602383611080565b9150610ef98261137e565b604082019050919050565b610f0d81611156565b82525050565b6000602082019050610f286000830184610e67565b92915050565b6000604082019050610f436000830185610e67565b610f506020830184610f04565b9392505050565b6000602082019050610f6c6000830184610e76565b92915050565b60006020820190508181036000830152610f8c8184610e85565b905092915050565b60006040820190508181036000830152610fae8185610e85565b9050610fbd6020830184610e76565b9392505050565b60006020820190508181036000830152610fdd81610ebe565b9050919050565b60006020820190508181036000830152610ffd81610ee1565b9050919050565b60006020820190506110196000830184610f04565b92915050565b600061102961103a565b905061103582826111d4565b919050565b6000604051905090565b600067ffffffffffffffff82111561105f5761105e6112db565b5b6110688261131e565b9050602081019050919050565b600081519050919050565b600082825260208201905092915050565b600061109c82611156565b91506110a783611156565b9250827fffffffffffffffffffffffffffffffffffffffffffffffffffffffffffffffff038211156110dc576110db61124e565b5b828201905092915050565b60006110f282611156565b91506110fd83611156565b92508261110d5761110c61127d565b5b828204905092915050565b600061112382611136565b9050919050565b60008115159050919050565b600073ffffffffffffffffffffffffffffffffffffffff82169050919050565b6000819050919050565b82818337600083830152505050565b60005b8381101561118d578082015181840152602081019050611172565b8381111561119c576000848401525b50505050565b600060028204905060018216806111ba57607f821691505b602082108114156111ce576111cd6112ac565b5b50919050565b6111dd8261131e565b810181811067ffffffffffffffff821117156111fc576111fb6112db565b5b80604052505050565b600061121082611156565b91507fffffffffffffffffffffffffffffffffffffffffffffffffffffffffffffffff8214156112435761124261124e565b5b600182019050919050565b7f4e487b7100000000000000000000000000000000000000000000000000000000600052601160045260246000fd5b7f4e487b7100000000000000000000000000000000000000000000000000000000600052601260045260246000fd5b7f4e487b7100000000000000000000000000000000000000000000000000000000600052602260045260246000fd5b7f4e487b7100000000000000000000000000000000000000000000000000000000600052604160045260246000fd5b600080fd5b600080fd5b600080fd5b600080fd5b6000601f19601f8301169050919050565b7f43616e206f6e6c7920626520657865637574656420627920746865206d616e6160008201527f6765720000000000000000000000000000000000000000000000000000000000602082015250565b7f43616e20766f7465206f6e6c79207768696c6520766f74696e67206973206f7060008201527f656e2e0000000000000000000000000000000000000000000000000000000000602082015250565b6113d681611118565b81146113e157600080fd5b50565b6113ed81611156565b81146113f857600080fd5b5056fea2646970667358221220100f984c383c3d75e716b8820c3977da27b42e10a3d9c0040d0d3123b125e6b864736f6c63430008050033",
					"opcodes": "PUSH1 0x80 PUSH1 0x40 MSTORE PUSH1 0x0 PUSH1 0x2 SSTORE PUSH1 0x0 PUSH1 0x3 SSTORE PUSH1 0x0 PUSH1 0x4 SSTORE PUSH1 0x40 MLOAD DUP1 PUSH1 0x20 ADD PUSH1 0x40 MSTORE DUP1 PUSH1 0x0 DUP2 MSTORE POP PUSH1 0x6 SWAP1 DUP1 MLOAD SWAP1 PUSH1 0x20 ADD SWAP1 PUSH3 0x3A SWAP3 SWAP2 SWAP1 PUSH3 0xAB JUMP JUMPDEST POP PUSH1 0x1 PUSH1 0x9 PUSH1 0x0 PUSH2 0x100 EXP DUP2 SLOAD DUP2 PUSH1 0xFF MUL NOT AND SWAP1 DUP4 ISZERO ISZERO MUL OR SWAP1 SSTORE POP CALLVALUE DUP1 ISZERO PUSH3 0x63 JUMPI PUSH1 0x0 DUP1 REVERT JUMPDEST POP CALLER PUSH1 0x5 PUSH1 0x0 PUSH2 0x100 EXP DUP2 SLOAD DUP2 PUSH20 0xFFFFFFFFFFFFFFFFFFFFFFFFFFFFFFFFFFFFFFFF MUL NOT AND SWAP1 DUP4 PUSH20 0xFFFFFFFFFFFFFFFFFFFFFFFFFFFFFFFFFFFFFFFF AND MUL OR SWAP1 SSTORE POP PUSH3 0x1C0 JUMP JUMPDEST DUP3 DUP1 SLOAD PUSH3 0xB9 SWAP1 PUSH3 0x15B JUMP JUMPDEST SWAP1 PUSH1 0x0 MSTORE PUSH1 0x20 PUSH1 0x0 KECCAK256 SWAP1 PUSH1 0x1F ADD PUSH1 0x20 SWAP1 DIV DUP2 ADD SWAP3 DUP3 PUSH3 0xDD JUMPI PUSH1 0x0 DUP6 SSTORE PUSH3 0x129 JUMP JUMPDEST DUP3 PUSH1 0x1F LT PUSH3 0xF8 JUMPI DUP1 MLOAD PUSH1 0xFF NOT AND DUP4 DUP1 ADD OR DUP6 SSTORE PUSH3 0x129 JUMP JUMPDEST DUP3 DUP1 ADD PUSH1 0x1 ADD DUP6 SSTORE DUP3 ISZERO PUSH3 0x129 JUMPI SWAP2 DUP3 ADD JUMPDEST DUP3 DUP2 GT ISZERO PUSH3 0x128 JUMPI DUP3 MLOAD DUP3 SSTORE SWAP2 PUSH1 0x20 ADD SWAP2 SWAP1 PUSH1 0x1 ADD SWAP1 PUSH3 0x10B JUMP JUMPDEST JUMPDEST POP SWAP1 POP PUSH3 0x138 SWAP2 SWAP1 PUSH3 0x13C JUMP JUMPDEST POP SWAP1 JUMP JUMPDEST JUMPDEST DUP1 DUP3 GT ISZERO PUSH3 0x157 JUMPI PUSH1 0x0 DUP2 PUSH1 0x0 SWAP1 SSTORE POP PUSH1 0x1 ADD PUSH3 0x13D JUMP JUMPDEST POP SWAP1 JUMP JUMPDEST PUSH1 0x0 PUSH1 0x2 DUP3 DIV SWAP1 POP PUSH1 0x1 DUP3 AND DUP1 PUSH3 0x174 JUMPI PUSH1 0x7F DUP3 AND SWAP2 POP JUMPDEST PUSH1 0x20 DUP3 LT DUP2 EQ ISZERO PUSH3 0x18B JUMPI PUSH3 0x18A PUSH3 0x191 JUMP JUMPDEST JUMPDEST POP SWAP2 SWAP1 POP JUMP JUMPDEST PUSH32 0x4E487B7100000000000000000000000000000000000000000000000000000000 PUSH1 0x0 MSTORE PUSH1 0x22 PUSH1 0x4 MSTORE PUSH1 0x24 PUSH1 0x0 REVERT JUMPDEST PUSH2 0x1431 DUP1 PUSH3 0x1D0 PUSH1 0x0 CODECOPY PUSH1 0x0 RETURN INVALID PUSH1 0x80 PUSH1 0x40 MSTORE CALLVALUE DUP1 ISZERO PUSH2 0x10 JUMPI PUSH1 0x0 DUP1 REVERT JUMPDEST POP PUSH1 0x4 CALLDATASIZE LT PUSH2 0xCF JUMPI PUSH1 0x0 CALLDATALOAD PUSH1 0xE0 SHR DUP1 PUSH4 0x5DF81330 GT PUSH2 0x8C JUMPI DUP1 PUSH4 0xA3BEF4D7 GT PUSH2 0x66 JUMPI DUP1 PUSH4 0xA3BEF4D7 EQ PUSH2 0x250 JUMPI DUP1 PUSH4 0xAD5461D8 EQ PUSH2 0x26E JUMPI DUP1 PUSH4 0xB798867F EQ PUSH2 0x29E JUMPI DUP1 PUSH4 0xC1C16EFC EQ PUSH2 0x2BC JUMPI PUSH2 0xCF JUMP JUMPDEST DUP1 PUSH4 0x5DF81330 EQ PUSH2 0x1D1 JUMPI DUP1 PUSH4 0x6D77BD3E EQ PUSH2 0x202 JUMPI DUP1 PUSH4 0x788D3851 EQ PUSH2 0x232 JUMPI PUSH2 0xCF JUMP JUMPDEST DUP1 PUSH4 0x124258C6 EQ PUSH2 0xD4 JUMPI DUP1 PUSH4 0x1DDABF7A EQ PUSH2 0x104 JUMPI DUP1 PUSH4 0x3B9F708D EQ PUSH2 0x135 JUMPI DUP1 PUSH4 0x46331C3E EQ PUSH2 0x165 JUMPI DUP1 PUSH4 0x47098F36 EQ PUSH2 0x195 JUMPI DUP1 PUSH4 0x481C6A75 EQ PUSH2 0x1B3 JUMPI JUMPDEST PUSH1 0x0 DUP1 REVERT JUMPDEST PUSH2 0xEE PUSH1 0x4 DUP1 CALLDATASIZE SUB DUP2 ADD SWAP1 PUSH2 0xE9 SWAP2 SWAP1 PUSH2 0xE3A JUMP JUMPDEST PUSH2 0x2DA JUMP JUMPDEST PUSH1 0x40 MLOAD PUSH2 0xFB SWAP2 SWAP1 PUSH2 0xF57 JUMP JUMPDEST PUSH1 0x40 MLOAD DUP1 SWAP2 SUB SWAP1 RETURN JUMPDEST PUSH2 0x11E PUSH1 0x4 DUP1 CALLDATASIZE SUB DUP2 ADD SWAP1 PUSH2 0x119 SWAP2 SWAP1 PUSH2 0xD68 JUMP JUMPDEST PUSH2 0x510 JUMP JUMPDEST PUSH1 0x40 MLOAD PUSH2 0x12C SWAP3 SWAP2 SWAP1 PUSH2 0xF94 JUMP JUMPDEST PUSH1 0x40 MLOAD DUP1 SWAP2 SUB SWAP1 RETURN JUMPDEST PUSH2 0x14F PUSH1 0x4 DUP1 CALLDATASIZE SUB DUP2 ADD SWAP1 PUSH2 0x14A SWAP2 SWAP1 PUSH2 0xD95 JUMP JUMPDEST PUSH2 0x5C9 JUMP JUMPDEST PUSH1 0x40 MLOAD PUSH2 0x15C SWAP2 SWAP1 PUSH2 0x1004 JUMP JUMPDEST PUSH1 0x40 MLOAD DUP1 SWAP2 SUB SWAP1 RETURN JUMPDEST PUSH2 0x17F PUSH1 0x4 DUP1 CALLDATASIZE SUB DUP2 ADD SWAP1 PUSH2 0x17A SWAP2 SWAP1 PUSH2 0xD68 JUMP JUMPDEST PUSH2 0x721 JUMP JUMPDEST PUSH1 0x40 MLOAD PUSH2 0x18C SWAP2 SWAP1 PUSH2 0xF57 JUMP JUMPDEST PUSH1 0x40 MLOAD DUP1 SWAP2 SUB SWAP1 RETURN JUMPDEST PUSH2 0x19D PUSH2 0x782 JUMP JUMPDEST PUSH1 0x40 MLOAD PUSH2 0x1AA SWAP2 SWAP1 PUSH2 0x1004 JUMP JUMPDEST PUSH1 0x40 MLOAD DUP1 SWAP2 SUB SWAP1 RETURN JUMPDEST PUSH2 0x1BB PUSH2 0x788 JUMP JUMPDEST PUSH1 0x40 MLOAD PUSH2 0x1C8 SWAP2 SWAP1 PUSH2 0xF13 JUMP JUMPDEST PUSH1 0x40 MLOAD DUP1 SWAP2 SUB SWAP1 RETURN JUMPDEST PUSH2 0x1EB PUSH1 0x4 DUP1 CALLDATASIZE SUB DUP2 ADD SWAP1 PUSH2 0x1E6 SWAP2 SWAP1 PUSH2 0xE3A JUMP JUMPDEST PUSH2 0x7AE JUMP JUMPDEST PUSH1 0x40 MLOAD PUSH2 0x1F9 SWAP3 SWAP2 SWAP1 PUSH2 0xF2E JUMP JUMPDEST PUSH1 0x40 MLOAD DUP1 SWAP2 SUB SWAP1 RETURN JUMPDEST PUSH2 0x21C PUSH1 0x4 DUP1 CALLDATASIZE SUB DUP2 ADD SWAP1 PUSH2 0x217 SWAP2 SWAP1 PUSH2 0xDF1 JUMP JUMPDEST PUSH2 0x7F2 JUMP JUMPDEST PUSH1 0x40 MLOAD PUSH2 0x229 SWAP2 SWAP1 PUSH2 0x1004 JUMP JUMPDEST PUSH1 0x40 MLOAD DUP1 SWAP2 SUB SWAP1 RETURN JUMPDEST PUSH2 0x23A PUSH2 0x8CF JUMP JUMPDEST PUSH1 0x40 MLOAD PUSH2 0x247 SWAP2 SWAP1 PUSH2 0xF57 JUMP JUMPDEST PUSH1 0x40 MLOAD DUP1 SWAP2 SUB SWAP1 RETURN JUMPDEST PUSH2 0x258 PUSH2 0x8E2 JUMP JUMPDEST PUSH1 0x40 MLOAD PUSH2 0x265 SWAP2 SWAP1 PUSH2 0x1004 JUMP JUMPDEST PUSH1 0x40 MLOAD DUP1 SWAP2 SUB SWAP1 RETURN JUMPDEST PUSH2 0x288 PUSH1 0x4 DUP1 CALLDATASIZE SUB DUP2 ADD SWAP1 PUSH2 0x283 SWAP2 SWAP1 PUSH2 0xE3A JUMP JUMPDEST PUSH2 0x8E8 JUMP JUMPDEST PUSH1 0x40 MLOAD PUSH2 0x295 SWAP2 SWAP1 PUSH2 0xF72 JUMP JUMPDEST PUSH1 0x40 MLOAD DUP1 SWAP2 SUB SWAP1 RETURN JUMPDEST PUSH2 0x2A6 PUSH2 0x988 JUMP JUMPDEST PUSH1 0x40 MLOAD PUSH2 0x2B3 SWAP2 SWAP1 PUSH2 0x1004 JUMP JUMPDEST PUSH1 0x40 MLOAD DUP1 SWAP2 SUB SWAP1 RETURN JUMPDEST PUSH2 0x2C4 PUSH2 0x98E JUMP JUMPDEST PUSH1 0x40 MLOAD PUSH2 0x2D1 SWAP2 SWAP1 PUSH2 0xF72 JUMP JUMPDEST PUSH1 0x40 MLOAD DUP1 SWAP2 SUB SWAP1 RETURN JUMPDEST PUSH1 0x0 PUSH1 0x1 ISZERO ISZERO PUSH1 0x9 PUSH1 0x0 SWAP1 SLOAD SWAP1 PUSH2 0x100 EXP SWAP1 DIV PUSH1 0xFF AND ISZERO ISZERO EQ PUSH2 0x332 JUMPI PUSH1 0x40 MLOAD PUSH32 0x8C379A000000000000000000000000000000000000000000000000000000000 DUP2 MSTORE PUSH1 0x4 ADD PUSH2 0x329 SWAP1 PUSH2 0xFE4 JUMP JUMPDEST PUSH1 0x40 MLOAD DUP1 SWAP2 SUB SWAP1 REVERT JUMPDEST PUSH1 0x0 SWAP1 POP PUSH1 0x0 PUSH1 0x1 PUSH1 0x0 CALLER PUSH20 0xFFFFFFFFFFFFFFFFFFFFFFFFFFFFFFFFFFFFFFFF AND PUSH20 0xFFFFFFFFFFFFFFFFFFFFFFFFFFFFFFFFFFFFFFFF AND DUP2 MSTORE PUSH1 0x20 ADD SWAP1 DUP2 MSTORE PUSH1 0x20 ADD PUSH1 0x0 KECCAK256 PUSH1 0x0 ADD DUP1 SLOAD PUSH2 0x385 SWAP1 PUSH2 0x11A2 JUMP JUMPDEST SWAP1 POP EQ PUSH2 0x4DF JUMPI PUSH1 0x0 DUP1 PUSH1 0x0 DUP5 DUP2 MSTORE PUSH1 0x20 ADD SWAP1 DUP2 MSTORE PUSH1 0x20 ADD PUSH1 0x0 KECCAK256 DUP1 SLOAD PUSH2 0x3AB SWAP1 PUSH2 0x11A2 JUMP JUMPDEST SWAP1 POP EQ PUSH2 0x4DE JUMPI PUSH1 0x1 SWAP1 POP PUSH1 0x1 DUP1 PUSH1 0x0 CALLER PUSH20 0xFFFFFFFFFFFFFFFFFFFFFFFFFFFFFFFFFFFFFFFF AND PUSH20 0xFFFFFFFFFFFFFFFFFFFFFFFFFFFFFFFFFFFFFFFF AND DUP2 MSTORE PUSH1 0x20 ADD SWAP1 DUP2 MSTORE PUSH1 0x20 ADD PUSH1 0x0 KECCAK256 PUSH1 0x1 ADD PUSH1 0x0 PUSH2 0x100 EXP DUP2 SLOAD DUP2 PUSH1 0xFF MUL NOT AND SWAP1 DUP4 ISZERO ISZERO MUL OR SWAP1 SSTORE POP PUSH2 0x418 PUSH2 0xB52 JUMP JUMPDEST CALLER DUP2 PUSH1 0x0 ADD SWAP1 PUSH20 0xFFFFFFFFFFFFFFFFFFFFFFFFFFFFFFFFFFFFFFFF AND SWAP1 DUP2 PUSH20 0xFFFFFFFFFFFFFFFFFFFFFFFFFFFFFFFFFFFFFFFF AND DUP2 MSTORE POP POP DUP3 DUP2 PUSH1 0x20 ADD DUP2 DUP2 MSTORE POP POP PUSH1 0x4 PUSH1 0x0 DUP2 SLOAD DUP1 SWAP3 SWAP2 SWAP1 PUSH2 0x46D SWAP1 PUSH2 0x1205 JUMP JUMPDEST SWAP2 SWAP1 POP SSTORE POP DUP1 PUSH1 0x7 PUSH1 0x0 PUSH1 0x4 SLOAD DUP2 MSTORE PUSH1 0x20 ADD SWAP1 DUP2 MSTORE PUSH1 0x20 ADD PUSH1 0x0 KECCAK256 PUSH1 0x0 DUP3 ADD MLOAD DUP2 PUSH1 0x0 ADD PUSH1 0x0 PUSH2 0x100 EXP DUP2 SLOAD DUP2 PUSH20 0xFFFFFFFFFFFFFFFFFFFFFFFFFFFFFFFFFFFFFFFF MUL NOT AND SWAP1 DUP4 PUSH20 0xFFFFFFFFFFFFFFFFFFFFFFFFFFFFFFFFFFFFFFFF AND MUL OR SWAP1 SSTORE POP PUSH1 0x20 DUP3 ADD MLOAD DUP2 PUSH1 0x1 ADD SSTORE SWAP1 POP POP POP JUMPDEST JUMPDEST PUSH1 0x1 PUSH1 0x2 PUSH1 0x3 SLOAD PUSH2 0x4F0 SWAP2 SWAP1 PUSH2 0x10E7 JUMP JUMPDEST PUSH2 0x4FA SWAP2 SWAP1 PUSH2 0x1091 JUMP JUMPDEST PUSH1 0x4 SLOAD LT PUSH2 0x50B JUMPI PUSH2 0x50A PUSH2 0xA1C JUMP JUMPDEST JUMPDEST SWAP2 SWAP1 POP JUMP JUMPDEST PUSH1 0x1 PUSH1 0x20 MSTORE DUP1 PUSH1 0x0 MSTORE PUSH1 0x40 PUSH1 0x0 KECCAK256 PUSH1 0x0 SWAP2 POP SWAP1 POP DUP1 PUSH1 0x0 ADD DUP1 SLOAD PUSH2 0x533 SWAP1 PUSH2 0x11A2 JUMP JUMPDEST DUP1 PUSH1 0x1F ADD PUSH1 0x20 DUP1 SWAP2 DIV MUL PUSH1 0x20 ADD PUSH1 0x40 MLOAD SWAP1 DUP2 ADD PUSH1 0x40 MSTORE DUP1 SWAP3 SWAP2 SWAP1 DUP2 DUP2 MSTORE PUSH1 0x20 ADD DUP3 DUP1 SLOAD PUSH2 0x55F SWAP1 PUSH2 0x11A2 JUMP JUMPDEST DUP1 ISZERO PUSH2 0x5AC JUMPI DUP1 PUSH1 0x1F LT PUSH2 0x581 JUMPI PUSH2 0x100 DUP1 DUP4 SLOAD DIV MUL DUP4 MSTORE SWAP2 PUSH1 0x20 ADD SWAP2 PUSH2 0x5AC JUMP JUMPDEST DUP3 ADD SWAP2 SWAP1 PUSH1 0x0 MSTORE PUSH1 0x20 PUSH1 0x0 KECCAK256 SWAP1 JUMPDEST DUP2 SLOAD DUP2 MSTORE SWAP1 PUSH1 0x1 ADD SWAP1 PUSH1 0x20 ADD DUP1 DUP4 GT PUSH2 0x58F JUMPI DUP3 SWAP1 SUB PUSH1 0x1F AND DUP3 ADD SWAP2 JUMPDEST POP POP POP POP POP SWAP1 DUP1 PUSH1 0x1 ADD PUSH1 0x0 SWAP1 SLOAD SWAP1 PUSH2 0x100 EXP SWAP1 DIV PUSH1 0xFF AND SWAP1 POP DUP3 JUMP JUMPDEST PUSH1 0x0 PUSH1 0x5 PUSH1 0x0 SWAP1 SLOAD SWAP1 PUSH2 0x100 EXP SWAP1 DIV PUSH20 0xFFFFFFFFFFFFFFFFFFFFFFFFFFFFFFFFFFFFFFFF AND PUSH20 0xFFFFFFFFFFFFFFFFFFFFFFFFFFFFFFFFFFFFFFFF AND CALLER PUSH20 0xFFFFFFFFFFFFFFFFFFFFFFFFFFFFFFFFFFFFFFFF AND EQ PUSH2 0x65B JUMPI PUSH1 0x40 MLOAD PUSH32 0x8C379A000000000000000000000000000000000000000000000000000000000 DUP2 MSTORE PUSH1 0x4 ADD PUSH2 0x652 SWAP1 PUSH2 0xFC4 JUMP JUMPDEST PUSH1 0x40 MLOAD DUP1 SWAP2 SUB SWAP1 REVERT JUMPDEST PUSH2 0x663 PUSH2 0xB82 JUMP JUMPDEST DUP3 DUP2 PUSH1 0x0 ADD DUP2 SWAP1 MSTORE POP PUSH1 0x0 DUP2 PUSH1 0x20 ADD SWAP1 ISZERO ISZERO SWAP1 DUP2 ISZERO ISZERO DUP2 MSTORE POP POP DUP1 PUSH1 0x1 PUSH1 0x0 DUP7 PUSH20 0xFFFFFFFFFFFFFFFFFFFFFFFFFFFFFFFFFFFFFFFF AND PUSH20 0xFFFFFFFFFFFFFFFFFFFFFFFFFFFFFFFFFFFFFFFF AND DUP2 MSTORE PUSH1 0x20 ADD SWAP1 DUP2 MSTORE PUSH1 0x20 ADD PUSH1 0x0 KECCAK256 PUSH1 0x0 DUP3 ADD MLOAD DUP2 PUSH1 0x0 ADD SWAP1 DUP1 MLOAD SWAP1 PUSH1 0x20 ADD SWAP1 PUSH2 0x6D9 SWAP3 SWAP2 SWAP1 PUSH2 0xB9E JUMP JUMPDEST POP PUSH1 0x20 DUP3 ADD MLOAD DUP2 PUSH1 0x1 ADD PUSH1 0x0 PUSH2 0x100 EXP DUP2 SLOAD DUP2 PUSH1 0xFF MUL NOT AND SWAP1 DUP4 ISZERO ISZERO MUL OR SWAP1 SSTORE POP SWAP1 POP POP PUSH1 0x3 PUSH1 0x0 DUP2 SLOAD DUP1 SWAP3 SWAP2 SWAP1 PUSH2 0x710 SWAP1 PUSH2 0x1205 JUMP JUMPDEST SWAP2 SWAP1 POP SSTORE POP PUSH1 0x3 SLOAD SWAP2 POP POP SWAP3 SWAP2 POP POP JUMP JUMPDEST PUSH1 0x0 PUSH1 0x1 PUSH1 0x0 DUP4 PUSH20 0xFFFFFFFFFFFFFFFFFFFFFFFFFFFFFFFFFFFFFFFF AND PUSH20 0xFFFFFFFFFFFFFFFFFFFFFFFFFFFFFFFFFFFFFFFF AND DUP2 MSTORE PUSH1 0x20 ADD SWAP1 DUP2 MSTORE PUSH1 0x20 ADD PUSH1 0x0 KECCAK256 PUSH1 0x1 ADD PUSH1 0x0 SWAP1 SLOAD SWAP1 PUSH2 0x100 EXP SWAP1 DIV PUSH1 0xFF AND ISZERO PUSH2 0x77D JUMPI PUSH1 0x1 SWAP1 POP JUMPDEST SWAP2 SWAP1 POP JUMP JUMPDEST PUSH1 0x3 SLOAD DUP2 JUMP JUMPDEST PUSH1 0x5 PUSH1 0x0 SWAP1 SLOAD SWAP1 PUSH2 0x100 EXP SWAP1 DIV PUSH20 0xFFFFFFFFFFFFFFFFFFFFFFFFFFFFFFFFFFFFFFFF AND DUP2 JUMP JUMPDEST PUSH1 0x7 PUSH1 0x20 MSTORE DUP1 PUSH1 0x0 MSTORE PUSH1 0x40 PUSH1 0x0 KECCAK256 PUSH1 0x0 SWAP2 POP SWAP1 POP DUP1 PUSH1 0x0 ADD PUSH1 0x0 SWAP1 SLOAD SWAP1 PUSH2 0x100 EXP SWAP1 DIV PUSH20 0xFFFFFFFFFFFFFFFFFFFFFFFFFFFFFFFFFFFFFFFF AND SWAP1 DUP1 PUSH1 0x1 ADD SLOAD SWAP1 POP DUP3 JUMP JUMPDEST PUSH1 0x0 PUSH1 0x5 PUSH1 0x0 SWAP1 SLOAD SWAP1 PUSH2 0x100 EXP SWAP1 DIV PUSH20 0xFFFFFFFFFFFFFFFFFFFFFFFFFFFFFFFFFFFFFFFF AND PUSH20 0xFFFFFFFFFFFFFFFFFFFFFFFFFFFFFFFFFFFFFFFF AND CALLER PUSH20 0xFFFFFFFFFFFFFFFFFFFFFFFFFFFFFFFFFFFFFFFF AND EQ PUSH2 0x884 JUMPI PUSH1 0x40 MLOAD PUSH32 0x8C379A000000000000000000000000000000000000000000000000000000000 DUP2 MSTORE PUSH1 0x4 ADD PUSH2 0x87B SWAP1 PUSH2 0xFC4 JUMP JUMPDEST PUSH1 0x40 MLOAD DUP1 SWAP2 SUB SWAP1 REVERT JUMPDEST PUSH1 0x2 PUSH1 0x0 DUP2 SLOAD DUP1 SWAP3 SWAP2 SWAP1 PUSH2 0x897 SWAP1 PUSH2 0x1205 JUMP JUMPDEST SWAP2 SWAP1 POP SSTORE POP DUP2 PUSH1 0x0 DUP1 PUSH1 0x2 SLOAD DUP2 MSTORE PUSH1 0x20 ADD SWAP1 DUP2 MSTORE PUSH1 0x20 ADD PUSH1 0x0 KECCAK256 SWAP1 DUP1 MLOAD SWAP1 PUSH1 0x20 ADD SWAP1 PUSH2 0x8C4 SWAP3 SWAP2 SWAP1 PUSH2 0xB9E JUMP JUMPDEST POP PUSH1 0x2 SLOAD SWAP1 POP SWAP2 SWAP1 POP JUMP JUMPDEST PUSH1 0x9 PUSH1 0x0 SWAP1 SLOAD SWAP1 PUSH2 0x100 EXP SWAP1 DIV PUSH1 0xFF AND DUP2 JUMP JUMPDEST PUSH1 0x4 SLOAD DUP2 JUMP JUMPDEST PUSH1 0x0 PUSH1 0x20 MSTORE DUP1 PUSH1 0x0 MSTORE PUSH1 0x40 PUSH1 0x0 KECCAK256 PUSH1 0x0 SWAP2 POP SWAP1 POP DUP1 SLOAD PUSH2 0x907 SWAP1 PUSH2 0x11A2 JUMP JUMPDEST DUP1 PUSH1 0x1F ADD PUSH1 0x20 DUP1 SWAP2 DIV MUL PUSH1 0x20 ADD PUSH1 0x40 MLOAD SWAP1 DUP2 ADD PUSH1 0x40 MSTORE DUP1 SWAP3 SWAP2 SWAP1 DUP2 DUP2 MSTORE PUSH1 0x20 ADD DUP3 DUP1 SLOAD PUSH2 0x933 SWAP1 PUSH2 0x11A2 JUMP JUMPDEST DUP1 ISZERO PUSH2 0x980 JUMPI DUP1 PUSH1 0x1F LT PUSH2 0x955 JUMPI PUSH2 0x100 DUP1 DUP4 SLOAD DIV MUL DUP4 MSTORE SWAP2 PUSH1 0x20 ADD SWAP2 PUSH2 0x980 JUMP JUMPDEST DUP3 ADD SWAP2 SWAP1 PUSH1 0x0 MSTORE PUSH1 0x20 PUSH1 0x0 KECCAK256 SWAP1 JUMPDEST DUP2 SLOAD DUP2 MSTORE SWAP1 PUSH1 0x1 ADD SWAP1 PUSH1 0x20 ADD DUP1 DUP4 GT PUSH2 0x963 JUMPI DUP3 SWAP1 SUB PUSH1 0x1F AND DUP3 ADD SWAP2 JUMPDEST POP POP POP POP POP DUP2 JUMP JUMPDEST PUSH1 0x2 SLOAD DUP2 JUMP JUMPDEST PUSH1 0x6 DUP1 SLOAD PUSH2 0x99B SWAP1 PUSH2 0x11A2 JUMP JUMPDEST DUP1 PUSH1 0x1F ADD PUSH1 0x20 DUP1 SWAP2 DIV MUL PUSH1 0x20 ADD PUSH1 0x40 MLOAD SWAP1 DUP2 ADD PUSH1 0x40 MSTORE DUP1 SWAP3 SWAP2 SWAP1 DUP2 DUP2 MSTORE PUSH1 0x20 ADD DUP3 DUP1 SLOAD PUSH2 0x9C7 SWAP1 PUSH2 0x11A2 JUMP JUMPDEST DUP1 ISZERO PUSH2 0xA14 JUMPI DUP1 PUSH1 0x1F LT PUSH2 0x9E9 JUMPI PUSH2 0x100 DUP1 DUP4 SLOAD DIV MUL DUP4 MSTORE SWAP2 PUSH1 0x20 ADD SWAP2 PUSH2 0xA14 JUMP JUMPDEST DUP3 ADD SWAP2 SWAP1 PUSH1 0x0 MSTORE PUSH1 0x20 PUSH1 0x0 KECCAK256 SWAP1 JUMPDEST DUP2 SLOAD DUP2 MSTORE SWAP1 PUSH1 0x1 ADD SWAP1 PUSH1 0x20 ADD DUP1 DUP4 GT PUSH2 0x9F7 JUMPI DUP3 SWAP1 SUB PUSH1 0x1F AND DUP3 ADD SWAP2 JUMPDEST POP POP POP POP POP DUP2 JUMP JUMPDEST PUSH1 0x0 DUP1 PUSH1 0x0 PUSH1 0x1 SWAP1 POP JUMPDEST PUSH1 0x4 SLOAD DUP2 GT PUSH2 0xB06 JUMPI PUSH1 0x0 PUSH1 0x1 SWAP1 POP PUSH1 0x0 PUSH1 0x8 PUSH1 0x0 PUSH1 0x7 PUSH1 0x0 DUP7 DUP2 MSTORE PUSH1 0x20 ADD SWAP1 DUP2 MSTORE PUSH1 0x20 ADD PUSH1 0x0 KECCAK256 PUSH1 0x1 ADD SLOAD DUP2 MSTORE PUSH1 0x20 ADD SWAP1 DUP2 MSTORE PUSH1 0x20 ADD PUSH1 0x0 KECCAK256 SLOAD GT ISZERO PUSH2 0xA9F JUMPI PUSH1 0x8 PUSH1 0x0 PUSH1 0x7 PUSH1 0x0 DUP6 DUP2 MSTORE PUSH1 0x20 ADD SWAP1 DUP2 MSTORE PUSH1 0x20 ADD PUSH1 0x0 KECCAK256 PUSH1 0x1 ADD SLOAD DUP2 MSTORE PUSH1 0x20 ADD SWAP1 DUP2 MSTORE PUSH1 0x20 ADD PUSH1 0x0 KECCAK256 SLOAD DUP2 PUSH2 0xA9C SWAP2 SWAP1 PUSH2 0x1091 JUMP JUMPDEST SWAP1 POP JUMPDEST DUP1 PUSH1 0x8 PUSH1 0x0 PUSH1 0x7 PUSH1 0x0 DUP7 DUP2 MSTORE PUSH1 0x20 ADD SWAP1 DUP2 MSTORE PUSH1 0x20 ADD PUSH1 0x0 KECCAK256 PUSH1 0x1 ADD SLOAD DUP2 MSTORE PUSH1 0x20 ADD SWAP1 DUP2 MSTORE PUSH1 0x20 ADD PUSH1 0x0 KECCAK256 DUP2 SWAP1 SSTORE POP DUP4 DUP2 GT ISZERO PUSH2 0xAF2 JUMPI DUP1 SWAP4 POP PUSH1 0x7 PUSH1 0x0 DUP4 DUP2 MSTORE PUSH1 0x20 ADD SWAP1 DUP2 MSTORE PUSH1 0x20 ADD PUSH1 0x0 KECCAK256 PUSH1 0x1 ADD SLOAD SWAP3 POP JUMPDEST POP DUP1 DUP1 PUSH2 0xAFE SWAP1 PUSH2 0x1205 JUMP JUMPDEST SWAP2 POP POP PUSH2 0xA26 JUMP JUMPDEST POP PUSH1 0x0 DUP1 DUP3 DUP2 MSTORE PUSH1 0x20 ADD SWAP1 DUP2 MSTORE PUSH1 0x20 ADD PUSH1 0x0 KECCAK256 PUSH1 0x6 SWAP1 DUP1 SLOAD PUSH2 0xB27 SWAP1 PUSH2 0x11A2 JUMP JUMPDEST PUSH2 0xB32 SWAP3 SWAP2 SWAP1 PUSH2 0xC24 JUMP JUMPDEST POP PUSH1 0x0 PUSH1 0x9 PUSH1 0x0 PUSH2 0x100 EXP DUP2 SLOAD DUP2 PUSH1 0xFF MUL NOT AND SWAP1 DUP4 ISZERO ISZERO MUL OR SWAP1 SSTORE POP POP POP JUMP JUMPDEST PUSH1 0x40 MLOAD DUP1 PUSH1 0x40 ADD PUSH1 0x40 MSTORE DUP1 PUSH1 0x0 PUSH20 0xFFFFFFFFFFFFFFFFFFFFFFFFFFFFFFFFFFFFFFFF AND DUP2 MSTORE PUSH1 0x20 ADD PUSH1 0x0 DUP2 MSTORE POP SWAP1 JUMP JUMPDEST PUSH1 0x40 MLOAD DUP1 PUSH1 0x40 ADD PUSH1 0x40 MSTORE DUP1 PUSH1 0x60 DUP2 MSTORE PUSH1 0x20 ADD PUSH1 0x0 ISZERO ISZERO DUP2 MSTORE POP SWAP1 JUMP JUMPDEST DUP3 DUP1 SLOAD PUSH2 0xBAA SWAP1 PUSH2 0x11A2 JUMP JUMPDEST SWAP1 PUSH1 0x0 MSTORE PUSH1 0x20 PUSH1 0x0 KECCAK256 SWAP1 PUSH1 0x1F ADD PUSH1 0x20 SWAP1 DIV DUP2 ADD SWAP3 DUP3 PUSH2 0xBCC JUMPI PUSH1 0x0 DUP6 SSTORE PUSH2 0xC13 JUMP JUMPDEST DUP3 PUSH1 0x1F LT PUSH2 0xBE5 JUMPI DUP1 MLOAD PUSH1 0xFF NOT AND DUP4 DUP1 ADD OR DUP6 SSTORE PUSH2 0xC13 JUMP JUMPDEST DUP3 DUP1 ADD PUSH1 0x1 ADD DUP6 SSTORE DUP3 ISZERO PUSH2 0xC13 JUMPI SWAP2 DUP3 ADD JUMPDEST DUP3 DUP2 GT ISZERO PUSH2 0xC12 JUMPI DUP3 MLOAD DUP3 SSTORE SWAP2 PUSH1 0x20 ADD SWAP2 SWAP1 PUSH1 0x1 ADD SWAP1 PUSH2 0xBF7 JUMP JUMPDEST JUMPDEST POP SWAP1 POP PUSH2 0xC20 SWAP2 SWAP1 PUSH2 0xCB1 JUMP JUMPDEST POP SWAP1 JUMP JUMPDEST DUP3 DUP1 SLOAD PUSH2 0xC30 SWAP1 PUSH2 0x11A2 JUMP JUMPDEST SWAP1 PUSH1 0x0 MSTORE PUSH1 0x20 PUSH1 0x0 KECCAK256 SWAP1 PUSH1 0x1F ADD PUSH1 0x20 SWAP1 DIV DUP2 ADD SWAP3 DUP3 PUSH2 0xC52 JUMPI PUSH1 0x0 DUP6 SSTORE PUSH2 0xCA0 JUMP JUMPDEST DUP3 PUSH1 0x1F LT PUSH2 0xC63 JUMPI DUP1 SLOAD DUP6 SSTORE PUSH2 0xCA0 JUMP JUMPDEST DUP3 DUP1 ADD PUSH1 0x1 ADD DUP6 SSTORE DUP3 ISZERO PUSH2 0xCA0 JUMPI PUSH1 0x0 MSTORE PUSH1 0x20 PUSH1 0x0 KECCAK256 SWAP2 PUSH1 0x1F ADD PUSH1 0x20 SWAP1 DIV DUP3 ADD JUMPDEST DUP3 DUP2 GT ISZERO PUSH2 0xC9F JUMPI DUP3 SLOAD DUP3 SSTORE SWAP2 PUSH1 0x1 ADD SWAP2 SWAP1 PUSH1 0x1 ADD SWAP1 PUSH2 0xC84 JUMP JUMPDEST JUMPDEST POP SWAP1 POP PUSH2 0xCAD SWAP2 SWAP1 PUSH2 0xCB1 JUMP JUMPDEST POP SWAP1 JUMP JUMPDEST JUMPDEST DUP1 DUP3 GT ISZERO PUSH2 0xCCA JUMPI PUSH1 0x0 DUP2 PUSH1 0x0 SWAP1 SSTORE POP PUSH1 0x1 ADD PUSH2 0xCB2 JUMP JUMPDEST POP SWAP1 JUMP JUMPDEST PUSH1 0x0 PUSH2 0xCE1 PUSH2 0xCDC DUP5 PUSH2 0x1044 JUMP JUMPDEST PUSH2 0x101F JUMP JUMPDEST SWAP1 POP DUP3 DUP2 MSTORE PUSH1 0x20 DUP2 ADD DUP5 DUP5 DUP5 ADD GT ISZERO PUSH2 0xCFD JUMPI PUSH2 0xCFC PUSH2 0x130F JUMP JUMPDEST JUMPDEST PUSH2 0xD08 DUP5 DUP3 DUP6 PUSH2 0x1160 JUMP JUMPDEST POP SWAP4 SWAP3 POP POP POP JUMP JUMPDEST PUSH1 0x0 DUP2 CALLDATALOAD SWAP1 POP PUSH2 0xD1F DUP2 PUSH2 0x13CD JUMP JUMPDEST SWAP3 SWAP2 POP POP JUMP JUMPDEST PUSH1 0x0 DUP3 PUSH1 0x1F DUP4 ADD SLT PUSH2 0xD3A JUMPI PUSH2 0xD39 PUSH2 0x130A JUMP JUMPDEST JUMPDEST DUP2 CALLDATALOAD PUSH2 0xD4A DUP5 DUP3 PUSH1 0x20 DUP7 ADD PUSH2 0xCCE JUMP JUMPDEST SWAP2 POP POP SWAP3 SWAP2 POP POP JUMP JUMPDEST PUSH1 0x0 DUP2 CALLDATALOAD SWAP1 POP PUSH2 0xD62 DUP2 PUSH2 0x13E4 JUMP JUMPDEST SWAP3 SWAP2 POP POP JUMP JUMPDEST PUSH1 0x0 PUSH1 0x20 DUP3 DUP5 SUB SLT ISZERO PUSH2 0xD7E JUMPI PUSH2 0xD7D PUSH2 0x1319 JUMP JUMPDEST JUMPDEST PUSH1 0x0 PUSH2 0xD8C DUP5 DUP3 DUP6 ADD PUSH2 0xD10 JUMP JUMPDEST SWAP2 POP POP SWAP3 SWAP2 POP POP JUMP JUMPDEST PUSH1 0x0 DUP1 PUSH1 0x40 DUP4 DUP6 SUB SLT ISZERO PUSH2 0xDAC JUMPI PUSH2 0xDAB PUSH2 0x1319 JUMP JUMPDEST JUMPDEST PUSH1 0x0 PUSH2 0xDBA DUP6 DUP3 DUP7 ADD PUSH2 0xD10 JUMP JUMPDEST SWAP3 POP POP PUSH1 0x20 DUP4 ADD CALLDATALOAD PUSH8 0xFFFFFFFFFFFFFFFF DUP2 GT ISZERO PUSH2 0xDDB JUMPI PUSH2 0xDDA PUSH2 0x1314 JUMP JUMPDEST JUMPDEST PUSH2 0xDE7 DUP6 DUP3 DUP7 ADD PUSH2 0xD25 JUMP JUMPDEST SWAP2 POP POP SWAP3 POP SWAP3 SWAP1 POP JUMP JUMPDEST PUSH1 0x0 PUSH1 0x20 DUP3 DUP5 SUB SLT ISZERO PUSH2 0xE07 JUMPI PUSH2 0xE06 PUSH2 0x1319 JUMP JUMPDEST JUMPDEST PUSH1 0x0 DUP3 ADD CALLDATALOAD PUSH8 0xFFFFFFFFFFFFFFFF DUP2 GT ISZERO PUSH2 0xE25 JUMPI PUSH2 0xE24 PUSH2 0x1314 JUMP JUMPDEST JUMPDEST PUSH2 0xE31 DUP5 DUP3 DUP6 ADD PUSH2 0xD25 JUMP JUMPDEST SWAP2 POP POP SWAP3 SWAP2 POP POP JUMP JUMPDEST PUSH1 0x0 PUSH1 0x20 DUP3 DUP5 SUB SLT ISZERO PUSH2 0xE50 JUMPI PUSH2 0xE4F PUSH2 0x1319 JUMP JUMPDEST JUMPDEST PUSH1 0x0 PUSH2 0xE5E DUP5 DUP3 DUP6 ADD PUSH2 0xD53 JUMP JUMPDEST SWAP2 POP POP SWAP3 SWAP2 POP POP JUMP JUMPDEST PUSH2 0xE70 DUP2 PUSH2 0x1118 JUMP JUMPDEST DUP3 MSTORE POP POP JUMP JUMPDEST PUSH2 0xE7F DUP2 PUSH2 0x112A JUMP JUMPDEST DUP3 MSTORE POP POP JUMP JUMPDEST PUSH1 0x0 PUSH2 0xE90 DUP3 PUSH2 0x1075 JUMP JUMPDEST PUSH2 0xE9A DUP2 DUP6 PUSH2 0x1080 JUMP JUMPDEST SWAP4 POP PUSH2 0xEAA DUP2 DUP6 PUSH1 0x20 DUP7 ADD PUSH2 0x116F JUMP JUMPDEST PUSH2 0xEB3 DUP2 PUSH2 0x131E JUMP JUMPDEST DUP5 ADD SWAP2 POP POP SWAP3 SWAP2 POP POP JUMP JUMPDEST PUSH1 0x0 PUSH2 0xECB PUSH1 0x23 DUP4 PUSH2 0x1080 JUMP JUMPDEST SWAP2 POP PUSH2 0xED6 DUP3 PUSH2 0x132F JUMP JUMPDEST PUSH1 0x40 DUP3 ADD SWAP1 POP SWAP2 SWAP1 POP JUMP JUMPDEST PUSH1 0x0 PUSH2 0xEEE PUSH1 0x23 DUP4 PUSH2 0x1080 JUMP JUMPDEST SWAP2 POP PUSH2 0xEF9 DUP3 PUSH2 0x137E JUMP JUMPDEST PUSH1 0x40 DUP3 ADD SWAP1 POP SWAP2 SWAP1 POP JUMP JUMPDEST PUSH2 0xF0D DUP2 PUSH2 0x1156 JUMP JUMPDEST DUP3 MSTORE POP POP JUMP JUMPDEST PUSH1 0x0 PUSH1 0x20 DUP3 ADD SWAP1 POP PUSH2 0xF28 PUSH1 0x0 DUP4 ADD DUP5 PUSH2 0xE67 JUMP JUMPDEST SWAP3 SWAP2 POP POP JUMP JUMPDEST PUSH1 0x0 PUSH1 0x40 DUP3 ADD SWAP1 POP PUSH2 0xF43 PUSH1 0x0 DUP4 ADD DUP6 PUSH2 0xE67 JUMP JUMPDEST PUSH2 0xF50 PUSH1 0x20 DUP4 ADD DUP5 PUSH2 0xF04 JUMP JUMPDEST SWAP4 SWAP3 POP POP POP JUMP JUMPDEST PUSH1 0x0 PUSH1 0x20 DUP3 ADD SWAP1 POP PUSH2 0xF6C PUSH1 0x0 DUP4 ADD DUP5 PUSH2 0xE76 JUMP JUMPDEST SWAP3 SWAP2 POP POP JUMP JUMPDEST PUSH1 0x0 PUSH1 0x20 DUP3 ADD SWAP1 POP DUP2 DUP2 SUB PUSH1 0x0 DUP4 ADD MSTORE PUSH2 0xF8C DUP2 DUP5 PUSH2 0xE85 JUMP JUMPDEST SWAP1 POP SWAP3 SWAP2 POP POP JUMP JUMPDEST PUSH1 0x0 PUSH1 0x40 DUP3 ADD SWAP1 POP DUP2 DUP2 SUB PUSH1 0x0 DUP4 ADD MSTORE PUSH2 0xFAE DUP2 DUP6 PUSH2 0xE85 JUMP JUMPDEST SWAP1 POP PUSH2 0xFBD PUSH1 0x20 DUP4 ADD DUP5 PUSH2 0xE76 JUMP JUMPDEST SWAP4 SWAP3 POP POP POP JUMP JUMPDEST PUSH1 0x0 PUSH1 0x20 DUP3 ADD SWAP1 POP DUP2 DUP2 SUB PUSH1 0x0 DUP4 ADD MSTORE PUSH2 0xFDD DUP2 PUSH2 0xEBE JUMP JUMPDEST SWAP1 POP SWAP2 SWAP1 POP JUMP JUMPDEST PUSH1 0x0 PUSH1 0x20 DUP3 ADD SWAP1 POP DUP2 DUP2 SUB PUSH1 0x0 DUP4 ADD MSTORE PUSH2 0xFFD DUP2 PUSH2 0xEE1 JUMP JUMPDEST SWAP1 POP SWAP2 SWAP1 POP JUMP JUMPDEST PUSH1 0x0 PUSH1 0x20 DUP3 ADD SWAP1 POP PUSH2 0x1019 PUSH1 0x0 DUP4 ADD DUP5 PUSH2 0xF04 JUMP JUMPDEST SWAP3 SWAP2 POP POP JUMP JUMPDEST PUSH1 0x0 PUSH2 0x1029 PUSH2 0x103A JUMP JUMPDEST SWAP1 POP PUSH2 0x1035 DUP3 DUP3 PUSH2 0x11D4 JUMP JUMPDEST SWAP2 SWAP1 POP JUMP JUMPDEST PUSH1 0x0 PUSH1 0x40 MLOAD SWAP1 POP SWAP1 JUMP JUMPDEST PUSH1 0x0 PUSH8 0xFFFFFFFFFFFFFFFF DUP3 GT ISZERO PUSH2 0x105F JUMPI PUSH2 0x105E PUSH2 0x12DB JUMP JUMPDEST JUMPDEST PUSH2 0x1068 DUP3 PUSH2 0x131E JUMP JUMPDEST SWAP1 POP PUSH1 0x20 DUP2 ADD SWAP1 POP SWAP2 SWAP1 POP JUMP JUMPDEST PUSH1 0x0 DUP2 MLOAD SWAP1 POP SWAP2 SWAP1 POP JUMP JUMPDEST PUSH1 0x0 DUP3 DUP3 MSTORE PUSH1 0x20 DUP3 ADD SWAP1 POP SWAP3 SWAP2 POP POP JUMP JUMPDEST PUSH1 0x0 PUSH2 0x109C DUP3 PUSH2 0x1156 JUMP JUMPDEST SWAP2 POP PUSH2 0x10A7 DUP4 PUSH2 0x1156 JUMP JUMPDEST SWAP3 POP DUP3 PUSH32 0xFFFFFFFFFFFFFFFFFFFFFFFFFFFFFFFFFFFFFFFFFFFFFFFFFFFFFFFFFFFFFFFF SUB DUP3 GT ISZERO PUSH2 0x10DC JUMPI PUSH2 0x10DB PUSH2 0x124E JUMP JUMPDEST JUMPDEST DUP3 DUP3 ADD SWAP1 POP SWAP3 SWAP2 POP POP JUMP JUMPDEST PUSH1 0x0 PUSH2 0x10F2 DUP3 PUSH2 0x1156 JUMP JUMPDEST SWAP2 POP PUSH2 0x10FD DUP4 PUSH2 0x1156 JUMP JUMPDEST SWAP3 POP DUP3 PUSH2 0x110D JUMPI PUSH2 0x110C PUSH2 0x127D JUMP JUMPDEST JUMPDEST DUP3 DUP3 DIV SWAP1 POP SWAP3 SWAP2 POP POP JUMP JUMPDEST PUSH1 0x0 PUSH2 0x1123 DUP3 PUSH2 0x1136 JUMP JUMPDEST SWAP1 POP SWAP2 SWAP1 POP JUMP JUMPDEST PUSH1 0x0 DUP2 ISZERO ISZERO SWAP1 POP SWAP2 SWAP1 POP JUMP JUMPDEST PUSH1 0x0 PUSH20 0xFFFFFFFFFFFFFFFFFFFFFFFFFFFFFFFFFFFFFFFF DUP3 AND SWAP1 POP SWAP2 SWAP1 POP JUMP JUMPDEST PUSH1 0x0 DUP2 SWAP1 POP SWAP2 SWAP1 POP JUMP JUMPDEST DUP3 DUP2 DUP4 CALLDATACOPY PUSH1 0x0 DUP4 DUP4 ADD MSTORE POP POP POP JUMP JUMPDEST PUSH1 0x0 JUMPDEST DUP4 DUP2 LT ISZERO PUSH2 0x118D JUMPI DUP1 DUP3 ADD MLOAD DUP2 DUP5 ADD MSTORE PUSH1 0x20 DUP2 ADD SWAP1 POP PUSH2 0x1172 JUMP JUMPDEST DUP4 DUP2 GT ISZERO PUSH2 0x119C JUMPI PUSH1 0x0 DUP5 DUP5 ADD MSTORE JUMPDEST POP POP POP POP JUMP JUMPDEST PUSH1 0x0 PUSH1 0x2 DUP3 DIV SWAP1 POP PUSH1 0x1 DUP3 AND DUP1 PUSH2 0x11BA JUMPI PUSH1 0x7F DUP3 AND SWAP2 POP JUMPDEST PUSH1 0x20 DUP3 LT DUP2 EQ ISZERO PUSH2 0x11CE JUMPI PUSH2 0x11CD PUSH2 0x12AC JUMP JUMPDEST JUMPDEST POP SWAP2 SWAP1 POP JUMP JUMPDEST PUSH2 0x11DD DUP3 PUSH2 0x131E JUMP JUMPDEST DUP2 ADD DUP2 DUP2 LT PUSH8 0xFFFFFFFFFFFFFFFF DUP3 GT OR ISZERO PUSH2 0x11FC JUMPI PUSH2 0x11FB PUSH2 0x12DB JUMP JUMPDEST JUMPDEST DUP1 PUSH1 0x40 MSTORE POP POP POP JUMP JUMPDEST PUSH1 0x0 PUSH2 0x1210 DUP3 PUSH2 0x1156 JUMP JUMPDEST SWAP2 POP PUSH32 0xFFFFFFFFFFFFFFFFFFFFFFFFFFFFFFFFFFFFFFFFFFFFFFFFFFFFFFFFFFFFFFFF DUP3 EQ ISZERO PUSH2 0x1243 JUMPI PUSH2 0x1242 PUSH2 0x124E JUMP JUMPDEST JUMPDEST PUSH1 0x1 DUP3 ADD SWAP1 POP SWAP2 SWAP1 POP JUMP JUMPDEST PUSH32 0x4E487B7100000000000000000000000000000000000000000000000000000000 PUSH1 0x0 MSTORE PUSH1 0x11 PUSH1 0x4 MSTORE PUSH1 0x24 PUSH1 0x0 REVERT JUMPDEST PUSH32 0x4E487B7100000000000000000000000000000000000000000000000000000000 PUSH1 0x0 MSTORE PUSH1 0x12 PUSH1 0x4 MSTORE PUSH1 0x24 PUSH1 0x0 REVERT JUMPDEST PUSH32 0x4E487B7100000000000000000000000000000000000000000000000000000000 PUSH1 0x0 MSTORE PUSH1 0x22 PUSH1 0x4 MSTORE PUSH1 0x24 PUSH1 0x0 REVERT JUMPDEST PUSH32 0x4E487B7100000000000000000000000000000000000000000000000000000000 PUSH1 0x0 MSTORE PUSH1 0x41 PUSH1 0x4 MSTORE PUSH1 0x24 PUSH1 0x0 REVERT JUMPDEST PUSH1 0x0 DUP1 REVERT JUMPDEST PUSH1 0x0 DUP1 REVERT JUMPDEST PUSH1 0x0 DUP1 REVERT JUMPDEST PUSH1 0x0 DUP1 REVERT JUMPDEST PUSH1 0x0 PUSH1 0x1F NOT PUSH1 0x1F DUP4 ADD AND SWAP1 POP SWAP2 SWAP1 POP JUMP JUMPDEST PUSH32 0x43616E206F6E6C7920626520657865637574656420627920746865206D616E61 PUSH1 0x0 DUP3 ADD MSTORE PUSH32 0x6765720000000000000000000000000000000000000000000000000000000000 PUSH1 0x20 DUP3 ADD MSTORE POP JUMP JUMPDEST PUSH32 0x43616E20766F7465206F6E6C79207768696C6520766F74696E67206973206F70 PUSH1 0x0 DUP3 ADD MSTORE PUSH32 0x656E2E0000000000000000000000000000000000000000000000000000000000 PUSH1 0x20 DUP3 ADD MSTORE POP JUMP JUMPDEST PUSH2 0x13D6 DUP2 PUSH2 0x1118 JUMP JUMPDEST DUP2 EQ PUSH2 0x13E1 JUMPI PUSH1 0x0 DUP1 REVERT JUMPDEST POP JUMP JUMPDEST PUSH2 0x13ED DUP2 PUSH2 0x1156 JUMP JUMPDEST DUP2 EQ PUSH2 0x13F8 JUMPI PUSH1 0x0 DUP1 REVERT JUMPDEST POP JUMP INVALID LOG2 PUSH5 0x6970667358 0x22 SLT KECCAK256 LT 0xF SWAP9 0x4C CODESIZE EXTCODECOPY RETURNDATASIZE PUSH22 0xE716B8820C3977DA27B42E10A3D9C0040D0D3123B125 0xE6 0xB8 PUSH5 0x736F6C6343 STOP ADDMOD SDIV STOP CALLER "
				},
				"gasEstimates": {
					"creation": {
						"codeDepositCost": "1033800",
						"executionCost": "infinite",
						"totalCost": "infinite"
					},
					"external": {
						"addFriend(address,string)": "infinite",
						"addRestaurant(string)": "infinite",
						"checkIfAlreadyVoted(address)": "2976",
						"doVote(uint256)": "infinite",
						"friends(address)": "infinite",
						"manager()": "2625",
						"numFriends()": "2518",
						"numRestaurants()": "2495",
						"numVotes()": "2451",
						"restaurants(uint256)": "infinite",
						"voteOpen()": "2538",
						"votedRestaurant()": "infinite",
						"votes(uint256)": "infinite"
					},
					"internal": {
						"finalResult()": "infinite"
					}
				},
				"methodIdentifiers": {
					"addFriend(address,string)": "3b9f708d",
					"addRestaurant(string)": "6d77bd3e",
					"checkIfAlreadyVoted(address)": "46331c3e",
					"doVote(uint256)": "124258c6",
					"friends(address)": "1ddabf7a",
					"manager()": "481c6a75",
					"numFriends()": "47098f36",
					"numRestaurants()": "b798867f",
					"numVotes()": "a3bef4d7",
					"restaurants(uint256)": "ad5461d8",
					"voteOpen()": "788d3851",
					"votedRestaurant()": "c1c16efc",
					"votes(uint256)": "5df81330"
				}
			},
			"storageLayout": {
				"storage": [
					{
						"astId": 16,
						"contract": "contracts/LunchVenue_updated.sol:LunchVenue_updated",
						"label": "restaurants",
						"offset": 0,
						"slot": "0",
						"type": "t_mapping(t_uint256,t_string_storage)"
					},
					{
						"astId": 21,
						"contract": "contracts/LunchVenue_updated.sol:LunchVenue_updated",
						"label": "friends",
						"offset": 0,
						"slot": "1",
						"type": "t_mapping(t_address,t_struct(Friend)7_storage)"
					},
					{
						"astId": 24,
						"contract": "contracts/LunchVenue_updated.sol:LunchVenue_updated",
						"label": "numRestaurants",
						"offset": 0,
						"slot": "2",
						"type": "t_uint256"
					},
					{
						"astId": 27,
						"contract": "contracts/LunchVenue_updated.sol:LunchVenue_updated",
						"label": "numFriends",
						"offset": 0,
						"slot": "3",
						"type": "t_uint256"
					},
					{
						"astId": 30,
						"contract": "contracts/LunchVenue_updated.sol:LunchVenue_updated",
						"label": "numVotes",
						"offset": 0,
						"slot": "4",
						"type": "t_uint256"
					},
					{
						"astId": 32,
						"contract": "contracts/LunchVenue_updated.sol:LunchVenue_updated",
						"label": "manager",
						"offset": 0,
						"slot": "5",
						"type": "t_address"
					},
					{
						"astId": 35,
						"contract": "contracts/LunchVenue_updated.sol:LunchVenue_updated",
						"label": "votedRestaurant",
						"offset": 0,
						"slot": "6",
						"type": "t_string_storage"
					},
					{
						"astId": 40,
						"contract": "contracts/LunchVenue_updated.sol:LunchVenue_updated",
						"label": "votes",
						"offset": 0,
						"slot": "7",
						"type": "t_mapping(t_uint256,t_struct(Vote)12_storage)"
					},
					{
						"astId": 44,
						"contract": "contracts/LunchVenue_updated.sol:LunchVenue_updated",
						"label": "_results",
						"offset": 0,
						"slot": "8",
						"type": "t_mapping(t_uint256,t_uint256)"
					},
					{
						"astId": 47,
						"contract": "contracts/LunchVenue_updated.sol:LunchVenue_updated",
						"label": "voteOpen",
						"offset": 0,
						"slot": "9",
						"type": "t_bool"
					}
				],
				"types": {
					"t_address": {
						"encoding": "inplace",
						"label": "address",
						"numberOfBytes": "20"
					},
					"t_bool": {
						"encoding": "inplace",
						"label": "bool",
						"numberOfBytes": "1"
					},
					"t_mapping(t_address,t_struct(Friend)7_storage)": {
						"encoding": "mapping",
						"key": "t_address",
						"label": "mapping(address => struct LunchVenue_updated.Friend)",
						"numberOfBytes": "32",
						"value": "t_struct(Friend)7_storage"
					},
					"t_mapping(t_uint256,t_string_storage)": {
						"encoding": "mapping",
						"key": "t_uint256",
						"label": "mapping(uint256 => string)",
						"numberOfBytes": "32",
						"value": "t_string_storage"
					},
					"t_mapping(t_uint256,t_struct(Vote)12_storage)": {
						"encoding": "mapping",
						"key": "t_uint256",
						"label": "mapping(uint256 => struct LunchVenue_updated.Vote)",
						"numberOfBytes": "32",
						"value": "t_struct(Vote)12_storage"
					},
					"t_mapping(t_uint256,t_uint256)": {
						"encoding": "mapping",
						"key": "t_uint256",
						"label": "mapping(uint256 => uint256)",
						"numberOfBytes": "32",
						"value": "t_uint256"
					},
					"t_string_storage": {
						"encoding": "bytes",
						"label": "string",
						"numberOfBytes": "32"
					},
					"t_struct(Friend)7_storage": {
						"encoding": "inplace",
						"label": "struct LunchVenue_updated.Friend",
						"members": [
							{
								"astId": 4,
								"contract": "contracts/LunchVenue_updated.sol:LunchVenue_updated",
								"label": "name",
								"offset": 0,
								"slot": "0",
								"type": "t_string_storage"
							},
							{
								"astId": 6,
								"contract": "contracts/LunchVenue_updated.sol:LunchVenue_updated",
								"label": "voted",
								"offset": 0,
								"slot": "1",
								"type": "t_bool"
							}
						],
						"numberOfBytes": "64"
					},
					"t_struct(Vote)12_storage": {
						"encoding": "inplace",
						"label": "struct LunchVenue_updated.Vote",
						"members": [
							{
								"astId": 9,
								"contract": "contracts/LunchVenue_updated.sol:LunchVenue_updated",
								"label": "voterAddress",
								"offset": 0,
								"slot": "0",
								"type": "t_address"
							},
							{
								"astId": 11,
								"contract": "contracts/LunchVenue_updated.sol:LunchVenue_updated",
								"label": "restaurant",
								"offset": 0,
								"slot": "1",
								"type": "t_uint256"
							}
						],
						"numberOfBytes": "64"
					},
					"t_uint256": {
						"encoding": "inplace",
						"label": "uint256",
						"numberOfBytes": "32"
					}
				}
			},
			"userdoc": {
				"kind": "user",
				"methods": {
					"addFriend(address,string)": {
						"notice": "Add a new friend to voter list"
					},
					"addRestaurant(string)": {
						"notice": "Add a new restaurant"
					},
					"checkIfAlreadyVoted(address)": {
						"notice": "Check if a friend has already voted "
					},
					"doVote(uint256)": {
						"notice": "Vote for a restaurant"
					}
				},
				"version": 1
			}
		}
	}
}