{
	"contracts/LunchVenue_updated.sol": {
		"LunchVenue_updated": {
			"abi": [
				{
					"inputs": [],
					"stateMutability": "nonpayable",
					"type": "constructor"
				},
				{
					"inputs": [
						{
							"internalType": "address",
							"name": "friendAddress",
							"type": "address"
						},
						{
							"internalType": "string",
							"name": "name",
							"type": "string"
						}
					],
					"name": "addFriend",
					"outputs": [
						{
							"internalType": "uint256",
							"name": "",
							"type": "uint256"
						}
					],
					"stateMutability": "nonpayable",
					"type": "function"
				},
				{
					"inputs": [
						{
							"internalType": "string",
							"name": "name",
							"type": "string"
						}
					],
					"name": "addRestaurant",
					"outputs": [
						{
							"internalType": "uint256",
							"name": "",
							"type": "uint256"
						}
					],
					"stateMutability": "nonpayable",
					"type": "function"
				},
				{
					"inputs": [],
					"name": "currentStage",
					"outputs": [
						{
							"internalType": "enum LunchVenue_updated.Stage",
							"name": "",
							"type": "uint8"
						}
					],
					"stateMutability": "view",
					"type": "function"
				},
				{
					"inputs": [
						{
							"internalType": "uint256",
							"name": "restaurant",
							"type": "uint256"
						}
					],
					"name": "doVote",
					"outputs": [
						{
							"internalType": "bool",
							"name": "validVote",
							"type": "bool"
						}
					],
					"stateMutability": "nonpayable",
					"type": "function"
				},
				{
					"inputs": [],
					"name": "endVote",
					"outputs": [],
					"stateMutability": "nonpayable",
					"type": "function"
				},
				{
					"inputs": [
						{
							"internalType": "address",
							"name": "",
							"type": "address"
						}
					],
					"name": "friends",
					"outputs": [
						{
							"internalType": "string",
							"name": "name",
							"type": "string"
						},
						{
							"internalType": "bool",
							"name": "voted",
							"type": "bool"
						}
					],
					"stateMutability": "view",
					"type": "function"
				},
				{
					"inputs": [],
					"name": "manager",
					"outputs": [
						{
							"internalType": "address",
							"name": "",
							"type": "address"
						}
					],
					"stateMutability": "view",
					"type": "function"
				},
				{
					"inputs": [],
					"name": "numFriends",
					"outputs": [
						{
							"internalType": "uint256",
							"name": "",
							"type": "uint256"
						}
					],
					"stateMutability": "view",
					"type": "function"
				},
				{
					"inputs": [],
					"name": "numRestaurants",
					"outputs": [
						{
							"internalType": "uint256",
							"name": "",
							"type": "uint256"
						}
					],
					"stateMutability": "view",
					"type": "function"
				},
				{
					"inputs": [],
					"name": "numVotes",
					"outputs": [
						{
							"internalType": "uint256",
							"name": "",
							"type": "uint256"
						}
					],
					"stateMutability": "view",
					"type": "function"
				},
				{
					"inputs": [
						{
							"internalType": "uint256",
							"name": "",
							"type": "uint256"
						}
					],
					"name": "restaurants",
					"outputs": [
						{
							"internalType": "string",
							"name": "",
							"type": "string"
						}
					],
					"stateMutability": "view",
					"type": "function"
				},
				{
					"inputs": [],
					"name": "startVote",
					"outputs": [],
					"stateMutability": "nonpayable",
					"type": "function"
				},
				{
					"inputs": [],
					"name": "voteOpen",
					"outputs": [
						{
							"internalType": "bool",
							"name": "",
							"type": "bool"
						}
					],
					"stateMutability": "view",
					"type": "function"
				},
				{
					"inputs": [],
					"name": "votedRestaurant",
					"outputs": [
						{
							"internalType": "string",
							"name": "",
							"type": "string"
						}
					],
					"stateMutability": "view",
					"type": "function"
				},
				{
					"inputs": [
						{
							"internalType": "uint256",
							"name": "",
							"type": "uint256"
						}
					],
					"name": "votes",
					"outputs": [
						{
							"internalType": "address",
							"name": "voterAddress",
							"type": "address"
						},
						{
							"internalType": "uint256",
							"name": "restaurant",
							"type": "uint256"
						}
					],
					"stateMutability": "view",
					"type": "function"
				}
			],
			"devdoc": {
				"author": "Dilum Bandara, CSIRO's Data61",
				"kind": "dev",
				"methods": {
					"addFriend(address,string)": {
						"details": "To simplify the code duplication of friends is not checked --> now implemented with friendAlreadyExists modifier",
						"params": {
							"friendAddress": "Friend's account/address",
							"name": "Friend's name"
						},
						"returns": {
							"_0": "Number of friends added so far"
						}
					},
					"addRestaurant(string)": {
						"details": "To simplify the code, duplication of restaurants isn't checked --> now implemented with restaurantAlreadyExists modifier",
						"params": {
							"name": "Restaurant name"
						},
						"returns": {
							"_0": "Number of restaurants added so far"
						}
					},
					"constructor": {
						"details": "Set manager when contract starts"
					},
					"doVote(uint256)": {
						"details": "To simplify the code duplicate votes by a friend is not checked --> now implemented with votedAlready modifier",
						"params": {
							"restaurant": "Restaurant number being voted"
						},
						"returns": {
							"validVote": "Is the vote valid? A valid vote should be from a registered  friend to a registered restaurant"
						}
					}
				},
				"title": "Contract to agree on the lunch venue",
				"version": 1
			},
			"evm": {
				"assembly": "    /* \"contracts/LunchVenue_updated.sol\":157:7595  contract LunchVenue_updated{... */\n  mstore(0x40, 0x80)\n    /* \"contracts/LunchVenue_updated.sol\":438:450  Stage.CREATE */\n  0x00\n    /* \"contracts/LunchVenue_updated.sol\":410:450  Stage public currentStage = Stage.CREATE */\n  dup1\n  exp(0x0100, 0x00)\n  dup2\n  sload\n  dup2\n  0xff\n  mul\n  not\n  and\n  swap1\n  dup4\n  0x02\n  dup2\n  gt\n  iszero\n  tag_1\n  jumpi\n  tag_2\n  tag_3\n  jump\t// in\ntag_2:\ntag_1:\n  mul\n  or\n  swap1\n  sstore\n  pop\n    /* \"contracts/LunchVenue_updated.sol\":701:702  0 */\n  0x00\n    /* \"contracts/LunchVenue_updated.sol\":672:702  uint public numRestaurants = 0 */\n  0x03\n  sstore\n    /* \"contracts/LunchVenue_updated.sol\":733:734  0 */\n  0x00\n    /* \"contracts/LunchVenue_updated.sol\":708:734  uint public numFriends = 0 */\n  0x04\n  sstore\n    /* \"contracts/LunchVenue_updated.sol\":763:764  0 */\n  0x00\n    /* \"contracts/LunchVenue_updated.sol\":740:764  uint public numVotes = 0 */\n  0x05\n  sstore\n    /* \"contracts/LunchVenue_updated.sol\":837:871  string public votedRestaurant = \"\" */\n  mload(0x40)\n  dup1\n  0x20\n  add\n  0x40\n  mstore\n  dup1\n  0x00\n  dup2\n  mstore\n  pop\n  0x07\n  swap1\n  dup1\n  mload\n  swap1\n  0x20\n  add\n  swap1\n  tag_4\n  swap3\n  swap2\n  swap1\n  tag_5\n  jump\t// in\ntag_4:\n  pop\n    /* \"contracts/LunchVenue_updated.sol\":1110:1114  true */\n  0x01\n    /* \"contracts/LunchVenue_updated.sol\":1087:1114  bool public voteOpen = true */\n  0x0a\n  exp(0x0100, 0x00)\n  dup2\n  sload\n  dup2\n  0xff\n  mul\n  not\n  and\n  swap1\n  dup4\n  iszero\n  iszero\n  mul\n  or\n  swap1\n  sstore\n  pop\n    /* \"contracts/LunchVenue_updated.sol\":1214:1318  constructor () {... */\n  callvalue\n  dup1\n  iszero\n  tag_6\n  jumpi\n  0x00\n  dup1\n  revert\ntag_6:\n  pop\n    /* \"contracts/LunchVenue_updated.sol\":1249:1259  msg.sender */\n  caller\n    /* \"contracts/LunchVenue_updated.sol\":1239:1246  manager */\n  0x06\n  0x00\n    /* \"contracts/LunchVenue_updated.sol\":1239:1259  manager = msg.sender */\n  0x0100\n  exp\n  dup2\n  sload\n  dup2\n  0xffffffffffffffffffffffffffffffffffffffff\n  mul\n  not\n  and\n  swap1\n  dup4\n  0xffffffffffffffffffffffffffffffffffffffff\n  and\n  mul\n  or\n  swap1\n  sstore\n  pop\n    /* \"contracts/LunchVenue_updated.sol\":157:7595  contract LunchVenue_updated{... */\n  jump(tag_9)\ntag_5:\n  dup3\n  dup1\n  sload\n  tag_10\n  swap1\n  tag_11\n  jump\t// in\ntag_10:\n  swap1\n  0x00\n  mstore\n  keccak256(0x00, 0x20)\n  swap1\n  0x1f\n  add\n  0x20\n  swap1\n  div\n  dup2\n  add\n  swap3\n  dup3\n  tag_13\n  jumpi\n  0x00\n  dup6\n  sstore\n  jump(tag_12)\ntag_13:\n  dup3\n  0x1f\n  lt\n  tag_14\n  jumpi\n  dup1\n  mload\n  not(0xff)\n  and\n  dup4\n  dup1\n  add\n  or\n  dup6\n  sstore\n  jump(tag_12)\ntag_14:\n  dup3\n  dup1\n  add\n  0x01\n  add\n  dup6\n  sstore\n  dup3\n  iszero\n  tag_12\n  jumpi\n  swap2\n  dup3\n  add\ntag_15:\n  dup3\n  dup2\n  gt\n  iszero\n  tag_16\n  jumpi\n  dup3\n  mload\n  dup3\n  sstore\n  swap2\n  0x20\n  add\n  swap2\n  swap1\n  0x01\n  add\n  swap1\n  jump(tag_15)\ntag_16:\ntag_12:\n  pop\n  swap1\n  pop\n  tag_17\n  swap2\n  swap1\n  tag_18\n  jump\t// in\ntag_17:\n  pop\n  swap1\n  jump\t// out\ntag_18:\ntag_19:\n  dup1\n  dup3\n  gt\n  iszero\n  tag_20\n  jumpi\n  0x00\n  dup2\n  0x00\n  swap1\n  sstore\n  pop\n  0x01\n  add\n  jump(tag_19)\ntag_20:\n  pop\n  swap1\n  jump\t// out\n    /* \"#utility.yul\":7:327   */\ntag_11:\n    /* \"#utility.yul\":51:57   */\n  0x00\n    /* \"#utility.yul\":88:89   */\n  0x02\n    /* \"#utility.yul\":82:86   */\n  dup3\n    /* \"#utility.yul\":78:90   */\n  div\n    /* \"#utility.yul\":68:90   */\n  swap1\n  pop\n    /* \"#utility.yul\":135:136   */\n  0x01\n    /* \"#utility.yul\":129:133   */\n  dup3\n    /* \"#utility.yul\":125:137   */\n  and\n    /* \"#utility.yul\":156:174   */\n  dup1\n    /* \"#utility.yul\":146:148   */\n  tag_23\n  jumpi\n    /* \"#utility.yul\":212:216   */\n  0x7f\n    /* \"#utility.yul\":204:210   */\n  dup3\n    /* \"#utility.yul\":200:217   */\n  and\n    /* \"#utility.yul\":190:217   */\n  swap2\n  pop\n    /* \"#utility.yul\":146:148   */\ntag_23:\n    /* \"#utility.yul\":274:276   */\n  0x20\n    /* \"#utility.yul\":266:272   */\n  dup3\n    /* \"#utility.yul\":263:277   */\n  lt\n    /* \"#utility.yul\":243:261   */\n  dup2\n    /* \"#utility.yul\":240:278   */\n  eq\n    /* \"#utility.yul\":237:239   */\n  iszero\n  tag_24\n  jumpi\n    /* \"#utility.yul\":293:311   */\n  tag_25\n  tag_26\n  jump\t// in\ntag_25:\n    /* \"#utility.yul\":237:239   */\ntag_24:\n    /* \"#utility.yul\":58:327   */\n  pop\n  swap2\n  swap1\n  pop\n  jump\t// out\n    /* \"#utility.yul\":333:513   */\ntag_3:\n    /* \"#utility.yul\":381:458   */\n  0x4e487b7100000000000000000000000000000000000000000000000000000000\n    /* \"#utility.yul\":378:379   */\n  0x00\n    /* \"#utility.yul\":371:459   */\n  mstore\n    /* \"#utility.yul\":478:482   */\n  0x21\n    /* \"#utility.yul\":475:476   */\n  0x04\n    /* \"#utility.yul\":468:483   */\n  mstore\n    /* \"#utility.yul\":502:506   */\n  0x24\n    /* \"#utility.yul\":499:500   */\n  0x00\n    /* \"#utility.yul\":492:507   */\n  revert\n    /* \"#utility.yul\":519:699   */\ntag_26:\n    /* \"#utility.yul\":567:644   */\n  0x4e487b7100000000000000000000000000000000000000000000000000000000\n    /* \"#utility.yul\":564:565   */\n  0x00\n    /* \"#utility.yul\":557:645   */\n  mstore\n    /* \"#utility.yul\":664:668   */\n  0x22\n    /* \"#utility.yul\":661:662   */\n  0x04\n    /* \"#utility.yul\":654:669   */\n  mstore\n    /* \"#utility.yul\":688:692   */\n  0x24\n    /* \"#utility.yul\":685:686   */\n  0x00\n    /* \"#utility.yul\":678:693   */\n  revert\n    /* \"contracts/LunchVenue_updated.sol\":157:7595  contract LunchVenue_updated{... */\ntag_9:\n  dataSize(sub_0)\n  dup1\n  dataOffset(sub_0)\n  0x00\n  codecopy\n  0x00\n  return\nstop\n\nsub_0: assembly {\n        /* \"contracts/LunchVenue_updated.sol\":157:7595  contract LunchVenue_updated{... */\n      mstore(0x40, 0x80)\n      callvalue\n      dup1\n      iszero\n      tag_1\n      jumpi\n      0x00\n      dup1\n      revert\n    tag_1:\n      pop\n      jumpi(tag_2, lt(calldatasize, 0x04))\n      shr(0xe0, calldataload(0x00))\n      dup1\n      0x5df81330\n      gt\n      tag_18\n      jumpi\n      dup1\n      0xad5461d8\n      gt\n      tag_19\n      jumpi\n      dup1\n      0xad5461d8\n      eq\n      tag_14\n      jumpi\n      dup1\n      0xb798867f\n      eq\n      tag_15\n      jumpi\n      dup1\n      0xb9223946\n      eq\n      tag_16\n      jumpi\n      dup1\n      0xc1c16efc\n      eq\n      tag_17\n      jumpi\n      jump(tag_2)\n    tag_19:\n      dup1\n      0x5df81330\n      eq\n      tag_10\n      jumpi\n      dup1\n      0x6d77bd3e\n      eq\n      tag_11\n      jumpi\n      dup1\n      0x788d3851\n      eq\n      tag_12\n      jumpi\n      dup1\n      0xa3bef4d7\n      eq\n      tag_13\n      jumpi\n      jump(tag_2)\n    tag_18:\n      dup1\n      0x47098f36\n      gt\n      tag_20\n      jumpi\n      dup1\n      0x47098f36\n      eq\n      tag_6\n      jumpi\n      dup1\n      0x481c6a75\n      eq\n      tag_7\n      jumpi\n      dup1\n      0x4c0a6af0\n      eq\n      tag_8\n      jumpi\n      dup1\n      0x5bf5d54c\n      eq\n      tag_9\n      jumpi\n      jump(tag_2)\n    tag_20:\n      dup1\n      0x124258c6\n      eq\n      tag_3\n      jumpi\n      dup1\n      0x1ddabf7a\n      eq\n      tag_4\n      jumpi\n      dup1\n      0x3b9f708d\n      eq\n      tag_5\n      jumpi\n    tag_2:\n      0x00\n      dup1\n      revert\n        /* \"contracts/LunchVenue_updated.sol\":3254:4092  function doVote(uint restaurant) public votingOpen votedAlready(msg.sender) inStage(Stage.VOTE_OPEN) returns (bool validVote){... */\n    tag_3:\n      tag_21\n      0x04\n      dup1\n      calldatasize\n      sub\n      dup2\n      add\n      swap1\n      tag_22\n      swap2\n      swap1\n      tag_23\n      jump\t// in\n    tag_22:\n      tag_24\n      jump\t// in\n    tag_21:\n      mload(0x40)\n      tag_25\n      swap2\n      swap1\n      tag_26\n      jump\t// in\n    tag_25:\n      mload(0x40)\n      dup1\n      swap2\n      sub\n      swap1\n      return\n        /* \"contracts/LunchVenue_updated.sol\":588:629  mapping(address => Friend) public friends */\n    tag_4:\n      tag_27\n      0x04\n      dup1\n      calldatasize\n      sub\n      dup2\n      add\n      swap1\n      tag_28\n      swap2\n      swap1\n      tag_29\n      jump\t// in\n    tag_28:\n      tag_30\n      jump\t// in\n    tag_27:\n      mload(0x40)\n      tag_31\n      swap3\n      swap2\n      swap1\n      tag_32\n      jump\t// in\n    tag_31:\n      mload(0x40)\n      dup1\n      swap2\n      sub\n      swap1\n      return\n        /* \"contracts/LunchVenue_updated.sol\":2567:2883  function addFriend(address friendAddress, string memory name) public restricted friendAlreadyExists(friendAddress) inStage(Stage.CREATE) returns (uint){... */\n    tag_5:\n      tag_33\n      0x04\n      dup1\n      calldatasize\n      sub\n      dup2\n      add\n      swap1\n      tag_34\n      swap2\n      swap1\n      tag_35\n      jump\t// in\n    tag_34:\n      tag_36\n      jump\t// in\n    tag_33:\n      mload(0x40)\n      tag_37\n      swap2\n      swap1\n      tag_38\n      jump\t// in\n    tag_37:\n      mload(0x40)\n      dup1\n      swap2\n      sub\n      swap1\n      return\n        /* \"contracts/LunchVenue_updated.sol\":708:734  uint public numFriends = 0 */\n    tag_6:\n      tag_39\n      tag_40\n      jump\t// in\n    tag_39:\n      mload(0x40)\n      tag_41\n      swap2\n      swap1\n      tag_38\n      jump\t// in\n    tag_41:\n      mload(0x40)\n      dup1\n      swap2\n      sub\n      swap1\n      return\n        /* \"contracts/LunchVenue_updated.sol\":770:792  address public manager */\n    tag_7:\n      tag_42\n      tag_43\n      jump\t// in\n    tag_42:\n      mload(0x40)\n      tag_44\n      swap2\n      swap1\n      tag_45\n      jump\t// in\n    tag_44:\n      mload(0x40)\n      dup1\n      swap2\n      sub\n      swap1\n      return\n        /* \"contracts/LunchVenue_updated.sol\":1375:1483  function startVote() public restricted inStage(Stage.CREATE) {... */\n    tag_8:\n      tag_46\n      tag_47\n      jump\t// in\n    tag_46:\n      stop\n        /* \"contracts/LunchVenue_updated.sol\":410:450  Stage public currentStage = Stage.CREATE */\n    tag_9:\n      tag_48\n      tag_49\n      jump\t// in\n    tag_48:\n      mload(0x40)\n      tag_50\n      swap2\n      swap1\n      tag_51\n      jump\t// in\n    tag_50:\n      mload(0x40)\n      dup1\n      swap2\n      sub\n      swap1\n      return\n        /* \"contracts/LunchVenue_updated.sol\":908:943  mapping (uint => Vote) public votes */\n    tag_10:\n      tag_52\n      0x04\n      dup1\n      calldatasize\n      sub\n      dup2\n      add\n      swap1\n      tag_53\n      swap2\n      swap1\n      tag_23\n      jump\t// in\n    tag_53:\n      tag_54\n      jump\t// in\n    tag_52:\n      mload(0x40)\n      tag_55\n      swap3\n      swap2\n      swap1\n      tag_56\n      jump\t// in\n    tag_55:\n      mload(0x40)\n      dup1\n      swap2\n      sub\n      swap1\n      return\n        /* \"contracts/LunchVenue_updated.sol\":2000:2235  function addRestaurant(string memory name) public restricted restaurantAlreadyExists(name) inStage(Stage.CREATE) returns (uint){... */\n    tag_11:\n      tag_57\n      0x04\n      dup1\n      calldatasize\n      sub\n      dup2\n      add\n      swap1\n      tag_58\n      swap2\n      swap1\n      tag_59\n      jump\t// in\n    tag_58:\n      tag_60\n      jump\t// in\n    tag_57:\n      mload(0x40)\n      tag_61\n      swap2\n      swap1\n      tag_38\n      jump\t// in\n    tag_61:\n      mload(0x40)\n      dup1\n      swap2\n      sub\n      swap1\n      return\n        /* \"contracts/LunchVenue_updated.sol\":1087:1114  bool public voteOpen = true */\n    tag_12:\n      tag_62\n      tag_63\n      jump\t// in\n    tag_62:\n      mload(0x40)\n      tag_64\n      swap2\n      swap1\n      tag_26\n      jump\t// in\n    tag_64:\n      mload(0x40)\n      dup1\n      swap2\n      sub\n      swap1\n      return\n        /* \"contracts/LunchVenue_updated.sol\":740:764  uint public numVotes = 0 */\n    tag_13:\n      tag_65\n      tag_66\n      jump\t// in\n    tag_65:\n      mload(0x40)\n      tag_67\n      swap2\n      swap1\n      tag_38\n      jump\t// in\n    tag_67:\n      mload(0x40)\n      dup1\n      swap2\n      sub\n      swap1\n      return\n        /* \"contracts/LunchVenue_updated.sol\":495:538  mapping (uint => string) public restaurants */\n    tag_14:\n      tag_68\n      0x04\n      dup1\n      calldatasize\n      sub\n      dup2\n      add\n      swap1\n      tag_69\n      swap2\n      swap1\n      tag_23\n      jump\t// in\n    tag_69:\n      tag_70\n      jump\t// in\n    tag_68:\n      mload(0x40)\n      tag_71\n      swap2\n      swap1\n      tag_72\n      jump\t// in\n    tag_71:\n      mload(0x40)\n      dup1\n      swap2\n      sub\n      swap1\n      return\n        /* \"contracts/LunchVenue_updated.sol\":672:702  uint public numRestaurants = 0 */\n    tag_15:\n      tag_73\n      tag_74\n      jump\t// in\n    tag_73:\n      mload(0x40)\n      tag_75\n      swap2\n      swap1\n      tag_38\n      jump\t// in\n    tag_75:\n      mload(0x40)\n      dup1\n      swap2\n      sub\n      swap1\n      return\n        /* \"contracts/LunchVenue_updated.sol\":1538:1717  function endVote() public restricted inStage(Stage.VOTE_OPEN) quorumIsMet { //only end it when quorum is met... */\n    tag_16:\n      tag_76\n      tag_77\n      jump\t// in\n    tag_76:\n      stop\n        /* \"contracts/LunchVenue_updated.sol\":837:871  string public votedRestaurant = \"\" */\n    tag_17:\n      tag_78\n      tag_79\n      jump\t// in\n    tag_78:\n      mload(0x40)\n      tag_80\n      swap2\n      swap1\n      tag_72\n      jump\t// in\n    tag_80:\n      mload(0x40)\n      dup1\n      swap2\n      sub\n      swap1\n      return\n        /* \"contracts/LunchVenue_updated.sol\":3254:4092  function doVote(uint restaurant) public votingOpen votedAlready(msg.sender) inStage(Stage.VOTE_OPEN) returns (bool validVote){... */\n    tag_24:\n        /* \"contracts/LunchVenue_updated.sol\":3364:3378  bool validVote */\n      0x00\n        /* \"contracts/LunchVenue_updated.sol\":5324:5328  true */\n      0x01\n        /* \"contracts/LunchVenue_updated.sol\":5312:5328  voteOpen == true */\n      iszero\n      iszero\n        /* \"contracts/LunchVenue_updated.sol\":5312:5320  voteOpen */\n      0x0a\n      0x00\n      swap1\n      sload\n      swap1\n      0x0100\n      exp\n      swap1\n      div\n      0xff\n      and\n        /* \"contracts/LunchVenue_updated.sol\":5312:5328  voteOpen == true */\n      iszero\n      iszero\n      eq\n        /* \"contracts/LunchVenue_updated.sol\":5304:5368  require(voteOpen == true, \"Can vote only while voting is open.\") */\n      tag_82\n      jumpi\n      mload(0x40)\n      0x08c379a000000000000000000000000000000000000000000000000000000000\n      dup2\n      mstore\n      0x04\n      add\n      tag_83\n      swap1\n      tag_84\n      jump\t// in\n    tag_83:\n      mload(0x40)\n      dup1\n      swap2\n      sub\n      swap1\n      revert\n    tag_82:\n        /* \"contracts/LunchVenue_updated.sol\":3318:3328  msg.sender */\n      caller\n        /* \"contracts/LunchVenue_updated.sol\":5537:5542  false */\n      0x00\n        /* \"contracts/LunchVenue_updated.sol\":5505:5542  friends[friendAddress].voted == false */\n      iszero\n      iszero\n        /* \"contracts/LunchVenue_updated.sol\":5505:5512  friends */\n      0x02\n        /* \"contracts/LunchVenue_updated.sol\":5505:5527  friends[friendAddress] */\n      0x00\n        /* \"contracts/LunchVenue_updated.sol\":5513:5526  friendAddress */\n      dup4\n        /* \"contracts/LunchVenue_updated.sol\":5505:5527  friends[friendAddress] */\n      0xffffffffffffffffffffffffffffffffffffffff\n      and\n      0xffffffffffffffffffffffffffffffffffffffff\n      and\n      dup2\n      mstore\n      0x20\n      add\n      swap1\n      dup2\n      mstore\n      0x20\n      add\n      0x00\n      keccak256\n        /* \"contracts/LunchVenue_updated.sol\":5505:5533  friends[friendAddress].voted */\n      0x01\n      add\n      0x00\n      swap1\n      sload\n      swap1\n      0x0100\n      exp\n      swap1\n      div\n      0xff\n      and\n        /* \"contracts/LunchVenue_updated.sol\":5505:5542  friends[friendAddress].voted == false */\n      iszero\n      iszero\n      eq\n        /* \"contracts/LunchVenue_updated.sol\":5497:5566  require(friends[friendAddress].voted == false, \"Can only vote once.\") */\n      tag_86\n      jumpi\n      mload(0x40)\n      0x08c379a000000000000000000000000000000000000000000000000000000000\n      dup2\n      mstore\n      0x04\n      add\n      tag_87\n      swap1\n      tag_88\n      jump\t// in\n    tag_87:\n      mload(0x40)\n      dup1\n      swap2\n      sub\n      swap1\n      revert\n    tag_86:\n        /* \"contracts/LunchVenue_updated.sol\":3338:3353  Stage.VOTE_OPEN */\n      0x01\n        /* \"contracts/LunchVenue_updated.sol\":7208:7213  stage */\n      dup1\n        /* \"contracts/LunchVenue_updated.sol\":7192:7213  currentStage == stage */\n      0x02\n      dup2\n      gt\n      iszero\n      tag_90\n      jumpi\n      tag_91\n      tag_92\n      jump\t// in\n    tag_91:\n    tag_90:\n        /* \"contracts/LunchVenue_updated.sol\":7192:7204  currentStage */\n      0x00\n      dup1\n      sload\n      swap1\n      0x0100\n      exp\n      swap1\n      div\n      0xff\n      and\n        /* \"contracts/LunchVenue_updated.sol\":7192:7213  currentStage == stage */\n      0x02\n      dup2\n      gt\n      iszero\n      tag_93\n      jumpi\n      tag_94\n      tag_92\n      jump\t// in\n    tag_94:\n    tag_93:\n      eq\n        /* \"contracts/LunchVenue_updated.sol\":7184:7259  require(currentStage == stage, \"Function can not be called in this stage.\") */\n      tag_95\n      jumpi\n      mload(0x40)\n      0x08c379a000000000000000000000000000000000000000000000000000000000\n      dup2\n      mstore\n      0x04\n      add\n      tag_96\n      swap1\n      tag_97\n      jump\t// in\n    tag_96:\n      mload(0x40)\n      dup1\n      swap2\n      sub\n      swap1\n      revert\n    tag_95:\n        /* \"contracts/LunchVenue_updated.sol\":3401:3406  false */\n      0x00\n        /* \"contracts/LunchVenue_updated.sol\":3389:3406  validVote = false */\n      swap3\n      pop\n        /* \"contracts/LunchVenue_updated.sol\":3516:3517  0 */\n      0x00\n        /* \"contracts/LunchVenue_updated.sol\":3480:3487  friends */\n      0x02\n        /* \"contracts/LunchVenue_updated.sol\":3480:3499  friends[msg.sender] */\n      0x00\n        /* \"contracts/LunchVenue_updated.sol\":3488:3498  msg.sender */\n      caller\n        /* \"contracts/LunchVenue_updated.sol\":3480:3499  friends[msg.sender] */\n      0xffffffffffffffffffffffffffffffffffffffff\n      and\n      0xffffffffffffffffffffffffffffffffffffffff\n      and\n      dup2\n      mstore\n      0x20\n      add\n      swap1\n      dup2\n      mstore\n      0x20\n      add\n      0x00\n      keccak256\n        /* \"contracts/LunchVenue_updated.sol\":3480:3504  friends[msg.sender].name */\n      0x00\n      add\n        /* \"contracts/LunchVenue_updated.sol\":3474:3512  bytes(friends[msg.sender].name).length */\n      dup1\n      sload\n      tag_99\n      swap1\n      tag_100\n      jump\t// in\n    tag_99:\n      swap1\n      pop\n        /* \"contracts/LunchVenue_updated.sol\":3474:3517  bytes(friends[msg.sender].name).length != 0 */\n      eq\n        /* \"contracts/LunchVenue_updated.sol\":3470:3923  if (bytes(friends[msg.sender].name).length != 0) {  //Does friend exist?... */\n      tag_101\n      jumpi\n        /* \"contracts/LunchVenue_updated.sol\":3600:3601  0 */\n      0x00\n        /* \"contracts/LunchVenue_updated.sol\":3565:3576  restaurants */\n      0x01\n        /* \"contracts/LunchVenue_updated.sol\":3565:3588  restaurants[restaurant] */\n      0x00\n        /* \"contracts/LunchVenue_updated.sol\":3577:3587  restaurant */\n      dup7\n        /* \"contracts/LunchVenue_updated.sol\":3565:3588  restaurants[restaurant] */\n      dup2\n      mstore\n      0x20\n      add\n      swap1\n      dup2\n      mstore\n      0x20\n      add\n      0x00\n      keccak256\n        /* \"contracts/LunchVenue_updated.sol\":3559:3596  bytes(restaurants[restaurant]).length */\n      dup1\n      sload\n      tag_102\n      swap1\n      tag_100\n      jump\t// in\n    tag_102:\n      swap1\n      pop\n        /* \"contracts/LunchVenue_updated.sol\":3559:3601  bytes(restaurants[restaurant]).length != 0 */\n      eq\n        /* \"contracts/LunchVenue_updated.sol\":3555:3913  if (bytes(restaurants[restaurant]).length != 0) {   //Does restaurant exist?... */\n      tag_103\n      jumpi\n        /* \"contracts/LunchVenue_updated.sol\":3660:3664  true */\n      0x01\n        /* \"contracts/LunchVenue_updated.sol\":3648:3664  validVote = true */\n      swap3\n      pop\n        /* \"contracts/LunchVenue_updated.sol\":3710:3714  true */\n      0x01\n        /* \"contracts/LunchVenue_updated.sol\":3682:3689  friends */\n      0x02\n        /* \"contracts/LunchVenue_updated.sol\":3682:3701  friends[msg.sender] */\n      0x00\n        /* \"contracts/LunchVenue_updated.sol\":3690:3700  msg.sender */\n      caller\n        /* \"contracts/LunchVenue_updated.sol\":3682:3701  friends[msg.sender] */\n      0xffffffffffffffffffffffffffffffffffffffff\n      and\n      0xffffffffffffffffffffffffffffffffffffffff\n      and\n      dup2\n      mstore\n      0x20\n      add\n      swap1\n      dup2\n      mstore\n      0x20\n      add\n      0x00\n      keccak256\n        /* \"contracts/LunchVenue_updated.sol\":3682:3707  friends[msg.sender].voted */\n      0x01\n      add\n      0x00\n        /* \"contracts/LunchVenue_updated.sol\":3682:3714  friends[msg.sender].voted = true */\n      0x0100\n      exp\n      dup2\n      sload\n      dup2\n      0xff\n      mul\n      not\n      and\n      swap1\n      dup4\n      iszero\n      iszero\n      mul\n      or\n      swap1\n      sstore\n      pop\n        /* \"contracts/LunchVenue_updated.sol\":3732:3745  Vote memory v */\n      tag_104\n      tag_105\n      jump\t// in\n    tag_104:\n        /* \"contracts/LunchVenue_updated.sol\":3780:3790  msg.sender */\n      caller\n        /* \"contracts/LunchVenue_updated.sol\":3763:3764  v */\n      dup2\n        /* \"contracts/LunchVenue_updated.sol\":3763:3777  v.voterAddress */\n      0x00\n      add\n        /* \"contracts/LunchVenue_updated.sol\":3763:3790  v.voterAddress = msg.sender */\n      swap1\n      0xffffffffffffffffffffffffffffffffffffffff\n      and\n      swap1\n      dup2\n      0xffffffffffffffffffffffffffffffffffffffff\n      and\n      dup2\n      mstore\n      pop\n      pop\n        /* \"contracts/LunchVenue_updated.sol\":3823:3833  restaurant */\n      dup5\n        /* \"contracts/LunchVenue_updated.sol\":3808:3809  v */\n      dup2\n        /* \"contracts/LunchVenue_updated.sol\":3808:3820  v.restaurant */\n      0x20\n      add\n        /* \"contracts/LunchVenue_updated.sol\":3808:3833  v.restaurant = restaurant */\n      dup2\n      dup2\n      mstore\n      pop\n      pop\n        /* \"contracts/LunchVenue_updated.sol\":3851:3859  numVotes */\n      0x05\n      0x00\n        /* \"contracts/LunchVenue_updated.sol\":3851:3861  numVotes++ */\n      dup2\n      sload\n      dup1\n      swap3\n      swap2\n      swap1\n      tag_106\n      swap1\n      tag_107\n      jump\t// in\n    tag_106:\n      swap2\n      swap1\n      pop\n      sstore\n      pop\n        /* \"contracts/LunchVenue_updated.sol\":3897:3898  v */\n      dup1\n        /* \"contracts/LunchVenue_updated.sol\":3879:3884  votes */\n      0x08\n        /* \"contracts/LunchVenue_updated.sol\":3879:3894  votes[numVotes] */\n      0x00\n        /* \"contracts/LunchVenue_updated.sol\":3885:3893  numVotes */\n      sload(0x05)\n        /* \"contracts/LunchVenue_updated.sol\":3879:3894  votes[numVotes] */\n      dup2\n      mstore\n      0x20\n      add\n      swap1\n      dup2\n      mstore\n      0x20\n      add\n      0x00\n      keccak256\n        /* \"contracts/LunchVenue_updated.sol\":3879:3898  votes[numVotes] = v */\n      0x00\n      dup3\n      add\n      mload\n      dup2\n      0x00\n      add\n      exp(0x0100, 0x00)\n      dup2\n      sload\n      dup2\n      0xffffffffffffffffffffffffffffffffffffffff\n      mul\n      not\n      and\n      swap1\n      dup4\n      0xffffffffffffffffffffffffffffffffffffffff\n      and\n      mul\n      or\n      swap1\n      sstore\n      pop\n      0x20\n      dup3\n      add\n      mload\n      dup2\n      0x01\n      add\n      sstore\n      swap1\n      pop\n      pop\n        /* \"contracts/LunchVenue_updated.sol\":3603:3913  {   //Does restaurant exist?... */\n      pop\n        /* \"contracts/LunchVenue_updated.sol\":3555:3913  if (bytes(restaurants[restaurant]).length != 0) {   //Does restaurant exist?... */\n    tag_103:\n        /* \"contracts/LunchVenue_updated.sol\":3470:3923  if (bytes(friends[msg.sender].name).length != 0) {  //Does friend exist?... */\n    tag_101:\n        /* \"contracts/LunchVenue_updated.sol\":5620:5621  _ */\n      pop\n        /* \"contracts/LunchVenue_updated.sol\":5378:5379  _ */\n      pop\n        /* \"contracts/LunchVenue_updated.sol\":3254:4092  function doVote(uint restaurant) public votingOpen votedAlready(msg.sender) inStage(Stage.VOTE_OPEN) returns (bool validVote){... */\n      swap2\n      swap1\n      pop\n      jump\t// out\n        /* \"contracts/LunchVenue_updated.sol\":588:629  mapping(address => Friend) public friends */\n    tag_30:\n      mstore(0x20, 0x02)\n      dup1\n      0x00\n      mstore\n      keccak256(0x00, 0x40)\n      0x00\n      swap2\n      pop\n      swap1\n      pop\n      dup1\n      0x00\n      add\n      dup1\n      sload\n      tag_108\n      swap1\n      tag_100\n      jump\t// in\n    tag_108:\n      dup1\n      0x1f\n      add\n      0x20\n      dup1\n      swap2\n      div\n      mul\n      0x20\n      add\n      mload(0x40)\n      swap1\n      dup2\n      add\n      0x40\n      mstore\n      dup1\n      swap3\n      swap2\n      swap1\n      dup2\n      dup2\n      mstore\n      0x20\n      add\n      dup3\n      dup1\n      sload\n      tag_109\n      swap1\n      tag_100\n      jump\t// in\n    tag_109:\n      dup1\n      iszero\n      tag_110\n      jumpi\n      dup1\n      0x1f\n      lt\n      tag_111\n      jumpi\n      0x0100\n      dup1\n      dup4\n      sload\n      div\n      mul\n      dup4\n      mstore\n      swap2\n      0x20\n      add\n      swap2\n      jump(tag_110)\n    tag_111:\n      dup3\n      add\n      swap2\n      swap1\n      0x00\n      mstore\n      keccak256(0x00, 0x20)\n      swap1\n    tag_112:\n      dup2\n      sload\n      dup2\n      mstore\n      swap1\n      0x01\n      add\n      swap1\n      0x20\n      add\n      dup1\n      dup4\n      gt\n      tag_112\n      jumpi\n      dup3\n      swap1\n      sub\n      0x1f\n      and\n      dup3\n      add\n      swap2\n    tag_110:\n      pop\n      pop\n      pop\n      pop\n      pop\n      swap1\n      dup1\n      0x01\n      add\n      0x00\n      swap1\n      sload\n      swap1\n      0x0100\n      exp\n      swap1\n      div\n      0xff\n      and\n      swap1\n      pop\n      dup3\n      jump\t// out\n        /* \"contracts/LunchVenue_updated.sol\":2567:2883  function addFriend(address friendAddress, string memory name) public restricted friendAlreadyExists(friendAddress) inStage(Stage.CREATE) returns (uint){... */\n    tag_36:\n        /* \"contracts/LunchVenue_updated.sol\":2713:2717  uint */\n      0x00\n        /* \"contracts/LunchVenue_updated.sol\":5135:5142  manager */\n      0x06\n      0x00\n      swap1\n      sload\n      swap1\n      0x0100\n      exp\n      swap1\n      div\n      0xffffffffffffffffffffffffffffffffffffffff\n      and\n        /* \"contracts/LunchVenue_updated.sol\":5121:5142  msg.sender == manager */\n      0xffffffffffffffffffffffffffffffffffffffff\n      and\n        /* \"contracts/LunchVenue_updated.sol\":5121:5131  msg.sender */\n      caller\n        /* \"contracts/LunchVenue_updated.sol\":5121:5142  msg.sender == manager */\n      0xffffffffffffffffffffffffffffffffffffffff\n      and\n      eq\n        /* \"contracts/LunchVenue_updated.sol\":5112:5182  require (msg.sender == manager, \"Can only be executed by the manager\") */\n      tag_114\n      jumpi\n      mload(0x40)\n      0x08c379a000000000000000000000000000000000000000000000000000000000\n      dup2\n      mstore\n      0x04\n      add\n      tag_115\n      swap1\n      tag_116\n      jump\t// in\n    tag_115:\n      mload(0x40)\n      dup1\n      swap2\n      sub\n      swap1\n      revert\n    tag_114:\n        /* \"contracts/LunchVenue_updated.sol\":2667:2680  friendAddress */\n      dup3\n        /* \"contracts/LunchVenue_updated.sol\":6487:6488  0 */\n      0x00\n        /* \"contracts/LunchVenue_updated.sol\":6448:6455  friends */\n      0x02\n        /* \"contracts/LunchVenue_updated.sol\":6448:6470  friends[friendAddress] */\n      0x00\n        /* \"contracts/LunchVenue_updated.sol\":6456:6469  friendAddress */\n      dup4\n        /* \"contracts/LunchVenue_updated.sol\":6448:6470  friends[friendAddress] */\n      0xffffffffffffffffffffffffffffffffffffffff\n      and\n      0xffffffffffffffffffffffffffffffffffffffff\n      and\n      dup2\n      mstore\n      0x20\n      add\n      swap1\n      dup2\n      mstore\n      0x20\n      add\n      0x00\n      keccak256\n        /* \"contracts/LunchVenue_updated.sol\":6448:6475  friends[friendAddress].name */\n      0x00\n      add\n        /* \"contracts/LunchVenue_updated.sol\":6442:6483  bytes(friends[friendAddress].name).length */\n      dup1\n      sload\n      tag_118\n      swap1\n      tag_100\n      jump\t// in\n    tag_118:\n      swap1\n      pop\n        /* \"contracts/LunchVenue_updated.sol\":6442:6488  bytes(friends[friendAddress].name).length == 0 */\n      eq\n        /* \"contracts/LunchVenue_updated.sol\":6434:6514  require(bytes(friends[friendAddress].name).length == 0, \"Friend already exists\") */\n      tag_119\n      jumpi\n      mload(0x40)\n      0x08c379a000000000000000000000000000000000000000000000000000000000\n      dup2\n      mstore\n      0x04\n      add\n      tag_120\n      swap1\n      tag_121\n      jump\t// in\n    tag_120:\n      mload(0x40)\n      dup1\n      swap2\n      sub\n      swap1\n      revert\n    tag_119:\n        /* \"contracts/LunchVenue_updated.sol\":2690:2702  Stage.CREATE */\n      0x00\n        /* \"contracts/LunchVenue_updated.sol\":7208:7213  stage */\n      dup1\n        /* \"contracts/LunchVenue_updated.sol\":7192:7213  currentStage == stage */\n      0x02\n      dup2\n      gt\n      iszero\n      tag_123\n      jumpi\n      tag_124\n      tag_92\n      jump\t// in\n    tag_124:\n    tag_123:\n        /* \"contracts/LunchVenue_updated.sol\":7192:7204  currentStage */\n      0x00\n      dup1\n      sload\n      swap1\n      0x0100\n      exp\n      swap1\n      div\n      0xff\n      and\n        /* \"contracts/LunchVenue_updated.sol\":7192:7213  currentStage == stage */\n      0x02\n      dup2\n      gt\n      iszero\n      tag_125\n      jumpi\n      tag_126\n      tag_92\n      jump\t// in\n    tag_126:\n    tag_125:\n      eq\n        /* \"contracts/LunchVenue_updated.sol\":7184:7259  require(currentStage == stage, \"Function can not be called in this stage.\") */\n      tag_127\n      jumpi\n      mload(0x40)\n      0x08c379a000000000000000000000000000000000000000000000000000000000\n      dup2\n      mstore\n      0x04\n      add\n      tag_128\n      swap1\n      tag_97\n      jump\t// in\n    tag_128:\n      mload(0x40)\n      dup1\n      swap2\n      sub\n      swap1\n      revert\n    tag_127:\n        /* \"contracts/LunchVenue_updated.sol\":2728:2743  Friend memory f */\n      tag_130\n      tag_131\n      jump\t// in\n    tag_130:\n        /* \"contracts/LunchVenue_updated.sol\":2762:2766  name */\n      dup5\n        /* \"contracts/LunchVenue_updated.sol\":2753:2754  f */\n      dup2\n        /* \"contracts/LunchVenue_updated.sol\":2753:2759  f.name */\n      0x00\n      add\n        /* \"contracts/LunchVenue_updated.sol\":2753:2766  f.name = name */\n      dup2\n      swap1\n      mstore\n      pop\n        /* \"contracts/LunchVenue_updated.sol\":2786:2791  false */\n      0x00\n        /* \"contracts/LunchVenue_updated.sol\":2776:2777  f */\n      dup2\n        /* \"contracts/LunchVenue_updated.sol\":2776:2783  f.voted */\n      0x20\n      add\n        /* \"contracts/LunchVenue_updated.sol\":2776:2791  f.voted = false */\n      swap1\n      iszero\n      iszero\n      swap1\n      dup2\n      iszero\n      iszero\n      dup2\n      mstore\n      pop\n      pop\n        /* \"contracts/LunchVenue_updated.sol\":2826:2827  f */\n      dup1\n        /* \"contracts/LunchVenue_updated.sol\":2801:2808  friends */\n      0x02\n        /* \"contracts/LunchVenue_updated.sol\":2801:2823  friends[friendAddress] */\n      0x00\n        /* \"contracts/LunchVenue_updated.sol\":2809:2822  friendAddress */\n      dup9\n        /* \"contracts/LunchVenue_updated.sol\":2801:2823  friends[friendAddress] */\n      0xffffffffffffffffffffffffffffffffffffffff\n      and\n      0xffffffffffffffffffffffffffffffffffffffff\n      and\n      dup2\n      mstore\n      0x20\n      add\n      swap1\n      dup2\n      mstore\n      0x20\n      add\n      0x00\n      keccak256\n        /* \"contracts/LunchVenue_updated.sol\":2801:2827  friends[friendAddress] = f */\n      0x00\n      dup3\n      add\n      mload\n      dup2\n      0x00\n      add\n      swap1\n      dup1\n      mload\n      swap1\n      0x20\n      add\n      swap1\n      tag_132\n      swap3\n      swap2\n      swap1\n      tag_133\n      jump\t// in\n    tag_132:\n      pop\n      0x20\n      dup3\n      add\n      mload\n      dup2\n      0x01\n      add\n      exp(0x0100, 0x00)\n      dup2\n      sload\n      dup2\n      0xff\n      mul\n      not\n      and\n      swap1\n      dup4\n      iszero\n      iszero\n      mul\n      or\n      swap1\n      sstore\n      pop\n      swap1\n      pop\n      pop\n        /* \"contracts/LunchVenue_updated.sol\":2837:2847  numFriends */\n      0x04\n      0x00\n        /* \"contracts/LunchVenue_updated.sol\":2837:2849  numFriends++ */\n      dup2\n      sload\n      dup1\n      swap3\n      swap2\n      swap1\n      tag_134\n      swap1\n      tag_107\n      jump\t// in\n    tag_134:\n      swap2\n      swap1\n      pop\n      sstore\n      pop\n        /* \"contracts/LunchVenue_updated.sol\":2866:2876  numFriends */\n      sload(0x04)\n        /* \"contracts/LunchVenue_updated.sol\":2859:2876  return numFriends */\n      swap4\n      pop\n      pop\n        /* \"contracts/LunchVenue_updated.sol\":6524:6525  _ */\n      pop\n        /* \"contracts/LunchVenue_updated.sol\":5192:5193  _ */\n      pop\n        /* \"contracts/LunchVenue_updated.sol\":2567:2883  function addFriend(address friendAddress, string memory name) public restricted friendAlreadyExists(friendAddress) inStage(Stage.CREATE) returns (uint){... */\n      swap3\n      swap2\n      pop\n      pop\n      jump\t// out\n        /* \"contracts/LunchVenue_updated.sol\":708:734  uint public numFriends = 0 */\n    tag_40:\n      sload(0x04)\n      dup2\n      jump\t// out\n        /* \"contracts/LunchVenue_updated.sol\":770:792  address public manager */\n    tag_43:\n      0x06\n      0x00\n      swap1\n      sload\n      swap1\n      0x0100\n      exp\n      swap1\n      div\n      0xffffffffffffffffffffffffffffffffffffffff\n      and\n      dup2\n      jump\t// out\n        /* \"contracts/LunchVenue_updated.sol\":1375:1483  function startVote() public restricted inStage(Stage.CREATE) {... */\n    tag_47:\n        /* \"contracts/LunchVenue_updated.sol\":5135:5142  manager */\n      0x06\n      0x00\n      swap1\n      sload\n      swap1\n      0x0100\n      exp\n      swap1\n      div\n      0xffffffffffffffffffffffffffffffffffffffff\n      and\n        /* \"contracts/LunchVenue_updated.sol\":5121:5142  msg.sender == manager */\n      0xffffffffffffffffffffffffffffffffffffffff\n      and\n        /* \"contracts/LunchVenue_updated.sol\":5121:5131  msg.sender */\n      caller\n        /* \"contracts/LunchVenue_updated.sol\":5121:5142  msg.sender == manager */\n      0xffffffffffffffffffffffffffffffffffffffff\n      and\n      eq\n        /* \"contracts/LunchVenue_updated.sol\":5112:5182  require (msg.sender == manager, \"Can only be executed by the manager\") */\n      tag_136\n      jumpi\n      mload(0x40)\n      0x08c379a000000000000000000000000000000000000000000000000000000000\n      dup2\n      mstore\n      0x04\n      add\n      tag_137\n      swap1\n      tag_116\n      jump\t// in\n    tag_137:\n      mload(0x40)\n      dup1\n      swap2\n      sub\n      swap1\n      revert\n    tag_136:\n        /* \"contracts/LunchVenue_updated.sol\":1422:1434  Stage.CREATE */\n      0x00\n        /* \"contracts/LunchVenue_updated.sol\":7208:7213  stage */\n      dup1\n        /* \"contracts/LunchVenue_updated.sol\":7192:7213  currentStage == stage */\n      0x02\n      dup2\n      gt\n      iszero\n      tag_139\n      jumpi\n      tag_140\n      tag_92\n      jump\t// in\n    tag_140:\n    tag_139:\n        /* \"contracts/LunchVenue_updated.sol\":7192:7204  currentStage */\n      0x00\n      dup1\n      sload\n      swap1\n      0x0100\n      exp\n      swap1\n      div\n      0xff\n      and\n        /* \"contracts/LunchVenue_updated.sol\":7192:7213  currentStage == stage */\n      0x02\n      dup2\n      gt\n      iszero\n      tag_141\n      jumpi\n      tag_142\n      tag_92\n      jump\t// in\n    tag_142:\n    tag_141:\n      eq\n        /* \"contracts/LunchVenue_updated.sol\":7184:7259  require(currentStage == stage, \"Function can not be called in this stage.\") */\n      tag_143\n      jumpi\n      mload(0x40)\n      0x08c379a000000000000000000000000000000000000000000000000000000000\n      dup2\n      mstore\n      0x04\n      add\n      tag_144\n      swap1\n      tag_97\n      jump\t// in\n    tag_144:\n      mload(0x40)\n      dup1\n      swap2\n      sub\n      swap1\n      revert\n    tag_143:\n        /* \"contracts/LunchVenue_updated.sol\":1461:1476  Stage.VOTE_OPEN */\n      0x01\n        /* \"contracts/LunchVenue_updated.sol\":1446:1458  currentStage */\n      0x00\n      dup1\n        /* \"contracts/LunchVenue_updated.sol\":1446:1476  currentStage = Stage.VOTE_OPEN */\n      0x0100\n      exp\n      dup2\n      sload\n      dup2\n      0xff\n      mul\n      not\n      and\n      swap1\n      dup4\n      0x02\n      dup2\n      gt\n      iszero\n      tag_146\n      jumpi\n      tag_147\n      tag_92\n      jump\t// in\n    tag_147:\n    tag_146:\n      mul\n      or\n      swap1\n      sstore\n      pop\n        /* \"contracts/LunchVenue_updated.sol\":5192:5193  _ */\n      pop\n        /* \"contracts/LunchVenue_updated.sol\":1375:1483  function startVote() public restricted inStage(Stage.CREATE) {... */\n      jump\t// out\n        /* \"contracts/LunchVenue_updated.sol\":410:450  Stage public currentStage = Stage.CREATE */\n    tag_49:\n      0x00\n      dup1\n      sload\n      swap1\n      0x0100\n      exp\n      swap1\n      div\n      0xff\n      and\n      dup2\n      jump\t// out\n        /* \"contracts/LunchVenue_updated.sol\":908:943  mapping (uint => Vote) public votes */\n    tag_54:\n      mstore(0x20, 0x08)\n      dup1\n      0x00\n      mstore\n      keccak256(0x00, 0x40)\n      0x00\n      swap2\n      pop\n      swap1\n      pop\n      dup1\n      0x00\n      add\n      0x00\n      swap1\n      sload\n      swap1\n      0x0100\n      exp\n      swap1\n      div\n      0xffffffffffffffffffffffffffffffffffffffff\n      and\n      swap1\n      dup1\n      0x01\n      add\n      sload\n      swap1\n      pop\n      dup3\n      jump\t// out\n        /* \"contracts/LunchVenue_updated.sol\":2000:2235  function addRestaurant(string memory name) public restricted restaurantAlreadyExists(name) inStage(Stage.CREATE) returns (uint){... */\n    tag_60:\n        /* \"contracts/LunchVenue_updated.sol\":2122:2126  uint */\n      0x00\n        /* \"contracts/LunchVenue_updated.sol\":5135:5142  manager */\n      0x06\n      0x00\n      swap1\n      sload\n      swap1\n      0x0100\n      exp\n      swap1\n      div\n      0xffffffffffffffffffffffffffffffffffffffff\n      and\n        /* \"contracts/LunchVenue_updated.sol\":5121:5142  msg.sender == manager */\n      0xffffffffffffffffffffffffffffffffffffffff\n      and\n        /* \"contracts/LunchVenue_updated.sol\":5121:5131  msg.sender */\n      caller\n        /* \"contracts/LunchVenue_updated.sol\":5121:5142  msg.sender == manager */\n      0xffffffffffffffffffffffffffffffffffffffff\n      and\n      eq\n        /* \"contracts/LunchVenue_updated.sol\":5112:5182  require (msg.sender == manager, \"Can only be executed by the manager\") */\n      tag_149\n      jumpi\n      mload(0x40)\n      0x08c379a000000000000000000000000000000000000000000000000000000000\n      dup2\n      mstore\n      0x04\n      add\n      tag_150\n      swap1\n      tag_116\n      jump\t// in\n    tag_150:\n      mload(0x40)\n      dup1\n      swap2\n      sub\n      swap1\n      revert\n    tag_149:\n        /* \"contracts/LunchVenue_updated.sol\":2085:2089  name */\n      dup2\n        /* \"contracts/LunchVenue_updated.sol\":5754:5782  bool restaurantAlreadyExists */\n      0x00\n        /* \"contracts/LunchVenue_updated.sol\":5806:5812  uint i */\n      dup1\n        /* \"contracts/LunchVenue_updated.sol\":5815:5816  1 */\n      0x01\n        /* \"contracts/LunchVenue_updated.sol\":5806:5816  uint i = 1 */\n      swap1\n      pop\n        /* \"contracts/LunchVenue_updated.sol\":5801:6212  for (uint i = 1; i <= numRestaurants; i++) { //iterate over every restaurant in the list... */\n    tag_152:\n        /* \"contracts/LunchVenue_updated.sol\":5823:5837  numRestaurants */\n      sload(0x03)\n        /* \"contracts/LunchVenue_updated.sol\":5818:5819  i */\n      dup2\n        /* \"contracts/LunchVenue_updated.sol\":5818:5837  i <= numRestaurants */\n      gt\n        /* \"contracts/LunchVenue_updated.sol\":5801:6212  for (uint i = 1; i <= numRestaurants; i++) { //iterate over every restaurant in the list... */\n      tag_153\n      jumpi\n        /* \"contracts/LunchVenue_updated.sol\":5980:5984  name */\n      dup3\n        /* \"contracts/LunchVenue_updated.sol\":5963:5985  abi.encodePacked(name) */\n      add(0x20, mload(0x40))\n      tag_155\n      swap2\n      swap1\n      tag_156\n      jump\t// in\n    tag_155:\n      mload(0x40)\n      0x20\n      dup2\n      dup4\n      sub\n      sub\n      dup2\n      mstore\n      swap1\n      0x40\n      mstore\n        /* \"contracts/LunchVenue_updated.sol\":5953:5986  keccak256(abi.encodePacked(name)) */\n      dup1\n      mload\n      swap1\n      0x20\n      add\n      keccak256\n        /* \"contracts/LunchVenue_updated.sol\":5933:5944  restaurants */\n      0x01\n        /* \"contracts/LunchVenue_updated.sol\":5933:5947  restaurants[i] */\n      0x00\n        /* \"contracts/LunchVenue_updated.sol\":5945:5946  i */\n      dup4\n        /* \"contracts/LunchVenue_updated.sol\":5933:5947  restaurants[i] */\n      dup2\n      mstore\n      0x20\n      add\n      swap1\n      dup2\n      mstore\n      0x20\n      add\n      0x00\n      keccak256\n        /* \"contracts/LunchVenue_updated.sol\":5916:5948  abi.encodePacked(restaurants[i]) */\n      add(0x20, mload(0x40))\n      tag_157\n      swap2\n      swap1\n      tag_158\n      jump\t// in\n    tag_157:\n      mload(0x40)\n      0x20\n      dup2\n      dup4\n      sub\n      sub\n      dup2\n      mstore\n      swap1\n      0x40\n      mstore\n        /* \"contracts/LunchVenue_updated.sol\":5906:5949  keccak256(abi.encodePacked(restaurants[i])) */\n      dup1\n      mload\n      swap1\n      0x20\n      add\n      keccak256\n        /* \"contracts/LunchVenue_updated.sol\":5906:5986  keccak256(abi.encodePacked(restaurants[i])) == keccak256(abi.encodePacked(name)) */\n      eq\n        /* \"contracts/LunchVenue_updated.sol\":5902:6202  if (keccak256(abi.encodePacked(restaurants[i])) == keccak256(abi.encodePacked(name))) { //compare the strings (names of the restaurants) using keccak156 function... */\n      iszero\n      tag_159\n      jumpi\n        /* \"contracts/LunchVenue_updated.sol\":6106:6110  true */\n      0x01\n        /* \"contracts/LunchVenue_updated.sol\":6080:6110  restaurantAlreadyExists = true */\n      swap2\n      pop\n        /* \"contracts/LunchVenue_updated.sol\":6128:6133  break */\n      jump(tag_153)\n        /* \"contracts/LunchVenue_updated.sol\":5902:6202  if (keccak256(abi.encodePacked(restaurants[i])) == keccak256(abi.encodePacked(name))) { //compare the strings (names of the restaurants) using keccak156 function... */\n    tag_159:\n        /* \"contracts/LunchVenue_updated.sol\":5839:5842  i++ */\n      dup1\n      dup1\n      tag_160\n      swap1\n      tag_107\n      jump\t// in\n    tag_160:\n      swap2\n      pop\n      pop\n        /* \"contracts/LunchVenue_updated.sol\":5801:6212  for (uint i = 1; i <= numRestaurants; i++) { //iterate over every restaurant in the list... */\n      jump(tag_152)\n    tag_153:\n      pop\n        /* \"contracts/LunchVenue_updated.sol\":6230:6253  restaurantAlreadyExists */\n      dup1\n        /* \"contracts/LunchVenue_updated.sol\":6229:6253  !restaurantAlreadyExists */\n      iszero\n        /* \"contracts/LunchVenue_updated.sol\":6221:6284  require(!restaurantAlreadyExists, \"Restaurant already exists.\") */\n      tag_161\n      jumpi\n      mload(0x40)\n      0x08c379a000000000000000000000000000000000000000000000000000000000\n      dup2\n      mstore\n      0x04\n      add\n      tag_162\n      swap1\n      tag_163\n      jump\t// in\n    tag_162:\n      mload(0x40)\n      dup1\n      swap2\n      sub\n      swap1\n      revert\n    tag_161:\n        /* \"contracts/LunchVenue_updated.sol\":2099:2111  Stage.CREATE */\n      0x00\n        /* \"contracts/LunchVenue_updated.sol\":7208:7213  stage */\n      dup1\n        /* \"contracts/LunchVenue_updated.sol\":7192:7213  currentStage == stage */\n      0x02\n      dup2\n      gt\n      iszero\n      tag_165\n      jumpi\n      tag_166\n      tag_92\n      jump\t// in\n    tag_166:\n    tag_165:\n        /* \"contracts/LunchVenue_updated.sol\":7192:7204  currentStage */\n      0x00\n      dup1\n      sload\n      swap1\n      0x0100\n      exp\n      swap1\n      div\n      0xff\n      and\n        /* \"contracts/LunchVenue_updated.sol\":7192:7213  currentStage == stage */\n      0x02\n      dup2\n      gt\n      iszero\n      tag_167\n      jumpi\n      tag_168\n      tag_92\n      jump\t// in\n    tag_168:\n    tag_167:\n      eq\n        /* \"contracts/LunchVenue_updated.sol\":7184:7259  require(currentStage == stage, \"Function can not be called in this stage.\") */\n      tag_169\n      jumpi\n      mload(0x40)\n      0x08c379a000000000000000000000000000000000000000000000000000000000\n      dup2\n      mstore\n      0x04\n      add\n      tag_170\n      swap1\n      tag_97\n      jump\t// in\n    tag_170:\n      mload(0x40)\n      dup1\n      swap2\n      sub\n      swap1\n      revert\n    tag_169:\n        /* \"contracts/LunchVenue_updated.sol\":2137:2151  numRestaurants */\n      0x03\n      0x00\n        /* \"contracts/LunchVenue_updated.sol\":2137:2153  numRestaurants++ */\n      dup2\n      sload\n      dup1\n      swap3\n      swap2\n      swap1\n      tag_172\n      swap1\n      tag_107\n      jump\t// in\n    tag_172:\n      swap2\n      swap1\n      pop\n      sstore\n      pop\n        /* \"contracts/LunchVenue_updated.sol\":2193:2197  name */\n      dup5\n        /* \"contracts/LunchVenue_updated.sol\":2163:2174  restaurants */\n      0x01\n        /* \"contracts/LunchVenue_updated.sol\":2163:2190  restaurants[numRestaurants] */\n      0x00\n        /* \"contracts/LunchVenue_updated.sol\":2175:2189  numRestaurants */\n      sload(0x03)\n        /* \"contracts/LunchVenue_updated.sol\":2163:2190  restaurants[numRestaurants] */\n      dup2\n      mstore\n      0x20\n      add\n      swap1\n      dup2\n      mstore\n      0x20\n      add\n      0x00\n      keccak256\n        /* \"contracts/LunchVenue_updated.sol\":2163:2197  restaurants[numRestaurants] = name */\n      swap1\n      dup1\n      mload\n      swap1\n      0x20\n      add\n      swap1\n      tag_173\n      swap3\n      swap2\n      swap1\n      tag_133\n      jump\t// in\n    tag_173:\n      pop\n        /* \"contracts/LunchVenue_updated.sol\":2214:2228  numRestaurants */\n      sload(0x03)\n        /* \"contracts/LunchVenue_updated.sol\":2207:2228  return numRestaurants */\n      swap4\n      pop\n        /* \"contracts/LunchVenue_updated.sol\":6294:6295  _ */\n      pop\n        /* \"contracts/LunchVenue_updated.sol\":5744:6303  {... */\n      pop\n        /* \"contracts/LunchVenue_updated.sol\":5192:5193  _ */\n      pop\n        /* \"contracts/LunchVenue_updated.sol\":2000:2235  function addRestaurant(string memory name) public restricted restaurantAlreadyExists(name) inStage(Stage.CREATE) returns (uint){... */\n      swap2\n      swap1\n      pop\n      jump\t// out\n        /* \"contracts/LunchVenue_updated.sol\":1087:1114  bool public voteOpen = true */\n    tag_63:\n      0x0a\n      0x00\n      swap1\n      sload\n      swap1\n      0x0100\n      exp\n      swap1\n      div\n      0xff\n      and\n      dup2\n      jump\t// out\n        /* \"contracts/LunchVenue_updated.sol\":740:764  uint public numVotes = 0 */\n    tag_66:\n      sload(0x05)\n      dup2\n      jump\t// out\n        /* \"contracts/LunchVenue_updated.sol\":495:538  mapping (uint => string) public restaurants */\n    tag_70:\n      mstore(0x20, 0x01)\n      dup1\n      0x00\n      mstore\n      keccak256(0x00, 0x40)\n      0x00\n      swap2\n      pop\n      swap1\n      pop\n      dup1\n      sload\n      tag_174\n      swap1\n      tag_100\n      jump\t// in\n    tag_174:\n      dup1\n      0x1f\n      add\n      0x20\n      dup1\n      swap2\n      div\n      mul\n      0x20\n      add\n      mload(0x40)\n      swap1\n      dup2\n      add\n      0x40\n      mstore\n      dup1\n      swap3\n      swap2\n      swap1\n      dup2\n      dup2\n      mstore\n      0x20\n      add\n      dup3\n      dup1\n      sload\n      tag_175\n      swap1\n      tag_100\n      jump\t// in\n    tag_175:\n      dup1\n      iszero\n      tag_176\n      jumpi\n      dup1\n      0x1f\n      lt\n      tag_177\n      jumpi\n      0x0100\n      dup1\n      dup4\n      sload\n      div\n      mul\n      dup4\n      mstore\n      swap2\n      0x20\n      add\n      swap2\n      jump(tag_176)\n    tag_177:\n      dup3\n      add\n      swap2\n      swap1\n      0x00\n      mstore\n      keccak256(0x00, 0x20)\n      swap1\n    tag_178:\n      dup2\n      sload\n      dup2\n      mstore\n      swap1\n      0x01\n      add\n      swap1\n      0x20\n      add\n      dup1\n      dup4\n      gt\n      tag_178\n      jumpi\n      dup3\n      swap1\n      sub\n      0x1f\n      and\n      dup3\n      add\n      swap2\n    tag_176:\n      pop\n      pop\n      pop\n      pop\n      pop\n      dup2\n      jump\t// out\n        /* \"contracts/LunchVenue_updated.sol\":672:702  uint public numRestaurants = 0 */\n    tag_74:\n      sload(0x03)\n      dup2\n      jump\t// out\n        /* \"contracts/LunchVenue_updated.sol\":1538:1717  function endVote() public restricted inStage(Stage.VOTE_OPEN) quorumIsMet { //only end it when quorum is met... */\n    tag_77:\n        /* \"contracts/LunchVenue_updated.sol\":5135:5142  manager */\n      0x06\n      0x00\n      swap1\n      sload\n      swap1\n      0x0100\n      exp\n      swap1\n      div\n      0xffffffffffffffffffffffffffffffffffffffff\n      and\n        /* \"contracts/LunchVenue_updated.sol\":5121:5142  msg.sender == manager */\n      0xffffffffffffffffffffffffffffffffffffffff\n      and\n        /* \"contracts/LunchVenue_updated.sol\":5121:5131  msg.sender */\n      caller\n        /* \"contracts/LunchVenue_updated.sol\":5121:5142  msg.sender == manager */\n      0xffffffffffffffffffffffffffffffffffffffff\n      and\n      eq\n        /* \"contracts/LunchVenue_updated.sol\":5112:5182  require (msg.sender == manager, \"Can only be executed by the manager\") */\n      tag_180\n      jumpi\n      mload(0x40)\n      0x08c379a000000000000000000000000000000000000000000000000000000000\n      dup2\n      mstore\n      0x04\n      add\n      tag_181\n      swap1\n      tag_116\n      jump\t// in\n    tag_181:\n      mload(0x40)\n      dup1\n      swap2\n      sub\n      swap1\n      revert\n    tag_180:\n        /* \"contracts/LunchVenue_updated.sol\":1583:1598  Stage.VOTE_OPEN */\n      0x01\n        /* \"contracts/LunchVenue_updated.sol\":7208:7213  stage */\n      dup1\n        /* \"contracts/LunchVenue_updated.sol\":7192:7213  currentStage == stage */\n      0x02\n      dup2\n      gt\n      iszero\n      tag_183\n      jumpi\n      tag_184\n      tag_92\n      jump\t// in\n    tag_184:\n    tag_183:\n        /* \"contracts/LunchVenue_updated.sol\":7192:7204  currentStage */\n      0x00\n      dup1\n      sload\n      swap1\n      0x0100\n      exp\n      swap1\n      div\n      0xff\n      and\n        /* \"contracts/LunchVenue_updated.sol\":7192:7213  currentStage == stage */\n      0x02\n      dup2\n      gt\n      iszero\n      tag_185\n      jumpi\n      tag_186\n      tag_92\n      jump\t// in\n    tag_186:\n    tag_185:\n      eq\n        /* \"contracts/LunchVenue_updated.sol\":7184:7259  require(currentStage == stage, \"Function can not be called in this stage.\") */\n      tag_187\n      jumpi\n      mload(0x40)\n      0x08c379a000000000000000000000000000000000000000000000000000000000\n      dup2\n      mstore\n      0x04\n      add\n      tag_188\n      swap1\n      tag_97\n      jump\t// in\n    tag_188:\n      mload(0x40)\n      dup1\n      swap2\n      sub\n      swap1\n      revert\n    tag_187:\n        /* \"contracts/LunchVenue_updated.sol\":7376:7392  bool quorumIsMet */\n      0x00\n        /* \"contracts/LunchVenue_updated.sol\":7441:7442  1 */\n      0x01\n        /* \"contracts/LunchVenue_updated.sol\":7437:7438  2 */\n      0x02\n        /* \"contracts/LunchVenue_updated.sol\":7426:7436  numFriends */\n      sload(0x04)\n        /* \"contracts/LunchVenue_updated.sol\":7426:7438  numFriends/2 */\n      tag_190\n      swap2\n      swap1\n      tag_191\n      jump\t// in\n    tag_190:\n        /* \"contracts/LunchVenue_updated.sol\":7426:7442  numFriends/2 + 1 */\n      tag_192\n      swap2\n      swap1\n      tag_193\n      jump\t// in\n    tag_192:\n        /* \"contracts/LunchVenue_updated.sol\":7414:7422  numVotes */\n      sload(0x05)\n        /* \"contracts/LunchVenue_updated.sol\":7414:7442  numVotes >= numFriends/2 + 1 */\n      lt\n        /* \"contracts/LunchVenue_updated.sol\":7410:7503  if (numVotes >= numFriends/2 + 1) { //Quorum is met... */\n      tag_194\n      jumpi\n        /* \"contracts/LunchVenue_updated.sol\":7488:7492  true */\n      0x01\n        /* \"contracts/LunchVenue_updated.sol\":7474:7492  quorumIsMet = true */\n      swap1\n      pop\n        /* \"contracts/LunchVenue_updated.sol\":7410:7503  if (numVotes >= numFriends/2 + 1) { //Quorum is met... */\n    tag_194:\n        /* \"contracts/LunchVenue_updated.sol\":7521:7532  quorumIsMet */\n      dup1\n        /* \"contracts/LunchVenue_updated.sol\":7520:7532  !quorumIsMet */\n      iszero\n        /* \"contracts/LunchVenue_updated.sol\":7512:7575  require(!quorumIsMet, \"Voting quorum is not met. Keep voting.\") */\n      tag_195\n      jumpi\n      mload(0x40)\n      0x08c379a000000000000000000000000000000000000000000000000000000000\n      dup2\n      mstore\n      0x04\n      add\n      tag_196\n      swap1\n      tag_197\n      jump\t// in\n    tag_196:\n      mload(0x40)\n      dup1\n      swap2\n      sub\n      swap1\n      revert\n    tag_195:\n        /* \"contracts/LunchVenue_updated.sol\":1670:1687  Stage.VOTE_CLOSED */\n      0x02\n        /* \"contracts/LunchVenue_updated.sol\":1655:1667  currentStage */\n      0x00\n      dup1\n        /* \"contracts/LunchVenue_updated.sol\":1655:1687  currentStage = Stage.VOTE_CLOSED */\n      0x0100\n      exp\n      dup2\n      sload\n      dup2\n      0xff\n      mul\n      not\n      and\n      swap1\n      dup4\n      0x02\n      dup2\n      gt\n      iszero\n      tag_199\n      jumpi\n      tag_200\n      tag_92\n      jump\t// in\n    tag_200:\n    tag_199:\n      mul\n      or\n      swap1\n      sstore\n      pop\n        /* \"contracts/LunchVenue_updated.sol\":1697:1710  finalResult() */\n      tag_201\n        /* \"contracts/LunchVenue_updated.sol\":1697:1708  finalResult */\n      tag_202\n        /* \"contracts/LunchVenue_updated.sol\":1697:1710  finalResult() */\n      jump\t// in\n    tag_201:\n        /* \"contracts/LunchVenue_updated.sol\":7366:7593  {... */\n      pop\n        /* \"contracts/LunchVenue_updated.sol\":5192:5193  _ */\n      pop\n        /* \"contracts/LunchVenue_updated.sol\":1538:1717  function endVote() public restricted inStage(Stage.VOTE_OPEN) quorumIsMet { //only end it when quorum is met... */\n      jump\t// out\n        /* \"contracts/LunchVenue_updated.sol\":837:871  string public votedRestaurant = \"\" */\n    tag_79:\n      0x07\n      dup1\n      sload\n      tag_203\n      swap1\n      tag_100\n      jump\t// in\n    tag_203:\n      dup1\n      0x1f\n      add\n      0x20\n      dup1\n      swap2\n      div\n      mul\n      0x20\n      add\n      mload(0x40)\n      swap1\n      dup2\n      add\n      0x40\n      mstore\n      dup1\n      swap3\n      swap2\n      swap1\n      dup2\n      dup2\n      mstore\n      0x20\n      add\n      dup3\n      dup1\n      sload\n      tag_204\n      swap1\n      tag_100\n      jump\t// in\n    tag_204:\n      dup1\n      iszero\n      tag_205\n      jumpi\n      dup1\n      0x1f\n      lt\n      tag_206\n      jumpi\n      0x0100\n      dup1\n      dup4\n      sload\n      div\n      mul\n      dup4\n      mstore\n      swap2\n      0x20\n      add\n      swap2\n      jump(tag_205)\n    tag_206:\n      dup3\n      add\n      swap2\n      swap1\n      0x00\n      mstore\n      keccak256(0x00, 0x20)\n      swap1\n    tag_207:\n      dup2\n      sload\n      dup2\n      mstore\n      swap1\n      0x01\n      add\n      swap1\n      0x20\n      add\n      dup1\n      dup4\n      gt\n      tag_207\n      jumpi\n      dup3\n      swap1\n      sub\n      0x1f\n      and\n      dup3\n      add\n      swap2\n    tag_205:\n      pop\n      pop\n      pop\n      pop\n      pop\n      dup2\n      jump\t// out\n        /* \"contracts/LunchVenue_updated.sol\":4246:5014  function finalResult() private{... */\n    tag_202:\n        /* \"contracts/LunchVenue_updated.sol\":4286:4303  uint highestVotes */\n      0x00\n        /* \"contracts/LunchVenue_updated.sol\":4317:4339  uint highestRestaurant */\n      dup1\n        /* \"contracts/LunchVenue_updated.sol\":4367:4373  uint i */\n      0x00\n        /* \"contracts/LunchVenue_updated.sol\":4376:4377  1 */\n      0x01\n        /* \"contracts/LunchVenue_updated.sol\":4367:4377  uint i = 1 */\n      swap1\n      pop\n        /* \"contracts/LunchVenue_updated.sol\":4362:4845  for (uint i = 1; i <= numVotes; i++){   //For each vote... */\n    tag_209:\n        /* \"contracts/LunchVenue_updated.sol\":4384:4392  numVotes */\n      sload(0x05)\n        /* \"contracts/LunchVenue_updated.sol\":4379:4380  i */\n      dup2\n        /* \"contracts/LunchVenue_updated.sol\":4379:4392  i <= numVotes */\n      gt\n        /* \"contracts/LunchVenue_updated.sol\":4362:4845  for (uint i = 1; i <= numVotes; i++){   //For each vote... */\n      tag_210\n      jumpi\n        /* \"contracts/LunchVenue_updated.sol\":4430:4444  uint voteCount */\n      0x00\n        /* \"contracts/LunchVenue_updated.sol\":4447:4448  1 */\n      0x01\n        /* \"contracts/LunchVenue_updated.sol\":4430:4448  uint voteCount = 1 */\n      swap1\n      pop\n        /* \"contracts/LunchVenue_updated.sol\":4497:4498  0 */\n      0x00\n        /* \"contracts/LunchVenue_updated.sol\":4465:4473  _results */\n      0x09\n        /* \"contracts/LunchVenue_updated.sol\":4465:4494  _results[votes[i].restaurant] */\n      0x00\n        /* \"contracts/LunchVenue_updated.sol\":4474:4479  votes */\n      0x08\n        /* \"contracts/LunchVenue_updated.sol\":4474:4482  votes[i] */\n      0x00\n        /* \"contracts/LunchVenue_updated.sol\":4480:4481  i */\n      dup7\n        /* \"contracts/LunchVenue_updated.sol\":4474:4482  votes[i] */\n      dup2\n      mstore\n      0x20\n      add\n      swap1\n      dup2\n      mstore\n      0x20\n      add\n      0x00\n      keccak256\n        /* \"contracts/LunchVenue_updated.sol\":4474:4493  votes[i].restaurant */\n      0x01\n      add\n      sload\n        /* \"contracts/LunchVenue_updated.sol\":4465:4494  _results[votes[i].restaurant] */\n      dup2\n      mstore\n      0x20\n      add\n      swap1\n      dup2\n      mstore\n      0x20\n      add\n      0x00\n      keccak256\n      sload\n        /* \"contracts/LunchVenue_updated.sol\":4465:4498  _results[votes[i].restaurant] > 0 */\n      gt\n        /* \"contracts/LunchVenue_updated.sol\":4462:4601  if(_results[votes[i].restaurant] > 0) { // Already start counting... */\n      iszero\n      tag_212\n      jumpi\n        /* \"contracts/LunchVenue_updated.sol\":4557:4565  _results */\n      0x09\n        /* \"contracts/LunchVenue_updated.sol\":4557:4586  _results[votes[i].restaurant] */\n      0x00\n        /* \"contracts/LunchVenue_updated.sol\":4566:4571  votes */\n      0x08\n        /* \"contracts/LunchVenue_updated.sol\":4566:4574  votes[i] */\n      0x00\n        /* \"contracts/LunchVenue_updated.sol\":4572:4573  i */\n      dup6\n        /* \"contracts/LunchVenue_updated.sol\":4566:4574  votes[i] */\n      dup2\n      mstore\n      0x20\n      add\n      swap1\n      dup2\n      mstore\n      0x20\n      add\n      0x00\n      keccak256\n        /* \"contracts/LunchVenue_updated.sol\":4566:4585  votes[i].restaurant */\n      0x01\n      add\n      sload\n        /* \"contracts/LunchVenue_updated.sol\":4557:4586  _results[votes[i].restaurant] */\n      dup2\n      mstore\n      0x20\n      add\n      swap1\n      dup2\n      mstore\n      0x20\n      add\n      0x00\n      keccak256\n      sload\n        /* \"contracts/LunchVenue_updated.sol\":4544:4586  voteCount += _results[votes[i].restaurant] */\n      dup2\n      tag_213\n      swap2\n      swap1\n      tag_193\n      jump\t// in\n    tag_213:\n      swap1\n      pop\n        /* \"contracts/LunchVenue_updated.sol\":4462:4601  if(_results[votes[i].restaurant] > 0) { // Already start counting... */\n    tag_212:\n        /* \"contracts/LunchVenue_updated.sol\":4646:4655  voteCount */\n      dup1\n        /* \"contracts/LunchVenue_updated.sol\":4614:4622  _results */\n      0x09\n        /* \"contracts/LunchVenue_updated.sol\":4614:4643  _results[votes[i].restaurant] */\n      0x00\n        /* \"contracts/LunchVenue_updated.sol\":4623:4628  votes */\n      0x08\n        /* \"contracts/LunchVenue_updated.sol\":4623:4631  votes[i] */\n      0x00\n        /* \"contracts/LunchVenue_updated.sol\":4629:4630  i */\n      dup7\n        /* \"contracts/LunchVenue_updated.sol\":4623:4631  votes[i] */\n      dup2\n      mstore\n      0x20\n      add\n      swap1\n      dup2\n      mstore\n      0x20\n      add\n      0x00\n      keccak256\n        /* \"contracts/LunchVenue_updated.sol\":4623:4642  votes[i].restaurant */\n      0x01\n      add\n      sload\n        /* \"contracts/LunchVenue_updated.sol\":4614:4643  _results[votes[i].restaurant] */\n      dup2\n      mstore\n      0x20\n      add\n      swap1\n      dup2\n      mstore\n      0x20\n      add\n      0x00\n      keccak256\n        /* \"contracts/LunchVenue_updated.sol\":4614:4655  _results[votes[i].restaurant] = voteCount */\n      dup2\n      swap1\n      sstore\n      pop\n        /* \"contracts/LunchVenue_updated.sol\":4694:4706  highestVotes */\n      dup4\n        /* \"contracts/LunchVenue_updated.sol\":4682:4691  voteCount */\n      dup2\n        /* \"contracts/LunchVenue_updated.sol\":4682:4706  voteCount > highestVotes */\n      gt\n        /* \"contracts/LunchVenue_updated.sol\":4678:4835  if (voteCount > highestVotes){ // New winner... */\n      iszero\n      tag_214\n      jumpi\n        /* \"contracts/LunchVenue_updated.sol\":4754:4763  voteCount */\n      dup1\n        /* \"contracts/LunchVenue_updated.sol\":4739:4763  highestVotes = voteCount */\n      swap4\n      pop\n        /* \"contracts/LunchVenue_updated.sol\":4801:4806  votes */\n      0x08\n        /* \"contracts/LunchVenue_updated.sol\":4801:4809  votes[i] */\n      0x00\n        /* \"contracts/LunchVenue_updated.sol\":4807:4808  i */\n      dup4\n        /* \"contracts/LunchVenue_updated.sol\":4801:4809  votes[i] */\n      dup2\n      mstore\n      0x20\n      add\n      swap1\n      dup2\n      mstore\n      0x20\n      add\n      0x00\n      keccak256\n        /* \"contracts/LunchVenue_updated.sol\":4801:4820  votes[i].restaurant */\n      0x01\n      add\n      sload\n        /* \"contracts/LunchVenue_updated.sol\":4781:4820  highestRestaurant = votes[i].restaurant */\n      swap3\n      pop\n        /* \"contracts/LunchVenue_updated.sol\":4678:4835  if (voteCount > highestVotes){ // New winner... */\n    tag_214:\n        /* \"contracts/LunchVenue_updated.sol\":4398:4845  {   //For each vote... */\n      pop\n        /* \"contracts/LunchVenue_updated.sol\":4394:4397  i++ */\n      dup1\n      dup1\n      tag_215\n      swap1\n      tag_107\n      jump\t// in\n    tag_215:\n      swap2\n      pop\n      pop\n        /* \"contracts/LunchVenue_updated.sol\":4362:4845  for (uint i = 1; i <= numVotes; i++){   //For each vote... */\n      jump(tag_209)\n    tag_210:\n      pop\n        /* \"contracts/LunchVenue_updated.sol\":4872:4883  restaurants */\n      0x01\n        /* \"contracts/LunchVenue_updated.sol\":4872:4902  restaurants[highestRestaurant] */\n      0x00\n        /* \"contracts/LunchVenue_updated.sol\":4884:4901  highestRestaurant */\n      dup3\n        /* \"contracts/LunchVenue_updated.sol\":4872:4902  restaurants[highestRestaurant] */\n      dup2\n      mstore\n      0x20\n      add\n      swap1\n      dup2\n      mstore\n      0x20\n      add\n      0x00\n      keccak256\n        /* \"contracts/LunchVenue_updated.sol\":4854:4869  votedRestaurant */\n      0x07\n        /* \"contracts/LunchVenue_updated.sol\":4854:4902  votedRestaurant = restaurants[highestRestaurant] */\n      swap1\n      dup1\n      sload\n      tag_216\n      swap1\n      tag_100\n      jump\t// in\n    tag_216:\n      tag_217\n      swap3\n      swap2\n      swap1\n      tag_218\n      jump\t// in\n    tag_217:\n      pop\n        /* \"contracts/LunchVenue_updated.sol\":4945:4950  false */\n      0x00\n        /* \"contracts/LunchVenue_updated.sol\":4934:4942  voteOpen */\n      0x0a\n      0x00\n        /* \"contracts/LunchVenue_updated.sol\":4934:4950  voteOpen = false */\n      0x0100\n      exp\n      dup2\n      sload\n      dup2\n      0xff\n      mul\n      not\n      and\n      swap1\n      dup4\n      iszero\n      iszero\n      mul\n      or\n      swap1\n      sstore\n      pop\n        /* \"contracts/LunchVenue_updated.sol\":4276:5014  {... */\n      pop\n      pop\n        /* \"contracts/LunchVenue_updated.sol\":4246:5014  function finalResult() private{... */\n      jump\t// out\n    tag_105:\n      mload(0x40)\n      dup1\n      0x40\n      add\n      0x40\n      mstore\n      dup1\n      and(0xffffffffffffffffffffffffffffffffffffffff, 0x00)\n      dup2\n      mstore\n      0x20\n      add\n      0x00\n      dup2\n      mstore\n      pop\n      swap1\n      jump\t// out\n    tag_131:\n      mload(0x40)\n      dup1\n      0x40\n      add\n      0x40\n      mstore\n      dup1\n      0x60\n      dup2\n      mstore\n      0x20\n      add\n      iszero(iszero(0x00))\n      dup2\n      mstore\n      pop\n      swap1\n      jump\t// out\n    tag_133:\n      dup3\n      dup1\n      sload\n      tag_219\n      swap1\n      tag_100\n      jump\t// in\n    tag_219:\n      swap1\n      0x00\n      mstore\n      keccak256(0x00, 0x20)\n      swap1\n      0x1f\n      add\n      0x20\n      swap1\n      div\n      dup2\n      add\n      swap3\n      dup3\n      tag_221\n      jumpi\n      0x00\n      dup6\n      sstore\n      jump(tag_220)\n    tag_221:\n      dup3\n      0x1f\n      lt\n      tag_222\n      jumpi\n      dup1\n      mload\n      not(0xff)\n      and\n      dup4\n      dup1\n      add\n      or\n      dup6\n      sstore\n      jump(tag_220)\n    tag_222:\n      dup3\n      dup1\n      add\n      0x01\n      add\n      dup6\n      sstore\n      dup3\n      iszero\n      tag_220\n      jumpi\n      swap2\n      dup3\n      add\n    tag_223:\n      dup3\n      dup2\n      gt\n      iszero\n      tag_224\n      jumpi\n      dup3\n      mload\n      dup3\n      sstore\n      swap2\n      0x20\n      add\n      swap2\n      swap1\n      0x01\n      add\n      swap1\n      jump(tag_223)\n    tag_224:\n    tag_220:\n      pop\n      swap1\n      pop\n      tag_225\n      swap2\n      swap1\n      tag_226\n      jump\t// in\n    tag_225:\n      pop\n      swap1\n      jump\t// out\n    tag_218:\n      dup3\n      dup1\n      sload\n      tag_227\n      swap1\n      tag_100\n      jump\t// in\n    tag_227:\n      swap1\n      0x00\n      mstore\n      keccak256(0x00, 0x20)\n      swap1\n      0x1f\n      add\n      0x20\n      swap1\n      div\n      dup2\n      add\n      swap3\n      dup3\n      tag_229\n      jumpi\n      0x00\n      dup6\n      sstore\n      jump(tag_228)\n    tag_229:\n      dup3\n      0x1f\n      lt\n      tag_230\n      jumpi\n      dup1\n      sload\n      dup6\n      sstore\n      jump(tag_228)\n    tag_230:\n      dup3\n      dup1\n      add\n      0x01\n      add\n      dup6\n      sstore\n      dup3\n      iszero\n      tag_228\n      jumpi\n      0x00\n      mstore\n      keccak256(0x00, 0x20)\n      swap2\n      0x1f\n      add\n      0x20\n      swap1\n      div\n      dup3\n      add\n    tag_231:\n      dup3\n      dup2\n      gt\n      iszero\n      tag_232\n      jumpi\n      dup3\n      sload\n      dup3\n      sstore\n      swap2\n      0x01\n      add\n      swap2\n      swap1\n      0x01\n      add\n      swap1\n      jump(tag_231)\n    tag_232:\n    tag_228:\n      pop\n      swap1\n      pop\n      tag_233\n      swap2\n      swap1\n      tag_226\n      jump\t// in\n    tag_233:\n      pop\n      swap1\n      jump\t// out\n    tag_226:\n    tag_234:\n      dup1\n      dup3\n      gt\n      iszero\n      tag_235\n      jumpi\n      0x00\n      dup2\n      0x00\n      swap1\n      sstore\n      pop\n      0x01\n      add\n      jump(tag_234)\n    tag_235:\n      pop\n      swap1\n      jump\t// out\n        /* \"#utility.yul\":7:419   */\n    tag_237:\n        /* \"#utility.yul\":85:90   */\n      0x00\n        /* \"#utility.yul\":110:176   */\n      tag_239\n        /* \"#utility.yul\":126:175   */\n      tag_240\n        /* \"#utility.yul\":168:174   */\n      dup5\n        /* \"#utility.yul\":126:175   */\n      tag_241\n      jump\t// in\n    tag_240:\n        /* \"#utility.yul\":110:176   */\n      tag_242\n      jump\t// in\n    tag_239:\n        /* \"#utility.yul\":101:176   */\n      swap1\n      pop\n        /* \"#utility.yul\":199:205   */\n      dup3\n        /* \"#utility.yul\":192:197   */\n      dup2\n        /* \"#utility.yul\":185:206   */\n      mstore\n        /* \"#utility.yul\":237:241   */\n      0x20\n        /* \"#utility.yul\":230:235   */\n      dup2\n        /* \"#utility.yul\":226:242   */\n      add\n        /* \"#utility.yul\":275:278   */\n      dup5\n        /* \"#utility.yul\":266:272   */\n      dup5\n        /* \"#utility.yul\":261:264   */\n      dup5\n        /* \"#utility.yul\":257:273   */\n      add\n        /* \"#utility.yul\":254:279   */\n      gt\n        /* \"#utility.yul\":251:253   */\n      iszero\n      tag_243\n      jumpi\n        /* \"#utility.yul\":282:361   */\n      tag_244\n      tag_245\n      jump\t// in\n    tag_244:\n        /* \"#utility.yul\":251:253   */\n    tag_243:\n        /* \"#utility.yul\":372:413   */\n      tag_246\n        /* \"#utility.yul\":406:412   */\n      dup5\n        /* \"#utility.yul\":401:404   */\n      dup3\n        /* \"#utility.yul\":396:399   */\n      dup6\n        /* \"#utility.yul\":372:413   */\n      tag_247\n      jump\t// in\n    tag_246:\n        /* \"#utility.yul\":91:419   */\n      pop\n      swap4\n      swap3\n      pop\n      pop\n      pop\n      jump\t// out\n        /* \"#utility.yul\":425:564   */\n    tag_248:\n        /* \"#utility.yul\":471:476   */\n      0x00\n        /* \"#utility.yul\":509:515   */\n      dup2\n        /* \"#utility.yul\":496:516   */\n      calldataload\n        /* \"#utility.yul\":487:516   */\n      swap1\n      pop\n        /* \"#utility.yul\":525:558   */\n      tag_250\n        /* \"#utility.yul\":552:557   */\n      dup2\n        /* \"#utility.yul\":525:558   */\n      tag_251\n      jump\t// in\n    tag_250:\n        /* \"#utility.yul\":477:564   */\n      swap3\n      swap2\n      pop\n      pop\n      jump\t// out\n        /* \"#utility.yul\":584:924   */\n    tag_252:\n        /* \"#utility.yul\":640:645   */\n      0x00\n        /* \"#utility.yul\":689:692   */\n      dup3\n        /* \"#utility.yul\":682:686   */\n      0x1f\n        /* \"#utility.yul\":674:680   */\n      dup4\n        /* \"#utility.yul\":670:687   */\n      add\n        /* \"#utility.yul\":666:693   */\n      slt\n        /* \"#utility.yul\":656:658   */\n      tag_254\n      jumpi\n        /* \"#utility.yul\":697:776   */\n      tag_255\n      tag_256\n      jump\t// in\n    tag_255:\n        /* \"#utility.yul\":656:658   */\n    tag_254:\n        /* \"#utility.yul\":814:820   */\n      dup2\n        /* \"#utility.yul\":801:821   */\n      calldataload\n        /* \"#utility.yul\":839:918   */\n      tag_257\n        /* \"#utility.yul\":914:917   */\n      dup5\n        /* \"#utility.yul\":906:912   */\n      dup3\n        /* \"#utility.yul\":899:903   */\n      0x20\n        /* \"#utility.yul\":891:897   */\n      dup7\n        /* \"#utility.yul\":887:904   */\n      add\n        /* \"#utility.yul\":839:918   */\n      tag_237\n      jump\t// in\n    tag_257:\n        /* \"#utility.yul\":830:918   */\n      swap2\n      pop\n        /* \"#utility.yul\":646:924   */\n      pop\n      swap3\n      swap2\n      pop\n      pop\n      jump\t// out\n        /* \"#utility.yul\":930:1069   */\n    tag_258:\n        /* \"#utility.yul\":976:981   */\n      0x00\n        /* \"#utility.yul\":1014:1020   */\n      dup2\n        /* \"#utility.yul\":1001:1021   */\n      calldataload\n        /* \"#utility.yul\":992:1021   */\n      swap1\n      pop\n        /* \"#utility.yul\":1030:1063   */\n      tag_260\n        /* \"#utility.yul\":1057:1062   */\n      dup2\n        /* \"#utility.yul\":1030:1063   */\n      tag_261\n      jump\t// in\n    tag_260:\n        /* \"#utility.yul\":982:1069   */\n      swap3\n      swap2\n      pop\n      pop\n      jump\t// out\n        /* \"#utility.yul\":1075:1404   */\n    tag_29:\n        /* \"#utility.yul\":1134:1140   */\n      0x00\n        /* \"#utility.yul\":1183:1185   */\n      0x20\n        /* \"#utility.yul\":1171:1180   */\n      dup3\n        /* \"#utility.yul\":1162:1169   */\n      dup5\n        /* \"#utility.yul\":1158:1181   */\n      sub\n        /* \"#utility.yul\":1154:1186   */\n      slt\n        /* \"#utility.yul\":1151:1153   */\n      iszero\n      tag_263\n      jumpi\n        /* \"#utility.yul\":1189:1268   */\n      tag_264\n      tag_265\n      jump\t// in\n    tag_264:\n        /* \"#utility.yul\":1151:1153   */\n    tag_263:\n        /* \"#utility.yul\":1309:1310   */\n      0x00\n        /* \"#utility.yul\":1334:1387   */\n      tag_266\n        /* \"#utility.yul\":1379:1386   */\n      dup5\n        /* \"#utility.yul\":1370:1376   */\n      dup3\n        /* \"#utility.yul\":1359:1368   */\n      dup6\n        /* \"#utility.yul\":1355:1377   */\n      add\n        /* \"#utility.yul\":1334:1387   */\n      tag_248\n      jump\t// in\n    tag_266:\n        /* \"#utility.yul\":1324:1387   */\n      swap2\n      pop\n        /* \"#utility.yul\":1280:1397   */\n      pop\n        /* \"#utility.yul\":1141:1404   */\n      swap3\n      swap2\n      pop\n      pop\n      jump\t// out\n        /* \"#utility.yul\":1410:2064   */\n    tag_35:\n        /* \"#utility.yul\":1488:1494   */\n      0x00\n        /* \"#utility.yul\":1496:1502   */\n      dup1\n        /* \"#utility.yul\":1545:1547   */\n      0x40\n        /* \"#utility.yul\":1533:1542   */\n      dup4\n        /* \"#utility.yul\":1524:1531   */\n      dup6\n        /* \"#utility.yul\":1520:1543   */\n      sub\n        /* \"#utility.yul\":1516:1548   */\n      slt\n        /* \"#utility.yul\":1513:1515   */\n      iszero\n      tag_268\n      jumpi\n        /* \"#utility.yul\":1551:1630   */\n      tag_269\n      tag_265\n      jump\t// in\n    tag_269:\n        /* \"#utility.yul\":1513:1515   */\n    tag_268:\n        /* \"#utility.yul\":1671:1672   */\n      0x00\n        /* \"#utility.yul\":1696:1749   */\n      tag_270\n        /* \"#utility.yul\":1741:1748   */\n      dup6\n        /* \"#utility.yul\":1732:1738   */\n      dup3\n        /* \"#utility.yul\":1721:1730   */\n      dup7\n        /* \"#utility.yul\":1717:1739   */\n      add\n        /* \"#utility.yul\":1696:1749   */\n      tag_248\n      jump\t// in\n    tag_270:\n        /* \"#utility.yul\":1686:1749   */\n      swap3\n      pop\n        /* \"#utility.yul\":1642:1759   */\n      pop\n        /* \"#utility.yul\":1826:1828   */\n      0x20\n        /* \"#utility.yul\":1815:1824   */\n      dup4\n        /* \"#utility.yul\":1811:1829   */\n      add\n        /* \"#utility.yul\":1798:1830   */\n      calldataload\n        /* \"#utility.yul\":1857:1875   */\n      0xffffffffffffffff\n        /* \"#utility.yul\":1849:1855   */\n      dup2\n        /* \"#utility.yul\":1846:1876   */\n      gt\n        /* \"#utility.yul\":1843:1845   */\n      iszero\n      tag_271\n      jumpi\n        /* \"#utility.yul\":1879:1958   */\n      tag_272\n      tag_273\n      jump\t// in\n    tag_272:\n        /* \"#utility.yul\":1843:1845   */\n    tag_271:\n        /* \"#utility.yul\":1984:2047   */\n      tag_274\n        /* \"#utility.yul\":2039:2046   */\n      dup6\n        /* \"#utility.yul\":2030:2036   */\n      dup3\n        /* \"#utility.yul\":2019:2028   */\n      dup7\n        /* \"#utility.yul\":2015:2037   */\n      add\n        /* \"#utility.yul\":1984:2047   */\n      tag_252\n      jump\t// in\n    tag_274:\n        /* \"#utility.yul\":1974:2047   */\n      swap2\n      pop\n        /* \"#utility.yul\":1769:2057   */\n      pop\n        /* \"#utility.yul\":1503:2064   */\n      swap3\n      pop\n      swap3\n      swap1\n      pop\n      jump\t// out\n        /* \"#utility.yul\":2070:2579   */\n    tag_59:\n        /* \"#utility.yul\":2139:2145   */\n      0x00\n        /* \"#utility.yul\":2188:2190   */\n      0x20\n        /* \"#utility.yul\":2176:2185   */\n      dup3\n        /* \"#utility.yul\":2167:2174   */\n      dup5\n        /* \"#utility.yul\":2163:2186   */\n      sub\n        /* \"#utility.yul\":2159:2191   */\n      slt\n        /* \"#utility.yul\":2156:2158   */\n      iszero\n      tag_276\n      jumpi\n        /* \"#utility.yul\":2194:2273   */\n      tag_277\n      tag_265\n      jump\t// in\n    tag_277:\n        /* \"#utility.yul\":2156:2158   */\n    tag_276:\n        /* \"#utility.yul\":2342:2343   */\n      0x00\n        /* \"#utility.yul\":2331:2340   */\n      dup3\n        /* \"#utility.yul\":2327:2344   */\n      add\n        /* \"#utility.yul\":2314:2345   */\n      calldataload\n        /* \"#utility.yul\":2372:2390   */\n      0xffffffffffffffff\n        /* \"#utility.yul\":2364:2370   */\n      dup2\n        /* \"#utility.yul\":2361:2391   */\n      gt\n        /* \"#utility.yul\":2358:2360   */\n      iszero\n      tag_278\n      jumpi\n        /* \"#utility.yul\":2394:2473   */\n      tag_279\n      tag_273\n      jump\t// in\n    tag_279:\n        /* \"#utility.yul\":2358:2360   */\n    tag_278:\n        /* \"#utility.yul\":2499:2562   */\n      tag_280\n        /* \"#utility.yul\":2554:2561   */\n      dup5\n        /* \"#utility.yul\":2545:2551   */\n      dup3\n        /* \"#utility.yul\":2534:2543   */\n      dup6\n        /* \"#utility.yul\":2530:2552   */\n      add\n        /* \"#utility.yul\":2499:2562   */\n      tag_252\n      jump\t// in\n    tag_280:\n        /* \"#utility.yul\":2489:2562   */\n      swap2\n      pop\n        /* \"#utility.yul\":2285:2572   */\n      pop\n        /* \"#utility.yul\":2146:2579   */\n      swap3\n      swap2\n      pop\n      pop\n      jump\t// out\n        /* \"#utility.yul\":2585:2914   */\n    tag_23:\n        /* \"#utility.yul\":2644:2650   */\n      0x00\n        /* \"#utility.yul\":2693:2695   */\n      0x20\n        /* \"#utility.yul\":2681:2690   */\n      dup3\n        /* \"#utility.yul\":2672:2679   */\n      dup5\n        /* \"#utility.yul\":2668:2691   */\n      sub\n        /* \"#utility.yul\":2664:2696   */\n      slt\n        /* \"#utility.yul\":2661:2663   */\n      iszero\n      tag_282\n      jumpi\n        /* \"#utility.yul\":2699:2778   */\n      tag_283\n      tag_265\n      jump\t// in\n    tag_283:\n        /* \"#utility.yul\":2661:2663   */\n    tag_282:\n        /* \"#utility.yul\":2819:2820   */\n      0x00\n        /* \"#utility.yul\":2844:2897   */\n      tag_284\n        /* \"#utility.yul\":2889:2896   */\n      dup5\n        /* \"#utility.yul\":2880:2886   */\n      dup3\n        /* \"#utility.yul\":2869:2878   */\n      dup6\n        /* \"#utility.yul\":2865:2887   */\n      add\n        /* \"#utility.yul\":2844:2897   */\n      tag_258\n      jump\t// in\n    tag_284:\n        /* \"#utility.yul\":2834:2897   */\n      swap2\n      pop\n        /* \"#utility.yul\":2790:2907   */\n      pop\n        /* \"#utility.yul\":2651:2914   */\n      swap3\n      swap2\n      pop\n      pop\n      jump\t// out\n        /* \"#utility.yul\":2920:3038   */\n    tag_285:\n        /* \"#utility.yul\":3007:3031   */\n      tag_287\n        /* \"#utility.yul\":3025:3030   */\n      dup2\n        /* \"#utility.yul\":3007:3031   */\n      tag_288\n      jump\t// in\n    tag_287:\n        /* \"#utility.yul\":3002:3005   */\n      dup3\n        /* \"#utility.yul\":2995:3032   */\n      mstore\n        /* \"#utility.yul\":2985:3038   */\n      pop\n      pop\n      jump\t// out\n        /* \"#utility.yul\":3044:3153   */\n    tag_289:\n        /* \"#utility.yul\":3125:3146   */\n      tag_291\n        /* \"#utility.yul\":3140:3145   */\n      dup2\n        /* \"#utility.yul\":3125:3146   */\n      tag_292\n      jump\t// in\n    tag_291:\n        /* \"#utility.yul\":3120:3123   */\n      dup3\n        /* \"#utility.yul\":3113:3147   */\n      mstore\n        /* \"#utility.yul\":3103:3153   */\n      pop\n      pop\n      jump\t// out\n        /* \"#utility.yul\":3159:3302   */\n    tag_293:\n        /* \"#utility.yul\":3252:3295   */\n      tag_295\n        /* \"#utility.yul\":3289:3294   */\n      dup2\n        /* \"#utility.yul\":3252:3295   */\n      tag_296\n      jump\t// in\n    tag_295:\n        /* \"#utility.yul\":3247:3250   */\n      dup3\n        /* \"#utility.yul\":3240:3296   */\n      mstore\n        /* \"#utility.yul\":3230:3302   */\n      pop\n      pop\n      jump\t// out\n        /* \"#utility.yul\":3308:3672   */\n    tag_297:\n        /* \"#utility.yul\":3396:3399   */\n      0x00\n        /* \"#utility.yul\":3424:3463   */\n      tag_299\n        /* \"#utility.yul\":3457:3462   */\n      dup3\n        /* \"#utility.yul\":3424:3463   */\n      tag_300\n      jump\t// in\n    tag_299:\n        /* \"#utility.yul\":3479:3550   */\n      tag_301\n        /* \"#utility.yul\":3543:3549   */\n      dup2\n        /* \"#utility.yul\":3538:3541   */\n      dup6\n        /* \"#utility.yul\":3479:3550   */\n      tag_302\n      jump\t// in\n    tag_301:\n        /* \"#utility.yul\":3472:3550   */\n      swap4\n      pop\n        /* \"#utility.yul\":3559:3611   */\n      tag_303\n        /* \"#utility.yul\":3604:3610   */\n      dup2\n        /* \"#utility.yul\":3599:3602   */\n      dup6\n        /* \"#utility.yul\":3592:3596   */\n      0x20\n        /* \"#utility.yul\":3585:3590   */\n      dup7\n        /* \"#utility.yul\":3581:3597   */\n      add\n        /* \"#utility.yul\":3559:3611   */\n      tag_304\n      jump\t// in\n    tag_303:\n        /* \"#utility.yul\":3636:3665   */\n      tag_305\n        /* \"#utility.yul\":3658:3664   */\n      dup2\n        /* \"#utility.yul\":3636:3665   */\n      tag_306\n      jump\t// in\n    tag_305:\n        /* \"#utility.yul\":3631:3634   */\n      dup5\n        /* \"#utility.yul\":3627:3666   */\n      add\n        /* \"#utility.yul\":3620:3666   */\n      swap2\n      pop\n        /* \"#utility.yul\":3400:3672   */\n      pop\n      swap3\n      swap2\n      pop\n      pop\n      jump\t// out\n        /* \"#utility.yul\":3678:4055   */\n    tag_307:\n        /* \"#utility.yul\":3784:3787   */\n      0x00\n        /* \"#utility.yul\":3812:3851   */\n      tag_309\n        /* \"#utility.yul\":3845:3850   */\n      dup3\n        /* \"#utility.yul\":3812:3851   */\n      tag_300\n      jump\t// in\n    tag_309:\n        /* \"#utility.yul\":3867:3956   */\n      tag_310\n        /* \"#utility.yul\":3949:3955   */\n      dup2\n        /* \"#utility.yul\":3944:3947   */\n      dup6\n        /* \"#utility.yul\":3867:3956   */\n      tag_311\n      jump\t// in\n    tag_310:\n        /* \"#utility.yul\":3860:3956   */\n      swap4\n      pop\n        /* \"#utility.yul\":3965:4017   */\n      tag_312\n        /* \"#utility.yul\":4010:4016   */\n      dup2\n        /* \"#utility.yul\":4005:4008   */\n      dup6\n        /* \"#utility.yul\":3998:4002   */\n      0x20\n        /* \"#utility.yul\":3991:3996   */\n      dup7\n        /* \"#utility.yul\":3987:4003   */\n      add\n        /* \"#utility.yul\":3965:4017   */\n      tag_304\n      jump\t// in\n    tag_312:\n        /* \"#utility.yul\":4042:4048   */\n      dup1\n        /* \"#utility.yul\":4037:4040   */\n      dup5\n        /* \"#utility.yul\":4033:4049   */\n      add\n        /* \"#utility.yul\":4026:4049   */\n      swap2\n      pop\n        /* \"#utility.yul\":3788:4055   */\n      pop\n      swap3\n      swap2\n      pop\n      pop\n      jump\t// out\n        /* \"#utility.yul\":4085:4930   */\n    tag_313:\n        /* \"#utility.yul\":4188:4191   */\n      0x00\n        /* \"#utility.yul\":4225:4230   */\n      dup2\n        /* \"#utility.yul\":4219:4231   */\n      sload\n        /* \"#utility.yul\":4254:4290   */\n      tag_315\n        /* \"#utility.yul\":4280:4289   */\n      dup2\n        /* \"#utility.yul\":4254:4290   */\n      tag_100\n      jump\t// in\n    tag_315:\n        /* \"#utility.yul\":4306:4395   */\n      tag_316\n        /* \"#utility.yul\":4388:4394   */\n      dup2\n        /* \"#utility.yul\":4383:4386   */\n      dup7\n        /* \"#utility.yul\":4306:4395   */\n      tag_311\n      jump\t// in\n    tag_316:\n        /* \"#utility.yul\":4299:4395   */\n      swap5\n      pop\n        /* \"#utility.yul\":4426:4427   */\n      0x01\n        /* \"#utility.yul\":4415:4424   */\n      dup3\n        /* \"#utility.yul\":4411:4428   */\n      and\n        /* \"#utility.yul\":4442:4443   */\n      0x00\n        /* \"#utility.yul\":4437:4574   */\n      dup2\n      eq\n      tag_318\n      jumpi\n        /* \"#utility.yul\":4588:4589   */\n      0x01\n        /* \"#utility.yul\":4583:4924   */\n      dup2\n      eq\n      tag_319\n      jumpi\n        /* \"#utility.yul\":4404:4924   */\n      jump(tag_317)\n        /* \"#utility.yul\":4437:4574   */\n    tag_318:\n        /* \"#utility.yul\":4521:4525   */\n      0xff\n        /* \"#utility.yul\":4517:4526   */\n      not\n        /* \"#utility.yul\":4506:4515   */\n      dup4\n        /* \"#utility.yul\":4502:4527   */\n      and\n        /* \"#utility.yul\":4497:4500   */\n      dup7\n        /* \"#utility.yul\":4490:4528   */\n      mstore\n        /* \"#utility.yul\":4557:4563   */\n      dup2\n        /* \"#utility.yul\":4552:4555   */\n      dup7\n        /* \"#utility.yul\":4548:4564   */\n      add\n        /* \"#utility.yul\":4541:4564   */\n      swap4\n      pop\n        /* \"#utility.yul\":4437:4574   */\n      jump(tag_317)\n        /* \"#utility.yul\":4583:4924   */\n    tag_319:\n        /* \"#utility.yul\":4650:4688   */\n      tag_320\n        /* \"#utility.yul\":4682:4687   */\n      dup6\n        /* \"#utility.yul\":4650:4688   */\n      tag_321\n      jump\t// in\n    tag_320:\n        /* \"#utility.yul\":4710:4711   */\n      0x00\n        /* \"#utility.yul\":4724:4878   */\n    tag_322:\n        /* \"#utility.yul\":4738:4744   */\n      dup4\n        /* \"#utility.yul\":4735:4736   */\n      dup2\n        /* \"#utility.yul\":4732:4745   */\n      lt\n        /* \"#utility.yul\":4724:4878   */\n      iszero\n      tag_324\n      jumpi\n        /* \"#utility.yul\":4812:4819   */\n      dup2\n        /* \"#utility.yul\":4806:4820   */\n      sload\n        /* \"#utility.yul\":4802:4803   */\n      dup2\n        /* \"#utility.yul\":4797:4800   */\n      dup10\n        /* \"#utility.yul\":4793:4804   */\n      add\n        /* \"#utility.yul\":4786:4821   */\n      mstore\n        /* \"#utility.yul\":4862:4863   */\n      0x01\n        /* \"#utility.yul\":4853:4860   */\n      dup3\n        /* \"#utility.yul\":4849:4864   */\n      add\n        /* \"#utility.yul\":4838:4864   */\n      swap2\n      pop\n        /* \"#utility.yul\":4760:4764   */\n      0x20\n        /* \"#utility.yul\":4757:4758   */\n      dup2\n        /* \"#utility.yul\":4753:4765   */\n      add\n        /* \"#utility.yul\":4748:4765   */\n      swap1\n      pop\n        /* \"#utility.yul\":4724:4878   */\n      jump(tag_322)\n    tag_324:\n        /* \"#utility.yul\":4907:4913   */\n      dup4\n        /* \"#utility.yul\":4902:4905   */\n      dup9\n        /* \"#utility.yul\":4898:4914   */\n      add\n        /* \"#utility.yul\":4891:4914   */\n      swap6\n      pop\n        /* \"#utility.yul\":4590:4924   */\n      pop\n      pop\n        /* \"#utility.yul\":4404:4924   */\n    tag_317:\n      pop\n        /* \"#utility.yul\":4192:4930   */\n      pop\n      pop\n      swap3\n      swap2\n      pop\n      pop\n      jump\t// out\n        /* \"#utility.yul\":4936:5302   */\n    tag_325:\n        /* \"#utility.yul\":5078:5081   */\n      0x00\n        /* \"#utility.yul\":5099:5166   */\n      tag_327\n        /* \"#utility.yul\":5163:5165   */\n      0x26\n        /* \"#utility.yul\":5158:5161   */\n      dup4\n        /* \"#utility.yul\":5099:5166   */\n      tag_302\n      jump\t// in\n    tag_327:\n        /* \"#utility.yul\":5092:5166   */\n      swap2\n      pop\n        /* \"#utility.yul\":5175:5268   */\n      tag_328\n        /* \"#utility.yul\":5264:5267   */\n      dup3\n        /* \"#utility.yul\":5175:5268   */\n      tag_329\n      jump\t// in\n    tag_328:\n        /* \"#utility.yul\":5293:5295   */\n      0x40\n        /* \"#utility.yul\":5288:5291   */\n      dup3\n        /* \"#utility.yul\":5284:5296   */\n      add\n        /* \"#utility.yul\":5277:5296   */\n      swap1\n      pop\n        /* \"#utility.yul\":5082:5302   */\n      swap2\n      swap1\n      pop\n      jump\t// out\n        /* \"#utility.yul\":5308:5674   */\n    tag_330:\n        /* \"#utility.yul\":5450:5453   */\n      0x00\n        /* \"#utility.yul\":5471:5538   */\n      tag_332\n        /* \"#utility.yul\":5535:5537   */\n      0x13\n        /* \"#utility.yul\":5530:5533   */\n      dup4\n        /* \"#utility.yul\":5471:5538   */\n      tag_302\n      jump\t// in\n    tag_332:\n        /* \"#utility.yul\":5464:5538   */\n      swap2\n      pop\n        /* \"#utility.yul\":5547:5640   */\n      tag_333\n        /* \"#utility.yul\":5636:5639   */\n      dup3\n        /* \"#utility.yul\":5547:5640   */\n      tag_334\n      jump\t// in\n    tag_333:\n        /* \"#utility.yul\":5665:5667   */\n      0x20\n        /* \"#utility.yul\":5660:5663   */\n      dup3\n        /* \"#utility.yul\":5656:5668   */\n      add\n        /* \"#utility.yul\":5649:5668   */\n      swap1\n      pop\n        /* \"#utility.yul\":5454:5674   */\n      swap2\n      swap1\n      pop\n      jump\t// out\n        /* \"#utility.yul\":5680:6046   */\n    tag_335:\n        /* \"#utility.yul\":5822:5825   */\n      0x00\n        /* \"#utility.yul\":5843:5910   */\n      tag_337\n        /* \"#utility.yul\":5907:5909   */\n      0x15\n        /* \"#utility.yul\":5902:5905   */\n      dup4\n        /* \"#utility.yul\":5843:5910   */\n      tag_302\n      jump\t// in\n    tag_337:\n        /* \"#utility.yul\":5836:5910   */\n      swap2\n      pop\n        /* \"#utility.yul\":5919:6012   */\n      tag_338\n        /* \"#utility.yul\":6008:6011   */\n      dup3\n        /* \"#utility.yul\":5919:6012   */\n      tag_339\n      jump\t// in\n    tag_338:\n        /* \"#utility.yul\":6037:6039   */\n      0x20\n        /* \"#utility.yul\":6032:6035   */\n      dup3\n        /* \"#utility.yul\":6028:6040   */\n      add\n        /* \"#utility.yul\":6021:6040   */\n      swap1\n      pop\n        /* \"#utility.yul\":5826:6046   */\n      swap2\n      swap1\n      pop\n      jump\t// out\n        /* \"#utility.yul\":6052:6418   */\n    tag_340:\n        /* \"#utility.yul\":6194:6197   */\n      0x00\n        /* \"#utility.yul\":6215:6282   */\n      tag_342\n        /* \"#utility.yul\":6279:6281   */\n      0x29\n        /* \"#utility.yul\":6274:6277   */\n      dup4\n        /* \"#utility.yul\":6215:6282   */\n      tag_302\n      jump\t// in\n    tag_342:\n        /* \"#utility.yul\":6208:6282   */\n      swap2\n      pop\n        /* \"#utility.yul\":6291:6384   */\n      tag_343\n        /* \"#utility.yul\":6380:6383   */\n      dup3\n        /* \"#utility.yul\":6291:6384   */\n      tag_344\n      jump\t// in\n    tag_343:\n        /* \"#utility.yul\":6409:6411   */\n      0x40\n        /* \"#utility.yul\":6404:6407   */\n      dup3\n        /* \"#utility.yul\":6400:6412   */\n      add\n        /* \"#utility.yul\":6393:6412   */\n      swap1\n      pop\n        /* \"#utility.yul\":6198:6418   */\n      swap2\n      swap1\n      pop\n      jump\t// out\n        /* \"#utility.yul\":6424:6790   */\n    tag_345:\n        /* \"#utility.yul\":6566:6569   */\n      0x00\n        /* \"#utility.yul\":6587:6654   */\n      tag_347\n        /* \"#utility.yul\":6651:6653   */\n      0x23\n        /* \"#utility.yul\":6646:6649   */\n      dup4\n        /* \"#utility.yul\":6587:6654   */\n      tag_302\n      jump\t// in\n    tag_347:\n        /* \"#utility.yul\":6580:6654   */\n      swap2\n      pop\n        /* \"#utility.yul\":6663:6756   */\n      tag_348\n        /* \"#utility.yul\":6752:6755   */\n      dup3\n        /* \"#utility.yul\":6663:6756   */\n      tag_349\n      jump\t// in\n    tag_348:\n        /* \"#utility.yul\":6781:6783   */\n      0x40\n        /* \"#utility.yul\":6776:6779   */\n      dup3\n        /* \"#utility.yul\":6772:6784   */\n      add\n        /* \"#utility.yul\":6765:6784   */\n      swap1\n      pop\n        /* \"#utility.yul\":6570:6790   */\n      swap2\n      swap1\n      pop\n      jump\t// out\n        /* \"#utility.yul\":6796:7162   */\n    tag_350:\n        /* \"#utility.yul\":6938:6941   */\n      0x00\n        /* \"#utility.yul\":6959:7026   */\n      tag_352\n        /* \"#utility.yul\":7023:7025   */\n      0x1a\n        /* \"#utility.yul\":7018:7021   */\n      dup4\n        /* \"#utility.yul\":6959:7026   */\n      tag_302\n      jump\t// in\n    tag_352:\n        /* \"#utility.yul\":6952:7026   */\n      swap2\n      pop\n        /* \"#utility.yul\":7035:7128   */\n      tag_353\n        /* \"#utility.yul\":7124:7127   */\n      dup3\n        /* \"#utility.yul\":7035:7128   */\n      tag_354\n      jump\t// in\n    tag_353:\n        /* \"#utility.yul\":7153:7155   */\n      0x20\n        /* \"#utility.yul\":7148:7151   */\n      dup3\n        /* \"#utility.yul\":7144:7156   */\n      add\n        /* \"#utility.yul\":7137:7156   */\n      swap1\n      pop\n        /* \"#utility.yul\":6942:7162   */\n      swap2\n      swap1\n      pop\n      jump\t// out\n        /* \"#utility.yul\":7168:7534   */\n    tag_355:\n        /* \"#utility.yul\":7310:7313   */\n      0x00\n        /* \"#utility.yul\":7331:7398   */\n      tag_357\n        /* \"#utility.yul\":7395:7397   */\n      0x23\n        /* \"#utility.yul\":7390:7393   */\n      dup4\n        /* \"#utility.yul\":7331:7398   */\n      tag_302\n      jump\t// in\n    tag_357:\n        /* \"#utility.yul\":7324:7398   */\n      swap2\n      pop\n        /* \"#utility.yul\":7407:7500   */\n      tag_358\n        /* \"#utility.yul\":7496:7499   */\n      dup3\n        /* \"#utility.yul\":7407:7500   */\n      tag_359\n      jump\t// in\n    tag_358:\n        /* \"#utility.yul\":7525:7527   */\n      0x40\n        /* \"#utility.yul\":7520:7523   */\n      dup3\n        /* \"#utility.yul\":7516:7528   */\n      add\n        /* \"#utility.yul\":7509:7528   */\n      swap1\n      pop\n        /* \"#utility.yul\":7314:7534   */\n      swap2\n      swap1\n      pop\n      jump\t// out\n        /* \"#utility.yul\":7540:7658   */\n    tag_360:\n        /* \"#utility.yul\":7627:7651   */\n      tag_362\n        /* \"#utility.yul\":7645:7650   */\n      dup2\n        /* \"#utility.yul\":7627:7651   */\n      tag_363\n      jump\t// in\n    tag_362:\n        /* \"#utility.yul\":7622:7625   */\n      dup3\n        /* \"#utility.yul\":7615:7652   */\n      mstore\n        /* \"#utility.yul\":7605:7658   */\n      pop\n      pop\n      jump\t// out\n        /* \"#utility.yul\":7664:7939   */\n    tag_156:\n        /* \"#utility.yul\":7796:7799   */\n      0x00\n        /* \"#utility.yul\":7818:7913   */\n      tag_365\n        /* \"#utility.yul\":7909:7912   */\n      dup3\n        /* \"#utility.yul\":7900:7906   */\n      dup5\n        /* \"#utility.yul\":7818:7913   */\n      tag_307\n      jump\t// in\n    tag_365:\n        /* \"#utility.yul\":7811:7913   */\n      swap2\n      pop\n        /* \"#utility.yul\":7930:7933   */\n      dup2\n        /* \"#utility.yul\":7923:7933   */\n      swap1\n      pop\n        /* \"#utility.yul\":7800:7939   */\n      swap3\n      swap2\n      pop\n      pop\n      jump\t// out\n        /* \"#utility.yul\":7945:8214   */\n    tag_158:\n        /* \"#utility.yul\":8074:8077   */\n      0x00\n        /* \"#utility.yul\":8096:8188   */\n      tag_367\n        /* \"#utility.yul\":8184:8187   */\n      dup3\n        /* \"#utility.yul\":8175:8181   */\n      dup5\n        /* \"#utility.yul\":8096:8188   */\n      tag_313\n      jump\t// in\n    tag_367:\n        /* \"#utility.yul\":8089:8188   */\n      swap2\n      pop\n        /* \"#utility.yul\":8205:8208   */\n      dup2\n        /* \"#utility.yul\":8198:8208   */\n      swap1\n      pop\n        /* \"#utility.yul\":8078:8214   */\n      swap3\n      swap2\n      pop\n      pop\n      jump\t// out\n        /* \"#utility.yul\":8220:8442   */\n    tag_45:\n        /* \"#utility.yul\":8313:8317   */\n      0x00\n        /* \"#utility.yul\":8351:8353   */\n      0x20\n        /* \"#utility.yul\":8340:8349   */\n      dup3\n        /* \"#utility.yul\":8336:8354   */\n      add\n        /* \"#utility.yul\":8328:8354   */\n      swap1\n      pop\n        /* \"#utility.yul\":8364:8435   */\n      tag_369\n        /* \"#utility.yul\":8432:8433   */\n      0x00\n        /* \"#utility.yul\":8421:8430   */\n      dup4\n        /* \"#utility.yul\":8417:8434   */\n      add\n        /* \"#utility.yul\":8408:8414   */\n      dup5\n        /* \"#utility.yul\":8364:8435   */\n      tag_285\n      jump\t// in\n    tag_369:\n        /* \"#utility.yul\":8318:8442   */\n      swap3\n      swap2\n      pop\n      pop\n      jump\t// out\n        /* \"#utility.yul\":8448:8780   */\n    tag_56:\n        /* \"#utility.yul\":8569:8573   */\n      0x00\n        /* \"#utility.yul\":8607:8609   */\n      0x40\n        /* \"#utility.yul\":8596:8605   */\n      dup3\n        /* \"#utility.yul\":8592:8610   */\n      add\n        /* \"#utility.yul\":8584:8610   */\n      swap1\n      pop\n        /* \"#utility.yul\":8620:8691   */\n      tag_371\n        /* \"#utility.yul\":8688:8689   */\n      0x00\n        /* \"#utility.yul\":8677:8686   */\n      dup4\n        /* \"#utility.yul\":8673:8690   */\n      add\n        /* \"#utility.yul\":8664:8670   */\n      dup6\n        /* \"#utility.yul\":8620:8691   */\n      tag_285\n      jump\t// in\n    tag_371:\n        /* \"#utility.yul\":8701:8773   */\n      tag_372\n        /* \"#utility.yul\":8769:8771   */\n      0x20\n        /* \"#utility.yul\":8758:8767   */\n      dup4\n        /* \"#utility.yul\":8754:8772   */\n      add\n        /* \"#utility.yul\":8745:8751   */\n      dup5\n        /* \"#utility.yul\":8701:8773   */\n      tag_360\n      jump\t// in\n    tag_372:\n        /* \"#utility.yul\":8574:8780   */\n      swap4\n      swap3\n      pop\n      pop\n      pop\n      jump\t// out\n        /* \"#utility.yul\":8786:8996   */\n    tag_26:\n        /* \"#utility.yul\":8873:8877   */\n      0x00\n        /* \"#utility.yul\":8911:8913   */\n      0x20\n        /* \"#utility.yul\":8900:8909   */\n      dup3\n        /* \"#utility.yul\":8896:8914   */\n      add\n        /* \"#utility.yul\":8888:8914   */\n      swap1\n      pop\n        /* \"#utility.yul\":8924:8989   */\n      tag_374\n        /* \"#utility.yul\":8986:8987   */\n      0x00\n        /* \"#utility.yul\":8975:8984   */\n      dup4\n        /* \"#utility.yul\":8971:8988   */\n      add\n        /* \"#utility.yul\":8962:8968   */\n      dup5\n        /* \"#utility.yul\":8924:8989   */\n      tag_289\n      jump\t// in\n    tag_374:\n        /* \"#utility.yul\":8878:8996   */\n      swap3\n      swap2\n      pop\n      pop\n      jump\t// out\n        /* \"#utility.yul\":9002:9236   */\n    tag_51:\n        /* \"#utility.yul\":9101:9105   */\n      0x00\n        /* \"#utility.yul\":9139:9141   */\n      0x20\n        /* \"#utility.yul\":9128:9137   */\n      dup3\n        /* \"#utility.yul\":9124:9142   */\n      add\n        /* \"#utility.yul\":9116:9142   */\n      swap1\n      pop\n        /* \"#utility.yul\":9152:9229   */\n      tag_376\n        /* \"#utility.yul\":9226:9227   */\n      0x00\n        /* \"#utility.yul\":9215:9224   */\n      dup4\n        /* \"#utility.yul\":9211:9228   */\n      add\n        /* \"#utility.yul\":9202:9208   */\n      dup5\n        /* \"#utility.yul\":9152:9229   */\n      tag_293\n      jump\t// in\n    tag_376:\n        /* \"#utility.yul\":9106:9236   */\n      swap3\n      swap2\n      pop\n      pop\n      jump\t// out\n        /* \"#utility.yul\":9242:9555   */\n    tag_72:\n        /* \"#utility.yul\":9355:9359   */\n      0x00\n        /* \"#utility.yul\":9393:9395   */\n      0x20\n        /* \"#utility.yul\":9382:9391   */\n      dup3\n        /* \"#utility.yul\":9378:9396   */\n      add\n        /* \"#utility.yul\":9370:9396   */\n      swap1\n      pop\n        /* \"#utility.yul\":9442:9451   */\n      dup2\n        /* \"#utility.yul\":9436:9440   */\n      dup2\n        /* \"#utility.yul\":9432:9452   */\n      sub\n        /* \"#utility.yul\":9428:9429   */\n      0x00\n        /* \"#utility.yul\":9417:9426   */\n      dup4\n        /* \"#utility.yul\":9413:9430   */\n      add\n        /* \"#utility.yul\":9406:9453   */\n      mstore\n        /* \"#utility.yul\":9470:9548   */\n      tag_378\n        /* \"#utility.yul\":9543:9547   */\n      dup2\n        /* \"#utility.yul\":9534:9540   */\n      dup5\n        /* \"#utility.yul\":9470:9548   */\n      tag_297\n      jump\t// in\n    tag_378:\n        /* \"#utility.yul\":9462:9548   */\n      swap1\n      pop\n        /* \"#utility.yul\":9360:9555   */\n      swap3\n      swap2\n      pop\n      pop\n      jump\t// out\n        /* \"#utility.yul\":9561:9972   */\n    tag_32:\n        /* \"#utility.yul\":9696:9700   */\n      0x00\n        /* \"#utility.yul\":9734:9736   */\n      0x40\n        /* \"#utility.yul\":9723:9732   */\n      dup3\n        /* \"#utility.yul\":9719:9737   */\n      add\n        /* \"#utility.yul\":9711:9737   */\n      swap1\n      pop\n        /* \"#utility.yul\":9783:9792   */\n      dup2\n        /* \"#utility.yul\":9777:9781   */\n      dup2\n        /* \"#utility.yul\":9773:9793   */\n      sub\n        /* \"#utility.yul\":9769:9770   */\n      0x00\n        /* \"#utility.yul\":9758:9767   */\n      dup4\n        /* \"#utility.yul\":9754:9771   */\n      add\n        /* \"#utility.yul\":9747:9794   */\n      mstore\n        /* \"#utility.yul\":9811:9889   */\n      tag_380\n        /* \"#utility.yul\":9884:9888   */\n      dup2\n        /* \"#utility.yul\":9875:9881   */\n      dup6\n        /* \"#utility.yul\":9811:9889   */\n      tag_297\n      jump\t// in\n    tag_380:\n        /* \"#utility.yul\":9803:9889   */\n      swap1\n      pop\n        /* \"#utility.yul\":9899:9965   */\n      tag_381\n        /* \"#utility.yul\":9961:9963   */\n      0x20\n        /* \"#utility.yul\":9950:9959   */\n      dup4\n        /* \"#utility.yul\":9946:9964   */\n      add\n        /* \"#utility.yul\":9937:9943   */\n      dup5\n        /* \"#utility.yul\":9899:9965   */\n      tag_289\n      jump\t// in\n    tag_381:\n        /* \"#utility.yul\":9701:9972   */\n      swap4\n      swap3\n      pop\n      pop\n      pop\n      jump\t// out\n        /* \"#utility.yul\":9978:10397   */\n    tag_197:\n        /* \"#utility.yul\":10144:10148   */\n      0x00\n        /* \"#utility.yul\":10182:10184   */\n      0x20\n        /* \"#utility.yul\":10171:10180   */\n      dup3\n        /* \"#utility.yul\":10167:10185   */\n      add\n        /* \"#utility.yul\":10159:10185   */\n      swap1\n      pop\n        /* \"#utility.yul\":10231:10240   */\n      dup2\n        /* \"#utility.yul\":10225:10229   */\n      dup2\n        /* \"#utility.yul\":10221:10241   */\n      sub\n        /* \"#utility.yul\":10217:10218   */\n      0x00\n        /* \"#utility.yul\":10206:10215   */\n      dup4\n        /* \"#utility.yul\":10202:10219   */\n      add\n        /* \"#utility.yul\":10195:10242   */\n      mstore\n        /* \"#utility.yul\":10259:10390   */\n      tag_383\n        /* \"#utility.yul\":10385:10389   */\n      dup2\n        /* \"#utility.yul\":10259:10390   */\n      tag_325\n      jump\t// in\n    tag_383:\n        /* \"#utility.yul\":10251:10390   */\n      swap1\n      pop\n        /* \"#utility.yul\":10149:10397   */\n      swap2\n      swap1\n      pop\n      jump\t// out\n        /* \"#utility.yul\":10403:10822   */\n    tag_88:\n        /* \"#utility.yul\":10569:10573   */\n      0x00\n        /* \"#utility.yul\":10607:10609   */\n      0x20\n        /* \"#utility.yul\":10596:10605   */\n      dup3\n        /* \"#utility.yul\":10592:10610   */\n      add\n        /* \"#utility.yul\":10584:10610   */\n      swap1\n      pop\n        /* \"#utility.yul\":10656:10665   */\n      dup2\n        /* \"#utility.yul\":10650:10654   */\n      dup2\n        /* \"#utility.yul\":10646:10666   */\n      sub\n        /* \"#utility.yul\":10642:10643   */\n      0x00\n        /* \"#utility.yul\":10631:10640   */\n      dup4\n        /* \"#utility.yul\":10627:10644   */\n      add\n        /* \"#utility.yul\":10620:10667   */\n      mstore\n        /* \"#utility.yul\":10684:10815   */\n      tag_385\n        /* \"#utility.yul\":10810:10814   */\n      dup2\n        /* \"#utility.yul\":10684:10815   */\n      tag_330\n      jump\t// in\n    tag_385:\n        /* \"#utility.yul\":10676:10815   */\n      swap1\n      pop\n        /* \"#utility.yul\":10574:10822   */\n      swap2\n      swap1\n      pop\n      jump\t// out\n        /* \"#utility.yul\":10828:11247   */\n    tag_121:\n        /* \"#utility.yul\":10994:10998   */\n      0x00\n        /* \"#utility.yul\":11032:11034   */\n      0x20\n        /* \"#utility.yul\":11021:11030   */\n      dup3\n        /* \"#utility.yul\":11017:11035   */\n      add\n        /* \"#utility.yul\":11009:11035   */\n      swap1\n      pop\n        /* \"#utility.yul\":11081:11090   */\n      dup2\n        /* \"#utility.yul\":11075:11079   */\n      dup2\n        /* \"#utility.yul\":11071:11091   */\n      sub\n        /* \"#utility.yul\":11067:11068   */\n      0x00\n        /* \"#utility.yul\":11056:11065   */\n      dup4\n        /* \"#utility.yul\":11052:11069   */\n      add\n        /* \"#utility.yul\":11045:11092   */\n      mstore\n        /* \"#utility.yul\":11109:11240   */\n      tag_387\n        /* \"#utility.yul\":11235:11239   */\n      dup2\n        /* \"#utility.yul\":11109:11240   */\n      tag_335\n      jump\t// in\n    tag_387:\n        /* \"#utility.yul\":11101:11240   */\n      swap1\n      pop\n        /* \"#utility.yul\":10999:11247   */\n      swap2\n      swap1\n      pop\n      jump\t// out\n        /* \"#utility.yul\":11253:11672   */\n    tag_97:\n        /* \"#utility.yul\":11419:11423   */\n      0x00\n        /* \"#utility.yul\":11457:11459   */\n      0x20\n        /* \"#utility.yul\":11446:11455   */\n      dup3\n        /* \"#utility.yul\":11442:11460   */\n      add\n        /* \"#utility.yul\":11434:11460   */\n      swap1\n      pop\n        /* \"#utility.yul\":11506:11515   */\n      dup2\n        /* \"#utility.yul\":11500:11504   */\n      dup2\n        /* \"#utility.yul\":11496:11516   */\n      sub\n        /* \"#utility.yul\":11492:11493   */\n      0x00\n        /* \"#utility.yul\":11481:11490   */\n      dup4\n        /* \"#utility.yul\":11477:11494   */\n      add\n        /* \"#utility.yul\":11470:11517   */\n      mstore\n        /* \"#utility.yul\":11534:11665   */\n      tag_389\n        /* \"#utility.yul\":11660:11664   */\n      dup2\n        /* \"#utility.yul\":11534:11665   */\n      tag_340\n      jump\t// in\n    tag_389:\n        /* \"#utility.yul\":11526:11665   */\n      swap1\n      pop\n        /* \"#utility.yul\":11424:11672   */\n      swap2\n      swap1\n      pop\n      jump\t// out\n        /* \"#utility.yul\":11678:12097   */\n    tag_116:\n        /* \"#utility.yul\":11844:11848   */\n      0x00\n        /* \"#utility.yul\":11882:11884   */\n      0x20\n        /* \"#utility.yul\":11871:11880   */\n      dup3\n        /* \"#utility.yul\":11867:11885   */\n      add\n        /* \"#utility.yul\":11859:11885   */\n      swap1\n      pop\n        /* \"#utility.yul\":11931:11940   */\n      dup2\n        /* \"#utility.yul\":11925:11929   */\n      dup2\n        /* \"#utility.yul\":11921:11941   */\n      sub\n        /* \"#utility.yul\":11917:11918   */\n      0x00\n        /* \"#utility.yul\":11906:11915   */\n      dup4\n        /* \"#utility.yul\":11902:11919   */\n      add\n        /* \"#utility.yul\":11895:11942   */\n      mstore\n        /* \"#utility.yul\":11959:12090   */\n      tag_391\n        /* \"#utility.yul\":12085:12089   */\n      dup2\n        /* \"#utility.yul\":11959:12090   */\n      tag_345\n      jump\t// in\n    tag_391:\n        /* \"#utility.yul\":11951:12090   */\n      swap1\n      pop\n        /* \"#utility.yul\":11849:12097   */\n      swap2\n      swap1\n      pop\n      jump\t// out\n        /* \"#utility.yul\":12103:12522   */\n    tag_163:\n        /* \"#utility.yul\":12269:12273   */\n      0x00\n        /* \"#utility.yul\":12307:12309   */\n      0x20\n        /* \"#utility.yul\":12296:12305   */\n      dup3\n        /* \"#utility.yul\":12292:12310   */\n      add\n        /* \"#utility.yul\":12284:12310   */\n      swap1\n      pop\n        /* \"#utility.yul\":12356:12365   */\n      dup2\n        /* \"#utility.yul\":12350:12354   */\n      dup2\n        /* \"#utility.yul\":12346:12366   */\n      sub\n        /* \"#utility.yul\":12342:12343   */\n      0x00\n        /* \"#utility.yul\":12331:12340   */\n      dup4\n        /* \"#utility.yul\":12327:12344   */\n      add\n        /* \"#utility.yul\":12320:12367   */\n      mstore\n        /* \"#utility.yul\":12384:12515   */\n      tag_393\n        /* \"#utility.yul\":12510:12514   */\n      dup2\n        /* \"#utility.yul\":12384:12515   */\n      tag_350\n      jump\t// in\n    tag_393:\n        /* \"#utility.yul\":12376:12515   */\n      swap1\n      pop\n        /* \"#utility.yul\":12274:12522   */\n      swap2\n      swap1\n      pop\n      jump\t// out\n        /* \"#utility.yul\":12528:12947   */\n    tag_84:\n        /* \"#utility.yul\":12694:12698   */\n      0x00\n        /* \"#utility.yul\":12732:12734   */\n      0x20\n        /* \"#utility.yul\":12721:12730   */\n      dup3\n        /* \"#utility.yul\":12717:12735   */\n      add\n        /* \"#utility.yul\":12709:12735   */\n      swap1\n      pop\n        /* \"#utility.yul\":12781:12790   */\n      dup2\n        /* \"#utility.yul\":12775:12779   */\n      dup2\n        /* \"#utility.yul\":12771:12791   */\n      sub\n        /* \"#utility.yul\":12767:12768   */\n      0x00\n        /* \"#utility.yul\":12756:12765   */\n      dup4\n        /* \"#utility.yul\":12752:12769   */\n      add\n        /* \"#utility.yul\":12745:12792   */\n      mstore\n        /* \"#utility.yul\":12809:12940   */\n      tag_395\n        /* \"#utility.yul\":12935:12939   */\n      dup2\n        /* \"#utility.yul\":12809:12940   */\n      tag_355\n      jump\t// in\n    tag_395:\n        /* \"#utility.yul\":12801:12940   */\n      swap1\n      pop\n        /* \"#utility.yul\":12699:12947   */\n      swap2\n      swap1\n      pop\n      jump\t// out\n        /* \"#utility.yul\":12953:13175   */\n    tag_38:\n        /* \"#utility.yul\":13046:13050   */\n      0x00\n        /* \"#utility.yul\":13084:13086   */\n      0x20\n        /* \"#utility.yul\":13073:13082   */\n      dup3\n        /* \"#utility.yul\":13069:13087   */\n      add\n        /* \"#utility.yul\":13061:13087   */\n      swap1\n      pop\n        /* \"#utility.yul\":13097:13168   */\n      tag_397\n        /* \"#utility.yul\":13165:13166   */\n      0x00\n        /* \"#utility.yul\":13154:13163   */\n      dup4\n        /* \"#utility.yul\":13150:13167   */\n      add\n        /* \"#utility.yul\":13141:13147   */\n      dup5\n        /* \"#utility.yul\":13097:13168   */\n      tag_360\n      jump\t// in\n    tag_397:\n        /* \"#utility.yul\":13051:13175   */\n      swap3\n      swap2\n      pop\n      pop\n      jump\t// out\n        /* \"#utility.yul\":13181:13310   */\n    tag_242:\n        /* \"#utility.yul\":13215:13221   */\n      0x00\n        /* \"#utility.yul\":13242:13262   */\n      tag_399\n      tag_400\n      jump\t// in\n    tag_399:\n        /* \"#utility.yul\":13232:13262   */\n      swap1\n      pop\n        /* \"#utility.yul\":13271:13304   */\n      tag_401\n        /* \"#utility.yul\":13299:13303   */\n      dup3\n        /* \"#utility.yul\":13291:13297   */\n      dup3\n        /* \"#utility.yul\":13271:13304   */\n      tag_402\n      jump\t// in\n    tag_401:\n        /* \"#utility.yul\":13222:13310   */\n      swap2\n      swap1\n      pop\n      jump\t// out\n        /* \"#utility.yul\":13316:13391   */\n    tag_400:\n        /* \"#utility.yul\":13349:13355   */\n      0x00\n        /* \"#utility.yul\":13382:13384   */\n      0x40\n        /* \"#utility.yul\":13376:13385   */\n      mload\n        /* \"#utility.yul\":13366:13385   */\n      swap1\n      pop\n        /* \"#utility.yul\":13356:13391   */\n      swap1\n      jump\t// out\n        /* \"#utility.yul\":13397:13705   */\n    tag_241:\n        /* \"#utility.yul\":13459:13463   */\n      0x00\n        /* \"#utility.yul\":13549:13567   */\n      0xffffffffffffffff\n        /* \"#utility.yul\":13541:13547   */\n      dup3\n        /* \"#utility.yul\":13538:13568   */\n      gt\n        /* \"#utility.yul\":13535:13537   */\n      iszero\n      tag_405\n      jumpi\n        /* \"#utility.yul\":13571:13589   */\n      tag_406\n      tag_407\n      jump\t// in\n    tag_406:\n        /* \"#utility.yul\":13535:13537   */\n    tag_405:\n        /* \"#utility.yul\":13609:13638   */\n      tag_408\n        /* \"#utility.yul\":13631:13637   */\n      dup3\n        /* \"#utility.yul\":13609:13638   */\n      tag_306\n      jump\t// in\n    tag_408:\n        /* \"#utility.yul\":13601:13638   */\n      swap1\n      pop\n        /* \"#utility.yul\":13693:13697   */\n      0x20\n        /* \"#utility.yul\":13687:13691   */\n      dup2\n        /* \"#utility.yul\":13683:13698   */\n      add\n        /* \"#utility.yul\":13675:13698   */\n      swap1\n      pop\n        /* \"#utility.yul\":13464:13705   */\n      swap2\n      swap1\n      pop\n      jump\t// out\n        /* \"#utility.yul\":13711:13852   */\n    tag_321:\n        /* \"#utility.yul\":13760:13764   */\n      0x00\n        /* \"#utility.yul\":13783:13786   */\n      dup2\n        /* \"#utility.yul\":13775:13786   */\n      swap1\n      pop\n        /* \"#utility.yul\":13806:13809   */\n      dup2\n        /* \"#utility.yul\":13803:13804   */\n      0x00\n        /* \"#utility.yul\":13796:13810   */\n      mstore\n        /* \"#utility.yul\":13840:13844   */\n      0x20\n        /* \"#utility.yul\":13837:13838   */\n      0x00\n        /* \"#utility.yul\":13827:13845   */\n      keccak256\n        /* \"#utility.yul\":13819:13845   */\n      swap1\n      pop\n        /* \"#utility.yul\":13765:13852   */\n      swap2\n      swap1\n      pop\n      jump\t// out\n        /* \"#utility.yul\":13858:13957   */\n    tag_300:\n        /* \"#utility.yul\":13910:13916   */\n      0x00\n        /* \"#utility.yul\":13944:13949   */\n      dup2\n        /* \"#utility.yul\":13938:13950   */\n      mload\n        /* \"#utility.yul\":13928:13950   */\n      swap1\n      pop\n        /* \"#utility.yul\":13917:13957   */\n      swap2\n      swap1\n      pop\n      jump\t// out\n        /* \"#utility.yul\":13963:14132   */\n    tag_302:\n        /* \"#utility.yul\":14047:14058   */\n      0x00\n        /* \"#utility.yul\":14081:14087   */\n      dup3\n        /* \"#utility.yul\":14076:14079   */\n      dup3\n        /* \"#utility.yul\":14069:14088   */\n      mstore\n        /* \"#utility.yul\":14121:14125   */\n      0x20\n        /* \"#utility.yul\":14116:14119   */\n      dup3\n        /* \"#utility.yul\":14112:14126   */\n      add\n        /* \"#utility.yul\":14097:14126   */\n      swap1\n      pop\n        /* \"#utility.yul\":14059:14132   */\n      swap3\n      swap2\n      pop\n      pop\n      jump\t// out\n        /* \"#utility.yul\":14138:14286   */\n    tag_311:\n        /* \"#utility.yul\":14240:14251   */\n      0x00\n        /* \"#utility.yul\":14277:14280   */\n      dup2\n        /* \"#utility.yul\":14262:14280   */\n      swap1\n      pop\n        /* \"#utility.yul\":14252:14286   */\n      swap3\n      swap2\n      pop\n      pop\n      jump\t// out\n        /* \"#utility.yul\":14292:14597   */\n    tag_193:\n        /* \"#utility.yul\":14332:14335   */\n      0x00\n        /* \"#utility.yul\":14351:14371   */\n      tag_414\n        /* \"#utility.yul\":14369:14370   */\n      dup3\n        /* \"#utility.yul\":14351:14371   */\n      tag_363\n      jump\t// in\n    tag_414:\n        /* \"#utility.yul\":14346:14371   */\n      swap2\n      pop\n        /* \"#utility.yul\":14385:14405   */\n      tag_415\n        /* \"#utility.yul\":14403:14404   */\n      dup4\n        /* \"#utility.yul\":14385:14405   */\n      tag_363\n      jump\t// in\n    tag_415:\n        /* \"#utility.yul\":14380:14405   */\n      swap3\n      pop\n        /* \"#utility.yul\":14539:14540   */\n      dup3\n        /* \"#utility.yul\":14471:14537   */\n      0xffffffffffffffffffffffffffffffffffffffffffffffffffffffffffffffff\n        /* \"#utility.yul\":14467:14541   */\n      sub\n        /* \"#utility.yul\":14464:14465   */\n      dup3\n        /* \"#utility.yul\":14461:14542   */\n      gt\n        /* \"#utility.yul\":14458:14460   */\n      iszero\n      tag_416\n      jumpi\n        /* \"#utility.yul\":14545:14563   */\n      tag_417\n      tag_418\n      jump\t// in\n    tag_417:\n        /* \"#utility.yul\":14458:14460   */\n    tag_416:\n        /* \"#utility.yul\":14589:14590   */\n      dup3\n        /* \"#utility.yul\":14586:14587   */\n      dup3\n        /* \"#utility.yul\":14582:14591   */\n      add\n        /* \"#utility.yul\":14575:14591   */\n      swap1\n      pop\n        /* \"#utility.yul\":14336:14597   */\n      swap3\n      swap2\n      pop\n      pop\n      jump\t// out\n        /* \"#utility.yul\":14603:14788   */\n    tag_191:\n        /* \"#utility.yul\":14643:14644   */\n      0x00\n        /* \"#utility.yul\":14660:14680   */\n      tag_420\n        /* \"#utility.yul\":14678:14679   */\n      dup3\n        /* \"#utility.yul\":14660:14680   */\n      tag_363\n      jump\t// in\n    tag_420:\n        /* \"#utility.yul\":14655:14680   */\n      swap2\n      pop\n        /* \"#utility.yul\":14694:14714   */\n      tag_421\n        /* \"#utility.yul\":14712:14713   */\n      dup4\n        /* \"#utility.yul\":14694:14714   */\n      tag_363\n      jump\t// in\n    tag_421:\n        /* \"#utility.yul\":14689:14714   */\n      swap3\n      pop\n        /* \"#utility.yul\":14733:14734   */\n      dup3\n        /* \"#utility.yul\":14723:14725   */\n      tag_422\n      jumpi\n        /* \"#utility.yul\":14738:14756   */\n      tag_423\n      tag_424\n      jump\t// in\n    tag_423:\n        /* \"#utility.yul\":14723:14725   */\n    tag_422:\n        /* \"#utility.yul\":14780:14781   */\n      dup3\n        /* \"#utility.yul\":14777:14778   */\n      dup3\n        /* \"#utility.yul\":14773:14782   */\n      div\n        /* \"#utility.yul\":14768:14782   */\n      swap1\n      pop\n        /* \"#utility.yul\":14645:14788   */\n      swap3\n      swap2\n      pop\n      pop\n      jump\t// out\n        /* \"#utility.yul\":14794:14890   */\n    tag_288:\n        /* \"#utility.yul\":14831:14838   */\n      0x00\n        /* \"#utility.yul\":14860:14884   */\n      tag_426\n        /* \"#utility.yul\":14878:14883   */\n      dup3\n        /* \"#utility.yul\":14860:14884   */\n      tag_427\n      jump\t// in\n    tag_426:\n        /* \"#utility.yul\":14849:14884   */\n      swap1\n      pop\n        /* \"#utility.yul\":14839:14890   */\n      swap2\n      swap1\n      pop\n      jump\t// out\n        /* \"#utility.yul\":14896:14986   */\n    tag_292:\n        /* \"#utility.yul\":14930:14937   */\n      0x00\n        /* \"#utility.yul\":14973:14978   */\n      dup2\n        /* \"#utility.yul\":14966:14979   */\n      iszero\n        /* \"#utility.yul\":14959:14980   */\n      iszero\n        /* \"#utility.yul\":14948:14980   */\n      swap1\n      pop\n        /* \"#utility.yul\":14938:14986   */\n      swap2\n      swap1\n      pop\n      jump\t// out\n        /* \"#utility.yul\":14992:15119   */\n    tag_429:\n        /* \"#utility.yul\":15037:15044   */\n      0x00\n        /* \"#utility.yul\":15066:15071   */\n      dup2\n        /* \"#utility.yul\":15055:15071   */\n      swap1\n      pop\n        /* \"#utility.yul\":15072:15113   */\n      tag_431\n        /* \"#utility.yul\":15107:15112   */\n      dup3\n        /* \"#utility.yul\":15072:15113   */\n      tag_432\n      jump\t// in\n    tag_431:\n        /* \"#utility.yul\":15045:15119   */\n      swap2\n      swap1\n      pop\n      jump\t// out\n        /* \"#utility.yul\":15125:15251   */\n    tag_427:\n        /* \"#utility.yul\":15162:15169   */\n      0x00\n        /* \"#utility.yul\":15202:15244   */\n      0xffffffffffffffffffffffffffffffffffffffff\n        /* \"#utility.yul\":15195:15200   */\n      dup3\n        /* \"#utility.yul\":15191:15245   */\n      and\n        /* \"#utility.yul\":15180:15245   */\n      swap1\n      pop\n        /* \"#utility.yul\":15170:15251   */\n      swap2\n      swap1\n      pop\n      jump\t// out\n        /* \"#utility.yul\":15257:15334   */\n    tag_363:\n        /* \"#utility.yul\":15294:15301   */\n      0x00\n        /* \"#utility.yul\":15323:15328   */\n      dup2\n        /* \"#utility.yul\":15312:15328   */\n      swap1\n      pop\n        /* \"#utility.yul\":15302:15334   */\n      swap2\n      swap1\n      pop\n      jump\t// out\n        /* \"#utility.yul\":15340:15467   */\n    tag_296:\n        /* \"#utility.yul\":15396:15405   */\n      0x00\n        /* \"#utility.yul\":15429:15461   */\n      tag_436\n        /* \"#utility.yul\":15455:15460   */\n      dup3\n        /* \"#utility.yul\":15429:15461   */\n      tag_429\n      jump\t// in\n    tag_436:\n        /* \"#utility.yul\":15416:15461   */\n      swap1\n      pop\n        /* \"#utility.yul\":15406:15467   */\n      swap2\n      swap1\n      pop\n      jump\t// out\n        /* \"#utility.yul\":15473:15627   */\n    tag_247:\n        /* \"#utility.yul\":15557:15563   */\n      dup3\n        /* \"#utility.yul\":15552:15555   */\n      dup2\n        /* \"#utility.yul\":15547:15550   */\n      dup4\n        /* \"#utility.yul\":15534:15564   */\n      calldatacopy\n        /* \"#utility.yul\":15619:15620   */\n      0x00\n        /* \"#utility.yul\":15610:15616   */\n      dup4\n        /* \"#utility.yul\":15605:15608   */\n      dup4\n        /* \"#utility.yul\":15601:15617   */\n      add\n        /* \"#utility.yul\":15594:15621   */\n      mstore\n        /* \"#utility.yul\":15524:15627   */\n      pop\n      pop\n      pop\n      jump\t// out\n        /* \"#utility.yul\":15633:15940   */\n    tag_304:\n        /* \"#utility.yul\":15701:15702   */\n      0x00\n        /* \"#utility.yul\":15711:15824   */\n    tag_439:\n        /* \"#utility.yul\":15725:15731   */\n      dup4\n        /* \"#utility.yul\":15722:15723   */\n      dup2\n        /* \"#utility.yul\":15719:15732   */\n      lt\n        /* \"#utility.yul\":15711:15824   */\n      iszero\n      tag_441\n      jumpi\n        /* \"#utility.yul\":15810:15811   */\n      dup1\n        /* \"#utility.yul\":15805:15808   */\n      dup3\n        /* \"#utility.yul\":15801:15812   */\n      add\n        /* \"#utility.yul\":15795:15813   */\n      mload\n        /* \"#utility.yul\":15791:15792   */\n      dup2\n        /* \"#utility.yul\":15786:15789   */\n      dup5\n        /* \"#utility.yul\":15782:15793   */\n      add\n        /* \"#utility.yul\":15775:15814   */\n      mstore\n        /* \"#utility.yul\":15747:15749   */\n      0x20\n        /* \"#utility.yul\":15744:15745   */\n      dup2\n        /* \"#utility.yul\":15740:15750   */\n      add\n        /* \"#utility.yul\":15735:15750   */\n      swap1\n      pop\n        /* \"#utility.yul\":15711:15824   */\n      jump(tag_439)\n    tag_441:\n        /* \"#utility.yul\":15842:15848   */\n      dup4\n        /* \"#utility.yul\":15839:15840   */\n      dup2\n        /* \"#utility.yul\":15836:15849   */\n      gt\n        /* \"#utility.yul\":15833:15835   */\n      iszero\n      tag_442\n      jumpi\n        /* \"#utility.yul\":15922:15923   */\n      0x00\n        /* \"#utility.yul\":15913:15919   */\n      dup5\n        /* \"#utility.yul\":15908:15911   */\n      dup5\n        /* \"#utility.yul\":15904:15920   */\n      add\n        /* \"#utility.yul\":15897:15924   */\n      mstore\n        /* \"#utility.yul\":15833:15835   */\n    tag_442:\n        /* \"#utility.yul\":15682:15940   */\n      pop\n      pop\n      pop\n      pop\n      jump\t// out\n        /* \"#utility.yul\":15946:16266   */\n    tag_100:\n        /* \"#utility.yul\":15990:15996   */\n      0x00\n        /* \"#utility.yul\":16027:16028   */\n      0x02\n        /* \"#utility.yul\":16021:16025   */\n      dup3\n        /* \"#utility.yul\":16017:16029   */\n      div\n        /* \"#utility.yul\":16007:16029   */\n      swap1\n      pop\n        /* \"#utility.yul\":16074:16075   */\n      0x01\n        /* \"#utility.yul\":16068:16072   */\n      dup3\n        /* \"#utility.yul\":16064:16076   */\n      and\n        /* \"#utility.yul\":16095:16113   */\n      dup1\n        /* \"#utility.yul\":16085:16087   */\n      tag_444\n      jumpi\n        /* \"#utility.yul\":16151:16155   */\n      0x7f\n        /* \"#utility.yul\":16143:16149   */\n      dup3\n        /* \"#utility.yul\":16139:16156   */\n      and\n        /* \"#utility.yul\":16129:16156   */\n      swap2\n      pop\n        /* \"#utility.yul\":16085:16087   */\n    tag_444:\n        /* \"#utility.yul\":16213:16215   */\n      0x20\n        /* \"#utility.yul\":16205:16211   */\n      dup3\n        /* \"#utility.yul\":16202:16216   */\n      lt\n        /* \"#utility.yul\":16182:16200   */\n      dup2\n        /* \"#utility.yul\":16179:16217   */\n      eq\n        /* \"#utility.yul\":16176:16178   */\n      iszero\n      tag_445\n      jumpi\n        /* \"#utility.yul\":16232:16250   */\n      tag_446\n      tag_447\n      jump\t// in\n    tag_446:\n        /* \"#utility.yul\":16176:16178   */\n    tag_445:\n        /* \"#utility.yul\":15997:16266   */\n      pop\n      swap2\n      swap1\n      pop\n      jump\t// out\n        /* \"#utility.yul\":16272:16553   */\n    tag_402:\n        /* \"#utility.yul\":16355:16382   */\n      tag_449\n        /* \"#utility.yul\":16377:16381   */\n      dup3\n        /* \"#utility.yul\":16355:16382   */\n      tag_306\n      jump\t// in\n    tag_449:\n        /* \"#utility.yul\":16347:16353   */\n      dup2\n        /* \"#utility.yul\":16343:16383   */\n      add\n        /* \"#utility.yul\":16485:16491   */\n      dup2\n        /* \"#utility.yul\":16473:16483   */\n      dup2\n        /* \"#utility.yul\":16470:16492   */\n      lt\n        /* \"#utility.yul\":16449:16467   */\n      0xffffffffffffffff\n        /* \"#utility.yul\":16437:16447   */\n      dup3\n        /* \"#utility.yul\":16434:16468   */\n      gt\n        /* \"#utility.yul\":16431:16493   */\n      or\n        /* \"#utility.yul\":16428:16430   */\n      iszero\n      tag_450\n      jumpi\n        /* \"#utility.yul\":16496:16514   */\n      tag_451\n      tag_407\n      jump\t// in\n    tag_451:\n        /* \"#utility.yul\":16428:16430   */\n    tag_450:\n        /* \"#utility.yul\":16536:16546   */\n      dup1\n        /* \"#utility.yul\":16532:16534   */\n      0x40\n        /* \"#utility.yul\":16525:16547   */\n      mstore\n        /* \"#utility.yul\":16315:16553   */\n      pop\n      pop\n      pop\n      jump\t// out\n        /* \"#utility.yul\":16559:16792   */\n    tag_107:\n        /* \"#utility.yul\":16598:16601   */\n      0x00\n        /* \"#utility.yul\":16621:16645   */\n      tag_453\n        /* \"#utility.yul\":16639:16644   */\n      dup3\n        /* \"#utility.yul\":16621:16645   */\n      tag_363\n      jump\t// in\n    tag_453:\n        /* \"#utility.yul\":16612:16645   */\n      swap2\n      pop\n        /* \"#utility.yul\":16667:16733   */\n      0xffffffffffffffffffffffffffffffffffffffffffffffffffffffffffffffff\n        /* \"#utility.yul\":16660:16665   */\n      dup3\n        /* \"#utility.yul\":16657:16734   */\n      eq\n        /* \"#utility.yul\":16654:16656   */\n      iszero\n      tag_454\n      jumpi\n        /* \"#utility.yul\":16737:16755   */\n      tag_455\n      tag_418\n      jump\t// in\n    tag_455:\n        /* \"#utility.yul\":16654:16656   */\n    tag_454:\n        /* \"#utility.yul\":16784:16785   */\n      0x01\n        /* \"#utility.yul\":16777:16782   */\n      dup3\n        /* \"#utility.yul\":16773:16786   */\n      add\n        /* \"#utility.yul\":16766:16786   */\n      swap1\n      pop\n        /* \"#utility.yul\":16602:16792   */\n      swap2\n      swap1\n      pop\n      jump\t// out\n        /* \"#utility.yul\":16798:16978   */\n    tag_418:\n        /* \"#utility.yul\":16846:16923   */\n      0x4e487b7100000000000000000000000000000000000000000000000000000000\n        /* \"#utility.yul\":16843:16844   */\n      0x00\n        /* \"#utility.yul\":16836:16924   */\n      mstore\n        /* \"#utility.yul\":16943:16947   */\n      0x11\n        /* \"#utility.yul\":16940:16941   */\n      0x04\n        /* \"#utility.yul\":16933:16948   */\n      mstore\n        /* \"#utility.yul\":16967:16971   */\n      0x24\n        /* \"#utility.yul\":16964:16965   */\n      0x00\n        /* \"#utility.yul\":16957:16972   */\n      revert\n        /* \"#utility.yul\":16984:17164   */\n    tag_424:\n        /* \"#utility.yul\":17032:17109   */\n      0x4e487b7100000000000000000000000000000000000000000000000000000000\n        /* \"#utility.yul\":17029:17030   */\n      0x00\n        /* \"#utility.yul\":17022:17110   */\n      mstore\n        /* \"#utility.yul\":17129:17133   */\n      0x12\n        /* \"#utility.yul\":17126:17127   */\n      0x04\n        /* \"#utility.yul\":17119:17134   */\n      mstore\n        /* \"#utility.yul\":17153:17157   */\n      0x24\n        /* \"#utility.yul\":17150:17151   */\n      0x00\n        /* \"#utility.yul\":17143:17158   */\n      revert\n        /* \"#utility.yul\":17170:17350   */\n    tag_92:\n        /* \"#utility.yul\":17218:17295   */\n      0x4e487b7100000000000000000000000000000000000000000000000000000000\n        /* \"#utility.yul\":17215:17216   */\n      0x00\n        /* \"#utility.yul\":17208:17296   */\n      mstore\n        /* \"#utility.yul\":17315:17319   */\n      0x21\n        /* \"#utility.yul\":17312:17313   */\n      0x04\n        /* \"#utility.yul\":17305:17320   */\n      mstore\n        /* \"#utility.yul\":17339:17343   */\n      0x24\n        /* \"#utility.yul\":17336:17337   */\n      0x00\n        /* \"#utility.yul\":17329:17344   */\n      revert\n        /* \"#utility.yul\":17356:17536   */\n    tag_447:\n        /* \"#utility.yul\":17404:17481   */\n      0x4e487b7100000000000000000000000000000000000000000000000000000000\n        /* \"#utility.yul\":17401:17402   */\n      0x00\n        /* \"#utility.yul\":17394:17482   */\n      mstore\n        /* \"#utility.yul\":17501:17505   */\n      0x22\n        /* \"#utility.yul\":17498:17499   */\n      0x04\n        /* \"#utility.yul\":17491:17506   */\n      mstore\n        /* \"#utility.yul\":17525:17529   */\n      0x24\n        /* \"#utility.yul\":17522:17523   */\n      0x00\n        /* \"#utility.yul\":17515:17530   */\n      revert\n        /* \"#utility.yul\":17542:17722   */\n    tag_407:\n        /* \"#utility.yul\":17590:17667   */\n      0x4e487b7100000000000000000000000000000000000000000000000000000000\n        /* \"#utility.yul\":17587:17588   */\n      0x00\n        /* \"#utility.yul\":17580:17668   */\n      mstore\n        /* \"#utility.yul\":17687:17691   */\n      0x41\n        /* \"#utility.yul\":17684:17685   */\n      0x04\n        /* \"#utility.yul\":17677:17692   */\n      mstore\n        /* \"#utility.yul\":17711:17715   */\n      0x24\n        /* \"#utility.yul\":17708:17709   */\n      0x00\n        /* \"#utility.yul\":17701:17716   */\n      revert\n        /* \"#utility.yul\":17728:17845   */\n    tag_256:\n        /* \"#utility.yul\":17837:17838   */\n      0x00\n        /* \"#utility.yul\":17834:17835   */\n      dup1\n        /* \"#utility.yul\":17827:17839   */\n      revert\n        /* \"#utility.yul\":17851:17968   */\n    tag_245:\n        /* \"#utility.yul\":17960:17961   */\n      0x00\n        /* \"#utility.yul\":17957:17958   */\n      dup1\n        /* \"#utility.yul\":17950:17962   */\n      revert\n        /* \"#utility.yul\":17974:18091   */\n    tag_273:\n        /* \"#utility.yul\":18083:18084   */\n      0x00\n        /* \"#utility.yul\":18080:18081   */\n      dup1\n        /* \"#utility.yul\":18073:18085   */\n      revert\n        /* \"#utility.yul\":18097:18214   */\n    tag_265:\n        /* \"#utility.yul\":18206:18207   */\n      0x00\n        /* \"#utility.yul\":18203:18204   */\n      dup1\n        /* \"#utility.yul\":18196:18208   */\n      revert\n        /* \"#utility.yul\":18220:18322   */\n    tag_306:\n        /* \"#utility.yul\":18261:18267   */\n      0x00\n        /* \"#utility.yul\":18312:18314   */\n      0x1f\n        /* \"#utility.yul\":18308:18315   */\n      not\n        /* \"#utility.yul\":18303:18305   */\n      0x1f\n        /* \"#utility.yul\":18296:18301   */\n      dup4\n        /* \"#utility.yul\":18292:18306   */\n      add\n        /* \"#utility.yul\":18288:18316   */\n      and\n        /* \"#utility.yul\":18278:18316   */\n      swap1\n      pop\n        /* \"#utility.yul\":18268:18322   */\n      swap2\n      swap1\n      pop\n      jump\t// out\n        /* \"#utility.yul\":18328:18553   */\n    tag_329:\n        /* \"#utility.yul\":18468:18502   */\n      0x566f74696e672071756f72756d206973206e6f74206d65742e204b6565702076\n        /* \"#utility.yul\":18464:18465   */\n      0x00\n        /* \"#utility.yul\":18456:18462   */\n      dup3\n        /* \"#utility.yul\":18452:18466   */\n      add\n        /* \"#utility.yul\":18445:18503   */\n      mstore\n        /* \"#utility.yul\":18537:18545   */\n      0x6f74696e672e0000000000000000000000000000000000000000000000000000\n        /* \"#utility.yul\":18532:18534   */\n      0x20\n        /* \"#utility.yul\":18524:18530   */\n      dup3\n        /* \"#utility.yul\":18520:18535   */\n      add\n        /* \"#utility.yul\":18513:18546   */\n      mstore\n        /* \"#utility.yul\":18434:18553   */\n      pop\n      jump\t// out\n        /* \"#utility.yul\":18559:18728   */\n    tag_334:\n        /* \"#utility.yul\":18699:18720   */\n      0x43616e206f6e6c7920766f7465206f6e63652e00000000000000000000000000\n        /* \"#utility.yul\":18695:18696   */\n      0x00\n        /* \"#utility.yul\":18687:18693   */\n      dup3\n        /* \"#utility.yul\":18683:18697   */\n      add\n        /* \"#utility.yul\":18676:18721   */\n      mstore\n        /* \"#utility.yul\":18665:18728   */\n      pop\n      jump\t// out\n        /* \"#utility.yul\":18734:18905   */\n    tag_339:\n        /* \"#utility.yul\":18874:18897   */\n      0x467269656e6420616c7265616479206578697374730000000000000000000000\n        /* \"#utility.yul\":18870:18871   */\n      0x00\n        /* \"#utility.yul\":18862:18868   */\n      dup3\n        /* \"#utility.yul\":18858:18872   */\n      add\n        /* \"#utility.yul\":18851:18898   */\n      mstore\n        /* \"#utility.yul\":18840:18905   */\n      pop\n      jump\t// out\n        /* \"#utility.yul\":18911:19139   */\n    tag_344:\n        /* \"#utility.yul\":19051:19085   */\n      0x46756e6374696f6e2063616e206e6f742062652063616c6c656420696e207468\n        /* \"#utility.yul\":19047:19048   */\n      0x00\n        /* \"#utility.yul\":19039:19045   */\n      dup3\n        /* \"#utility.yul\":19035:19049   */\n      add\n        /* \"#utility.yul\":19028:19086   */\n      mstore\n        /* \"#utility.yul\":19120:19131   */\n      0x69732073746167652e0000000000000000000000000000000000000000000000\n        /* \"#utility.yul\":19115:19117   */\n      0x20\n        /* \"#utility.yul\":19107:19113   */\n      dup3\n        /* \"#utility.yul\":19103:19118   */\n      add\n        /* \"#utility.yul\":19096:19132   */\n      mstore\n        /* \"#utility.yul\":19017:19139   */\n      pop\n      jump\t// out\n        /* \"#utility.yul\":19145:19367   */\n    tag_349:\n        /* \"#utility.yul\":19285:19319   */\n      0x43616e206f6e6c7920626520657865637574656420627920746865206d616e61\n        /* \"#utility.yul\":19281:19282   */\n      0x00\n        /* \"#utility.yul\":19273:19279   */\n      dup3\n        /* \"#utility.yul\":19269:19283   */\n      add\n        /* \"#utility.yul\":19262:19320   */\n      mstore\n        /* \"#utility.yul\":19354:19359   */\n      0x6765720000000000000000000000000000000000000000000000000000000000\n        /* \"#utility.yul\":19349:19351   */\n      0x20\n        /* \"#utility.yul\":19341:19347   */\n      dup3\n        /* \"#utility.yul\":19337:19352   */\n      add\n        /* \"#utility.yul\":19330:19360   */\n      mstore\n        /* \"#utility.yul\":19251:19367   */\n      pop\n      jump\t// out\n        /* \"#utility.yul\":19373:19549   */\n    tag_354:\n        /* \"#utility.yul\":19513:19541   */\n      0x52657374617572616e7420616c7265616479206578697374732e000000000000\n        /* \"#utility.yul\":19509:19510   */\n      0x00\n        /* \"#utility.yul\":19501:19507   */\n      dup3\n        /* \"#utility.yul\":19497:19511   */\n      add\n        /* \"#utility.yul\":19490:19542   */\n      mstore\n        /* \"#utility.yul\":19479:19549   */\n      pop\n      jump\t// out\n        /* \"#utility.yul\":19555:19777   */\n    tag_359:\n        /* \"#utility.yul\":19695:19729   */\n      0x43616e20766f7465206f6e6c79207768696c6520766f74696e67206973206f70\n        /* \"#utility.yul\":19691:19692   */\n      0x00\n        /* \"#utility.yul\":19683:19689   */\n      dup3\n        /* \"#utility.yul\":19679:19693   */\n      add\n        /* \"#utility.yul\":19672:19730   */\n      mstore\n        /* \"#utility.yul\":19764:19769   */\n      0x656e2e0000000000000000000000000000000000000000000000000000000000\n        /* \"#utility.yul\":19759:19761   */\n      0x20\n        /* \"#utility.yul\":19751:19757   */\n      dup3\n        /* \"#utility.yul\":19747:19762   */\n      add\n        /* \"#utility.yul\":19740:19770   */\n      mstore\n        /* \"#utility.yul\":19661:19777   */\n      pop\n      jump\t// out\n        /* \"#utility.yul\":19783:19896   */\n    tag_432:\n        /* \"#utility.yul\":19864:19865   */\n      0x03\n        /* \"#utility.yul\":19857:19862   */\n      dup2\n        /* \"#utility.yul\":19854:19866   */\n      lt\n        /* \"#utility.yul\":19844:19846   */\n      tag_474\n      jumpi\n        /* \"#utility.yul\":19870:19888   */\n      tag_475\n      tag_92\n      jump\t// in\n    tag_475:\n        /* \"#utility.yul\":19844:19846   */\n    tag_474:\n        /* \"#utility.yul\":19834:19896   */\n      pop\n      jump\t// out\n        /* \"#utility.yul\":19902:20024   */\n    tag_251:\n        /* \"#utility.yul\":19975:19999   */\n      tag_477\n        /* \"#utility.yul\":19993:19998   */\n      dup2\n        /* \"#utility.yul\":19975:19999   */\n      tag_288\n      jump\t// in\n    tag_477:\n        /* \"#utility.yul\":19968:19973   */\n      dup2\n        /* \"#utility.yul\":19965:20000   */\n      eq\n        /* \"#utility.yul\":19955:19957   */\n      tag_478\n      jumpi\n        /* \"#utility.yul\":20014:20015   */\n      0x00\n        /* \"#utility.yul\":20011:20012   */\n      dup1\n        /* \"#utility.yul\":20004:20016   */\n      revert\n        /* \"#utility.yul\":19955:19957   */\n    tag_478:\n        /* \"#utility.yul\":19945:20024   */\n      pop\n      jump\t// out\n        /* \"#utility.yul\":20030:20152   */\n    tag_261:\n        /* \"#utility.yul\":20103:20127   */\n      tag_480\n        /* \"#utility.yul\":20121:20126   */\n      dup2\n        /* \"#utility.yul\":20103:20127   */\n      tag_363\n      jump\t// in\n    tag_480:\n        /* \"#utility.yul\":20096:20101   */\n      dup2\n        /* \"#utility.yul\":20093:20128   */\n      eq\n        /* \"#utility.yul\":20083:20085   */\n      tag_481\n      jumpi\n        /* \"#utility.yul\":20142:20143   */\n      0x00\n        /* \"#utility.yul\":20139:20140   */\n      dup1\n        /* \"#utility.yul\":20132:20144   */\n      revert\n        /* \"#utility.yul\":20083:20085   */\n    tag_481:\n        /* \"#utility.yul\":20073:20152   */\n      pop\n      jump\t// out\n\n    auxdata: 0xa26469706673582212205353e05addffda7ea7bafa7ddec0111207a2e3dcea4f8e13c6050e94972be8c064736f6c63430008050033\n}\n",
				"bytecode": {
					"linkReferences": {},
					"object": "608060405260008060006101000a81548160ff021916908360028111156200002c576200002b620001be565b5b0217905550600060035560006004556000600555604051806020016040528060008152506007908051906020019062000067929190620000d8565b506001600a60006101000a81548160ff0219169083151502179055503480156200009057600080fd5b5033600660006101000a81548173ffffffffffffffffffffffffffffffffffffffff021916908373ffffffffffffffffffffffffffffffffffffffff1602179055506200021c565b828054620000e69062000188565b90600052602060002090601f0160209004810192826200010a576000855562000156565b82601f106200012557805160ff191683800117855562000156565b8280016001018555821562000156579182015b828111156200015557825182559160200191906001019062000138565b5b50905062000165919062000169565b5090565b5b80821115620001845760008160009055506001016200016a565b5090565b60006002820490506001821680620001a157607f821691505b60208210811415620001b857620001b7620001ed565b5b50919050565b7f4e487b7100000000000000000000000000000000000000000000000000000000600052602160045260246000fd5b7f4e487b7100000000000000000000000000000000000000000000000000000000600052602260045260246000fd5b611e16806200022c6000396000f3fe608060405234801561001057600080fd5b50600436106100f55760003560e01c80635df8133011610097578063ad5461d811610066578063ad5461d81461028c578063b798867f146102bc578063b9223946146102da578063c1c16efc146102e4576100f5565b80635df81330146101ef5780636d77bd3e14610220578063788d385114610250578063a3bef4d71461026e576100f5565b806347098f36116100d357806347098f361461018b578063481c6a75146101a95780634c0a6af0146101c75780635bf5d54c146101d1576100f5565b8063124258c6146100fa5780631ddabf7a1461012a5780633b9f708d1461015b575b600080fd5b610114600480360381019061010f9190611427565b610302565b60405161012191906116e0565b60405180910390f35b610144600480360381019061013f9190611355565b61061c565b604051610152929190611738565b60405180910390f35b61017560048036038101906101709190611382565b6106d5565b6040516101829190611848565b60405180910390f35b610193610936565b6040516101a09190611848565b60405180910390f35b6101b161093c565b6040516101be919061169c565b60405180910390f35b6101cf610962565b005b6101d9610a94565b6040516101e691906116fb565b60405180910390f35b61020960048036038101906102049190611427565b610aa5565b6040516102179291906116b7565b60405180910390f35b61023a600480360381019061023591906113de565b610ae9565b6040516102479190611848565b60405180910390f35b610258610d15565b60405161026591906116e0565b60405180910390f35b610276610d28565b6040516102839190611848565b60405180910390f35b6102a660048036038101906102a19190611427565b610d2e565b6040516102b39190611716565b60405180910390f35b6102c4610dce565b6040516102d19190611848565b60405180910390f35b6102e2610dd4565b005b6102ec610f7a565b6040516102f99190611716565b60405180910390f35b600060011515600a60009054906101000a900460ff1615151461035a576040517f08c379a000000000000000000000000000000000000000000000000000000000815260040161035190611828565b60405180910390fd5b3360001515600260008373ffffffffffffffffffffffffffffffffffffffff1673ffffffffffffffffffffffffffffffffffffffff16815260200190815260200160002060010160009054906101000a900460ff161515146103f1576040517f08c379a00000000000000000000000000000000000000000000000000000000081526004016103e890611788565b60405180910390fd5b600180600281111561040657610405611b35565b5b60008054906101000a900460ff16600281111561042657610425611b35565b5b14610466576040517f08c379a000000000000000000000000000000000000000000000000000000000815260040161045d906117c8565b60405180910390fd5b600092506000600260003373ffffffffffffffffffffffffffffffffffffffff1673ffffffffffffffffffffffffffffffffffffffff16815260200190815260200160002060000180546104b990611a2b565b9050146106155760006001600086815260200190815260200160002080546104e090611a2b565b90501461061457600192506001600260003373ffffffffffffffffffffffffffffffffffffffff1673ffffffffffffffffffffffffffffffffffffffff16815260200190815260200160002060010160006101000a81548160ff02191690831515021790555061054e61113f565b33816000019073ffffffffffffffffffffffffffffffffffffffff16908173ffffffffffffffffffffffffffffffffffffffff168152505084816020018181525050600560008154809291906105a390611a8e565b91905055508060086000600554815260200190815260200160002060008201518160000160006101000a81548173ffffffffffffffffffffffffffffffffffffffff021916908373ffffffffffffffffffffffffffffffffffffffff16021790555060208201518160010155905050505b5b5050919050565b600260205280600052604060002060009150905080600001805461063f90611a2b565b80601f016020809104026020016040519081016040528092919081815260200182805461066b90611a2b565b80156106b85780601f1061068d576101008083540402835291602001916106b8565b820191906000526020600020905b81548152906001019060200180831161069b57829003601f168201915b5050505050908060010160009054906101000a900460ff16905082565b6000600660009054906101000a900473ffffffffffffffffffffffffffffffffffffffff1673ffffffffffffffffffffffffffffffffffffffff163373ffffffffffffffffffffffffffffffffffffffff1614610767576040517f08c379a000000000000000000000000000000000000000000000000000000000815260040161075e906117e8565b60405180910390fd5b826000600260008373ffffffffffffffffffffffffffffffffffffffff1673ffffffffffffffffffffffffffffffffffffffff16815260200190815260200160002060000180546107b790611a2b565b9050146107f9576040517f08c379a00000000000000000000000000000000000000000000000000000000081526004016107f0906117a8565b60405180910390fd5b600080600281111561080e5761080d611b35565b5b60008054906101000a900460ff16600281111561082e5761082d611b35565b5b1461086e576040517f08c379a0000000000000000000000000000000000000000000000000000000008152600401610865906117c8565b60405180910390fd5b61087661116f565b848160000181905250600081602001901515908115158152505080600260008873ffffffffffffffffffffffffffffffffffffffff1673ffffffffffffffffffffffffffffffffffffffff16815260200190815260200160002060008201518160000190805190602001906108ec92919061118b565b5060208201518160010160006101000a81548160ff0219169083151502179055509050506004600081548092919061092390611a8e565b9190505550600454935050505092915050565b60045481565b600660009054906101000a900473ffffffffffffffffffffffffffffffffffffffff1681565b600660009054906101000a900473ffffffffffffffffffffffffffffffffffffffff1673ffffffffffffffffffffffffffffffffffffffff163373ffffffffffffffffffffffffffffffffffffffff16146109f2576040517f08c379a00000000000000000000000000000000000000000000000000000000081526004016109e9906117e8565b60405180910390fd5b6000806002811115610a0757610a06611b35565b5b60008054906101000a900460ff166002811115610a2757610a26611b35565b5b14610a67576040517f08c379a0000000000000000000000000000000000000000000000000000000008152600401610a5e906117c8565b60405180910390fd5b60016000806101000a81548160ff02191690836002811115610a8c57610a8b611b35565b5b021790555050565b60008054906101000a900460ff1681565b60086020528060005260406000206000915090508060000160009054906101000a900473ffffffffffffffffffffffffffffffffffffffff16908060010154905082565b6000600660009054906101000a900473ffffffffffffffffffffffffffffffffffffffff1673ffffffffffffffffffffffffffffffffffffffff163373ffffffffffffffffffffffffffffffffffffffff1614610b7b576040517f08c379a0000000000000000000000000000000000000000000000000000000008152600401610b72906117e8565b60405180910390fd5b81600080600190505b6003548111610c0f5782604051602001610b9e919061166e565b6040516020818303038152906040528051906020012060016000838152602001908152602001600020604051602001610bd79190611685565b604051602081830303815290604052805190602001201415610bfc5760019150610c0f565b8080610c0790611a8e565b915050610b84565b508015610c51576040517f08c379a0000000000000000000000000000000000000000000000000000000008152600401610c4890611808565b60405180910390fd5b6000806002811115610c6657610c65611b35565b5b60008054906101000a900460ff166002811115610c8657610c85611b35565b5b14610cc6576040517f08c379a0000000000000000000000000000000000000000000000000000000008152600401610cbd906117c8565b60405180910390fd5b60036000815480929190610cd990611a8e565b9190505550846001600060035481526020019081526020016000209080519060200190610d0792919061118b565b506003549350505050919050565b600a60009054906101000a900460ff1681565b60055481565b60016020528060005260406000206000915090508054610d4d90611a2b565b80601f0160208091040260200160405190810160405280929190818152602001828054610d7990611a2b565b8015610dc65780601f10610d9b57610100808354040283529160200191610dc6565b820191906000526020600020905b815481529060010190602001808311610da957829003601f168201915b505050505081565b60035481565b600660009054906101000a900473ffffffffffffffffffffffffffffffffffffffff1673ffffffffffffffffffffffffffffffffffffffff163373ffffffffffffffffffffffffffffffffffffffff1614610e64576040517f08c379a0000000000000000000000000000000000000000000000000000000008152600401610e5b906117e8565b60405180910390fd5b6001806002811115610e7957610e78611b35565b5b60008054906101000a900460ff166002811115610e9957610e98611b35565b5b14610ed9576040517f08c379a0000000000000000000000000000000000000000000000000000000008152600401610ed0906117c8565b60405180910390fd5b600060016002600454610eec919061194b565b610ef691906118f5565b60055410610f0357600190505b8015610f44576040517f08c379a0000000000000000000000000000000000000000000000000000000008152600401610f3b90611768565b60405180910390fd5b60026000806101000a81548160ff02191690836002811115610f6957610f68611b35565b5b0217905550610f76611008565b5050565b60078054610f8790611a2b565b80601f0160208091040260200160405190810160405280929190818152602001828054610fb390611a2b565b80156110005780601f10610fd557610100808354040283529160200191611000565b820191906000526020600020905b815481529060010190602001808311610fe357829003601f168201915b505050505081565b6000806000600190505b60055481116110f2576000600190506000600960006008600086815260200190815260200160002060010154815260200190815260200160002054111561108b576009600060086000858152602001908152602001600020600101548152602001908152602001600020548161108891906118f5565b90505b80600960006008600086815260200190815260200160002060010154815260200190815260200160002081905550838111156110de57809350600860008381526020019081526020016000206001015492505b5080806110ea90611a8e565b915050611012565b5060016000828152602001908152602001600020600790805461111490611a2b565b61111f929190611211565b506000600a60006101000a81548160ff0219169083151502179055505050565b6040518060400160405280600073ffffffffffffffffffffffffffffffffffffffff168152602001600081525090565b6040518060400160405280606081526020016000151581525090565b82805461119790611a2b565b90600052602060002090601f0160209004810192826111b95760008555611200565b82601f106111d257805160ff1916838001178555611200565b82800160010185558215611200579182015b828111156111ff5782518255916020019190600101906111e4565b5b50905061120d919061129e565b5090565b82805461121d90611a2b565b90600052602060002090601f01602090048101928261123f576000855561128d565b82601f10611250578054855561128d565b8280016001018555821561128d57600052602060002091601f016020900482015b8281111561128c578254825591600101919060010190611271565b5b50905061129a919061129e565b5090565b5b808211156112b757600081600090555060010161129f565b5090565b60006112ce6112c984611888565b611863565b9050828152602081018484840111156112ea576112e9611bc7565b5b6112f58482856119e9565b509392505050565b60008135905061130c81611db2565b92915050565b600082601f83011261132757611326611bc2565b5b81356113378482602086016112bb565b91505092915050565b60008135905061134f81611dc9565b92915050565b60006020828403121561136b5761136a611bd1565b5b6000611379848285016112fd565b91505092915050565b6000806040838503121561139957611398611bd1565b5b60006113a7858286016112fd565b925050602083013567ffffffffffffffff8111156113c8576113c7611bcc565b5b6113d485828601611312565b9150509250929050565b6000602082840312156113f4576113f3611bd1565b5b600082013567ffffffffffffffff81111561141257611411611bcc565b5b61141e84828501611312565b91505092915050565b60006020828403121561143d5761143c611bd1565b5b600061144b84828501611340565b91505092915050565b61145d8161197c565b82525050565b61146c8161198e565b82525050565b61147b816119d7565b82525050565b600061148c826118ce565b61149681856118d9565b93506114a68185602086016119f8565b6114af81611bd6565b840191505092915050565b60006114c5826118ce565b6114cf81856118ea565b93506114df8185602086016119f8565b80840191505092915050565b600081546114f881611a2b565b61150281866118ea565b9450600182166000811461151d576001811461152e57611561565b60ff19831686528186019350611561565b611537856118b9565b60005b838110156115595781548189015260018201915060208101905061153a565b838801955050505b50505092915050565b60006115776026836118d9565b915061158282611be7565b604082019050919050565b600061159a6013836118d9565b91506115a582611c36565b602082019050919050565b60006115bd6015836118d9565b91506115c882611c5f565b602082019050919050565b60006115e06029836118d9565b91506115eb82611c88565b604082019050919050565b60006116036023836118d9565b915061160e82611cd7565b604082019050919050565b6000611626601a836118d9565b915061163182611d26565b602082019050919050565b60006116496023836118d9565b915061165482611d4f565b604082019050919050565b611668816119cd565b82525050565b600061167a82846114ba565b915081905092915050565b600061169182846114eb565b915081905092915050565b60006020820190506116b16000830184611454565b92915050565b60006040820190506116cc6000830185611454565b6116d9602083018461165f565b9392505050565b60006020820190506116f56000830184611463565b92915050565b60006020820190506117106000830184611472565b92915050565b600060208201905081810360008301526117308184611481565b905092915050565b600060408201905081810360008301526117528185611481565b90506117616020830184611463565b9392505050565b600060208201905081810360008301526117818161156a565b9050919050565b600060208201905081810360008301526117a18161158d565b9050919050565b600060208201905081810360008301526117c1816115b0565b9050919050565b600060208201905081810360008301526117e1816115d3565b9050919050565b60006020820190508181036000830152611801816115f6565b9050919050565b6000602082019050818103600083015261182181611619565b9050919050565b600060208201905081810360008301526118418161163c565b9050919050565b600060208201905061185d600083018461165f565b92915050565b600061186d61187e565b90506118798282611a5d565b919050565b6000604051905090565b600067ffffffffffffffff8211156118a3576118a2611b93565b5b6118ac82611bd6565b9050602081019050919050565b60008190508160005260206000209050919050565b600081519050919050565b600082825260208201905092915050565b600081905092915050565b6000611900826119cd565b915061190b836119cd565b9250827fffffffffffffffffffffffffffffffffffffffffffffffffffffffffffffffff038211156119405761193f611ad7565b5b828201905092915050565b6000611956826119cd565b9150611961836119cd565b92508261197157611970611b06565b5b828204905092915050565b6000611987826119ad565b9050919050565b60008115159050919050565b60008190506119a882611d9e565b919050565b600073ffffffffffffffffffffffffffffffffffffffff82169050919050565b6000819050919050565b60006119e28261199a565b9050919050565b82818337600083830152505050565b60005b83811015611a165780820151818401526020810190506119fb565b83811115611a25576000848401525b50505050565b60006002820490506001821680611a4357607f821691505b60208210811415611a5757611a56611b64565b5b50919050565b611a6682611bd6565b810181811067ffffffffffffffff82111715611a8557611a84611b93565b5b80604052505050565b6000611a99826119cd565b91507fffffffffffffffffffffffffffffffffffffffffffffffffffffffffffffffff821415611acc57611acb611ad7565b5b600182019050919050565b7f4e487b7100000000000000000000000000000000000000000000000000000000600052601160045260246000fd5b7f4e487b7100000000000000000000000000000000000000000000000000000000600052601260045260246000fd5b7f4e487b7100000000000000000000000000000000000000000000000000000000600052602160045260246000fd5b7f4e487b7100000000000000000000000000000000000000000000000000000000600052602260045260246000fd5b7f4e487b7100000000000000000000000000000000000000000000000000000000600052604160045260246000fd5b600080fd5b600080fd5b600080fd5b600080fd5b6000601f19601f8301169050919050565b7f566f74696e672071756f72756d206973206e6f74206d65742e204b656570207660008201527f6f74696e672e0000000000000000000000000000000000000000000000000000602082015250565b7f43616e206f6e6c7920766f7465206f6e63652e00000000000000000000000000600082015250565b7f467269656e6420616c7265616479206578697374730000000000000000000000600082015250565b7f46756e6374696f6e2063616e206e6f742062652063616c6c656420696e20746860008201527f69732073746167652e0000000000000000000000000000000000000000000000602082015250565b7f43616e206f6e6c7920626520657865637574656420627920746865206d616e6160008201527f6765720000000000000000000000000000000000000000000000000000000000602082015250565b7f52657374617572616e7420616c7265616479206578697374732e000000000000600082015250565b7f43616e20766f7465206f6e6c79207768696c6520766f74696e67206973206f7060008201527f656e2e0000000000000000000000000000000000000000000000000000000000602082015250565b60038110611daf57611dae611b35565b5b50565b611dbb8161197c565b8114611dc657600080fd5b50565b611dd2816119cd565b8114611ddd57600080fd5b5056fea26469706673582212205353e05addffda7ea7bafa7ddec0111207a2e3dcea4f8e13c6050e94972be8c064736f6c63430008050033",
					"opcodes": "PUSH1 0x80 PUSH1 0x40 MSTORE PUSH1 0x0 DUP1 PUSH1 0x0 PUSH2 0x100 EXP DUP2 SLOAD DUP2 PUSH1 0xFF MUL NOT AND SWAP1 DUP4 PUSH1 0x2 DUP2 GT ISZERO PUSH3 0x2C JUMPI PUSH3 0x2B PUSH3 0x1BE JUMP JUMPDEST JUMPDEST MUL OR SWAP1 SSTORE POP PUSH1 0x0 PUSH1 0x3 SSTORE PUSH1 0x0 PUSH1 0x4 SSTORE PUSH1 0x0 PUSH1 0x5 SSTORE PUSH1 0x40 MLOAD DUP1 PUSH1 0x20 ADD PUSH1 0x40 MSTORE DUP1 PUSH1 0x0 DUP2 MSTORE POP PUSH1 0x7 SWAP1 DUP1 MLOAD SWAP1 PUSH1 0x20 ADD SWAP1 PUSH3 0x67 SWAP3 SWAP2 SWAP1 PUSH3 0xD8 JUMP JUMPDEST POP PUSH1 0x1 PUSH1 0xA PUSH1 0x0 PUSH2 0x100 EXP DUP2 SLOAD DUP2 PUSH1 0xFF MUL NOT AND SWAP1 DUP4 ISZERO ISZERO MUL OR SWAP1 SSTORE POP CALLVALUE DUP1 ISZERO PUSH3 0x90 JUMPI PUSH1 0x0 DUP1 REVERT JUMPDEST POP CALLER PUSH1 0x6 PUSH1 0x0 PUSH2 0x100 EXP DUP2 SLOAD DUP2 PUSH20 0xFFFFFFFFFFFFFFFFFFFFFFFFFFFFFFFFFFFFFFFF MUL NOT AND SWAP1 DUP4 PUSH20 0xFFFFFFFFFFFFFFFFFFFFFFFFFFFFFFFFFFFFFFFF AND MUL OR SWAP1 SSTORE POP PUSH3 0x21C JUMP JUMPDEST DUP3 DUP1 SLOAD PUSH3 0xE6 SWAP1 PUSH3 0x188 JUMP JUMPDEST SWAP1 PUSH1 0x0 MSTORE PUSH1 0x20 PUSH1 0x0 KECCAK256 SWAP1 PUSH1 0x1F ADD PUSH1 0x20 SWAP1 DIV DUP2 ADD SWAP3 DUP3 PUSH3 0x10A JUMPI PUSH1 0x0 DUP6 SSTORE PUSH3 0x156 JUMP JUMPDEST DUP3 PUSH1 0x1F LT PUSH3 0x125 JUMPI DUP1 MLOAD PUSH1 0xFF NOT AND DUP4 DUP1 ADD OR DUP6 SSTORE PUSH3 0x156 JUMP JUMPDEST DUP3 DUP1 ADD PUSH1 0x1 ADD DUP6 SSTORE DUP3 ISZERO PUSH3 0x156 JUMPI SWAP2 DUP3 ADD JUMPDEST DUP3 DUP2 GT ISZERO PUSH3 0x155 JUMPI DUP3 MLOAD DUP3 SSTORE SWAP2 PUSH1 0x20 ADD SWAP2 SWAP1 PUSH1 0x1 ADD SWAP1 PUSH3 0x138 JUMP JUMPDEST JUMPDEST POP SWAP1 POP PUSH3 0x165 SWAP2 SWAP1 PUSH3 0x169 JUMP JUMPDEST POP SWAP1 JUMP JUMPDEST JUMPDEST DUP1 DUP3 GT ISZERO PUSH3 0x184 JUMPI PUSH1 0x0 DUP2 PUSH1 0x0 SWAP1 SSTORE POP PUSH1 0x1 ADD PUSH3 0x16A JUMP JUMPDEST POP SWAP1 JUMP JUMPDEST PUSH1 0x0 PUSH1 0x2 DUP3 DIV SWAP1 POP PUSH1 0x1 DUP3 AND DUP1 PUSH3 0x1A1 JUMPI PUSH1 0x7F DUP3 AND SWAP2 POP JUMPDEST PUSH1 0x20 DUP3 LT DUP2 EQ ISZERO PUSH3 0x1B8 JUMPI PUSH3 0x1B7 PUSH3 0x1ED JUMP JUMPDEST JUMPDEST POP SWAP2 SWAP1 POP JUMP JUMPDEST PUSH32 0x4E487B7100000000000000000000000000000000000000000000000000000000 PUSH1 0x0 MSTORE PUSH1 0x21 PUSH1 0x4 MSTORE PUSH1 0x24 PUSH1 0x0 REVERT JUMPDEST PUSH32 0x4E487B7100000000000000000000000000000000000000000000000000000000 PUSH1 0x0 MSTORE PUSH1 0x22 PUSH1 0x4 MSTORE PUSH1 0x24 PUSH1 0x0 REVERT JUMPDEST PUSH2 0x1E16 DUP1 PUSH3 0x22C PUSH1 0x0 CODECOPY PUSH1 0x0 RETURN INVALID PUSH1 0x80 PUSH1 0x40 MSTORE CALLVALUE DUP1 ISZERO PUSH2 0x10 JUMPI PUSH1 0x0 DUP1 REVERT JUMPDEST POP PUSH1 0x4 CALLDATASIZE LT PUSH2 0xF5 JUMPI PUSH1 0x0 CALLDATALOAD PUSH1 0xE0 SHR DUP1 PUSH4 0x5DF81330 GT PUSH2 0x97 JUMPI DUP1 PUSH4 0xAD5461D8 GT PUSH2 0x66 JUMPI DUP1 PUSH4 0xAD5461D8 EQ PUSH2 0x28C JUMPI DUP1 PUSH4 0xB798867F EQ PUSH2 0x2BC JUMPI DUP1 PUSH4 0xB9223946 EQ PUSH2 0x2DA JUMPI DUP1 PUSH4 0xC1C16EFC EQ PUSH2 0x2E4 JUMPI PUSH2 0xF5 JUMP JUMPDEST DUP1 PUSH4 0x5DF81330 EQ PUSH2 0x1EF JUMPI DUP1 PUSH4 0x6D77BD3E EQ PUSH2 0x220 JUMPI DUP1 PUSH4 0x788D3851 EQ PUSH2 0x250 JUMPI DUP1 PUSH4 0xA3BEF4D7 EQ PUSH2 0x26E JUMPI PUSH2 0xF5 JUMP JUMPDEST DUP1 PUSH4 0x47098F36 GT PUSH2 0xD3 JUMPI DUP1 PUSH4 0x47098F36 EQ PUSH2 0x18B JUMPI DUP1 PUSH4 0x481C6A75 EQ PUSH2 0x1A9 JUMPI DUP1 PUSH4 0x4C0A6AF0 EQ PUSH2 0x1C7 JUMPI DUP1 PUSH4 0x5BF5D54C EQ PUSH2 0x1D1 JUMPI PUSH2 0xF5 JUMP JUMPDEST DUP1 PUSH4 0x124258C6 EQ PUSH2 0xFA JUMPI DUP1 PUSH4 0x1DDABF7A EQ PUSH2 0x12A JUMPI DUP1 PUSH4 0x3B9F708D EQ PUSH2 0x15B JUMPI JUMPDEST PUSH1 0x0 DUP1 REVERT JUMPDEST PUSH2 0x114 PUSH1 0x4 DUP1 CALLDATASIZE SUB DUP2 ADD SWAP1 PUSH2 0x10F SWAP2 SWAP1 PUSH2 0x1427 JUMP JUMPDEST PUSH2 0x302 JUMP JUMPDEST PUSH1 0x40 MLOAD PUSH2 0x121 SWAP2 SWAP1 PUSH2 0x16E0 JUMP JUMPDEST PUSH1 0x40 MLOAD DUP1 SWAP2 SUB SWAP1 RETURN JUMPDEST PUSH2 0x144 PUSH1 0x4 DUP1 CALLDATASIZE SUB DUP2 ADD SWAP1 PUSH2 0x13F SWAP2 SWAP1 PUSH2 0x1355 JUMP JUMPDEST PUSH2 0x61C JUMP JUMPDEST PUSH1 0x40 MLOAD PUSH2 0x152 SWAP3 SWAP2 SWAP1 PUSH2 0x1738 JUMP JUMPDEST PUSH1 0x40 MLOAD DUP1 SWAP2 SUB SWAP1 RETURN JUMPDEST PUSH2 0x175 PUSH1 0x4 DUP1 CALLDATASIZE SUB DUP2 ADD SWAP1 PUSH2 0x170 SWAP2 SWAP1 PUSH2 0x1382 JUMP JUMPDEST PUSH2 0x6D5 JUMP JUMPDEST PUSH1 0x40 MLOAD PUSH2 0x182 SWAP2 SWAP1 PUSH2 0x1848 JUMP JUMPDEST PUSH1 0x40 MLOAD DUP1 SWAP2 SUB SWAP1 RETURN JUMPDEST PUSH2 0x193 PUSH2 0x936 JUMP JUMPDEST PUSH1 0x40 MLOAD PUSH2 0x1A0 SWAP2 SWAP1 PUSH2 0x1848 JUMP JUMPDEST PUSH1 0x40 MLOAD DUP1 SWAP2 SUB SWAP1 RETURN JUMPDEST PUSH2 0x1B1 PUSH2 0x93C JUMP JUMPDEST PUSH1 0x40 MLOAD PUSH2 0x1BE SWAP2 SWAP1 PUSH2 0x169C JUMP JUMPDEST PUSH1 0x40 MLOAD DUP1 SWAP2 SUB SWAP1 RETURN JUMPDEST PUSH2 0x1CF PUSH2 0x962 JUMP JUMPDEST STOP JUMPDEST PUSH2 0x1D9 PUSH2 0xA94 JUMP JUMPDEST PUSH1 0x40 MLOAD PUSH2 0x1E6 SWAP2 SWAP1 PUSH2 0x16FB JUMP JUMPDEST PUSH1 0x40 MLOAD DUP1 SWAP2 SUB SWAP1 RETURN JUMPDEST PUSH2 0x209 PUSH1 0x4 DUP1 CALLDATASIZE SUB DUP2 ADD SWAP1 PUSH2 0x204 SWAP2 SWAP1 PUSH2 0x1427 JUMP JUMPDEST PUSH2 0xAA5 JUMP JUMPDEST PUSH1 0x40 MLOAD PUSH2 0x217 SWAP3 SWAP2 SWAP1 PUSH2 0x16B7 JUMP JUMPDEST PUSH1 0x40 MLOAD DUP1 SWAP2 SUB SWAP1 RETURN JUMPDEST PUSH2 0x23A PUSH1 0x4 DUP1 CALLDATASIZE SUB DUP2 ADD SWAP1 PUSH2 0x235 SWAP2 SWAP1 PUSH2 0x13DE JUMP JUMPDEST PUSH2 0xAE9 JUMP JUMPDEST PUSH1 0x40 MLOAD PUSH2 0x247 SWAP2 SWAP1 PUSH2 0x1848 JUMP JUMPDEST PUSH1 0x40 MLOAD DUP1 SWAP2 SUB SWAP1 RETURN JUMPDEST PUSH2 0x258 PUSH2 0xD15 JUMP JUMPDEST PUSH1 0x40 MLOAD PUSH2 0x265 SWAP2 SWAP1 PUSH2 0x16E0 JUMP JUMPDEST PUSH1 0x40 MLOAD DUP1 SWAP2 SUB SWAP1 RETURN JUMPDEST PUSH2 0x276 PUSH2 0xD28 JUMP JUMPDEST PUSH1 0x40 MLOAD PUSH2 0x283 SWAP2 SWAP1 PUSH2 0x1848 JUMP JUMPDEST PUSH1 0x40 MLOAD DUP1 SWAP2 SUB SWAP1 RETURN JUMPDEST PUSH2 0x2A6 PUSH1 0x4 DUP1 CALLDATASIZE SUB DUP2 ADD SWAP1 PUSH2 0x2A1 SWAP2 SWAP1 PUSH2 0x1427 JUMP JUMPDEST PUSH2 0xD2E JUMP JUMPDEST PUSH1 0x40 MLOAD PUSH2 0x2B3 SWAP2 SWAP1 PUSH2 0x1716 JUMP JUMPDEST PUSH1 0x40 MLOAD DUP1 SWAP2 SUB SWAP1 RETURN JUMPDEST PUSH2 0x2C4 PUSH2 0xDCE JUMP JUMPDEST PUSH1 0x40 MLOAD PUSH2 0x2D1 SWAP2 SWAP1 PUSH2 0x1848 JUMP JUMPDEST PUSH1 0x40 MLOAD DUP1 SWAP2 SUB SWAP1 RETURN JUMPDEST PUSH2 0x2E2 PUSH2 0xDD4 JUMP JUMPDEST STOP JUMPDEST PUSH2 0x2EC PUSH2 0xF7A JUMP JUMPDEST PUSH1 0x40 MLOAD PUSH2 0x2F9 SWAP2 SWAP1 PUSH2 0x1716 JUMP JUMPDEST PUSH1 0x40 MLOAD DUP1 SWAP2 SUB SWAP1 RETURN JUMPDEST PUSH1 0x0 PUSH1 0x1 ISZERO ISZERO PUSH1 0xA PUSH1 0x0 SWAP1 SLOAD SWAP1 PUSH2 0x100 EXP SWAP1 DIV PUSH1 0xFF AND ISZERO ISZERO EQ PUSH2 0x35A JUMPI PUSH1 0x40 MLOAD PUSH32 0x8C379A000000000000000000000000000000000000000000000000000000000 DUP2 MSTORE PUSH1 0x4 ADD PUSH2 0x351 SWAP1 PUSH2 0x1828 JUMP JUMPDEST PUSH1 0x40 MLOAD DUP1 SWAP2 SUB SWAP1 REVERT JUMPDEST CALLER PUSH1 0x0 ISZERO ISZERO PUSH1 0x2 PUSH1 0x0 DUP4 PUSH20 0xFFFFFFFFFFFFFFFFFFFFFFFFFFFFFFFFFFFFFFFF AND PUSH20 0xFFFFFFFFFFFFFFFFFFFFFFFFFFFFFFFFFFFFFFFF AND DUP2 MSTORE PUSH1 0x20 ADD SWAP1 DUP2 MSTORE PUSH1 0x20 ADD PUSH1 0x0 KECCAK256 PUSH1 0x1 ADD PUSH1 0x0 SWAP1 SLOAD SWAP1 PUSH2 0x100 EXP SWAP1 DIV PUSH1 0xFF AND ISZERO ISZERO EQ PUSH2 0x3F1 JUMPI PUSH1 0x40 MLOAD PUSH32 0x8C379A000000000000000000000000000000000000000000000000000000000 DUP2 MSTORE PUSH1 0x4 ADD PUSH2 0x3E8 SWAP1 PUSH2 0x1788 JUMP JUMPDEST PUSH1 0x40 MLOAD DUP1 SWAP2 SUB SWAP1 REVERT JUMPDEST PUSH1 0x1 DUP1 PUSH1 0x2 DUP2 GT ISZERO PUSH2 0x406 JUMPI PUSH2 0x405 PUSH2 0x1B35 JUMP JUMPDEST JUMPDEST PUSH1 0x0 DUP1 SLOAD SWAP1 PUSH2 0x100 EXP SWAP1 DIV PUSH1 0xFF AND PUSH1 0x2 DUP2 GT ISZERO PUSH2 0x426 JUMPI PUSH2 0x425 PUSH2 0x1B35 JUMP JUMPDEST JUMPDEST EQ PUSH2 0x466 JUMPI PUSH1 0x40 MLOAD PUSH32 0x8C379A000000000000000000000000000000000000000000000000000000000 DUP2 MSTORE PUSH1 0x4 ADD PUSH2 0x45D SWAP1 PUSH2 0x17C8 JUMP JUMPDEST PUSH1 0x40 MLOAD DUP1 SWAP2 SUB SWAP1 REVERT JUMPDEST PUSH1 0x0 SWAP3 POP PUSH1 0x0 PUSH1 0x2 PUSH1 0x0 CALLER PUSH20 0xFFFFFFFFFFFFFFFFFFFFFFFFFFFFFFFFFFFFFFFF AND PUSH20 0xFFFFFFFFFFFFFFFFFFFFFFFFFFFFFFFFFFFFFFFF AND DUP2 MSTORE PUSH1 0x20 ADD SWAP1 DUP2 MSTORE PUSH1 0x20 ADD PUSH1 0x0 KECCAK256 PUSH1 0x0 ADD DUP1 SLOAD PUSH2 0x4B9 SWAP1 PUSH2 0x1A2B JUMP JUMPDEST SWAP1 POP EQ PUSH2 0x615 JUMPI PUSH1 0x0 PUSH1 0x1 PUSH1 0x0 DUP7 DUP2 MSTORE PUSH1 0x20 ADD SWAP1 DUP2 MSTORE PUSH1 0x20 ADD PUSH1 0x0 KECCAK256 DUP1 SLOAD PUSH2 0x4E0 SWAP1 PUSH2 0x1A2B JUMP JUMPDEST SWAP1 POP EQ PUSH2 0x614 JUMPI PUSH1 0x1 SWAP3 POP PUSH1 0x1 PUSH1 0x2 PUSH1 0x0 CALLER PUSH20 0xFFFFFFFFFFFFFFFFFFFFFFFFFFFFFFFFFFFFFFFF AND PUSH20 0xFFFFFFFFFFFFFFFFFFFFFFFFFFFFFFFFFFFFFFFF AND DUP2 MSTORE PUSH1 0x20 ADD SWAP1 DUP2 MSTORE PUSH1 0x20 ADD PUSH1 0x0 KECCAK256 PUSH1 0x1 ADD PUSH1 0x0 PUSH2 0x100 EXP DUP2 SLOAD DUP2 PUSH1 0xFF MUL NOT AND SWAP1 DUP4 ISZERO ISZERO MUL OR SWAP1 SSTORE POP PUSH2 0x54E PUSH2 0x113F JUMP JUMPDEST CALLER DUP2 PUSH1 0x0 ADD SWAP1 PUSH20 0xFFFFFFFFFFFFFFFFFFFFFFFFFFFFFFFFFFFFFFFF AND SWAP1 DUP2 PUSH20 0xFFFFFFFFFFFFFFFFFFFFFFFFFFFFFFFFFFFFFFFF AND DUP2 MSTORE POP POP DUP5 DUP2 PUSH1 0x20 ADD DUP2 DUP2 MSTORE POP POP PUSH1 0x5 PUSH1 0x0 DUP2 SLOAD DUP1 SWAP3 SWAP2 SWAP1 PUSH2 0x5A3 SWAP1 PUSH2 0x1A8E JUMP JUMPDEST SWAP2 SWAP1 POP SSTORE POP DUP1 PUSH1 0x8 PUSH1 0x0 PUSH1 0x5 SLOAD DUP2 MSTORE PUSH1 0x20 ADD SWAP1 DUP2 MSTORE PUSH1 0x20 ADD PUSH1 0x0 KECCAK256 PUSH1 0x0 DUP3 ADD MLOAD DUP2 PUSH1 0x0 ADD PUSH1 0x0 PUSH2 0x100 EXP DUP2 SLOAD DUP2 PUSH20 0xFFFFFFFFFFFFFFFFFFFFFFFFFFFFFFFFFFFFFFFF MUL NOT AND SWAP1 DUP4 PUSH20 0xFFFFFFFFFFFFFFFFFFFFFFFFFFFFFFFFFFFFFFFF AND MUL OR SWAP1 SSTORE POP PUSH1 0x20 DUP3 ADD MLOAD DUP2 PUSH1 0x1 ADD SSTORE SWAP1 POP POP POP JUMPDEST JUMPDEST POP POP SWAP2 SWAP1 POP JUMP JUMPDEST PUSH1 0x2 PUSH1 0x20 MSTORE DUP1 PUSH1 0x0 MSTORE PUSH1 0x40 PUSH1 0x0 KECCAK256 PUSH1 0x0 SWAP2 POP SWAP1 POP DUP1 PUSH1 0x0 ADD DUP1 SLOAD PUSH2 0x63F SWAP1 PUSH2 0x1A2B JUMP JUMPDEST DUP1 PUSH1 0x1F ADD PUSH1 0x20 DUP1 SWAP2 DIV MUL PUSH1 0x20 ADD PUSH1 0x40 MLOAD SWAP1 DUP2 ADD PUSH1 0x40 MSTORE DUP1 SWAP3 SWAP2 SWAP1 DUP2 DUP2 MSTORE PUSH1 0x20 ADD DUP3 DUP1 SLOAD PUSH2 0x66B SWAP1 PUSH2 0x1A2B JUMP JUMPDEST DUP1 ISZERO PUSH2 0x6B8 JUMPI DUP1 PUSH1 0x1F LT PUSH2 0x68D JUMPI PUSH2 0x100 DUP1 DUP4 SLOAD DIV MUL DUP4 MSTORE SWAP2 PUSH1 0x20 ADD SWAP2 PUSH2 0x6B8 JUMP JUMPDEST DUP3 ADD SWAP2 SWAP1 PUSH1 0x0 MSTORE PUSH1 0x20 PUSH1 0x0 KECCAK256 SWAP1 JUMPDEST DUP2 SLOAD DUP2 MSTORE SWAP1 PUSH1 0x1 ADD SWAP1 PUSH1 0x20 ADD DUP1 DUP4 GT PUSH2 0x69B JUMPI DUP3 SWAP1 SUB PUSH1 0x1F AND DUP3 ADD SWAP2 JUMPDEST POP POP POP POP POP SWAP1 DUP1 PUSH1 0x1 ADD PUSH1 0x0 SWAP1 SLOAD SWAP1 PUSH2 0x100 EXP SWAP1 DIV PUSH1 0xFF AND SWAP1 POP DUP3 JUMP JUMPDEST PUSH1 0x0 PUSH1 0x6 PUSH1 0x0 SWAP1 SLOAD SWAP1 PUSH2 0x100 EXP SWAP1 DIV PUSH20 0xFFFFFFFFFFFFFFFFFFFFFFFFFFFFFFFFFFFFFFFF AND PUSH20 0xFFFFFFFFFFFFFFFFFFFFFFFFFFFFFFFFFFFFFFFF AND CALLER PUSH20 0xFFFFFFFFFFFFFFFFFFFFFFFFFFFFFFFFFFFFFFFF AND EQ PUSH2 0x767 JUMPI PUSH1 0x40 MLOAD PUSH32 0x8C379A000000000000000000000000000000000000000000000000000000000 DUP2 MSTORE PUSH1 0x4 ADD PUSH2 0x75E SWAP1 PUSH2 0x17E8 JUMP JUMPDEST PUSH1 0x40 MLOAD DUP1 SWAP2 SUB SWAP1 REVERT JUMPDEST DUP3 PUSH1 0x0 PUSH1 0x2 PUSH1 0x0 DUP4 PUSH20 0xFFFFFFFFFFFFFFFFFFFFFFFFFFFFFFFFFFFFFFFF AND PUSH20 0xFFFFFFFFFFFFFFFFFFFFFFFFFFFFFFFFFFFFFFFF AND DUP2 MSTORE PUSH1 0x20 ADD SWAP1 DUP2 MSTORE PUSH1 0x20 ADD PUSH1 0x0 KECCAK256 PUSH1 0x0 ADD DUP1 SLOAD PUSH2 0x7B7 SWAP1 PUSH2 0x1A2B JUMP JUMPDEST SWAP1 POP EQ PUSH2 0x7F9 JUMPI PUSH1 0x40 MLOAD PUSH32 0x8C379A000000000000000000000000000000000000000000000000000000000 DUP2 MSTORE PUSH1 0x4 ADD PUSH2 0x7F0 SWAP1 PUSH2 0x17A8 JUMP JUMPDEST PUSH1 0x40 MLOAD DUP1 SWAP2 SUB SWAP1 REVERT JUMPDEST PUSH1 0x0 DUP1 PUSH1 0x2 DUP2 GT ISZERO PUSH2 0x80E JUMPI PUSH2 0x80D PUSH2 0x1B35 JUMP JUMPDEST JUMPDEST PUSH1 0x0 DUP1 SLOAD SWAP1 PUSH2 0x100 EXP SWAP1 DIV PUSH1 0xFF AND PUSH1 0x2 DUP2 GT ISZERO PUSH2 0x82E JUMPI PUSH2 0x82D PUSH2 0x1B35 JUMP JUMPDEST JUMPDEST EQ PUSH2 0x86E JUMPI PUSH1 0x40 MLOAD PUSH32 0x8C379A000000000000000000000000000000000000000000000000000000000 DUP2 MSTORE PUSH1 0x4 ADD PUSH2 0x865 SWAP1 PUSH2 0x17C8 JUMP JUMPDEST PUSH1 0x40 MLOAD DUP1 SWAP2 SUB SWAP1 REVERT JUMPDEST PUSH2 0x876 PUSH2 0x116F JUMP JUMPDEST DUP5 DUP2 PUSH1 0x0 ADD DUP2 SWAP1 MSTORE POP PUSH1 0x0 DUP2 PUSH1 0x20 ADD SWAP1 ISZERO ISZERO SWAP1 DUP2 ISZERO ISZERO DUP2 MSTORE POP POP DUP1 PUSH1 0x2 PUSH1 0x0 DUP9 PUSH20 0xFFFFFFFFFFFFFFFFFFFFFFFFFFFFFFFFFFFFFFFF AND PUSH20 0xFFFFFFFFFFFFFFFFFFFFFFFFFFFFFFFFFFFFFFFF AND DUP2 MSTORE PUSH1 0x20 ADD SWAP1 DUP2 MSTORE PUSH1 0x20 ADD PUSH1 0x0 KECCAK256 PUSH1 0x0 DUP3 ADD MLOAD DUP2 PUSH1 0x0 ADD SWAP1 DUP1 MLOAD SWAP1 PUSH1 0x20 ADD SWAP1 PUSH2 0x8EC SWAP3 SWAP2 SWAP1 PUSH2 0x118B JUMP JUMPDEST POP PUSH1 0x20 DUP3 ADD MLOAD DUP2 PUSH1 0x1 ADD PUSH1 0x0 PUSH2 0x100 EXP DUP2 SLOAD DUP2 PUSH1 0xFF MUL NOT AND SWAP1 DUP4 ISZERO ISZERO MUL OR SWAP1 SSTORE POP SWAP1 POP POP PUSH1 0x4 PUSH1 0x0 DUP2 SLOAD DUP1 SWAP3 SWAP2 SWAP1 PUSH2 0x923 SWAP1 PUSH2 0x1A8E JUMP JUMPDEST SWAP2 SWAP1 POP SSTORE POP PUSH1 0x4 SLOAD SWAP4 POP POP POP POP SWAP3 SWAP2 POP POP JUMP JUMPDEST PUSH1 0x4 SLOAD DUP2 JUMP JUMPDEST PUSH1 0x6 PUSH1 0x0 SWAP1 SLOAD SWAP1 PUSH2 0x100 EXP SWAP1 DIV PUSH20 0xFFFFFFFFFFFFFFFFFFFFFFFFFFFFFFFFFFFFFFFF AND DUP2 JUMP JUMPDEST PUSH1 0x6 PUSH1 0x0 SWAP1 SLOAD SWAP1 PUSH2 0x100 EXP SWAP1 DIV PUSH20 0xFFFFFFFFFFFFFFFFFFFFFFFFFFFFFFFFFFFFFFFF AND PUSH20 0xFFFFFFFFFFFFFFFFFFFFFFFFFFFFFFFFFFFFFFFF AND CALLER PUSH20 0xFFFFFFFFFFFFFFFFFFFFFFFFFFFFFFFFFFFFFFFF AND EQ PUSH2 0x9F2 JUMPI PUSH1 0x40 MLOAD PUSH32 0x8C379A000000000000000000000000000000000000000000000000000000000 DUP2 MSTORE PUSH1 0x4 ADD PUSH2 0x9E9 SWAP1 PUSH2 0x17E8 JUMP JUMPDEST PUSH1 0x40 MLOAD DUP1 SWAP2 SUB SWAP1 REVERT JUMPDEST PUSH1 0x0 DUP1 PUSH1 0x2 DUP2 GT ISZERO PUSH2 0xA07 JUMPI PUSH2 0xA06 PUSH2 0x1B35 JUMP JUMPDEST JUMPDEST PUSH1 0x0 DUP1 SLOAD SWAP1 PUSH2 0x100 EXP SWAP1 DIV PUSH1 0xFF AND PUSH1 0x2 DUP2 GT ISZERO PUSH2 0xA27 JUMPI PUSH2 0xA26 PUSH2 0x1B35 JUMP JUMPDEST JUMPDEST EQ PUSH2 0xA67 JUMPI PUSH1 0x40 MLOAD PUSH32 0x8C379A000000000000000000000000000000000000000000000000000000000 DUP2 MSTORE PUSH1 0x4 ADD PUSH2 0xA5E SWAP1 PUSH2 0x17C8 JUMP JUMPDEST PUSH1 0x40 MLOAD DUP1 SWAP2 SUB SWAP1 REVERT JUMPDEST PUSH1 0x1 PUSH1 0x0 DUP1 PUSH2 0x100 EXP DUP2 SLOAD DUP2 PUSH1 0xFF MUL NOT AND SWAP1 DUP4 PUSH1 0x2 DUP2 GT ISZERO PUSH2 0xA8C JUMPI PUSH2 0xA8B PUSH2 0x1B35 JUMP JUMPDEST JUMPDEST MUL OR SWAP1 SSTORE POP POP JUMP JUMPDEST PUSH1 0x0 DUP1 SLOAD SWAP1 PUSH2 0x100 EXP SWAP1 DIV PUSH1 0xFF AND DUP2 JUMP JUMPDEST PUSH1 0x8 PUSH1 0x20 MSTORE DUP1 PUSH1 0x0 MSTORE PUSH1 0x40 PUSH1 0x0 KECCAK256 PUSH1 0x0 SWAP2 POP SWAP1 POP DUP1 PUSH1 0x0 ADD PUSH1 0x0 SWAP1 SLOAD SWAP1 PUSH2 0x100 EXP SWAP1 DIV PUSH20 0xFFFFFFFFFFFFFFFFFFFFFFFFFFFFFFFFFFFFFFFF AND SWAP1 DUP1 PUSH1 0x1 ADD SLOAD SWAP1 POP DUP3 JUMP JUMPDEST PUSH1 0x0 PUSH1 0x6 PUSH1 0x0 SWAP1 SLOAD SWAP1 PUSH2 0x100 EXP SWAP1 DIV PUSH20 0xFFFFFFFFFFFFFFFFFFFFFFFFFFFFFFFFFFFFFFFF AND PUSH20 0xFFFFFFFFFFFFFFFFFFFFFFFFFFFFFFFFFFFFFFFF AND CALLER PUSH20 0xFFFFFFFFFFFFFFFFFFFFFFFFFFFFFFFFFFFFFFFF AND EQ PUSH2 0xB7B JUMPI PUSH1 0x40 MLOAD PUSH32 0x8C379A000000000000000000000000000000000000000000000000000000000 DUP2 MSTORE PUSH1 0x4 ADD PUSH2 0xB72 SWAP1 PUSH2 0x17E8 JUMP JUMPDEST PUSH1 0x40 MLOAD DUP1 SWAP2 SUB SWAP1 REVERT JUMPDEST DUP2 PUSH1 0x0 DUP1 PUSH1 0x1 SWAP1 POP JUMPDEST PUSH1 0x3 SLOAD DUP2 GT PUSH2 0xC0F JUMPI DUP3 PUSH1 0x40 MLOAD PUSH1 0x20 ADD PUSH2 0xB9E SWAP2 SWAP1 PUSH2 0x166E JUMP JUMPDEST PUSH1 0x40 MLOAD PUSH1 0x20 DUP2 DUP4 SUB SUB DUP2 MSTORE SWAP1 PUSH1 0x40 MSTORE DUP1 MLOAD SWAP1 PUSH1 0x20 ADD KECCAK256 PUSH1 0x1 PUSH1 0x0 DUP4 DUP2 MSTORE PUSH1 0x20 ADD SWAP1 DUP2 MSTORE PUSH1 0x20 ADD PUSH1 0x0 KECCAK256 PUSH1 0x40 MLOAD PUSH1 0x20 ADD PUSH2 0xBD7 SWAP2 SWAP1 PUSH2 0x1685 JUMP JUMPDEST PUSH1 0x40 MLOAD PUSH1 0x20 DUP2 DUP4 SUB SUB DUP2 MSTORE SWAP1 PUSH1 0x40 MSTORE DUP1 MLOAD SWAP1 PUSH1 0x20 ADD KECCAK256 EQ ISZERO PUSH2 0xBFC JUMPI PUSH1 0x1 SWAP2 POP PUSH2 0xC0F JUMP JUMPDEST DUP1 DUP1 PUSH2 0xC07 SWAP1 PUSH2 0x1A8E JUMP JUMPDEST SWAP2 POP POP PUSH2 0xB84 JUMP JUMPDEST POP DUP1 ISZERO PUSH2 0xC51 JUMPI PUSH1 0x40 MLOAD PUSH32 0x8C379A000000000000000000000000000000000000000000000000000000000 DUP2 MSTORE PUSH1 0x4 ADD PUSH2 0xC48 SWAP1 PUSH2 0x1808 JUMP JUMPDEST PUSH1 0x40 MLOAD DUP1 SWAP2 SUB SWAP1 REVERT JUMPDEST PUSH1 0x0 DUP1 PUSH1 0x2 DUP2 GT ISZERO PUSH2 0xC66 JUMPI PUSH2 0xC65 PUSH2 0x1B35 JUMP JUMPDEST JUMPDEST PUSH1 0x0 DUP1 SLOAD SWAP1 PUSH2 0x100 EXP SWAP1 DIV PUSH1 0xFF AND PUSH1 0x2 DUP2 GT ISZERO PUSH2 0xC86 JUMPI PUSH2 0xC85 PUSH2 0x1B35 JUMP JUMPDEST JUMPDEST EQ PUSH2 0xCC6 JUMPI PUSH1 0x40 MLOAD PUSH32 0x8C379A000000000000000000000000000000000000000000000000000000000 DUP2 MSTORE PUSH1 0x4 ADD PUSH2 0xCBD SWAP1 PUSH2 0x17C8 JUMP JUMPDEST PUSH1 0x40 MLOAD DUP1 SWAP2 SUB SWAP1 REVERT JUMPDEST PUSH1 0x3 PUSH1 0x0 DUP2 SLOAD DUP1 SWAP3 SWAP2 SWAP1 PUSH2 0xCD9 SWAP1 PUSH2 0x1A8E JUMP JUMPDEST SWAP2 SWAP1 POP SSTORE POP DUP5 PUSH1 0x1 PUSH1 0x0 PUSH1 0x3 SLOAD DUP2 MSTORE PUSH1 0x20 ADD SWAP1 DUP2 MSTORE PUSH1 0x20 ADD PUSH1 0x0 KECCAK256 SWAP1 DUP1 MLOAD SWAP1 PUSH1 0x20 ADD SWAP1 PUSH2 0xD07 SWAP3 SWAP2 SWAP1 PUSH2 0x118B JUMP JUMPDEST POP PUSH1 0x3 SLOAD SWAP4 POP POP POP POP SWAP2 SWAP1 POP JUMP JUMPDEST PUSH1 0xA PUSH1 0x0 SWAP1 SLOAD SWAP1 PUSH2 0x100 EXP SWAP1 DIV PUSH1 0xFF AND DUP2 JUMP JUMPDEST PUSH1 0x5 SLOAD DUP2 JUMP JUMPDEST PUSH1 0x1 PUSH1 0x20 MSTORE DUP1 PUSH1 0x0 MSTORE PUSH1 0x40 PUSH1 0x0 KECCAK256 PUSH1 0x0 SWAP2 POP SWAP1 POP DUP1 SLOAD PUSH2 0xD4D SWAP1 PUSH2 0x1A2B JUMP JUMPDEST DUP1 PUSH1 0x1F ADD PUSH1 0x20 DUP1 SWAP2 DIV MUL PUSH1 0x20 ADD PUSH1 0x40 MLOAD SWAP1 DUP2 ADD PUSH1 0x40 MSTORE DUP1 SWAP3 SWAP2 SWAP1 DUP2 DUP2 MSTORE PUSH1 0x20 ADD DUP3 DUP1 SLOAD PUSH2 0xD79 SWAP1 PUSH2 0x1A2B JUMP JUMPDEST DUP1 ISZERO PUSH2 0xDC6 JUMPI DUP1 PUSH1 0x1F LT PUSH2 0xD9B JUMPI PUSH2 0x100 DUP1 DUP4 SLOAD DIV MUL DUP4 MSTORE SWAP2 PUSH1 0x20 ADD SWAP2 PUSH2 0xDC6 JUMP JUMPDEST DUP3 ADD SWAP2 SWAP1 PUSH1 0x0 MSTORE PUSH1 0x20 PUSH1 0x0 KECCAK256 SWAP1 JUMPDEST DUP2 SLOAD DUP2 MSTORE SWAP1 PUSH1 0x1 ADD SWAP1 PUSH1 0x20 ADD DUP1 DUP4 GT PUSH2 0xDA9 JUMPI DUP3 SWAP1 SUB PUSH1 0x1F AND DUP3 ADD SWAP2 JUMPDEST POP POP POP POP POP DUP2 JUMP JUMPDEST PUSH1 0x3 SLOAD DUP2 JUMP JUMPDEST PUSH1 0x6 PUSH1 0x0 SWAP1 SLOAD SWAP1 PUSH2 0x100 EXP SWAP1 DIV PUSH20 0xFFFFFFFFFFFFFFFFFFFFFFFFFFFFFFFFFFFFFFFF AND PUSH20 0xFFFFFFFFFFFFFFFFFFFFFFFFFFFFFFFFFFFFFFFF AND CALLER PUSH20 0xFFFFFFFFFFFFFFFFFFFFFFFFFFFFFFFFFFFFFFFF AND EQ PUSH2 0xE64 JUMPI PUSH1 0x40 MLOAD PUSH32 0x8C379A000000000000000000000000000000000000000000000000000000000 DUP2 MSTORE PUSH1 0x4 ADD PUSH2 0xE5B SWAP1 PUSH2 0x17E8 JUMP JUMPDEST PUSH1 0x40 MLOAD DUP1 SWAP2 SUB SWAP1 REVERT JUMPDEST PUSH1 0x1 DUP1 PUSH1 0x2 DUP2 GT ISZERO PUSH2 0xE79 JUMPI PUSH2 0xE78 PUSH2 0x1B35 JUMP JUMPDEST JUMPDEST PUSH1 0x0 DUP1 SLOAD SWAP1 PUSH2 0x100 EXP SWAP1 DIV PUSH1 0xFF AND PUSH1 0x2 DUP2 GT ISZERO PUSH2 0xE99 JUMPI PUSH2 0xE98 PUSH2 0x1B35 JUMP JUMPDEST JUMPDEST EQ PUSH2 0xED9 JUMPI PUSH1 0x40 MLOAD PUSH32 0x8C379A000000000000000000000000000000000000000000000000000000000 DUP2 MSTORE PUSH1 0x4 ADD PUSH2 0xED0 SWAP1 PUSH2 0x17C8 JUMP JUMPDEST PUSH1 0x40 MLOAD DUP1 SWAP2 SUB SWAP1 REVERT JUMPDEST PUSH1 0x0 PUSH1 0x1 PUSH1 0x2 PUSH1 0x4 SLOAD PUSH2 0xEEC SWAP2 SWAP1 PUSH2 0x194B JUMP JUMPDEST PUSH2 0xEF6 SWAP2 SWAP1 PUSH2 0x18F5 JUMP JUMPDEST PUSH1 0x5 SLOAD LT PUSH2 0xF03 JUMPI PUSH1 0x1 SWAP1 POP JUMPDEST DUP1 ISZERO PUSH2 0xF44 JUMPI PUSH1 0x40 MLOAD PUSH32 0x8C379A000000000000000000000000000000000000000000000000000000000 DUP2 MSTORE PUSH1 0x4 ADD PUSH2 0xF3B SWAP1 PUSH2 0x1768 JUMP JUMPDEST PUSH1 0x40 MLOAD DUP1 SWAP2 SUB SWAP1 REVERT JUMPDEST PUSH1 0x2 PUSH1 0x0 DUP1 PUSH2 0x100 EXP DUP2 SLOAD DUP2 PUSH1 0xFF MUL NOT AND SWAP1 DUP4 PUSH1 0x2 DUP2 GT ISZERO PUSH2 0xF69 JUMPI PUSH2 0xF68 PUSH2 0x1B35 JUMP JUMPDEST JUMPDEST MUL OR SWAP1 SSTORE POP PUSH2 0xF76 PUSH2 0x1008 JUMP JUMPDEST POP POP JUMP JUMPDEST PUSH1 0x7 DUP1 SLOAD PUSH2 0xF87 SWAP1 PUSH2 0x1A2B JUMP JUMPDEST DUP1 PUSH1 0x1F ADD PUSH1 0x20 DUP1 SWAP2 DIV MUL PUSH1 0x20 ADD PUSH1 0x40 MLOAD SWAP1 DUP2 ADD PUSH1 0x40 MSTORE DUP1 SWAP3 SWAP2 SWAP1 DUP2 DUP2 MSTORE PUSH1 0x20 ADD DUP3 DUP1 SLOAD PUSH2 0xFB3 SWAP1 PUSH2 0x1A2B JUMP JUMPDEST DUP1 ISZERO PUSH2 0x1000 JUMPI DUP1 PUSH1 0x1F LT PUSH2 0xFD5 JUMPI PUSH2 0x100 DUP1 DUP4 SLOAD DIV MUL DUP4 MSTORE SWAP2 PUSH1 0x20 ADD SWAP2 PUSH2 0x1000 JUMP JUMPDEST DUP3 ADD SWAP2 SWAP1 PUSH1 0x0 MSTORE PUSH1 0x20 PUSH1 0x0 KECCAK256 SWAP1 JUMPDEST DUP2 SLOAD DUP2 MSTORE SWAP1 PUSH1 0x1 ADD SWAP1 PUSH1 0x20 ADD DUP1 DUP4 GT PUSH2 0xFE3 JUMPI DUP3 SWAP1 SUB PUSH1 0x1F AND DUP3 ADD SWAP2 JUMPDEST POP POP POP POP POP DUP2 JUMP JUMPDEST PUSH1 0x0 DUP1 PUSH1 0x0 PUSH1 0x1 SWAP1 POP JUMPDEST PUSH1 0x5 SLOAD DUP2 GT PUSH2 0x10F2 JUMPI PUSH1 0x0 PUSH1 0x1 SWAP1 POP PUSH1 0x0 PUSH1 0x9 PUSH1 0x0 PUSH1 0x8 PUSH1 0x0 DUP7 DUP2 MSTORE PUSH1 0x20 ADD SWAP1 DUP2 MSTORE PUSH1 0x20 ADD PUSH1 0x0 KECCAK256 PUSH1 0x1 ADD SLOAD DUP2 MSTORE PUSH1 0x20 ADD SWAP1 DUP2 MSTORE PUSH1 0x20 ADD PUSH1 0x0 KECCAK256 SLOAD GT ISZERO PUSH2 0x108B JUMPI PUSH1 0x9 PUSH1 0x0 PUSH1 0x8 PUSH1 0x0 DUP6 DUP2 MSTORE PUSH1 0x20 ADD SWAP1 DUP2 MSTORE PUSH1 0x20 ADD PUSH1 0x0 KECCAK256 PUSH1 0x1 ADD SLOAD DUP2 MSTORE PUSH1 0x20 ADD SWAP1 DUP2 MSTORE PUSH1 0x20 ADD PUSH1 0x0 KECCAK256 SLOAD DUP2 PUSH2 0x1088 SWAP2 SWAP1 PUSH2 0x18F5 JUMP JUMPDEST SWAP1 POP JUMPDEST DUP1 PUSH1 0x9 PUSH1 0x0 PUSH1 0x8 PUSH1 0x0 DUP7 DUP2 MSTORE PUSH1 0x20 ADD SWAP1 DUP2 MSTORE PUSH1 0x20 ADD PUSH1 0x0 KECCAK256 PUSH1 0x1 ADD SLOAD DUP2 MSTORE PUSH1 0x20 ADD SWAP1 DUP2 MSTORE PUSH1 0x20 ADD PUSH1 0x0 KECCAK256 DUP2 SWAP1 SSTORE POP DUP4 DUP2 GT ISZERO PUSH2 0x10DE JUMPI DUP1 SWAP4 POP PUSH1 0x8 PUSH1 0x0 DUP4 DUP2 MSTORE PUSH1 0x20 ADD SWAP1 DUP2 MSTORE PUSH1 0x20 ADD PUSH1 0x0 KECCAK256 PUSH1 0x1 ADD SLOAD SWAP3 POP JUMPDEST POP DUP1 DUP1 PUSH2 0x10EA SWAP1 PUSH2 0x1A8E JUMP JUMPDEST SWAP2 POP POP PUSH2 0x1012 JUMP JUMPDEST POP PUSH1 0x1 PUSH1 0x0 DUP3 DUP2 MSTORE PUSH1 0x20 ADD SWAP1 DUP2 MSTORE PUSH1 0x20 ADD PUSH1 0x0 KECCAK256 PUSH1 0x7 SWAP1 DUP1 SLOAD PUSH2 0x1114 SWAP1 PUSH2 0x1A2B JUMP JUMPDEST PUSH2 0x111F SWAP3 SWAP2 SWAP1 PUSH2 0x1211 JUMP JUMPDEST POP PUSH1 0x0 PUSH1 0xA PUSH1 0x0 PUSH2 0x100 EXP DUP2 SLOAD DUP2 PUSH1 0xFF MUL NOT AND SWAP1 DUP4 ISZERO ISZERO MUL OR SWAP1 SSTORE POP POP POP JUMP JUMPDEST PUSH1 0x40 MLOAD DUP1 PUSH1 0x40 ADD PUSH1 0x40 MSTORE DUP1 PUSH1 0x0 PUSH20 0xFFFFFFFFFFFFFFFFFFFFFFFFFFFFFFFFFFFFFFFF AND DUP2 MSTORE PUSH1 0x20 ADD PUSH1 0x0 DUP2 MSTORE POP SWAP1 JUMP JUMPDEST PUSH1 0x40 MLOAD DUP1 PUSH1 0x40 ADD PUSH1 0x40 MSTORE DUP1 PUSH1 0x60 DUP2 MSTORE PUSH1 0x20 ADD PUSH1 0x0 ISZERO ISZERO DUP2 MSTORE POP SWAP1 JUMP JUMPDEST DUP3 DUP1 SLOAD PUSH2 0x1197 SWAP1 PUSH2 0x1A2B JUMP JUMPDEST SWAP1 PUSH1 0x0 MSTORE PUSH1 0x20 PUSH1 0x0 KECCAK256 SWAP1 PUSH1 0x1F ADD PUSH1 0x20 SWAP1 DIV DUP2 ADD SWAP3 DUP3 PUSH2 0x11B9 JUMPI PUSH1 0x0 DUP6 SSTORE PUSH2 0x1200 JUMP JUMPDEST DUP3 PUSH1 0x1F LT PUSH2 0x11D2 JUMPI DUP1 MLOAD PUSH1 0xFF NOT AND DUP4 DUP1 ADD OR DUP6 SSTORE PUSH2 0x1200 JUMP JUMPDEST DUP3 DUP1 ADD PUSH1 0x1 ADD DUP6 SSTORE DUP3 ISZERO PUSH2 0x1200 JUMPI SWAP2 DUP3 ADD JUMPDEST DUP3 DUP2 GT ISZERO PUSH2 0x11FF JUMPI DUP3 MLOAD DUP3 SSTORE SWAP2 PUSH1 0x20 ADD SWAP2 SWAP1 PUSH1 0x1 ADD SWAP1 PUSH2 0x11E4 JUMP JUMPDEST JUMPDEST POP SWAP1 POP PUSH2 0x120D SWAP2 SWAP1 PUSH2 0x129E JUMP JUMPDEST POP SWAP1 JUMP JUMPDEST DUP3 DUP1 SLOAD PUSH2 0x121D SWAP1 PUSH2 0x1A2B JUMP JUMPDEST SWAP1 PUSH1 0x0 MSTORE PUSH1 0x20 PUSH1 0x0 KECCAK256 SWAP1 PUSH1 0x1F ADD PUSH1 0x20 SWAP1 DIV DUP2 ADD SWAP3 DUP3 PUSH2 0x123F JUMPI PUSH1 0x0 DUP6 SSTORE PUSH2 0x128D JUMP JUMPDEST DUP3 PUSH1 0x1F LT PUSH2 0x1250 JUMPI DUP1 SLOAD DUP6 SSTORE PUSH2 0x128D JUMP JUMPDEST DUP3 DUP1 ADD PUSH1 0x1 ADD DUP6 SSTORE DUP3 ISZERO PUSH2 0x128D JUMPI PUSH1 0x0 MSTORE PUSH1 0x20 PUSH1 0x0 KECCAK256 SWAP2 PUSH1 0x1F ADD PUSH1 0x20 SWAP1 DIV DUP3 ADD JUMPDEST DUP3 DUP2 GT ISZERO PUSH2 0x128C JUMPI DUP3 SLOAD DUP3 SSTORE SWAP2 PUSH1 0x1 ADD SWAP2 SWAP1 PUSH1 0x1 ADD SWAP1 PUSH2 0x1271 JUMP JUMPDEST JUMPDEST POP SWAP1 POP PUSH2 0x129A SWAP2 SWAP1 PUSH2 0x129E JUMP JUMPDEST POP SWAP1 JUMP JUMPDEST JUMPDEST DUP1 DUP3 GT ISZERO PUSH2 0x12B7 JUMPI PUSH1 0x0 DUP2 PUSH1 0x0 SWAP1 SSTORE POP PUSH1 0x1 ADD PUSH2 0x129F JUMP JUMPDEST POP SWAP1 JUMP JUMPDEST PUSH1 0x0 PUSH2 0x12CE PUSH2 0x12C9 DUP5 PUSH2 0x1888 JUMP JUMPDEST PUSH2 0x1863 JUMP JUMPDEST SWAP1 POP DUP3 DUP2 MSTORE PUSH1 0x20 DUP2 ADD DUP5 DUP5 DUP5 ADD GT ISZERO PUSH2 0x12EA JUMPI PUSH2 0x12E9 PUSH2 0x1BC7 JUMP JUMPDEST JUMPDEST PUSH2 0x12F5 DUP5 DUP3 DUP6 PUSH2 0x19E9 JUMP JUMPDEST POP SWAP4 SWAP3 POP POP POP JUMP JUMPDEST PUSH1 0x0 DUP2 CALLDATALOAD SWAP1 POP PUSH2 0x130C DUP2 PUSH2 0x1DB2 JUMP JUMPDEST SWAP3 SWAP2 POP POP JUMP JUMPDEST PUSH1 0x0 DUP3 PUSH1 0x1F DUP4 ADD SLT PUSH2 0x1327 JUMPI PUSH2 0x1326 PUSH2 0x1BC2 JUMP JUMPDEST JUMPDEST DUP2 CALLDATALOAD PUSH2 0x1337 DUP5 DUP3 PUSH1 0x20 DUP7 ADD PUSH2 0x12BB JUMP JUMPDEST SWAP2 POP POP SWAP3 SWAP2 POP POP JUMP JUMPDEST PUSH1 0x0 DUP2 CALLDATALOAD SWAP1 POP PUSH2 0x134F DUP2 PUSH2 0x1DC9 JUMP JUMPDEST SWAP3 SWAP2 POP POP JUMP JUMPDEST PUSH1 0x0 PUSH1 0x20 DUP3 DUP5 SUB SLT ISZERO PUSH2 0x136B JUMPI PUSH2 0x136A PUSH2 0x1BD1 JUMP JUMPDEST JUMPDEST PUSH1 0x0 PUSH2 0x1379 DUP5 DUP3 DUP6 ADD PUSH2 0x12FD JUMP JUMPDEST SWAP2 POP POP SWAP3 SWAP2 POP POP JUMP JUMPDEST PUSH1 0x0 DUP1 PUSH1 0x40 DUP4 DUP6 SUB SLT ISZERO PUSH2 0x1399 JUMPI PUSH2 0x1398 PUSH2 0x1BD1 JUMP JUMPDEST JUMPDEST PUSH1 0x0 PUSH2 0x13A7 DUP6 DUP3 DUP7 ADD PUSH2 0x12FD JUMP JUMPDEST SWAP3 POP POP PUSH1 0x20 DUP4 ADD CALLDATALOAD PUSH8 0xFFFFFFFFFFFFFFFF DUP2 GT ISZERO PUSH2 0x13C8 JUMPI PUSH2 0x13C7 PUSH2 0x1BCC JUMP JUMPDEST JUMPDEST PUSH2 0x13D4 DUP6 DUP3 DUP7 ADD PUSH2 0x1312 JUMP JUMPDEST SWAP2 POP POP SWAP3 POP SWAP3 SWAP1 POP JUMP JUMPDEST PUSH1 0x0 PUSH1 0x20 DUP3 DUP5 SUB SLT ISZERO PUSH2 0x13F4 JUMPI PUSH2 0x13F3 PUSH2 0x1BD1 JUMP JUMPDEST JUMPDEST PUSH1 0x0 DUP3 ADD CALLDATALOAD PUSH8 0xFFFFFFFFFFFFFFFF DUP2 GT ISZERO PUSH2 0x1412 JUMPI PUSH2 0x1411 PUSH2 0x1BCC JUMP JUMPDEST JUMPDEST PUSH2 0x141E DUP5 DUP3 DUP6 ADD PUSH2 0x1312 JUMP JUMPDEST SWAP2 POP POP SWAP3 SWAP2 POP POP JUMP JUMPDEST PUSH1 0x0 PUSH1 0x20 DUP3 DUP5 SUB SLT ISZERO PUSH2 0x143D JUMPI PUSH2 0x143C PUSH2 0x1BD1 JUMP JUMPDEST JUMPDEST PUSH1 0x0 PUSH2 0x144B DUP5 DUP3 DUP6 ADD PUSH2 0x1340 JUMP JUMPDEST SWAP2 POP POP SWAP3 SWAP2 POP POP JUMP JUMPDEST PUSH2 0x145D DUP2 PUSH2 0x197C JUMP JUMPDEST DUP3 MSTORE POP POP JUMP JUMPDEST PUSH2 0x146C DUP2 PUSH2 0x198E JUMP JUMPDEST DUP3 MSTORE POP POP JUMP JUMPDEST PUSH2 0x147B DUP2 PUSH2 0x19D7 JUMP JUMPDEST DUP3 MSTORE POP POP JUMP JUMPDEST PUSH1 0x0 PUSH2 0x148C DUP3 PUSH2 0x18CE JUMP JUMPDEST PUSH2 0x1496 DUP2 DUP6 PUSH2 0x18D9 JUMP JUMPDEST SWAP4 POP PUSH2 0x14A6 DUP2 DUP6 PUSH1 0x20 DUP7 ADD PUSH2 0x19F8 JUMP JUMPDEST PUSH2 0x14AF DUP2 PUSH2 0x1BD6 JUMP JUMPDEST DUP5 ADD SWAP2 POP POP SWAP3 SWAP2 POP POP JUMP JUMPDEST PUSH1 0x0 PUSH2 0x14C5 DUP3 PUSH2 0x18CE JUMP JUMPDEST PUSH2 0x14CF DUP2 DUP6 PUSH2 0x18EA JUMP JUMPDEST SWAP4 POP PUSH2 0x14DF DUP2 DUP6 PUSH1 0x20 DUP7 ADD PUSH2 0x19F8 JUMP JUMPDEST DUP1 DUP5 ADD SWAP2 POP POP SWAP3 SWAP2 POP POP JUMP JUMPDEST PUSH1 0x0 DUP2 SLOAD PUSH2 0x14F8 DUP2 PUSH2 0x1A2B JUMP JUMPDEST PUSH2 0x1502 DUP2 DUP7 PUSH2 0x18EA JUMP JUMPDEST SWAP5 POP PUSH1 0x1 DUP3 AND PUSH1 0x0 DUP2 EQ PUSH2 0x151D JUMPI PUSH1 0x1 DUP2 EQ PUSH2 0x152E JUMPI PUSH2 0x1561 JUMP JUMPDEST PUSH1 0xFF NOT DUP4 AND DUP7 MSTORE DUP2 DUP7 ADD SWAP4 POP PUSH2 0x1561 JUMP JUMPDEST PUSH2 0x1537 DUP6 PUSH2 0x18B9 JUMP JUMPDEST PUSH1 0x0 JUMPDEST DUP4 DUP2 LT ISZERO PUSH2 0x1559 JUMPI DUP2 SLOAD DUP2 DUP10 ADD MSTORE PUSH1 0x1 DUP3 ADD SWAP2 POP PUSH1 0x20 DUP2 ADD SWAP1 POP PUSH2 0x153A JUMP JUMPDEST DUP4 DUP9 ADD SWAP6 POP POP POP JUMPDEST POP POP POP SWAP3 SWAP2 POP POP JUMP JUMPDEST PUSH1 0x0 PUSH2 0x1577 PUSH1 0x26 DUP4 PUSH2 0x18D9 JUMP JUMPDEST SWAP2 POP PUSH2 0x1582 DUP3 PUSH2 0x1BE7 JUMP JUMPDEST PUSH1 0x40 DUP3 ADD SWAP1 POP SWAP2 SWAP1 POP JUMP JUMPDEST PUSH1 0x0 PUSH2 0x159A PUSH1 0x13 DUP4 PUSH2 0x18D9 JUMP JUMPDEST SWAP2 POP PUSH2 0x15A5 DUP3 PUSH2 0x1C36 JUMP JUMPDEST PUSH1 0x20 DUP3 ADD SWAP1 POP SWAP2 SWAP1 POP JUMP JUMPDEST PUSH1 0x0 PUSH2 0x15BD PUSH1 0x15 DUP4 PUSH2 0x18D9 JUMP JUMPDEST SWAP2 POP PUSH2 0x15C8 DUP3 PUSH2 0x1C5F JUMP JUMPDEST PUSH1 0x20 DUP3 ADD SWAP1 POP SWAP2 SWAP1 POP JUMP JUMPDEST PUSH1 0x0 PUSH2 0x15E0 PUSH1 0x29 DUP4 PUSH2 0x18D9 JUMP JUMPDEST SWAP2 POP PUSH2 0x15EB DUP3 PUSH2 0x1C88 JUMP JUMPDEST PUSH1 0x40 DUP3 ADD SWAP1 POP SWAP2 SWAP1 POP JUMP JUMPDEST PUSH1 0x0 PUSH2 0x1603 PUSH1 0x23 DUP4 PUSH2 0x18D9 JUMP JUMPDEST SWAP2 POP PUSH2 0x160E DUP3 PUSH2 0x1CD7 JUMP JUMPDEST PUSH1 0x40 DUP3 ADD SWAP1 POP SWAP2 SWAP1 POP JUMP JUMPDEST PUSH1 0x0 PUSH2 0x1626 PUSH1 0x1A DUP4 PUSH2 0x18D9 JUMP JUMPDEST SWAP2 POP PUSH2 0x1631 DUP3 PUSH2 0x1D26 JUMP JUMPDEST PUSH1 0x20 DUP3 ADD SWAP1 POP SWAP2 SWAP1 POP JUMP JUMPDEST PUSH1 0x0 PUSH2 0x1649 PUSH1 0x23 DUP4 PUSH2 0x18D9 JUMP JUMPDEST SWAP2 POP PUSH2 0x1654 DUP3 PUSH2 0x1D4F JUMP JUMPDEST PUSH1 0x40 DUP3 ADD SWAP1 POP SWAP2 SWAP1 POP JUMP JUMPDEST PUSH2 0x1668 DUP2 PUSH2 0x19CD JUMP JUMPDEST DUP3 MSTORE POP POP JUMP JUMPDEST PUSH1 0x0 PUSH2 0x167A DUP3 DUP5 PUSH2 0x14BA JUMP JUMPDEST SWAP2 POP DUP2 SWAP1 POP SWAP3 SWAP2 POP POP JUMP JUMPDEST PUSH1 0x0 PUSH2 0x1691 DUP3 DUP5 PUSH2 0x14EB JUMP JUMPDEST SWAP2 POP DUP2 SWAP1 POP SWAP3 SWAP2 POP POP JUMP JUMPDEST PUSH1 0x0 PUSH1 0x20 DUP3 ADD SWAP1 POP PUSH2 0x16B1 PUSH1 0x0 DUP4 ADD DUP5 PUSH2 0x1454 JUMP JUMPDEST SWAP3 SWAP2 POP POP JUMP JUMPDEST PUSH1 0x0 PUSH1 0x40 DUP3 ADD SWAP1 POP PUSH2 0x16CC PUSH1 0x0 DUP4 ADD DUP6 PUSH2 0x1454 JUMP JUMPDEST PUSH2 0x16D9 PUSH1 0x20 DUP4 ADD DUP5 PUSH2 0x165F JUMP JUMPDEST SWAP4 SWAP3 POP POP POP JUMP JUMPDEST PUSH1 0x0 PUSH1 0x20 DUP3 ADD SWAP1 POP PUSH2 0x16F5 PUSH1 0x0 DUP4 ADD DUP5 PUSH2 0x1463 JUMP JUMPDEST SWAP3 SWAP2 POP POP JUMP JUMPDEST PUSH1 0x0 PUSH1 0x20 DUP3 ADD SWAP1 POP PUSH2 0x1710 PUSH1 0x0 DUP4 ADD DUP5 PUSH2 0x1472 JUMP JUMPDEST SWAP3 SWAP2 POP POP JUMP JUMPDEST PUSH1 0x0 PUSH1 0x20 DUP3 ADD SWAP1 POP DUP2 DUP2 SUB PUSH1 0x0 DUP4 ADD MSTORE PUSH2 0x1730 DUP2 DUP5 PUSH2 0x1481 JUMP JUMPDEST SWAP1 POP SWAP3 SWAP2 POP POP JUMP JUMPDEST PUSH1 0x0 PUSH1 0x40 DUP3 ADD SWAP1 POP DUP2 DUP2 SUB PUSH1 0x0 DUP4 ADD MSTORE PUSH2 0x1752 DUP2 DUP6 PUSH2 0x1481 JUMP JUMPDEST SWAP1 POP PUSH2 0x1761 PUSH1 0x20 DUP4 ADD DUP5 PUSH2 0x1463 JUMP JUMPDEST SWAP4 SWAP3 POP POP POP JUMP JUMPDEST PUSH1 0x0 PUSH1 0x20 DUP3 ADD SWAP1 POP DUP2 DUP2 SUB PUSH1 0x0 DUP4 ADD MSTORE PUSH2 0x1781 DUP2 PUSH2 0x156A JUMP JUMPDEST SWAP1 POP SWAP2 SWAP1 POP JUMP JUMPDEST PUSH1 0x0 PUSH1 0x20 DUP3 ADD SWAP1 POP DUP2 DUP2 SUB PUSH1 0x0 DUP4 ADD MSTORE PUSH2 0x17A1 DUP2 PUSH2 0x158D JUMP JUMPDEST SWAP1 POP SWAP2 SWAP1 POP JUMP JUMPDEST PUSH1 0x0 PUSH1 0x20 DUP3 ADD SWAP1 POP DUP2 DUP2 SUB PUSH1 0x0 DUP4 ADD MSTORE PUSH2 0x17C1 DUP2 PUSH2 0x15B0 JUMP JUMPDEST SWAP1 POP SWAP2 SWAP1 POP JUMP JUMPDEST PUSH1 0x0 PUSH1 0x20 DUP3 ADD SWAP1 POP DUP2 DUP2 SUB PUSH1 0x0 DUP4 ADD MSTORE PUSH2 0x17E1 DUP2 PUSH2 0x15D3 JUMP JUMPDEST SWAP1 POP SWAP2 SWAP1 POP JUMP JUMPDEST PUSH1 0x0 PUSH1 0x20 DUP3 ADD SWAP1 POP DUP2 DUP2 SUB PUSH1 0x0 DUP4 ADD MSTORE PUSH2 0x1801 DUP2 PUSH2 0x15F6 JUMP JUMPDEST SWAP1 POP SWAP2 SWAP1 POP JUMP JUMPDEST PUSH1 0x0 PUSH1 0x20 DUP3 ADD SWAP1 POP DUP2 DUP2 SUB PUSH1 0x0 DUP4 ADD MSTORE PUSH2 0x1821 DUP2 PUSH2 0x1619 JUMP JUMPDEST SWAP1 POP SWAP2 SWAP1 POP JUMP JUMPDEST PUSH1 0x0 PUSH1 0x20 DUP3 ADD SWAP1 POP DUP2 DUP2 SUB PUSH1 0x0 DUP4 ADD MSTORE PUSH2 0x1841 DUP2 PUSH2 0x163C JUMP JUMPDEST SWAP1 POP SWAP2 SWAP1 POP JUMP JUMPDEST PUSH1 0x0 PUSH1 0x20 DUP3 ADD SWAP1 POP PUSH2 0x185D PUSH1 0x0 DUP4 ADD DUP5 PUSH2 0x165F JUMP JUMPDEST SWAP3 SWAP2 POP POP JUMP JUMPDEST PUSH1 0x0 PUSH2 0x186D PUSH2 0x187E JUMP JUMPDEST SWAP1 POP PUSH2 0x1879 DUP3 DUP3 PUSH2 0x1A5D JUMP JUMPDEST SWAP2 SWAP1 POP JUMP JUMPDEST PUSH1 0x0 PUSH1 0x40 MLOAD SWAP1 POP SWAP1 JUMP JUMPDEST PUSH1 0x0 PUSH8 0xFFFFFFFFFFFFFFFF DUP3 GT ISZERO PUSH2 0x18A3 JUMPI PUSH2 0x18A2 PUSH2 0x1B93 JUMP JUMPDEST JUMPDEST PUSH2 0x18AC DUP3 PUSH2 0x1BD6 JUMP JUMPDEST SWAP1 POP PUSH1 0x20 DUP2 ADD SWAP1 POP SWAP2 SWAP1 POP JUMP JUMPDEST PUSH1 0x0 DUP2 SWAP1 POP DUP2 PUSH1 0x0 MSTORE PUSH1 0x20 PUSH1 0x0 KECCAK256 SWAP1 POP SWAP2 SWAP1 POP JUMP JUMPDEST PUSH1 0x0 DUP2 MLOAD SWAP1 POP SWAP2 SWAP1 POP JUMP JUMPDEST PUSH1 0x0 DUP3 DUP3 MSTORE PUSH1 0x20 DUP3 ADD SWAP1 POP SWAP3 SWAP2 POP POP JUMP JUMPDEST PUSH1 0x0 DUP2 SWAP1 POP SWAP3 SWAP2 POP POP JUMP JUMPDEST PUSH1 0x0 PUSH2 0x1900 DUP3 PUSH2 0x19CD JUMP JUMPDEST SWAP2 POP PUSH2 0x190B DUP4 PUSH2 0x19CD JUMP JUMPDEST SWAP3 POP DUP3 PUSH32 0xFFFFFFFFFFFFFFFFFFFFFFFFFFFFFFFFFFFFFFFFFFFFFFFFFFFFFFFFFFFFFFFF SUB DUP3 GT ISZERO PUSH2 0x1940 JUMPI PUSH2 0x193F PUSH2 0x1AD7 JUMP JUMPDEST JUMPDEST DUP3 DUP3 ADD SWAP1 POP SWAP3 SWAP2 POP POP JUMP JUMPDEST PUSH1 0x0 PUSH2 0x1956 DUP3 PUSH2 0x19CD JUMP JUMPDEST SWAP2 POP PUSH2 0x1961 DUP4 PUSH2 0x19CD JUMP JUMPDEST SWAP3 POP DUP3 PUSH2 0x1971 JUMPI PUSH2 0x1970 PUSH2 0x1B06 JUMP JUMPDEST JUMPDEST DUP3 DUP3 DIV SWAP1 POP SWAP3 SWAP2 POP POP JUMP JUMPDEST PUSH1 0x0 PUSH2 0x1987 DUP3 PUSH2 0x19AD JUMP JUMPDEST SWAP1 POP SWAP2 SWAP1 POP JUMP JUMPDEST PUSH1 0x0 DUP2 ISZERO ISZERO SWAP1 POP SWAP2 SWAP1 POP JUMP JUMPDEST PUSH1 0x0 DUP2 SWAP1 POP PUSH2 0x19A8 DUP3 PUSH2 0x1D9E JUMP JUMPDEST SWAP2 SWAP1 POP JUMP JUMPDEST PUSH1 0x0 PUSH20 0xFFFFFFFFFFFFFFFFFFFFFFFFFFFFFFFFFFFFFFFF DUP3 AND SWAP1 POP SWAP2 SWAP1 POP JUMP JUMPDEST PUSH1 0x0 DUP2 SWAP1 POP SWAP2 SWAP1 POP JUMP JUMPDEST PUSH1 0x0 PUSH2 0x19E2 DUP3 PUSH2 0x199A JUMP JUMPDEST SWAP1 POP SWAP2 SWAP1 POP JUMP JUMPDEST DUP3 DUP2 DUP4 CALLDATACOPY PUSH1 0x0 DUP4 DUP4 ADD MSTORE POP POP POP JUMP JUMPDEST PUSH1 0x0 JUMPDEST DUP4 DUP2 LT ISZERO PUSH2 0x1A16 JUMPI DUP1 DUP3 ADD MLOAD DUP2 DUP5 ADD MSTORE PUSH1 0x20 DUP2 ADD SWAP1 POP PUSH2 0x19FB JUMP JUMPDEST DUP4 DUP2 GT ISZERO PUSH2 0x1A25 JUMPI PUSH1 0x0 DUP5 DUP5 ADD MSTORE JUMPDEST POP POP POP POP JUMP JUMPDEST PUSH1 0x0 PUSH1 0x2 DUP3 DIV SWAP1 POP PUSH1 0x1 DUP3 AND DUP1 PUSH2 0x1A43 JUMPI PUSH1 0x7F DUP3 AND SWAP2 POP JUMPDEST PUSH1 0x20 DUP3 LT DUP2 EQ ISZERO PUSH2 0x1A57 JUMPI PUSH2 0x1A56 PUSH2 0x1B64 JUMP JUMPDEST JUMPDEST POP SWAP2 SWAP1 POP JUMP JUMPDEST PUSH2 0x1A66 DUP3 PUSH2 0x1BD6 JUMP JUMPDEST DUP2 ADD DUP2 DUP2 LT PUSH8 0xFFFFFFFFFFFFFFFF DUP3 GT OR ISZERO PUSH2 0x1A85 JUMPI PUSH2 0x1A84 PUSH2 0x1B93 JUMP JUMPDEST JUMPDEST DUP1 PUSH1 0x40 MSTORE POP POP POP JUMP JUMPDEST PUSH1 0x0 PUSH2 0x1A99 DUP3 PUSH2 0x19CD JUMP JUMPDEST SWAP2 POP PUSH32 0xFFFFFFFFFFFFFFFFFFFFFFFFFFFFFFFFFFFFFFFFFFFFFFFFFFFFFFFFFFFFFFFF DUP3 EQ ISZERO PUSH2 0x1ACC JUMPI PUSH2 0x1ACB PUSH2 0x1AD7 JUMP JUMPDEST JUMPDEST PUSH1 0x1 DUP3 ADD SWAP1 POP SWAP2 SWAP1 POP JUMP JUMPDEST PUSH32 0x4E487B7100000000000000000000000000000000000000000000000000000000 PUSH1 0x0 MSTORE PUSH1 0x11 PUSH1 0x4 MSTORE PUSH1 0x24 PUSH1 0x0 REVERT JUMPDEST PUSH32 0x4E487B7100000000000000000000000000000000000000000000000000000000 PUSH1 0x0 MSTORE PUSH1 0x12 PUSH1 0x4 MSTORE PUSH1 0x24 PUSH1 0x0 REVERT JUMPDEST PUSH32 0x4E487B7100000000000000000000000000000000000000000000000000000000 PUSH1 0x0 MSTORE PUSH1 0x21 PUSH1 0x4 MSTORE PUSH1 0x24 PUSH1 0x0 REVERT JUMPDEST PUSH32 0x4E487B7100000000000000000000000000000000000000000000000000000000 PUSH1 0x0 MSTORE PUSH1 0x22 PUSH1 0x4 MSTORE PUSH1 0x24 PUSH1 0x0 REVERT JUMPDEST PUSH32 0x4E487B7100000000000000000000000000000000000000000000000000000000 PUSH1 0x0 MSTORE PUSH1 0x41 PUSH1 0x4 MSTORE PUSH1 0x24 PUSH1 0x0 REVERT JUMPDEST PUSH1 0x0 DUP1 REVERT JUMPDEST PUSH1 0x0 DUP1 REVERT JUMPDEST PUSH1 0x0 DUP1 REVERT JUMPDEST PUSH1 0x0 DUP1 REVERT JUMPDEST PUSH1 0x0 PUSH1 0x1F NOT PUSH1 0x1F DUP4 ADD AND SWAP1 POP SWAP2 SWAP1 POP JUMP JUMPDEST PUSH32 0x566F74696E672071756F72756D206973206E6F74206D65742E204B6565702076 PUSH1 0x0 DUP3 ADD MSTORE PUSH32 0x6F74696E672E0000000000000000000000000000000000000000000000000000 PUSH1 0x20 DUP3 ADD MSTORE POP JUMP JUMPDEST PUSH32 0x43616E206F6E6C7920766F7465206F6E63652E00000000000000000000000000 PUSH1 0x0 DUP3 ADD MSTORE POP JUMP JUMPDEST PUSH32 0x467269656E6420616C7265616479206578697374730000000000000000000000 PUSH1 0x0 DUP3 ADD MSTORE POP JUMP JUMPDEST PUSH32 0x46756E6374696F6E2063616E206E6F742062652063616C6C656420696E207468 PUSH1 0x0 DUP3 ADD MSTORE PUSH32 0x69732073746167652E0000000000000000000000000000000000000000000000 PUSH1 0x20 DUP3 ADD MSTORE POP JUMP JUMPDEST PUSH32 0x43616E206F6E6C7920626520657865637574656420627920746865206D616E61 PUSH1 0x0 DUP3 ADD MSTORE PUSH32 0x6765720000000000000000000000000000000000000000000000000000000000 PUSH1 0x20 DUP3 ADD MSTORE POP JUMP JUMPDEST PUSH32 0x52657374617572616E7420616C7265616479206578697374732E000000000000 PUSH1 0x0 DUP3 ADD MSTORE POP JUMP JUMPDEST PUSH32 0x43616E20766F7465206F6E6C79207768696C6520766F74696E67206973206F70 PUSH1 0x0 DUP3 ADD MSTORE PUSH32 0x656E2E0000000000000000000000000000000000000000000000000000000000 PUSH1 0x20 DUP3 ADD MSTORE POP JUMP JUMPDEST PUSH1 0x3 DUP2 LT PUSH2 0x1DAF JUMPI PUSH2 0x1DAE PUSH2 0x1B35 JUMP JUMPDEST JUMPDEST POP JUMP JUMPDEST PUSH2 0x1DBB DUP2 PUSH2 0x197C JUMP JUMPDEST DUP2 EQ PUSH2 0x1DC6 JUMPI PUSH1 0x0 DUP1 REVERT JUMPDEST POP JUMP JUMPDEST PUSH2 0x1DD2 DUP2 PUSH2 0x19CD JUMP JUMPDEST DUP2 EQ PUSH2 0x1DDD JUMPI PUSH1 0x0 DUP1 REVERT JUMPDEST POP JUMP INVALID LOG2 PUSH5 0x6970667358 0x22 SLT KECCAK256 MSTORE8 MSTORE8 0xE0 GAS 0xDD SELFDESTRUCT 0xDA PUSH31 0xA7BAFA7DDEC0111207A2E3DCEA4F8E13C6050E94972BE8C064736F6C634300 ADDMOD SDIV STOP CALLER "
				},
				"gasEstimates": {
					"creation": {
						"codeDepositCost": "1540400",
						"executionCost": "infinite",
						"totalCost": "infinite"
					},
					"external": {
						"addFriend(address,string)": "infinite",
						"addRestaurant(string)": "infinite",
						"currentStage()": "2646",
						"doVote(uint256)": "infinite",
						"endVote()": "infinite",
						"friends(address)": "infinite",
						"manager()": "2559",
						"numFriends()": "2452",
						"numRestaurants()": "2473",
						"numVotes()": "2518",
						"restaurants(uint256)": "infinite",
						"startVote()": "28881",
						"voteOpen()": "2538",
						"votedRestaurant()": "infinite",
						"votes(uint256)": "infinite"
					},
					"internal": {
						"finalResult()": "infinite"
					}
				},
				"methodIdentifiers": {
					"addFriend(address,string)": "3b9f708d",
					"addRestaurant(string)": "6d77bd3e",
					"currentStage()": "5bf5d54c",
					"doVote(uint256)": "124258c6",
					"endVote()": "b9223946",
					"friends(address)": "1ddabf7a",
					"manager()": "481c6a75",
					"numFriends()": "47098f36",
					"numRestaurants()": "b798867f",
					"numVotes()": "a3bef4d7",
					"restaurants(uint256)": "ad5461d8",
					"startVote()": "4c0a6af0",
					"voteOpen()": "788d3851",
					"votedRestaurant()": "c1c16efc",
					"votes(uint256)": "5df81330"
				}
			},
			"storageLayout": {
				"storage": [
					{
						"astId": 21,
						"contract": "contracts/LunchVenue_updated.sol:LunchVenue_updated",
						"label": "currentStage",
						"offset": 0,
						"slot": "0",
						"type": "t_enum(Stage)16"
					},
					{
						"astId": 25,
						"contract": "contracts/LunchVenue_updated.sol:LunchVenue_updated",
						"label": "restaurants",
						"offset": 0,
						"slot": "1",
						"type": "t_mapping(t_uint256,t_string_storage)"
					},
					{
						"astId": 30,
						"contract": "contracts/LunchVenue_updated.sol:LunchVenue_updated",
						"label": "friends",
						"offset": 0,
						"slot": "2",
						"type": "t_mapping(t_address,t_struct(Friend)7_storage)"
					},
					{
						"astId": 33,
						"contract": "contracts/LunchVenue_updated.sol:LunchVenue_updated",
						"label": "numRestaurants",
						"offset": 0,
						"slot": "3",
						"type": "t_uint256"
					},
					{
						"astId": 36,
						"contract": "contracts/LunchVenue_updated.sol:LunchVenue_updated",
						"label": "numFriends",
						"offset": 0,
						"slot": "4",
						"type": "t_uint256"
					},
					{
						"astId": 39,
						"contract": "contracts/LunchVenue_updated.sol:LunchVenue_updated",
						"label": "numVotes",
						"offset": 0,
						"slot": "5",
						"type": "t_uint256"
					},
					{
						"astId": 41,
						"contract": "contracts/LunchVenue_updated.sol:LunchVenue_updated",
						"label": "manager",
						"offset": 0,
						"slot": "6",
						"type": "t_address"
					},
					{
						"astId": 44,
						"contract": "contracts/LunchVenue_updated.sol:LunchVenue_updated",
						"label": "votedRestaurant",
						"offset": 0,
						"slot": "7",
						"type": "t_string_storage"
					},
					{
						"astId": 49,
						"contract": "contracts/LunchVenue_updated.sol:LunchVenue_updated",
						"label": "votes",
						"offset": 0,
						"slot": "8",
						"type": "t_mapping(t_uint256,t_struct(Vote)12_storage)"
					},
					{
						"astId": 53,
						"contract": "contracts/LunchVenue_updated.sol:LunchVenue_updated",
						"label": "_results",
						"offset": 0,
						"slot": "9",
						"type": "t_mapping(t_uint256,t_uint256)"
					},
					{
						"astId": 56,
						"contract": "contracts/LunchVenue_updated.sol:LunchVenue_updated",
						"label": "voteOpen",
						"offset": 0,
						"slot": "10",
						"type": "t_bool"
					}
				],
				"types": {
					"t_address": {
						"encoding": "inplace",
						"label": "address",
						"numberOfBytes": "20"
					},
					"t_bool": {
						"encoding": "inplace",
						"label": "bool",
						"numberOfBytes": "1"
					},
					"t_enum(Stage)16": {
						"encoding": "inplace",
						"label": "enum LunchVenue_updated.Stage",
						"numberOfBytes": "1"
					},
					"t_mapping(t_address,t_struct(Friend)7_storage)": {
						"encoding": "mapping",
						"key": "t_address",
						"label": "mapping(address => struct LunchVenue_updated.Friend)",
						"numberOfBytes": "32",
						"value": "t_struct(Friend)7_storage"
					},
					"t_mapping(t_uint256,t_string_storage)": {
						"encoding": "mapping",
						"key": "t_uint256",
						"label": "mapping(uint256 => string)",
						"numberOfBytes": "32",
						"value": "t_string_storage"
					},
					"t_mapping(t_uint256,t_struct(Vote)12_storage)": {
						"encoding": "mapping",
						"key": "t_uint256",
						"label": "mapping(uint256 => struct LunchVenue_updated.Vote)",
						"numberOfBytes": "32",
						"value": "t_struct(Vote)12_storage"
					},
					"t_mapping(t_uint256,t_uint256)": {
						"encoding": "mapping",
						"key": "t_uint256",
						"label": "mapping(uint256 => uint256)",
						"numberOfBytes": "32",
						"value": "t_uint256"
					},
					"t_string_storage": {
						"encoding": "bytes",
						"label": "string",
						"numberOfBytes": "32"
					},
					"t_struct(Friend)7_storage": {
						"encoding": "inplace",
						"label": "struct LunchVenue_updated.Friend",
						"members": [
							{
								"astId": 4,
								"contract": "contracts/LunchVenue_updated.sol:LunchVenue_updated",
								"label": "name",
								"offset": 0,
								"slot": "0",
								"type": "t_string_storage"
							},
							{
								"astId": 6,
								"contract": "contracts/LunchVenue_updated.sol:LunchVenue_updated",
								"label": "voted",
								"offset": 0,
								"slot": "1",
								"type": "t_bool"
							}
						],
						"numberOfBytes": "64"
					},
					"t_struct(Vote)12_storage": {
						"encoding": "inplace",
						"label": "struct LunchVenue_updated.Vote",
						"members": [
							{
								"astId": 9,
								"contract": "contracts/LunchVenue_updated.sol:LunchVenue_updated",
								"label": "voterAddress",
								"offset": 0,
								"slot": "0",
								"type": "t_address"
							},
							{
								"astId": 11,
								"contract": "contracts/LunchVenue_updated.sol:LunchVenue_updated",
								"label": "restaurant",
								"offset": 0,
								"slot": "1",
								"type": "t_uint256"
							}
						],
						"numberOfBytes": "64"
					},
					"t_uint256": {
						"encoding": "inplace",
						"label": "uint256",
						"numberOfBytes": "32"
					}
				}
			},
			"userdoc": {
				"kind": "user",
				"methods": {
					"addFriend(address,string)": {
						"notice": "Add a new friend to voter list"
					},
					"addRestaurant(string)": {
						"notice": "Add a new restaurant"
					},
					"doVote(uint256)": {
						"notice": "Vote for a restaurant"
					},
					"endVote()": {
						"notice": "Ends the vote stage"
					},
					"startVote()": {
						"notice": "Starts the vote stage"
					}
				},
				"version": 1
			}
		}
	}
}