{
	"contracts/LunchVenue_updated.sol": {
		"LunchVenue_updated": {
			"abi": [
				{
					"inputs": [],
					"stateMutability": "nonpayable",
					"type": "constructor"
				},
				{
					"inputs": [
						{
							"internalType": "address",
							"name": "friendAddress",
							"type": "address"
						},
						{
							"internalType": "string",
							"name": "name",
							"type": "string"
						}
					],
					"name": "addFriend",
					"outputs": [
						{
							"internalType": "uint8",
							"name": "",
							"type": "uint8"
						}
					],
					"stateMutability": "nonpayable",
					"type": "function"
				},
				{
					"inputs": [
						{
							"internalType": "string",
							"name": "name",
							"type": "string"
						}
					],
					"name": "addRestaurant",
					"outputs": [
						{
							"internalType": "uint8",
							"name": "",
							"type": "uint8"
						}
					],
					"stateMutability": "nonpayable",
					"type": "function"
				},
				{
					"inputs": [],
					"name": "currentStage",
					"outputs": [
						{
							"internalType": "enum LunchVenue_updated.Stage",
							"name": "",
							"type": "uint8"
						}
					],
					"stateMutability": "view",
					"type": "function"
				},
				{
					"inputs": [
						{
							"internalType": "uint8",
							"name": "restaurant",
							"type": "uint8"
						}
					],
					"name": "doVote",
					"outputs": [
						{
							"internalType": "bool",
							"name": "validVote",
							"type": "bool"
						}
					],
					"stateMutability": "nonpayable",
					"type": "function"
				},
				{
					"inputs": [],
					"name": "endVote",
					"outputs": [],
					"stateMutability": "nonpayable",
					"type": "function"
				},
				{
					"inputs": [
						{
							"internalType": "address",
							"name": "",
							"type": "address"
						}
					],
					"name": "friends",
					"outputs": [
						{
							"internalType": "string",
							"name": "name",
							"type": "string"
						},
						{
							"internalType": "bool",
							"name": "voted",
							"type": "bool"
						}
					],
					"stateMutability": "view",
					"type": "function"
				},
				{
					"inputs": [],
					"name": "manager",
					"outputs": [
						{
							"internalType": "address",
							"name": "",
							"type": "address"
						}
					],
					"stateMutability": "view",
					"type": "function"
				},
				{
					"inputs": [],
					"name": "numFriends",
					"outputs": [
						{
							"internalType": "uint8",
							"name": "",
							"type": "uint8"
						}
					],
					"stateMutability": "view",
					"type": "function"
				},
				{
					"inputs": [],
					"name": "numRestaurants",
					"outputs": [
						{
							"internalType": "uint8",
							"name": "",
							"type": "uint8"
						}
					],
					"stateMutability": "view",
					"type": "function"
				},
				{
					"inputs": [],
					"name": "numVotes",
					"outputs": [
						{
							"internalType": "uint8",
							"name": "",
							"type": "uint8"
						}
					],
					"stateMutability": "view",
					"type": "function"
				},
				{
					"inputs": [
						{
							"internalType": "uint8",
							"name": "",
							"type": "uint8"
						}
					],
					"name": "restaurants",
					"outputs": [
						{
							"internalType": "string",
							"name": "",
							"type": "string"
						}
					],
					"stateMutability": "view",
					"type": "function"
				},
				{
					"inputs": [],
					"name": "setStopped",
					"outputs": [],
					"stateMutability": "nonpayable",
					"type": "function"
				},
				{
					"inputs": [],
					"name": "startCreate",
					"outputs": [],
					"stateMutability": "nonpayable",
					"type": "function"
				},
				{
					"inputs": [],
					"name": "startVote",
					"outputs": [],
					"stateMutability": "nonpayable",
					"type": "function"
				},
				{
					"inputs": [],
					"name": "stopped",
					"outputs": [
						{
							"internalType": "bool",
							"name": "",
							"type": "bool"
						}
					],
					"stateMutability": "view",
					"type": "function"
				},
				{
					"inputs": [],
					"name": "votedRestaurant",
					"outputs": [
						{
							"internalType": "string",
							"name": "",
							"type": "string"
						}
					],
					"stateMutability": "view",
					"type": "function"
				},
				{
					"inputs": [
						{
							"internalType": "uint8",
							"name": "",
							"type": "uint8"
						}
					],
					"name": "votes",
					"outputs": [
						{
							"internalType": "address",
							"name": "voterAddress",
							"type": "address"
						},
						{
							"internalType": "uint8",
							"name": "restaurant",
							"type": "uint8"
						}
					],
					"stateMutability": "view",
					"type": "function"
				}
			],
			"devdoc": {
				"author": "Dilum Bandara, CSIRO's Data61",
				"kind": "dev",
				"methods": {
					"addFriend(address,string)": {
						"details": "To simplify the code duplication of friends is not checked --> now implemented with friendAlreadyExists modifier",
						"params": {
							"friendAddress": "Friend's account/address",
							"name": "Friend's name"
						},
						"returns": {
							"_0": "Number of friends added so far"
						}
					},
					"addRestaurant(string)": {
						"details": "To simplify the code, duplication of restaurants isn't checked --> now implemented with restaurantAlreadyExists modifier",
						"params": {
							"name": "Restaurant name"
						},
						"returns": {
							"_0": "Number of restaurants added so far"
						}
					},
					"constructor": {
						"details": "Set manager when contract starts"
					},
					"doVote(uint8)": {
						"details": "To simplify the code duplicate votes by a friend is not checked --> now implemented with votedAlready modifier",
						"params": {
							"restaurant": "Restaurant number being voted"
						},
						"returns": {
							"validVote": "Is the vote valid? A valid vote should be from a registered  friend to a registered restaurant"
						}
					}
				},
				"title": "Contract to agree on the lunch venue",
				"version": 1
			},
			"evm": {
				"assembly": "    /* \"contracts/LunchVenue_updated.sol\":157:7641  contract LunchVenue_updated{... */\n  mstore(0x40, 0xa0)\n    /* \"contracts/LunchVenue_updated.sol\":500:512  Stage.CREATE */\n  0x00\n    /* \"contracts/LunchVenue_updated.sol\":472:512  Stage public currentStage = Stage.CREATE */\n  dup1\n  exp(0x0100, 0x00)\n  dup2\n  sload\n  dup2\n  0xff\n  mul\n  not\n  and\n  swap1\n  dup4\n  0x02\n  dup2\n  gt\n  iszero\n  tag_1\n  jumpi\n  tag_2\n  tag_3\n  jump\t// in\ntag_2:\ntag_1:\n  mul\n  or\n  swap1\n  sstore\n  pop\n    /* \"contracts/LunchVenue_updated.sol\":765:766  0 */\n  0x00\n    /* \"contracts/LunchVenue_updated.sol\":735:766  uint8 public numRestaurants = 0 */\n  0x03\n  exp(0x0100, 0x00)\n  dup2\n  sload\n  dup2\n  0xff\n  mul\n  not\n  and\n  swap1\n  dup4\n  0xff\n  and\n  mul\n  or\n  swap1\n  sstore\n  pop\n    /* \"contracts/LunchVenue_updated.sol\":798:799  0 */\n  0x00\n    /* \"contracts/LunchVenue_updated.sol\":772:799  uint8 public numFriends = 0 */\n  0x03\n  exp(0x0100, 0x01)\n  dup2\n  sload\n  dup2\n  0xff\n  mul\n  not\n  and\n  swap1\n  dup4\n  0xff\n  and\n  mul\n  or\n  swap1\n  sstore\n  pop\n    /* \"contracts/LunchVenue_updated.sol\":829:830  0 */\n  0x00\n    /* \"contracts/LunchVenue_updated.sol\":805:830  uint8 public numVotes = 0 */\n  0x03\n  exp(0x0100, 0x02)\n  dup2\n  sload\n  dup2\n  0xff\n  mul\n  not\n  and\n  swap1\n  dup4\n  0xff\n  and\n  mul\n  or\n  swap1\n  sstore\n  pop\n    /* \"contracts/LunchVenue_updated.sol\":937:971  string public votedRestaurant = \"\" */\n  mload(0x40)\n  dup1\n  0x20\n  add\n  0x40\n  mstore\n  dup1\n  0x00\n  dup2\n  mstore\n  pop\n  0x04\n  swap1\n  dup1\n  mload\n  swap1\n  0x20\n  add\n  swap1\n  tag_4\n  swap3\n  swap2\n  swap1\n  tag_5\n  jump\t// in\ntag_4:\n  pop\n    /* \"contracts/LunchVenue_updated.sol\":1212:1217  false */\n  0x00\n    /* \"contracts/LunchVenue_updated.sol\":1190:1217  bool public stopped = false */\n  0x07\n  exp(0x0100, 0x00)\n  dup2\n  sload\n  dup2\n  0xff\n  mul\n  not\n  and\n  swap1\n  dup4\n  iszero\n  iszero\n  mul\n  or\n  swap1\n  sstore\n  pop\n    /* \"contracts/LunchVenue_updated.sol\":1338:1442  constructor () {... */\n  callvalue\n  dup1\n  iszero\n  tag_6\n  jumpi\n  0x00\n  dup1\n  revert\ntag_6:\n  pop\n    /* \"contracts/LunchVenue_updated.sol\":1373:1383  msg.sender */\n  caller\n    /* \"contracts/LunchVenue_updated.sol\":1363:1383  manager = msg.sender */\n  0xffffffffffffffffffffffffffffffffffffffff\n  and\n  0x80\n  dup2\n  0xffffffffffffffffffffffffffffffffffffffff\n  and\n  0x60\n  shl\n  dup2\n  mstore\n  pop\n  pop\n    /* \"contracts/LunchVenue_updated.sol\":157:7641  contract LunchVenue_updated{... */\n  jump(tag_9)\ntag_5:\n  dup3\n  dup1\n  sload\n  tag_10\n  swap1\n  tag_11\n  jump\t// in\ntag_10:\n  swap1\n  0x00\n  mstore\n  keccak256(0x00, 0x20)\n  swap1\n  0x1f\n  add\n  0x20\n  swap1\n  div\n  dup2\n  add\n  swap3\n  dup3\n  tag_13\n  jumpi\n  0x00\n  dup6\n  sstore\n  jump(tag_12)\ntag_13:\n  dup3\n  0x1f\n  lt\n  tag_14\n  jumpi\n  dup1\n  mload\n  not(0xff)\n  and\n  dup4\n  dup1\n  add\n  or\n  dup6\n  sstore\n  jump(tag_12)\ntag_14:\n  dup3\n  dup1\n  add\n  0x01\n  add\n  dup6\n  sstore\n  dup3\n  iszero\n  tag_12\n  jumpi\n  swap2\n  dup3\n  add\ntag_15:\n  dup3\n  dup2\n  gt\n  iszero\n  tag_16\n  jumpi\n  dup3\n  mload\n  dup3\n  sstore\n  swap2\n  0x20\n  add\n  swap2\n  swap1\n  0x01\n  add\n  swap1\n  jump(tag_15)\ntag_16:\ntag_12:\n  pop\n  swap1\n  pop\n  tag_17\n  swap2\n  swap1\n  tag_18\n  jump\t// in\ntag_17:\n  pop\n  swap1\n  jump\t// out\ntag_18:\ntag_19:\n  dup1\n  dup3\n  gt\n  iszero\n  tag_20\n  jumpi\n  0x00\n  dup2\n  0x00\n  swap1\n  sstore\n  pop\n  0x01\n  add\n  jump(tag_19)\ntag_20:\n  pop\n  swap1\n  jump\t// out\n    /* \"#utility.yul\":7:327   */\ntag_11:\n    /* \"#utility.yul\":51:57   */\n  0x00\n    /* \"#utility.yul\":88:89   */\n  0x02\n    /* \"#utility.yul\":82:86   */\n  dup3\n    /* \"#utility.yul\":78:90   */\n  div\n    /* \"#utility.yul\":68:90   */\n  swap1\n  pop\n    /* \"#utility.yul\":135:136   */\n  0x01\n    /* \"#utility.yul\":129:133   */\n  dup3\n    /* \"#utility.yul\":125:137   */\n  and\n    /* \"#utility.yul\":156:174   */\n  dup1\n    /* \"#utility.yul\":146:148   */\n  tag_23\n  jumpi\n    /* \"#utility.yul\":212:216   */\n  0x7f\n    /* \"#utility.yul\":204:210   */\n  dup3\n    /* \"#utility.yul\":200:217   */\n  and\n    /* \"#utility.yul\":190:217   */\n  swap2\n  pop\n    /* \"#utility.yul\":146:148   */\ntag_23:\n    /* \"#utility.yul\":274:276   */\n  0x20\n    /* \"#utility.yul\":266:272   */\n  dup3\n    /* \"#utility.yul\":263:277   */\n  lt\n    /* \"#utility.yul\":243:261   */\n  dup2\n    /* \"#utility.yul\":240:278   */\n  eq\n    /* \"#utility.yul\":237:239   */\n  iszero\n  tag_24\n  jumpi\n    /* \"#utility.yul\":293:311   */\n  tag_25\n  tag_26\n  jump\t// in\ntag_25:\n    /* \"#utility.yul\":237:239   */\ntag_24:\n    /* \"#utility.yul\":58:327   */\n  pop\n  swap2\n  swap1\n  pop\n  jump\t// out\n    /* \"#utility.yul\":333:513   */\ntag_3:\n    /* \"#utility.yul\":381:458   */\n  0x4e487b7100000000000000000000000000000000000000000000000000000000\n    /* \"#utility.yul\":378:379   */\n  0x00\n    /* \"#utility.yul\":371:459   */\n  mstore\n    /* \"#utility.yul\":478:482   */\n  0x21\n    /* \"#utility.yul\":475:476   */\n  0x04\n    /* \"#utility.yul\":468:483   */\n  mstore\n    /* \"#utility.yul\":502:506   */\n  0x24\n    /* \"#utility.yul\":499:500   */\n  0x00\n    /* \"#utility.yul\":492:507   */\n  revert\n    /* \"#utility.yul\":519:699   */\ntag_26:\n    /* \"#utility.yul\":567:644   */\n  0x4e487b7100000000000000000000000000000000000000000000000000000000\n    /* \"#utility.yul\":564:565   */\n  0x00\n    /* \"#utility.yul\":557:645   */\n  mstore\n    /* \"#utility.yul\":664:668   */\n  0x22\n    /* \"#utility.yul\":661:662   */\n  0x04\n    /* \"#utility.yul\":654:669   */\n  mstore\n    /* \"#utility.yul\":688:692   */\n  0x24\n    /* \"#utility.yul\":685:686   */\n  0x00\n    /* \"#utility.yul\":678:693   */\n  revert\n    /* \"contracts/LunchVenue_updated.sol\":157:7641  contract LunchVenue_updated{... */\ntag_9:\n  shr(0x60, mload(0x80))\n  codecopy(0x00, dataOffset(sub_0), dataSize(sub_0))\n  0x00\n  assignImmutable(\"0x6bcaf047ba4c8ac400fca43393035242dd1aabda2d6068a0c51242b97224de8d\")\n  return(0x00, dataSize(sub_0))\nstop\n\nsub_0: assembly {\n        /* \"contracts/LunchVenue_updated.sol\":157:7641  contract LunchVenue_updated{... */\n      mstore(0x40, 0x80)\n      callvalue\n      dup1\n      iszero\n      tag_1\n      jumpi\n      0x00\n      dup1\n      revert\n    tag_1:\n      pop\n      jumpi(tag_2, lt(calldatasize, 0x04))\n      shr(0xe0, calldataload(0x00))\n      dup1\n      0x71135f8b\n      gt\n      tag_20\n      jumpi\n      dup1\n      0xb9223946\n      gt\n      tag_21\n      jumpi\n      dup1\n      0xb9223946\n      eq\n      tag_15\n      jumpi\n      dup1\n      0xc1b43357\n      eq\n      tag_16\n      jumpi\n      dup1\n      0xc1c16efc\n      eq\n      tag_17\n      jumpi\n      dup1\n      0xe9b16ca3\n      eq\n      tag_18\n      jumpi\n      dup1\n      0xfc7ffbba\n      eq\n      tag_19\n      jumpi\n      jump(tag_2)\n    tag_21:\n      dup1\n      0x71135f8b\n      eq\n      tag_11\n      jumpi\n      dup1\n      0x75f12b21\n      eq\n      tag_12\n      jumpi\n      dup1\n      0xa3bef4d7\n      eq\n      tag_13\n      jumpi\n      dup1\n      0xb798867f\n      eq\n      tag_14\n      jumpi\n      jump(tag_2)\n    tag_20:\n      dup1\n      0x481c6a75\n      gt\n      tag_22\n      jumpi\n      dup1\n      0x481c6a75\n      eq\n      tag_7\n      jumpi\n      dup1\n      0x4c0a6af0\n      eq\n      tag_8\n      jumpi\n      dup1\n      0x5bf5d54c\n      eq\n      tag_9\n      jumpi\n      dup1\n      0x6d77bd3e\n      eq\n      tag_10\n      jumpi\n      jump(tag_2)\n    tag_22:\n      dup1\n      0x19a06f27\n      eq\n      tag_3\n      jumpi\n      dup1\n      0x1ddabf7a\n      eq\n      tag_4\n      jumpi\n      dup1\n      0x3b9f708d\n      eq\n      tag_5\n      jumpi\n      dup1\n      0x47098f36\n      eq\n      tag_6\n      jumpi\n    tag_2:\n      0x00\n      dup1\n      revert\n        /* \"contracts/LunchVenue_updated.sol\":557:601  mapping (uint8 => string) public restaurants */\n    tag_3:\n      tag_23\n      0x04\n      dup1\n      calldatasize\n      sub\n      dup2\n      add\n      swap1\n      tag_24\n      swap2\n      swap1\n      tag_25\n      jump\t// in\n    tag_24:\n      tag_26\n      jump\t// in\n    tag_23:\n      mload(0x40)\n      tag_27\n      swap2\n      swap1\n      tag_28\n      jump\t// in\n    tag_27:\n      mload(0x40)\n      dup1\n      swap2\n      sub\n      swap1\n      return\n        /* \"contracts/LunchVenue_updated.sol\":651:692  mapping(address => Friend) public friends */\n    tag_4:\n      tag_29\n      0x04\n      dup1\n      calldatasize\n      sub\n      dup2\n      add\n      swap1\n      tag_30\n      swap2\n      swap1\n      tag_31\n      jump\t// in\n    tag_30:\n      tag_32\n      jump\t// in\n    tag_29:\n      mload(0x40)\n      tag_33\n      swap3\n      swap2\n      swap1\n      tag_34\n      jump\t// in\n    tag_33:\n      mload(0x40)\n      dup1\n      swap2\n      sub\n      swap1\n      return\n        /* \"contracts/LunchVenue_updated.sol\":3086:3412  function addFriend(address friendAddress, string memory name) public restricted friendAlreadyExists(friendAddress) inStage(Stage.CREATE) whenNotStopped returns (uint8){... */\n    tag_5:\n      tag_35\n      0x04\n      dup1\n      calldatasize\n      sub\n      dup2\n      add\n      swap1\n      tag_36\n      swap2\n      swap1\n      tag_37\n      jump\t// in\n    tag_36:\n      tag_38\n      jump\t// in\n    tag_35:\n      mload(0x40)\n      tag_39\n      swap2\n      swap1\n      tag_40\n      jump\t// in\n    tag_39:\n      mload(0x40)\n      dup1\n      swap2\n      sub\n      swap1\n      return\n        /* \"contracts/LunchVenue_updated.sol\":772:799  uint8 public numFriends = 0 */\n    tag_6:\n      tag_41\n      tag_42\n      jump\t// in\n    tag_41:\n      mload(0x40)\n      tag_43\n      swap2\n      swap1\n      tag_40\n      jump\t// in\n    tag_43:\n      mload(0x40)\n      dup1\n      swap2\n      sub\n      swap1\n      return\n        /* \"contracts/LunchVenue_updated.sol\":836:868  address public immutable manager */\n    tag_7:\n      tag_44\n      tag_45\n      jump\t// in\n    tag_44:\n      mload(0x40)\n      tag_46\n      swap2\n      swap1\n      tag_47\n      jump\t// in\n    tag_46:\n      mload(0x40)\n      dup1\n      swap2\n      sub\n      swap1\n      return\n        /* \"contracts/LunchVenue_updated.sol\":1499:1622  function startVote() public restricted inStage(Stage.CREATE) whenNotStopped {... */\n    tag_8:\n      tag_48\n      tag_49\n      jump\t// in\n    tag_48:\n      stop\n        /* \"contracts/LunchVenue_updated.sol\":472:512  Stage public currentStage = Stage.CREATE */\n    tag_9:\n      tag_50\n      tag_51\n      jump\t// in\n    tag_50:\n      mload(0x40)\n      tag_52\n      swap2\n      swap1\n      tag_53\n      jump\t// in\n    tag_52:\n      mload(0x40)\n      dup1\n      swap2\n      sub\n      swap1\n      return\n        /* \"contracts/LunchVenue_updated.sol\":2503:2754  function addRestaurant(string memory name) public restricted restaurantAlreadyExists(name) inStage(Stage.CREATE) whenNotStopped returns (uint8){... */\n    tag_10:\n      tag_54\n      0x04\n      dup1\n      calldatasize\n      sub\n      dup2\n      add\n      swap1\n      tag_55\n      swap2\n      swap1\n      tag_56\n      jump\t// in\n    tag_55:\n      tag_57\n      jump\t// in\n    tag_54:\n      mload(0x40)\n      tag_58\n      swap2\n      swap1\n      tag_40\n      jump\t// in\n    tag_58:\n      mload(0x40)\n      dup1\n      swap2\n      sub\n      swap1\n      return\n        /* \"contracts/LunchVenue_updated.sol\":2098:2220  function setStopped() public restricted { //Only the manager can start/stop the contract... */\n    tag_11:\n      tag_59\n      tag_60\n      jump\t// in\n    tag_59:\n      stop\n        /* \"contracts/LunchVenue_updated.sol\":1190:1217  bool public stopped = false */\n    tag_12:\n      tag_61\n      tag_62\n      jump\t// in\n    tag_61:\n      mload(0x40)\n      tag_63\n      swap2\n      swap1\n      tag_64\n      jump\t// in\n    tag_63:\n      mload(0x40)\n      dup1\n      swap2\n      sub\n      swap1\n      return\n        /* \"contracts/LunchVenue_updated.sol\":805:830  uint8 public numVotes = 0 */\n    tag_13:\n      tag_65\n      tag_66\n      jump\t// in\n    tag_65:\n      mload(0x40)\n      tag_67\n      swap2\n      swap1\n      tag_40\n      jump\t// in\n    tag_67:\n      mload(0x40)\n      dup1\n      swap2\n      sub\n      swap1\n      return\n        /* \"contracts/LunchVenue_updated.sol\":735:766  uint8 public numRestaurants = 0 */\n    tag_14:\n      tag_68\n      tag_69\n      jump\t// in\n    tag_68:\n      mload(0x40)\n      tag_70\n      swap2\n      swap1\n      tag_40\n      jump\t// in\n    tag_70:\n      mload(0x40)\n      dup1\n      swap2\n      sub\n      swap1\n      return\n        /* \"contracts/LunchVenue_updated.sol\":1865:2019  function endVote() public restricted quorumIsMet inStage(Stage.VOTE_CLOSED) whenNotStopped { //only end it when quorum is met... */\n    tag_15:\n      tag_71\n      tag_72\n      jump\t// in\n    tag_71:\n      stop\n        /* \"contracts/LunchVenue_updated.sol\":1008:1044  mapping (uint8 => Vote) public votes */\n    tag_16:\n      tag_73\n      0x04\n      dup1\n      calldatasize\n      sub\n      dup2\n      add\n      swap1\n      tag_74\n      swap2\n      swap1\n      tag_25\n      jump\t// in\n    tag_74:\n      tag_75\n      jump\t// in\n    tag_73:\n      mload(0x40)\n      tag_76\n      swap3\n      swap2\n      swap1\n      tag_77\n      jump\t// in\n    tag_76:\n      mload(0x40)\n      dup1\n      swap2\n      sub\n      swap1\n      return\n        /* \"contracts/LunchVenue_updated.sol\":937:971  string public votedRestaurant = \"\" */\n    tag_17:\n      tag_78\n      tag_79\n      jump\t// in\n    tag_78:\n      mload(0x40)\n      tag_80\n      swap2\n      swap1\n      tag_28\n      jump\t// in\n    tag_80:\n      mload(0x40)\n      dup1\n      swap2\n      sub\n      swap1\n      return\n        /* \"contracts/LunchVenue_updated.sol\":3783:4653  function doVote(uint8 restaurant) public votedAlready(msg.sender) inStage(Stage.VOTE_OPEN) whenNotStopped returns (bool validVote){... */\n    tag_18:\n      tag_81\n      0x04\n      dup1\n      calldatasize\n      sub\n      dup2\n      add\n      swap1\n      tag_82\n      swap2\n      swap1\n      tag_25\n      jump\t// in\n    tag_82:\n      tag_83\n      jump\t// in\n    tag_81:\n      mload(0x40)\n      tag_84\n      swap2\n      swap1\n      tag_64\n      jump\t// in\n    tag_84:\n      mload(0x40)\n      dup1\n      swap2\n      sub\n      swap1\n      return\n        /* \"contracts/LunchVenue_updated.sol\":1685:1810  function startCreate() public restricted inStage(Stage.VOTE_OPEN) whenNotStopped {... */\n    tag_19:\n      tag_85\n      tag_86\n      jump\t// in\n    tag_85:\n      stop\n        /* \"contracts/LunchVenue_updated.sol\":557:601  mapping (uint8 => string) public restaurants */\n    tag_26:\n      mstore(0x20, 0x01)\n      dup1\n      0x00\n      mstore\n      keccak256(0x00, 0x40)\n      0x00\n      swap2\n      pop\n      swap1\n      pop\n      dup1\n      sload\n      tag_87\n      swap1\n      tag_88\n      jump\t// in\n    tag_87:\n      dup1\n      0x1f\n      add\n      0x20\n      dup1\n      swap2\n      div\n      mul\n      0x20\n      add\n      mload(0x40)\n      swap1\n      dup2\n      add\n      0x40\n      mstore\n      dup1\n      swap3\n      swap2\n      swap1\n      dup2\n      dup2\n      mstore\n      0x20\n      add\n      dup3\n      dup1\n      sload\n      tag_89\n      swap1\n      tag_88\n      jump\t// in\n    tag_89:\n      dup1\n      iszero\n      tag_90\n      jumpi\n      dup1\n      0x1f\n      lt\n      tag_91\n      jumpi\n      0x0100\n      dup1\n      dup4\n      sload\n      div\n      mul\n      dup4\n      mstore\n      swap2\n      0x20\n      add\n      swap2\n      jump(tag_90)\n    tag_91:\n      dup3\n      add\n      swap2\n      swap1\n      0x00\n      mstore\n      keccak256(0x00, 0x20)\n      swap1\n    tag_92:\n      dup2\n      sload\n      dup2\n      mstore\n      swap1\n      0x01\n      add\n      swap1\n      0x20\n      add\n      dup1\n      dup4\n      gt\n      tag_92\n      jumpi\n      dup3\n      swap1\n      sub\n      0x1f\n      and\n      dup3\n      add\n      swap2\n    tag_90:\n      pop\n      pop\n      pop\n      pop\n      pop\n      dup2\n      jump\t// out\n        /* \"contracts/LunchVenue_updated.sol\":651:692  mapping(address => Friend) public friends */\n    tag_32:\n      mstore(0x20, 0x02)\n      dup1\n      0x00\n      mstore\n      keccak256(0x00, 0x40)\n      0x00\n      swap2\n      pop\n      swap1\n      pop\n      dup1\n      0x00\n      add\n      dup1\n      sload\n      tag_93\n      swap1\n      tag_88\n      jump\t// in\n    tag_93:\n      dup1\n      0x1f\n      add\n      0x20\n      dup1\n      swap2\n      div\n      mul\n      0x20\n      add\n      mload(0x40)\n      swap1\n      dup2\n      add\n      0x40\n      mstore\n      dup1\n      swap3\n      swap2\n      swap1\n      dup2\n      dup2\n      mstore\n      0x20\n      add\n      dup3\n      dup1\n      sload\n      tag_94\n      swap1\n      tag_88\n      jump\t// in\n    tag_94:\n      dup1\n      iszero\n      tag_95\n      jumpi\n      dup1\n      0x1f\n      lt\n      tag_96\n      jumpi\n      0x0100\n      dup1\n      dup4\n      sload\n      div\n      mul\n      dup4\n      mstore\n      swap2\n      0x20\n      add\n      swap2\n      jump(tag_95)\n    tag_96:\n      dup3\n      add\n      swap2\n      swap1\n      0x00\n      mstore\n      keccak256(0x00, 0x20)\n      swap1\n    tag_97:\n      dup2\n      sload\n      dup2\n      mstore\n      swap1\n      0x01\n      add\n      swap1\n      0x20\n      add\n      dup1\n      dup4\n      gt\n      tag_97\n      jumpi\n      dup3\n      swap1\n      sub\n      0x1f\n      and\n      dup3\n      add\n      swap2\n    tag_95:\n      pop\n      pop\n      pop\n      pop\n      pop\n      swap1\n      dup1\n      0x01\n      add\n      0x00\n      swap1\n      sload\n      swap1\n      0x0100\n      exp\n      swap1\n      div\n      0xff\n      and\n      swap1\n      pop\n      dup3\n      jump\t// out\n        /* \"contracts/LunchVenue_updated.sol\":3086:3412  function addFriend(address friendAddress, string memory name) public restricted friendAlreadyExists(friendAddress) inStage(Stage.CREATE) whenNotStopped returns (uint8){... */\n    tag_38:\n        /* \"contracts/LunchVenue_updated.sol\":3247:3252  uint8 */\n      0x00\n        /* \"contracts/LunchVenue_updated.sol\":5616:5623  manager */\n      immutable(\"0x6bcaf047ba4c8ac400fca43393035242dd1aabda2d6068a0c51242b97224de8d\")\n        /* \"contracts/LunchVenue_updated.sol\":5603:5623  tx.origin == manager */\n      0xffffffffffffffffffffffffffffffffffffffff\n      and\n        /* \"contracts/LunchVenue_updated.sol\":5603:5612  tx.origin */\n      origin\n        /* \"contracts/LunchVenue_updated.sol\":5603:5623  tx.origin == manager */\n      0xffffffffffffffffffffffffffffffffffffffff\n      and\n      eq\n        /* \"contracts/LunchVenue_updated.sol\":5603:5648  tx.origin == manager || msg.sender == manager */\n      dup1\n      tag_99\n      jumpi\n      pop\n        /* \"contracts/LunchVenue_updated.sol\":5641:5648  manager */\n      immutable(\"0x6bcaf047ba4c8ac400fca43393035242dd1aabda2d6068a0c51242b97224de8d\")\n        /* \"contracts/LunchVenue_updated.sol\":5627:5648  msg.sender == manager */\n      0xffffffffffffffffffffffffffffffffffffffff\n      and\n        /* \"contracts/LunchVenue_updated.sol\":5627:5637  msg.sender */\n      caller\n        /* \"contracts/LunchVenue_updated.sol\":5627:5648  msg.sender == manager */\n      0xffffffffffffffffffffffffffffffffffffffff\n      and\n      eq\n        /* \"contracts/LunchVenue_updated.sol\":5603:5648  tx.origin == manager || msg.sender == manager */\n    tag_99:\n        /* \"contracts/LunchVenue_updated.sol\":5594:5688  require (tx.origin == manager || msg.sender == manager, \"Can only be executed by the manager\") */\n      tag_100\n      jumpi\n      mload(0x40)\n      0x08c379a000000000000000000000000000000000000000000000000000000000\n      dup2\n      mstore\n      0x04\n      add\n      tag_101\n      swap1\n      tag_102\n      jump\t// in\n    tag_101:\n      mload(0x40)\n      dup1\n      swap2\n      sub\n      swap1\n      revert\n    tag_100:\n        /* \"contracts/LunchVenue_updated.sol\":3186:3199  friendAddress */\n      dup3\n        /* \"contracts/LunchVenue_updated.sol\":6904:6905  0 */\n      0x00\n        /* \"contracts/LunchVenue_updated.sol\":6865:6872  friends */\n      0x02\n        /* \"contracts/LunchVenue_updated.sol\":6865:6887  friends[friendAddress] */\n      0x00\n        /* \"contracts/LunchVenue_updated.sol\":6873:6886  friendAddress */\n      dup4\n        /* \"contracts/LunchVenue_updated.sol\":6865:6887  friends[friendAddress] */\n      0xffffffffffffffffffffffffffffffffffffffff\n      and\n      0xffffffffffffffffffffffffffffffffffffffff\n      and\n      dup2\n      mstore\n      0x20\n      add\n      swap1\n      dup2\n      mstore\n      0x20\n      add\n      0x00\n      keccak256\n        /* \"contracts/LunchVenue_updated.sol\":6865:6892  friends[friendAddress].name */\n      0x00\n      add\n        /* \"contracts/LunchVenue_updated.sol\":6859:6900  bytes(friends[friendAddress].name).length */\n      dup1\n      sload\n      tag_104\n      swap1\n      tag_88\n      jump\t// in\n    tag_104:\n      swap1\n      pop\n        /* \"contracts/LunchVenue_updated.sol\":6859:6905  bytes(friends[friendAddress].name).length == 0 */\n      eq\n        /* \"contracts/LunchVenue_updated.sol\":6851:6932  require(bytes(friends[friendAddress].name).length == 0, \"Friend already exists.\") */\n      tag_105\n      jumpi\n      mload(0x40)\n      0x08c379a000000000000000000000000000000000000000000000000000000000\n      dup2\n      mstore\n      0x04\n      add\n      tag_106\n      swap1\n      tag_107\n      jump\t// in\n    tag_106:\n      mload(0x40)\n      dup1\n      swap2\n      sub\n      swap1\n      revert\n    tag_105:\n        /* \"contracts/LunchVenue_updated.sol\":3209:3221  Stage.CREATE */\n      0x00\n        /* \"contracts/LunchVenue_updated.sol\":7092:7097  stage */\n      dup1\n        /* \"contracts/LunchVenue_updated.sol\":7076:7097  currentStage == stage */\n      0x02\n      dup2\n      gt\n      iszero\n      tag_109\n      jumpi\n      tag_110\n      tag_111\n      jump\t// in\n    tag_110:\n    tag_109:\n        /* \"contracts/LunchVenue_updated.sol\":7076:7088  currentStage */\n      0x00\n      dup1\n      sload\n      swap1\n      0x0100\n      exp\n      swap1\n      div\n      0xff\n      and\n        /* \"contracts/LunchVenue_updated.sol\":7076:7097  currentStage == stage */\n      0x02\n      dup2\n      gt\n      iszero\n      tag_112\n      jumpi\n      tag_113\n      tag_111\n      jump\t// in\n    tag_113:\n    tag_112:\n      eq\n        /* \"contracts/LunchVenue_updated.sol\":7068:7143  require(currentStage == stage, \"Function can not be called in this stage.\") */\n      tag_114\n      jumpi\n      mload(0x40)\n      0x08c379a000000000000000000000000000000000000000000000000000000000\n      dup2\n      mstore\n      0x04\n      add\n      tag_115\n      swap1\n      tag_116\n      jump\t// in\n    tag_115:\n      mload(0x40)\n      dup1\n      swap2\n      sub\n      swap1\n      revert\n    tag_114:\n        /* \"contracts/LunchVenue_updated.sol\":7589:7596  stopped */\n      0x07\n      0x00\n      swap1\n      sload\n      swap1\n      0x0100\n      exp\n      swap1\n      div\n      0xff\n      and\n        /* \"contracts/LunchVenue_updated.sol\":7588:7596  !stopped */\n      iszero\n        /* \"contracts/LunchVenue_updated.sol\":7580:7621  require(!stopped, \"Contract is stopped.\") */\n      tag_118\n      jumpi\n      mload(0x40)\n      0x08c379a000000000000000000000000000000000000000000000000000000000\n      dup2\n      mstore\n      0x04\n      add\n      tag_119\n      swap1\n      tag_120\n      jump\t// in\n    tag_119:\n      mload(0x40)\n      dup1\n      swap2\n      sub\n      swap1\n      revert\n    tag_118:\n        /* \"contracts/LunchVenue_updated.sol\":3288:3306  Friend(name,false) */\n      mload(0x40)\n      dup1\n      0x40\n      add\n      0x40\n      mstore\n      dup1\n        /* \"contracts/LunchVenue_updated.sol\":3295:3299  name */\n      dup6\n        /* \"contracts/LunchVenue_updated.sol\":3288:3306  Friend(name,false) */\n      dup2\n      mstore\n      0x20\n      add\n        /* \"contracts/LunchVenue_updated.sol\":3300:3305  false */\n      0x00\n        /* \"contracts/LunchVenue_updated.sol\":3288:3306  Friend(name,false) */\n      iszero\n      iszero\n      dup2\n      mstore\n      pop\n        /* \"contracts/LunchVenue_updated.sol\":3263:3270  friends */\n      0x02\n        /* \"contracts/LunchVenue_updated.sol\":3263:3285  friends[friendAddress] */\n      0x00\n        /* \"contracts/LunchVenue_updated.sol\":3271:3284  friendAddress */\n      dup8\n        /* \"contracts/LunchVenue_updated.sol\":3263:3285  friends[friendAddress] */\n      0xffffffffffffffffffffffffffffffffffffffff\n      and\n      0xffffffffffffffffffffffffffffffffffffffff\n      and\n      dup2\n      mstore\n      0x20\n      add\n      swap1\n      dup2\n      mstore\n      0x20\n      add\n      0x00\n      keccak256\n        /* \"contracts/LunchVenue_updated.sol\":3263:3306  friends[friendAddress] = Friend(name,false) */\n      0x00\n      dup3\n      add\n      mload\n      dup2\n      0x00\n      add\n      swap1\n      dup1\n      mload\n      swap1\n      0x20\n      add\n      swap1\n      tag_122\n      swap3\n      swap2\n      swap1\n      tag_123\n      jump\t// in\n    tag_122:\n      pop\n      0x20\n      dup3\n      add\n      mload\n      dup2\n      0x01\n      add\n      exp(0x0100, 0x00)\n      dup2\n      sload\n      dup2\n      0xff\n      mul\n      not\n      and\n      swap1\n      dup4\n      iszero\n      iszero\n      mul\n      or\n      swap1\n      sstore\n      pop\n      swap1\n      pop\n      pop\n        /* \"contracts/LunchVenue_updated.sol\":3366:3376  numFriends */\n      0x03\n      0x01\n        /* \"contracts/LunchVenue_updated.sol\":3366:3378  numFriends++ */\n      dup2\n      dup2\n      swap1\n      sload\n      swap1\n      0x0100\n      exp\n      swap1\n      div\n      0xff\n      and\n      dup1\n      swap3\n      swap2\n      swap1\n      tag_124\n      swap1\n      tag_125\n      jump\t// in\n    tag_124:\n      swap2\n      swap1\n      0x0100\n      exp\n      dup2\n      sload\n      dup2\n      0xff\n      mul\n      not\n      and\n      swap1\n      dup4\n      0xff\n      and\n      mul\n      or\n      swap1\n      sstore\n      pop\n      pop\n        /* \"contracts/LunchVenue_updated.sol\":3395:3405  numFriends */\n      0x03\n      0x01\n      swap1\n      sload\n      swap1\n      0x0100\n      exp\n      swap1\n      div\n      0xff\n      and\n        /* \"contracts/LunchVenue_updated.sol\":3388:3405  return numFriends */\n      swap3\n      pop\n        /* \"contracts/LunchVenue_updated.sol\":6942:6943  _ */\n      pop\n        /* \"contracts/LunchVenue_updated.sol\":5821:5822  _ */\n      pop\n        /* \"contracts/LunchVenue_updated.sol\":3086:3412  function addFriend(address friendAddress, string memory name) public restricted friendAlreadyExists(friendAddress) inStage(Stage.CREATE) whenNotStopped returns (uint8){... */\n      swap3\n      swap2\n      pop\n      pop\n      jump\t// out\n        /* \"contracts/LunchVenue_updated.sol\":772:799  uint8 public numFriends = 0 */\n    tag_42:\n      0x03\n      0x01\n      swap1\n      sload\n      swap1\n      0x0100\n      exp\n      swap1\n      div\n      0xff\n      and\n      dup2\n      jump\t// out\n        /* \"contracts/LunchVenue_updated.sol\":836:868  address public immutable manager */\n    tag_45:\n      immutable(\"0x6bcaf047ba4c8ac400fca43393035242dd1aabda2d6068a0c51242b97224de8d\")\n      dup2\n      jump\t// out\n        /* \"contracts/LunchVenue_updated.sol\":1499:1622  function startVote() public restricted inStage(Stage.CREATE) whenNotStopped {... */\n    tag_49:\n        /* \"contracts/LunchVenue_updated.sol\":5616:5623  manager */\n      immutable(\"0x6bcaf047ba4c8ac400fca43393035242dd1aabda2d6068a0c51242b97224de8d\")\n        /* \"contracts/LunchVenue_updated.sol\":5603:5623  tx.origin == manager */\n      0xffffffffffffffffffffffffffffffffffffffff\n      and\n        /* \"contracts/LunchVenue_updated.sol\":5603:5612  tx.origin */\n      origin\n        /* \"contracts/LunchVenue_updated.sol\":5603:5623  tx.origin == manager */\n      0xffffffffffffffffffffffffffffffffffffffff\n      and\n      eq\n        /* \"contracts/LunchVenue_updated.sol\":5603:5648  tx.origin == manager || msg.sender == manager */\n      dup1\n      tag_127\n      jumpi\n      pop\n        /* \"contracts/LunchVenue_updated.sol\":5641:5648  manager */\n      immutable(\"0x6bcaf047ba4c8ac400fca43393035242dd1aabda2d6068a0c51242b97224de8d\")\n        /* \"contracts/LunchVenue_updated.sol\":5627:5648  msg.sender == manager */\n      0xffffffffffffffffffffffffffffffffffffffff\n      and\n        /* \"contracts/LunchVenue_updated.sol\":5627:5637  msg.sender */\n      caller\n        /* \"contracts/LunchVenue_updated.sol\":5627:5648  msg.sender == manager */\n      0xffffffffffffffffffffffffffffffffffffffff\n      and\n      eq\n        /* \"contracts/LunchVenue_updated.sol\":5603:5648  tx.origin == manager || msg.sender == manager */\n    tag_127:\n        /* \"contracts/LunchVenue_updated.sol\":5594:5688  require (tx.origin == manager || msg.sender == manager, \"Can only be executed by the manager\") */\n      tag_128\n      jumpi\n      mload(0x40)\n      0x08c379a000000000000000000000000000000000000000000000000000000000\n      dup2\n      mstore\n      0x04\n      add\n      tag_129\n      swap1\n      tag_102\n      jump\t// in\n    tag_129:\n      mload(0x40)\n      dup1\n      swap2\n      sub\n      swap1\n      revert\n    tag_128:\n        /* \"contracts/LunchVenue_updated.sol\":1546:1558  Stage.CREATE */\n      0x00\n        /* \"contracts/LunchVenue_updated.sol\":7092:7097  stage */\n      dup1\n        /* \"contracts/LunchVenue_updated.sol\":7076:7097  currentStage == stage */\n      0x02\n      dup2\n      gt\n      iszero\n      tag_131\n      jumpi\n      tag_132\n      tag_111\n      jump\t// in\n    tag_132:\n    tag_131:\n        /* \"contracts/LunchVenue_updated.sol\":7076:7088  currentStage */\n      0x00\n      dup1\n      sload\n      swap1\n      0x0100\n      exp\n      swap1\n      div\n      0xff\n      and\n        /* \"contracts/LunchVenue_updated.sol\":7076:7097  currentStage == stage */\n      0x02\n      dup2\n      gt\n      iszero\n      tag_133\n      jumpi\n      tag_134\n      tag_111\n      jump\t// in\n    tag_134:\n    tag_133:\n      eq\n        /* \"contracts/LunchVenue_updated.sol\":7068:7143  require(currentStage == stage, \"Function can not be called in this stage.\") */\n      tag_135\n      jumpi\n      mload(0x40)\n      0x08c379a000000000000000000000000000000000000000000000000000000000\n      dup2\n      mstore\n      0x04\n      add\n      tag_136\n      swap1\n      tag_116\n      jump\t// in\n    tag_136:\n      mload(0x40)\n      dup1\n      swap2\n      sub\n      swap1\n      revert\n    tag_135:\n        /* \"contracts/LunchVenue_updated.sol\":7589:7596  stopped */\n      0x07\n      0x00\n      swap1\n      sload\n      swap1\n      0x0100\n      exp\n      swap1\n      div\n      0xff\n      and\n        /* \"contracts/LunchVenue_updated.sol\":7588:7596  !stopped */\n      iszero\n        /* \"contracts/LunchVenue_updated.sol\":7580:7621  require(!stopped, \"Contract is stopped.\") */\n      tag_138\n      jumpi\n      mload(0x40)\n      0x08c379a000000000000000000000000000000000000000000000000000000000\n      dup2\n      mstore\n      0x04\n      add\n      tag_139\n      swap1\n      tag_120\n      jump\t// in\n    tag_139:\n      mload(0x40)\n      dup1\n      swap2\n      sub\n      swap1\n      revert\n    tag_138:\n        /* \"contracts/LunchVenue_updated.sol\":1600:1615  Stage.VOTE_OPEN */\n      0x01\n        /* \"contracts/LunchVenue_updated.sol\":1585:1597  currentStage */\n      0x00\n      dup1\n        /* \"contracts/LunchVenue_updated.sol\":1585:1615  currentStage = Stage.VOTE_OPEN */\n      0x0100\n      exp\n      dup2\n      sload\n      dup2\n      0xff\n      mul\n      not\n      and\n      swap1\n      dup4\n      0x02\n      dup2\n      gt\n      iszero\n      tag_141\n      jumpi\n      tag_142\n      tag_111\n      jump\t// in\n    tag_142:\n    tag_141:\n      mul\n      or\n      swap1\n      sstore\n      pop\n        /* \"contracts/LunchVenue_updated.sol\":5821:5822  _ */\n      pop\n        /* \"contracts/LunchVenue_updated.sol\":1499:1622  function startVote() public restricted inStage(Stage.CREATE) whenNotStopped {... */\n      jump\t// out\n        /* \"contracts/LunchVenue_updated.sol\":472:512  Stage public currentStage = Stage.CREATE */\n    tag_51:\n      0x00\n      dup1\n      sload\n      swap1\n      0x0100\n      exp\n      swap1\n      div\n      0xff\n      and\n      dup2\n      jump\t// out\n        /* \"contracts/LunchVenue_updated.sol\":2503:2754  function addRestaurant(string memory name) public restricted restaurantAlreadyExists(name) inStage(Stage.CREATE) whenNotStopped returns (uint8){... */\n    tag_57:\n        /* \"contracts/LunchVenue_updated.sol\":2640:2645  uint8 */\n      0x00\n        /* \"contracts/LunchVenue_updated.sol\":5616:5623  manager */\n      immutable(\"0x6bcaf047ba4c8ac400fca43393035242dd1aabda2d6068a0c51242b97224de8d\")\n        /* \"contracts/LunchVenue_updated.sol\":5603:5623  tx.origin == manager */\n      0xffffffffffffffffffffffffffffffffffffffff\n      and\n        /* \"contracts/LunchVenue_updated.sol\":5603:5612  tx.origin */\n      origin\n        /* \"contracts/LunchVenue_updated.sol\":5603:5623  tx.origin == manager */\n      0xffffffffffffffffffffffffffffffffffffffff\n      and\n      eq\n        /* \"contracts/LunchVenue_updated.sol\":5603:5648  tx.origin == manager || msg.sender == manager */\n      dup1\n      tag_144\n      jumpi\n      pop\n        /* \"contracts/LunchVenue_updated.sol\":5641:5648  manager */\n      immutable(\"0x6bcaf047ba4c8ac400fca43393035242dd1aabda2d6068a0c51242b97224de8d\")\n        /* \"contracts/LunchVenue_updated.sol\":5627:5648  msg.sender == manager */\n      0xffffffffffffffffffffffffffffffffffffffff\n      and\n        /* \"contracts/LunchVenue_updated.sol\":5627:5637  msg.sender */\n      caller\n        /* \"contracts/LunchVenue_updated.sol\":5627:5648  msg.sender == manager */\n      0xffffffffffffffffffffffffffffffffffffffff\n      and\n      eq\n        /* \"contracts/LunchVenue_updated.sol\":5603:5648  tx.origin == manager || msg.sender == manager */\n    tag_144:\n        /* \"contracts/LunchVenue_updated.sol\":5594:5688  require (tx.origin == manager || msg.sender == manager, \"Can only be executed by the manager\") */\n      tag_145\n      jumpi\n      mload(0x40)\n      0x08c379a000000000000000000000000000000000000000000000000000000000\n      dup2\n      mstore\n      0x04\n      add\n      tag_146\n      swap1\n      tag_102\n      jump\t// in\n    tag_146:\n      mload(0x40)\n      dup1\n      swap2\n      sub\n      swap1\n      revert\n    tag_145:\n        /* \"contracts/LunchVenue_updated.sol\":2588:2592  name */\n      dup2\n        /* \"contracts/LunchVenue_updated.sol\":6197:6218  bool restaurantExists */\n      0x00\n        /* \"contracts/LunchVenue_updated.sol\":6242:6249  uint8 i */\n      dup1\n        /* \"contracts/LunchVenue_updated.sol\":6252:6253  1 */\n      0x01\n        /* \"contracts/LunchVenue_updated.sol\":6242:6253  uint8 i = 1 */\n      swap1\n      pop\n        /* \"contracts/LunchVenue_updated.sol\":6237:6642  for (uint8 i = 1; i <= numRestaurants; i++) { //iterate over every restaurant in the list... */\n    tag_148:\n        /* \"contracts/LunchVenue_updated.sol\":6260:6274  numRestaurants */\n      0x03\n      0x00\n      swap1\n      sload\n      swap1\n      0x0100\n      exp\n      swap1\n      div\n      0xff\n      and\n        /* \"contracts/LunchVenue_updated.sol\":6255:6274  i <= numRestaurants */\n      0xff\n      and\n        /* \"contracts/LunchVenue_updated.sol\":6255:6256  i */\n      dup2\n        /* \"contracts/LunchVenue_updated.sol\":6255:6274  i <= numRestaurants */\n      0xff\n      and\n      gt\n        /* \"contracts/LunchVenue_updated.sol\":6237:6642  for (uint8 i = 1; i <= numRestaurants; i++) { //iterate over every restaurant in the list... */\n      tag_149\n      jumpi\n        /* \"contracts/LunchVenue_updated.sol\":6417:6421  name */\n      dup3\n        /* \"contracts/LunchVenue_updated.sol\":6400:6422  abi.encodePacked(name) */\n      add(0x20, mload(0x40))\n      tag_151\n      swap2\n      swap1\n      tag_152\n      jump\t// in\n    tag_151:\n      mload(0x40)\n      0x20\n      dup2\n      dup4\n      sub\n      sub\n      dup2\n      mstore\n      swap1\n      0x40\n      mstore\n        /* \"contracts/LunchVenue_updated.sol\":6390:6423  keccak256(abi.encodePacked(name)) */\n      dup1\n      mload\n      swap1\n      0x20\n      add\n      keccak256\n        /* \"contracts/LunchVenue_updated.sol\":6370:6381  restaurants */\n      0x01\n        /* \"contracts/LunchVenue_updated.sol\":6370:6384  restaurants[i] */\n      0x00\n        /* \"contracts/LunchVenue_updated.sol\":6382:6383  i */\n      dup4\n        /* \"contracts/LunchVenue_updated.sol\":6370:6384  restaurants[i] */\n      0xff\n      and\n      0xff\n      and\n      dup2\n      mstore\n      0x20\n      add\n      swap1\n      dup2\n      mstore\n      0x20\n      add\n      0x00\n      keccak256\n        /* \"contracts/LunchVenue_updated.sol\":6353:6385  abi.encodePacked(restaurants[i]) */\n      add(0x20, mload(0x40))\n      tag_153\n      swap2\n      swap1\n      tag_154\n      jump\t// in\n    tag_153:\n      mload(0x40)\n      0x20\n      dup2\n      dup4\n      sub\n      sub\n      dup2\n      mstore\n      swap1\n      0x40\n      mstore\n        /* \"contracts/LunchVenue_updated.sol\":6343:6386  keccak256(abi.encodePacked(restaurants[i])) */\n      dup1\n      mload\n      swap1\n      0x20\n      add\n      keccak256\n        /* \"contracts/LunchVenue_updated.sol\":6343:6423  keccak256(abi.encodePacked(restaurants[i])) == keccak256(abi.encodePacked(name)) */\n      eq\n        /* \"contracts/LunchVenue_updated.sol\":6339:6632  if (keccak256(abi.encodePacked(restaurants[i])) == keccak256(abi.encodePacked(name))) { //compare the strings (names of the restaurants) using keccak156 function... */\n      iszero\n      tag_155\n      jumpi\n        /* \"contracts/LunchVenue_updated.sol\":6536:6540  true */\n      0x01\n        /* \"contracts/LunchVenue_updated.sol\":6517:6540  restaurantExists = true */\n      swap2\n      pop\n        /* \"contracts/LunchVenue_updated.sol\":6558:6563  break */\n      jump(tag_149)\n        /* \"contracts/LunchVenue_updated.sol\":6339:6632  if (keccak256(abi.encodePacked(restaurants[i])) == keccak256(abi.encodePacked(name))) { //compare the strings (names of the restaurants) using keccak156 function... */\n    tag_155:\n        /* \"contracts/LunchVenue_updated.sol\":6276:6279  i++ */\n      dup1\n      dup1\n      tag_156\n      swap1\n      tag_125\n      jump\t// in\n    tag_156:\n      swap2\n      pop\n      pop\n        /* \"contracts/LunchVenue_updated.sol\":6237:6642  for (uint8 i = 1; i <= numRestaurants; i++) { //iterate over every restaurant in the list... */\n      jump(tag_148)\n    tag_149:\n      pop\n        /* \"contracts/LunchVenue_updated.sol\":6660:6676  restaurantExists */\n      dup1\n        /* \"contracts/LunchVenue_updated.sol\":6659:6676  !restaurantExists */\n      iszero\n        /* \"contracts/LunchVenue_updated.sol\":6651:6707  require(!restaurantExists, \"Restaurant already exists.\") */\n      tag_157\n      jumpi\n      mload(0x40)\n      0x08c379a000000000000000000000000000000000000000000000000000000000\n      dup2\n      mstore\n      0x04\n      add\n      tag_158\n      swap1\n      tag_159\n      jump\t// in\n    tag_158:\n      mload(0x40)\n      dup1\n      swap2\n      sub\n      swap1\n      revert\n    tag_157:\n        /* \"contracts/LunchVenue_updated.sol\":2602:2614  Stage.CREATE */\n      0x00\n        /* \"contracts/LunchVenue_updated.sol\":7092:7097  stage */\n      dup1\n        /* \"contracts/LunchVenue_updated.sol\":7076:7097  currentStage == stage */\n      0x02\n      dup2\n      gt\n      iszero\n      tag_161\n      jumpi\n      tag_162\n      tag_111\n      jump\t// in\n    tag_162:\n    tag_161:\n        /* \"contracts/LunchVenue_updated.sol\":7076:7088  currentStage */\n      0x00\n      dup1\n      sload\n      swap1\n      0x0100\n      exp\n      swap1\n      div\n      0xff\n      and\n        /* \"contracts/LunchVenue_updated.sol\":7076:7097  currentStage == stage */\n      0x02\n      dup2\n      gt\n      iszero\n      tag_163\n      jumpi\n      tag_164\n      tag_111\n      jump\t// in\n    tag_164:\n    tag_163:\n      eq\n        /* \"contracts/LunchVenue_updated.sol\":7068:7143  require(currentStage == stage, \"Function can not be called in this stage.\") */\n      tag_165\n      jumpi\n      mload(0x40)\n      0x08c379a000000000000000000000000000000000000000000000000000000000\n      dup2\n      mstore\n      0x04\n      add\n      tag_166\n      swap1\n      tag_116\n      jump\t// in\n    tag_166:\n      mload(0x40)\n      dup1\n      swap2\n      sub\n      swap1\n      revert\n    tag_165:\n        /* \"contracts/LunchVenue_updated.sol\":7589:7596  stopped */\n      0x07\n      0x00\n      swap1\n      sload\n      swap1\n      0x0100\n      exp\n      swap1\n      div\n      0xff\n      and\n        /* \"contracts/LunchVenue_updated.sol\":7588:7596  !stopped */\n      iszero\n        /* \"contracts/LunchVenue_updated.sol\":7580:7621  require(!stopped, \"Contract is stopped.\") */\n      tag_168\n      jumpi\n      mload(0x40)\n      0x08c379a000000000000000000000000000000000000000000000000000000000\n      dup2\n      mstore\n      0x04\n      add\n      tag_169\n      swap1\n      tag_120\n      jump\t// in\n    tag_169:\n      mload(0x40)\n      dup1\n      swap2\n      sub\n      swap1\n      revert\n    tag_168:\n        /* \"contracts/LunchVenue_updated.sol\":2656:2670  numRestaurants */\n      0x03\n      0x00\n        /* \"contracts/LunchVenue_updated.sol\":2656:2672  numRestaurants++ */\n      dup2\n      dup2\n      swap1\n      sload\n      swap1\n      0x0100\n      exp\n      swap1\n      div\n      0xff\n      and\n      dup1\n      swap3\n      swap2\n      swap1\n      tag_171\n      swap1\n      tag_125\n      jump\t// in\n    tag_171:\n      swap2\n      swap1\n      0x0100\n      exp\n      dup2\n      sload\n      dup2\n      0xff\n      mul\n      not\n      and\n      swap1\n      dup4\n      0xff\n      and\n      mul\n      or\n      swap1\n      sstore\n      pop\n      pop\n        /* \"contracts/LunchVenue_updated.sol\":2712:2716  name */\n      dup5\n        /* \"contracts/LunchVenue_updated.sol\":2682:2693  restaurants */\n      0x01\n        /* \"contracts/LunchVenue_updated.sol\":2682:2709  restaurants[numRestaurants] */\n      0x00\n        /* \"contracts/LunchVenue_updated.sol\":2694:2708  numRestaurants */\n      0x03\n      0x00\n      swap1\n      sload\n      swap1\n      0x0100\n      exp\n      swap1\n      div\n      0xff\n      and\n        /* \"contracts/LunchVenue_updated.sol\":2682:2709  restaurants[numRestaurants] */\n      0xff\n      and\n      0xff\n      and\n      dup2\n      mstore\n      0x20\n      add\n      swap1\n      dup2\n      mstore\n      0x20\n      add\n      0x00\n      keccak256\n        /* \"contracts/LunchVenue_updated.sol\":2682:2716  restaurants[numRestaurants] = name */\n      swap1\n      dup1\n      mload\n      swap1\n      0x20\n      add\n      swap1\n      tag_172\n      swap3\n      swap2\n      swap1\n      tag_123\n      jump\t// in\n    tag_172:\n      pop\n        /* \"contracts/LunchVenue_updated.sol\":2733:2747  numRestaurants */\n      0x03\n      0x00\n      swap1\n      sload\n      swap1\n      0x0100\n      exp\n      swap1\n      div\n      0xff\n      and\n        /* \"contracts/LunchVenue_updated.sol\":2726:2747  return numRestaurants */\n      swap4\n      pop\n        /* \"contracts/LunchVenue_updated.sol\":6717:6718  _ */\n      pop\n        /* \"contracts/LunchVenue_updated.sol\":6187:6726  {... */\n      pop\n        /* \"contracts/LunchVenue_updated.sol\":5821:5822  _ */\n      pop\n        /* \"contracts/LunchVenue_updated.sol\":2503:2754  function addRestaurant(string memory name) public restricted restaurantAlreadyExists(name) inStage(Stage.CREATE) whenNotStopped returns (uint8){... */\n      swap2\n      swap1\n      pop\n      jump\t// out\n        /* \"contracts/LunchVenue_updated.sol\":2098:2220  function setStopped() public restricted { //Only the manager can start/stop the contract... */\n    tag_60:\n        /* \"contracts/LunchVenue_updated.sol\":5616:5623  manager */\n      immutable(\"0x6bcaf047ba4c8ac400fca43393035242dd1aabda2d6068a0c51242b97224de8d\")\n        /* \"contracts/LunchVenue_updated.sol\":5603:5623  tx.origin == manager */\n      0xffffffffffffffffffffffffffffffffffffffff\n      and\n        /* \"contracts/LunchVenue_updated.sol\":5603:5612  tx.origin */\n      origin\n        /* \"contracts/LunchVenue_updated.sol\":5603:5623  tx.origin == manager */\n      0xffffffffffffffffffffffffffffffffffffffff\n      and\n      eq\n        /* \"contracts/LunchVenue_updated.sol\":5603:5648  tx.origin == manager || msg.sender == manager */\n      dup1\n      tag_174\n      jumpi\n      pop\n        /* \"contracts/LunchVenue_updated.sol\":5641:5648  manager */\n      immutable(\"0x6bcaf047ba4c8ac400fca43393035242dd1aabda2d6068a0c51242b97224de8d\")\n        /* \"contracts/LunchVenue_updated.sol\":5627:5648  msg.sender == manager */\n      0xffffffffffffffffffffffffffffffffffffffff\n      and\n        /* \"contracts/LunchVenue_updated.sol\":5627:5637  msg.sender */\n      caller\n        /* \"contracts/LunchVenue_updated.sol\":5627:5648  msg.sender == manager */\n      0xffffffffffffffffffffffffffffffffffffffff\n      and\n      eq\n        /* \"contracts/LunchVenue_updated.sol\":5603:5648  tx.origin == manager || msg.sender == manager */\n    tag_174:\n        /* \"contracts/LunchVenue_updated.sol\":5594:5688  require (tx.origin == manager || msg.sender == manager, \"Can only be executed by the manager\") */\n      tag_175\n      jumpi\n      mload(0x40)\n      0x08c379a000000000000000000000000000000000000000000000000000000000\n      dup2\n      mstore\n      0x04\n      add\n      tag_176\n      swap1\n      tag_102\n      jump\t// in\n    tag_176:\n      mload(0x40)\n      dup1\n      swap2\n      sub\n      swap1\n      revert\n    tag_175:\n        /* \"contracts/LunchVenue_updated.sol\":2206:2213  stopped */\n      0x07\n      0x00\n      swap1\n      sload\n      swap1\n      0x0100\n      exp\n      swap1\n      div\n      0xff\n      and\n        /* \"contracts/LunchVenue_updated.sol\":2205:2213  !stopped */\n      iszero\n        /* \"contracts/LunchVenue_updated.sol\":2195:2202  stopped */\n      0x07\n      0x00\n        /* \"contracts/LunchVenue_updated.sol\":2195:2213  stopped = !stopped */\n      0x0100\n      exp\n      dup2\n      sload\n      dup2\n      0xff\n      mul\n      not\n      and\n      swap1\n      dup4\n      iszero\n      iszero\n      mul\n      or\n      swap1\n      sstore\n      pop\n        /* \"contracts/LunchVenue_updated.sol\":2098:2220  function setStopped() public restricted { //Only the manager can start/stop the contract... */\n      jump\t// out\n        /* \"contracts/LunchVenue_updated.sol\":1190:1217  bool public stopped = false */\n    tag_62:\n      0x07\n      0x00\n      swap1\n      sload\n      swap1\n      0x0100\n      exp\n      swap1\n      div\n      0xff\n      and\n      dup2\n      jump\t// out\n        /* \"contracts/LunchVenue_updated.sol\":805:830  uint8 public numVotes = 0 */\n    tag_66:\n      0x03\n      0x02\n      swap1\n      sload\n      swap1\n      0x0100\n      exp\n      swap1\n      div\n      0xff\n      and\n      dup2\n      jump\t// out\n        /* \"contracts/LunchVenue_updated.sol\":735:766  uint8 public numRestaurants = 0 */\n    tag_69:\n      0x03\n      0x00\n      swap1\n      sload\n      swap1\n      0x0100\n      exp\n      swap1\n      div\n      0xff\n      and\n      dup2\n      jump\t// out\n        /* \"contracts/LunchVenue_updated.sol\":1865:2019  function endVote() public restricted quorumIsMet inStage(Stage.VOTE_CLOSED) whenNotStopped { //only end it when quorum is met... */\n    tag_72:\n        /* \"contracts/LunchVenue_updated.sol\":5616:5623  manager */\n      immutable(\"0x6bcaf047ba4c8ac400fca43393035242dd1aabda2d6068a0c51242b97224de8d\")\n        /* \"contracts/LunchVenue_updated.sol\":5603:5623  tx.origin == manager */\n      0xffffffffffffffffffffffffffffffffffffffff\n      and\n        /* \"contracts/LunchVenue_updated.sol\":5603:5612  tx.origin */\n      origin\n        /* \"contracts/LunchVenue_updated.sol\":5603:5623  tx.origin == manager */\n      0xffffffffffffffffffffffffffffffffffffffff\n      and\n      eq\n        /* \"contracts/LunchVenue_updated.sol\":5603:5648  tx.origin == manager || msg.sender == manager */\n      dup1\n      tag_179\n      jumpi\n      pop\n        /* \"contracts/LunchVenue_updated.sol\":5641:5648  manager */\n      immutable(\"0x6bcaf047ba4c8ac400fca43393035242dd1aabda2d6068a0c51242b97224de8d\")\n        /* \"contracts/LunchVenue_updated.sol\":5627:5648  msg.sender == manager */\n      0xffffffffffffffffffffffffffffffffffffffff\n      and\n        /* \"contracts/LunchVenue_updated.sol\":5627:5637  msg.sender */\n      caller\n        /* \"contracts/LunchVenue_updated.sol\":5627:5648  msg.sender == manager */\n      0xffffffffffffffffffffffffffffffffffffffff\n      and\n      eq\n        /* \"contracts/LunchVenue_updated.sol\":5603:5648  tx.origin == manager || msg.sender == manager */\n    tag_179:\n        /* \"contracts/LunchVenue_updated.sol\":5594:5688  require (tx.origin == manager || msg.sender == manager, \"Can only be executed by the manager\") */\n      tag_180\n      jumpi\n      mload(0x40)\n      0x08c379a000000000000000000000000000000000000000000000000000000000\n      dup2\n      mstore\n      0x04\n      add\n      tag_181\n      swap1\n      tag_102\n      jump\t// in\n    tag_181:\n      mload(0x40)\n      dup1\n      swap2\n      sub\n      swap1\n      revert\n    tag_180:\n        /* \"contracts/LunchVenue_updated.sol\":7260:7271  bool quorum */\n      0x00\n        /* \"contracts/LunchVenue_updated.sol\":7320:7321  1 */\n      0x01\n        /* \"contracts/LunchVenue_updated.sol\":7316:7317  2 */\n      0x02\n        /* \"contracts/LunchVenue_updated.sol\":7305:7315  numFriends */\n      0x03\n      0x01\n      swap1\n      sload\n      swap1\n      0x0100\n      exp\n      swap1\n      div\n      0xff\n      and\n        /* \"contracts/LunchVenue_updated.sol\":7305:7317  numFriends/2 */\n      tag_183\n      swap2\n      swap1\n      tag_184\n      jump\t// in\n    tag_183:\n        /* \"contracts/LunchVenue_updated.sol\":7305:7321  numFriends/2 + 1 */\n      tag_185\n      swap2\n      swap1\n      tag_186\n      jump\t// in\n    tag_185:\n        /* \"contracts/LunchVenue_updated.sol\":7293:7321  numVotes >= numFriends/2 + 1 */\n      0xff\n      and\n        /* \"contracts/LunchVenue_updated.sol\":7293:7301  numVotes */\n      0x03\n      0x02\n      swap1\n      sload\n      swap1\n      0x0100\n      exp\n      swap1\n      div\n      0xff\n      and\n        /* \"contracts/LunchVenue_updated.sol\":7293:7321  numVotes >= numFriends/2 + 1 */\n      0xff\n      and\n      lt\n        /* \"contracts/LunchVenue_updated.sol\":7289:7377  if (numVotes >= numFriends/2 + 1) { //Quorum is met... */\n      tag_187\n      jumpi\n        /* \"contracts/LunchVenue_updated.sol\":7362:7366  true */\n      0x01\n        /* \"contracts/LunchVenue_updated.sol\":7353:7366  quorum = true */\n      swap1\n      pop\n        /* \"contracts/LunchVenue_updated.sol\":7289:7377  if (numVotes >= numFriends/2 + 1) { //Quorum is met... */\n    tag_187:\n        /* \"contracts/LunchVenue_updated.sol\":7394:7400  quorum */\n      dup1\n        /* \"contracts/LunchVenue_updated.sol\":7386:7443  require(quorum, \"Voting quorum is not met. Keep voting.\") */\n      tag_188\n      jumpi\n      mload(0x40)\n      0x08c379a000000000000000000000000000000000000000000000000000000000\n      dup2\n      mstore\n      0x04\n      add\n      tag_189\n      swap1\n      tag_190\n      jump\t// in\n    tag_189:\n      mload(0x40)\n      dup1\n      swap2\n      sub\n      swap1\n      revert\n    tag_188:\n        /* \"contracts/LunchVenue_updated.sol\":1922:1939  Stage.VOTE_CLOSED */\n      0x02\n        /* \"contracts/LunchVenue_updated.sol\":7092:7097  stage */\n      dup1\n        /* \"contracts/LunchVenue_updated.sol\":7076:7097  currentStage == stage */\n      0x02\n      dup2\n      gt\n      iszero\n      tag_192\n      jumpi\n      tag_193\n      tag_111\n      jump\t// in\n    tag_193:\n    tag_192:\n        /* \"contracts/LunchVenue_updated.sol\":7076:7088  currentStage */\n      0x00\n      dup1\n      sload\n      swap1\n      0x0100\n      exp\n      swap1\n      div\n      0xff\n      and\n        /* \"contracts/LunchVenue_updated.sol\":7076:7097  currentStage == stage */\n      0x02\n      dup2\n      gt\n      iszero\n      tag_194\n      jumpi\n      tag_195\n      tag_111\n      jump\t// in\n    tag_195:\n    tag_194:\n      eq\n        /* \"contracts/LunchVenue_updated.sol\":7068:7143  require(currentStage == stage, \"Function can not be called in this stage.\") */\n      tag_196\n      jumpi\n      mload(0x40)\n      0x08c379a000000000000000000000000000000000000000000000000000000000\n      dup2\n      mstore\n      0x04\n      add\n      tag_197\n      swap1\n      tag_116\n      jump\t// in\n    tag_197:\n      mload(0x40)\n      dup1\n      swap2\n      sub\n      swap1\n      revert\n    tag_196:\n        /* \"contracts/LunchVenue_updated.sol\":7589:7596  stopped */\n      0x07\n      0x00\n      swap1\n      sload\n      swap1\n      0x0100\n      exp\n      swap1\n      div\n      0xff\n      and\n        /* \"contracts/LunchVenue_updated.sol\":7588:7596  !stopped */\n      iszero\n        /* \"contracts/LunchVenue_updated.sol\":7580:7621  require(!stopped, \"Contract is stopped.\") */\n      tag_199\n      jumpi\n      mload(0x40)\n      0x08c379a000000000000000000000000000000000000000000000000000000000\n      dup2\n      mstore\n      0x04\n      add\n      tag_200\n      swap1\n      tag_120\n      jump\t// in\n    tag_200:\n      mload(0x40)\n      dup1\n      swap2\n      sub\n      swap1\n      revert\n    tag_199:\n        /* \"contracts/LunchVenue_updated.sol\":1999:2012  finalResult() */\n      tag_202\n        /* \"contracts/LunchVenue_updated.sol\":1999:2010  finalResult */\n      tag_203\n        /* \"contracts/LunchVenue_updated.sol\":1999:2012  finalResult() */\n      jump\t// in\n    tag_202:\n        /* \"contracts/LunchVenue_updated.sol\":7453:7454  _ */\n      pop\n        /* \"contracts/LunchVenue_updated.sol\":7250:7461  {... */\n      pop\n        /* \"contracts/LunchVenue_updated.sol\":1865:2019  function endVote() public restricted quorumIsMet inStage(Stage.VOTE_CLOSED) whenNotStopped { //only end it when quorum is met... */\n      jump\t// out\n        /* \"contracts/LunchVenue_updated.sol\":1008:1044  mapping (uint8 => Vote) public votes */\n    tag_75:\n      mstore(0x20, 0x05)\n      dup1\n      0x00\n      mstore\n      keccak256(0x00, 0x40)\n      0x00\n      swap2\n      pop\n      swap1\n      pop\n      dup1\n      0x00\n      add\n      0x00\n      swap1\n      sload\n      swap1\n      0x0100\n      exp\n      swap1\n      div\n      0xffffffffffffffffffffffffffffffffffffffff\n      and\n      swap1\n      dup1\n      0x00\n      add\n      0x14\n      swap1\n      sload\n      swap1\n      0x0100\n      exp\n      swap1\n      div\n      0xff\n      and\n      swap1\n      pop\n      dup3\n      jump\t// out\n        /* \"contracts/LunchVenue_updated.sol\":937:971  string public votedRestaurant = \"\" */\n    tag_79:\n      0x04\n      dup1\n      sload\n      tag_204\n      swap1\n      tag_88\n      jump\t// in\n    tag_204:\n      dup1\n      0x1f\n      add\n      0x20\n      dup1\n      swap2\n      div\n      mul\n      0x20\n      add\n      mload(0x40)\n      swap1\n      dup2\n      add\n      0x40\n      mstore\n      dup1\n      swap3\n      swap2\n      swap1\n      dup2\n      dup2\n      mstore\n      0x20\n      add\n      dup3\n      dup1\n      sload\n      tag_205\n      swap1\n      tag_88\n      jump\t// in\n    tag_205:\n      dup1\n      iszero\n      tag_206\n      jumpi\n      dup1\n      0x1f\n      lt\n      tag_207\n      jumpi\n      0x0100\n      dup1\n      dup4\n      sload\n      div\n      mul\n      dup4\n      mstore\n      swap2\n      0x20\n      add\n      swap2\n      jump(tag_206)\n    tag_207:\n      dup3\n      add\n      swap2\n      swap1\n      0x00\n      mstore\n      keccak256(0x00, 0x20)\n      swap1\n    tag_208:\n      dup2\n      sload\n      dup2\n      mstore\n      swap1\n      0x01\n      add\n      swap1\n      0x20\n      add\n      dup1\n      dup4\n      gt\n      tag_208\n      jumpi\n      dup3\n      swap1\n      sub\n      0x1f\n      and\n      dup3\n      add\n      swap2\n    tag_206:\n      pop\n      pop\n      pop\n      pop\n      pop\n      dup2\n      jump\t// out\n        /* \"contracts/LunchVenue_updated.sol\":3783:4653  function doVote(uint8 restaurant) public votedAlready(msg.sender) inStage(Stage.VOTE_OPEN) whenNotStopped returns (bool validVote){... */\n    tag_83:\n        /* \"contracts/LunchVenue_updated.sol\":3898:3912  bool validVote */\n      0x00\n        /* \"contracts/LunchVenue_updated.sol\":3837:3847  msg.sender */\n      caller\n        /* \"contracts/LunchVenue_updated.sol\":5980:5985  false */\n      0x00\n        /* \"contracts/LunchVenue_updated.sol\":5948:5985  friends[friendAddress].voted == false */\n      iszero\n      iszero\n        /* \"contracts/LunchVenue_updated.sol\":5948:5955  friends */\n      0x02\n        /* \"contracts/LunchVenue_updated.sol\":5948:5970  friends[friendAddress] */\n      0x00\n        /* \"contracts/LunchVenue_updated.sol\":5956:5969  friendAddress */\n      dup4\n        /* \"contracts/LunchVenue_updated.sol\":5948:5970  friends[friendAddress] */\n      0xffffffffffffffffffffffffffffffffffffffff\n      and\n      0xffffffffffffffffffffffffffffffffffffffff\n      and\n      dup2\n      mstore\n      0x20\n      add\n      swap1\n      dup2\n      mstore\n      0x20\n      add\n      0x00\n      keccak256\n        /* \"contracts/LunchVenue_updated.sol\":5948:5976  friends[friendAddress].voted */\n      0x01\n      add\n      0x00\n      swap1\n      sload\n      swap1\n      0x0100\n      exp\n      swap1\n      div\n      0xff\n      and\n        /* \"contracts/LunchVenue_updated.sol\":5948:5985  friends[friendAddress].voted == false */\n      iszero\n      iszero\n      eq\n        /* \"contracts/LunchVenue_updated.sol\":5940:6009  require(friends[friendAddress].voted == false, \"Can only vote once.\") */\n      tag_210\n      jumpi\n      mload(0x40)\n      0x08c379a000000000000000000000000000000000000000000000000000000000\n      dup2\n      mstore\n      0x04\n      add\n      tag_211\n      swap1\n      tag_212\n      jump\t// in\n    tag_211:\n      mload(0x40)\n      dup1\n      swap2\n      sub\n      swap1\n      revert\n    tag_210:\n        /* \"contracts/LunchVenue_updated.sol\":3857:3872  Stage.VOTE_OPEN */\n      0x01\n        /* \"contracts/LunchVenue_updated.sol\":7092:7097  stage */\n      dup1\n        /* \"contracts/LunchVenue_updated.sol\":7076:7097  currentStage == stage */\n      0x02\n      dup2\n      gt\n      iszero\n      tag_214\n      jumpi\n      tag_215\n      tag_111\n      jump\t// in\n    tag_215:\n    tag_214:\n        /* \"contracts/LunchVenue_updated.sol\":7076:7088  currentStage */\n      0x00\n      dup1\n      sload\n      swap1\n      0x0100\n      exp\n      swap1\n      div\n      0xff\n      and\n        /* \"contracts/LunchVenue_updated.sol\":7076:7097  currentStage == stage */\n      0x02\n      dup2\n      gt\n      iszero\n      tag_216\n      jumpi\n      tag_217\n      tag_111\n      jump\t// in\n    tag_217:\n    tag_216:\n      eq\n        /* \"contracts/LunchVenue_updated.sol\":7068:7143  require(currentStage == stage, \"Function can not be called in this stage.\") */\n      tag_218\n      jumpi\n      mload(0x40)\n      0x08c379a000000000000000000000000000000000000000000000000000000000\n      dup2\n      mstore\n      0x04\n      add\n      tag_219\n      swap1\n      tag_116\n      jump\t// in\n    tag_219:\n      mload(0x40)\n      dup1\n      swap2\n      sub\n      swap1\n      revert\n    tag_218:\n        /* \"contracts/LunchVenue_updated.sol\":7589:7596  stopped */\n      0x07\n      0x00\n      swap1\n      sload\n      swap1\n      0x0100\n      exp\n      swap1\n      div\n      0xff\n      and\n        /* \"contracts/LunchVenue_updated.sol\":7588:7596  !stopped */\n      iszero\n        /* \"contracts/LunchVenue_updated.sol\":7580:7621  require(!stopped, \"Contract is stopped.\") */\n      tag_221\n      jumpi\n      mload(0x40)\n      0x08c379a000000000000000000000000000000000000000000000000000000000\n      dup2\n      mstore\n      0x04\n      add\n      tag_222\n      swap1\n      tag_120\n      jump\t// in\n    tag_222:\n      mload(0x40)\n      dup1\n      swap2\n      sub\n      swap1\n      revert\n    tag_221:\n        /* \"contracts/LunchVenue_updated.sol\":3935:3940  false */\n      0x00\n        /* \"contracts/LunchVenue_updated.sol\":3923:3940  validVote = false */\n      swap3\n      pop\n        /* \"contracts/LunchVenue_updated.sol\":4050:4051  0 */\n      0x00\n        /* \"contracts/LunchVenue_updated.sol\":4014:4021  friends */\n      0x02\n        /* \"contracts/LunchVenue_updated.sol\":4014:4033  friends[msg.sender] */\n      0x00\n        /* \"contracts/LunchVenue_updated.sol\":4022:4032  msg.sender */\n      caller\n        /* \"contracts/LunchVenue_updated.sol\":4014:4033  friends[msg.sender] */\n      0xffffffffffffffffffffffffffffffffffffffff\n      and\n      0xffffffffffffffffffffffffffffffffffffffff\n      and\n      dup2\n      mstore\n      0x20\n      add\n      swap1\n      dup2\n      mstore\n      0x20\n      add\n      0x00\n      keccak256\n        /* \"contracts/LunchVenue_updated.sol\":4014:4038  friends[msg.sender].name */\n      0x00\n      add\n        /* \"contracts/LunchVenue_updated.sol\":4008:4046  bytes(friends[msg.sender].name).length */\n      dup1\n      sload\n      tag_224\n      swap1\n      tag_88\n      jump\t// in\n    tag_224:\n      swap1\n      pop\n        /* \"contracts/LunchVenue_updated.sol\":4008:4051  bytes(friends[msg.sender].name).length != 0 */\n      eq\n        /* \"contracts/LunchVenue_updated.sol\":4004:4409  if (bytes(friends[msg.sender].name).length != 0) {  //Does friend exist?... */\n      tag_225\n      jumpi\n        /* \"contracts/LunchVenue_updated.sol\":4134:4135  0 */\n      0x00\n        /* \"contracts/LunchVenue_updated.sol\":4099:4110  restaurants */\n      0x01\n        /* \"contracts/LunchVenue_updated.sol\":4099:4122  restaurants[restaurant] */\n      0x00\n        /* \"contracts/LunchVenue_updated.sol\":4111:4121  restaurant */\n      dup7\n        /* \"contracts/LunchVenue_updated.sol\":4099:4122  restaurants[restaurant] */\n      0xff\n      and\n      0xff\n      and\n      dup2\n      mstore\n      0x20\n      add\n      swap1\n      dup2\n      mstore\n      0x20\n      add\n      0x00\n      keccak256\n        /* \"contracts/LunchVenue_updated.sol\":4093:4130  bytes(restaurants[restaurant]).length */\n      dup1\n      sload\n      tag_226\n      swap1\n      tag_88\n      jump\t// in\n    tag_226:\n      swap1\n      pop\n        /* \"contracts/LunchVenue_updated.sol\":4093:4135  bytes(restaurants[restaurant]).length != 0 */\n      eq\n        /* \"contracts/LunchVenue_updated.sol\":4089:4399  if (bytes(restaurants[restaurant]).length != 0) {   //Does restaurant exist?... */\n      tag_227\n      jumpi\n        /* \"contracts/LunchVenue_updated.sol\":4194:4198  true */\n      0x01\n        /* \"contracts/LunchVenue_updated.sol\":4182:4198  validVote = true */\n      swap3\n      pop\n        /* \"contracts/LunchVenue_updated.sol\":4244:4248  true */\n      0x01\n        /* \"contracts/LunchVenue_updated.sol\":4216:4223  friends */\n      0x02\n        /* \"contracts/LunchVenue_updated.sol\":4216:4235  friends[msg.sender] */\n      0x00\n        /* \"contracts/LunchVenue_updated.sol\":4224:4234  msg.sender */\n      caller\n        /* \"contracts/LunchVenue_updated.sol\":4216:4235  friends[msg.sender] */\n      0xffffffffffffffffffffffffffffffffffffffff\n      and\n      0xffffffffffffffffffffffffffffffffffffffff\n      and\n      dup2\n      mstore\n      0x20\n      add\n      swap1\n      dup2\n      mstore\n      0x20\n      add\n      0x00\n      keccak256\n        /* \"contracts/LunchVenue_updated.sol\":4216:4241  friends[msg.sender].voted */\n      0x01\n      add\n      0x00\n        /* \"contracts/LunchVenue_updated.sol\":4216:4248  friends[msg.sender].voted = true */\n      0x0100\n      exp\n      dup2\n      sload\n      dup2\n      0xff\n      mul\n      not\n      and\n      swap1\n      dup4\n      iszero\n      iszero\n      mul\n      or\n      swap1\n      sstore\n      pop\n        /* \"contracts/LunchVenue_updated.sol\":4266:4274  numVotes */\n      0x03\n      0x02\n        /* \"contracts/LunchVenue_updated.sol\":4266:4276  numVotes++ */\n      dup2\n      dup2\n      swap1\n      sload\n      swap1\n      0x0100\n      exp\n      swap1\n      div\n      0xff\n      and\n      dup1\n      swap3\n      swap2\n      swap1\n      tag_228\n      swap1\n      tag_125\n      jump\t// in\n    tag_228:\n      swap2\n      swap1\n      0x0100\n      exp\n      dup2\n      sload\n      dup2\n      0xff\n      mul\n      not\n      and\n      swap1\n      dup4\n      0xff\n      and\n      mul\n      or\n      swap1\n      sstore\n      pop\n      pop\n        /* \"contracts/LunchVenue_updated.sol\":4312:4340  Vote(msg.sender, restaurant) */\n      mload(0x40)\n      dup1\n      0x40\n      add\n      0x40\n      mstore\n      dup1\n        /* \"contracts/LunchVenue_updated.sol\":4317:4327  msg.sender */\n      caller\n        /* \"contracts/LunchVenue_updated.sol\":4312:4340  Vote(msg.sender, restaurant) */\n      0xffffffffffffffffffffffffffffffffffffffff\n      and\n      dup2\n      mstore\n      0x20\n      add\n        /* \"contracts/LunchVenue_updated.sol\":4329:4339  restaurant */\n      dup6\n        /* \"contracts/LunchVenue_updated.sol\":4312:4340  Vote(msg.sender, restaurant) */\n      0xff\n      and\n      dup2\n      mstore\n      pop\n        /* \"contracts/LunchVenue_updated.sol\":4294:4299  votes */\n      0x05\n        /* \"contracts/LunchVenue_updated.sol\":4294:4309  votes[numVotes] */\n      0x00\n        /* \"contracts/LunchVenue_updated.sol\":4300:4308  numVotes */\n      0x03\n      0x02\n      swap1\n      sload\n      swap1\n      0x0100\n      exp\n      swap1\n      div\n      0xff\n      and\n        /* \"contracts/LunchVenue_updated.sol\":4294:4309  votes[numVotes] */\n      0xff\n      and\n      0xff\n      and\n      dup2\n      mstore\n      0x20\n      add\n      swap1\n      dup2\n      mstore\n      0x20\n      add\n      0x00\n      keccak256\n        /* \"contracts/LunchVenue_updated.sol\":4294:4340  votes[numVotes] = Vote(msg.sender, restaurant) */\n      0x00\n      dup3\n      add\n      mload\n      dup2\n      0x00\n      add\n      exp(0x0100, 0x00)\n      dup2\n      sload\n      dup2\n      0xffffffffffffffffffffffffffffffffffffffff\n      mul\n      not\n      and\n      swap1\n      dup4\n      0xffffffffffffffffffffffffffffffffffffffff\n      and\n      mul\n      or\n      swap1\n      sstore\n      pop\n      0x20\n      dup3\n      add\n      mload\n      dup2\n      0x00\n      add\n      exp(0x0100, 0x14)\n      dup2\n      sload\n      dup2\n      0xff\n      mul\n      not\n      and\n      swap1\n      dup4\n      0xff\n      and\n      mul\n      or\n      swap1\n      sstore\n      pop\n      swap1\n      pop\n      pop\n        /* \"contracts/LunchVenue_updated.sol\":4089:4399  if (bytes(restaurants[restaurant]).length != 0) {   //Does restaurant exist?... */\n    tag_227:\n        /* \"contracts/LunchVenue_updated.sol\":4004:4409  if (bytes(friends[msg.sender].name).length != 0) {  //Does friend exist?... */\n    tag_225:\n        /* \"contracts/LunchVenue_updated.sol\":4458:4459  1 */\n      0x01\n        /* \"contracts/LunchVenue_updated.sol\":4454:4455  2 */\n      0x02\n        /* \"contracts/LunchVenue_updated.sol\":4443:4453  numFriends */\n      0x03\n      0x01\n      swap1\n      sload\n      swap1\n      0x0100\n      exp\n      swap1\n      div\n      0xff\n      and\n        /* \"contracts/LunchVenue_updated.sol\":4443:4455  numFriends/2 */\n      tag_229\n      swap2\n      swap1\n      tag_184\n      jump\t// in\n    tag_229:\n        /* \"contracts/LunchVenue_updated.sol\":4443:4459  numFriends/2 + 1 */\n      tag_230\n      swap2\n      swap1\n      tag_186\n      jump\t// in\n    tag_230:\n        /* \"contracts/LunchVenue_updated.sol\":4431:4459  numVotes >= numFriends/2 + 1 */\n      0xff\n      and\n        /* \"contracts/LunchVenue_updated.sol\":4431:4439  numVotes */\n      0x03\n      0x02\n      swap1\n      sload\n      swap1\n      0x0100\n      exp\n      swap1\n      div\n      0xff\n      and\n        /* \"contracts/LunchVenue_updated.sol\":4431:4459  numVotes >= numFriends/2 + 1 */\n      0xff\n      and\n      lt\n        /* \"contracts/LunchVenue_updated.sol\":4427:4612  if (numVotes >= numFriends/2 + 1) { //Quorum is met... */\n      tag_231\n      jumpi\n        /* \"contracts/LunchVenue_updated.sol\":4506:4523  Stage.VOTE_CLOSED */\n      0x02\n        /* \"contracts/LunchVenue_updated.sol\":4491:4503  currentStage */\n      0x00\n      dup1\n        /* \"contracts/LunchVenue_updated.sol\":4491:4523  currentStage = Stage.VOTE_CLOSED */\n      0x0100\n      exp\n      dup2\n      sload\n      dup2\n      0xff\n      mul\n      not\n      and\n      swap1\n      dup4\n      0x02\n      dup2\n      gt\n      iszero\n      tag_232\n      jumpi\n      tag_233\n      tag_111\n      jump\t// in\n    tag_233:\n    tag_232:\n      mul\n      or\n      swap1\n      sstore\n      pop\n        /* \"contracts/LunchVenue_updated.sol\":4427:4612  if (numVotes >= numFriends/2 + 1) { //Quorum is met... */\n    tag_231:\n        /* \"contracts/LunchVenue_updated.sol\":6063:6064  _ */\n      pop\n        /* \"contracts/LunchVenue_updated.sol\":3783:4653  function doVote(uint8 restaurant) public votedAlready(msg.sender) inStage(Stage.VOTE_OPEN) whenNotStopped returns (bool validVote){... */\n      pop\n      swap2\n      swap1\n      pop\n      jump\t// out\n        /* \"contracts/LunchVenue_updated.sol\":1685:1810  function startCreate() public restricted inStage(Stage.VOTE_OPEN) whenNotStopped {... */\n    tag_86:\n        /* \"contracts/LunchVenue_updated.sol\":5616:5623  manager */\n      immutable(\"0x6bcaf047ba4c8ac400fca43393035242dd1aabda2d6068a0c51242b97224de8d\")\n        /* \"contracts/LunchVenue_updated.sol\":5603:5623  tx.origin == manager */\n      0xffffffffffffffffffffffffffffffffffffffff\n      and\n        /* \"contracts/LunchVenue_updated.sol\":5603:5612  tx.origin */\n      origin\n        /* \"contracts/LunchVenue_updated.sol\":5603:5623  tx.origin == manager */\n      0xffffffffffffffffffffffffffffffffffffffff\n      and\n      eq\n        /* \"contracts/LunchVenue_updated.sol\":5603:5648  tx.origin == manager || msg.sender == manager */\n      dup1\n      tag_235\n      jumpi\n      pop\n        /* \"contracts/LunchVenue_updated.sol\":5641:5648  manager */\n      immutable(\"0x6bcaf047ba4c8ac400fca43393035242dd1aabda2d6068a0c51242b97224de8d\")\n        /* \"contracts/LunchVenue_updated.sol\":5627:5648  msg.sender == manager */\n      0xffffffffffffffffffffffffffffffffffffffff\n      and\n        /* \"contracts/LunchVenue_updated.sol\":5627:5637  msg.sender */\n      caller\n        /* \"contracts/LunchVenue_updated.sol\":5627:5648  msg.sender == manager */\n      0xffffffffffffffffffffffffffffffffffffffff\n      and\n      eq\n        /* \"contracts/LunchVenue_updated.sol\":5603:5648  tx.origin == manager || msg.sender == manager */\n    tag_235:\n        /* \"contracts/LunchVenue_updated.sol\":5594:5688  require (tx.origin == manager || msg.sender == manager, \"Can only be executed by the manager\") */\n      tag_236\n      jumpi\n      mload(0x40)\n      0x08c379a000000000000000000000000000000000000000000000000000000000\n      dup2\n      mstore\n      0x04\n      add\n      tag_237\n      swap1\n      tag_102\n      jump\t// in\n    tag_237:\n      mload(0x40)\n      dup1\n      swap2\n      sub\n      swap1\n      revert\n    tag_236:\n        /* \"contracts/LunchVenue_updated.sol\":1734:1749  Stage.VOTE_OPEN */\n      0x01\n        /* \"contracts/LunchVenue_updated.sol\":7092:7097  stage */\n      dup1\n        /* \"contracts/LunchVenue_updated.sol\":7076:7097  currentStage == stage */\n      0x02\n      dup2\n      gt\n      iszero\n      tag_239\n      jumpi\n      tag_240\n      tag_111\n      jump\t// in\n    tag_240:\n    tag_239:\n        /* \"contracts/LunchVenue_updated.sol\":7076:7088  currentStage */\n      0x00\n      dup1\n      sload\n      swap1\n      0x0100\n      exp\n      swap1\n      div\n      0xff\n      and\n        /* \"contracts/LunchVenue_updated.sol\":7076:7097  currentStage == stage */\n      0x02\n      dup2\n      gt\n      iszero\n      tag_241\n      jumpi\n      tag_242\n      tag_111\n      jump\t// in\n    tag_242:\n    tag_241:\n      eq\n        /* \"contracts/LunchVenue_updated.sol\":7068:7143  require(currentStage == stage, \"Function can not be called in this stage.\") */\n      tag_243\n      jumpi\n      mload(0x40)\n      0x08c379a000000000000000000000000000000000000000000000000000000000\n      dup2\n      mstore\n      0x04\n      add\n      tag_244\n      swap1\n      tag_116\n      jump\t// in\n    tag_244:\n      mload(0x40)\n      dup1\n      swap2\n      sub\n      swap1\n      revert\n    tag_243:\n        /* \"contracts/LunchVenue_updated.sol\":7589:7596  stopped */\n      0x07\n      0x00\n      swap1\n      sload\n      swap1\n      0x0100\n      exp\n      swap1\n      div\n      0xff\n      and\n        /* \"contracts/LunchVenue_updated.sol\":7588:7596  !stopped */\n      iszero\n        /* \"contracts/LunchVenue_updated.sol\":7580:7621  require(!stopped, \"Contract is stopped.\") */\n      tag_246\n      jumpi\n      mload(0x40)\n      0x08c379a000000000000000000000000000000000000000000000000000000000\n      dup2\n      mstore\n      0x04\n      add\n      tag_247\n      swap1\n      tag_120\n      jump\t// in\n    tag_247:\n      mload(0x40)\n      dup1\n      swap2\n      sub\n      swap1\n      revert\n    tag_246:\n        /* \"contracts/LunchVenue_updated.sol\":1791:1803  Stage.CREATE */\n      0x00\n        /* \"contracts/LunchVenue_updated.sol\":1776:1788  currentStage */\n      dup1\n      0x00\n        /* \"contracts/LunchVenue_updated.sol\":1776:1803  currentStage = Stage.CREATE */\n      0x0100\n      exp\n      dup2\n      sload\n      dup2\n      0xff\n      mul\n      not\n      and\n      swap1\n      dup4\n      0x02\n      dup2\n      gt\n      iszero\n      tag_249\n      jumpi\n      tag_250\n      tag_111\n      jump\t// in\n    tag_250:\n    tag_249:\n      mul\n      or\n      swap1\n      sstore\n      pop\n        /* \"contracts/LunchVenue_updated.sol\":5821:5822  _ */\n      pop\n        /* \"contracts/LunchVenue_updated.sol\":1685:1810  function startCreate() public restricted inStage(Stage.VOTE_OPEN) whenNotStopped {... */\n      jump\t// out\n        /* \"contracts/LunchVenue_updated.sol\":4807:5496  function finalResult() private{... */\n    tag_203:\n        /* \"contracts/LunchVenue_updated.sol\":4847:4865  uint8 highestVotes */\n      0x00\n        /* \"contracts/LunchVenue_updated.sol\":4879:4902  uint8 highestRestaurant */\n      dup1\n        /* \"contracts/LunchVenue_updated.sol\":4930:4937  uint8 i */\n      0x00\n        /* \"contracts/LunchVenue_updated.sol\":4940:4941  1 */\n      0x01\n        /* \"contracts/LunchVenue_updated.sol\":4930:4941  uint8 i = 1 */\n      swap1\n      pop\n        /* \"contracts/LunchVenue_updated.sol\":4925:5410  for (uint8 i = 1; i <= numVotes; i++){   //For each vote... */\n    tag_252:\n        /* \"contracts/LunchVenue_updated.sol\":4948:4956  numVotes */\n      0x03\n      0x02\n      swap1\n      sload\n      swap1\n      0x0100\n      exp\n      swap1\n      div\n      0xff\n      and\n        /* \"contracts/LunchVenue_updated.sol\":4943:4956  i <= numVotes */\n      0xff\n      and\n        /* \"contracts/LunchVenue_updated.sol\":4943:4944  i */\n      dup2\n        /* \"contracts/LunchVenue_updated.sol\":4943:4956  i <= numVotes */\n      0xff\n      and\n      gt\n        /* \"contracts/LunchVenue_updated.sol\":4925:5410  for (uint8 i = 1; i <= numVotes; i++){   //For each vote... */\n      tag_253\n      jumpi\n        /* \"contracts/LunchVenue_updated.sol\":4994:5009  uint8 voteCount */\n      0x00\n        /* \"contracts/LunchVenue_updated.sol\":5012:5013  1 */\n      0x01\n        /* \"contracts/LunchVenue_updated.sol\":4994:5013  uint8 voteCount = 1 */\n      swap1\n      pop\n        /* \"contracts/LunchVenue_updated.sol\":5062:5063  0 */\n      0x00\n        /* \"contracts/LunchVenue_updated.sol\":5030:5038  _results */\n      0x06\n        /* \"contracts/LunchVenue_updated.sol\":5030:5059  _results[votes[i].restaurant] */\n      0x00\n        /* \"contracts/LunchVenue_updated.sol\":5039:5044  votes */\n      0x05\n        /* \"contracts/LunchVenue_updated.sol\":5039:5047  votes[i] */\n      0x00\n        /* \"contracts/LunchVenue_updated.sol\":5045:5046  i */\n      dup7\n        /* \"contracts/LunchVenue_updated.sol\":5039:5047  votes[i] */\n      0xff\n      and\n      0xff\n      and\n      dup2\n      mstore\n      0x20\n      add\n      swap1\n      dup2\n      mstore\n      0x20\n      add\n      0x00\n      keccak256\n        /* \"contracts/LunchVenue_updated.sol\":5039:5058  votes[i].restaurant */\n      0x00\n      add\n      0x14\n      swap1\n      sload\n      swap1\n      0x0100\n      exp\n      swap1\n      div\n      0xff\n      and\n        /* \"contracts/LunchVenue_updated.sol\":5030:5059  _results[votes[i].restaurant] */\n      0xff\n      and\n      0xff\n      and\n      dup2\n      mstore\n      0x20\n      add\n      swap1\n      dup2\n      mstore\n      0x20\n      add\n      0x00\n      keccak256\n      0x00\n      swap1\n      sload\n      swap1\n      0x0100\n      exp\n      swap1\n      div\n      0xff\n      and\n        /* \"contracts/LunchVenue_updated.sol\":5030:5063  _results[votes[i].restaurant] > 0 */\n      0xff\n      and\n      gt\n        /* \"contracts/LunchVenue_updated.sol\":5027:5166  if(_results[votes[i].restaurant] > 0) { // Already start counting... */\n      iszero\n      tag_255\n      jumpi\n        /* \"contracts/LunchVenue_updated.sol\":5122:5130  _results */\n      0x06\n        /* \"contracts/LunchVenue_updated.sol\":5122:5151  _results[votes[i].restaurant] */\n      0x00\n        /* \"contracts/LunchVenue_updated.sol\":5131:5136  votes */\n      0x05\n        /* \"contracts/LunchVenue_updated.sol\":5131:5139  votes[i] */\n      0x00\n        /* \"contracts/LunchVenue_updated.sol\":5137:5138  i */\n      dup6\n        /* \"contracts/LunchVenue_updated.sol\":5131:5139  votes[i] */\n      0xff\n      and\n      0xff\n      and\n      dup2\n      mstore\n      0x20\n      add\n      swap1\n      dup2\n      mstore\n      0x20\n      add\n      0x00\n      keccak256\n        /* \"contracts/LunchVenue_updated.sol\":5131:5150  votes[i].restaurant */\n      0x00\n      add\n      0x14\n      swap1\n      sload\n      swap1\n      0x0100\n      exp\n      swap1\n      div\n      0xff\n      and\n        /* \"contracts/LunchVenue_updated.sol\":5122:5151  _results[votes[i].restaurant] */\n      0xff\n      and\n      0xff\n      and\n      dup2\n      mstore\n      0x20\n      add\n      swap1\n      dup2\n      mstore\n      0x20\n      add\n      0x00\n      keccak256\n      0x00\n      swap1\n      sload\n      swap1\n      0x0100\n      exp\n      swap1\n      div\n      0xff\n      and\n        /* \"contracts/LunchVenue_updated.sol\":5109:5151  voteCount += _results[votes[i].restaurant] */\n      dup2\n      tag_256\n      swap2\n      swap1\n      tag_186\n      jump\t// in\n    tag_256:\n      swap1\n      pop\n        /* \"contracts/LunchVenue_updated.sol\":5027:5166  if(_results[votes[i].restaurant] > 0) { // Already start counting... */\n    tag_255:\n        /* \"contracts/LunchVenue_updated.sol\":5211:5220  voteCount */\n      dup1\n        /* \"contracts/LunchVenue_updated.sol\":5179:5187  _results */\n      0x06\n        /* \"contracts/LunchVenue_updated.sol\":5179:5208  _results[votes[i].restaurant] */\n      0x00\n        /* \"contracts/LunchVenue_updated.sol\":5188:5193  votes */\n      0x05\n        /* \"contracts/LunchVenue_updated.sol\":5188:5196  votes[i] */\n      0x00\n        /* \"contracts/LunchVenue_updated.sol\":5194:5195  i */\n      dup7\n        /* \"contracts/LunchVenue_updated.sol\":5188:5196  votes[i] */\n      0xff\n      and\n      0xff\n      and\n      dup2\n      mstore\n      0x20\n      add\n      swap1\n      dup2\n      mstore\n      0x20\n      add\n      0x00\n      keccak256\n        /* \"contracts/LunchVenue_updated.sol\":5188:5207  votes[i].restaurant */\n      0x00\n      add\n      0x14\n      swap1\n      sload\n      swap1\n      0x0100\n      exp\n      swap1\n      div\n      0xff\n      and\n        /* \"contracts/LunchVenue_updated.sol\":5179:5208  _results[votes[i].restaurant] */\n      0xff\n      and\n      0xff\n      and\n      dup2\n      mstore\n      0x20\n      add\n      swap1\n      dup2\n      mstore\n      0x20\n      add\n      0x00\n      keccak256\n      0x00\n        /* \"contracts/LunchVenue_updated.sol\":5179:5220  _results[votes[i].restaurant] = voteCount */\n      0x0100\n      exp\n      dup2\n      sload\n      dup2\n      0xff\n      mul\n      not\n      and\n      swap1\n      dup4\n      0xff\n      and\n      mul\n      or\n      swap1\n      sstore\n      pop\n        /* \"contracts/LunchVenue_updated.sol\":5259:5271  highestVotes */\n      dup4\n        /* \"contracts/LunchVenue_updated.sol\":5247:5271  voteCount > highestVotes */\n      0xff\n      and\n        /* \"contracts/LunchVenue_updated.sol\":5247:5256  voteCount */\n      dup2\n        /* \"contracts/LunchVenue_updated.sol\":5247:5271  voteCount > highestVotes */\n      0xff\n      and\n      gt\n        /* \"contracts/LunchVenue_updated.sol\":5243:5400  if (voteCount > highestVotes){ // New winner... */\n      iszero\n      tag_257\n      jumpi\n        /* \"contracts/LunchVenue_updated.sol\":5319:5328  voteCount */\n      dup1\n        /* \"contracts/LunchVenue_updated.sol\":5304:5328  highestVotes = voteCount */\n      swap4\n      pop\n        /* \"contracts/LunchVenue_updated.sol\":5366:5371  votes */\n      0x05\n        /* \"contracts/LunchVenue_updated.sol\":5366:5374  votes[i] */\n      0x00\n        /* \"contracts/LunchVenue_updated.sol\":5372:5373  i */\n      dup4\n        /* \"contracts/LunchVenue_updated.sol\":5366:5374  votes[i] */\n      0xff\n      and\n      0xff\n      and\n      dup2\n      mstore\n      0x20\n      add\n      swap1\n      dup2\n      mstore\n      0x20\n      add\n      0x00\n      keccak256\n        /* \"contracts/LunchVenue_updated.sol\":5366:5385  votes[i].restaurant */\n      0x00\n      add\n      0x14\n      swap1\n      sload\n      swap1\n      0x0100\n      exp\n      swap1\n      div\n      0xff\n      and\n        /* \"contracts/LunchVenue_updated.sol\":5346:5385  highestRestaurant = votes[i].restaurant */\n      swap3\n      pop\n        /* \"contracts/LunchVenue_updated.sol\":5243:5400  if (voteCount > highestVotes){ // New winner... */\n    tag_257:\n        /* \"contracts/LunchVenue_updated.sol\":4962:5410  {   //For each vote... */\n      pop\n        /* \"contracts/LunchVenue_updated.sol\":4958:4961  i++ */\n      dup1\n      dup1\n      tag_258\n      swap1\n      tag_125\n      jump\t// in\n    tag_258:\n      swap2\n      pop\n      pop\n        /* \"contracts/LunchVenue_updated.sol\":4925:5410  for (uint8 i = 1; i <= numVotes; i++){   //For each vote... */\n      jump(tag_252)\n    tag_253:\n      pop\n        /* \"contracts/LunchVenue_updated.sol\":5437:5448  restaurants */\n      0x01\n        /* \"contracts/LunchVenue_updated.sol\":5437:5467  restaurants[highestRestaurant] */\n      0x00\n        /* \"contracts/LunchVenue_updated.sol\":5449:5466  highestRestaurant */\n      dup3\n        /* \"contracts/LunchVenue_updated.sol\":5437:5467  restaurants[highestRestaurant] */\n      0xff\n      and\n      0xff\n      and\n      dup2\n      mstore\n      0x20\n      add\n      swap1\n      dup2\n      mstore\n      0x20\n      add\n      0x00\n      keccak256\n        /* \"contracts/LunchVenue_updated.sol\":5419:5434  votedRestaurant */\n      0x04\n        /* \"contracts/LunchVenue_updated.sol\":5419:5467  votedRestaurant = restaurants[highestRestaurant] */\n      swap1\n      dup1\n      sload\n      tag_259\n      swap1\n      tag_88\n      jump\t// in\n    tag_259:\n      tag_260\n      swap3\n      swap2\n      swap1\n      tag_261\n      jump\t// in\n    tag_260:\n      pop\n        /* \"contracts/LunchVenue_updated.sol\":4837:5496  {... */\n      pop\n      pop\n        /* \"contracts/LunchVenue_updated.sol\":4807:5496  function finalResult() private{... */\n      jump\t// out\n    tag_123:\n      dup3\n      dup1\n      sload\n      tag_262\n      swap1\n      tag_88\n      jump\t// in\n    tag_262:\n      swap1\n      0x00\n      mstore\n      keccak256(0x00, 0x20)\n      swap1\n      0x1f\n      add\n      0x20\n      swap1\n      div\n      dup2\n      add\n      swap3\n      dup3\n      tag_264\n      jumpi\n      0x00\n      dup6\n      sstore\n      jump(tag_263)\n    tag_264:\n      dup3\n      0x1f\n      lt\n      tag_265\n      jumpi\n      dup1\n      mload\n      not(0xff)\n      and\n      dup4\n      dup1\n      add\n      or\n      dup6\n      sstore\n      jump(tag_263)\n    tag_265:\n      dup3\n      dup1\n      add\n      0x01\n      add\n      dup6\n      sstore\n      dup3\n      iszero\n      tag_263\n      jumpi\n      swap2\n      dup3\n      add\n    tag_266:\n      dup3\n      dup2\n      gt\n      iszero\n      tag_267\n      jumpi\n      dup3\n      mload\n      dup3\n      sstore\n      swap2\n      0x20\n      add\n      swap2\n      swap1\n      0x01\n      add\n      swap1\n      jump(tag_266)\n    tag_267:\n    tag_263:\n      pop\n      swap1\n      pop\n      tag_268\n      swap2\n      swap1\n      tag_269\n      jump\t// in\n    tag_268:\n      pop\n      swap1\n      jump\t// out\n    tag_261:\n      dup3\n      dup1\n      sload\n      tag_270\n      swap1\n      tag_88\n      jump\t// in\n    tag_270:\n      swap1\n      0x00\n      mstore\n      keccak256(0x00, 0x20)\n      swap1\n      0x1f\n      add\n      0x20\n      swap1\n      div\n      dup2\n      add\n      swap3\n      dup3\n      tag_272\n      jumpi\n      0x00\n      dup6\n      sstore\n      jump(tag_271)\n    tag_272:\n      dup3\n      0x1f\n      lt\n      tag_273\n      jumpi\n      dup1\n      sload\n      dup6\n      sstore\n      jump(tag_271)\n    tag_273:\n      dup3\n      dup1\n      add\n      0x01\n      add\n      dup6\n      sstore\n      dup3\n      iszero\n      tag_271\n      jumpi\n      0x00\n      mstore\n      keccak256(0x00, 0x20)\n      swap2\n      0x1f\n      add\n      0x20\n      swap1\n      div\n      dup3\n      add\n    tag_274:\n      dup3\n      dup2\n      gt\n      iszero\n      tag_275\n      jumpi\n      dup3\n      sload\n      dup3\n      sstore\n      swap2\n      0x01\n      add\n      swap2\n      swap1\n      0x01\n      add\n      swap1\n      jump(tag_274)\n    tag_275:\n    tag_271:\n      pop\n      swap1\n      pop\n      tag_276\n      swap2\n      swap1\n      tag_269\n      jump\t// in\n    tag_276:\n      pop\n      swap1\n      jump\t// out\n    tag_269:\n    tag_277:\n      dup1\n      dup3\n      gt\n      iszero\n      tag_278\n      jumpi\n      0x00\n      dup2\n      0x00\n      swap1\n      sstore\n      pop\n      0x01\n      add\n      jump(tag_277)\n    tag_278:\n      pop\n      swap1\n      jump\t// out\n        /* \"#utility.yul\":7:419   */\n    tag_280:\n        /* \"#utility.yul\":85:90   */\n      0x00\n        /* \"#utility.yul\":110:176   */\n      tag_282\n        /* \"#utility.yul\":126:175   */\n      tag_283\n        /* \"#utility.yul\":168:174   */\n      dup5\n        /* \"#utility.yul\":126:175   */\n      tag_284\n      jump\t// in\n    tag_283:\n        /* \"#utility.yul\":110:176   */\n      tag_285\n      jump\t// in\n    tag_282:\n        /* \"#utility.yul\":101:176   */\n      swap1\n      pop\n        /* \"#utility.yul\":199:205   */\n      dup3\n        /* \"#utility.yul\":192:197   */\n      dup2\n        /* \"#utility.yul\":185:206   */\n      mstore\n        /* \"#utility.yul\":237:241   */\n      0x20\n        /* \"#utility.yul\":230:235   */\n      dup2\n        /* \"#utility.yul\":226:242   */\n      add\n        /* \"#utility.yul\":275:278   */\n      dup5\n        /* \"#utility.yul\":266:272   */\n      dup5\n        /* \"#utility.yul\":261:264   */\n      dup5\n        /* \"#utility.yul\":257:273   */\n      add\n        /* \"#utility.yul\":254:279   */\n      gt\n        /* \"#utility.yul\":251:253   */\n      iszero\n      tag_286\n      jumpi\n        /* \"#utility.yul\":282:361   */\n      tag_287\n      tag_288\n      jump\t// in\n    tag_287:\n        /* \"#utility.yul\":251:253   */\n    tag_286:\n        /* \"#utility.yul\":372:413   */\n      tag_289\n        /* \"#utility.yul\":406:412   */\n      dup5\n        /* \"#utility.yul\":401:404   */\n      dup3\n        /* \"#utility.yul\":396:399   */\n      dup6\n        /* \"#utility.yul\":372:413   */\n      tag_290\n      jump\t// in\n    tag_289:\n        /* \"#utility.yul\":91:419   */\n      pop\n      swap4\n      swap3\n      pop\n      pop\n      pop\n      jump\t// out\n        /* \"#utility.yul\":425:564   */\n    tag_291:\n        /* \"#utility.yul\":471:476   */\n      0x00\n        /* \"#utility.yul\":509:515   */\n      dup2\n        /* \"#utility.yul\":496:516   */\n      calldataload\n        /* \"#utility.yul\":487:516   */\n      swap1\n      pop\n        /* \"#utility.yul\":525:558   */\n      tag_293\n        /* \"#utility.yul\":552:557   */\n      dup2\n        /* \"#utility.yul\":525:558   */\n      tag_294\n      jump\t// in\n    tag_293:\n        /* \"#utility.yul\":477:564   */\n      swap3\n      swap2\n      pop\n      pop\n      jump\t// out\n        /* \"#utility.yul\":584:924   */\n    tag_295:\n        /* \"#utility.yul\":640:645   */\n      0x00\n        /* \"#utility.yul\":689:692   */\n      dup3\n        /* \"#utility.yul\":682:686   */\n      0x1f\n        /* \"#utility.yul\":674:680   */\n      dup4\n        /* \"#utility.yul\":670:687   */\n      add\n        /* \"#utility.yul\":666:693   */\n      slt\n        /* \"#utility.yul\":656:658   */\n      tag_297\n      jumpi\n        /* \"#utility.yul\":697:776   */\n      tag_298\n      tag_299\n      jump\t// in\n    tag_298:\n        /* \"#utility.yul\":656:658   */\n    tag_297:\n        /* \"#utility.yul\":814:820   */\n      dup2\n        /* \"#utility.yul\":801:821   */\n      calldataload\n        /* \"#utility.yul\":839:918   */\n      tag_300\n        /* \"#utility.yul\":914:917   */\n      dup5\n        /* \"#utility.yul\":906:912   */\n      dup3\n        /* \"#utility.yul\":899:903   */\n      0x20\n        /* \"#utility.yul\":891:897   */\n      dup7\n        /* \"#utility.yul\":887:904   */\n      add\n        /* \"#utility.yul\":839:918   */\n      tag_280\n      jump\t// in\n    tag_300:\n        /* \"#utility.yul\":830:918   */\n      swap2\n      pop\n        /* \"#utility.yul\":646:924   */\n      pop\n      swap3\n      swap2\n      pop\n      pop\n      jump\t// out\n        /* \"#utility.yul\":930:1065   */\n    tag_301:\n        /* \"#utility.yul\":974:979   */\n      0x00\n        /* \"#utility.yul\":1012:1018   */\n      dup2\n        /* \"#utility.yul\":999:1019   */\n      calldataload\n        /* \"#utility.yul\":990:1019   */\n      swap1\n      pop\n        /* \"#utility.yul\":1028:1059   */\n      tag_303\n        /* \"#utility.yul\":1053:1058   */\n      dup2\n        /* \"#utility.yul\":1028:1059   */\n      tag_304\n      jump\t// in\n    tag_303:\n        /* \"#utility.yul\":980:1065   */\n      swap3\n      swap2\n      pop\n      pop\n      jump\t// out\n        /* \"#utility.yul\":1071:1400   */\n    tag_31:\n        /* \"#utility.yul\":1130:1136   */\n      0x00\n        /* \"#utility.yul\":1179:1181   */\n      0x20\n        /* \"#utility.yul\":1167:1176   */\n      dup3\n        /* \"#utility.yul\":1158:1165   */\n      dup5\n        /* \"#utility.yul\":1154:1177   */\n      sub\n        /* \"#utility.yul\":1150:1182   */\n      slt\n        /* \"#utility.yul\":1147:1149   */\n      iszero\n      tag_306\n      jumpi\n        /* \"#utility.yul\":1185:1264   */\n      tag_307\n      tag_308\n      jump\t// in\n    tag_307:\n        /* \"#utility.yul\":1147:1149   */\n    tag_306:\n        /* \"#utility.yul\":1305:1306   */\n      0x00\n        /* \"#utility.yul\":1330:1383   */\n      tag_309\n        /* \"#utility.yul\":1375:1382   */\n      dup5\n        /* \"#utility.yul\":1366:1372   */\n      dup3\n        /* \"#utility.yul\":1355:1364   */\n      dup6\n        /* \"#utility.yul\":1351:1373   */\n      add\n        /* \"#utility.yul\":1330:1383   */\n      tag_291\n      jump\t// in\n    tag_309:\n        /* \"#utility.yul\":1320:1383   */\n      swap2\n      pop\n        /* \"#utility.yul\":1276:1393   */\n      pop\n        /* \"#utility.yul\":1137:1400   */\n      swap3\n      swap2\n      pop\n      pop\n      jump\t// out\n        /* \"#utility.yul\":1406:2060   */\n    tag_37:\n        /* \"#utility.yul\":1484:1490   */\n      0x00\n        /* \"#utility.yul\":1492:1498   */\n      dup1\n        /* \"#utility.yul\":1541:1543   */\n      0x40\n        /* \"#utility.yul\":1529:1538   */\n      dup4\n        /* \"#utility.yul\":1520:1527   */\n      dup6\n        /* \"#utility.yul\":1516:1539   */\n      sub\n        /* \"#utility.yul\":1512:1544   */\n      slt\n        /* \"#utility.yul\":1509:1511   */\n      iszero\n      tag_311\n      jumpi\n        /* \"#utility.yul\":1547:1626   */\n      tag_312\n      tag_308\n      jump\t// in\n    tag_312:\n        /* \"#utility.yul\":1509:1511   */\n    tag_311:\n        /* \"#utility.yul\":1667:1668   */\n      0x00\n        /* \"#utility.yul\":1692:1745   */\n      tag_313\n        /* \"#utility.yul\":1737:1744   */\n      dup6\n        /* \"#utility.yul\":1728:1734   */\n      dup3\n        /* \"#utility.yul\":1717:1726   */\n      dup7\n        /* \"#utility.yul\":1713:1735   */\n      add\n        /* \"#utility.yul\":1692:1745   */\n      tag_291\n      jump\t// in\n    tag_313:\n        /* \"#utility.yul\":1682:1745   */\n      swap3\n      pop\n        /* \"#utility.yul\":1638:1755   */\n      pop\n        /* \"#utility.yul\":1822:1824   */\n      0x20\n        /* \"#utility.yul\":1811:1820   */\n      dup4\n        /* \"#utility.yul\":1807:1825   */\n      add\n        /* \"#utility.yul\":1794:1826   */\n      calldataload\n        /* \"#utility.yul\":1853:1871   */\n      0xffffffffffffffff\n        /* \"#utility.yul\":1845:1851   */\n      dup2\n        /* \"#utility.yul\":1842:1872   */\n      gt\n        /* \"#utility.yul\":1839:1841   */\n      iszero\n      tag_314\n      jumpi\n        /* \"#utility.yul\":1875:1954   */\n      tag_315\n      tag_316\n      jump\t// in\n    tag_315:\n        /* \"#utility.yul\":1839:1841   */\n    tag_314:\n        /* \"#utility.yul\":1980:2043   */\n      tag_317\n        /* \"#utility.yul\":2035:2042   */\n      dup6\n        /* \"#utility.yul\":2026:2032   */\n      dup3\n        /* \"#utility.yul\":2015:2024   */\n      dup7\n        /* \"#utility.yul\":2011:2033   */\n      add\n        /* \"#utility.yul\":1980:2043   */\n      tag_295\n      jump\t// in\n    tag_317:\n        /* \"#utility.yul\":1970:2043   */\n      swap2\n      pop\n        /* \"#utility.yul\":1765:2053   */\n      pop\n        /* \"#utility.yul\":1499:2060   */\n      swap3\n      pop\n      swap3\n      swap1\n      pop\n      jump\t// out\n        /* \"#utility.yul\":2066:2575   */\n    tag_56:\n        /* \"#utility.yul\":2135:2141   */\n      0x00\n        /* \"#utility.yul\":2184:2186   */\n      0x20\n        /* \"#utility.yul\":2172:2181   */\n      dup3\n        /* \"#utility.yul\":2163:2170   */\n      dup5\n        /* \"#utility.yul\":2159:2182   */\n      sub\n        /* \"#utility.yul\":2155:2187   */\n      slt\n        /* \"#utility.yul\":2152:2154   */\n      iszero\n      tag_319\n      jumpi\n        /* \"#utility.yul\":2190:2269   */\n      tag_320\n      tag_308\n      jump\t// in\n    tag_320:\n        /* \"#utility.yul\":2152:2154   */\n    tag_319:\n        /* \"#utility.yul\":2338:2339   */\n      0x00\n        /* \"#utility.yul\":2327:2336   */\n      dup3\n        /* \"#utility.yul\":2323:2340   */\n      add\n        /* \"#utility.yul\":2310:2341   */\n      calldataload\n        /* \"#utility.yul\":2368:2386   */\n      0xffffffffffffffff\n        /* \"#utility.yul\":2360:2366   */\n      dup2\n        /* \"#utility.yul\":2357:2387   */\n      gt\n        /* \"#utility.yul\":2354:2356   */\n      iszero\n      tag_321\n      jumpi\n        /* \"#utility.yul\":2390:2469   */\n      tag_322\n      tag_316\n      jump\t// in\n    tag_322:\n        /* \"#utility.yul\":2354:2356   */\n    tag_321:\n        /* \"#utility.yul\":2495:2558   */\n      tag_323\n        /* \"#utility.yul\":2550:2557   */\n      dup5\n        /* \"#utility.yul\":2541:2547   */\n      dup3\n        /* \"#utility.yul\":2530:2539   */\n      dup6\n        /* \"#utility.yul\":2526:2548   */\n      add\n        /* \"#utility.yul\":2495:2558   */\n      tag_295\n      jump\t// in\n    tag_323:\n        /* \"#utility.yul\":2485:2558   */\n      swap2\n      pop\n        /* \"#utility.yul\":2281:2568   */\n      pop\n        /* \"#utility.yul\":2142:2575   */\n      swap3\n      swap2\n      pop\n      pop\n      jump\t// out\n        /* \"#utility.yul\":2581:2906   */\n    tag_25:\n        /* \"#utility.yul\":2638:2644   */\n      0x00\n        /* \"#utility.yul\":2687:2689   */\n      0x20\n        /* \"#utility.yul\":2675:2684   */\n      dup3\n        /* \"#utility.yul\":2666:2673   */\n      dup5\n        /* \"#utility.yul\":2662:2685   */\n      sub\n        /* \"#utility.yul\":2658:2690   */\n      slt\n        /* \"#utility.yul\":2655:2657   */\n      iszero\n      tag_325\n      jumpi\n        /* \"#utility.yul\":2693:2772   */\n      tag_326\n      tag_308\n      jump\t// in\n    tag_326:\n        /* \"#utility.yul\":2655:2657   */\n    tag_325:\n        /* \"#utility.yul\":2813:2814   */\n      0x00\n        /* \"#utility.yul\":2838:2889   */\n      tag_327\n        /* \"#utility.yul\":2881:2888   */\n      dup5\n        /* \"#utility.yul\":2872:2878   */\n      dup3\n        /* \"#utility.yul\":2861:2870   */\n      dup6\n        /* \"#utility.yul\":2857:2879   */\n      add\n        /* \"#utility.yul\":2838:2889   */\n      tag_301\n      jump\t// in\n    tag_327:\n        /* \"#utility.yul\":2828:2889   */\n      swap2\n      pop\n        /* \"#utility.yul\":2784:2899   */\n      pop\n        /* \"#utility.yul\":2645:2906   */\n      swap3\n      swap2\n      pop\n      pop\n      jump\t// out\n        /* \"#utility.yul\":2912:3030   */\n    tag_328:\n        /* \"#utility.yul\":2999:3023   */\n      tag_330\n        /* \"#utility.yul\":3017:3022   */\n      dup2\n        /* \"#utility.yul\":2999:3023   */\n      tag_331\n      jump\t// in\n    tag_330:\n        /* \"#utility.yul\":2994:2997   */\n      dup3\n        /* \"#utility.yul\":2987:3024   */\n      mstore\n        /* \"#utility.yul\":2977:3030   */\n      pop\n      pop\n      jump\t// out\n        /* \"#utility.yul\":3036:3145   */\n    tag_332:\n        /* \"#utility.yul\":3117:3138   */\n      tag_334\n        /* \"#utility.yul\":3132:3137   */\n      dup2\n        /* \"#utility.yul\":3117:3138   */\n      tag_335\n      jump\t// in\n    tag_334:\n        /* \"#utility.yul\":3112:3115   */\n      dup3\n        /* \"#utility.yul\":3105:3139   */\n      mstore\n        /* \"#utility.yul\":3095:3145   */\n      pop\n      pop\n      jump\t// out\n        /* \"#utility.yul\":3151:3294   */\n    tag_336:\n        /* \"#utility.yul\":3244:3287   */\n      tag_338\n        /* \"#utility.yul\":3281:3286   */\n      dup2\n        /* \"#utility.yul\":3244:3287   */\n      tag_339\n      jump\t// in\n    tag_338:\n        /* \"#utility.yul\":3239:3242   */\n      dup3\n        /* \"#utility.yul\":3232:3288   */\n      mstore\n        /* \"#utility.yul\":3222:3294   */\n      pop\n      pop\n      jump\t// out\n        /* \"#utility.yul\":3300:3664   */\n    tag_340:\n        /* \"#utility.yul\":3388:3391   */\n      0x00\n        /* \"#utility.yul\":3416:3455   */\n      tag_342\n        /* \"#utility.yul\":3449:3454   */\n      dup3\n        /* \"#utility.yul\":3416:3455   */\n      tag_343\n      jump\t// in\n    tag_342:\n        /* \"#utility.yul\":3471:3542   */\n      tag_344\n        /* \"#utility.yul\":3535:3541   */\n      dup2\n        /* \"#utility.yul\":3530:3533   */\n      dup6\n        /* \"#utility.yul\":3471:3542   */\n      tag_345\n      jump\t// in\n    tag_344:\n        /* \"#utility.yul\":3464:3542   */\n      swap4\n      pop\n        /* \"#utility.yul\":3551:3603   */\n      tag_346\n        /* \"#utility.yul\":3596:3602   */\n      dup2\n        /* \"#utility.yul\":3591:3594   */\n      dup6\n        /* \"#utility.yul\":3584:3588   */\n      0x20\n        /* \"#utility.yul\":3577:3582   */\n      dup7\n        /* \"#utility.yul\":3573:3589   */\n      add\n        /* \"#utility.yul\":3551:3603   */\n      tag_347\n      jump\t// in\n    tag_346:\n        /* \"#utility.yul\":3628:3657   */\n      tag_348\n        /* \"#utility.yul\":3650:3656   */\n      dup2\n        /* \"#utility.yul\":3628:3657   */\n      tag_349\n      jump\t// in\n    tag_348:\n        /* \"#utility.yul\":3623:3626   */\n      dup5\n        /* \"#utility.yul\":3619:3658   */\n      add\n        /* \"#utility.yul\":3612:3658   */\n      swap2\n      pop\n        /* \"#utility.yul\":3392:3664   */\n      pop\n      swap3\n      swap2\n      pop\n      pop\n      jump\t// out\n        /* \"#utility.yul\":3670:4047   */\n    tag_350:\n        /* \"#utility.yul\":3776:3779   */\n      0x00\n        /* \"#utility.yul\":3804:3843   */\n      tag_352\n        /* \"#utility.yul\":3837:3842   */\n      dup3\n        /* \"#utility.yul\":3804:3843   */\n      tag_343\n      jump\t// in\n    tag_352:\n        /* \"#utility.yul\":3859:3948   */\n      tag_353\n        /* \"#utility.yul\":3941:3947   */\n      dup2\n        /* \"#utility.yul\":3936:3939   */\n      dup6\n        /* \"#utility.yul\":3859:3948   */\n      tag_354\n      jump\t// in\n    tag_353:\n        /* \"#utility.yul\":3852:3948   */\n      swap4\n      pop\n        /* \"#utility.yul\":3957:4009   */\n      tag_355\n        /* \"#utility.yul\":4002:4008   */\n      dup2\n        /* \"#utility.yul\":3997:4000   */\n      dup6\n        /* \"#utility.yul\":3990:3994   */\n      0x20\n        /* \"#utility.yul\":3983:3988   */\n      dup7\n        /* \"#utility.yul\":3979:3995   */\n      add\n        /* \"#utility.yul\":3957:4009   */\n      tag_347\n      jump\t// in\n    tag_355:\n        /* \"#utility.yul\":4034:4040   */\n      dup1\n        /* \"#utility.yul\":4029:4032   */\n      dup5\n        /* \"#utility.yul\":4025:4041   */\n      add\n        /* \"#utility.yul\":4018:4041   */\n      swap2\n      pop\n        /* \"#utility.yul\":3780:4047   */\n      pop\n      swap3\n      swap2\n      pop\n      pop\n      jump\t// out\n        /* \"#utility.yul\":4077:4922   */\n    tag_356:\n        /* \"#utility.yul\":4180:4183   */\n      0x00\n        /* \"#utility.yul\":4217:4222   */\n      dup2\n        /* \"#utility.yul\":4211:4223   */\n      sload\n        /* \"#utility.yul\":4246:4282   */\n      tag_358\n        /* \"#utility.yul\":4272:4281   */\n      dup2\n        /* \"#utility.yul\":4246:4282   */\n      tag_88\n      jump\t// in\n    tag_358:\n        /* \"#utility.yul\":4298:4387   */\n      tag_359\n        /* \"#utility.yul\":4380:4386   */\n      dup2\n        /* \"#utility.yul\":4375:4378   */\n      dup7\n        /* \"#utility.yul\":4298:4387   */\n      tag_354\n      jump\t// in\n    tag_359:\n        /* \"#utility.yul\":4291:4387   */\n      swap5\n      pop\n        /* \"#utility.yul\":4418:4419   */\n      0x01\n        /* \"#utility.yul\":4407:4416   */\n      dup3\n        /* \"#utility.yul\":4403:4420   */\n      and\n        /* \"#utility.yul\":4434:4435   */\n      0x00\n        /* \"#utility.yul\":4429:4566   */\n      dup2\n      eq\n      tag_361\n      jumpi\n        /* \"#utility.yul\":4580:4581   */\n      0x01\n        /* \"#utility.yul\":4575:4916   */\n      dup2\n      eq\n      tag_362\n      jumpi\n        /* \"#utility.yul\":4396:4916   */\n      jump(tag_360)\n        /* \"#utility.yul\":4429:4566   */\n    tag_361:\n        /* \"#utility.yul\":4513:4517   */\n      0xff\n        /* \"#utility.yul\":4509:4518   */\n      not\n        /* \"#utility.yul\":4498:4507   */\n      dup4\n        /* \"#utility.yul\":4494:4519   */\n      and\n        /* \"#utility.yul\":4489:4492   */\n      dup7\n        /* \"#utility.yul\":4482:4520   */\n      mstore\n        /* \"#utility.yul\":4549:4555   */\n      dup2\n        /* \"#utility.yul\":4544:4547   */\n      dup7\n        /* \"#utility.yul\":4540:4556   */\n      add\n        /* \"#utility.yul\":4533:4556   */\n      swap4\n      pop\n        /* \"#utility.yul\":4429:4566   */\n      jump(tag_360)\n        /* \"#utility.yul\":4575:4916   */\n    tag_362:\n        /* \"#utility.yul\":4642:4680   */\n      tag_363\n        /* \"#utility.yul\":4674:4679   */\n      dup6\n        /* \"#utility.yul\":4642:4680   */\n      tag_364\n      jump\t// in\n    tag_363:\n        /* \"#utility.yul\":4702:4703   */\n      0x00\n        /* \"#utility.yul\":4716:4870   */\n    tag_365:\n        /* \"#utility.yul\":4730:4736   */\n      dup4\n        /* \"#utility.yul\":4727:4728   */\n      dup2\n        /* \"#utility.yul\":4724:4737   */\n      lt\n        /* \"#utility.yul\":4716:4870   */\n      iszero\n      tag_367\n      jumpi\n        /* \"#utility.yul\":4804:4811   */\n      dup2\n        /* \"#utility.yul\":4798:4812   */\n      sload\n        /* \"#utility.yul\":4794:4795   */\n      dup2\n        /* \"#utility.yul\":4789:4792   */\n      dup10\n        /* \"#utility.yul\":4785:4796   */\n      add\n        /* \"#utility.yul\":4778:4813   */\n      mstore\n        /* \"#utility.yul\":4854:4855   */\n      0x01\n        /* \"#utility.yul\":4845:4852   */\n      dup3\n        /* \"#utility.yul\":4841:4856   */\n      add\n        /* \"#utility.yul\":4830:4856   */\n      swap2\n      pop\n        /* \"#utility.yul\":4752:4756   */\n      0x20\n        /* \"#utility.yul\":4749:4750   */\n      dup2\n        /* \"#utility.yul\":4745:4757   */\n      add\n        /* \"#utility.yul\":4740:4757   */\n      swap1\n      pop\n        /* \"#utility.yul\":4716:4870   */\n      jump(tag_365)\n    tag_367:\n        /* \"#utility.yul\":4899:4905   */\n      dup4\n        /* \"#utility.yul\":4894:4897   */\n      dup9\n        /* \"#utility.yul\":4890:4906   */\n      add\n        /* \"#utility.yul\":4883:4906   */\n      swap6\n      pop\n        /* \"#utility.yul\":4582:4916   */\n      pop\n      pop\n        /* \"#utility.yul\":4396:4916   */\n    tag_360:\n      pop\n        /* \"#utility.yul\":4184:4922   */\n      pop\n      pop\n      swap3\n      swap2\n      pop\n      pop\n      jump\t// out\n        /* \"#utility.yul\":4928:5294   */\n    tag_368:\n        /* \"#utility.yul\":5070:5073   */\n      0x00\n        /* \"#utility.yul\":5091:5158   */\n      tag_370\n        /* \"#utility.yul\":5155:5157   */\n      0x26\n        /* \"#utility.yul\":5150:5153   */\n      dup4\n        /* \"#utility.yul\":5091:5158   */\n      tag_345\n      jump\t// in\n    tag_370:\n        /* \"#utility.yul\":5084:5158   */\n      swap2\n      pop\n        /* \"#utility.yul\":5167:5260   */\n      tag_371\n        /* \"#utility.yul\":5256:5259   */\n      dup3\n        /* \"#utility.yul\":5167:5260   */\n      tag_372\n      jump\t// in\n    tag_371:\n        /* \"#utility.yul\":5285:5287   */\n      0x40\n        /* \"#utility.yul\":5280:5283   */\n      dup3\n        /* \"#utility.yul\":5276:5288   */\n      add\n        /* \"#utility.yul\":5269:5288   */\n      swap1\n      pop\n        /* \"#utility.yul\":5074:5294   */\n      swap2\n      swap1\n      pop\n      jump\t// out\n        /* \"#utility.yul\":5300:5666   */\n    tag_373:\n        /* \"#utility.yul\":5442:5445   */\n      0x00\n        /* \"#utility.yul\":5463:5530   */\n      tag_375\n        /* \"#utility.yul\":5527:5529   */\n      0x13\n        /* \"#utility.yul\":5522:5525   */\n      dup4\n        /* \"#utility.yul\":5463:5530   */\n      tag_345\n      jump\t// in\n    tag_375:\n        /* \"#utility.yul\":5456:5530   */\n      swap2\n      pop\n        /* \"#utility.yul\":5539:5632   */\n      tag_376\n        /* \"#utility.yul\":5628:5631   */\n      dup3\n        /* \"#utility.yul\":5539:5632   */\n      tag_377\n      jump\t// in\n    tag_376:\n        /* \"#utility.yul\":5657:5659   */\n      0x20\n        /* \"#utility.yul\":5652:5655   */\n      dup3\n        /* \"#utility.yul\":5648:5660   */\n      add\n        /* \"#utility.yul\":5641:5660   */\n      swap1\n      pop\n        /* \"#utility.yul\":5446:5666   */\n      swap2\n      swap1\n      pop\n      jump\t// out\n        /* \"#utility.yul\":5672:6038   */\n    tag_378:\n        /* \"#utility.yul\":5814:5817   */\n      0x00\n        /* \"#utility.yul\":5835:5902   */\n      tag_380\n        /* \"#utility.yul\":5899:5901   */\n      0x14\n        /* \"#utility.yul\":5894:5897   */\n      dup4\n        /* \"#utility.yul\":5835:5902   */\n      tag_345\n      jump\t// in\n    tag_380:\n        /* \"#utility.yul\":5828:5902   */\n      swap2\n      pop\n        /* \"#utility.yul\":5911:6004   */\n      tag_381\n        /* \"#utility.yul\":6000:6003   */\n      dup3\n        /* \"#utility.yul\":5911:6004   */\n      tag_382\n      jump\t// in\n    tag_381:\n        /* \"#utility.yul\":6029:6031   */\n      0x20\n        /* \"#utility.yul\":6024:6027   */\n      dup3\n        /* \"#utility.yul\":6020:6032   */\n      add\n        /* \"#utility.yul\":6013:6032   */\n      swap1\n      pop\n        /* \"#utility.yul\":5818:6038   */\n      swap2\n      swap1\n      pop\n      jump\t// out\n        /* \"#utility.yul\":6044:6410   */\n    tag_383:\n        /* \"#utility.yul\":6186:6189   */\n      0x00\n        /* \"#utility.yul\":6207:6274   */\n      tag_385\n        /* \"#utility.yul\":6271:6273   */\n      0x29\n        /* \"#utility.yul\":6266:6269   */\n      dup4\n        /* \"#utility.yul\":6207:6274   */\n      tag_345\n      jump\t// in\n    tag_385:\n        /* \"#utility.yul\":6200:6274   */\n      swap2\n      pop\n        /* \"#utility.yul\":6283:6376   */\n      tag_386\n        /* \"#utility.yul\":6372:6375   */\n      dup3\n        /* \"#utility.yul\":6283:6376   */\n      tag_387\n      jump\t// in\n    tag_386:\n        /* \"#utility.yul\":6401:6403   */\n      0x40\n        /* \"#utility.yul\":6396:6399   */\n      dup3\n        /* \"#utility.yul\":6392:6404   */\n      add\n        /* \"#utility.yul\":6385:6404   */\n      swap1\n      pop\n        /* \"#utility.yul\":6190:6410   */\n      swap2\n      swap1\n      pop\n      jump\t// out\n        /* \"#utility.yul\":6416:6782   */\n    tag_388:\n        /* \"#utility.yul\":6558:6561   */\n      0x00\n        /* \"#utility.yul\":6579:6646   */\n      tag_390\n        /* \"#utility.yul\":6643:6645   */\n      0x16\n        /* \"#utility.yul\":6638:6641   */\n      dup4\n        /* \"#utility.yul\":6579:6646   */\n      tag_345\n      jump\t// in\n    tag_390:\n        /* \"#utility.yul\":6572:6646   */\n      swap2\n      pop\n        /* \"#utility.yul\":6655:6748   */\n      tag_391\n        /* \"#utility.yul\":6744:6747   */\n      dup3\n        /* \"#utility.yul\":6655:6748   */\n      tag_392\n      jump\t// in\n    tag_391:\n        /* \"#utility.yul\":6773:6775   */\n      0x20\n        /* \"#utility.yul\":6768:6771   */\n      dup3\n        /* \"#utility.yul\":6764:6776   */\n      add\n        /* \"#utility.yul\":6757:6776   */\n      swap1\n      pop\n        /* \"#utility.yul\":6562:6782   */\n      swap2\n      swap1\n      pop\n      jump\t// out\n        /* \"#utility.yul\":6788:7154   */\n    tag_393:\n        /* \"#utility.yul\":6930:6933   */\n      0x00\n        /* \"#utility.yul\":6951:7018   */\n      tag_395\n        /* \"#utility.yul\":7015:7017   */\n      0x23\n        /* \"#utility.yul\":7010:7013   */\n      dup4\n        /* \"#utility.yul\":6951:7018   */\n      tag_345\n      jump\t// in\n    tag_395:\n        /* \"#utility.yul\":6944:7018   */\n      swap2\n      pop\n        /* \"#utility.yul\":7027:7120   */\n      tag_396\n        /* \"#utility.yul\":7116:7119   */\n      dup3\n        /* \"#utility.yul\":7027:7120   */\n      tag_397\n      jump\t// in\n    tag_396:\n        /* \"#utility.yul\":7145:7147   */\n      0x40\n        /* \"#utility.yul\":7140:7143   */\n      dup3\n        /* \"#utility.yul\":7136:7148   */\n      add\n        /* \"#utility.yul\":7129:7148   */\n      swap1\n      pop\n        /* \"#utility.yul\":6934:7154   */\n      swap2\n      swap1\n      pop\n      jump\t// out\n        /* \"#utility.yul\":7160:7526   */\n    tag_398:\n        /* \"#utility.yul\":7302:7305   */\n      0x00\n        /* \"#utility.yul\":7323:7390   */\n      tag_400\n        /* \"#utility.yul\":7387:7389   */\n      0x1a\n        /* \"#utility.yul\":7382:7385   */\n      dup4\n        /* \"#utility.yul\":7323:7390   */\n      tag_345\n      jump\t// in\n    tag_400:\n        /* \"#utility.yul\":7316:7390   */\n      swap2\n      pop\n        /* \"#utility.yul\":7399:7492   */\n      tag_401\n        /* \"#utility.yul\":7488:7491   */\n      dup3\n        /* \"#utility.yul\":7399:7492   */\n      tag_402\n      jump\t// in\n    tag_401:\n        /* \"#utility.yul\":7517:7519   */\n      0x20\n        /* \"#utility.yul\":7512:7515   */\n      dup3\n        /* \"#utility.yul\":7508:7520   */\n      add\n        /* \"#utility.yul\":7501:7520   */\n      swap1\n      pop\n        /* \"#utility.yul\":7306:7526   */\n      swap2\n      swap1\n      pop\n      jump\t// out\n        /* \"#utility.yul\":7532:7644   */\n    tag_403:\n        /* \"#utility.yul\":7615:7637   */\n      tag_405\n        /* \"#utility.yul\":7631:7636   */\n      dup2\n        /* \"#utility.yul\":7615:7637   */\n      tag_406\n      jump\t// in\n    tag_405:\n        /* \"#utility.yul\":7610:7613   */\n      dup3\n        /* \"#utility.yul\":7603:7638   */\n      mstore\n        /* \"#utility.yul\":7593:7644   */\n      pop\n      pop\n      jump\t// out\n        /* \"#utility.yul\":7650:7925   */\n    tag_152:\n        /* \"#utility.yul\":7782:7785   */\n      0x00\n        /* \"#utility.yul\":7804:7899   */\n      tag_408\n        /* \"#utility.yul\":7895:7898   */\n      dup3\n        /* \"#utility.yul\":7886:7892   */\n      dup5\n        /* \"#utility.yul\":7804:7899   */\n      tag_350\n      jump\t// in\n    tag_408:\n        /* \"#utility.yul\":7797:7899   */\n      swap2\n      pop\n        /* \"#utility.yul\":7916:7919   */\n      dup2\n        /* \"#utility.yul\":7909:7919   */\n      swap1\n      pop\n        /* \"#utility.yul\":7786:7925   */\n      swap3\n      swap2\n      pop\n      pop\n      jump\t// out\n        /* \"#utility.yul\":7931:8200   */\n    tag_154:\n        /* \"#utility.yul\":8060:8063   */\n      0x00\n        /* \"#utility.yul\":8082:8174   */\n      tag_410\n        /* \"#utility.yul\":8170:8173   */\n      dup3\n        /* \"#utility.yul\":8161:8167   */\n      dup5\n        /* \"#utility.yul\":8082:8174   */\n      tag_356\n      jump\t// in\n    tag_410:\n        /* \"#utility.yul\":8075:8174   */\n      swap2\n      pop\n        /* \"#utility.yul\":8191:8194   */\n      dup2\n        /* \"#utility.yul\":8184:8194   */\n      swap1\n      pop\n        /* \"#utility.yul\":8064:8200   */\n      swap3\n      swap2\n      pop\n      pop\n      jump\t// out\n        /* \"#utility.yul\":8206:8428   */\n    tag_47:\n        /* \"#utility.yul\":8299:8303   */\n      0x00\n        /* \"#utility.yul\":8337:8339   */\n      0x20\n        /* \"#utility.yul\":8326:8335   */\n      dup3\n        /* \"#utility.yul\":8322:8340   */\n      add\n        /* \"#utility.yul\":8314:8340   */\n      swap1\n      pop\n        /* \"#utility.yul\":8350:8421   */\n      tag_412\n        /* \"#utility.yul\":8418:8419   */\n      0x00\n        /* \"#utility.yul\":8407:8416   */\n      dup4\n        /* \"#utility.yul\":8403:8420   */\n      add\n        /* \"#utility.yul\":8394:8400   */\n      dup5\n        /* \"#utility.yul\":8350:8421   */\n      tag_328\n      jump\t// in\n    tag_412:\n        /* \"#utility.yul\":8304:8428   */\n      swap3\n      swap2\n      pop\n      pop\n      jump\t// out\n        /* \"#utility.yul\":8434:8758   */\n    tag_77:\n        /* \"#utility.yul\":8551:8555   */\n      0x00\n        /* \"#utility.yul\":8589:8591   */\n      0x40\n        /* \"#utility.yul\":8578:8587   */\n      dup3\n        /* \"#utility.yul\":8574:8592   */\n      add\n        /* \"#utility.yul\":8566:8592   */\n      swap1\n      pop\n        /* \"#utility.yul\":8602:8673   */\n      tag_414\n        /* \"#utility.yul\":8670:8671   */\n      0x00\n        /* \"#utility.yul\":8659:8668   */\n      dup4\n        /* \"#utility.yul\":8655:8672   */\n      add\n        /* \"#utility.yul\":8646:8652   */\n      dup6\n        /* \"#utility.yul\":8602:8673   */\n      tag_328\n      jump\t// in\n    tag_414:\n        /* \"#utility.yul\":8683:8751   */\n      tag_415\n        /* \"#utility.yul\":8747:8749   */\n      0x20\n        /* \"#utility.yul\":8736:8745   */\n      dup4\n        /* \"#utility.yul\":8732:8750   */\n      add\n        /* \"#utility.yul\":8723:8729   */\n      dup5\n        /* \"#utility.yul\":8683:8751   */\n      tag_403\n      jump\t// in\n    tag_415:\n        /* \"#utility.yul\":8556:8758   */\n      swap4\n      swap3\n      pop\n      pop\n      pop\n      jump\t// out\n        /* \"#utility.yul\":8764:8974   */\n    tag_64:\n        /* \"#utility.yul\":8851:8855   */\n      0x00\n        /* \"#utility.yul\":8889:8891   */\n      0x20\n        /* \"#utility.yul\":8878:8887   */\n      dup3\n        /* \"#utility.yul\":8874:8892   */\n      add\n        /* \"#utility.yul\":8866:8892   */\n      swap1\n      pop\n        /* \"#utility.yul\":8902:8967   */\n      tag_417\n        /* \"#utility.yul\":8964:8965   */\n      0x00\n        /* \"#utility.yul\":8953:8962   */\n      dup4\n        /* \"#utility.yul\":8949:8966   */\n      add\n        /* \"#utility.yul\":8940:8946   */\n      dup5\n        /* \"#utility.yul\":8902:8967   */\n      tag_332\n      jump\t// in\n    tag_417:\n        /* \"#utility.yul\":8856:8974   */\n      swap3\n      swap2\n      pop\n      pop\n      jump\t// out\n        /* \"#utility.yul\":8980:9214   */\n    tag_53:\n        /* \"#utility.yul\":9079:9083   */\n      0x00\n        /* \"#utility.yul\":9117:9119   */\n      0x20\n        /* \"#utility.yul\":9106:9115   */\n      dup3\n        /* \"#utility.yul\":9102:9120   */\n      add\n        /* \"#utility.yul\":9094:9120   */\n      swap1\n      pop\n        /* \"#utility.yul\":9130:9207   */\n      tag_419\n        /* \"#utility.yul\":9204:9205   */\n      0x00\n        /* \"#utility.yul\":9193:9202   */\n      dup4\n        /* \"#utility.yul\":9189:9206   */\n      add\n        /* \"#utility.yul\":9180:9186   */\n      dup5\n        /* \"#utility.yul\":9130:9207   */\n      tag_336\n      jump\t// in\n    tag_419:\n        /* \"#utility.yul\":9084:9214   */\n      swap3\n      swap2\n      pop\n      pop\n      jump\t// out\n        /* \"#utility.yul\":9220:9533   */\n    tag_28:\n        /* \"#utility.yul\":9333:9337   */\n      0x00\n        /* \"#utility.yul\":9371:9373   */\n      0x20\n        /* \"#utility.yul\":9360:9369   */\n      dup3\n        /* \"#utility.yul\":9356:9374   */\n      add\n        /* \"#utility.yul\":9348:9374   */\n      swap1\n      pop\n        /* \"#utility.yul\":9420:9429   */\n      dup2\n        /* \"#utility.yul\":9414:9418   */\n      dup2\n        /* \"#utility.yul\":9410:9430   */\n      sub\n        /* \"#utility.yul\":9406:9407   */\n      0x00\n        /* \"#utility.yul\":9395:9404   */\n      dup4\n        /* \"#utility.yul\":9391:9408   */\n      add\n        /* \"#utility.yul\":9384:9431   */\n      mstore\n        /* \"#utility.yul\":9448:9526   */\n      tag_421\n        /* \"#utility.yul\":9521:9525   */\n      dup2\n        /* \"#utility.yul\":9512:9518   */\n      dup5\n        /* \"#utility.yul\":9448:9526   */\n      tag_340\n      jump\t// in\n    tag_421:\n        /* \"#utility.yul\":9440:9526   */\n      swap1\n      pop\n        /* \"#utility.yul\":9338:9533   */\n      swap3\n      swap2\n      pop\n      pop\n      jump\t// out\n        /* \"#utility.yul\":9539:9950   */\n    tag_34:\n        /* \"#utility.yul\":9674:9678   */\n      0x00\n        /* \"#utility.yul\":9712:9714   */\n      0x40\n        /* \"#utility.yul\":9701:9710   */\n      dup3\n        /* \"#utility.yul\":9697:9715   */\n      add\n        /* \"#utility.yul\":9689:9715   */\n      swap1\n      pop\n        /* \"#utility.yul\":9761:9770   */\n      dup2\n        /* \"#utility.yul\":9755:9759   */\n      dup2\n        /* \"#utility.yul\":9751:9771   */\n      sub\n        /* \"#utility.yul\":9747:9748   */\n      0x00\n        /* \"#utility.yul\":9736:9745   */\n      dup4\n        /* \"#utility.yul\":9732:9749   */\n      add\n        /* \"#utility.yul\":9725:9772   */\n      mstore\n        /* \"#utility.yul\":9789:9867   */\n      tag_423\n        /* \"#utility.yul\":9862:9866   */\n      dup2\n        /* \"#utility.yul\":9853:9859   */\n      dup6\n        /* \"#utility.yul\":9789:9867   */\n      tag_340\n      jump\t// in\n    tag_423:\n        /* \"#utility.yul\":9781:9867   */\n      swap1\n      pop\n        /* \"#utility.yul\":9877:9943   */\n      tag_424\n        /* \"#utility.yul\":9939:9941   */\n      0x20\n        /* \"#utility.yul\":9928:9937   */\n      dup4\n        /* \"#utility.yul\":9924:9942   */\n      add\n        /* \"#utility.yul\":9915:9921   */\n      dup5\n        /* \"#utility.yul\":9877:9943   */\n      tag_332\n      jump\t// in\n    tag_424:\n        /* \"#utility.yul\":9679:9950   */\n      swap4\n      swap3\n      pop\n      pop\n      pop\n      jump\t// out\n        /* \"#utility.yul\":9956:10375   */\n    tag_190:\n        /* \"#utility.yul\":10122:10126   */\n      0x00\n        /* \"#utility.yul\":10160:10162   */\n      0x20\n        /* \"#utility.yul\":10149:10158   */\n      dup3\n        /* \"#utility.yul\":10145:10163   */\n      add\n        /* \"#utility.yul\":10137:10163   */\n      swap1\n      pop\n        /* \"#utility.yul\":10209:10218   */\n      dup2\n        /* \"#utility.yul\":10203:10207   */\n      dup2\n        /* \"#utility.yul\":10199:10219   */\n      sub\n        /* \"#utility.yul\":10195:10196   */\n      0x00\n        /* \"#utility.yul\":10184:10193   */\n      dup4\n        /* \"#utility.yul\":10180:10197   */\n      add\n        /* \"#utility.yul\":10173:10220   */\n      mstore\n        /* \"#utility.yul\":10237:10368   */\n      tag_426\n        /* \"#utility.yul\":10363:10367   */\n      dup2\n        /* \"#utility.yul\":10237:10368   */\n      tag_368\n      jump\t// in\n    tag_426:\n        /* \"#utility.yul\":10229:10368   */\n      swap1\n      pop\n        /* \"#utility.yul\":10127:10375   */\n      swap2\n      swap1\n      pop\n      jump\t// out\n        /* \"#utility.yul\":10381:10800   */\n    tag_212:\n        /* \"#utility.yul\":10547:10551   */\n      0x00\n        /* \"#utility.yul\":10585:10587   */\n      0x20\n        /* \"#utility.yul\":10574:10583   */\n      dup3\n        /* \"#utility.yul\":10570:10588   */\n      add\n        /* \"#utility.yul\":10562:10588   */\n      swap1\n      pop\n        /* \"#utility.yul\":10634:10643   */\n      dup2\n        /* \"#utility.yul\":10628:10632   */\n      dup2\n        /* \"#utility.yul\":10624:10644   */\n      sub\n        /* \"#utility.yul\":10620:10621   */\n      0x00\n        /* \"#utility.yul\":10609:10618   */\n      dup4\n        /* \"#utility.yul\":10605:10622   */\n      add\n        /* \"#utility.yul\":10598:10645   */\n      mstore\n        /* \"#utility.yul\":10662:10793   */\n      tag_428\n        /* \"#utility.yul\":10788:10792   */\n      dup2\n        /* \"#utility.yul\":10662:10793   */\n      tag_373\n      jump\t// in\n    tag_428:\n        /* \"#utility.yul\":10654:10793   */\n      swap1\n      pop\n        /* \"#utility.yul\":10552:10800   */\n      swap2\n      swap1\n      pop\n      jump\t// out\n        /* \"#utility.yul\":10806:11225   */\n    tag_120:\n        /* \"#utility.yul\":10972:10976   */\n      0x00\n        /* \"#utility.yul\":11010:11012   */\n      0x20\n        /* \"#utility.yul\":10999:11008   */\n      dup3\n        /* \"#utility.yul\":10995:11013   */\n      add\n        /* \"#utility.yul\":10987:11013   */\n      swap1\n      pop\n        /* \"#utility.yul\":11059:11068   */\n      dup2\n        /* \"#utility.yul\":11053:11057   */\n      dup2\n        /* \"#utility.yul\":11049:11069   */\n      sub\n        /* \"#utility.yul\":11045:11046   */\n      0x00\n        /* \"#utility.yul\":11034:11043   */\n      dup4\n        /* \"#utility.yul\":11030:11047   */\n      add\n        /* \"#utility.yul\":11023:11070   */\n      mstore\n        /* \"#utility.yul\":11087:11218   */\n      tag_430\n        /* \"#utility.yul\":11213:11217   */\n      dup2\n        /* \"#utility.yul\":11087:11218   */\n      tag_378\n      jump\t// in\n    tag_430:\n        /* \"#utility.yul\":11079:11218   */\n      swap1\n      pop\n        /* \"#utility.yul\":10977:11225   */\n      swap2\n      swap1\n      pop\n      jump\t// out\n        /* \"#utility.yul\":11231:11650   */\n    tag_116:\n        /* \"#utility.yul\":11397:11401   */\n      0x00\n        /* \"#utility.yul\":11435:11437   */\n      0x20\n        /* \"#utility.yul\":11424:11433   */\n      dup3\n        /* \"#utility.yul\":11420:11438   */\n      add\n        /* \"#utility.yul\":11412:11438   */\n      swap1\n      pop\n        /* \"#utility.yul\":11484:11493   */\n      dup2\n        /* \"#utility.yul\":11478:11482   */\n      dup2\n        /* \"#utility.yul\":11474:11494   */\n      sub\n        /* \"#utility.yul\":11470:11471   */\n      0x00\n        /* \"#utility.yul\":11459:11468   */\n      dup4\n        /* \"#utility.yul\":11455:11472   */\n      add\n        /* \"#utility.yul\":11448:11495   */\n      mstore\n        /* \"#utility.yul\":11512:11643   */\n      tag_432\n        /* \"#utility.yul\":11638:11642   */\n      dup2\n        /* \"#utility.yul\":11512:11643   */\n      tag_383\n      jump\t// in\n    tag_432:\n        /* \"#utility.yul\":11504:11643   */\n      swap1\n      pop\n        /* \"#utility.yul\":11402:11650   */\n      swap2\n      swap1\n      pop\n      jump\t// out\n        /* \"#utility.yul\":11656:12075   */\n    tag_107:\n        /* \"#utility.yul\":11822:11826   */\n      0x00\n        /* \"#utility.yul\":11860:11862   */\n      0x20\n        /* \"#utility.yul\":11849:11858   */\n      dup3\n        /* \"#utility.yul\":11845:11863   */\n      add\n        /* \"#utility.yul\":11837:11863   */\n      swap1\n      pop\n        /* \"#utility.yul\":11909:11918   */\n      dup2\n        /* \"#utility.yul\":11903:11907   */\n      dup2\n        /* \"#utility.yul\":11899:11919   */\n      sub\n        /* \"#utility.yul\":11895:11896   */\n      0x00\n        /* \"#utility.yul\":11884:11893   */\n      dup4\n        /* \"#utility.yul\":11880:11897   */\n      add\n        /* \"#utility.yul\":11873:11920   */\n      mstore\n        /* \"#utility.yul\":11937:12068   */\n      tag_434\n        /* \"#utility.yul\":12063:12067   */\n      dup2\n        /* \"#utility.yul\":11937:12068   */\n      tag_388\n      jump\t// in\n    tag_434:\n        /* \"#utility.yul\":11929:12068   */\n      swap1\n      pop\n        /* \"#utility.yul\":11827:12075   */\n      swap2\n      swap1\n      pop\n      jump\t// out\n        /* \"#utility.yul\":12081:12500   */\n    tag_102:\n        /* \"#utility.yul\":12247:12251   */\n      0x00\n        /* \"#utility.yul\":12285:12287   */\n      0x20\n        /* \"#utility.yul\":12274:12283   */\n      dup3\n        /* \"#utility.yul\":12270:12288   */\n      add\n        /* \"#utility.yul\":12262:12288   */\n      swap1\n      pop\n        /* \"#utility.yul\":12334:12343   */\n      dup2\n        /* \"#utility.yul\":12328:12332   */\n      dup2\n        /* \"#utility.yul\":12324:12344   */\n      sub\n        /* \"#utility.yul\":12320:12321   */\n      0x00\n        /* \"#utility.yul\":12309:12318   */\n      dup4\n        /* \"#utility.yul\":12305:12322   */\n      add\n        /* \"#utility.yul\":12298:12345   */\n      mstore\n        /* \"#utility.yul\":12362:12493   */\n      tag_436\n        /* \"#utility.yul\":12488:12492   */\n      dup2\n        /* \"#utility.yul\":12362:12493   */\n      tag_393\n      jump\t// in\n    tag_436:\n        /* \"#utility.yul\":12354:12493   */\n      swap1\n      pop\n        /* \"#utility.yul\":12252:12500   */\n      swap2\n      swap1\n      pop\n      jump\t// out\n        /* \"#utility.yul\":12506:12925   */\n    tag_159:\n        /* \"#utility.yul\":12672:12676   */\n      0x00\n        /* \"#utility.yul\":12710:12712   */\n      0x20\n        /* \"#utility.yul\":12699:12708   */\n      dup3\n        /* \"#utility.yul\":12695:12713   */\n      add\n        /* \"#utility.yul\":12687:12713   */\n      swap1\n      pop\n        /* \"#utility.yul\":12759:12768   */\n      dup2\n        /* \"#utility.yul\":12753:12757   */\n      dup2\n        /* \"#utility.yul\":12749:12769   */\n      sub\n        /* \"#utility.yul\":12745:12746   */\n      0x00\n        /* \"#utility.yul\":12734:12743   */\n      dup4\n        /* \"#utility.yul\":12730:12747   */\n      add\n        /* \"#utility.yul\":12723:12770   */\n      mstore\n        /* \"#utility.yul\":12787:12918   */\n      tag_438\n        /* \"#utility.yul\":12913:12917   */\n      dup2\n        /* \"#utility.yul\":12787:12918   */\n      tag_398\n      jump\t// in\n    tag_438:\n        /* \"#utility.yul\":12779:12918   */\n      swap1\n      pop\n        /* \"#utility.yul\":12677:12925   */\n      swap2\n      swap1\n      pop\n      jump\t// out\n        /* \"#utility.yul\":12931:13145   */\n    tag_40:\n        /* \"#utility.yul\":13020:13024   */\n      0x00\n        /* \"#utility.yul\":13058:13060   */\n      0x20\n        /* \"#utility.yul\":13047:13056   */\n      dup3\n        /* \"#utility.yul\":13043:13061   */\n      add\n        /* \"#utility.yul\":13035:13061   */\n      swap1\n      pop\n        /* \"#utility.yul\":13071:13138   */\n      tag_440\n        /* \"#utility.yul\":13135:13136   */\n      0x00\n        /* \"#utility.yul\":13124:13133   */\n      dup4\n        /* \"#utility.yul\":13120:13137   */\n      add\n        /* \"#utility.yul\":13111:13117   */\n      dup5\n        /* \"#utility.yul\":13071:13138   */\n      tag_403\n      jump\t// in\n    tag_440:\n        /* \"#utility.yul\":13025:13145   */\n      swap3\n      swap2\n      pop\n      pop\n      jump\t// out\n        /* \"#utility.yul\":13151:13280   */\n    tag_285:\n        /* \"#utility.yul\":13185:13191   */\n      0x00\n        /* \"#utility.yul\":13212:13232   */\n      tag_442\n      tag_443\n      jump\t// in\n    tag_442:\n        /* \"#utility.yul\":13202:13232   */\n      swap1\n      pop\n        /* \"#utility.yul\":13241:13274   */\n      tag_444\n        /* \"#utility.yul\":13269:13273   */\n      dup3\n        /* \"#utility.yul\":13261:13267   */\n      dup3\n        /* \"#utility.yul\":13241:13274   */\n      tag_445\n      jump\t// in\n    tag_444:\n        /* \"#utility.yul\":13192:13280   */\n      swap2\n      swap1\n      pop\n      jump\t// out\n        /* \"#utility.yul\":13286:13361   */\n    tag_443:\n        /* \"#utility.yul\":13319:13325   */\n      0x00\n        /* \"#utility.yul\":13352:13354   */\n      0x40\n        /* \"#utility.yul\":13346:13355   */\n      mload\n        /* \"#utility.yul\":13336:13355   */\n      swap1\n      pop\n        /* \"#utility.yul\":13326:13361   */\n      swap1\n      jump\t// out\n        /* \"#utility.yul\":13367:13675   */\n    tag_284:\n        /* \"#utility.yul\":13429:13433   */\n      0x00\n        /* \"#utility.yul\":13519:13537   */\n      0xffffffffffffffff\n        /* \"#utility.yul\":13511:13517   */\n      dup3\n        /* \"#utility.yul\":13508:13538   */\n      gt\n        /* \"#utility.yul\":13505:13507   */\n      iszero\n      tag_448\n      jumpi\n        /* \"#utility.yul\":13541:13559   */\n      tag_449\n      tag_450\n      jump\t// in\n    tag_449:\n        /* \"#utility.yul\":13505:13507   */\n    tag_448:\n        /* \"#utility.yul\":13579:13608   */\n      tag_451\n        /* \"#utility.yul\":13601:13607   */\n      dup3\n        /* \"#utility.yul\":13579:13608   */\n      tag_349\n      jump\t// in\n    tag_451:\n        /* \"#utility.yul\":13571:13608   */\n      swap1\n      pop\n        /* \"#utility.yul\":13663:13667   */\n      0x20\n        /* \"#utility.yul\":13657:13661   */\n      dup2\n        /* \"#utility.yul\":13653:13668   */\n      add\n        /* \"#utility.yul\":13645:13668   */\n      swap1\n      pop\n        /* \"#utility.yul\":13434:13675   */\n      swap2\n      swap1\n      pop\n      jump\t// out\n        /* \"#utility.yul\":13681:13822   */\n    tag_364:\n        /* \"#utility.yul\":13730:13734   */\n      0x00\n        /* \"#utility.yul\":13753:13756   */\n      dup2\n        /* \"#utility.yul\":13745:13756   */\n      swap1\n      pop\n        /* \"#utility.yul\":13776:13779   */\n      dup2\n        /* \"#utility.yul\":13773:13774   */\n      0x00\n        /* \"#utility.yul\":13766:13780   */\n      mstore\n        /* \"#utility.yul\":13810:13814   */\n      0x20\n        /* \"#utility.yul\":13807:13808   */\n      0x00\n        /* \"#utility.yul\":13797:13815   */\n      keccak256\n        /* \"#utility.yul\":13789:13815   */\n      swap1\n      pop\n        /* \"#utility.yul\":13735:13822   */\n      swap2\n      swap1\n      pop\n      jump\t// out\n        /* \"#utility.yul\":13828:13927   */\n    tag_343:\n        /* \"#utility.yul\":13880:13886   */\n      0x00\n        /* \"#utility.yul\":13914:13919   */\n      dup2\n        /* \"#utility.yul\":13908:13920   */\n      mload\n        /* \"#utility.yul\":13898:13920   */\n      swap1\n      pop\n        /* \"#utility.yul\":13887:13927   */\n      swap2\n      swap1\n      pop\n      jump\t// out\n        /* \"#utility.yul\":13933:14102   */\n    tag_345:\n        /* \"#utility.yul\":14017:14028   */\n      0x00\n        /* \"#utility.yul\":14051:14057   */\n      dup3\n        /* \"#utility.yul\":14046:14049   */\n      dup3\n        /* \"#utility.yul\":14039:14058   */\n      mstore\n        /* \"#utility.yul\":14091:14095   */\n      0x20\n        /* \"#utility.yul\":14086:14089   */\n      dup3\n        /* \"#utility.yul\":14082:14096   */\n      add\n        /* \"#utility.yul\":14067:14096   */\n      swap1\n      pop\n        /* \"#utility.yul\":14029:14102   */\n      swap3\n      swap2\n      pop\n      pop\n      jump\t// out\n        /* \"#utility.yul\":14108:14256   */\n    tag_354:\n        /* \"#utility.yul\":14210:14221   */\n      0x00\n        /* \"#utility.yul\":14247:14250   */\n      dup2\n        /* \"#utility.yul\":14232:14250   */\n      swap1\n      pop\n        /* \"#utility.yul\":14222:14256   */\n      swap3\n      swap2\n      pop\n      pop\n      jump\t// out\n        /* \"#utility.yul\":14262:14499   */\n    tag_186:\n        /* \"#utility.yul\":14300:14303   */\n      0x00\n        /* \"#utility.yul\":14319:14337   */\n      tag_457\n        /* \"#utility.yul\":14335:14336   */\n      dup3\n        /* \"#utility.yul\":14319:14337   */\n      tag_406\n      jump\t// in\n    tag_457:\n        /* \"#utility.yul\":14314:14337   */\n      swap2\n      pop\n        /* \"#utility.yul\":14351:14369   */\n      tag_458\n        /* \"#utility.yul\":14367:14368   */\n      dup4\n        /* \"#utility.yul\":14351:14369   */\n      tag_406\n      jump\t// in\n    tag_458:\n        /* \"#utility.yul\":14346:14369   */\n      swap3\n      pop\n        /* \"#utility.yul\":14441:14442   */\n      dup3\n        /* \"#utility.yul\":14435:14439   */\n      0xff\n        /* \"#utility.yul\":14431:14443   */\n      sub\n        /* \"#utility.yul\":14428:14429   */\n      dup3\n        /* \"#utility.yul\":14425:14444   */\n      gt\n        /* \"#utility.yul\":14422:14424   */\n      iszero\n      tag_459\n      jumpi\n        /* \"#utility.yul\":14447:14465   */\n      tag_460\n      tag_461\n      jump\t// in\n    tag_460:\n        /* \"#utility.yul\":14422:14424   */\n    tag_459:\n        /* \"#utility.yul\":14491:14492   */\n      dup3\n        /* \"#utility.yul\":14488:14489   */\n      dup3\n        /* \"#utility.yul\":14484:14493   */\n      add\n        /* \"#utility.yul\":14477:14493   */\n      swap1\n      pop\n        /* \"#utility.yul\":14304:14499   */\n      swap3\n      swap2\n      pop\n      pop\n      jump\t// out\n        /* \"#utility.yul\":14505:14684   */\n    tag_184:\n        /* \"#utility.yul\":14543:14544   */\n      0x00\n        /* \"#utility.yul\":14560:14578   */\n      tag_463\n        /* \"#utility.yul\":14576:14577   */\n      dup3\n        /* \"#utility.yul\":14560:14578   */\n      tag_406\n      jump\t// in\n    tag_463:\n        /* \"#utility.yul\":14555:14578   */\n      swap2\n      pop\n        /* \"#utility.yul\":14592:14610   */\n      tag_464\n        /* \"#utility.yul\":14608:14609   */\n      dup4\n        /* \"#utility.yul\":14592:14610   */\n      tag_406\n      jump\t// in\n    tag_464:\n        /* \"#utility.yul\":14587:14610   */\n      swap3\n      pop\n        /* \"#utility.yul\":14629:14630   */\n      dup3\n        /* \"#utility.yul\":14619:14621   */\n      tag_465\n      jumpi\n        /* \"#utility.yul\":14634:14652   */\n      tag_466\n      tag_467\n      jump\t// in\n    tag_466:\n        /* \"#utility.yul\":14619:14621   */\n    tag_465:\n        /* \"#utility.yul\":14676:14677   */\n      dup3\n        /* \"#utility.yul\":14673:14674   */\n      dup3\n        /* \"#utility.yul\":14669:14678   */\n      div\n        /* \"#utility.yul\":14664:14678   */\n      swap1\n      pop\n        /* \"#utility.yul\":14545:14684   */\n      swap3\n      swap2\n      pop\n      pop\n      jump\t// out\n        /* \"#utility.yul\":14690:14786   */\n    tag_331:\n        /* \"#utility.yul\":14727:14734   */\n      0x00\n        /* \"#utility.yul\":14756:14780   */\n      tag_469\n        /* \"#utility.yul\":14774:14779   */\n      dup3\n        /* \"#utility.yul\":14756:14780   */\n      tag_470\n      jump\t// in\n    tag_469:\n        /* \"#utility.yul\":14745:14780   */\n      swap1\n      pop\n        /* \"#utility.yul\":14735:14786   */\n      swap2\n      swap1\n      pop\n      jump\t// out\n        /* \"#utility.yul\":14792:14882   */\n    tag_335:\n        /* \"#utility.yul\":14826:14833   */\n      0x00\n        /* \"#utility.yul\":14869:14874   */\n      dup2\n        /* \"#utility.yul\":14862:14875   */\n      iszero\n        /* \"#utility.yul\":14855:14876   */\n      iszero\n        /* \"#utility.yul\":14844:14876   */\n      swap1\n      pop\n        /* \"#utility.yul\":14834:14882   */\n      swap2\n      swap1\n      pop\n      jump\t// out\n        /* \"#utility.yul\":14888:15015   */\n    tag_472:\n        /* \"#utility.yul\":14933:14940   */\n      0x00\n        /* \"#utility.yul\":14962:14967   */\n      dup2\n        /* \"#utility.yul\":14951:14967   */\n      swap1\n      pop\n        /* \"#utility.yul\":14968:15009   */\n      tag_474\n        /* \"#utility.yul\":15003:15008   */\n      dup3\n        /* \"#utility.yul\":14968:15009   */\n      tag_475\n      jump\t// in\n    tag_474:\n        /* \"#utility.yul\":14941:15015   */\n      swap2\n      swap1\n      pop\n      jump\t// out\n        /* \"#utility.yul\":15021:15147   */\n    tag_470:\n        /* \"#utility.yul\":15058:15065   */\n      0x00\n        /* \"#utility.yul\":15098:15140   */\n      0xffffffffffffffffffffffffffffffffffffffff\n        /* \"#utility.yul\":15091:15096   */\n      dup3\n        /* \"#utility.yul\":15087:15141   */\n      and\n        /* \"#utility.yul\":15076:15141   */\n      swap1\n      pop\n        /* \"#utility.yul\":15066:15147   */\n      swap2\n      swap1\n      pop\n      jump\t// out\n        /* \"#utility.yul\":15153:15239   */\n    tag_406:\n        /* \"#utility.yul\":15188:15195   */\n      0x00\n        /* \"#utility.yul\":15228:15232   */\n      0xff\n        /* \"#utility.yul\":15221:15226   */\n      dup3\n        /* \"#utility.yul\":15217:15233   */\n      and\n        /* \"#utility.yul\":15206:15233   */\n      swap1\n      pop\n        /* \"#utility.yul\":15196:15239   */\n      swap2\n      swap1\n      pop\n      jump\t// out\n        /* \"#utility.yul\":15245:15372   */\n    tag_339:\n        /* \"#utility.yul\":15301:15310   */\n      0x00\n        /* \"#utility.yul\":15334:15366   */\n      tag_479\n        /* \"#utility.yul\":15360:15365   */\n      dup3\n        /* \"#utility.yul\":15334:15366   */\n      tag_472\n      jump\t// in\n    tag_479:\n        /* \"#utility.yul\":15321:15366   */\n      swap1\n      pop\n        /* \"#utility.yul\":15311:15372   */\n      swap2\n      swap1\n      pop\n      jump\t// out\n        /* \"#utility.yul\":15378:15532   */\n    tag_290:\n        /* \"#utility.yul\":15462:15468   */\n      dup3\n        /* \"#utility.yul\":15457:15460   */\n      dup2\n        /* \"#utility.yul\":15452:15455   */\n      dup4\n        /* \"#utility.yul\":15439:15469   */\n      calldatacopy\n        /* \"#utility.yul\":15524:15525   */\n      0x00\n        /* \"#utility.yul\":15515:15521   */\n      dup4\n        /* \"#utility.yul\":15510:15513   */\n      dup4\n        /* \"#utility.yul\":15506:15522   */\n      add\n        /* \"#utility.yul\":15499:15526   */\n      mstore\n        /* \"#utility.yul\":15429:15532   */\n      pop\n      pop\n      pop\n      jump\t// out\n        /* \"#utility.yul\":15538:15845   */\n    tag_347:\n        /* \"#utility.yul\":15606:15607   */\n      0x00\n        /* \"#utility.yul\":15616:15729   */\n    tag_482:\n        /* \"#utility.yul\":15630:15636   */\n      dup4\n        /* \"#utility.yul\":15627:15628   */\n      dup2\n        /* \"#utility.yul\":15624:15637   */\n      lt\n        /* \"#utility.yul\":15616:15729   */\n      iszero\n      tag_484\n      jumpi\n        /* \"#utility.yul\":15715:15716   */\n      dup1\n        /* \"#utility.yul\":15710:15713   */\n      dup3\n        /* \"#utility.yul\":15706:15717   */\n      add\n        /* \"#utility.yul\":15700:15718   */\n      mload\n        /* \"#utility.yul\":15696:15697   */\n      dup2\n        /* \"#utility.yul\":15691:15694   */\n      dup5\n        /* \"#utility.yul\":15687:15698   */\n      add\n        /* \"#utility.yul\":15680:15719   */\n      mstore\n        /* \"#utility.yul\":15652:15654   */\n      0x20\n        /* \"#utility.yul\":15649:15650   */\n      dup2\n        /* \"#utility.yul\":15645:15655   */\n      add\n        /* \"#utility.yul\":15640:15655   */\n      swap1\n      pop\n        /* \"#utility.yul\":15616:15729   */\n      jump(tag_482)\n    tag_484:\n        /* \"#utility.yul\":15747:15753   */\n      dup4\n        /* \"#utility.yul\":15744:15745   */\n      dup2\n        /* \"#utility.yul\":15741:15754   */\n      gt\n        /* \"#utility.yul\":15738:15740   */\n      iszero\n      tag_485\n      jumpi\n        /* \"#utility.yul\":15827:15828   */\n      0x00\n        /* \"#utility.yul\":15818:15824   */\n      dup5\n        /* \"#utility.yul\":15813:15816   */\n      dup5\n        /* \"#utility.yul\":15809:15825   */\n      add\n        /* \"#utility.yul\":15802:15829   */\n      mstore\n        /* \"#utility.yul\":15738:15740   */\n    tag_485:\n        /* \"#utility.yul\":15587:15845   */\n      pop\n      pop\n      pop\n      pop\n      jump\t// out\n        /* \"#utility.yul\":15851:16171   */\n    tag_88:\n        /* \"#utility.yul\":15895:15901   */\n      0x00\n        /* \"#utility.yul\":15932:15933   */\n      0x02\n        /* \"#utility.yul\":15926:15930   */\n      dup3\n        /* \"#utility.yul\":15922:15934   */\n      div\n        /* \"#utility.yul\":15912:15934   */\n      swap1\n      pop\n        /* \"#utility.yul\":15979:15980   */\n      0x01\n        /* \"#utility.yul\":15973:15977   */\n      dup3\n        /* \"#utility.yul\":15969:15981   */\n      and\n        /* \"#utility.yul\":16000:16018   */\n      dup1\n        /* \"#utility.yul\":15990:15992   */\n      tag_487\n      jumpi\n        /* \"#utility.yul\":16056:16060   */\n      0x7f\n        /* \"#utility.yul\":16048:16054   */\n      dup3\n        /* \"#utility.yul\":16044:16061   */\n      and\n        /* \"#utility.yul\":16034:16061   */\n      swap2\n      pop\n        /* \"#utility.yul\":15990:15992   */\n    tag_487:\n        /* \"#utility.yul\":16118:16120   */\n      0x20\n        /* \"#utility.yul\":16110:16116   */\n      dup3\n        /* \"#utility.yul\":16107:16121   */\n      lt\n        /* \"#utility.yul\":16087:16105   */\n      dup2\n        /* \"#utility.yul\":16084:16122   */\n      eq\n        /* \"#utility.yul\":16081:16083   */\n      iszero\n      tag_488\n      jumpi\n        /* \"#utility.yul\":16137:16155   */\n      tag_489\n      tag_490\n      jump\t// in\n    tag_489:\n        /* \"#utility.yul\":16081:16083   */\n    tag_488:\n        /* \"#utility.yul\":15902:16171   */\n      pop\n      swap2\n      swap1\n      pop\n      jump\t// out\n        /* \"#utility.yul\":16177:16458   */\n    tag_445:\n        /* \"#utility.yul\":16260:16287   */\n      tag_492\n        /* \"#utility.yul\":16282:16286   */\n      dup3\n        /* \"#utility.yul\":16260:16287   */\n      tag_349\n      jump\t// in\n    tag_492:\n        /* \"#utility.yul\":16252:16258   */\n      dup2\n        /* \"#utility.yul\":16248:16288   */\n      add\n        /* \"#utility.yul\":16390:16396   */\n      dup2\n        /* \"#utility.yul\":16378:16388   */\n      dup2\n        /* \"#utility.yul\":16375:16397   */\n      lt\n        /* \"#utility.yul\":16354:16372   */\n      0xffffffffffffffff\n        /* \"#utility.yul\":16342:16352   */\n      dup3\n        /* \"#utility.yul\":16339:16373   */\n      gt\n        /* \"#utility.yul\":16336:16398   */\n      or\n        /* \"#utility.yul\":16333:16335   */\n      iszero\n      tag_493\n      jumpi\n        /* \"#utility.yul\":16401:16419   */\n      tag_494\n      tag_450\n      jump\t// in\n    tag_494:\n        /* \"#utility.yul\":16333:16335   */\n    tag_493:\n        /* \"#utility.yul\":16441:16451   */\n      dup1\n        /* \"#utility.yul\":16437:16439   */\n      0x40\n        /* \"#utility.yul\":16430:16452   */\n      mstore\n        /* \"#utility.yul\":16220:16458   */\n      pop\n      pop\n      pop\n      jump\t// out\n        /* \"#utility.yul\":16464:16631   */\n    tag_125:\n        /* \"#utility.yul\":16501:16504   */\n      0x00\n        /* \"#utility.yul\":16524:16546   */\n      tag_496\n        /* \"#utility.yul\":16540:16545   */\n      dup3\n        /* \"#utility.yul\":16524:16546   */\n      tag_406\n      jump\t// in\n    tag_496:\n        /* \"#utility.yul\":16515:16546   */\n      swap2\n      pop\n        /* \"#utility.yul\":16568:16572   */\n      0xff\n        /* \"#utility.yul\":16561:16566   */\n      dup3\n        /* \"#utility.yul\":16558:16573   */\n      eq\n        /* \"#utility.yul\":16555:16557   */\n      iszero\n      tag_497\n      jumpi\n        /* \"#utility.yul\":16576:16594   */\n      tag_498\n      tag_461\n      jump\t// in\n    tag_498:\n        /* \"#utility.yul\":16555:16557   */\n    tag_497:\n        /* \"#utility.yul\":16623:16624   */\n      0x01\n        /* \"#utility.yul\":16616:16621   */\n      dup3\n        /* \"#utility.yul\":16612:16625   */\n      add\n        /* \"#utility.yul\":16605:16625   */\n      swap1\n      pop\n        /* \"#utility.yul\":16505:16631   */\n      swap2\n      swap1\n      pop\n      jump\t// out\n        /* \"#utility.yul\":16637:16817   */\n    tag_461:\n        /* \"#utility.yul\":16685:16762   */\n      0x4e487b7100000000000000000000000000000000000000000000000000000000\n        /* \"#utility.yul\":16682:16683   */\n      0x00\n        /* \"#utility.yul\":16675:16763   */\n      mstore\n        /* \"#utility.yul\":16782:16786   */\n      0x11\n        /* \"#utility.yul\":16779:16780   */\n      0x04\n        /* \"#utility.yul\":16772:16787   */\n      mstore\n        /* \"#utility.yul\":16806:16810   */\n      0x24\n        /* \"#utility.yul\":16803:16804   */\n      0x00\n        /* \"#utility.yul\":16796:16811   */\n      revert\n        /* \"#utility.yul\":16823:17003   */\n    tag_467:\n        /* \"#utility.yul\":16871:16948   */\n      0x4e487b7100000000000000000000000000000000000000000000000000000000\n        /* \"#utility.yul\":16868:16869   */\n      0x00\n        /* \"#utility.yul\":16861:16949   */\n      mstore\n        /* \"#utility.yul\":16968:16972   */\n      0x12\n        /* \"#utility.yul\":16965:16966   */\n      0x04\n        /* \"#utility.yul\":16958:16973   */\n      mstore\n        /* \"#utility.yul\":16992:16996   */\n      0x24\n        /* \"#utility.yul\":16989:16990   */\n      0x00\n        /* \"#utility.yul\":16982:16997   */\n      revert\n        /* \"#utility.yul\":17009:17189   */\n    tag_111:\n        /* \"#utility.yul\":17057:17134   */\n      0x4e487b7100000000000000000000000000000000000000000000000000000000\n        /* \"#utility.yul\":17054:17055   */\n      0x00\n        /* \"#utility.yul\":17047:17135   */\n      mstore\n        /* \"#utility.yul\":17154:17158   */\n      0x21\n        /* \"#utility.yul\":17151:17152   */\n      0x04\n        /* \"#utility.yul\":17144:17159   */\n      mstore\n        /* \"#utility.yul\":17178:17182   */\n      0x24\n        /* \"#utility.yul\":17175:17176   */\n      0x00\n        /* \"#utility.yul\":17168:17183   */\n      revert\n        /* \"#utility.yul\":17195:17375   */\n    tag_490:\n        /* \"#utility.yul\":17243:17320   */\n      0x4e487b7100000000000000000000000000000000000000000000000000000000\n        /* \"#utility.yul\":17240:17241   */\n      0x00\n        /* \"#utility.yul\":17233:17321   */\n      mstore\n        /* \"#utility.yul\":17340:17344   */\n      0x22\n        /* \"#utility.yul\":17337:17338   */\n      0x04\n        /* \"#utility.yul\":17330:17345   */\n      mstore\n        /* \"#utility.yul\":17364:17368   */\n      0x24\n        /* \"#utility.yul\":17361:17362   */\n      0x00\n        /* \"#utility.yul\":17354:17369   */\n      revert\n        /* \"#utility.yul\":17381:17561   */\n    tag_450:\n        /* \"#utility.yul\":17429:17506   */\n      0x4e487b7100000000000000000000000000000000000000000000000000000000\n        /* \"#utility.yul\":17426:17427   */\n      0x00\n        /* \"#utility.yul\":17419:17507   */\n      mstore\n        /* \"#utility.yul\":17526:17530   */\n      0x41\n        /* \"#utility.yul\":17523:17524   */\n      0x04\n        /* \"#utility.yul\":17516:17531   */\n      mstore\n        /* \"#utility.yul\":17550:17554   */\n      0x24\n        /* \"#utility.yul\":17547:17548   */\n      0x00\n        /* \"#utility.yul\":17540:17555   */\n      revert\n        /* \"#utility.yul\":17567:17684   */\n    tag_299:\n        /* \"#utility.yul\":17676:17677   */\n      0x00\n        /* \"#utility.yul\":17673:17674   */\n      dup1\n        /* \"#utility.yul\":17666:17678   */\n      revert\n        /* \"#utility.yul\":17690:17807   */\n    tag_288:\n        /* \"#utility.yul\":17799:17800   */\n      0x00\n        /* \"#utility.yul\":17796:17797   */\n      dup1\n        /* \"#utility.yul\":17789:17801   */\n      revert\n        /* \"#utility.yul\":17813:17930   */\n    tag_316:\n        /* \"#utility.yul\":17922:17923   */\n      0x00\n        /* \"#utility.yul\":17919:17920   */\n      dup1\n        /* \"#utility.yul\":17912:17924   */\n      revert\n        /* \"#utility.yul\":17936:18053   */\n    tag_308:\n        /* \"#utility.yul\":18045:18046   */\n      0x00\n        /* \"#utility.yul\":18042:18043   */\n      dup1\n        /* \"#utility.yul\":18035:18047   */\n      revert\n        /* \"#utility.yul\":18059:18161   */\n    tag_349:\n        /* \"#utility.yul\":18100:18106   */\n      0x00\n        /* \"#utility.yul\":18151:18153   */\n      0x1f\n        /* \"#utility.yul\":18147:18154   */\n      not\n        /* \"#utility.yul\":18142:18144   */\n      0x1f\n        /* \"#utility.yul\":18135:18140   */\n      dup4\n        /* \"#utility.yul\":18131:18145   */\n      add\n        /* \"#utility.yul\":18127:18155   */\n      and\n        /* \"#utility.yul\":18117:18155   */\n      swap1\n      pop\n        /* \"#utility.yul\":18107:18161   */\n      swap2\n      swap1\n      pop\n      jump\t// out\n        /* \"#utility.yul\":18167:18392   */\n    tag_372:\n        /* \"#utility.yul\":18307:18341   */\n      0x566f74696e672071756f72756d206973206e6f74206d65742e204b6565702076\n        /* \"#utility.yul\":18303:18304   */\n      0x00\n        /* \"#utility.yul\":18295:18301   */\n      dup3\n        /* \"#utility.yul\":18291:18305   */\n      add\n        /* \"#utility.yul\":18284:18342   */\n      mstore\n        /* \"#utility.yul\":18376:18384   */\n      0x6f74696e672e0000000000000000000000000000000000000000000000000000\n        /* \"#utility.yul\":18371:18373   */\n      0x20\n        /* \"#utility.yul\":18363:18369   */\n      dup3\n        /* \"#utility.yul\":18359:18374   */\n      add\n        /* \"#utility.yul\":18352:18385   */\n      mstore\n        /* \"#utility.yul\":18273:18392   */\n      pop\n      jump\t// out\n        /* \"#utility.yul\":18398:18567   */\n    tag_377:\n        /* \"#utility.yul\":18538:18559   */\n      0x43616e206f6e6c7920766f7465206f6e63652e00000000000000000000000000\n        /* \"#utility.yul\":18534:18535   */\n      0x00\n        /* \"#utility.yul\":18526:18532   */\n      dup3\n        /* \"#utility.yul\":18522:18536   */\n      add\n        /* \"#utility.yul\":18515:18560   */\n      mstore\n        /* \"#utility.yul\":18504:18567   */\n      pop\n      jump\t// out\n        /* \"#utility.yul\":18573:18743   */\n    tag_382:\n        /* \"#utility.yul\":18713:18735   */\n      0x436f6e74726163742069732073746f707065642e000000000000000000000000\n        /* \"#utility.yul\":18709:18710   */\n      0x00\n        /* \"#utility.yul\":18701:18707   */\n      dup3\n        /* \"#utility.yul\":18697:18711   */\n      add\n        /* \"#utility.yul\":18690:18736   */\n      mstore\n        /* \"#utility.yul\":18679:18743   */\n      pop\n      jump\t// out\n        /* \"#utility.yul\":18749:18977   */\n    tag_387:\n        /* \"#utility.yul\":18889:18923   */\n      0x46756e6374696f6e2063616e206e6f742062652063616c6c656420696e207468\n        /* \"#utility.yul\":18885:18886   */\n      0x00\n        /* \"#utility.yul\":18877:18883   */\n      dup3\n        /* \"#utility.yul\":18873:18887   */\n      add\n        /* \"#utility.yul\":18866:18924   */\n      mstore\n        /* \"#utility.yul\":18958:18969   */\n      0x69732073746167652e0000000000000000000000000000000000000000000000\n        /* \"#utility.yul\":18953:18955   */\n      0x20\n        /* \"#utility.yul\":18945:18951   */\n      dup3\n        /* \"#utility.yul\":18941:18956   */\n      add\n        /* \"#utility.yul\":18934:18970   */\n      mstore\n        /* \"#utility.yul\":18855:18977   */\n      pop\n      jump\t// out\n        /* \"#utility.yul\":18983:19155   */\n    tag_392:\n        /* \"#utility.yul\":19123:19147   */\n      0x467269656e6420616c7265616479206578697374732e00000000000000000000\n        /* \"#utility.yul\":19119:19120   */\n      0x00\n        /* \"#utility.yul\":19111:19117   */\n      dup3\n        /* \"#utility.yul\":19107:19121   */\n      add\n        /* \"#utility.yul\":19100:19148   */\n      mstore\n        /* \"#utility.yul\":19089:19155   */\n      pop\n      jump\t// out\n        /* \"#utility.yul\":19161:19383   */\n    tag_397:\n        /* \"#utility.yul\":19301:19335   */\n      0x43616e206f6e6c7920626520657865637574656420627920746865206d616e61\n        /* \"#utility.yul\":19297:19298   */\n      0x00\n        /* \"#utility.yul\":19289:19295   */\n      dup3\n        /* \"#utility.yul\":19285:19299   */\n      add\n        /* \"#utility.yul\":19278:19336   */\n      mstore\n        /* \"#utility.yul\":19370:19375   */\n      0x6765720000000000000000000000000000000000000000000000000000000000\n        /* \"#utility.yul\":19365:19367   */\n      0x20\n        /* \"#utility.yul\":19357:19363   */\n      dup3\n        /* \"#utility.yul\":19353:19368   */\n      add\n        /* \"#utility.yul\":19346:19376   */\n      mstore\n        /* \"#utility.yul\":19267:19383   */\n      pop\n      jump\t// out\n        /* \"#utility.yul\":19389:19565   */\n    tag_402:\n        /* \"#utility.yul\":19529:19557   */\n      0x52657374617572616e7420616c7265616479206578697374732e000000000000\n        /* \"#utility.yul\":19525:19526   */\n      0x00\n        /* \"#utility.yul\":19517:19523   */\n      dup3\n        /* \"#utility.yul\":19513:19527   */\n      add\n        /* \"#utility.yul\":19506:19558   */\n      mstore\n        /* \"#utility.yul\":19495:19565   */\n      pop\n      jump\t// out\n        /* \"#utility.yul\":19571:19684   */\n    tag_475:\n        /* \"#utility.yul\":19652:19653   */\n      0x03\n        /* \"#utility.yul\":19645:19650   */\n      dup2\n        /* \"#utility.yul\":19642:19654   */\n      lt\n        /* \"#utility.yul\":19632:19634   */\n      tag_517\n      jumpi\n        /* \"#utility.yul\":19658:19676   */\n      tag_518\n      tag_111\n      jump\t// in\n    tag_518:\n        /* \"#utility.yul\":19632:19634   */\n    tag_517:\n        /* \"#utility.yul\":19622:19684   */\n      pop\n      jump\t// out\n        /* \"#utility.yul\":19690:19812   */\n    tag_294:\n        /* \"#utility.yul\":19763:19787   */\n      tag_520\n        /* \"#utility.yul\":19781:19786   */\n      dup2\n        /* \"#utility.yul\":19763:19787   */\n      tag_331\n      jump\t// in\n    tag_520:\n        /* \"#utility.yul\":19756:19761   */\n      dup2\n        /* \"#utility.yul\":19753:19788   */\n      eq\n        /* \"#utility.yul\":19743:19745   */\n      tag_521\n      jumpi\n        /* \"#utility.yul\":19802:19803   */\n      0x00\n        /* \"#utility.yul\":19799:19800   */\n      dup1\n        /* \"#utility.yul\":19792:19804   */\n      revert\n        /* \"#utility.yul\":19743:19745   */\n    tag_521:\n        /* \"#utility.yul\":19733:19812   */\n      pop\n      jump\t// out\n        /* \"#utility.yul\":19818:19936   */\n    tag_304:\n        /* \"#utility.yul\":19889:19911   */\n      tag_523\n        /* \"#utility.yul\":19905:19910   */\n      dup2\n        /* \"#utility.yul\":19889:19911   */\n      tag_406\n      jump\t// in\n    tag_523:\n        /* \"#utility.yul\":19882:19887   */\n      dup2\n        /* \"#utility.yul\":19879:19912   */\n      eq\n        /* \"#utility.yul\":19869:19871   */\n      tag_524\n      jumpi\n        /* \"#utility.yul\":19926:19927   */\n      0x00\n        /* \"#utility.yul\":19923:19924   */\n      dup1\n        /* \"#utility.yul\":19916:19928   */\n      revert\n        /* \"#utility.yul\":19869:19871   */\n    tag_524:\n        /* \"#utility.yul\":19859:19936   */\n      pop\n      jump\t// out\n\n    auxdata: 0xa264697066735822122070e74322a796feaaff8d950062d9e41c6ad7b7cfdbd5b69c81571925082e3b3a64736f6c63430008050033\n}\n",
				"bytecode": {
					"linkReferences": {},
					"object": "60a060405260008060006101000a81548160ff021916908360028111156200002c576200002b620001f9565b5b02179055506000600360006101000a81548160ff021916908360ff1602179055506000600360016101000a81548160ff021916908360ff1602179055506000600360026101000a81548160ff021916908360ff1602179055506040518060200160405280600081525060049080519060200190620000ac92919062000113565b506000600760006101000a81548160ff021916908315150217905550348015620000d557600080fd5b503373ffffffffffffffffffffffffffffffffffffffff1660808173ffffffffffffffffffffffffffffffffffffffff1660601b8152505062000257565b8280546200012190620001c3565b90600052602060002090601f01602090048101928262000145576000855562000191565b82601f106200016057805160ff191683800117855562000191565b8280016001018555821562000191579182015b828111156200019057825182559160200191906001019062000173565b5b509050620001a09190620001a4565b5090565b5b80821115620001bf576000816000905550600101620001a5565b5090565b60006002820490506001821680620001dc57607f821691505b60208210811415620001f357620001f262000228565b5b50919050565b7f4e487b7100000000000000000000000000000000000000000000000000000000600052602160045260246000fd5b7f4e487b7100000000000000000000000000000000000000000000000000000000600052602260045260246000fd5b60805160601c6124d7620002ca60003960008181610489015281816104de015281816107c0015281816107e401528181610839015281816109cd01528181610a2201528181610cf401528181610d4901528181610e3d01528181610e920152818161150f015261156401526124d76000f3fe608060405234801561001057600080fd5b506004361061010b5760003560e01c806371135f8b116100a2578063b922394611610071578063b922394614610299578063c1b43357146102a3578063c1c16efc146102d4578063e9b16ca3146102f2578063fc7ffbba146103225761010b565b806371135f8b1461023557806375f12b211461023f578063a3bef4d71461025d578063b798867f1461027b5761010b565b8063481c6a75116100de578063481c6a75146101bf5780634c0a6af0146101dd5780635bf5d54c146101e75780636d77bd3e146102055761010b565b806319a06f27146101105780631ddabf7a146101405780633b9f708d1461017157806347098f36146101a1575b600080fd5b61012a60048036038101906101259190611b49565b61032c565b6040516101379190611e38565b60405180910390f35b61015a60048036038101906101559190611a77565b6103cc565b604051610168929190611e5a565b60405180910390f35b61018b60048036038101906101869190611aa4565b610485565b6040516101989190611f6a565b60405180910390f35b6101a96107ab565b6040516101b69190611f6a565b60405180910390f35b6101c76107be565b6040516101d49190611dbe565b60405180910390f35b6101e56107e2565b005b6101ef6109b8565b6040516101fc9190611e1d565b60405180910390f35b61021f600480360381019061021a9190611b00565b6109c9565b60405161022c9190611f6a565b60405180910390f35b61023d610cf2565b005b610247610e02565b6040516102549190611e02565b60405180910390f35b610265610e15565b6040516102729190611f6a565b60405180910390f35b610283610e28565b6040516102909190611f6a565b60405180910390f35b6102a1610e3b565b005b6102bd60048036038101906102b89190611b49565b61107a565b6040516102cb929190611dd9565b60405180910390f35b6102dc6110cb565b6040516102e99190611e38565b60405180910390f35b61030c60048036038101906103079190611b49565b611159565b6040516103199190611e02565b60405180910390f35b61032a61150d565b005b6001602052806000526040600020600091509050805461034b90612131565b80601f016020809104026020016040519081016040528092919081815260200182805461037790612131565b80156103c45780601f10610399576101008083540402835291602001916103c4565b820191906000526020600020905b8154815290600101906020018083116103a757829003601f168201915b505050505081565b60026020528060005260406000206000915090508060000180546103ef90612131565b80601f016020809104026020016040519081016040528092919081815260200182805461041b90612131565b80156104685780601f1061043d57610100808354040283529160200191610468565b820191906000526020600020905b81548152906001019060200180831161044b57829003601f168201915b5050505050908060010160009054906101000a900460ff16905082565b60007f000000000000000000000000000000000000000000000000000000000000000073ffffffffffffffffffffffffffffffffffffffff163273ffffffffffffffffffffffffffffffffffffffff16148061052c57507f000000000000000000000000000000000000000000000000000000000000000073ffffffffffffffffffffffffffffffffffffffff163373ffffffffffffffffffffffffffffffffffffffff16145b61056b576040517f08c379a000000000000000000000000000000000000000000000000000000000815260040161056290611f2a565b60405180910390fd5b826000600260008373ffffffffffffffffffffffffffffffffffffffff1673ffffffffffffffffffffffffffffffffffffffff16815260200190815260200160002060000180546105bb90612131565b9050146105fd576040517f08c379a00000000000000000000000000000000000000000000000000000000081526004016105f490611f0a565b60405180910390fd5b60008060028111156106125761061161221c565b5b60008054906101000a900460ff1660028111156106325761063161221c565b5b14610672576040517f08c379a000000000000000000000000000000000000000000000000000000000815260040161066990611eea565b60405180910390fd5b600760009054906101000a900460ff16156106c2576040517f08c379a00000000000000000000000000000000000000000000000000000000081526004016106b990611eca565b60405180910390fd5b604051806040016040528085815260200160001515815250600260008773ffffffffffffffffffffffffffffffffffffffff1673ffffffffffffffffffffffffffffffffffffffff16815260200190815260200160002060008201518160000190805190602001906107359291906118ad565b5060208201518160010160006101000a81548160ff0219169083151502179055509050506003600181819054906101000a900460ff168092919061077890612194565b91906101000a81548160ff021916908360ff16021790555050600360019054906101000a900460ff169250505092915050565b600360019054906101000a900460ff1681565b7f000000000000000000000000000000000000000000000000000000000000000081565b7f000000000000000000000000000000000000000000000000000000000000000073ffffffffffffffffffffffffffffffffffffffff163273ffffffffffffffffffffffffffffffffffffffff16148061088757507f000000000000000000000000000000000000000000000000000000000000000073ffffffffffffffffffffffffffffffffffffffff163373ffffffffffffffffffffffffffffffffffffffff16145b6108c6576040517f08c379a00000000000000000000000000000000000000000000000000000000081526004016108bd90611f2a565b60405180910390fd5b60008060028111156108db576108da61221c565b5b60008054906101000a900460ff1660028111156108fb576108fa61221c565b5b1461093b576040517f08c379a000000000000000000000000000000000000000000000000000000000815260040161093290611eea565b60405180910390fd5b600760009054906101000a900460ff161561098b576040517f08c379a000000000000000000000000000000000000000000000000000000000815260040161098290611eca565b60405180910390fd5b60016000806101000a81548160ff021916908360028111156109b0576109af61221c565b5b021790555050565b60008054906101000a900460ff1681565b60007f000000000000000000000000000000000000000000000000000000000000000073ffffffffffffffffffffffffffffffffffffffff163273ffffffffffffffffffffffffffffffffffffffff161480610a7057507f000000000000000000000000000000000000000000000000000000000000000073ffffffffffffffffffffffffffffffffffffffff163373ffffffffffffffffffffffffffffffffffffffff16145b610aaf576040517f08c379a0000000000000000000000000000000000000000000000000000000008152600401610aa690611f2a565b60405180910390fd5b81600080600190505b600360009054906101000a900460ff1660ff168160ff1611610b5c5782604051602001610ae59190611d90565b60405160208183030381529060405280519060200120600160008360ff1660ff168152602001908152602001600020604051602001610b249190611da7565b604051602081830303815290604052805190602001201415610b495760019150610b5c565b8080610b5490612194565b915050610ab8565b508015610b9e576040517f08c379a0000000000000000000000000000000000000000000000000000000008152600401610b9590611f4a565b60405180910390fd5b6000806002811115610bb357610bb261221c565b5b60008054906101000a900460ff166002811115610bd357610bd261221c565b5b14610c13576040517f08c379a0000000000000000000000000000000000000000000000000000000008152600401610c0a90611eea565b60405180910390fd5b600760009054906101000a900460ff1615610c63576040517f08c379a0000000000000000000000000000000000000000000000000000000008152600401610c5a90611eca565b60405180910390fd5b6003600081819054906101000a900460ff1680929190610c8290612194565b91906101000a81548160ff021916908360ff160217905550508460016000600360009054906101000a900460ff1660ff1660ff1681526020019081526020016000209080519060200190610cd79291906118ad565b50600360009054906101000a900460ff169350505050919050565b7f000000000000000000000000000000000000000000000000000000000000000073ffffffffffffffffffffffffffffffffffffffff163273ffffffffffffffffffffffffffffffffffffffff161480610d9757507f000000000000000000000000000000000000000000000000000000000000000073ffffffffffffffffffffffffffffffffffffffff163373ffffffffffffffffffffffffffffffffffffffff16145b610dd6576040517f08c379a0000000000000000000000000000000000000000000000000000000008152600401610dcd90611f2a565b60405180910390fd5b600760009054906101000a900460ff1615600760006101000a81548160ff021916908315150217905550565b600760009054906101000a900460ff1681565b600360029054906101000a900460ff1681565b600360009054906101000a900460ff1681565b7f000000000000000000000000000000000000000000000000000000000000000073ffffffffffffffffffffffffffffffffffffffff163273ffffffffffffffffffffffffffffffffffffffff161480610ee057507f000000000000000000000000000000000000000000000000000000000000000073ffffffffffffffffffffffffffffffffffffffff163373ffffffffffffffffffffffffffffffffffffffff16145b610f1f576040517f08c379a0000000000000000000000000000000000000000000000000000000008152600401610f1690611f2a565b60405180910390fd5b600060016002600360019054906101000a900460ff16610f3f919061204e565b610f499190612017565b60ff16600360029054906101000a900460ff1660ff1610610f6957600190505b80610fa9576040517f08c379a0000000000000000000000000000000000000000000000000000000008152600401610fa090611e8a565b60405180910390fd5b6002806002811115610fbe57610fbd61221c565b5b60008054906101000a900460ff166002811115610fde57610fdd61221c565b5b1461101e576040517f08c379a000000000000000000000000000000000000000000000000000000000815260040161101590611eea565b60405180910390fd5b600760009054906101000a900460ff161561106e576040517f08c379a000000000000000000000000000000000000000000000000000000000815260040161106590611eca565b60405180910390fd5b6110766116e3565b5050565b60056020528060005260406000206000915090508060000160009054906101000a900473ffffffffffffffffffffffffffffffffffffffff16908060000160149054906101000a900460ff16905082565b600480546110d890612131565b80601f016020809104026020016040519081016040528092919081815260200182805461110490612131565b80156111515780601f1061112657610100808354040283529160200191611151565b820191906000526020600020905b81548152906001019060200180831161113457829003601f168201915b505050505081565b60003360001515600260008373ffffffffffffffffffffffffffffffffffffffff1673ffffffffffffffffffffffffffffffffffffffff16815260200190815260200160002060010160009054906101000a900460ff161515146111f2576040517f08c379a00000000000000000000000000000000000000000000000000000000081526004016111e990611eaa565b60405180910390fd5b60018060028111156112075761120661221c565b5b60008054906101000a900460ff1660028111156112275761122661221c565b5b14611267576040517f08c379a000000000000000000000000000000000000000000000000000000000815260040161125e90611eea565b60405180910390fd5b600760009054906101000a900460ff16156112b7576040517f08c379a00000000000000000000000000000000000000000000000000000000081526004016112ae90611eca565b60405180910390fd5b600092506000600260003373ffffffffffffffffffffffffffffffffffffffff1673ffffffffffffffffffffffffffffffffffffffff168152602001908152602001600020600001805461130a90612131565b905014611498576000600160008660ff1660ff168152602001908152602001600020805461133790612131565b90501461149757600192506001600260003373ffffffffffffffffffffffffffffffffffffffff1673ffffffffffffffffffffffffffffffffffffffff16815260200190815260200160002060010160006101000a81548160ff0219169083151502179055506003600281819054906101000a900460ff16809291906113bc90612194565b91906101000a81548160ff021916908360ff1602179055505060405180604001604052803373ffffffffffffffffffffffffffffffffffffffff1681526020018560ff1681525060056000600360029054906101000a900460ff1660ff1660ff16815260200190815260200160002060008201518160000160006101000a81548173ffffffffffffffffffffffffffffffffffffffff021916908373ffffffffffffffffffffffffffffffffffffffff16021790555060208201518160000160146101000a81548160ff021916908360ff1602179055509050505b5b60016002600360019054906101000a900460ff166114b6919061204e565b6114c09190612017565b60ff16600360029054906101000a900460ff1660ff16106115065760026000806101000a81548160ff02191690836002811115611500576114ff61221c565b5b02179055505b5050919050565b7f000000000000000000000000000000000000000000000000000000000000000073ffffffffffffffffffffffffffffffffffffffff163273ffffffffffffffffffffffffffffffffffffffff1614806115b257507f000000000000000000000000000000000000000000000000000000000000000073ffffffffffffffffffffffffffffffffffffffff163373ffffffffffffffffffffffffffffffffffffffff16145b6115f1576040517f08c379a00000000000000000000000000000000000000000000000000000000081526004016115e890611f2a565b60405180910390fd5b60018060028111156116065761160561221c565b5b60008054906101000a900460ff1660028111156116265761162561221c565b5b14611666576040517f08c379a000000000000000000000000000000000000000000000000000000000815260040161165d90611eea565b60405180910390fd5b600760009054906101000a900460ff16156116b6576040517f08c379a00000000000000000000000000000000000000000000000000000000081526004016116ad90611eca565b60405180910390fd5b60008060006101000a81548160ff021916908360028111156116db576116da61221c565b5b021790555050565b6000806000600190505b600360029054906101000a900460ff1660ff168160ff161161187557600060019050600060066000600560008660ff1660ff16815260200190815260200160002060000160149054906101000a900460ff1660ff1660ff16815260200190815260200160002060009054906101000a900460ff1660ff1611156117c85760066000600560008560ff1660ff16815260200190815260200160002060000160149054906101000a900460ff1660ff1660ff16815260200190815260200160002060009054906101000a900460ff16816117c59190612017565b90505b8060066000600560008660ff1660ff16815260200190815260200160002060000160149054906101000a900460ff1660ff1660ff16815260200190815260200160002060006101000a81548160ff021916908360ff1602179055508360ff168160ff16111561186157809350600560008360ff1660ff16815260200190815260200160002060000160149054906101000a900460ff1692505b50808061186d90612194565b9150506116ed565b50600160008260ff1660ff168152602001908152602001600020600490805461189d90612131565b6118a8929190611933565b505050565b8280546118b990612131565b90600052602060002090601f0160209004810192826118db5760008555611922565b82601f106118f457805160ff1916838001178555611922565b82800160010185558215611922579182015b82811115611921578251825591602001919060010190611906565b5b50905061192f91906119c0565b5090565b82805461193f90612131565b90600052602060002090601f01602090048101928261196157600085556119af565b82601f1061197257805485556119af565b828001600101855582156119af57600052602060002091601f016020900482015b828111156119ae578254825591600101919060010190611993565b5b5090506119bc91906119c0565b5090565b5b808211156119d95760008160009055506001016119c1565b5090565b60006119f06119eb84611faa565b611f85565b905082815260208101848484011115611a0c57611a0b6122ae565b5b611a178482856120ef565b509392505050565b600081359050611a2e81612473565b92915050565b600082601f830112611a4957611a486122a9565b5b8135611a598482602086016119dd565b91505092915050565b600081359050611a718161248a565b92915050565b600060208284031215611a8d57611a8c6122b8565b5b6000611a9b84828501611a1f565b91505092915050565b60008060408385031215611abb57611aba6122b8565b5b6000611ac985828601611a1f565b925050602083013567ffffffffffffffff811115611aea57611ae96122b3565b5b611af685828601611a34565b9150509250929050565b600060208284031215611b1657611b156122b8565b5b600082013567ffffffffffffffff811115611b3457611b336122b3565b5b611b4084828501611a34565b91505092915050565b600060208284031215611b5f57611b5e6122b8565b5b6000611b6d84828501611a62565b91505092915050565b611b7f8161207f565b82525050565b611b8e81612091565b82525050565b611b9d816120dd565b82525050565b6000611bae82611ff0565b611bb88185611ffb565b9350611bc88185602086016120fe565b611bd1816122bd565b840191505092915050565b6000611be782611ff0565b611bf1818561200c565b9350611c018185602086016120fe565b80840191505092915050565b60008154611c1a81612131565b611c24818661200c565b94506001821660008114611c3f5760018114611c5057611c83565b60ff19831686528186019350611c83565b611c5985611fdb565b60005b83811015611c7b57815481890152600182019150602081019050611c5c565b838801955050505b50505092915050565b6000611c99602683611ffb565b9150611ca4826122ce565b604082019050919050565b6000611cbc601383611ffb565b9150611cc78261231d565b602082019050919050565b6000611cdf601483611ffb565b9150611cea82612346565b602082019050919050565b6000611d02602983611ffb565b9150611d0d8261236f565b604082019050919050565b6000611d25601683611ffb565b9150611d30826123be565b602082019050919050565b6000611d48602383611ffb565b9150611d53826123e7565b604082019050919050565b6000611d6b601a83611ffb565b9150611d7682612436565b602082019050919050565b611d8a816120d0565b82525050565b6000611d9c8284611bdc565b915081905092915050565b6000611db38284611c0d565b915081905092915050565b6000602082019050611dd36000830184611b76565b92915050565b6000604082019050611dee6000830185611b76565b611dfb6020830184611d81565b9392505050565b6000602082019050611e176000830184611b85565b92915050565b6000602082019050611e326000830184611b94565b92915050565b60006020820190508181036000830152611e528184611ba3565b905092915050565b60006040820190508181036000830152611e748185611ba3565b9050611e836020830184611b85565b9392505050565b60006020820190508181036000830152611ea381611c8c565b9050919050565b60006020820190508181036000830152611ec381611caf565b9050919050565b60006020820190508181036000830152611ee381611cd2565b9050919050565b60006020820190508181036000830152611f0381611cf5565b9050919050565b60006020820190508181036000830152611f2381611d18565b9050919050565b60006020820190508181036000830152611f4381611d3b565b9050919050565b60006020820190508181036000830152611f6381611d5e565b9050919050565b6000602082019050611f7f6000830184611d81565b92915050565b6000611f8f611fa0565b9050611f9b8282612163565b919050565b6000604051905090565b600067ffffffffffffffff821115611fc557611fc461227a565b5b611fce826122bd565b9050602081019050919050565b60008190508160005260206000209050919050565b600081519050919050565b600082825260208201905092915050565b600081905092915050565b6000612022826120d0565b915061202d836120d0565b92508260ff03821115612043576120426121be565b5b828201905092915050565b6000612059826120d0565b9150612064836120d0565b925082612074576120736121ed565b5b828204905092915050565b600061208a826120b0565b9050919050565b60008115159050919050565b60008190506120ab8261245f565b919050565b600073ffffffffffffffffffffffffffffffffffffffff82169050919050565b600060ff82169050919050565b60006120e88261209d565b9050919050565b82818337600083830152505050565b60005b8381101561211c578082015181840152602081019050612101565b8381111561212b576000848401525b50505050565b6000600282049050600182168061214957607f821691505b6020821081141561215d5761215c61224b565b5b50919050565b61216c826122bd565b810181811067ffffffffffffffff8211171561218b5761218a61227a565b5b80604052505050565b600061219f826120d0565b915060ff8214156121b3576121b26121be565b5b600182019050919050565b7f4e487b7100000000000000000000000000000000000000000000000000000000600052601160045260246000fd5b7f4e487b7100000000000000000000000000000000000000000000000000000000600052601260045260246000fd5b7f4e487b7100000000000000000000000000000000000000000000000000000000600052602160045260246000fd5b7f4e487b7100000000000000000000000000000000000000000000000000000000600052602260045260246000fd5b7f4e487b7100000000000000000000000000000000000000000000000000000000600052604160045260246000fd5b600080fd5b600080fd5b600080fd5b600080fd5b6000601f19601f8301169050919050565b7f566f74696e672071756f72756d206973206e6f74206d65742e204b656570207660008201527f6f74696e672e0000000000000000000000000000000000000000000000000000602082015250565b7f43616e206f6e6c7920766f7465206f6e63652e00000000000000000000000000600082015250565b7f436f6e74726163742069732073746f707065642e000000000000000000000000600082015250565b7f46756e6374696f6e2063616e206e6f742062652063616c6c656420696e20746860008201527f69732073746167652e0000000000000000000000000000000000000000000000602082015250565b7f467269656e6420616c7265616479206578697374732e00000000000000000000600082015250565b7f43616e206f6e6c7920626520657865637574656420627920746865206d616e6160008201527f6765720000000000000000000000000000000000000000000000000000000000602082015250565b7f52657374617572616e7420616c7265616479206578697374732e000000000000600082015250565b600381106124705761246f61221c565b5b50565b61247c8161207f565b811461248757600080fd5b50565b612493816120d0565b811461249e57600080fd5b5056fea264697066735822122070e74322a796feaaff8d950062d9e41c6ad7b7cfdbd5b69c81571925082e3b3a64736f6c63430008050033",
					"opcodes": "PUSH1 0xA0 PUSH1 0x40 MSTORE PUSH1 0x0 DUP1 PUSH1 0x0 PUSH2 0x100 EXP DUP2 SLOAD DUP2 PUSH1 0xFF MUL NOT AND SWAP1 DUP4 PUSH1 0x2 DUP2 GT ISZERO PUSH3 0x2C JUMPI PUSH3 0x2B PUSH3 0x1F9 JUMP JUMPDEST JUMPDEST MUL OR SWAP1 SSTORE POP PUSH1 0x0 PUSH1 0x3 PUSH1 0x0 PUSH2 0x100 EXP DUP2 SLOAD DUP2 PUSH1 0xFF MUL NOT AND SWAP1 DUP4 PUSH1 0xFF AND MUL OR SWAP1 SSTORE POP PUSH1 0x0 PUSH1 0x3 PUSH1 0x1 PUSH2 0x100 EXP DUP2 SLOAD DUP2 PUSH1 0xFF MUL NOT AND SWAP1 DUP4 PUSH1 0xFF AND MUL OR SWAP1 SSTORE POP PUSH1 0x0 PUSH1 0x3 PUSH1 0x2 PUSH2 0x100 EXP DUP2 SLOAD DUP2 PUSH1 0xFF MUL NOT AND SWAP1 DUP4 PUSH1 0xFF AND MUL OR SWAP1 SSTORE POP PUSH1 0x40 MLOAD DUP1 PUSH1 0x20 ADD PUSH1 0x40 MSTORE DUP1 PUSH1 0x0 DUP2 MSTORE POP PUSH1 0x4 SWAP1 DUP1 MLOAD SWAP1 PUSH1 0x20 ADD SWAP1 PUSH3 0xAC SWAP3 SWAP2 SWAP1 PUSH3 0x113 JUMP JUMPDEST POP PUSH1 0x0 PUSH1 0x7 PUSH1 0x0 PUSH2 0x100 EXP DUP2 SLOAD DUP2 PUSH1 0xFF MUL NOT AND SWAP1 DUP4 ISZERO ISZERO MUL OR SWAP1 SSTORE POP CALLVALUE DUP1 ISZERO PUSH3 0xD5 JUMPI PUSH1 0x0 DUP1 REVERT JUMPDEST POP CALLER PUSH20 0xFFFFFFFFFFFFFFFFFFFFFFFFFFFFFFFFFFFFFFFF AND PUSH1 0x80 DUP2 PUSH20 0xFFFFFFFFFFFFFFFFFFFFFFFFFFFFFFFFFFFFFFFF AND PUSH1 0x60 SHL DUP2 MSTORE POP POP PUSH3 0x257 JUMP JUMPDEST DUP3 DUP1 SLOAD PUSH3 0x121 SWAP1 PUSH3 0x1C3 JUMP JUMPDEST SWAP1 PUSH1 0x0 MSTORE PUSH1 0x20 PUSH1 0x0 KECCAK256 SWAP1 PUSH1 0x1F ADD PUSH1 0x20 SWAP1 DIV DUP2 ADD SWAP3 DUP3 PUSH3 0x145 JUMPI PUSH1 0x0 DUP6 SSTORE PUSH3 0x191 JUMP JUMPDEST DUP3 PUSH1 0x1F LT PUSH3 0x160 JUMPI DUP1 MLOAD PUSH1 0xFF NOT AND DUP4 DUP1 ADD OR DUP6 SSTORE PUSH3 0x191 JUMP JUMPDEST DUP3 DUP1 ADD PUSH1 0x1 ADD DUP6 SSTORE DUP3 ISZERO PUSH3 0x191 JUMPI SWAP2 DUP3 ADD JUMPDEST DUP3 DUP2 GT ISZERO PUSH3 0x190 JUMPI DUP3 MLOAD DUP3 SSTORE SWAP2 PUSH1 0x20 ADD SWAP2 SWAP1 PUSH1 0x1 ADD SWAP1 PUSH3 0x173 JUMP JUMPDEST JUMPDEST POP SWAP1 POP PUSH3 0x1A0 SWAP2 SWAP1 PUSH3 0x1A4 JUMP JUMPDEST POP SWAP1 JUMP JUMPDEST JUMPDEST DUP1 DUP3 GT ISZERO PUSH3 0x1BF JUMPI PUSH1 0x0 DUP2 PUSH1 0x0 SWAP1 SSTORE POP PUSH1 0x1 ADD PUSH3 0x1A5 JUMP JUMPDEST POP SWAP1 JUMP JUMPDEST PUSH1 0x0 PUSH1 0x2 DUP3 DIV SWAP1 POP PUSH1 0x1 DUP3 AND DUP1 PUSH3 0x1DC JUMPI PUSH1 0x7F DUP3 AND SWAP2 POP JUMPDEST PUSH1 0x20 DUP3 LT DUP2 EQ ISZERO PUSH3 0x1F3 JUMPI PUSH3 0x1F2 PUSH3 0x228 JUMP JUMPDEST JUMPDEST POP SWAP2 SWAP1 POP JUMP JUMPDEST PUSH32 0x4E487B7100000000000000000000000000000000000000000000000000000000 PUSH1 0x0 MSTORE PUSH1 0x21 PUSH1 0x4 MSTORE PUSH1 0x24 PUSH1 0x0 REVERT JUMPDEST PUSH32 0x4E487B7100000000000000000000000000000000000000000000000000000000 PUSH1 0x0 MSTORE PUSH1 0x22 PUSH1 0x4 MSTORE PUSH1 0x24 PUSH1 0x0 REVERT JUMPDEST PUSH1 0x80 MLOAD PUSH1 0x60 SHR PUSH2 0x24D7 PUSH3 0x2CA PUSH1 0x0 CODECOPY PUSH1 0x0 DUP2 DUP2 PUSH2 0x489 ADD MSTORE DUP2 DUP2 PUSH2 0x4DE ADD MSTORE DUP2 DUP2 PUSH2 0x7C0 ADD MSTORE DUP2 DUP2 PUSH2 0x7E4 ADD MSTORE DUP2 DUP2 PUSH2 0x839 ADD MSTORE DUP2 DUP2 PUSH2 0x9CD ADD MSTORE DUP2 DUP2 PUSH2 0xA22 ADD MSTORE DUP2 DUP2 PUSH2 0xCF4 ADD MSTORE DUP2 DUP2 PUSH2 0xD49 ADD MSTORE DUP2 DUP2 PUSH2 0xE3D ADD MSTORE DUP2 DUP2 PUSH2 0xE92 ADD MSTORE DUP2 DUP2 PUSH2 0x150F ADD MSTORE PUSH2 0x1564 ADD MSTORE PUSH2 0x24D7 PUSH1 0x0 RETURN INVALID PUSH1 0x80 PUSH1 0x40 MSTORE CALLVALUE DUP1 ISZERO PUSH2 0x10 JUMPI PUSH1 0x0 DUP1 REVERT JUMPDEST POP PUSH1 0x4 CALLDATASIZE LT PUSH2 0x10B JUMPI PUSH1 0x0 CALLDATALOAD PUSH1 0xE0 SHR DUP1 PUSH4 0x71135F8B GT PUSH2 0xA2 JUMPI DUP1 PUSH4 0xB9223946 GT PUSH2 0x71 JUMPI DUP1 PUSH4 0xB9223946 EQ PUSH2 0x299 JUMPI DUP1 PUSH4 0xC1B43357 EQ PUSH2 0x2A3 JUMPI DUP1 PUSH4 0xC1C16EFC EQ PUSH2 0x2D4 JUMPI DUP1 PUSH4 0xE9B16CA3 EQ PUSH2 0x2F2 JUMPI DUP1 PUSH4 0xFC7FFBBA EQ PUSH2 0x322 JUMPI PUSH2 0x10B JUMP JUMPDEST DUP1 PUSH4 0x71135F8B EQ PUSH2 0x235 JUMPI DUP1 PUSH4 0x75F12B21 EQ PUSH2 0x23F JUMPI DUP1 PUSH4 0xA3BEF4D7 EQ PUSH2 0x25D JUMPI DUP1 PUSH4 0xB798867F EQ PUSH2 0x27B JUMPI PUSH2 0x10B JUMP JUMPDEST DUP1 PUSH4 0x481C6A75 GT PUSH2 0xDE JUMPI DUP1 PUSH4 0x481C6A75 EQ PUSH2 0x1BF JUMPI DUP1 PUSH4 0x4C0A6AF0 EQ PUSH2 0x1DD JUMPI DUP1 PUSH4 0x5BF5D54C EQ PUSH2 0x1E7 JUMPI DUP1 PUSH4 0x6D77BD3E EQ PUSH2 0x205 JUMPI PUSH2 0x10B JUMP JUMPDEST DUP1 PUSH4 0x19A06F27 EQ PUSH2 0x110 JUMPI DUP1 PUSH4 0x1DDABF7A EQ PUSH2 0x140 JUMPI DUP1 PUSH4 0x3B9F708D EQ PUSH2 0x171 JUMPI DUP1 PUSH4 0x47098F36 EQ PUSH2 0x1A1 JUMPI JUMPDEST PUSH1 0x0 DUP1 REVERT JUMPDEST PUSH2 0x12A PUSH1 0x4 DUP1 CALLDATASIZE SUB DUP2 ADD SWAP1 PUSH2 0x125 SWAP2 SWAP1 PUSH2 0x1B49 JUMP JUMPDEST PUSH2 0x32C JUMP JUMPDEST PUSH1 0x40 MLOAD PUSH2 0x137 SWAP2 SWAP1 PUSH2 0x1E38 JUMP JUMPDEST PUSH1 0x40 MLOAD DUP1 SWAP2 SUB SWAP1 RETURN JUMPDEST PUSH2 0x15A PUSH1 0x4 DUP1 CALLDATASIZE SUB DUP2 ADD SWAP1 PUSH2 0x155 SWAP2 SWAP1 PUSH2 0x1A77 JUMP JUMPDEST PUSH2 0x3CC JUMP JUMPDEST PUSH1 0x40 MLOAD PUSH2 0x168 SWAP3 SWAP2 SWAP1 PUSH2 0x1E5A JUMP JUMPDEST PUSH1 0x40 MLOAD DUP1 SWAP2 SUB SWAP1 RETURN JUMPDEST PUSH2 0x18B PUSH1 0x4 DUP1 CALLDATASIZE SUB DUP2 ADD SWAP1 PUSH2 0x186 SWAP2 SWAP1 PUSH2 0x1AA4 JUMP JUMPDEST PUSH2 0x485 JUMP JUMPDEST PUSH1 0x40 MLOAD PUSH2 0x198 SWAP2 SWAP1 PUSH2 0x1F6A JUMP JUMPDEST PUSH1 0x40 MLOAD DUP1 SWAP2 SUB SWAP1 RETURN JUMPDEST PUSH2 0x1A9 PUSH2 0x7AB JUMP JUMPDEST PUSH1 0x40 MLOAD PUSH2 0x1B6 SWAP2 SWAP1 PUSH2 0x1F6A JUMP JUMPDEST PUSH1 0x40 MLOAD DUP1 SWAP2 SUB SWAP1 RETURN JUMPDEST PUSH2 0x1C7 PUSH2 0x7BE JUMP JUMPDEST PUSH1 0x40 MLOAD PUSH2 0x1D4 SWAP2 SWAP1 PUSH2 0x1DBE JUMP JUMPDEST PUSH1 0x40 MLOAD DUP1 SWAP2 SUB SWAP1 RETURN JUMPDEST PUSH2 0x1E5 PUSH2 0x7E2 JUMP JUMPDEST STOP JUMPDEST PUSH2 0x1EF PUSH2 0x9B8 JUMP JUMPDEST PUSH1 0x40 MLOAD PUSH2 0x1FC SWAP2 SWAP1 PUSH2 0x1E1D JUMP JUMPDEST PUSH1 0x40 MLOAD DUP1 SWAP2 SUB SWAP1 RETURN JUMPDEST PUSH2 0x21F PUSH1 0x4 DUP1 CALLDATASIZE SUB DUP2 ADD SWAP1 PUSH2 0x21A SWAP2 SWAP1 PUSH2 0x1B00 JUMP JUMPDEST PUSH2 0x9C9 JUMP JUMPDEST PUSH1 0x40 MLOAD PUSH2 0x22C SWAP2 SWAP1 PUSH2 0x1F6A JUMP JUMPDEST PUSH1 0x40 MLOAD DUP1 SWAP2 SUB SWAP1 RETURN JUMPDEST PUSH2 0x23D PUSH2 0xCF2 JUMP JUMPDEST STOP JUMPDEST PUSH2 0x247 PUSH2 0xE02 JUMP JUMPDEST PUSH1 0x40 MLOAD PUSH2 0x254 SWAP2 SWAP1 PUSH2 0x1E02 JUMP JUMPDEST PUSH1 0x40 MLOAD DUP1 SWAP2 SUB SWAP1 RETURN JUMPDEST PUSH2 0x265 PUSH2 0xE15 JUMP JUMPDEST PUSH1 0x40 MLOAD PUSH2 0x272 SWAP2 SWAP1 PUSH2 0x1F6A JUMP JUMPDEST PUSH1 0x40 MLOAD DUP1 SWAP2 SUB SWAP1 RETURN JUMPDEST PUSH2 0x283 PUSH2 0xE28 JUMP JUMPDEST PUSH1 0x40 MLOAD PUSH2 0x290 SWAP2 SWAP1 PUSH2 0x1F6A JUMP JUMPDEST PUSH1 0x40 MLOAD DUP1 SWAP2 SUB SWAP1 RETURN JUMPDEST PUSH2 0x2A1 PUSH2 0xE3B JUMP JUMPDEST STOP JUMPDEST PUSH2 0x2BD PUSH1 0x4 DUP1 CALLDATASIZE SUB DUP2 ADD SWAP1 PUSH2 0x2B8 SWAP2 SWAP1 PUSH2 0x1B49 JUMP JUMPDEST PUSH2 0x107A JUMP JUMPDEST PUSH1 0x40 MLOAD PUSH2 0x2CB SWAP3 SWAP2 SWAP1 PUSH2 0x1DD9 JUMP JUMPDEST PUSH1 0x40 MLOAD DUP1 SWAP2 SUB SWAP1 RETURN JUMPDEST PUSH2 0x2DC PUSH2 0x10CB JUMP JUMPDEST PUSH1 0x40 MLOAD PUSH2 0x2E9 SWAP2 SWAP1 PUSH2 0x1E38 JUMP JUMPDEST PUSH1 0x40 MLOAD DUP1 SWAP2 SUB SWAP1 RETURN JUMPDEST PUSH2 0x30C PUSH1 0x4 DUP1 CALLDATASIZE SUB DUP2 ADD SWAP1 PUSH2 0x307 SWAP2 SWAP1 PUSH2 0x1B49 JUMP JUMPDEST PUSH2 0x1159 JUMP JUMPDEST PUSH1 0x40 MLOAD PUSH2 0x319 SWAP2 SWAP1 PUSH2 0x1E02 JUMP JUMPDEST PUSH1 0x40 MLOAD DUP1 SWAP2 SUB SWAP1 RETURN JUMPDEST PUSH2 0x32A PUSH2 0x150D JUMP JUMPDEST STOP JUMPDEST PUSH1 0x1 PUSH1 0x20 MSTORE DUP1 PUSH1 0x0 MSTORE PUSH1 0x40 PUSH1 0x0 KECCAK256 PUSH1 0x0 SWAP2 POP SWAP1 POP DUP1 SLOAD PUSH2 0x34B SWAP1 PUSH2 0x2131 JUMP JUMPDEST DUP1 PUSH1 0x1F ADD PUSH1 0x20 DUP1 SWAP2 DIV MUL PUSH1 0x20 ADD PUSH1 0x40 MLOAD SWAP1 DUP2 ADD PUSH1 0x40 MSTORE DUP1 SWAP3 SWAP2 SWAP1 DUP2 DUP2 MSTORE PUSH1 0x20 ADD DUP3 DUP1 SLOAD PUSH2 0x377 SWAP1 PUSH2 0x2131 JUMP JUMPDEST DUP1 ISZERO PUSH2 0x3C4 JUMPI DUP1 PUSH1 0x1F LT PUSH2 0x399 JUMPI PUSH2 0x100 DUP1 DUP4 SLOAD DIV MUL DUP4 MSTORE SWAP2 PUSH1 0x20 ADD SWAP2 PUSH2 0x3C4 JUMP JUMPDEST DUP3 ADD SWAP2 SWAP1 PUSH1 0x0 MSTORE PUSH1 0x20 PUSH1 0x0 KECCAK256 SWAP1 JUMPDEST DUP2 SLOAD DUP2 MSTORE SWAP1 PUSH1 0x1 ADD SWAP1 PUSH1 0x20 ADD DUP1 DUP4 GT PUSH2 0x3A7 JUMPI DUP3 SWAP1 SUB PUSH1 0x1F AND DUP3 ADD SWAP2 JUMPDEST POP POP POP POP POP DUP2 JUMP JUMPDEST PUSH1 0x2 PUSH1 0x20 MSTORE DUP1 PUSH1 0x0 MSTORE PUSH1 0x40 PUSH1 0x0 KECCAK256 PUSH1 0x0 SWAP2 POP SWAP1 POP DUP1 PUSH1 0x0 ADD DUP1 SLOAD PUSH2 0x3EF SWAP1 PUSH2 0x2131 JUMP JUMPDEST DUP1 PUSH1 0x1F ADD PUSH1 0x20 DUP1 SWAP2 DIV MUL PUSH1 0x20 ADD PUSH1 0x40 MLOAD SWAP1 DUP2 ADD PUSH1 0x40 MSTORE DUP1 SWAP3 SWAP2 SWAP1 DUP2 DUP2 MSTORE PUSH1 0x20 ADD DUP3 DUP1 SLOAD PUSH2 0x41B SWAP1 PUSH2 0x2131 JUMP JUMPDEST DUP1 ISZERO PUSH2 0x468 JUMPI DUP1 PUSH1 0x1F LT PUSH2 0x43D JUMPI PUSH2 0x100 DUP1 DUP4 SLOAD DIV MUL DUP4 MSTORE SWAP2 PUSH1 0x20 ADD SWAP2 PUSH2 0x468 JUMP JUMPDEST DUP3 ADD SWAP2 SWAP1 PUSH1 0x0 MSTORE PUSH1 0x20 PUSH1 0x0 KECCAK256 SWAP1 JUMPDEST DUP2 SLOAD DUP2 MSTORE SWAP1 PUSH1 0x1 ADD SWAP1 PUSH1 0x20 ADD DUP1 DUP4 GT PUSH2 0x44B JUMPI DUP3 SWAP1 SUB PUSH1 0x1F AND DUP3 ADD SWAP2 JUMPDEST POP POP POP POP POP SWAP1 DUP1 PUSH1 0x1 ADD PUSH1 0x0 SWAP1 SLOAD SWAP1 PUSH2 0x100 EXP SWAP1 DIV PUSH1 0xFF AND SWAP1 POP DUP3 JUMP JUMPDEST PUSH1 0x0 PUSH32 0x0 PUSH20 0xFFFFFFFFFFFFFFFFFFFFFFFFFFFFFFFFFFFFFFFF AND ORIGIN PUSH20 0xFFFFFFFFFFFFFFFFFFFFFFFFFFFFFFFFFFFFFFFF AND EQ DUP1 PUSH2 0x52C JUMPI POP PUSH32 0x0 PUSH20 0xFFFFFFFFFFFFFFFFFFFFFFFFFFFFFFFFFFFFFFFF AND CALLER PUSH20 0xFFFFFFFFFFFFFFFFFFFFFFFFFFFFFFFFFFFFFFFF AND EQ JUMPDEST PUSH2 0x56B JUMPI PUSH1 0x40 MLOAD PUSH32 0x8C379A000000000000000000000000000000000000000000000000000000000 DUP2 MSTORE PUSH1 0x4 ADD PUSH2 0x562 SWAP1 PUSH2 0x1F2A JUMP JUMPDEST PUSH1 0x40 MLOAD DUP1 SWAP2 SUB SWAP1 REVERT JUMPDEST DUP3 PUSH1 0x0 PUSH1 0x2 PUSH1 0x0 DUP4 PUSH20 0xFFFFFFFFFFFFFFFFFFFFFFFFFFFFFFFFFFFFFFFF AND PUSH20 0xFFFFFFFFFFFFFFFFFFFFFFFFFFFFFFFFFFFFFFFF AND DUP2 MSTORE PUSH1 0x20 ADD SWAP1 DUP2 MSTORE PUSH1 0x20 ADD PUSH1 0x0 KECCAK256 PUSH1 0x0 ADD DUP1 SLOAD PUSH2 0x5BB SWAP1 PUSH2 0x2131 JUMP JUMPDEST SWAP1 POP EQ PUSH2 0x5FD JUMPI PUSH1 0x40 MLOAD PUSH32 0x8C379A000000000000000000000000000000000000000000000000000000000 DUP2 MSTORE PUSH1 0x4 ADD PUSH2 0x5F4 SWAP1 PUSH2 0x1F0A JUMP JUMPDEST PUSH1 0x40 MLOAD DUP1 SWAP2 SUB SWAP1 REVERT JUMPDEST PUSH1 0x0 DUP1 PUSH1 0x2 DUP2 GT ISZERO PUSH2 0x612 JUMPI PUSH2 0x611 PUSH2 0x221C JUMP JUMPDEST JUMPDEST PUSH1 0x0 DUP1 SLOAD SWAP1 PUSH2 0x100 EXP SWAP1 DIV PUSH1 0xFF AND PUSH1 0x2 DUP2 GT ISZERO PUSH2 0x632 JUMPI PUSH2 0x631 PUSH2 0x221C JUMP JUMPDEST JUMPDEST EQ PUSH2 0x672 JUMPI PUSH1 0x40 MLOAD PUSH32 0x8C379A000000000000000000000000000000000000000000000000000000000 DUP2 MSTORE PUSH1 0x4 ADD PUSH2 0x669 SWAP1 PUSH2 0x1EEA JUMP JUMPDEST PUSH1 0x40 MLOAD DUP1 SWAP2 SUB SWAP1 REVERT JUMPDEST PUSH1 0x7 PUSH1 0x0 SWAP1 SLOAD SWAP1 PUSH2 0x100 EXP SWAP1 DIV PUSH1 0xFF AND ISZERO PUSH2 0x6C2 JUMPI PUSH1 0x40 MLOAD PUSH32 0x8C379A000000000000000000000000000000000000000000000000000000000 DUP2 MSTORE PUSH1 0x4 ADD PUSH2 0x6B9 SWAP1 PUSH2 0x1ECA JUMP JUMPDEST PUSH1 0x40 MLOAD DUP1 SWAP2 SUB SWAP1 REVERT JUMPDEST PUSH1 0x40 MLOAD DUP1 PUSH1 0x40 ADD PUSH1 0x40 MSTORE DUP1 DUP6 DUP2 MSTORE PUSH1 0x20 ADD PUSH1 0x0 ISZERO ISZERO DUP2 MSTORE POP PUSH1 0x2 PUSH1 0x0 DUP8 PUSH20 0xFFFFFFFFFFFFFFFFFFFFFFFFFFFFFFFFFFFFFFFF AND PUSH20 0xFFFFFFFFFFFFFFFFFFFFFFFFFFFFFFFFFFFFFFFF AND DUP2 MSTORE PUSH1 0x20 ADD SWAP1 DUP2 MSTORE PUSH1 0x20 ADD PUSH1 0x0 KECCAK256 PUSH1 0x0 DUP3 ADD MLOAD DUP2 PUSH1 0x0 ADD SWAP1 DUP1 MLOAD SWAP1 PUSH1 0x20 ADD SWAP1 PUSH2 0x735 SWAP3 SWAP2 SWAP1 PUSH2 0x18AD JUMP JUMPDEST POP PUSH1 0x20 DUP3 ADD MLOAD DUP2 PUSH1 0x1 ADD PUSH1 0x0 PUSH2 0x100 EXP DUP2 SLOAD DUP2 PUSH1 0xFF MUL NOT AND SWAP1 DUP4 ISZERO ISZERO MUL OR SWAP1 SSTORE POP SWAP1 POP POP PUSH1 0x3 PUSH1 0x1 DUP2 DUP2 SWAP1 SLOAD SWAP1 PUSH2 0x100 EXP SWAP1 DIV PUSH1 0xFF AND DUP1 SWAP3 SWAP2 SWAP1 PUSH2 0x778 SWAP1 PUSH2 0x2194 JUMP JUMPDEST SWAP2 SWAP1 PUSH2 0x100 EXP DUP2 SLOAD DUP2 PUSH1 0xFF MUL NOT AND SWAP1 DUP4 PUSH1 0xFF AND MUL OR SWAP1 SSTORE POP POP PUSH1 0x3 PUSH1 0x1 SWAP1 SLOAD SWAP1 PUSH2 0x100 EXP SWAP1 DIV PUSH1 0xFF AND SWAP3 POP POP POP SWAP3 SWAP2 POP POP JUMP JUMPDEST PUSH1 0x3 PUSH1 0x1 SWAP1 SLOAD SWAP1 PUSH2 0x100 EXP SWAP1 DIV PUSH1 0xFF AND DUP2 JUMP JUMPDEST PUSH32 0x0 DUP2 JUMP JUMPDEST PUSH32 0x0 PUSH20 0xFFFFFFFFFFFFFFFFFFFFFFFFFFFFFFFFFFFFFFFF AND ORIGIN PUSH20 0xFFFFFFFFFFFFFFFFFFFFFFFFFFFFFFFFFFFFFFFF AND EQ DUP1 PUSH2 0x887 JUMPI POP PUSH32 0x0 PUSH20 0xFFFFFFFFFFFFFFFFFFFFFFFFFFFFFFFFFFFFFFFF AND CALLER PUSH20 0xFFFFFFFFFFFFFFFFFFFFFFFFFFFFFFFFFFFFFFFF AND EQ JUMPDEST PUSH2 0x8C6 JUMPI PUSH1 0x40 MLOAD PUSH32 0x8C379A000000000000000000000000000000000000000000000000000000000 DUP2 MSTORE PUSH1 0x4 ADD PUSH2 0x8BD SWAP1 PUSH2 0x1F2A JUMP JUMPDEST PUSH1 0x40 MLOAD DUP1 SWAP2 SUB SWAP1 REVERT JUMPDEST PUSH1 0x0 DUP1 PUSH1 0x2 DUP2 GT ISZERO PUSH2 0x8DB JUMPI PUSH2 0x8DA PUSH2 0x221C JUMP JUMPDEST JUMPDEST PUSH1 0x0 DUP1 SLOAD SWAP1 PUSH2 0x100 EXP SWAP1 DIV PUSH1 0xFF AND PUSH1 0x2 DUP2 GT ISZERO PUSH2 0x8FB JUMPI PUSH2 0x8FA PUSH2 0x221C JUMP JUMPDEST JUMPDEST EQ PUSH2 0x93B JUMPI PUSH1 0x40 MLOAD PUSH32 0x8C379A000000000000000000000000000000000000000000000000000000000 DUP2 MSTORE PUSH1 0x4 ADD PUSH2 0x932 SWAP1 PUSH2 0x1EEA JUMP JUMPDEST PUSH1 0x40 MLOAD DUP1 SWAP2 SUB SWAP1 REVERT JUMPDEST PUSH1 0x7 PUSH1 0x0 SWAP1 SLOAD SWAP1 PUSH2 0x100 EXP SWAP1 DIV PUSH1 0xFF AND ISZERO PUSH2 0x98B JUMPI PUSH1 0x40 MLOAD PUSH32 0x8C379A000000000000000000000000000000000000000000000000000000000 DUP2 MSTORE PUSH1 0x4 ADD PUSH2 0x982 SWAP1 PUSH2 0x1ECA JUMP JUMPDEST PUSH1 0x40 MLOAD DUP1 SWAP2 SUB SWAP1 REVERT JUMPDEST PUSH1 0x1 PUSH1 0x0 DUP1 PUSH2 0x100 EXP DUP2 SLOAD DUP2 PUSH1 0xFF MUL NOT AND SWAP1 DUP4 PUSH1 0x2 DUP2 GT ISZERO PUSH2 0x9B0 JUMPI PUSH2 0x9AF PUSH2 0x221C JUMP JUMPDEST JUMPDEST MUL OR SWAP1 SSTORE POP POP JUMP JUMPDEST PUSH1 0x0 DUP1 SLOAD SWAP1 PUSH2 0x100 EXP SWAP1 DIV PUSH1 0xFF AND DUP2 JUMP JUMPDEST PUSH1 0x0 PUSH32 0x0 PUSH20 0xFFFFFFFFFFFFFFFFFFFFFFFFFFFFFFFFFFFFFFFF AND ORIGIN PUSH20 0xFFFFFFFFFFFFFFFFFFFFFFFFFFFFFFFFFFFFFFFF AND EQ DUP1 PUSH2 0xA70 JUMPI POP PUSH32 0x0 PUSH20 0xFFFFFFFFFFFFFFFFFFFFFFFFFFFFFFFFFFFFFFFF AND CALLER PUSH20 0xFFFFFFFFFFFFFFFFFFFFFFFFFFFFFFFFFFFFFFFF AND EQ JUMPDEST PUSH2 0xAAF JUMPI PUSH1 0x40 MLOAD PUSH32 0x8C379A000000000000000000000000000000000000000000000000000000000 DUP2 MSTORE PUSH1 0x4 ADD PUSH2 0xAA6 SWAP1 PUSH2 0x1F2A JUMP JUMPDEST PUSH1 0x40 MLOAD DUP1 SWAP2 SUB SWAP1 REVERT JUMPDEST DUP2 PUSH1 0x0 DUP1 PUSH1 0x1 SWAP1 POP JUMPDEST PUSH1 0x3 PUSH1 0x0 SWAP1 SLOAD SWAP1 PUSH2 0x100 EXP SWAP1 DIV PUSH1 0xFF AND PUSH1 0xFF AND DUP2 PUSH1 0xFF AND GT PUSH2 0xB5C JUMPI DUP3 PUSH1 0x40 MLOAD PUSH1 0x20 ADD PUSH2 0xAE5 SWAP2 SWAP1 PUSH2 0x1D90 JUMP JUMPDEST PUSH1 0x40 MLOAD PUSH1 0x20 DUP2 DUP4 SUB SUB DUP2 MSTORE SWAP1 PUSH1 0x40 MSTORE DUP1 MLOAD SWAP1 PUSH1 0x20 ADD KECCAK256 PUSH1 0x1 PUSH1 0x0 DUP4 PUSH1 0xFF AND PUSH1 0xFF AND DUP2 MSTORE PUSH1 0x20 ADD SWAP1 DUP2 MSTORE PUSH1 0x20 ADD PUSH1 0x0 KECCAK256 PUSH1 0x40 MLOAD PUSH1 0x20 ADD PUSH2 0xB24 SWAP2 SWAP1 PUSH2 0x1DA7 JUMP JUMPDEST PUSH1 0x40 MLOAD PUSH1 0x20 DUP2 DUP4 SUB SUB DUP2 MSTORE SWAP1 PUSH1 0x40 MSTORE DUP1 MLOAD SWAP1 PUSH1 0x20 ADD KECCAK256 EQ ISZERO PUSH2 0xB49 JUMPI PUSH1 0x1 SWAP2 POP PUSH2 0xB5C JUMP JUMPDEST DUP1 DUP1 PUSH2 0xB54 SWAP1 PUSH2 0x2194 JUMP JUMPDEST SWAP2 POP POP PUSH2 0xAB8 JUMP JUMPDEST POP DUP1 ISZERO PUSH2 0xB9E JUMPI PUSH1 0x40 MLOAD PUSH32 0x8C379A000000000000000000000000000000000000000000000000000000000 DUP2 MSTORE PUSH1 0x4 ADD PUSH2 0xB95 SWAP1 PUSH2 0x1F4A JUMP JUMPDEST PUSH1 0x40 MLOAD DUP1 SWAP2 SUB SWAP1 REVERT JUMPDEST PUSH1 0x0 DUP1 PUSH1 0x2 DUP2 GT ISZERO PUSH2 0xBB3 JUMPI PUSH2 0xBB2 PUSH2 0x221C JUMP JUMPDEST JUMPDEST PUSH1 0x0 DUP1 SLOAD SWAP1 PUSH2 0x100 EXP SWAP1 DIV PUSH1 0xFF AND PUSH1 0x2 DUP2 GT ISZERO PUSH2 0xBD3 JUMPI PUSH2 0xBD2 PUSH2 0x221C JUMP JUMPDEST JUMPDEST EQ PUSH2 0xC13 JUMPI PUSH1 0x40 MLOAD PUSH32 0x8C379A000000000000000000000000000000000000000000000000000000000 DUP2 MSTORE PUSH1 0x4 ADD PUSH2 0xC0A SWAP1 PUSH2 0x1EEA JUMP JUMPDEST PUSH1 0x40 MLOAD DUP1 SWAP2 SUB SWAP1 REVERT JUMPDEST PUSH1 0x7 PUSH1 0x0 SWAP1 SLOAD SWAP1 PUSH2 0x100 EXP SWAP1 DIV PUSH1 0xFF AND ISZERO PUSH2 0xC63 JUMPI PUSH1 0x40 MLOAD PUSH32 0x8C379A000000000000000000000000000000000000000000000000000000000 DUP2 MSTORE PUSH1 0x4 ADD PUSH2 0xC5A SWAP1 PUSH2 0x1ECA JUMP JUMPDEST PUSH1 0x40 MLOAD DUP1 SWAP2 SUB SWAP1 REVERT JUMPDEST PUSH1 0x3 PUSH1 0x0 DUP2 DUP2 SWAP1 SLOAD SWAP1 PUSH2 0x100 EXP SWAP1 DIV PUSH1 0xFF AND DUP1 SWAP3 SWAP2 SWAP1 PUSH2 0xC82 SWAP1 PUSH2 0x2194 JUMP JUMPDEST SWAP2 SWAP1 PUSH2 0x100 EXP DUP2 SLOAD DUP2 PUSH1 0xFF MUL NOT AND SWAP1 DUP4 PUSH1 0xFF AND MUL OR SWAP1 SSTORE POP POP DUP5 PUSH1 0x1 PUSH1 0x0 PUSH1 0x3 PUSH1 0x0 SWAP1 SLOAD SWAP1 PUSH2 0x100 EXP SWAP1 DIV PUSH1 0xFF AND PUSH1 0xFF AND PUSH1 0xFF AND DUP2 MSTORE PUSH1 0x20 ADD SWAP1 DUP2 MSTORE PUSH1 0x20 ADD PUSH1 0x0 KECCAK256 SWAP1 DUP1 MLOAD SWAP1 PUSH1 0x20 ADD SWAP1 PUSH2 0xCD7 SWAP3 SWAP2 SWAP1 PUSH2 0x18AD JUMP JUMPDEST POP PUSH1 0x3 PUSH1 0x0 SWAP1 SLOAD SWAP1 PUSH2 0x100 EXP SWAP1 DIV PUSH1 0xFF AND SWAP4 POP POP POP POP SWAP2 SWAP1 POP JUMP JUMPDEST PUSH32 0x0 PUSH20 0xFFFFFFFFFFFFFFFFFFFFFFFFFFFFFFFFFFFFFFFF AND ORIGIN PUSH20 0xFFFFFFFFFFFFFFFFFFFFFFFFFFFFFFFFFFFFFFFF AND EQ DUP1 PUSH2 0xD97 JUMPI POP PUSH32 0x0 PUSH20 0xFFFFFFFFFFFFFFFFFFFFFFFFFFFFFFFFFFFFFFFF AND CALLER PUSH20 0xFFFFFFFFFFFFFFFFFFFFFFFFFFFFFFFFFFFFFFFF AND EQ JUMPDEST PUSH2 0xDD6 JUMPI PUSH1 0x40 MLOAD PUSH32 0x8C379A000000000000000000000000000000000000000000000000000000000 DUP2 MSTORE PUSH1 0x4 ADD PUSH2 0xDCD SWAP1 PUSH2 0x1F2A JUMP JUMPDEST PUSH1 0x40 MLOAD DUP1 SWAP2 SUB SWAP1 REVERT JUMPDEST PUSH1 0x7 PUSH1 0x0 SWAP1 SLOAD SWAP1 PUSH2 0x100 EXP SWAP1 DIV PUSH1 0xFF AND ISZERO PUSH1 0x7 PUSH1 0x0 PUSH2 0x100 EXP DUP2 SLOAD DUP2 PUSH1 0xFF MUL NOT AND SWAP1 DUP4 ISZERO ISZERO MUL OR SWAP1 SSTORE POP JUMP JUMPDEST PUSH1 0x7 PUSH1 0x0 SWAP1 SLOAD SWAP1 PUSH2 0x100 EXP SWAP1 DIV PUSH1 0xFF AND DUP2 JUMP JUMPDEST PUSH1 0x3 PUSH1 0x2 SWAP1 SLOAD SWAP1 PUSH2 0x100 EXP SWAP1 DIV PUSH1 0xFF AND DUP2 JUMP JUMPDEST PUSH1 0x3 PUSH1 0x0 SWAP1 SLOAD SWAP1 PUSH2 0x100 EXP SWAP1 DIV PUSH1 0xFF AND DUP2 JUMP JUMPDEST PUSH32 0x0 PUSH20 0xFFFFFFFFFFFFFFFFFFFFFFFFFFFFFFFFFFFFFFFF AND ORIGIN PUSH20 0xFFFFFFFFFFFFFFFFFFFFFFFFFFFFFFFFFFFFFFFF AND EQ DUP1 PUSH2 0xEE0 JUMPI POP PUSH32 0x0 PUSH20 0xFFFFFFFFFFFFFFFFFFFFFFFFFFFFFFFFFFFFFFFF AND CALLER PUSH20 0xFFFFFFFFFFFFFFFFFFFFFFFFFFFFFFFFFFFFFFFF AND EQ JUMPDEST PUSH2 0xF1F JUMPI PUSH1 0x40 MLOAD PUSH32 0x8C379A000000000000000000000000000000000000000000000000000000000 DUP2 MSTORE PUSH1 0x4 ADD PUSH2 0xF16 SWAP1 PUSH2 0x1F2A JUMP JUMPDEST PUSH1 0x40 MLOAD DUP1 SWAP2 SUB SWAP1 REVERT JUMPDEST PUSH1 0x0 PUSH1 0x1 PUSH1 0x2 PUSH1 0x3 PUSH1 0x1 SWAP1 SLOAD SWAP1 PUSH2 0x100 EXP SWAP1 DIV PUSH1 0xFF AND PUSH2 0xF3F SWAP2 SWAP1 PUSH2 0x204E JUMP JUMPDEST PUSH2 0xF49 SWAP2 SWAP1 PUSH2 0x2017 JUMP JUMPDEST PUSH1 0xFF AND PUSH1 0x3 PUSH1 0x2 SWAP1 SLOAD SWAP1 PUSH2 0x100 EXP SWAP1 DIV PUSH1 0xFF AND PUSH1 0xFF AND LT PUSH2 0xF69 JUMPI PUSH1 0x1 SWAP1 POP JUMPDEST DUP1 PUSH2 0xFA9 JUMPI PUSH1 0x40 MLOAD PUSH32 0x8C379A000000000000000000000000000000000000000000000000000000000 DUP2 MSTORE PUSH1 0x4 ADD PUSH2 0xFA0 SWAP1 PUSH2 0x1E8A JUMP JUMPDEST PUSH1 0x40 MLOAD DUP1 SWAP2 SUB SWAP1 REVERT JUMPDEST PUSH1 0x2 DUP1 PUSH1 0x2 DUP2 GT ISZERO PUSH2 0xFBE JUMPI PUSH2 0xFBD PUSH2 0x221C JUMP JUMPDEST JUMPDEST PUSH1 0x0 DUP1 SLOAD SWAP1 PUSH2 0x100 EXP SWAP1 DIV PUSH1 0xFF AND PUSH1 0x2 DUP2 GT ISZERO PUSH2 0xFDE JUMPI PUSH2 0xFDD PUSH2 0x221C JUMP JUMPDEST JUMPDEST EQ PUSH2 0x101E JUMPI PUSH1 0x40 MLOAD PUSH32 0x8C379A000000000000000000000000000000000000000000000000000000000 DUP2 MSTORE PUSH1 0x4 ADD PUSH2 0x1015 SWAP1 PUSH2 0x1EEA JUMP JUMPDEST PUSH1 0x40 MLOAD DUP1 SWAP2 SUB SWAP1 REVERT JUMPDEST PUSH1 0x7 PUSH1 0x0 SWAP1 SLOAD SWAP1 PUSH2 0x100 EXP SWAP1 DIV PUSH1 0xFF AND ISZERO PUSH2 0x106E JUMPI PUSH1 0x40 MLOAD PUSH32 0x8C379A000000000000000000000000000000000000000000000000000000000 DUP2 MSTORE PUSH1 0x4 ADD PUSH2 0x1065 SWAP1 PUSH2 0x1ECA JUMP JUMPDEST PUSH1 0x40 MLOAD DUP1 SWAP2 SUB SWAP1 REVERT JUMPDEST PUSH2 0x1076 PUSH2 0x16E3 JUMP JUMPDEST POP POP JUMP JUMPDEST PUSH1 0x5 PUSH1 0x20 MSTORE DUP1 PUSH1 0x0 MSTORE PUSH1 0x40 PUSH1 0x0 KECCAK256 PUSH1 0x0 SWAP2 POP SWAP1 POP DUP1 PUSH1 0x0 ADD PUSH1 0x0 SWAP1 SLOAD SWAP1 PUSH2 0x100 EXP SWAP1 DIV PUSH20 0xFFFFFFFFFFFFFFFFFFFFFFFFFFFFFFFFFFFFFFFF AND SWAP1 DUP1 PUSH1 0x0 ADD PUSH1 0x14 SWAP1 SLOAD SWAP1 PUSH2 0x100 EXP SWAP1 DIV PUSH1 0xFF AND SWAP1 POP DUP3 JUMP JUMPDEST PUSH1 0x4 DUP1 SLOAD PUSH2 0x10D8 SWAP1 PUSH2 0x2131 JUMP JUMPDEST DUP1 PUSH1 0x1F ADD PUSH1 0x20 DUP1 SWAP2 DIV MUL PUSH1 0x20 ADD PUSH1 0x40 MLOAD SWAP1 DUP2 ADD PUSH1 0x40 MSTORE DUP1 SWAP3 SWAP2 SWAP1 DUP2 DUP2 MSTORE PUSH1 0x20 ADD DUP3 DUP1 SLOAD PUSH2 0x1104 SWAP1 PUSH2 0x2131 JUMP JUMPDEST DUP1 ISZERO PUSH2 0x1151 JUMPI DUP1 PUSH1 0x1F LT PUSH2 0x1126 JUMPI PUSH2 0x100 DUP1 DUP4 SLOAD DIV MUL DUP4 MSTORE SWAP2 PUSH1 0x20 ADD SWAP2 PUSH2 0x1151 JUMP JUMPDEST DUP3 ADD SWAP2 SWAP1 PUSH1 0x0 MSTORE PUSH1 0x20 PUSH1 0x0 KECCAK256 SWAP1 JUMPDEST DUP2 SLOAD DUP2 MSTORE SWAP1 PUSH1 0x1 ADD SWAP1 PUSH1 0x20 ADD DUP1 DUP4 GT PUSH2 0x1134 JUMPI DUP3 SWAP1 SUB PUSH1 0x1F AND DUP3 ADD SWAP2 JUMPDEST POP POP POP POP POP DUP2 JUMP JUMPDEST PUSH1 0x0 CALLER PUSH1 0x0 ISZERO ISZERO PUSH1 0x2 PUSH1 0x0 DUP4 PUSH20 0xFFFFFFFFFFFFFFFFFFFFFFFFFFFFFFFFFFFFFFFF AND PUSH20 0xFFFFFFFFFFFFFFFFFFFFFFFFFFFFFFFFFFFFFFFF AND DUP2 MSTORE PUSH1 0x20 ADD SWAP1 DUP2 MSTORE PUSH1 0x20 ADD PUSH1 0x0 KECCAK256 PUSH1 0x1 ADD PUSH1 0x0 SWAP1 SLOAD SWAP1 PUSH2 0x100 EXP SWAP1 DIV PUSH1 0xFF AND ISZERO ISZERO EQ PUSH2 0x11F2 JUMPI PUSH1 0x40 MLOAD PUSH32 0x8C379A000000000000000000000000000000000000000000000000000000000 DUP2 MSTORE PUSH1 0x4 ADD PUSH2 0x11E9 SWAP1 PUSH2 0x1EAA JUMP JUMPDEST PUSH1 0x40 MLOAD DUP1 SWAP2 SUB SWAP1 REVERT JUMPDEST PUSH1 0x1 DUP1 PUSH1 0x2 DUP2 GT ISZERO PUSH2 0x1207 JUMPI PUSH2 0x1206 PUSH2 0x221C JUMP JUMPDEST JUMPDEST PUSH1 0x0 DUP1 SLOAD SWAP1 PUSH2 0x100 EXP SWAP1 DIV PUSH1 0xFF AND PUSH1 0x2 DUP2 GT ISZERO PUSH2 0x1227 JUMPI PUSH2 0x1226 PUSH2 0x221C JUMP JUMPDEST JUMPDEST EQ PUSH2 0x1267 JUMPI PUSH1 0x40 MLOAD PUSH32 0x8C379A000000000000000000000000000000000000000000000000000000000 DUP2 MSTORE PUSH1 0x4 ADD PUSH2 0x125E SWAP1 PUSH2 0x1EEA JUMP JUMPDEST PUSH1 0x40 MLOAD DUP1 SWAP2 SUB SWAP1 REVERT JUMPDEST PUSH1 0x7 PUSH1 0x0 SWAP1 SLOAD SWAP1 PUSH2 0x100 EXP SWAP1 DIV PUSH1 0xFF AND ISZERO PUSH2 0x12B7 JUMPI PUSH1 0x40 MLOAD PUSH32 0x8C379A000000000000000000000000000000000000000000000000000000000 DUP2 MSTORE PUSH1 0x4 ADD PUSH2 0x12AE SWAP1 PUSH2 0x1ECA JUMP JUMPDEST PUSH1 0x40 MLOAD DUP1 SWAP2 SUB SWAP1 REVERT JUMPDEST PUSH1 0x0 SWAP3 POP PUSH1 0x0 PUSH1 0x2 PUSH1 0x0 CALLER PUSH20 0xFFFFFFFFFFFFFFFFFFFFFFFFFFFFFFFFFFFFFFFF AND PUSH20 0xFFFFFFFFFFFFFFFFFFFFFFFFFFFFFFFFFFFFFFFF AND DUP2 MSTORE PUSH1 0x20 ADD SWAP1 DUP2 MSTORE PUSH1 0x20 ADD PUSH1 0x0 KECCAK256 PUSH1 0x0 ADD DUP1 SLOAD PUSH2 0x130A SWAP1 PUSH2 0x2131 JUMP JUMPDEST SWAP1 POP EQ PUSH2 0x1498 JUMPI PUSH1 0x0 PUSH1 0x1 PUSH1 0x0 DUP7 PUSH1 0xFF AND PUSH1 0xFF AND DUP2 MSTORE PUSH1 0x20 ADD SWAP1 DUP2 MSTORE PUSH1 0x20 ADD PUSH1 0x0 KECCAK256 DUP1 SLOAD PUSH2 0x1337 SWAP1 PUSH2 0x2131 JUMP JUMPDEST SWAP1 POP EQ PUSH2 0x1497 JUMPI PUSH1 0x1 SWAP3 POP PUSH1 0x1 PUSH1 0x2 PUSH1 0x0 CALLER PUSH20 0xFFFFFFFFFFFFFFFFFFFFFFFFFFFFFFFFFFFFFFFF AND PUSH20 0xFFFFFFFFFFFFFFFFFFFFFFFFFFFFFFFFFFFFFFFF AND DUP2 MSTORE PUSH1 0x20 ADD SWAP1 DUP2 MSTORE PUSH1 0x20 ADD PUSH1 0x0 KECCAK256 PUSH1 0x1 ADD PUSH1 0x0 PUSH2 0x100 EXP DUP2 SLOAD DUP2 PUSH1 0xFF MUL NOT AND SWAP1 DUP4 ISZERO ISZERO MUL OR SWAP1 SSTORE POP PUSH1 0x3 PUSH1 0x2 DUP2 DUP2 SWAP1 SLOAD SWAP1 PUSH2 0x100 EXP SWAP1 DIV PUSH1 0xFF AND DUP1 SWAP3 SWAP2 SWAP1 PUSH2 0x13BC SWAP1 PUSH2 0x2194 JUMP JUMPDEST SWAP2 SWAP1 PUSH2 0x100 EXP DUP2 SLOAD DUP2 PUSH1 0xFF MUL NOT AND SWAP1 DUP4 PUSH1 0xFF AND MUL OR SWAP1 SSTORE POP POP PUSH1 0x40 MLOAD DUP1 PUSH1 0x40 ADD PUSH1 0x40 MSTORE DUP1 CALLER PUSH20 0xFFFFFFFFFFFFFFFFFFFFFFFFFFFFFFFFFFFFFFFF AND DUP2 MSTORE PUSH1 0x20 ADD DUP6 PUSH1 0xFF AND DUP2 MSTORE POP PUSH1 0x5 PUSH1 0x0 PUSH1 0x3 PUSH1 0x2 SWAP1 SLOAD SWAP1 PUSH2 0x100 EXP SWAP1 DIV PUSH1 0xFF AND PUSH1 0xFF AND PUSH1 0xFF AND DUP2 MSTORE PUSH1 0x20 ADD SWAP1 DUP2 MSTORE PUSH1 0x20 ADD PUSH1 0x0 KECCAK256 PUSH1 0x0 DUP3 ADD MLOAD DUP2 PUSH1 0x0 ADD PUSH1 0x0 PUSH2 0x100 EXP DUP2 SLOAD DUP2 PUSH20 0xFFFFFFFFFFFFFFFFFFFFFFFFFFFFFFFFFFFFFFFF MUL NOT AND SWAP1 DUP4 PUSH20 0xFFFFFFFFFFFFFFFFFFFFFFFFFFFFFFFFFFFFFFFF AND MUL OR SWAP1 SSTORE POP PUSH1 0x20 DUP3 ADD MLOAD DUP2 PUSH1 0x0 ADD PUSH1 0x14 PUSH2 0x100 EXP DUP2 SLOAD DUP2 PUSH1 0xFF MUL NOT AND SWAP1 DUP4 PUSH1 0xFF AND MUL OR SWAP1 SSTORE POP SWAP1 POP POP JUMPDEST JUMPDEST PUSH1 0x1 PUSH1 0x2 PUSH1 0x3 PUSH1 0x1 SWAP1 SLOAD SWAP1 PUSH2 0x100 EXP SWAP1 DIV PUSH1 0xFF AND PUSH2 0x14B6 SWAP2 SWAP1 PUSH2 0x204E JUMP JUMPDEST PUSH2 0x14C0 SWAP2 SWAP1 PUSH2 0x2017 JUMP JUMPDEST PUSH1 0xFF AND PUSH1 0x3 PUSH1 0x2 SWAP1 SLOAD SWAP1 PUSH2 0x100 EXP SWAP1 DIV PUSH1 0xFF AND PUSH1 0xFF AND LT PUSH2 0x1506 JUMPI PUSH1 0x2 PUSH1 0x0 DUP1 PUSH2 0x100 EXP DUP2 SLOAD DUP2 PUSH1 0xFF MUL NOT AND SWAP1 DUP4 PUSH1 0x2 DUP2 GT ISZERO PUSH2 0x1500 JUMPI PUSH2 0x14FF PUSH2 0x221C JUMP JUMPDEST JUMPDEST MUL OR SWAP1 SSTORE POP JUMPDEST POP POP SWAP2 SWAP1 POP JUMP JUMPDEST PUSH32 0x0 PUSH20 0xFFFFFFFFFFFFFFFFFFFFFFFFFFFFFFFFFFFFFFFF AND ORIGIN PUSH20 0xFFFFFFFFFFFFFFFFFFFFFFFFFFFFFFFFFFFFFFFF AND EQ DUP1 PUSH2 0x15B2 JUMPI POP PUSH32 0x0 PUSH20 0xFFFFFFFFFFFFFFFFFFFFFFFFFFFFFFFFFFFFFFFF AND CALLER PUSH20 0xFFFFFFFFFFFFFFFFFFFFFFFFFFFFFFFFFFFFFFFF AND EQ JUMPDEST PUSH2 0x15F1 JUMPI PUSH1 0x40 MLOAD PUSH32 0x8C379A000000000000000000000000000000000000000000000000000000000 DUP2 MSTORE PUSH1 0x4 ADD PUSH2 0x15E8 SWAP1 PUSH2 0x1F2A JUMP JUMPDEST PUSH1 0x40 MLOAD DUP1 SWAP2 SUB SWAP1 REVERT JUMPDEST PUSH1 0x1 DUP1 PUSH1 0x2 DUP2 GT ISZERO PUSH2 0x1606 JUMPI PUSH2 0x1605 PUSH2 0x221C JUMP JUMPDEST JUMPDEST PUSH1 0x0 DUP1 SLOAD SWAP1 PUSH2 0x100 EXP SWAP1 DIV PUSH1 0xFF AND PUSH1 0x2 DUP2 GT ISZERO PUSH2 0x1626 JUMPI PUSH2 0x1625 PUSH2 0x221C JUMP JUMPDEST JUMPDEST EQ PUSH2 0x1666 JUMPI PUSH1 0x40 MLOAD PUSH32 0x8C379A000000000000000000000000000000000000000000000000000000000 DUP2 MSTORE PUSH1 0x4 ADD PUSH2 0x165D SWAP1 PUSH2 0x1EEA JUMP JUMPDEST PUSH1 0x40 MLOAD DUP1 SWAP2 SUB SWAP1 REVERT JUMPDEST PUSH1 0x7 PUSH1 0x0 SWAP1 SLOAD SWAP1 PUSH2 0x100 EXP SWAP1 DIV PUSH1 0xFF AND ISZERO PUSH2 0x16B6 JUMPI PUSH1 0x40 MLOAD PUSH32 0x8C379A000000000000000000000000000000000000000000000000000000000 DUP2 MSTORE PUSH1 0x4 ADD PUSH2 0x16AD SWAP1 PUSH2 0x1ECA JUMP JUMPDEST PUSH1 0x40 MLOAD DUP1 SWAP2 SUB SWAP1 REVERT JUMPDEST PUSH1 0x0 DUP1 PUSH1 0x0 PUSH2 0x100 EXP DUP2 SLOAD DUP2 PUSH1 0xFF MUL NOT AND SWAP1 DUP4 PUSH1 0x2 DUP2 GT ISZERO PUSH2 0x16DB JUMPI PUSH2 0x16DA PUSH2 0x221C JUMP JUMPDEST JUMPDEST MUL OR SWAP1 SSTORE POP POP JUMP JUMPDEST PUSH1 0x0 DUP1 PUSH1 0x0 PUSH1 0x1 SWAP1 POP JUMPDEST PUSH1 0x3 PUSH1 0x2 SWAP1 SLOAD SWAP1 PUSH2 0x100 EXP SWAP1 DIV PUSH1 0xFF AND PUSH1 0xFF AND DUP2 PUSH1 0xFF AND GT PUSH2 0x1875 JUMPI PUSH1 0x0 PUSH1 0x1 SWAP1 POP PUSH1 0x0 PUSH1 0x6 PUSH1 0x0 PUSH1 0x5 PUSH1 0x0 DUP7 PUSH1 0xFF AND PUSH1 0xFF AND DUP2 MSTORE PUSH1 0x20 ADD SWAP1 DUP2 MSTORE PUSH1 0x20 ADD PUSH1 0x0 KECCAK256 PUSH1 0x0 ADD PUSH1 0x14 SWAP1 SLOAD SWAP1 PUSH2 0x100 EXP SWAP1 DIV PUSH1 0xFF AND PUSH1 0xFF AND PUSH1 0xFF AND DUP2 MSTORE PUSH1 0x20 ADD SWAP1 DUP2 MSTORE PUSH1 0x20 ADD PUSH1 0x0 KECCAK256 PUSH1 0x0 SWAP1 SLOAD SWAP1 PUSH2 0x100 EXP SWAP1 DIV PUSH1 0xFF AND PUSH1 0xFF AND GT ISZERO PUSH2 0x17C8 JUMPI PUSH1 0x6 PUSH1 0x0 PUSH1 0x5 PUSH1 0x0 DUP6 PUSH1 0xFF AND PUSH1 0xFF AND DUP2 MSTORE PUSH1 0x20 ADD SWAP1 DUP2 MSTORE PUSH1 0x20 ADD PUSH1 0x0 KECCAK256 PUSH1 0x0 ADD PUSH1 0x14 SWAP1 SLOAD SWAP1 PUSH2 0x100 EXP SWAP1 DIV PUSH1 0xFF AND PUSH1 0xFF AND PUSH1 0xFF AND DUP2 MSTORE PUSH1 0x20 ADD SWAP1 DUP2 MSTORE PUSH1 0x20 ADD PUSH1 0x0 KECCAK256 PUSH1 0x0 SWAP1 SLOAD SWAP1 PUSH2 0x100 EXP SWAP1 DIV PUSH1 0xFF AND DUP2 PUSH2 0x17C5 SWAP2 SWAP1 PUSH2 0x2017 JUMP JUMPDEST SWAP1 POP JUMPDEST DUP1 PUSH1 0x6 PUSH1 0x0 PUSH1 0x5 PUSH1 0x0 DUP7 PUSH1 0xFF AND PUSH1 0xFF AND DUP2 MSTORE PUSH1 0x20 ADD SWAP1 DUP2 MSTORE PUSH1 0x20 ADD PUSH1 0x0 KECCAK256 PUSH1 0x0 ADD PUSH1 0x14 SWAP1 SLOAD SWAP1 PUSH2 0x100 EXP SWAP1 DIV PUSH1 0xFF AND PUSH1 0xFF AND PUSH1 0xFF AND DUP2 MSTORE PUSH1 0x20 ADD SWAP1 DUP2 MSTORE PUSH1 0x20 ADD PUSH1 0x0 KECCAK256 PUSH1 0x0 PUSH2 0x100 EXP DUP2 SLOAD DUP2 PUSH1 0xFF MUL NOT AND SWAP1 DUP4 PUSH1 0xFF AND MUL OR SWAP1 SSTORE POP DUP4 PUSH1 0xFF AND DUP2 PUSH1 0xFF AND GT ISZERO PUSH2 0x1861 JUMPI DUP1 SWAP4 POP PUSH1 0x5 PUSH1 0x0 DUP4 PUSH1 0xFF AND PUSH1 0xFF AND DUP2 MSTORE PUSH1 0x20 ADD SWAP1 DUP2 MSTORE PUSH1 0x20 ADD PUSH1 0x0 KECCAK256 PUSH1 0x0 ADD PUSH1 0x14 SWAP1 SLOAD SWAP1 PUSH2 0x100 EXP SWAP1 DIV PUSH1 0xFF AND SWAP3 POP JUMPDEST POP DUP1 DUP1 PUSH2 0x186D SWAP1 PUSH2 0x2194 JUMP JUMPDEST SWAP2 POP POP PUSH2 0x16ED JUMP JUMPDEST POP PUSH1 0x1 PUSH1 0x0 DUP3 PUSH1 0xFF AND PUSH1 0xFF AND DUP2 MSTORE PUSH1 0x20 ADD SWAP1 DUP2 MSTORE PUSH1 0x20 ADD PUSH1 0x0 KECCAK256 PUSH1 0x4 SWAP1 DUP1 SLOAD PUSH2 0x189D SWAP1 PUSH2 0x2131 JUMP JUMPDEST PUSH2 0x18A8 SWAP3 SWAP2 SWAP1 PUSH2 0x1933 JUMP JUMPDEST POP POP POP JUMP JUMPDEST DUP3 DUP1 SLOAD PUSH2 0x18B9 SWAP1 PUSH2 0x2131 JUMP JUMPDEST SWAP1 PUSH1 0x0 MSTORE PUSH1 0x20 PUSH1 0x0 KECCAK256 SWAP1 PUSH1 0x1F ADD PUSH1 0x20 SWAP1 DIV DUP2 ADD SWAP3 DUP3 PUSH2 0x18DB JUMPI PUSH1 0x0 DUP6 SSTORE PUSH2 0x1922 JUMP JUMPDEST DUP3 PUSH1 0x1F LT PUSH2 0x18F4 JUMPI DUP1 MLOAD PUSH1 0xFF NOT AND DUP4 DUP1 ADD OR DUP6 SSTORE PUSH2 0x1922 JUMP JUMPDEST DUP3 DUP1 ADD PUSH1 0x1 ADD DUP6 SSTORE DUP3 ISZERO PUSH2 0x1922 JUMPI SWAP2 DUP3 ADD JUMPDEST DUP3 DUP2 GT ISZERO PUSH2 0x1921 JUMPI DUP3 MLOAD DUP3 SSTORE SWAP2 PUSH1 0x20 ADD SWAP2 SWAP1 PUSH1 0x1 ADD SWAP1 PUSH2 0x1906 JUMP JUMPDEST JUMPDEST POP SWAP1 POP PUSH2 0x192F SWAP2 SWAP1 PUSH2 0x19C0 JUMP JUMPDEST POP SWAP1 JUMP JUMPDEST DUP3 DUP1 SLOAD PUSH2 0x193F SWAP1 PUSH2 0x2131 JUMP JUMPDEST SWAP1 PUSH1 0x0 MSTORE PUSH1 0x20 PUSH1 0x0 KECCAK256 SWAP1 PUSH1 0x1F ADD PUSH1 0x20 SWAP1 DIV DUP2 ADD SWAP3 DUP3 PUSH2 0x1961 JUMPI PUSH1 0x0 DUP6 SSTORE PUSH2 0x19AF JUMP JUMPDEST DUP3 PUSH1 0x1F LT PUSH2 0x1972 JUMPI DUP1 SLOAD DUP6 SSTORE PUSH2 0x19AF JUMP JUMPDEST DUP3 DUP1 ADD PUSH1 0x1 ADD DUP6 SSTORE DUP3 ISZERO PUSH2 0x19AF JUMPI PUSH1 0x0 MSTORE PUSH1 0x20 PUSH1 0x0 KECCAK256 SWAP2 PUSH1 0x1F ADD PUSH1 0x20 SWAP1 DIV DUP3 ADD JUMPDEST DUP3 DUP2 GT ISZERO PUSH2 0x19AE JUMPI DUP3 SLOAD DUP3 SSTORE SWAP2 PUSH1 0x1 ADD SWAP2 SWAP1 PUSH1 0x1 ADD SWAP1 PUSH2 0x1993 JUMP JUMPDEST JUMPDEST POP SWAP1 POP PUSH2 0x19BC SWAP2 SWAP1 PUSH2 0x19C0 JUMP JUMPDEST POP SWAP1 JUMP JUMPDEST JUMPDEST DUP1 DUP3 GT ISZERO PUSH2 0x19D9 JUMPI PUSH1 0x0 DUP2 PUSH1 0x0 SWAP1 SSTORE POP PUSH1 0x1 ADD PUSH2 0x19C1 JUMP JUMPDEST POP SWAP1 JUMP JUMPDEST PUSH1 0x0 PUSH2 0x19F0 PUSH2 0x19EB DUP5 PUSH2 0x1FAA JUMP JUMPDEST PUSH2 0x1F85 JUMP JUMPDEST SWAP1 POP DUP3 DUP2 MSTORE PUSH1 0x20 DUP2 ADD DUP5 DUP5 DUP5 ADD GT ISZERO PUSH2 0x1A0C JUMPI PUSH2 0x1A0B PUSH2 0x22AE JUMP JUMPDEST JUMPDEST PUSH2 0x1A17 DUP5 DUP3 DUP6 PUSH2 0x20EF JUMP JUMPDEST POP SWAP4 SWAP3 POP POP POP JUMP JUMPDEST PUSH1 0x0 DUP2 CALLDATALOAD SWAP1 POP PUSH2 0x1A2E DUP2 PUSH2 0x2473 JUMP JUMPDEST SWAP3 SWAP2 POP POP JUMP JUMPDEST PUSH1 0x0 DUP3 PUSH1 0x1F DUP4 ADD SLT PUSH2 0x1A49 JUMPI PUSH2 0x1A48 PUSH2 0x22A9 JUMP JUMPDEST JUMPDEST DUP2 CALLDATALOAD PUSH2 0x1A59 DUP5 DUP3 PUSH1 0x20 DUP7 ADD PUSH2 0x19DD JUMP JUMPDEST SWAP2 POP POP SWAP3 SWAP2 POP POP JUMP JUMPDEST PUSH1 0x0 DUP2 CALLDATALOAD SWAP1 POP PUSH2 0x1A71 DUP2 PUSH2 0x248A JUMP JUMPDEST SWAP3 SWAP2 POP POP JUMP JUMPDEST PUSH1 0x0 PUSH1 0x20 DUP3 DUP5 SUB SLT ISZERO PUSH2 0x1A8D JUMPI PUSH2 0x1A8C PUSH2 0x22B8 JUMP JUMPDEST JUMPDEST PUSH1 0x0 PUSH2 0x1A9B DUP5 DUP3 DUP6 ADD PUSH2 0x1A1F JUMP JUMPDEST SWAP2 POP POP SWAP3 SWAP2 POP POP JUMP JUMPDEST PUSH1 0x0 DUP1 PUSH1 0x40 DUP4 DUP6 SUB SLT ISZERO PUSH2 0x1ABB JUMPI PUSH2 0x1ABA PUSH2 0x22B8 JUMP JUMPDEST JUMPDEST PUSH1 0x0 PUSH2 0x1AC9 DUP6 DUP3 DUP7 ADD PUSH2 0x1A1F JUMP JUMPDEST SWAP3 POP POP PUSH1 0x20 DUP4 ADD CALLDATALOAD PUSH8 0xFFFFFFFFFFFFFFFF DUP2 GT ISZERO PUSH2 0x1AEA JUMPI PUSH2 0x1AE9 PUSH2 0x22B3 JUMP JUMPDEST JUMPDEST PUSH2 0x1AF6 DUP6 DUP3 DUP7 ADD PUSH2 0x1A34 JUMP JUMPDEST SWAP2 POP POP SWAP3 POP SWAP3 SWAP1 POP JUMP JUMPDEST PUSH1 0x0 PUSH1 0x20 DUP3 DUP5 SUB SLT ISZERO PUSH2 0x1B16 JUMPI PUSH2 0x1B15 PUSH2 0x22B8 JUMP JUMPDEST JUMPDEST PUSH1 0x0 DUP3 ADD CALLDATALOAD PUSH8 0xFFFFFFFFFFFFFFFF DUP2 GT ISZERO PUSH2 0x1B34 JUMPI PUSH2 0x1B33 PUSH2 0x22B3 JUMP JUMPDEST JUMPDEST PUSH2 0x1B40 DUP5 DUP3 DUP6 ADD PUSH2 0x1A34 JUMP JUMPDEST SWAP2 POP POP SWAP3 SWAP2 POP POP JUMP JUMPDEST PUSH1 0x0 PUSH1 0x20 DUP3 DUP5 SUB SLT ISZERO PUSH2 0x1B5F JUMPI PUSH2 0x1B5E PUSH2 0x22B8 JUMP JUMPDEST JUMPDEST PUSH1 0x0 PUSH2 0x1B6D DUP5 DUP3 DUP6 ADD PUSH2 0x1A62 JUMP JUMPDEST SWAP2 POP POP SWAP3 SWAP2 POP POP JUMP JUMPDEST PUSH2 0x1B7F DUP2 PUSH2 0x207F JUMP JUMPDEST DUP3 MSTORE POP POP JUMP JUMPDEST PUSH2 0x1B8E DUP2 PUSH2 0x2091 JUMP JUMPDEST DUP3 MSTORE POP POP JUMP JUMPDEST PUSH2 0x1B9D DUP2 PUSH2 0x20DD JUMP JUMPDEST DUP3 MSTORE POP POP JUMP JUMPDEST PUSH1 0x0 PUSH2 0x1BAE DUP3 PUSH2 0x1FF0 JUMP JUMPDEST PUSH2 0x1BB8 DUP2 DUP6 PUSH2 0x1FFB JUMP JUMPDEST SWAP4 POP PUSH2 0x1BC8 DUP2 DUP6 PUSH1 0x20 DUP7 ADD PUSH2 0x20FE JUMP JUMPDEST PUSH2 0x1BD1 DUP2 PUSH2 0x22BD JUMP JUMPDEST DUP5 ADD SWAP2 POP POP SWAP3 SWAP2 POP POP JUMP JUMPDEST PUSH1 0x0 PUSH2 0x1BE7 DUP3 PUSH2 0x1FF0 JUMP JUMPDEST PUSH2 0x1BF1 DUP2 DUP6 PUSH2 0x200C JUMP JUMPDEST SWAP4 POP PUSH2 0x1C01 DUP2 DUP6 PUSH1 0x20 DUP7 ADD PUSH2 0x20FE JUMP JUMPDEST DUP1 DUP5 ADD SWAP2 POP POP SWAP3 SWAP2 POP POP JUMP JUMPDEST PUSH1 0x0 DUP2 SLOAD PUSH2 0x1C1A DUP2 PUSH2 0x2131 JUMP JUMPDEST PUSH2 0x1C24 DUP2 DUP7 PUSH2 0x200C JUMP JUMPDEST SWAP5 POP PUSH1 0x1 DUP3 AND PUSH1 0x0 DUP2 EQ PUSH2 0x1C3F JUMPI PUSH1 0x1 DUP2 EQ PUSH2 0x1C50 JUMPI PUSH2 0x1C83 JUMP JUMPDEST PUSH1 0xFF NOT DUP4 AND DUP7 MSTORE DUP2 DUP7 ADD SWAP4 POP PUSH2 0x1C83 JUMP JUMPDEST PUSH2 0x1C59 DUP6 PUSH2 0x1FDB JUMP JUMPDEST PUSH1 0x0 JUMPDEST DUP4 DUP2 LT ISZERO PUSH2 0x1C7B JUMPI DUP2 SLOAD DUP2 DUP10 ADD MSTORE PUSH1 0x1 DUP3 ADD SWAP2 POP PUSH1 0x20 DUP2 ADD SWAP1 POP PUSH2 0x1C5C JUMP JUMPDEST DUP4 DUP9 ADD SWAP6 POP POP POP JUMPDEST POP POP POP SWAP3 SWAP2 POP POP JUMP JUMPDEST PUSH1 0x0 PUSH2 0x1C99 PUSH1 0x26 DUP4 PUSH2 0x1FFB JUMP JUMPDEST SWAP2 POP PUSH2 0x1CA4 DUP3 PUSH2 0x22CE JUMP JUMPDEST PUSH1 0x40 DUP3 ADD SWAP1 POP SWAP2 SWAP1 POP JUMP JUMPDEST PUSH1 0x0 PUSH2 0x1CBC PUSH1 0x13 DUP4 PUSH2 0x1FFB JUMP JUMPDEST SWAP2 POP PUSH2 0x1CC7 DUP3 PUSH2 0x231D JUMP JUMPDEST PUSH1 0x20 DUP3 ADD SWAP1 POP SWAP2 SWAP1 POP JUMP JUMPDEST PUSH1 0x0 PUSH2 0x1CDF PUSH1 0x14 DUP4 PUSH2 0x1FFB JUMP JUMPDEST SWAP2 POP PUSH2 0x1CEA DUP3 PUSH2 0x2346 JUMP JUMPDEST PUSH1 0x20 DUP3 ADD SWAP1 POP SWAP2 SWAP1 POP JUMP JUMPDEST PUSH1 0x0 PUSH2 0x1D02 PUSH1 0x29 DUP4 PUSH2 0x1FFB JUMP JUMPDEST SWAP2 POP PUSH2 0x1D0D DUP3 PUSH2 0x236F JUMP JUMPDEST PUSH1 0x40 DUP3 ADD SWAP1 POP SWAP2 SWAP1 POP JUMP JUMPDEST PUSH1 0x0 PUSH2 0x1D25 PUSH1 0x16 DUP4 PUSH2 0x1FFB JUMP JUMPDEST SWAP2 POP PUSH2 0x1D30 DUP3 PUSH2 0x23BE JUMP JUMPDEST PUSH1 0x20 DUP3 ADD SWAP1 POP SWAP2 SWAP1 POP JUMP JUMPDEST PUSH1 0x0 PUSH2 0x1D48 PUSH1 0x23 DUP4 PUSH2 0x1FFB JUMP JUMPDEST SWAP2 POP PUSH2 0x1D53 DUP3 PUSH2 0x23E7 JUMP JUMPDEST PUSH1 0x40 DUP3 ADD SWAP1 POP SWAP2 SWAP1 POP JUMP JUMPDEST PUSH1 0x0 PUSH2 0x1D6B PUSH1 0x1A DUP4 PUSH2 0x1FFB JUMP JUMPDEST SWAP2 POP PUSH2 0x1D76 DUP3 PUSH2 0x2436 JUMP JUMPDEST PUSH1 0x20 DUP3 ADD SWAP1 POP SWAP2 SWAP1 POP JUMP JUMPDEST PUSH2 0x1D8A DUP2 PUSH2 0x20D0 JUMP JUMPDEST DUP3 MSTORE POP POP JUMP JUMPDEST PUSH1 0x0 PUSH2 0x1D9C DUP3 DUP5 PUSH2 0x1BDC JUMP JUMPDEST SWAP2 POP DUP2 SWAP1 POP SWAP3 SWAP2 POP POP JUMP JUMPDEST PUSH1 0x0 PUSH2 0x1DB3 DUP3 DUP5 PUSH2 0x1C0D JUMP JUMPDEST SWAP2 POP DUP2 SWAP1 POP SWAP3 SWAP2 POP POP JUMP JUMPDEST PUSH1 0x0 PUSH1 0x20 DUP3 ADD SWAP1 POP PUSH2 0x1DD3 PUSH1 0x0 DUP4 ADD DUP5 PUSH2 0x1B76 JUMP JUMPDEST SWAP3 SWAP2 POP POP JUMP JUMPDEST PUSH1 0x0 PUSH1 0x40 DUP3 ADD SWAP1 POP PUSH2 0x1DEE PUSH1 0x0 DUP4 ADD DUP6 PUSH2 0x1B76 JUMP JUMPDEST PUSH2 0x1DFB PUSH1 0x20 DUP4 ADD DUP5 PUSH2 0x1D81 JUMP JUMPDEST SWAP4 SWAP3 POP POP POP JUMP JUMPDEST PUSH1 0x0 PUSH1 0x20 DUP3 ADD SWAP1 POP PUSH2 0x1E17 PUSH1 0x0 DUP4 ADD DUP5 PUSH2 0x1B85 JUMP JUMPDEST SWAP3 SWAP2 POP POP JUMP JUMPDEST PUSH1 0x0 PUSH1 0x20 DUP3 ADD SWAP1 POP PUSH2 0x1E32 PUSH1 0x0 DUP4 ADD DUP5 PUSH2 0x1B94 JUMP JUMPDEST SWAP3 SWAP2 POP POP JUMP JUMPDEST PUSH1 0x0 PUSH1 0x20 DUP3 ADD SWAP1 POP DUP2 DUP2 SUB PUSH1 0x0 DUP4 ADD MSTORE PUSH2 0x1E52 DUP2 DUP5 PUSH2 0x1BA3 JUMP JUMPDEST SWAP1 POP SWAP3 SWAP2 POP POP JUMP JUMPDEST PUSH1 0x0 PUSH1 0x40 DUP3 ADD SWAP1 POP DUP2 DUP2 SUB PUSH1 0x0 DUP4 ADD MSTORE PUSH2 0x1E74 DUP2 DUP6 PUSH2 0x1BA3 JUMP JUMPDEST SWAP1 POP PUSH2 0x1E83 PUSH1 0x20 DUP4 ADD DUP5 PUSH2 0x1B85 JUMP JUMPDEST SWAP4 SWAP3 POP POP POP JUMP JUMPDEST PUSH1 0x0 PUSH1 0x20 DUP3 ADD SWAP1 POP DUP2 DUP2 SUB PUSH1 0x0 DUP4 ADD MSTORE PUSH2 0x1EA3 DUP2 PUSH2 0x1C8C JUMP JUMPDEST SWAP1 POP SWAP2 SWAP1 POP JUMP JUMPDEST PUSH1 0x0 PUSH1 0x20 DUP3 ADD SWAP1 POP DUP2 DUP2 SUB PUSH1 0x0 DUP4 ADD MSTORE PUSH2 0x1EC3 DUP2 PUSH2 0x1CAF JUMP JUMPDEST SWAP1 POP SWAP2 SWAP1 POP JUMP JUMPDEST PUSH1 0x0 PUSH1 0x20 DUP3 ADD SWAP1 POP DUP2 DUP2 SUB PUSH1 0x0 DUP4 ADD MSTORE PUSH2 0x1EE3 DUP2 PUSH2 0x1CD2 JUMP JUMPDEST SWAP1 POP SWAP2 SWAP1 POP JUMP JUMPDEST PUSH1 0x0 PUSH1 0x20 DUP3 ADD SWAP1 POP DUP2 DUP2 SUB PUSH1 0x0 DUP4 ADD MSTORE PUSH2 0x1F03 DUP2 PUSH2 0x1CF5 JUMP JUMPDEST SWAP1 POP SWAP2 SWAP1 POP JUMP JUMPDEST PUSH1 0x0 PUSH1 0x20 DUP3 ADD SWAP1 POP DUP2 DUP2 SUB PUSH1 0x0 DUP4 ADD MSTORE PUSH2 0x1F23 DUP2 PUSH2 0x1D18 JUMP JUMPDEST SWAP1 POP SWAP2 SWAP1 POP JUMP JUMPDEST PUSH1 0x0 PUSH1 0x20 DUP3 ADD SWAP1 POP DUP2 DUP2 SUB PUSH1 0x0 DUP4 ADD MSTORE PUSH2 0x1F43 DUP2 PUSH2 0x1D3B JUMP JUMPDEST SWAP1 POP SWAP2 SWAP1 POP JUMP JUMPDEST PUSH1 0x0 PUSH1 0x20 DUP3 ADD SWAP1 POP DUP2 DUP2 SUB PUSH1 0x0 DUP4 ADD MSTORE PUSH2 0x1F63 DUP2 PUSH2 0x1D5E JUMP JUMPDEST SWAP1 POP SWAP2 SWAP1 POP JUMP JUMPDEST PUSH1 0x0 PUSH1 0x20 DUP3 ADD SWAP1 POP PUSH2 0x1F7F PUSH1 0x0 DUP4 ADD DUP5 PUSH2 0x1D81 JUMP JUMPDEST SWAP3 SWAP2 POP POP JUMP JUMPDEST PUSH1 0x0 PUSH2 0x1F8F PUSH2 0x1FA0 JUMP JUMPDEST SWAP1 POP PUSH2 0x1F9B DUP3 DUP3 PUSH2 0x2163 JUMP JUMPDEST SWAP2 SWAP1 POP JUMP JUMPDEST PUSH1 0x0 PUSH1 0x40 MLOAD SWAP1 POP SWAP1 JUMP JUMPDEST PUSH1 0x0 PUSH8 0xFFFFFFFFFFFFFFFF DUP3 GT ISZERO PUSH2 0x1FC5 JUMPI PUSH2 0x1FC4 PUSH2 0x227A JUMP JUMPDEST JUMPDEST PUSH2 0x1FCE DUP3 PUSH2 0x22BD JUMP JUMPDEST SWAP1 POP PUSH1 0x20 DUP2 ADD SWAP1 POP SWAP2 SWAP1 POP JUMP JUMPDEST PUSH1 0x0 DUP2 SWAP1 POP DUP2 PUSH1 0x0 MSTORE PUSH1 0x20 PUSH1 0x0 KECCAK256 SWAP1 POP SWAP2 SWAP1 POP JUMP JUMPDEST PUSH1 0x0 DUP2 MLOAD SWAP1 POP SWAP2 SWAP1 POP JUMP JUMPDEST PUSH1 0x0 DUP3 DUP3 MSTORE PUSH1 0x20 DUP3 ADD SWAP1 POP SWAP3 SWAP2 POP POP JUMP JUMPDEST PUSH1 0x0 DUP2 SWAP1 POP SWAP3 SWAP2 POP POP JUMP JUMPDEST PUSH1 0x0 PUSH2 0x2022 DUP3 PUSH2 0x20D0 JUMP JUMPDEST SWAP2 POP PUSH2 0x202D DUP4 PUSH2 0x20D0 JUMP JUMPDEST SWAP3 POP DUP3 PUSH1 0xFF SUB DUP3 GT ISZERO PUSH2 0x2043 JUMPI PUSH2 0x2042 PUSH2 0x21BE JUMP JUMPDEST JUMPDEST DUP3 DUP3 ADD SWAP1 POP SWAP3 SWAP2 POP POP JUMP JUMPDEST PUSH1 0x0 PUSH2 0x2059 DUP3 PUSH2 0x20D0 JUMP JUMPDEST SWAP2 POP PUSH2 0x2064 DUP4 PUSH2 0x20D0 JUMP JUMPDEST SWAP3 POP DUP3 PUSH2 0x2074 JUMPI PUSH2 0x2073 PUSH2 0x21ED JUMP JUMPDEST JUMPDEST DUP3 DUP3 DIV SWAP1 POP SWAP3 SWAP2 POP POP JUMP JUMPDEST PUSH1 0x0 PUSH2 0x208A DUP3 PUSH2 0x20B0 JUMP JUMPDEST SWAP1 POP SWAP2 SWAP1 POP JUMP JUMPDEST PUSH1 0x0 DUP2 ISZERO ISZERO SWAP1 POP SWAP2 SWAP1 POP JUMP JUMPDEST PUSH1 0x0 DUP2 SWAP1 POP PUSH2 0x20AB DUP3 PUSH2 0x245F JUMP JUMPDEST SWAP2 SWAP1 POP JUMP JUMPDEST PUSH1 0x0 PUSH20 0xFFFFFFFFFFFFFFFFFFFFFFFFFFFFFFFFFFFFFFFF DUP3 AND SWAP1 POP SWAP2 SWAP1 POP JUMP JUMPDEST PUSH1 0x0 PUSH1 0xFF DUP3 AND SWAP1 POP SWAP2 SWAP1 POP JUMP JUMPDEST PUSH1 0x0 PUSH2 0x20E8 DUP3 PUSH2 0x209D JUMP JUMPDEST SWAP1 POP SWAP2 SWAP1 POP JUMP JUMPDEST DUP3 DUP2 DUP4 CALLDATACOPY PUSH1 0x0 DUP4 DUP4 ADD MSTORE POP POP POP JUMP JUMPDEST PUSH1 0x0 JUMPDEST DUP4 DUP2 LT ISZERO PUSH2 0x211C JUMPI DUP1 DUP3 ADD MLOAD DUP2 DUP5 ADD MSTORE PUSH1 0x20 DUP2 ADD SWAP1 POP PUSH2 0x2101 JUMP JUMPDEST DUP4 DUP2 GT ISZERO PUSH2 0x212B JUMPI PUSH1 0x0 DUP5 DUP5 ADD MSTORE JUMPDEST POP POP POP POP JUMP JUMPDEST PUSH1 0x0 PUSH1 0x2 DUP3 DIV SWAP1 POP PUSH1 0x1 DUP3 AND DUP1 PUSH2 0x2149 JUMPI PUSH1 0x7F DUP3 AND SWAP2 POP JUMPDEST PUSH1 0x20 DUP3 LT DUP2 EQ ISZERO PUSH2 0x215D JUMPI PUSH2 0x215C PUSH2 0x224B JUMP JUMPDEST JUMPDEST POP SWAP2 SWAP1 POP JUMP JUMPDEST PUSH2 0x216C DUP3 PUSH2 0x22BD JUMP JUMPDEST DUP2 ADD DUP2 DUP2 LT PUSH8 0xFFFFFFFFFFFFFFFF DUP3 GT OR ISZERO PUSH2 0x218B JUMPI PUSH2 0x218A PUSH2 0x227A JUMP JUMPDEST JUMPDEST DUP1 PUSH1 0x40 MSTORE POP POP POP JUMP JUMPDEST PUSH1 0x0 PUSH2 0x219F DUP3 PUSH2 0x20D0 JUMP JUMPDEST SWAP2 POP PUSH1 0xFF DUP3 EQ ISZERO PUSH2 0x21B3 JUMPI PUSH2 0x21B2 PUSH2 0x21BE JUMP JUMPDEST JUMPDEST PUSH1 0x1 DUP3 ADD SWAP1 POP SWAP2 SWAP1 POP JUMP JUMPDEST PUSH32 0x4E487B7100000000000000000000000000000000000000000000000000000000 PUSH1 0x0 MSTORE PUSH1 0x11 PUSH1 0x4 MSTORE PUSH1 0x24 PUSH1 0x0 REVERT JUMPDEST PUSH32 0x4E487B7100000000000000000000000000000000000000000000000000000000 PUSH1 0x0 MSTORE PUSH1 0x12 PUSH1 0x4 MSTORE PUSH1 0x24 PUSH1 0x0 REVERT JUMPDEST PUSH32 0x4E487B7100000000000000000000000000000000000000000000000000000000 PUSH1 0x0 MSTORE PUSH1 0x21 PUSH1 0x4 MSTORE PUSH1 0x24 PUSH1 0x0 REVERT JUMPDEST PUSH32 0x4E487B7100000000000000000000000000000000000000000000000000000000 PUSH1 0x0 MSTORE PUSH1 0x22 PUSH1 0x4 MSTORE PUSH1 0x24 PUSH1 0x0 REVERT JUMPDEST PUSH32 0x4E487B7100000000000000000000000000000000000000000000000000000000 PUSH1 0x0 MSTORE PUSH1 0x41 PUSH1 0x4 MSTORE PUSH1 0x24 PUSH1 0x0 REVERT JUMPDEST PUSH1 0x0 DUP1 REVERT JUMPDEST PUSH1 0x0 DUP1 REVERT JUMPDEST PUSH1 0x0 DUP1 REVERT JUMPDEST PUSH1 0x0 DUP1 REVERT JUMPDEST PUSH1 0x0 PUSH1 0x1F NOT PUSH1 0x1F DUP4 ADD AND SWAP1 POP SWAP2 SWAP1 POP JUMP JUMPDEST PUSH32 0x566F74696E672071756F72756D206973206E6F74206D65742E204B6565702076 PUSH1 0x0 DUP3 ADD MSTORE PUSH32 0x6F74696E672E0000000000000000000000000000000000000000000000000000 PUSH1 0x20 DUP3 ADD MSTORE POP JUMP JUMPDEST PUSH32 0x43616E206F6E6C7920766F7465206F6E63652E00000000000000000000000000 PUSH1 0x0 DUP3 ADD MSTORE POP JUMP JUMPDEST PUSH32 0x436F6E74726163742069732073746F707065642E000000000000000000000000 PUSH1 0x0 DUP3 ADD MSTORE POP JUMP JUMPDEST PUSH32 0x46756E6374696F6E2063616E206E6F742062652063616C6C656420696E207468 PUSH1 0x0 DUP3 ADD MSTORE PUSH32 0x69732073746167652E0000000000000000000000000000000000000000000000 PUSH1 0x20 DUP3 ADD MSTORE POP JUMP JUMPDEST PUSH32 0x467269656E6420616C7265616479206578697374732E00000000000000000000 PUSH1 0x0 DUP3 ADD MSTORE POP JUMP JUMPDEST PUSH32 0x43616E206F6E6C7920626520657865637574656420627920746865206D616E61 PUSH1 0x0 DUP3 ADD MSTORE PUSH32 0x6765720000000000000000000000000000000000000000000000000000000000 PUSH1 0x20 DUP3 ADD MSTORE POP JUMP JUMPDEST PUSH32 0x52657374617572616E7420616C7265616479206578697374732E000000000000 PUSH1 0x0 DUP3 ADD MSTORE POP JUMP JUMPDEST PUSH1 0x3 DUP2 LT PUSH2 0x2470 JUMPI PUSH2 0x246F PUSH2 0x221C JUMP JUMPDEST JUMPDEST POP JUMP JUMPDEST PUSH2 0x247C DUP2 PUSH2 0x207F JUMP JUMPDEST DUP2 EQ PUSH2 0x2487 JUMPI PUSH1 0x0 DUP1 REVERT JUMPDEST POP JUMP JUMPDEST PUSH2 0x2493 DUP2 PUSH2 0x20D0 JUMP JUMPDEST DUP2 EQ PUSH2 0x249E JUMPI PUSH1 0x0 DUP1 REVERT JUMPDEST POP JUMP INVALID LOG2 PUSH5 0x6970667358 0x22 SLT KECCAK256 PUSH17 0xE74322A796FEAAFF8D950062D9E41C6AD7 0xB7 0xCF 0xDB 0xD5 0xB6 SWAP13 DUP2 JUMPI NOT 0x25 ADDMOD 0x2E EXTCODESIZE GASPRICE PUSH5 0x736F6C6343 STOP ADDMOD SDIV STOP CALLER "
				},
				"gasEstimates": {
					"creation": {
						"codeDepositCost": "1886200",
						"executionCost": "infinite",
						"totalCost": "infinite"
					},
					"external": {
						"addFriend(address,string)": "infinite",
						"addRestaurant(string)": "infinite",
						"currentStage()": "2624",
						"doVote(uint8)": "infinite",
						"endVote()": "infinite",
						"friends(address)": "infinite",
						"manager()": "infinite",
						"numFriends()": "2611",
						"numRestaurants()": "2560",
						"numVotes()": "2588",
						"restaurants(uint8)": "infinite",
						"setStopped()": "infinite",
						"startCreate()": "infinite",
						"startVote()": "infinite",
						"stopped()": "2516",
						"votedRestaurant()": "infinite",
						"votes(uint8)": "infinite"
					},
					"internal": {
						"finalResult()": "infinite"
					}
				},
				"methodIdentifiers": {
					"addFriend(address,string)": "3b9f708d",
					"addRestaurant(string)": "6d77bd3e",
					"currentStage()": "5bf5d54c",
					"doVote(uint8)": "e9b16ca3",
					"endVote()": "b9223946",
					"friends(address)": "1ddabf7a",
					"manager()": "481c6a75",
					"numFriends()": "47098f36",
					"numRestaurants()": "b798867f",
					"numVotes()": "a3bef4d7",
					"restaurants(uint8)": "19a06f27",
					"setStopped()": "71135f8b",
					"startCreate()": "fc7ffbba",
					"startVote()": "4c0a6af0",
					"stopped()": "75f12b21",
					"votedRestaurant()": "c1c16efc",
					"votes(uint8)": "c1b43357"
				}
			},
			"storageLayout": {
				"storage": [
					{
						"astId": 21,
						"contract": "contracts/LunchVenue_updated.sol:LunchVenue_updated",
						"label": "currentStage",
						"offset": 0,
						"slot": "0",
						"type": "t_enum(Stage)16"
					},
					{
						"astId": 25,
						"contract": "contracts/LunchVenue_updated.sol:LunchVenue_updated",
						"label": "restaurants",
						"offset": 0,
						"slot": "1",
						"type": "t_mapping(t_uint8,t_string_storage)"
					},
					{
						"astId": 30,
						"contract": "contracts/LunchVenue_updated.sol:LunchVenue_updated",
						"label": "friends",
						"offset": 0,
						"slot": "2",
						"type": "t_mapping(t_address,t_struct(Friend)7_storage)"
					},
					{
						"astId": 33,
						"contract": "contracts/LunchVenue_updated.sol:LunchVenue_updated",
						"label": "numRestaurants",
						"offset": 0,
						"slot": "3",
						"type": "t_uint8"
					},
					{
						"astId": 36,
						"contract": "contracts/LunchVenue_updated.sol:LunchVenue_updated",
						"label": "numFriends",
						"offset": 1,
						"slot": "3",
						"type": "t_uint8"
					},
					{
						"astId": 39,
						"contract": "contracts/LunchVenue_updated.sol:LunchVenue_updated",
						"label": "numVotes",
						"offset": 2,
						"slot": "3",
						"type": "t_uint8"
					},
					{
						"astId": 44,
						"contract": "contracts/LunchVenue_updated.sol:LunchVenue_updated",
						"label": "votedRestaurant",
						"offset": 0,
						"slot": "4",
						"type": "t_string_storage"
					},
					{
						"astId": 49,
						"contract": "contracts/LunchVenue_updated.sol:LunchVenue_updated",
						"label": "votes",
						"offset": 0,
						"slot": "5",
						"type": "t_mapping(t_uint8,t_struct(Vote)12_storage)"
					},
					{
						"astId": 53,
						"contract": "contracts/LunchVenue_updated.sol:LunchVenue_updated",
						"label": "_results",
						"offset": 0,
						"slot": "6",
						"type": "t_mapping(t_uint8,t_uint8)"
					},
					{
						"astId": 56,
						"contract": "contracts/LunchVenue_updated.sol:LunchVenue_updated",
						"label": "stopped",
						"offset": 0,
						"slot": "7",
						"type": "t_bool"
					}
				],
				"types": {
					"t_address": {
						"encoding": "inplace",
						"label": "address",
						"numberOfBytes": "20"
					},
					"t_bool": {
						"encoding": "inplace",
						"label": "bool",
						"numberOfBytes": "1"
					},
					"t_enum(Stage)16": {
						"encoding": "inplace",
						"label": "enum LunchVenue_updated.Stage",
						"numberOfBytes": "1"
					},
					"t_mapping(t_address,t_struct(Friend)7_storage)": {
						"encoding": "mapping",
						"key": "t_address",
						"label": "mapping(address => struct LunchVenue_updated.Friend)",
						"numberOfBytes": "32",
						"value": "t_struct(Friend)7_storage"
					},
					"t_mapping(t_uint8,t_string_storage)": {
						"encoding": "mapping",
						"key": "t_uint8",
						"label": "mapping(uint8 => string)",
						"numberOfBytes": "32",
						"value": "t_string_storage"
					},
					"t_mapping(t_uint8,t_struct(Vote)12_storage)": {
						"encoding": "mapping",
						"key": "t_uint8",
						"label": "mapping(uint8 => struct LunchVenue_updated.Vote)",
						"numberOfBytes": "32",
						"value": "t_struct(Vote)12_storage"
					},
					"t_mapping(t_uint8,t_uint8)": {
						"encoding": "mapping",
						"key": "t_uint8",
						"label": "mapping(uint8 => uint8)",
						"numberOfBytes": "32",
						"value": "t_uint8"
					},
					"t_string_storage": {
						"encoding": "bytes",
						"label": "string",
						"numberOfBytes": "32"
					},
					"t_struct(Friend)7_storage": {
						"encoding": "inplace",
						"label": "struct LunchVenue_updated.Friend",
						"members": [
							{
								"astId": 4,
								"contract": "contracts/LunchVenue_updated.sol:LunchVenue_updated",
								"label": "name",
								"offset": 0,
								"slot": "0",
								"type": "t_string_storage"
							},
							{
								"astId": 6,
								"contract": "contracts/LunchVenue_updated.sol:LunchVenue_updated",
								"label": "voted",
								"offset": 0,
								"slot": "1",
								"type": "t_bool"
							}
						],
						"numberOfBytes": "64"
					},
					"t_struct(Vote)12_storage": {
						"encoding": "inplace",
						"label": "struct LunchVenue_updated.Vote",
						"members": [
							{
								"astId": 9,
								"contract": "contracts/LunchVenue_updated.sol:LunchVenue_updated",
								"label": "voterAddress",
								"offset": 0,
								"slot": "0",
								"type": "t_address"
							},
							{
								"astId": 11,
								"contract": "contracts/LunchVenue_updated.sol:LunchVenue_updated",
								"label": "restaurant",
								"offset": 20,
								"slot": "0",
								"type": "t_uint8"
							}
						],
						"numberOfBytes": "32"
					},
					"t_uint8": {
						"encoding": "inplace",
						"label": "uint8",
						"numberOfBytes": "1"
					}
				}
			},
			"userdoc": {
				"kind": "user",
				"methods": {
					"addFriend(address,string)": {
						"notice": "Add a new friend to voter list"
					},
					"addRestaurant(string)": {
						"notice": "Add a new restaurant"
					},
					"doVote(uint8)": {
						"notice": "Vote for a restaurant"
					},
					"endVote()": {
						"notice": "Ends the vote stage"
					},
					"setStopped()": {
						"notice": "Change the stopped state of the contract"
					},
					"startCreate()": {
						"notice": "Switch back to create stage"
					},
					"startVote()": {
						"notice": "Starts the vote stage"
					}
				},
				"version": 1
			}
		}
	}
}