{
	"contracts/LunchVenue_updated.sol": {
		"LunchVenue_updated": {
			"abi": [
				{
					"inputs": [],
					"stateMutability": "nonpayable",
					"type": "constructor"
				},
				{
					"inputs": [
						{
							"internalType": "address",
							"name": "friendAddress",
							"type": "address"
						},
						{
							"internalType": "string",
							"name": "name",
							"type": "string"
						}
					],
					"name": "addFriend",
					"outputs": [
						{
							"internalType": "uint256",
							"name": "",
							"type": "uint256"
						}
					],
					"stateMutability": "nonpayable",
					"type": "function"
				},
				{
					"inputs": [
						{
							"internalType": "string",
							"name": "name",
							"type": "string"
						}
					],
					"name": "addRestaurant",
					"outputs": [
						{
							"internalType": "uint256",
							"name": "",
							"type": "uint256"
						}
					],
					"stateMutability": "nonpayable",
					"type": "function"
				},
				{
					"inputs": [
						{
							"internalType": "uint256",
							"name": "restaurant",
							"type": "uint256"
						}
					],
					"name": "doVote",
					"outputs": [
						{
							"internalType": "bool",
							"name": "validVote",
							"type": "bool"
						}
					],
					"stateMutability": "nonpayable",
					"type": "function"
				},
				{
					"inputs": [
						{
							"internalType": "address",
							"name": "",
							"type": "address"
						}
					],
					"name": "friends",
					"outputs": [
						{
							"internalType": "string",
							"name": "name",
							"type": "string"
						},
						{
							"internalType": "bool",
							"name": "voted",
							"type": "bool"
						}
					],
					"stateMutability": "view",
					"type": "function"
				},
				{
					"inputs": [],
					"name": "manager",
					"outputs": [
						{
							"internalType": "address",
							"name": "",
							"type": "address"
						}
					],
					"stateMutability": "view",
					"type": "function"
				},
				{
					"inputs": [],
					"name": "numFriends",
					"outputs": [
						{
							"internalType": "uint256",
							"name": "",
							"type": "uint256"
						}
					],
					"stateMutability": "view",
					"type": "function"
				},
				{
					"inputs": [],
					"name": "numRestaurants",
					"outputs": [
						{
							"internalType": "uint256",
							"name": "",
							"type": "uint256"
						}
					],
					"stateMutability": "view",
					"type": "function"
				},
				{
					"inputs": [],
					"name": "numVotes",
					"outputs": [
						{
							"internalType": "uint256",
							"name": "",
							"type": "uint256"
						}
					],
					"stateMutability": "view",
					"type": "function"
				},
				{
					"inputs": [
						{
							"internalType": "uint256",
							"name": "",
							"type": "uint256"
						}
					],
					"name": "restaurants",
					"outputs": [
						{
							"internalType": "string",
							"name": "",
							"type": "string"
						}
					],
					"stateMutability": "view",
					"type": "function"
				},
				{
					"inputs": [],
					"name": "voteOpen",
					"outputs": [
						{
							"internalType": "bool",
							"name": "",
							"type": "bool"
						}
					],
					"stateMutability": "view",
					"type": "function"
				},
				{
					"inputs": [],
					"name": "votedRestaurant",
					"outputs": [
						{
							"internalType": "string",
							"name": "",
							"type": "string"
						}
					],
					"stateMutability": "view",
					"type": "function"
				},
				{
					"inputs": [
						{
							"internalType": "uint256",
							"name": "",
							"type": "uint256"
						}
					],
					"name": "votes",
					"outputs": [
						{
							"internalType": "address",
							"name": "voterAddress",
							"type": "address"
						},
						{
							"internalType": "uint256",
							"name": "restaurant",
							"type": "uint256"
						}
					],
					"stateMutability": "view",
					"type": "function"
				}
			],
			"devdoc": {
				"author": "Dilum Bandara, CSIRO's Data61",
				"kind": "dev",
				"methods": {
					"addFriend(address,string)": {
						"details": "To simplify the code duplication of friends is not checked",
						"params": {
							"friendAddress": "Friend's account/address",
							"name": "Friend's name"
						},
						"returns": {
							"_0": "Number of friends added so far"
						}
					},
					"addRestaurant(string)": {
						"details": "To simplify the code, duplication of restaurants isn't checked",
						"params": {
							"name": "Restaurant name"
						},
						"returns": {
							"_0": "Number of restaurants added so far"
						}
					},
					"constructor": {
						"details": "Set manager when contract starts"
					},
					"doVote(uint256)": {
						"details": "To simplify the code duplicate votes by a friend is not checked",
						"params": {
							"restaurant": "Restaurant number being voted"
						},
						"returns": {
							"validVote": "Is the vote valid? A valid vote should be from a registered  friend to a registered restaurant"
						}
					}
				},
				"title": "Contract to agree on the lunch venue",
				"version": 1
			},
			"evm": {
				"assembly": "    /* \"contracts/LunchVenue_updated.sol\":157:4729  contract LunchVenue_updated{... */\n  mstore(0x40, 0x80)\n    /* \"contracts/LunchVenue_updated.sol\":566:567  0 */\n  0x00\n    /* \"contracts/LunchVenue_updated.sol\":537:567  uint public numRestaurants = 0 */\n  0x02\n  sstore\n    /* \"contracts/LunchVenue_updated.sol\":598:599  0 */\n  0x00\n    /* \"contracts/LunchVenue_updated.sol\":573:599  uint public numFriends = 0 */\n  0x03\n  sstore\n    /* \"contracts/LunchVenue_updated.sol\":628:629  0 */\n  0x00\n    /* \"contracts/LunchVenue_updated.sol\":605:629  uint public numVotes = 0 */\n  0x04\n  sstore\n    /* \"contracts/LunchVenue_updated.sol\":702:736  string public votedRestaurant = \"\" */\n  mload(0x40)\n  dup1\n  0x20\n  add\n  0x40\n  mstore\n  dup1\n  0x00\n  dup2\n  mstore\n  pop\n  0x06\n  swap1\n  dup1\n  mload\n  swap1\n  0x20\n  add\n  swap1\n  tag_1\n  swap3\n  swap2\n  swap1\n  tag_2\n  jump\t// in\ntag_1:\n  pop\n    /* \"contracts/LunchVenue_updated.sol\":975:979  true */\n  0x01\n    /* \"contracts/LunchVenue_updated.sol\":952:979  bool public voteOpen = true */\n  0x09\n  exp(0x0100, 0x00)\n  dup2\n  sload\n  dup2\n  0xff\n  mul\n  not\n  and\n  swap1\n  dup4\n  iszero\n  iszero\n  mul\n  or\n  swap1\n  sstore\n  pop\n    /* \"contracts/LunchVenue_updated.sol\":1079:1183  constructor () {... */\n  callvalue\n  dup1\n  iszero\n  tag_3\n  jumpi\n  0x00\n  dup1\n  revert\ntag_3:\n  pop\n    /* \"contracts/LunchVenue_updated.sol\":1114:1124  msg.sender */\n  caller\n    /* \"contracts/LunchVenue_updated.sol\":1104:1111  manager */\n  0x05\n  0x00\n    /* \"contracts/LunchVenue_updated.sol\":1104:1124  manager = msg.sender */\n  0x0100\n  exp\n  dup2\n  sload\n  dup2\n  0xffffffffffffffffffffffffffffffffffffffff\n  mul\n  not\n  and\n  swap1\n  dup4\n  0xffffffffffffffffffffffffffffffffffffffff\n  and\n  mul\n  or\n  swap1\n  sstore\n  pop\n    /* \"contracts/LunchVenue_updated.sol\":157:4729  contract LunchVenue_updated{... */\n  jump(tag_6)\ntag_2:\n  dup3\n  dup1\n  sload\n  tag_7\n  swap1\n  tag_8\n  jump\t// in\ntag_7:\n  swap1\n  0x00\n  mstore\n  keccak256(0x00, 0x20)\n  swap1\n  0x1f\n  add\n  0x20\n  swap1\n  div\n  dup2\n  add\n  swap3\n  dup3\n  tag_10\n  jumpi\n  0x00\n  dup6\n  sstore\n  jump(tag_9)\ntag_10:\n  dup3\n  0x1f\n  lt\n  tag_11\n  jumpi\n  dup1\n  mload\n  not(0xff)\n  and\n  dup4\n  dup1\n  add\n  or\n  dup6\n  sstore\n  jump(tag_9)\ntag_11:\n  dup3\n  dup1\n  add\n  0x01\n  add\n  dup6\n  sstore\n  dup3\n  iszero\n  tag_9\n  jumpi\n  swap2\n  dup3\n  add\ntag_12:\n  dup3\n  dup2\n  gt\n  iszero\n  tag_13\n  jumpi\n  dup3\n  mload\n  dup3\n  sstore\n  swap2\n  0x20\n  add\n  swap2\n  swap1\n  0x01\n  add\n  swap1\n  jump(tag_12)\ntag_13:\ntag_9:\n  pop\n  swap1\n  pop\n  tag_14\n  swap2\n  swap1\n  tag_15\n  jump\t// in\ntag_14:\n  pop\n  swap1\n  jump\t// out\ntag_15:\ntag_16:\n  dup1\n  dup3\n  gt\n  iszero\n  tag_17\n  jumpi\n  0x00\n  dup2\n  0x00\n  swap1\n  sstore\n  pop\n  0x01\n  add\n  jump(tag_16)\ntag_17:\n  pop\n  swap1\n  jump\t// out\n    /* \"#utility.yul\":7:327   */\ntag_8:\n    /* \"#utility.yul\":51:57   */\n  0x00\n    /* \"#utility.yul\":88:89   */\n  0x02\n    /* \"#utility.yul\":82:86   */\n  dup3\n    /* \"#utility.yul\":78:90   */\n  div\n    /* \"#utility.yul\":68:90   */\n  swap1\n  pop\n    /* \"#utility.yul\":135:136   */\n  0x01\n    /* \"#utility.yul\":129:133   */\n  dup3\n    /* \"#utility.yul\":125:137   */\n  and\n    /* \"#utility.yul\":156:174   */\n  dup1\n    /* \"#utility.yul\":146:148   */\n  tag_20\n  jumpi\n    /* \"#utility.yul\":212:216   */\n  0x7f\n    /* \"#utility.yul\":204:210   */\n  dup3\n    /* \"#utility.yul\":200:217   */\n  and\n    /* \"#utility.yul\":190:217   */\n  swap2\n  pop\n    /* \"#utility.yul\":146:148   */\ntag_20:\n    /* \"#utility.yul\":274:276   */\n  0x20\n    /* \"#utility.yul\":266:272   */\n  dup3\n    /* \"#utility.yul\":263:277   */\n  lt\n    /* \"#utility.yul\":243:261   */\n  dup2\n    /* \"#utility.yul\":240:278   */\n  eq\n    /* \"#utility.yul\":237:239   */\n  iszero\n  tag_21\n  jumpi\n    /* \"#utility.yul\":293:311   */\n  tag_22\n  tag_23\n  jump\t// in\ntag_22:\n    /* \"#utility.yul\":237:239   */\ntag_21:\n    /* \"#utility.yul\":58:327   */\n  pop\n  swap2\n  swap1\n  pop\n  jump\t// out\n    /* \"#utility.yul\":333:513   */\ntag_23:\n    /* \"#utility.yul\":381:458   */\n  0x4e487b7100000000000000000000000000000000000000000000000000000000\n    /* \"#utility.yul\":378:379   */\n  0x00\n    /* \"#utility.yul\":371:459   */\n  mstore\n    /* \"#utility.yul\":478:482   */\n  0x22\n    /* \"#utility.yul\":475:476   */\n  0x04\n    /* \"#utility.yul\":468:483   */\n  mstore\n    /* \"#utility.yul\":502:506   */\n  0x24\n    /* \"#utility.yul\":499:500   */\n  0x00\n    /* \"#utility.yul\":492:507   */\n  revert\n    /* \"contracts/LunchVenue_updated.sol\":157:4729  contract LunchVenue_updated{... */\ntag_6:\n  dataSize(sub_0)\n  dup1\n  dataOffset(sub_0)\n  0x00\n  codecopy\n  0x00\n  return\nstop\n\nsub_0: assembly {\n        /* \"contracts/LunchVenue_updated.sol\":157:4729  contract LunchVenue_updated{... */\n      mstore(0x40, 0x80)\n      callvalue\n      dup1\n      iszero\n      tag_1\n      jumpi\n      0x00\n      dup1\n      revert\n    tag_1:\n      pop\n      jumpi(tag_2, lt(calldatasize, 0x04))\n      shr(0xe0, calldataload(0x00))\n      dup1\n      0x6d77bd3e\n      gt\n      tag_15\n      jumpi\n      dup1\n      0x6d77bd3e\n      eq\n      tag_9\n      jumpi\n      dup1\n      0x788d3851\n      eq\n      tag_10\n      jumpi\n      dup1\n      0xa3bef4d7\n      eq\n      tag_11\n      jumpi\n      dup1\n      0xad5461d8\n      eq\n      tag_12\n      jumpi\n      dup1\n      0xb798867f\n      eq\n      tag_13\n      jumpi\n      dup1\n      0xc1c16efc\n      eq\n      tag_14\n      jumpi\n      jump(tag_2)\n    tag_15:\n      dup1\n      0x124258c6\n      eq\n      tag_3\n      jumpi\n      dup1\n      0x1ddabf7a\n      eq\n      tag_4\n      jumpi\n      dup1\n      0x3b9f708d\n      eq\n      tag_5\n      jumpi\n      dup1\n      0x47098f36\n      eq\n      tag_6\n      jumpi\n      dup1\n      0x481c6a75\n      eq\n      tag_7\n      jumpi\n      dup1\n      0x5df81330\n      eq\n      tag_8\n      jumpi\n    tag_2:\n      0x00\n      dup1\n      revert\n        /* \"contracts/LunchVenue_updated.sol\":2452:3235  function doVote(uint restaurant) public votingOpen votedAlready(msg.sender) returns (bool validVote){... */\n    tag_3:\n      tag_16\n      0x04\n      dup1\n      calldatasize\n      sub\n      dup2\n      add\n      swap1\n      tag_17\n      swap2\n      swap1\n      tag_18\n      jump\t// in\n    tag_17:\n      tag_19\n      jump\t// in\n    tag_16:\n      mload(0x40)\n      tag_20\n      swap2\n      swap1\n      tag_21\n      jump\t// in\n    tag_20:\n      mload(0x40)\n      dup1\n      swap2\n      sub\n      swap1\n      return\n        /* \"contracts/LunchVenue_updated.sol\":453:494  mapping(address => Friend) public friends */\n    tag_4:\n      tag_22\n      0x04\n      dup1\n      calldatasize\n      sub\n      dup2\n      add\n      swap1\n      tag_23\n      swap2\n      swap1\n      tag_24\n      jump\t// in\n    tag_23:\n      tag_25\n      jump\t// in\n    tag_22:\n      mload(0x40)\n      tag_26\n      swap3\n      swap2\n      swap1\n      tag_27\n      jump\t// in\n    tag_26:\n      mload(0x40)\n      dup1\n      swap2\n      sub\n      swap1\n      return\n        /* \"contracts/LunchVenue_updated.sol\":1869:2128  function addFriend(address friendAddress, string memory name) public restricted returns (uint){... */\n    tag_5:\n      tag_28\n      0x04\n      dup1\n      calldatasize\n      sub\n      dup2\n      add\n      swap1\n      tag_29\n      swap2\n      swap1\n      tag_30\n      jump\t// in\n    tag_29:\n      tag_31\n      jump\t// in\n    tag_28:\n      mload(0x40)\n      tag_32\n      swap2\n      swap1\n      tag_33\n      jump\t// in\n    tag_32:\n      mload(0x40)\n      dup1\n      swap2\n      sub\n      swap1\n      return\n        /* \"contracts/LunchVenue_updated.sol\":573:599  uint public numFriends = 0 */\n    tag_6:\n      tag_34\n      tag_35\n      jump\t// in\n    tag_34:\n      mload(0x40)\n      tag_36\n      swap2\n      swap1\n      tag_33\n      jump\t// in\n    tag_36:\n      mload(0x40)\n      dup1\n      swap2\n      sub\n      swap1\n      return\n        /* \"contracts/LunchVenue_updated.sol\":635:657  address public manager */\n    tag_7:\n      tag_37\n      tag_38\n      jump\t// in\n    tag_37:\n      mload(0x40)\n      tag_39\n      swap2\n      swap1\n      tag_40\n      jump\t// in\n    tag_39:\n      mload(0x40)\n      dup1\n      swap2\n      sub\n      swap1\n      return\n        /* \"contracts/LunchVenue_updated.sol\":773:808  mapping (uint => Vote) public votes */\n    tag_8:\n      tag_41\n      0x04\n      dup1\n      calldatasize\n      sub\n      dup2\n      add\n      swap1\n      tag_42\n      swap2\n      swap1\n      tag_18\n      jump\t// in\n    tag_42:\n      tag_43\n      jump\t// in\n    tag_41:\n      mload(0x40)\n      tag_44\n      swap3\n      swap2\n      swap1\n      tag_45\n      jump\t// in\n    tag_44:\n      mload(0x40)\n      dup1\n      swap2\n      sub\n      swap1\n      return\n        /* \"contracts/LunchVenue_updated.sol\":1408:1591  function addRestaurant(string memory name) public restricted returns (uint){... */\n    tag_9:\n      tag_46\n      0x04\n      dup1\n      calldatasize\n      sub\n      dup2\n      add\n      swap1\n      tag_47\n      swap2\n      swap1\n      tag_48\n      jump\t// in\n    tag_47:\n      tag_49\n      jump\t// in\n    tag_46:\n      mload(0x40)\n      tag_50\n      swap2\n      swap1\n      tag_33\n      jump\t// in\n    tag_50:\n      mload(0x40)\n      dup1\n      swap2\n      sub\n      swap1\n      return\n        /* \"contracts/LunchVenue_updated.sol\":952:979  bool public voteOpen = true */\n    tag_10:\n      tag_51\n      tag_52\n      jump\t// in\n    tag_51:\n      mload(0x40)\n      tag_53\n      swap2\n      swap1\n      tag_21\n      jump\t// in\n    tag_53:\n      mload(0x40)\n      dup1\n      swap2\n      sub\n      swap1\n      return\n        /* \"contracts/LunchVenue_updated.sol\":605:629  uint public numVotes = 0 */\n    tag_11:\n      tag_54\n      tag_55\n      jump\t// in\n    tag_54:\n      mload(0x40)\n      tag_56\n      swap2\n      swap1\n      tag_33\n      jump\t// in\n    tag_56:\n      mload(0x40)\n      dup1\n      swap2\n      sub\n      swap1\n      return\n        /* \"contracts/LunchVenue_updated.sol\":360:403  mapping (uint => string) public restaurants */\n    tag_12:\n      tag_57\n      0x04\n      dup1\n      calldatasize\n      sub\n      dup2\n      add\n      swap1\n      tag_58\n      swap2\n      swap1\n      tag_18\n      jump\t// in\n    tag_58:\n      tag_59\n      jump\t// in\n    tag_57:\n      mload(0x40)\n      tag_60\n      swap2\n      swap1\n      tag_61\n      jump\t// in\n    tag_60:\n      mload(0x40)\n      dup1\n      swap2\n      sub\n      swap1\n      return\n        /* \"contracts/LunchVenue_updated.sol\":537:567  uint public numRestaurants = 0 */\n    tag_13:\n      tag_62\n      tag_63\n      jump\t// in\n    tag_62:\n      mload(0x40)\n      tag_64\n      swap2\n      swap1\n      tag_33\n      jump\t// in\n    tag_64:\n      mload(0x40)\n      dup1\n      swap2\n      sub\n      swap1\n      return\n        /* \"contracts/LunchVenue_updated.sol\":702:736  string public votedRestaurant = \"\" */\n    tag_14:\n      tag_65\n      tag_66\n      jump\t// in\n    tag_65:\n      mload(0x40)\n      tag_67\n      swap2\n      swap1\n      tag_61\n      jump\t// in\n    tag_67:\n      mload(0x40)\n      dup1\n      swap2\n      sub\n      swap1\n      return\n        /* \"contracts/LunchVenue_updated.sol\":2452:3235  function doVote(uint restaurant) public votingOpen votedAlready(msg.sender) returns (bool validVote){... */\n    tag_19:\n        /* \"contracts/LunchVenue_updated.sol\":2537:2551  bool validVote */\n      0x00\n        /* \"contracts/LunchVenue_updated.sol\":4467:4471  true */\n      0x01\n        /* \"contracts/LunchVenue_updated.sol\":4455:4471  voteOpen == true */\n      iszero\n      iszero\n        /* \"contracts/LunchVenue_updated.sol\":4455:4463  voteOpen */\n      0x09\n      0x00\n      swap1\n      sload\n      swap1\n      0x0100\n      exp\n      swap1\n      div\n      0xff\n      and\n        /* \"contracts/LunchVenue_updated.sol\":4455:4471  voteOpen == true */\n      iszero\n      iszero\n      eq\n        /* \"contracts/LunchVenue_updated.sol\":4447:4511  require(voteOpen == true, \"Can vote only while voting is open.\") */\n      tag_69\n      jumpi\n      mload(0x40)\n      0x08c379a000000000000000000000000000000000000000000000000000000000\n      dup2\n      mstore\n      0x04\n      add\n      tag_70\n      swap1\n      tag_71\n      jump\t// in\n    tag_70:\n      mload(0x40)\n      dup1\n      swap2\n      sub\n      swap1\n      revert\n    tag_69:\n        /* \"contracts/LunchVenue_updated.sol\":2516:2526  msg.sender */\n      caller\n        /* \"contracts/LunchVenue_updated.sol\":4680:4685  false */\n      0x00\n        /* \"contracts/LunchVenue_updated.sol\":4648:4685  friends[friendAddress].voted == false */\n      iszero\n      iszero\n        /* \"contracts/LunchVenue_updated.sol\":4648:4655  friends */\n      0x01\n        /* \"contracts/LunchVenue_updated.sol\":4648:4670  friends[friendAddress] */\n      0x00\n        /* \"contracts/LunchVenue_updated.sol\":4656:4669  friendAddress */\n      dup4\n        /* \"contracts/LunchVenue_updated.sol\":4648:4670  friends[friendAddress] */\n      0xffffffffffffffffffffffffffffffffffffffff\n      and\n      0xffffffffffffffffffffffffffffffffffffffff\n      and\n      dup2\n      mstore\n      0x20\n      add\n      swap1\n      dup2\n      mstore\n      0x20\n      add\n      0x00\n      keccak256\n        /* \"contracts/LunchVenue_updated.sol\":4648:4676  friends[friendAddress].voted */\n      0x01\n      add\n      0x00\n      swap1\n      sload\n      swap1\n      0x0100\n      exp\n      swap1\n      div\n      0xff\n      and\n        /* \"contracts/LunchVenue_updated.sol\":4648:4685  friends[friendAddress].voted == false */\n      iszero\n      iszero\n      eq\n        /* \"contracts/LunchVenue_updated.sol\":4640:4709  require(friends[friendAddress].voted == false, \"Can only vote once.\") */\n      tag_73\n      jumpi\n      mload(0x40)\n      0x08c379a000000000000000000000000000000000000000000000000000000000\n      dup2\n      mstore\n      0x04\n      add\n      tag_74\n      swap1\n      tag_75\n      jump\t// in\n    tag_74:\n      mload(0x40)\n      dup1\n      swap2\n      sub\n      swap1\n      revert\n    tag_73:\n        /* \"contracts/LunchVenue_updated.sol\":2574:2579  false */\n      0x00\n        /* \"contracts/LunchVenue_updated.sol\":2562:2579  validVote = false */\n      swap2\n      pop\n        /* \"contracts/LunchVenue_updated.sol\":2689:2690  0 */\n      0x00\n        /* \"contracts/LunchVenue_updated.sol\":2653:2660  friends */\n      0x01\n        /* \"contracts/LunchVenue_updated.sol\":2653:2672  friends[msg.sender] */\n      0x00\n        /* \"contracts/LunchVenue_updated.sol\":2661:2671  msg.sender */\n      caller\n        /* \"contracts/LunchVenue_updated.sol\":2653:2672  friends[msg.sender] */\n      0xffffffffffffffffffffffffffffffffffffffff\n      and\n      0xffffffffffffffffffffffffffffffffffffffff\n      and\n      dup2\n      mstore\n      0x20\n      add\n      swap1\n      dup2\n      mstore\n      0x20\n      add\n      0x00\n      keccak256\n        /* \"contracts/LunchVenue_updated.sol\":2653:2677  friends[msg.sender].name */\n      0x00\n      add\n        /* \"contracts/LunchVenue_updated.sol\":2647:2685  bytes(friends[msg.sender].name).length */\n      dup1\n      sload\n      tag_77\n      swap1\n      tag_78\n      jump\t// in\n    tag_77:\n      swap1\n      pop\n        /* \"contracts/LunchVenue_updated.sol\":2647:2690  bytes(friends[msg.sender].name).length != 0 */\n      eq\n        /* \"contracts/LunchVenue_updated.sol\":2643:3096  if (bytes(friends[msg.sender].name).length != 0) {  //Does friend exist?... */\n      tag_79\n      jumpi\n        /* \"contracts/LunchVenue_updated.sol\":2773:2774  0 */\n      0x00\n        /* \"contracts/LunchVenue_updated.sol\":2738:2749  restaurants */\n      dup1\n        /* \"contracts/LunchVenue_updated.sol\":2738:2761  restaurants[restaurant] */\n      0x00\n        /* \"contracts/LunchVenue_updated.sol\":2750:2760  restaurant */\n      dup6\n        /* \"contracts/LunchVenue_updated.sol\":2738:2761  restaurants[restaurant] */\n      dup2\n      mstore\n      0x20\n      add\n      swap1\n      dup2\n      mstore\n      0x20\n      add\n      0x00\n      keccak256\n        /* \"contracts/LunchVenue_updated.sol\":2732:2769  bytes(restaurants[restaurant]).length */\n      dup1\n      sload\n      tag_80\n      swap1\n      tag_78\n      jump\t// in\n    tag_80:\n      swap1\n      pop\n        /* \"contracts/LunchVenue_updated.sol\":2732:2774  bytes(restaurants[restaurant]).length != 0 */\n      eq\n        /* \"contracts/LunchVenue_updated.sol\":2728:3086  if (bytes(restaurants[restaurant]).length != 0) {   //Does restaurant exist?... */\n      tag_81\n      jumpi\n        /* \"contracts/LunchVenue_updated.sol\":2833:2837  true */\n      0x01\n        /* \"contracts/LunchVenue_updated.sol\":2821:2837  validVote = true */\n      swap2\n      pop\n        /* \"contracts/LunchVenue_updated.sol\":2883:2887  true */\n      0x01\n        /* \"contracts/LunchVenue_updated.sol\":2855:2862  friends */\n      dup1\n        /* \"contracts/LunchVenue_updated.sol\":2855:2874  friends[msg.sender] */\n      0x00\n        /* \"contracts/LunchVenue_updated.sol\":2863:2873  msg.sender */\n      caller\n        /* \"contracts/LunchVenue_updated.sol\":2855:2874  friends[msg.sender] */\n      0xffffffffffffffffffffffffffffffffffffffff\n      and\n      0xffffffffffffffffffffffffffffffffffffffff\n      and\n      dup2\n      mstore\n      0x20\n      add\n      swap1\n      dup2\n      mstore\n      0x20\n      add\n      0x00\n      keccak256\n        /* \"contracts/LunchVenue_updated.sol\":2855:2880  friends[msg.sender].voted */\n      0x01\n      add\n      0x00\n        /* \"contracts/LunchVenue_updated.sol\":2855:2887  friends[msg.sender].voted = true */\n      0x0100\n      exp\n      dup2\n      sload\n      dup2\n      0xff\n      mul\n      not\n      and\n      swap1\n      dup4\n      iszero\n      iszero\n      mul\n      or\n      swap1\n      sstore\n      pop\n        /* \"contracts/LunchVenue_updated.sol\":2905:2918  Vote memory v */\n      tag_82\n      tag_83\n      jump\t// in\n    tag_82:\n        /* \"contracts/LunchVenue_updated.sol\":2953:2963  msg.sender */\n      caller\n        /* \"contracts/LunchVenue_updated.sol\":2936:2937  v */\n      dup2\n        /* \"contracts/LunchVenue_updated.sol\":2936:2950  v.voterAddress */\n      0x00\n      add\n        /* \"contracts/LunchVenue_updated.sol\":2936:2963  v.voterAddress = msg.sender */\n      swap1\n      0xffffffffffffffffffffffffffffffffffffffff\n      and\n      swap1\n      dup2\n      0xffffffffffffffffffffffffffffffffffffffff\n      and\n      dup2\n      mstore\n      pop\n      pop\n        /* \"contracts/LunchVenue_updated.sol\":2996:3006  restaurant */\n      dup4\n        /* \"contracts/LunchVenue_updated.sol\":2981:2982  v */\n      dup2\n        /* \"contracts/LunchVenue_updated.sol\":2981:2993  v.restaurant */\n      0x20\n      add\n        /* \"contracts/LunchVenue_updated.sol\":2981:3006  v.restaurant = restaurant */\n      dup2\n      dup2\n      mstore\n      pop\n      pop\n        /* \"contracts/LunchVenue_updated.sol\":3024:3032  numVotes */\n      0x04\n      0x00\n        /* \"contracts/LunchVenue_updated.sol\":3024:3034  numVotes++ */\n      dup2\n      sload\n      dup1\n      swap3\n      swap2\n      swap1\n      tag_84\n      swap1\n      tag_85\n      jump\t// in\n    tag_84:\n      swap2\n      swap1\n      pop\n      sstore\n      pop\n        /* \"contracts/LunchVenue_updated.sol\":3070:3071  v */\n      dup1\n        /* \"contracts/LunchVenue_updated.sol\":3052:3057  votes */\n      0x07\n        /* \"contracts/LunchVenue_updated.sol\":3052:3067  votes[numVotes] */\n      0x00\n        /* \"contracts/LunchVenue_updated.sol\":3058:3066  numVotes */\n      sload(0x04)\n        /* \"contracts/LunchVenue_updated.sol\":3052:3067  votes[numVotes] */\n      dup2\n      mstore\n      0x20\n      add\n      swap1\n      dup2\n      mstore\n      0x20\n      add\n      0x00\n      keccak256\n        /* \"contracts/LunchVenue_updated.sol\":3052:3071  votes[numVotes] = v */\n      0x00\n      dup3\n      add\n      mload\n      dup2\n      0x00\n      add\n      exp(0x0100, 0x00)\n      dup2\n      sload\n      dup2\n      0xffffffffffffffffffffffffffffffffffffffff\n      mul\n      not\n      and\n      swap1\n      dup4\n      0xffffffffffffffffffffffffffffffffffffffff\n      and\n      mul\n      or\n      swap1\n      sstore\n      pop\n      0x20\n      dup3\n      add\n      mload\n      dup2\n      0x01\n      add\n      sstore\n      swap1\n      pop\n      pop\n        /* \"contracts/LunchVenue_updated.sol\":2776:3086  {   //Does restaurant exist?... */\n      pop\n        /* \"contracts/LunchVenue_updated.sol\":2728:3086  if (bytes(restaurants[restaurant]).length != 0) {   //Does restaurant exist?... */\n    tag_81:\n        /* \"contracts/LunchVenue_updated.sol\":2643:3096  if (bytes(friends[msg.sender].name).length != 0) {  //Does friend exist?... */\n    tag_79:\n        /* \"contracts/LunchVenue_updated.sol\":3146:3147  1 */\n      0x01\n        /* \"contracts/LunchVenue_updated.sol\":3142:3143  2 */\n      0x02\n        /* \"contracts/LunchVenue_updated.sol\":3131:3141  numFriends */\n      sload(0x03)\n        /* \"contracts/LunchVenue_updated.sol\":3131:3143  numFriends/2 */\n      tag_86\n      swap2\n      swap1\n      tag_87\n      jump\t// in\n    tag_86:\n        /* \"contracts/LunchVenue_updated.sol\":3131:3147  numFriends/2 + 1 */\n      tag_88\n      swap2\n      swap1\n      tag_89\n      jump\t// in\n    tag_88:\n        /* \"contracts/LunchVenue_updated.sol\":3119:3127  numVotes */\n      sload(0x04)\n        /* \"contracts/LunchVenue_updated.sol\":3119:3147  numVotes >= numFriends/2 + 1 */\n      lt\n        /* \"contracts/LunchVenue_updated.sol\":3115:3203  if (numVotes >= numFriends/2 + 1) { //Quorum is met... */\n      tag_90\n      jumpi\n        /* \"contracts/LunchVenue_updated.sol\":3179:3192  finalResult() */\n      tag_91\n        /* \"contracts/LunchVenue_updated.sol\":3179:3190  finalResult */\n      tag_92\n        /* \"contracts/LunchVenue_updated.sol\":3179:3192  finalResult() */\n      jump\t// in\n    tag_91:\n        /* \"contracts/LunchVenue_updated.sol\":3115:3203  if (numVotes >= numFriends/2 + 1) { //Quorum is met... */\n    tag_90:\n        /* \"contracts/LunchVenue_updated.sol\":4521:4522  _ */\n      pop\n        /* \"contracts/LunchVenue_updated.sol\":2452:3235  function doVote(uint restaurant) public votingOpen votedAlready(msg.sender) returns (bool validVote){... */\n      swap2\n      swap1\n      pop\n      jump\t// out\n        /* \"contracts/LunchVenue_updated.sol\":453:494  mapping(address => Friend) public friends */\n    tag_25:\n      mstore(0x20, 0x01)\n      dup1\n      0x00\n      mstore\n      keccak256(0x00, 0x40)\n      0x00\n      swap2\n      pop\n      swap1\n      pop\n      dup1\n      0x00\n      add\n      dup1\n      sload\n      tag_93\n      swap1\n      tag_78\n      jump\t// in\n    tag_93:\n      dup1\n      0x1f\n      add\n      0x20\n      dup1\n      swap2\n      div\n      mul\n      0x20\n      add\n      mload(0x40)\n      swap1\n      dup2\n      add\n      0x40\n      mstore\n      dup1\n      swap3\n      swap2\n      swap1\n      dup2\n      dup2\n      mstore\n      0x20\n      add\n      dup3\n      dup1\n      sload\n      tag_94\n      swap1\n      tag_78\n      jump\t// in\n    tag_94:\n      dup1\n      iszero\n      tag_95\n      jumpi\n      dup1\n      0x1f\n      lt\n      tag_96\n      jumpi\n      0x0100\n      dup1\n      dup4\n      sload\n      div\n      mul\n      dup4\n      mstore\n      swap2\n      0x20\n      add\n      swap2\n      jump(tag_95)\n    tag_96:\n      dup3\n      add\n      swap2\n      swap1\n      0x00\n      mstore\n      keccak256(0x00, 0x20)\n      swap1\n    tag_97:\n      dup2\n      sload\n      dup2\n      mstore\n      swap1\n      0x01\n      add\n      swap1\n      0x20\n      add\n      dup1\n      dup4\n      gt\n      tag_97\n      jumpi\n      dup3\n      swap1\n      sub\n      0x1f\n      and\n      dup3\n      add\n      swap2\n    tag_95:\n      pop\n      pop\n      pop\n      pop\n      pop\n      swap1\n      dup1\n      0x01\n      add\n      0x00\n      swap1\n      sload\n      swap1\n      0x0100\n      exp\n      swap1\n      div\n      0xff\n      and\n      swap1\n      pop\n      dup3\n      jump\t// out\n        /* \"contracts/LunchVenue_updated.sol\":1869:2128  function addFriend(address friendAddress, string memory name) public restricted returns (uint){... */\n    tag_31:\n        /* \"contracts/LunchVenue_updated.sol\":1958:1962  uint */\n      0x00\n        /* \"contracts/LunchVenue_updated.sol\":4278:4285  manager */\n      0x05\n      0x00\n      swap1\n      sload\n      swap1\n      0x0100\n      exp\n      swap1\n      div\n      0xffffffffffffffffffffffffffffffffffffffff\n      and\n        /* \"contracts/LunchVenue_updated.sol\":4264:4285  msg.sender == manager */\n      0xffffffffffffffffffffffffffffffffffffffff\n      and\n        /* \"contracts/LunchVenue_updated.sol\":4264:4274  msg.sender */\n      caller\n        /* \"contracts/LunchVenue_updated.sol\":4264:4285  msg.sender == manager */\n      0xffffffffffffffffffffffffffffffffffffffff\n      and\n      eq\n        /* \"contracts/LunchVenue_updated.sol\":4255:4325  require (msg.sender == manager, \"Can only be executed by the manager\") */\n      tag_99\n      jumpi\n      mload(0x40)\n      0x08c379a000000000000000000000000000000000000000000000000000000000\n      dup2\n      mstore\n      0x04\n      add\n      tag_100\n      swap1\n      tag_101\n      jump\t// in\n    tag_100:\n      mload(0x40)\n      dup1\n      swap2\n      sub\n      swap1\n      revert\n    tag_99:\n        /* \"contracts/LunchVenue_updated.sol\":1973:1988  Friend memory f */\n      tag_103\n      tag_104\n      jump\t// in\n    tag_103:\n        /* \"contracts/LunchVenue_updated.sol\":2007:2011  name */\n      dup3\n        /* \"contracts/LunchVenue_updated.sol\":1998:1999  f */\n      dup2\n        /* \"contracts/LunchVenue_updated.sol\":1998:2004  f.name */\n      0x00\n      add\n        /* \"contracts/LunchVenue_updated.sol\":1998:2011  f.name = name */\n      dup2\n      swap1\n      mstore\n      pop\n        /* \"contracts/LunchVenue_updated.sol\":2031:2036  false */\n      0x00\n        /* \"contracts/LunchVenue_updated.sol\":2021:2022  f */\n      dup2\n        /* \"contracts/LunchVenue_updated.sol\":2021:2028  f.voted */\n      0x20\n      add\n        /* \"contracts/LunchVenue_updated.sol\":2021:2036  f.voted = false */\n      swap1\n      iszero\n      iszero\n      swap1\n      dup2\n      iszero\n      iszero\n      dup2\n      mstore\n      pop\n      pop\n        /* \"contracts/LunchVenue_updated.sol\":2071:2072  f */\n      dup1\n        /* \"contracts/LunchVenue_updated.sol\":2046:2053  friends */\n      0x01\n        /* \"contracts/LunchVenue_updated.sol\":2046:2068  friends[friendAddress] */\n      0x00\n        /* \"contracts/LunchVenue_updated.sol\":2054:2067  friendAddress */\n      dup7\n        /* \"contracts/LunchVenue_updated.sol\":2046:2068  friends[friendAddress] */\n      0xffffffffffffffffffffffffffffffffffffffff\n      and\n      0xffffffffffffffffffffffffffffffffffffffff\n      and\n      dup2\n      mstore\n      0x20\n      add\n      swap1\n      dup2\n      mstore\n      0x20\n      add\n      0x00\n      keccak256\n        /* \"contracts/LunchVenue_updated.sol\":2046:2072  friends[friendAddress] = f */\n      0x00\n      dup3\n      add\n      mload\n      dup2\n      0x00\n      add\n      swap1\n      dup1\n      mload\n      swap1\n      0x20\n      add\n      swap1\n      tag_105\n      swap3\n      swap2\n      swap1\n      tag_106\n      jump\t// in\n    tag_105:\n      pop\n      0x20\n      dup3\n      add\n      mload\n      dup2\n      0x01\n      add\n      exp(0x0100, 0x00)\n      dup2\n      sload\n      dup2\n      0xff\n      mul\n      not\n      and\n      swap1\n      dup4\n      iszero\n      iszero\n      mul\n      or\n      swap1\n      sstore\n      pop\n      swap1\n      pop\n      pop\n        /* \"contracts/LunchVenue_updated.sol\":2082:2092  numFriends */\n      0x03\n      0x00\n        /* \"contracts/LunchVenue_updated.sol\":2082:2094  numFriends++ */\n      dup2\n      sload\n      dup1\n      swap3\n      swap2\n      swap1\n      tag_107\n      swap1\n      tag_85\n      jump\t// in\n    tag_107:\n      swap2\n      swap1\n      pop\n      sstore\n      pop\n        /* \"contracts/LunchVenue_updated.sol\":2111:2121  numFriends */\n      sload(0x03)\n        /* \"contracts/LunchVenue_updated.sol\":2104:2121  return numFriends */\n      swap2\n      pop\n      pop\n        /* \"contracts/LunchVenue_updated.sol\":1869:2128  function addFriend(address friendAddress, string memory name) public restricted returns (uint){... */\n      swap3\n      swap2\n      pop\n      pop\n      jump\t// out\n        /* \"contracts/LunchVenue_updated.sol\":573:599  uint public numFriends = 0 */\n    tag_35:\n      sload(0x03)\n      dup2\n      jump\t// out\n        /* \"contracts/LunchVenue_updated.sol\":635:657  address public manager */\n    tag_38:\n      0x05\n      0x00\n      swap1\n      sload\n      swap1\n      0x0100\n      exp\n      swap1\n      div\n      0xffffffffffffffffffffffffffffffffffffffff\n      and\n      dup2\n      jump\t// out\n        /* \"contracts/LunchVenue_updated.sol\":773:808  mapping (uint => Vote) public votes */\n    tag_43:\n      mstore(0x20, 0x07)\n      dup1\n      0x00\n      mstore\n      keccak256(0x00, 0x40)\n      0x00\n      swap2\n      pop\n      swap1\n      pop\n      dup1\n      0x00\n      add\n      0x00\n      swap1\n      sload\n      swap1\n      0x0100\n      exp\n      swap1\n      div\n      0xffffffffffffffffffffffffffffffffffffffff\n      and\n      swap1\n      dup1\n      0x01\n      add\n      sload\n      swap1\n      pop\n      dup3\n      jump\t// out\n        /* \"contracts/LunchVenue_updated.sol\":1408:1591  function addRestaurant(string memory name) public restricted returns (uint){... */\n    tag_49:\n        /* \"contracts/LunchVenue_updated.sol\":1478:1482  uint */\n      0x00\n        /* \"contracts/LunchVenue_updated.sol\":4278:4285  manager */\n      0x05\n      0x00\n      swap1\n      sload\n      swap1\n      0x0100\n      exp\n      swap1\n      div\n      0xffffffffffffffffffffffffffffffffffffffff\n      and\n        /* \"contracts/LunchVenue_updated.sol\":4264:4285  msg.sender == manager */\n      0xffffffffffffffffffffffffffffffffffffffff\n      and\n        /* \"contracts/LunchVenue_updated.sol\":4264:4274  msg.sender */\n      caller\n        /* \"contracts/LunchVenue_updated.sol\":4264:4285  msg.sender == manager */\n      0xffffffffffffffffffffffffffffffffffffffff\n      and\n      eq\n        /* \"contracts/LunchVenue_updated.sol\":4255:4325  require (msg.sender == manager, \"Can only be executed by the manager\") */\n      tag_109\n      jumpi\n      mload(0x40)\n      0x08c379a000000000000000000000000000000000000000000000000000000000\n      dup2\n      mstore\n      0x04\n      add\n      tag_110\n      swap1\n      tag_101\n      jump\t// in\n    tag_110:\n      mload(0x40)\n      dup1\n      swap2\n      sub\n      swap1\n      revert\n    tag_109:\n        /* \"contracts/LunchVenue_updated.sol\":1493:1507  numRestaurants */\n      0x02\n      0x00\n        /* \"contracts/LunchVenue_updated.sol\":1493:1509  numRestaurants++ */\n      dup2\n      sload\n      dup1\n      swap3\n      swap2\n      swap1\n      tag_112\n      swap1\n      tag_85\n      jump\t// in\n    tag_112:\n      swap2\n      swap1\n      pop\n      sstore\n      pop\n        /* \"contracts/LunchVenue_updated.sol\":1549:1553  name */\n      dup2\n        /* \"contracts/LunchVenue_updated.sol\":1519:1530  restaurants */\n      0x00\n        /* \"contracts/LunchVenue_updated.sol\":1519:1546  restaurants[numRestaurants] */\n      dup1\n        /* \"contracts/LunchVenue_updated.sol\":1531:1545  numRestaurants */\n      sload(0x02)\n        /* \"contracts/LunchVenue_updated.sol\":1519:1546  restaurants[numRestaurants] */\n      dup2\n      mstore\n      0x20\n      add\n      swap1\n      dup2\n      mstore\n      0x20\n      add\n      0x00\n      keccak256\n        /* \"contracts/LunchVenue_updated.sol\":1519:1553  restaurants[numRestaurants] = name */\n      swap1\n      dup1\n      mload\n      swap1\n      0x20\n      add\n      swap1\n      tag_113\n      swap3\n      swap2\n      swap1\n      tag_106\n      jump\t// in\n    tag_113:\n      pop\n        /* \"contracts/LunchVenue_updated.sol\":1570:1584  numRestaurants */\n      sload(0x02)\n        /* \"contracts/LunchVenue_updated.sol\":1563:1584  return numRestaurants */\n      swap1\n      pop\n        /* \"contracts/LunchVenue_updated.sol\":1408:1591  function addRestaurant(string memory name) public restricted returns (uint){... */\n      swap2\n      swap1\n      pop\n      jump\t// out\n        /* \"contracts/LunchVenue_updated.sol\":952:979  bool public voteOpen = true */\n    tag_52:\n      0x09\n      0x00\n      swap1\n      sload\n      swap1\n      0x0100\n      exp\n      swap1\n      div\n      0xff\n      and\n      dup2\n      jump\t// out\n        /* \"contracts/LunchVenue_updated.sol\":605:629  uint public numVotes = 0 */\n    tag_55:\n      sload(0x04)\n      dup2\n      jump\t// out\n        /* \"contracts/LunchVenue_updated.sol\":360:403  mapping (uint => string) public restaurants */\n    tag_59:\n      mstore(0x20, 0x00)\n      dup1\n      0x00\n      mstore\n      keccak256(0x00, 0x40)\n      0x00\n      swap2\n      pop\n      swap1\n      pop\n      dup1\n      sload\n      tag_114\n      swap1\n      tag_78\n      jump\t// in\n    tag_114:\n      dup1\n      0x1f\n      add\n      0x20\n      dup1\n      swap2\n      div\n      mul\n      0x20\n      add\n      mload(0x40)\n      swap1\n      dup2\n      add\n      0x40\n      mstore\n      dup1\n      swap3\n      swap2\n      swap1\n      dup2\n      dup2\n      mstore\n      0x20\n      add\n      dup3\n      dup1\n      sload\n      tag_115\n      swap1\n      tag_78\n      jump\t// in\n    tag_115:\n      dup1\n      iszero\n      tag_116\n      jumpi\n      dup1\n      0x1f\n      lt\n      tag_117\n      jumpi\n      0x0100\n      dup1\n      dup4\n      sload\n      div\n      mul\n      dup4\n      mstore\n      swap2\n      0x20\n      add\n      swap2\n      jump(tag_116)\n    tag_117:\n      dup3\n      add\n      swap2\n      swap1\n      0x00\n      mstore\n      keccak256(0x00, 0x20)\n      swap1\n    tag_118:\n      dup2\n      sload\n      dup2\n      mstore\n      swap1\n      0x01\n      add\n      swap1\n      0x20\n      add\n      dup1\n      dup4\n      gt\n      tag_118\n      jumpi\n      dup3\n      swap1\n      sub\n      0x1f\n      and\n      dup3\n      add\n      swap2\n    tag_116:\n      pop\n      pop\n      pop\n      pop\n      pop\n      dup2\n      jump\t// out\n        /* \"contracts/LunchVenue_updated.sol\":537:567  uint public numRestaurants = 0 */\n    tag_63:\n      sload(0x02)\n      dup2\n      jump\t// out\n        /* \"contracts/LunchVenue_updated.sol\":702:736  string public votedRestaurant = \"\" */\n    tag_66:\n      0x06\n      dup1\n      sload\n      tag_119\n      swap1\n      tag_78\n      jump\t// in\n    tag_119:\n      dup1\n      0x1f\n      add\n      0x20\n      dup1\n      swap2\n      div\n      mul\n      0x20\n      add\n      mload(0x40)\n      swap1\n      dup2\n      add\n      0x40\n      mstore\n      dup1\n      swap3\n      swap2\n      swap1\n      dup2\n      dup2\n      mstore\n      0x20\n      add\n      dup3\n      dup1\n      sload\n      tag_120\n      swap1\n      tag_78\n      jump\t// in\n    tag_120:\n      dup1\n      iszero\n      tag_121\n      jumpi\n      dup1\n      0x1f\n      lt\n      tag_122\n      jumpi\n      0x0100\n      dup1\n      dup4\n      sload\n      div\n      mul\n      dup4\n      mstore\n      swap2\n      0x20\n      add\n      swap2\n      jump(tag_121)\n    tag_122:\n      dup3\n      add\n      swap2\n      swap1\n      0x00\n      mstore\n      keccak256(0x00, 0x20)\n      swap1\n    tag_123:\n      dup2\n      sload\n      dup2\n      mstore\n      swap1\n      0x01\n      add\n      swap1\n      0x20\n      add\n      dup1\n      dup4\n      gt\n      tag_123\n      jumpi\n      dup3\n      swap1\n      sub\n      0x1f\n      and\n      dup3\n      add\n      swap2\n    tag_121:\n      pop\n      pop\n      pop\n      pop\n      pop\n      dup2\n      jump\t// out\n        /* \"contracts/LunchVenue_updated.sol\":3389:4157  function finalResult() private{... */\n    tag_92:\n        /* \"contracts/LunchVenue_updated.sol\":3429:3446  uint highestVotes */\n      0x00\n        /* \"contracts/LunchVenue_updated.sol\":3460:3482  uint highestRestaurant */\n      dup1\n        /* \"contracts/LunchVenue_updated.sol\":3510:3516  uint i */\n      0x00\n        /* \"contracts/LunchVenue_updated.sol\":3519:3520  1 */\n      0x01\n        /* \"contracts/LunchVenue_updated.sol\":3510:3520  uint i = 1 */\n      swap1\n      pop\n        /* \"contracts/LunchVenue_updated.sol\":3505:3988  for (uint i = 1; i <= numVotes; i++){   //For each vote... */\n    tag_125:\n        /* \"contracts/LunchVenue_updated.sol\":3527:3535  numVotes */\n      sload(0x04)\n        /* \"contracts/LunchVenue_updated.sol\":3522:3523  i */\n      dup2\n        /* \"contracts/LunchVenue_updated.sol\":3522:3535  i <= numVotes */\n      gt\n        /* \"contracts/LunchVenue_updated.sol\":3505:3988  for (uint i = 1; i <= numVotes; i++){   //For each vote... */\n      tag_126\n      jumpi\n        /* \"contracts/LunchVenue_updated.sol\":3573:3587  uint voteCount */\n      0x00\n        /* \"contracts/LunchVenue_updated.sol\":3590:3591  1 */\n      0x01\n        /* \"contracts/LunchVenue_updated.sol\":3573:3591  uint voteCount = 1 */\n      swap1\n      pop\n        /* \"contracts/LunchVenue_updated.sol\":3640:3641  0 */\n      0x00\n        /* \"contracts/LunchVenue_updated.sol\":3608:3616  _results */\n      0x08\n        /* \"contracts/LunchVenue_updated.sol\":3608:3637  _results[votes[i].restaurant] */\n      0x00\n        /* \"contracts/LunchVenue_updated.sol\":3617:3622  votes */\n      0x07\n        /* \"contracts/LunchVenue_updated.sol\":3617:3625  votes[i] */\n      0x00\n        /* \"contracts/LunchVenue_updated.sol\":3623:3624  i */\n      dup7\n        /* \"contracts/LunchVenue_updated.sol\":3617:3625  votes[i] */\n      dup2\n      mstore\n      0x20\n      add\n      swap1\n      dup2\n      mstore\n      0x20\n      add\n      0x00\n      keccak256\n        /* \"contracts/LunchVenue_updated.sol\":3617:3636  votes[i].restaurant */\n      0x01\n      add\n      sload\n        /* \"contracts/LunchVenue_updated.sol\":3608:3637  _results[votes[i].restaurant] */\n      dup2\n      mstore\n      0x20\n      add\n      swap1\n      dup2\n      mstore\n      0x20\n      add\n      0x00\n      keccak256\n      sload\n        /* \"contracts/LunchVenue_updated.sol\":3608:3641  _results[votes[i].restaurant] > 0 */\n      gt\n        /* \"contracts/LunchVenue_updated.sol\":3605:3744  if(_results[votes[i].restaurant] > 0) { // Already start counting... */\n      iszero\n      tag_128\n      jumpi\n        /* \"contracts/LunchVenue_updated.sol\":3700:3708  _results */\n      0x08\n        /* \"contracts/LunchVenue_updated.sol\":3700:3729  _results[votes[i].restaurant] */\n      0x00\n        /* \"contracts/LunchVenue_updated.sol\":3709:3714  votes */\n      0x07\n        /* \"contracts/LunchVenue_updated.sol\":3709:3717  votes[i] */\n      0x00\n        /* \"contracts/LunchVenue_updated.sol\":3715:3716  i */\n      dup6\n        /* \"contracts/LunchVenue_updated.sol\":3709:3717  votes[i] */\n      dup2\n      mstore\n      0x20\n      add\n      swap1\n      dup2\n      mstore\n      0x20\n      add\n      0x00\n      keccak256\n        /* \"contracts/LunchVenue_updated.sol\":3709:3728  votes[i].restaurant */\n      0x01\n      add\n      sload\n        /* \"contracts/LunchVenue_updated.sol\":3700:3729  _results[votes[i].restaurant] */\n      dup2\n      mstore\n      0x20\n      add\n      swap1\n      dup2\n      mstore\n      0x20\n      add\n      0x00\n      keccak256\n      sload\n        /* \"contracts/LunchVenue_updated.sol\":3687:3729  voteCount += _results[votes[i].restaurant] */\n      dup2\n      tag_129\n      swap2\n      swap1\n      tag_89\n      jump\t// in\n    tag_129:\n      swap1\n      pop\n        /* \"contracts/LunchVenue_updated.sol\":3605:3744  if(_results[votes[i].restaurant] > 0) { // Already start counting... */\n    tag_128:\n        /* \"contracts/LunchVenue_updated.sol\":3789:3798  voteCount */\n      dup1\n        /* \"contracts/LunchVenue_updated.sol\":3757:3765  _results */\n      0x08\n        /* \"contracts/LunchVenue_updated.sol\":3757:3786  _results[votes[i].restaurant] */\n      0x00\n        /* \"contracts/LunchVenue_updated.sol\":3766:3771  votes */\n      0x07\n        /* \"contracts/LunchVenue_updated.sol\":3766:3774  votes[i] */\n      0x00\n        /* \"contracts/LunchVenue_updated.sol\":3772:3773  i */\n      dup7\n        /* \"contracts/LunchVenue_updated.sol\":3766:3774  votes[i] */\n      dup2\n      mstore\n      0x20\n      add\n      swap1\n      dup2\n      mstore\n      0x20\n      add\n      0x00\n      keccak256\n        /* \"contracts/LunchVenue_updated.sol\":3766:3785  votes[i].restaurant */\n      0x01\n      add\n      sload\n        /* \"contracts/LunchVenue_updated.sol\":3757:3786  _results[votes[i].restaurant] */\n      dup2\n      mstore\n      0x20\n      add\n      swap1\n      dup2\n      mstore\n      0x20\n      add\n      0x00\n      keccak256\n        /* \"contracts/LunchVenue_updated.sol\":3757:3798  _results[votes[i].restaurant] = voteCount */\n      dup2\n      swap1\n      sstore\n      pop\n        /* \"contracts/LunchVenue_updated.sol\":3837:3849  highestVotes */\n      dup4\n        /* \"contracts/LunchVenue_updated.sol\":3825:3834  voteCount */\n      dup2\n        /* \"contracts/LunchVenue_updated.sol\":3825:3849  voteCount > highestVotes */\n      gt\n        /* \"contracts/LunchVenue_updated.sol\":3821:3978  if (voteCount > highestVotes){ // New winner... */\n      iszero\n      tag_130\n      jumpi\n        /* \"contracts/LunchVenue_updated.sol\":3897:3906  voteCount */\n      dup1\n        /* \"contracts/LunchVenue_updated.sol\":3882:3906  highestVotes = voteCount */\n      swap4\n      pop\n        /* \"contracts/LunchVenue_updated.sol\":3944:3949  votes */\n      0x07\n        /* \"contracts/LunchVenue_updated.sol\":3944:3952  votes[i] */\n      0x00\n        /* \"contracts/LunchVenue_updated.sol\":3950:3951  i */\n      dup4\n        /* \"contracts/LunchVenue_updated.sol\":3944:3952  votes[i] */\n      dup2\n      mstore\n      0x20\n      add\n      swap1\n      dup2\n      mstore\n      0x20\n      add\n      0x00\n      keccak256\n        /* \"contracts/LunchVenue_updated.sol\":3944:3963  votes[i].restaurant */\n      0x01\n      add\n      sload\n        /* \"contracts/LunchVenue_updated.sol\":3924:3963  highestRestaurant = votes[i].restaurant */\n      swap3\n      pop\n        /* \"contracts/LunchVenue_updated.sol\":3821:3978  if (voteCount > highestVotes){ // New winner... */\n    tag_130:\n        /* \"contracts/LunchVenue_updated.sol\":3541:3988  {   //For each vote... */\n      pop\n        /* \"contracts/LunchVenue_updated.sol\":3537:3540  i++ */\n      dup1\n      dup1\n      tag_131\n      swap1\n      tag_85\n      jump\t// in\n    tag_131:\n      swap2\n      pop\n      pop\n        /* \"contracts/LunchVenue_updated.sol\":3505:3988  for (uint i = 1; i <= numVotes; i++){   //For each vote... */\n      jump(tag_125)\n    tag_126:\n      pop\n        /* \"contracts/LunchVenue_updated.sol\":4015:4026  restaurants */\n      0x00\n        /* \"contracts/LunchVenue_updated.sol\":4015:4045  restaurants[highestRestaurant] */\n      dup1\n        /* \"contracts/LunchVenue_updated.sol\":4027:4044  highestRestaurant */\n      dup3\n        /* \"contracts/LunchVenue_updated.sol\":4015:4045  restaurants[highestRestaurant] */\n      dup2\n      mstore\n      0x20\n      add\n      swap1\n      dup2\n      mstore\n      0x20\n      add\n      0x00\n      keccak256\n        /* \"contracts/LunchVenue_updated.sol\":3997:4012  votedRestaurant */\n      0x06\n        /* \"contracts/LunchVenue_updated.sol\":3997:4045  votedRestaurant = restaurants[highestRestaurant] */\n      swap1\n      dup1\n      sload\n      tag_132\n      swap1\n      tag_78\n      jump\t// in\n    tag_132:\n      tag_133\n      swap3\n      swap2\n      swap1\n      tag_134\n      jump\t// in\n    tag_133:\n      pop\n        /* \"contracts/LunchVenue_updated.sol\":4088:4093  false */\n      0x00\n        /* \"contracts/LunchVenue_updated.sol\":4077:4085  voteOpen */\n      0x09\n      0x00\n        /* \"contracts/LunchVenue_updated.sol\":4077:4093  voteOpen = false */\n      0x0100\n      exp\n      dup2\n      sload\n      dup2\n      0xff\n      mul\n      not\n      and\n      swap1\n      dup4\n      iszero\n      iszero\n      mul\n      or\n      swap1\n      sstore\n      pop\n        /* \"contracts/LunchVenue_updated.sol\":3419:4157  {... */\n      pop\n      pop\n        /* \"contracts/LunchVenue_updated.sol\":3389:4157  function finalResult() private{... */\n      jump\t// out\n    tag_83:\n      mload(0x40)\n      dup1\n      0x40\n      add\n      0x40\n      mstore\n      dup1\n      and(0xffffffffffffffffffffffffffffffffffffffff, 0x00)\n      dup2\n      mstore\n      0x20\n      add\n      0x00\n      dup2\n      mstore\n      pop\n      swap1\n      jump\t// out\n    tag_104:\n      mload(0x40)\n      dup1\n      0x40\n      add\n      0x40\n      mstore\n      dup1\n      0x60\n      dup2\n      mstore\n      0x20\n      add\n      iszero(iszero(0x00))\n      dup2\n      mstore\n      pop\n      swap1\n      jump\t// out\n    tag_106:\n      dup3\n      dup1\n      sload\n      tag_135\n      swap1\n      tag_78\n      jump\t// in\n    tag_135:\n      swap1\n      0x00\n      mstore\n      keccak256(0x00, 0x20)\n      swap1\n      0x1f\n      add\n      0x20\n      swap1\n      div\n      dup2\n      add\n      swap3\n      dup3\n      tag_137\n      jumpi\n      0x00\n      dup6\n      sstore\n      jump(tag_136)\n    tag_137:\n      dup3\n      0x1f\n      lt\n      tag_138\n      jumpi\n      dup1\n      mload\n      not(0xff)\n      and\n      dup4\n      dup1\n      add\n      or\n      dup6\n      sstore\n      jump(tag_136)\n    tag_138:\n      dup3\n      dup1\n      add\n      0x01\n      add\n      dup6\n      sstore\n      dup3\n      iszero\n      tag_136\n      jumpi\n      swap2\n      dup3\n      add\n    tag_139:\n      dup3\n      dup2\n      gt\n      iszero\n      tag_140\n      jumpi\n      dup3\n      mload\n      dup3\n      sstore\n      swap2\n      0x20\n      add\n      swap2\n      swap1\n      0x01\n      add\n      swap1\n      jump(tag_139)\n    tag_140:\n    tag_136:\n      pop\n      swap1\n      pop\n      tag_141\n      swap2\n      swap1\n      tag_142\n      jump\t// in\n    tag_141:\n      pop\n      swap1\n      jump\t// out\n    tag_134:\n      dup3\n      dup1\n      sload\n      tag_143\n      swap1\n      tag_78\n      jump\t// in\n    tag_143:\n      swap1\n      0x00\n      mstore\n      keccak256(0x00, 0x20)\n      swap1\n      0x1f\n      add\n      0x20\n      swap1\n      div\n      dup2\n      add\n      swap3\n      dup3\n      tag_145\n      jumpi\n      0x00\n      dup6\n      sstore\n      jump(tag_144)\n    tag_145:\n      dup3\n      0x1f\n      lt\n      tag_146\n      jumpi\n      dup1\n      sload\n      dup6\n      sstore\n      jump(tag_144)\n    tag_146:\n      dup3\n      dup1\n      add\n      0x01\n      add\n      dup6\n      sstore\n      dup3\n      iszero\n      tag_144\n      jumpi\n      0x00\n      mstore\n      keccak256(0x00, 0x20)\n      swap2\n      0x1f\n      add\n      0x20\n      swap1\n      div\n      dup3\n      add\n    tag_147:\n      dup3\n      dup2\n      gt\n      iszero\n      tag_148\n      jumpi\n      dup3\n      sload\n      dup3\n      sstore\n      swap2\n      0x01\n      add\n      swap2\n      swap1\n      0x01\n      add\n      swap1\n      jump(tag_147)\n    tag_148:\n    tag_144:\n      pop\n      swap1\n      pop\n      tag_149\n      swap2\n      swap1\n      tag_142\n      jump\t// in\n    tag_149:\n      pop\n      swap1\n      jump\t// out\n    tag_142:\n    tag_150:\n      dup1\n      dup3\n      gt\n      iszero\n      tag_151\n      jumpi\n      0x00\n      dup2\n      0x00\n      swap1\n      sstore\n      pop\n      0x01\n      add\n      jump(tag_150)\n    tag_151:\n      pop\n      swap1\n      jump\t// out\n        /* \"#utility.yul\":7:419   */\n    tag_153:\n        /* \"#utility.yul\":85:90   */\n      0x00\n        /* \"#utility.yul\":110:176   */\n      tag_155\n        /* \"#utility.yul\":126:175   */\n      tag_156\n        /* \"#utility.yul\":168:174   */\n      dup5\n        /* \"#utility.yul\":126:175   */\n      tag_157\n      jump\t// in\n    tag_156:\n        /* \"#utility.yul\":110:176   */\n      tag_158\n      jump\t// in\n    tag_155:\n        /* \"#utility.yul\":101:176   */\n      swap1\n      pop\n        /* \"#utility.yul\":199:205   */\n      dup3\n        /* \"#utility.yul\":192:197   */\n      dup2\n        /* \"#utility.yul\":185:206   */\n      mstore\n        /* \"#utility.yul\":237:241   */\n      0x20\n        /* \"#utility.yul\":230:235   */\n      dup2\n        /* \"#utility.yul\":226:242   */\n      add\n        /* \"#utility.yul\":275:278   */\n      dup5\n        /* \"#utility.yul\":266:272   */\n      dup5\n        /* \"#utility.yul\":261:264   */\n      dup5\n        /* \"#utility.yul\":257:273   */\n      add\n        /* \"#utility.yul\":254:279   */\n      gt\n        /* \"#utility.yul\":251:253   */\n      iszero\n      tag_159\n      jumpi\n        /* \"#utility.yul\":282:361   */\n      tag_160\n      tag_161\n      jump\t// in\n    tag_160:\n        /* \"#utility.yul\":251:253   */\n    tag_159:\n        /* \"#utility.yul\":372:413   */\n      tag_162\n        /* \"#utility.yul\":406:412   */\n      dup5\n        /* \"#utility.yul\":401:404   */\n      dup3\n        /* \"#utility.yul\":396:399   */\n      dup6\n        /* \"#utility.yul\":372:413   */\n      tag_163\n      jump\t// in\n    tag_162:\n        /* \"#utility.yul\":91:419   */\n      pop\n      swap4\n      swap3\n      pop\n      pop\n      pop\n      jump\t// out\n        /* \"#utility.yul\":425:564   */\n    tag_164:\n        /* \"#utility.yul\":471:476   */\n      0x00\n        /* \"#utility.yul\":509:515   */\n      dup2\n        /* \"#utility.yul\":496:516   */\n      calldataload\n        /* \"#utility.yul\":487:516   */\n      swap1\n      pop\n        /* \"#utility.yul\":525:558   */\n      tag_166\n        /* \"#utility.yul\":552:557   */\n      dup2\n        /* \"#utility.yul\":525:558   */\n      tag_167\n      jump\t// in\n    tag_166:\n        /* \"#utility.yul\":477:564   */\n      swap3\n      swap2\n      pop\n      pop\n      jump\t// out\n        /* \"#utility.yul\":584:924   */\n    tag_168:\n        /* \"#utility.yul\":640:645   */\n      0x00\n        /* \"#utility.yul\":689:692   */\n      dup3\n        /* \"#utility.yul\":682:686   */\n      0x1f\n        /* \"#utility.yul\":674:680   */\n      dup4\n        /* \"#utility.yul\":670:687   */\n      add\n        /* \"#utility.yul\":666:693   */\n      slt\n        /* \"#utility.yul\":656:658   */\n      tag_170\n      jumpi\n        /* \"#utility.yul\":697:776   */\n      tag_171\n      tag_172\n      jump\t// in\n    tag_171:\n        /* \"#utility.yul\":656:658   */\n    tag_170:\n        /* \"#utility.yul\":814:820   */\n      dup2\n        /* \"#utility.yul\":801:821   */\n      calldataload\n        /* \"#utility.yul\":839:918   */\n      tag_173\n        /* \"#utility.yul\":914:917   */\n      dup5\n        /* \"#utility.yul\":906:912   */\n      dup3\n        /* \"#utility.yul\":899:903   */\n      0x20\n        /* \"#utility.yul\":891:897   */\n      dup7\n        /* \"#utility.yul\":887:904   */\n      add\n        /* \"#utility.yul\":839:918   */\n      tag_153\n      jump\t// in\n    tag_173:\n        /* \"#utility.yul\":830:918   */\n      swap2\n      pop\n        /* \"#utility.yul\":646:924   */\n      pop\n      swap3\n      swap2\n      pop\n      pop\n      jump\t// out\n        /* \"#utility.yul\":930:1069   */\n    tag_174:\n        /* \"#utility.yul\":976:981   */\n      0x00\n        /* \"#utility.yul\":1014:1020   */\n      dup2\n        /* \"#utility.yul\":1001:1021   */\n      calldataload\n        /* \"#utility.yul\":992:1021   */\n      swap1\n      pop\n        /* \"#utility.yul\":1030:1063   */\n      tag_176\n        /* \"#utility.yul\":1057:1062   */\n      dup2\n        /* \"#utility.yul\":1030:1063   */\n      tag_177\n      jump\t// in\n    tag_176:\n        /* \"#utility.yul\":982:1069   */\n      swap3\n      swap2\n      pop\n      pop\n      jump\t// out\n        /* \"#utility.yul\":1075:1404   */\n    tag_24:\n        /* \"#utility.yul\":1134:1140   */\n      0x00\n        /* \"#utility.yul\":1183:1185   */\n      0x20\n        /* \"#utility.yul\":1171:1180   */\n      dup3\n        /* \"#utility.yul\":1162:1169   */\n      dup5\n        /* \"#utility.yul\":1158:1181   */\n      sub\n        /* \"#utility.yul\":1154:1186   */\n      slt\n        /* \"#utility.yul\":1151:1153   */\n      iszero\n      tag_179\n      jumpi\n        /* \"#utility.yul\":1189:1268   */\n      tag_180\n      tag_181\n      jump\t// in\n    tag_180:\n        /* \"#utility.yul\":1151:1153   */\n    tag_179:\n        /* \"#utility.yul\":1309:1310   */\n      0x00\n        /* \"#utility.yul\":1334:1387   */\n      tag_182\n        /* \"#utility.yul\":1379:1386   */\n      dup5\n        /* \"#utility.yul\":1370:1376   */\n      dup3\n        /* \"#utility.yul\":1359:1368   */\n      dup6\n        /* \"#utility.yul\":1355:1377   */\n      add\n        /* \"#utility.yul\":1334:1387   */\n      tag_164\n      jump\t// in\n    tag_182:\n        /* \"#utility.yul\":1324:1387   */\n      swap2\n      pop\n        /* \"#utility.yul\":1280:1397   */\n      pop\n        /* \"#utility.yul\":1141:1404   */\n      swap3\n      swap2\n      pop\n      pop\n      jump\t// out\n        /* \"#utility.yul\":1410:2064   */\n    tag_30:\n        /* \"#utility.yul\":1488:1494   */\n      0x00\n        /* \"#utility.yul\":1496:1502   */\n      dup1\n        /* \"#utility.yul\":1545:1547   */\n      0x40\n        /* \"#utility.yul\":1533:1542   */\n      dup4\n        /* \"#utility.yul\":1524:1531   */\n      dup6\n        /* \"#utility.yul\":1520:1543   */\n      sub\n        /* \"#utility.yul\":1516:1548   */\n      slt\n        /* \"#utility.yul\":1513:1515   */\n      iszero\n      tag_184\n      jumpi\n        /* \"#utility.yul\":1551:1630   */\n      tag_185\n      tag_181\n      jump\t// in\n    tag_185:\n        /* \"#utility.yul\":1513:1515   */\n    tag_184:\n        /* \"#utility.yul\":1671:1672   */\n      0x00\n        /* \"#utility.yul\":1696:1749   */\n      tag_186\n        /* \"#utility.yul\":1741:1748   */\n      dup6\n        /* \"#utility.yul\":1732:1738   */\n      dup3\n        /* \"#utility.yul\":1721:1730   */\n      dup7\n        /* \"#utility.yul\":1717:1739   */\n      add\n        /* \"#utility.yul\":1696:1749   */\n      tag_164\n      jump\t// in\n    tag_186:\n        /* \"#utility.yul\":1686:1749   */\n      swap3\n      pop\n        /* \"#utility.yul\":1642:1759   */\n      pop\n        /* \"#utility.yul\":1826:1828   */\n      0x20\n        /* \"#utility.yul\":1815:1824   */\n      dup4\n        /* \"#utility.yul\":1811:1829   */\n      add\n        /* \"#utility.yul\":1798:1830   */\n      calldataload\n        /* \"#utility.yul\":1857:1875   */\n      0xffffffffffffffff\n        /* \"#utility.yul\":1849:1855   */\n      dup2\n        /* \"#utility.yul\":1846:1876   */\n      gt\n        /* \"#utility.yul\":1843:1845   */\n      iszero\n      tag_187\n      jumpi\n        /* \"#utility.yul\":1879:1958   */\n      tag_188\n      tag_189\n      jump\t// in\n    tag_188:\n        /* \"#utility.yul\":1843:1845   */\n    tag_187:\n        /* \"#utility.yul\":1984:2047   */\n      tag_190\n        /* \"#utility.yul\":2039:2046   */\n      dup6\n        /* \"#utility.yul\":2030:2036   */\n      dup3\n        /* \"#utility.yul\":2019:2028   */\n      dup7\n        /* \"#utility.yul\":2015:2037   */\n      add\n        /* \"#utility.yul\":1984:2047   */\n      tag_168\n      jump\t// in\n    tag_190:\n        /* \"#utility.yul\":1974:2047   */\n      swap2\n      pop\n        /* \"#utility.yul\":1769:2057   */\n      pop\n        /* \"#utility.yul\":1503:2064   */\n      swap3\n      pop\n      swap3\n      swap1\n      pop\n      jump\t// out\n        /* \"#utility.yul\":2070:2579   */\n    tag_48:\n        /* \"#utility.yul\":2139:2145   */\n      0x00\n        /* \"#utility.yul\":2188:2190   */\n      0x20\n        /* \"#utility.yul\":2176:2185   */\n      dup3\n        /* \"#utility.yul\":2167:2174   */\n      dup5\n        /* \"#utility.yul\":2163:2186   */\n      sub\n        /* \"#utility.yul\":2159:2191   */\n      slt\n        /* \"#utility.yul\":2156:2158   */\n      iszero\n      tag_192\n      jumpi\n        /* \"#utility.yul\":2194:2273   */\n      tag_193\n      tag_181\n      jump\t// in\n    tag_193:\n        /* \"#utility.yul\":2156:2158   */\n    tag_192:\n        /* \"#utility.yul\":2342:2343   */\n      0x00\n        /* \"#utility.yul\":2331:2340   */\n      dup3\n        /* \"#utility.yul\":2327:2344   */\n      add\n        /* \"#utility.yul\":2314:2345   */\n      calldataload\n        /* \"#utility.yul\":2372:2390   */\n      0xffffffffffffffff\n        /* \"#utility.yul\":2364:2370   */\n      dup2\n        /* \"#utility.yul\":2361:2391   */\n      gt\n        /* \"#utility.yul\":2358:2360   */\n      iszero\n      tag_194\n      jumpi\n        /* \"#utility.yul\":2394:2473   */\n      tag_195\n      tag_189\n      jump\t// in\n    tag_195:\n        /* \"#utility.yul\":2358:2360   */\n    tag_194:\n        /* \"#utility.yul\":2499:2562   */\n      tag_196\n        /* \"#utility.yul\":2554:2561   */\n      dup5\n        /* \"#utility.yul\":2545:2551   */\n      dup3\n        /* \"#utility.yul\":2534:2543   */\n      dup6\n        /* \"#utility.yul\":2530:2552   */\n      add\n        /* \"#utility.yul\":2499:2562   */\n      tag_168\n      jump\t// in\n    tag_196:\n        /* \"#utility.yul\":2489:2562   */\n      swap2\n      pop\n        /* \"#utility.yul\":2285:2572   */\n      pop\n        /* \"#utility.yul\":2146:2579   */\n      swap3\n      swap2\n      pop\n      pop\n      jump\t// out\n        /* \"#utility.yul\":2585:2914   */\n    tag_18:\n        /* \"#utility.yul\":2644:2650   */\n      0x00\n        /* \"#utility.yul\":2693:2695   */\n      0x20\n        /* \"#utility.yul\":2681:2690   */\n      dup3\n        /* \"#utility.yul\":2672:2679   */\n      dup5\n        /* \"#utility.yul\":2668:2691   */\n      sub\n        /* \"#utility.yul\":2664:2696   */\n      slt\n        /* \"#utility.yul\":2661:2663   */\n      iszero\n      tag_198\n      jumpi\n        /* \"#utility.yul\":2699:2778   */\n      tag_199\n      tag_181\n      jump\t// in\n    tag_199:\n        /* \"#utility.yul\":2661:2663   */\n    tag_198:\n        /* \"#utility.yul\":2819:2820   */\n      0x00\n        /* \"#utility.yul\":2844:2897   */\n      tag_200\n        /* \"#utility.yul\":2889:2896   */\n      dup5\n        /* \"#utility.yul\":2880:2886   */\n      dup3\n        /* \"#utility.yul\":2869:2878   */\n      dup6\n        /* \"#utility.yul\":2865:2887   */\n      add\n        /* \"#utility.yul\":2844:2897   */\n      tag_174\n      jump\t// in\n    tag_200:\n        /* \"#utility.yul\":2834:2897   */\n      swap2\n      pop\n        /* \"#utility.yul\":2790:2907   */\n      pop\n        /* \"#utility.yul\":2651:2914   */\n      swap3\n      swap2\n      pop\n      pop\n      jump\t// out\n        /* \"#utility.yul\":2920:3038   */\n    tag_201:\n        /* \"#utility.yul\":3007:3031   */\n      tag_203\n        /* \"#utility.yul\":3025:3030   */\n      dup2\n        /* \"#utility.yul\":3007:3031   */\n      tag_204\n      jump\t// in\n    tag_203:\n        /* \"#utility.yul\":3002:3005   */\n      dup3\n        /* \"#utility.yul\":2995:3032   */\n      mstore\n        /* \"#utility.yul\":2985:3038   */\n      pop\n      pop\n      jump\t// out\n        /* \"#utility.yul\":3044:3153   */\n    tag_205:\n        /* \"#utility.yul\":3125:3146   */\n      tag_207\n        /* \"#utility.yul\":3140:3145   */\n      dup2\n        /* \"#utility.yul\":3125:3146   */\n      tag_208\n      jump\t// in\n    tag_207:\n        /* \"#utility.yul\":3120:3123   */\n      dup3\n        /* \"#utility.yul\":3113:3147   */\n      mstore\n        /* \"#utility.yul\":3103:3153   */\n      pop\n      pop\n      jump\t// out\n        /* \"#utility.yul\":3159:3523   */\n    tag_209:\n        /* \"#utility.yul\":3247:3250   */\n      0x00\n        /* \"#utility.yul\":3275:3314   */\n      tag_211\n        /* \"#utility.yul\":3308:3313   */\n      dup3\n        /* \"#utility.yul\":3275:3314   */\n      tag_212\n      jump\t// in\n    tag_211:\n        /* \"#utility.yul\":3330:3401   */\n      tag_213\n        /* \"#utility.yul\":3394:3400   */\n      dup2\n        /* \"#utility.yul\":3389:3392   */\n      dup6\n        /* \"#utility.yul\":3330:3401   */\n      tag_214\n      jump\t// in\n    tag_213:\n        /* \"#utility.yul\":3323:3401   */\n      swap4\n      pop\n        /* \"#utility.yul\":3410:3462   */\n      tag_215\n        /* \"#utility.yul\":3455:3461   */\n      dup2\n        /* \"#utility.yul\":3450:3453   */\n      dup6\n        /* \"#utility.yul\":3443:3447   */\n      0x20\n        /* \"#utility.yul\":3436:3441   */\n      dup7\n        /* \"#utility.yul\":3432:3448   */\n      add\n        /* \"#utility.yul\":3410:3462   */\n      tag_216\n      jump\t// in\n    tag_215:\n        /* \"#utility.yul\":3487:3516   */\n      tag_217\n        /* \"#utility.yul\":3509:3515   */\n      dup2\n        /* \"#utility.yul\":3487:3516   */\n      tag_218\n      jump\t// in\n    tag_217:\n        /* \"#utility.yul\":3482:3485   */\n      dup5\n        /* \"#utility.yul\":3478:3517   */\n      add\n        /* \"#utility.yul\":3471:3517   */\n      swap2\n      pop\n        /* \"#utility.yul\":3251:3523   */\n      pop\n      swap3\n      swap2\n      pop\n      pop\n      jump\t// out\n        /* \"#utility.yul\":3529:3895   */\n    tag_219:\n        /* \"#utility.yul\":3671:3674   */\n      0x00\n        /* \"#utility.yul\":3692:3759   */\n      tag_221\n        /* \"#utility.yul\":3756:3758   */\n      0x13\n        /* \"#utility.yul\":3751:3754   */\n      dup4\n        /* \"#utility.yul\":3692:3759   */\n      tag_214\n      jump\t// in\n    tag_221:\n        /* \"#utility.yul\":3685:3759   */\n      swap2\n      pop\n        /* \"#utility.yul\":3768:3861   */\n      tag_222\n        /* \"#utility.yul\":3857:3860   */\n      dup3\n        /* \"#utility.yul\":3768:3861   */\n      tag_223\n      jump\t// in\n    tag_222:\n        /* \"#utility.yul\":3886:3888   */\n      0x20\n        /* \"#utility.yul\":3881:3884   */\n      dup3\n        /* \"#utility.yul\":3877:3889   */\n      add\n        /* \"#utility.yul\":3870:3889   */\n      swap1\n      pop\n        /* \"#utility.yul\":3675:3895   */\n      swap2\n      swap1\n      pop\n      jump\t// out\n        /* \"#utility.yul\":3901:4267   */\n    tag_224:\n        /* \"#utility.yul\":4043:4046   */\n      0x00\n        /* \"#utility.yul\":4064:4131   */\n      tag_226\n        /* \"#utility.yul\":4128:4130   */\n      0x23\n        /* \"#utility.yul\":4123:4126   */\n      dup4\n        /* \"#utility.yul\":4064:4131   */\n      tag_214\n      jump\t// in\n    tag_226:\n        /* \"#utility.yul\":4057:4131   */\n      swap2\n      pop\n        /* \"#utility.yul\":4140:4233   */\n      tag_227\n        /* \"#utility.yul\":4229:4232   */\n      dup3\n        /* \"#utility.yul\":4140:4233   */\n      tag_228\n      jump\t// in\n    tag_227:\n        /* \"#utility.yul\":4258:4260   */\n      0x40\n        /* \"#utility.yul\":4253:4256   */\n      dup3\n        /* \"#utility.yul\":4249:4261   */\n      add\n        /* \"#utility.yul\":4242:4261   */\n      swap1\n      pop\n        /* \"#utility.yul\":4047:4267   */\n      swap2\n      swap1\n      pop\n      jump\t// out\n        /* \"#utility.yul\":4273:4639   */\n    tag_229:\n        /* \"#utility.yul\":4415:4418   */\n      0x00\n        /* \"#utility.yul\":4436:4503   */\n      tag_231\n        /* \"#utility.yul\":4500:4502   */\n      0x23\n        /* \"#utility.yul\":4495:4498   */\n      dup4\n        /* \"#utility.yul\":4436:4503   */\n      tag_214\n      jump\t// in\n    tag_231:\n        /* \"#utility.yul\":4429:4503   */\n      swap2\n      pop\n        /* \"#utility.yul\":4512:4605   */\n      tag_232\n        /* \"#utility.yul\":4601:4604   */\n      dup3\n        /* \"#utility.yul\":4512:4605   */\n      tag_233\n      jump\t// in\n    tag_232:\n        /* \"#utility.yul\":4630:4632   */\n      0x40\n        /* \"#utility.yul\":4625:4628   */\n      dup3\n        /* \"#utility.yul\":4621:4633   */\n      add\n        /* \"#utility.yul\":4614:4633   */\n      swap1\n      pop\n        /* \"#utility.yul\":4419:4639   */\n      swap2\n      swap1\n      pop\n      jump\t// out\n        /* \"#utility.yul\":4645:4763   */\n    tag_234:\n        /* \"#utility.yul\":4732:4756   */\n      tag_236\n        /* \"#utility.yul\":4750:4755   */\n      dup2\n        /* \"#utility.yul\":4732:4756   */\n      tag_237\n      jump\t// in\n    tag_236:\n        /* \"#utility.yul\":4727:4730   */\n      dup3\n        /* \"#utility.yul\":4720:4757   */\n      mstore\n        /* \"#utility.yul\":4710:4763   */\n      pop\n      pop\n      jump\t// out\n        /* \"#utility.yul\":4769:4991   */\n    tag_40:\n        /* \"#utility.yul\":4862:4866   */\n      0x00\n        /* \"#utility.yul\":4900:4902   */\n      0x20\n        /* \"#utility.yul\":4889:4898   */\n      dup3\n        /* \"#utility.yul\":4885:4903   */\n      add\n        /* \"#utility.yul\":4877:4903   */\n      swap1\n      pop\n        /* \"#utility.yul\":4913:4984   */\n      tag_239\n        /* \"#utility.yul\":4981:4982   */\n      0x00\n        /* \"#utility.yul\":4970:4979   */\n      dup4\n        /* \"#utility.yul\":4966:4983   */\n      add\n        /* \"#utility.yul\":4957:4963   */\n      dup5\n        /* \"#utility.yul\":4913:4984   */\n      tag_201\n      jump\t// in\n    tag_239:\n        /* \"#utility.yul\":4867:4991   */\n      swap3\n      swap2\n      pop\n      pop\n      jump\t// out\n        /* \"#utility.yul\":4997:5329   */\n    tag_45:\n        /* \"#utility.yul\":5118:5122   */\n      0x00\n        /* \"#utility.yul\":5156:5158   */\n      0x40\n        /* \"#utility.yul\":5145:5154   */\n      dup3\n        /* \"#utility.yul\":5141:5159   */\n      add\n        /* \"#utility.yul\":5133:5159   */\n      swap1\n      pop\n        /* \"#utility.yul\":5169:5240   */\n      tag_241\n        /* \"#utility.yul\":5237:5238   */\n      0x00\n        /* \"#utility.yul\":5226:5235   */\n      dup4\n        /* \"#utility.yul\":5222:5239   */\n      add\n        /* \"#utility.yul\":5213:5219   */\n      dup6\n        /* \"#utility.yul\":5169:5240   */\n      tag_201\n      jump\t// in\n    tag_241:\n        /* \"#utility.yul\":5250:5322   */\n      tag_242\n        /* \"#utility.yul\":5318:5320   */\n      0x20\n        /* \"#utility.yul\":5307:5316   */\n      dup4\n        /* \"#utility.yul\":5303:5321   */\n      add\n        /* \"#utility.yul\":5294:5300   */\n      dup5\n        /* \"#utility.yul\":5250:5322   */\n      tag_234\n      jump\t// in\n    tag_242:\n        /* \"#utility.yul\":5123:5329   */\n      swap4\n      swap3\n      pop\n      pop\n      pop\n      jump\t// out\n        /* \"#utility.yul\":5335:5545   */\n    tag_21:\n        /* \"#utility.yul\":5422:5426   */\n      0x00\n        /* \"#utility.yul\":5460:5462   */\n      0x20\n        /* \"#utility.yul\":5449:5458   */\n      dup3\n        /* \"#utility.yul\":5445:5463   */\n      add\n        /* \"#utility.yul\":5437:5463   */\n      swap1\n      pop\n        /* \"#utility.yul\":5473:5538   */\n      tag_244\n        /* \"#utility.yul\":5535:5536   */\n      0x00\n        /* \"#utility.yul\":5524:5533   */\n      dup4\n        /* \"#utility.yul\":5520:5537   */\n      add\n        /* \"#utility.yul\":5511:5517   */\n      dup5\n        /* \"#utility.yul\":5473:5538   */\n      tag_205\n      jump\t// in\n    tag_244:\n        /* \"#utility.yul\":5427:5545   */\n      swap3\n      swap2\n      pop\n      pop\n      jump\t// out\n        /* \"#utility.yul\":5551:5864   */\n    tag_61:\n        /* \"#utility.yul\":5664:5668   */\n      0x00\n        /* \"#utility.yul\":5702:5704   */\n      0x20\n        /* \"#utility.yul\":5691:5700   */\n      dup3\n        /* \"#utility.yul\":5687:5705   */\n      add\n        /* \"#utility.yul\":5679:5705   */\n      swap1\n      pop\n        /* \"#utility.yul\":5751:5760   */\n      dup2\n        /* \"#utility.yul\":5745:5749   */\n      dup2\n        /* \"#utility.yul\":5741:5761   */\n      sub\n        /* \"#utility.yul\":5737:5738   */\n      0x00\n        /* \"#utility.yul\":5726:5735   */\n      dup4\n        /* \"#utility.yul\":5722:5739   */\n      add\n        /* \"#utility.yul\":5715:5762   */\n      mstore\n        /* \"#utility.yul\":5779:5857   */\n      tag_246\n        /* \"#utility.yul\":5852:5856   */\n      dup2\n        /* \"#utility.yul\":5843:5849   */\n      dup5\n        /* \"#utility.yul\":5779:5857   */\n      tag_209\n      jump\t// in\n    tag_246:\n        /* \"#utility.yul\":5771:5857   */\n      swap1\n      pop\n        /* \"#utility.yul\":5669:5864   */\n      swap3\n      swap2\n      pop\n      pop\n      jump\t// out\n        /* \"#utility.yul\":5870:6281   */\n    tag_27:\n        /* \"#utility.yul\":6005:6009   */\n      0x00\n        /* \"#utility.yul\":6043:6045   */\n      0x40\n        /* \"#utility.yul\":6032:6041   */\n      dup3\n        /* \"#utility.yul\":6028:6046   */\n      add\n        /* \"#utility.yul\":6020:6046   */\n      swap1\n      pop\n        /* \"#utility.yul\":6092:6101   */\n      dup2\n        /* \"#utility.yul\":6086:6090   */\n      dup2\n        /* \"#utility.yul\":6082:6102   */\n      sub\n        /* \"#utility.yul\":6078:6079   */\n      0x00\n        /* \"#utility.yul\":6067:6076   */\n      dup4\n        /* \"#utility.yul\":6063:6080   */\n      add\n        /* \"#utility.yul\":6056:6103   */\n      mstore\n        /* \"#utility.yul\":6120:6198   */\n      tag_248\n        /* \"#utility.yul\":6193:6197   */\n      dup2\n        /* \"#utility.yul\":6184:6190   */\n      dup6\n        /* \"#utility.yul\":6120:6198   */\n      tag_209\n      jump\t// in\n    tag_248:\n        /* \"#utility.yul\":6112:6198   */\n      swap1\n      pop\n        /* \"#utility.yul\":6208:6274   */\n      tag_249\n        /* \"#utility.yul\":6270:6272   */\n      0x20\n        /* \"#utility.yul\":6259:6268   */\n      dup4\n        /* \"#utility.yul\":6255:6273   */\n      add\n        /* \"#utility.yul\":6246:6252   */\n      dup5\n        /* \"#utility.yul\":6208:6274   */\n      tag_205\n      jump\t// in\n    tag_249:\n        /* \"#utility.yul\":6010:6281   */\n      swap4\n      swap3\n      pop\n      pop\n      pop\n      jump\t// out\n        /* \"#utility.yul\":6287:6706   */\n    tag_75:\n        /* \"#utility.yul\":6453:6457   */\n      0x00\n        /* \"#utility.yul\":6491:6493   */\n      0x20\n        /* \"#utility.yul\":6480:6489   */\n      dup3\n        /* \"#utility.yul\":6476:6494   */\n      add\n        /* \"#utility.yul\":6468:6494   */\n      swap1\n      pop\n        /* \"#utility.yul\":6540:6549   */\n      dup2\n        /* \"#utility.yul\":6534:6538   */\n      dup2\n        /* \"#utility.yul\":6530:6550   */\n      sub\n        /* \"#utility.yul\":6526:6527   */\n      0x00\n        /* \"#utility.yul\":6515:6524   */\n      dup4\n        /* \"#utility.yul\":6511:6528   */\n      add\n        /* \"#utility.yul\":6504:6551   */\n      mstore\n        /* \"#utility.yul\":6568:6699   */\n      tag_251\n        /* \"#utility.yul\":6694:6698   */\n      dup2\n        /* \"#utility.yul\":6568:6699   */\n      tag_219\n      jump\t// in\n    tag_251:\n        /* \"#utility.yul\":6560:6699   */\n      swap1\n      pop\n        /* \"#utility.yul\":6458:6706   */\n      swap2\n      swap1\n      pop\n      jump\t// out\n        /* \"#utility.yul\":6712:7131   */\n    tag_101:\n        /* \"#utility.yul\":6878:6882   */\n      0x00\n        /* \"#utility.yul\":6916:6918   */\n      0x20\n        /* \"#utility.yul\":6905:6914   */\n      dup3\n        /* \"#utility.yul\":6901:6919   */\n      add\n        /* \"#utility.yul\":6893:6919   */\n      swap1\n      pop\n        /* \"#utility.yul\":6965:6974   */\n      dup2\n        /* \"#utility.yul\":6959:6963   */\n      dup2\n        /* \"#utility.yul\":6955:6975   */\n      sub\n        /* \"#utility.yul\":6951:6952   */\n      0x00\n        /* \"#utility.yul\":6940:6949   */\n      dup4\n        /* \"#utility.yul\":6936:6953   */\n      add\n        /* \"#utility.yul\":6929:6976   */\n      mstore\n        /* \"#utility.yul\":6993:7124   */\n      tag_253\n        /* \"#utility.yul\":7119:7123   */\n      dup2\n        /* \"#utility.yul\":6993:7124   */\n      tag_224\n      jump\t// in\n    tag_253:\n        /* \"#utility.yul\":6985:7124   */\n      swap1\n      pop\n        /* \"#utility.yul\":6883:7131   */\n      swap2\n      swap1\n      pop\n      jump\t// out\n        /* \"#utility.yul\":7137:7556   */\n    tag_71:\n        /* \"#utility.yul\":7303:7307   */\n      0x00\n        /* \"#utility.yul\":7341:7343   */\n      0x20\n        /* \"#utility.yul\":7330:7339   */\n      dup3\n        /* \"#utility.yul\":7326:7344   */\n      add\n        /* \"#utility.yul\":7318:7344   */\n      swap1\n      pop\n        /* \"#utility.yul\":7390:7399   */\n      dup2\n        /* \"#utility.yul\":7384:7388   */\n      dup2\n        /* \"#utility.yul\":7380:7400   */\n      sub\n        /* \"#utility.yul\":7376:7377   */\n      0x00\n        /* \"#utility.yul\":7365:7374   */\n      dup4\n        /* \"#utility.yul\":7361:7378   */\n      add\n        /* \"#utility.yul\":7354:7401   */\n      mstore\n        /* \"#utility.yul\":7418:7549   */\n      tag_255\n        /* \"#utility.yul\":7544:7548   */\n      dup2\n        /* \"#utility.yul\":7418:7549   */\n      tag_229\n      jump\t// in\n    tag_255:\n        /* \"#utility.yul\":7410:7549   */\n      swap1\n      pop\n        /* \"#utility.yul\":7308:7556   */\n      swap2\n      swap1\n      pop\n      jump\t// out\n        /* \"#utility.yul\":7562:7784   */\n    tag_33:\n        /* \"#utility.yul\":7655:7659   */\n      0x00\n        /* \"#utility.yul\":7693:7695   */\n      0x20\n        /* \"#utility.yul\":7682:7691   */\n      dup3\n        /* \"#utility.yul\":7678:7696   */\n      add\n        /* \"#utility.yul\":7670:7696   */\n      swap1\n      pop\n        /* \"#utility.yul\":7706:7777   */\n      tag_257\n        /* \"#utility.yul\":7774:7775   */\n      0x00\n        /* \"#utility.yul\":7763:7772   */\n      dup4\n        /* \"#utility.yul\":7759:7776   */\n      add\n        /* \"#utility.yul\":7750:7756   */\n      dup5\n        /* \"#utility.yul\":7706:7777   */\n      tag_234\n      jump\t// in\n    tag_257:\n        /* \"#utility.yul\":7660:7784   */\n      swap3\n      swap2\n      pop\n      pop\n      jump\t// out\n        /* \"#utility.yul\":7790:7919   */\n    tag_158:\n        /* \"#utility.yul\":7824:7830   */\n      0x00\n        /* \"#utility.yul\":7851:7871   */\n      tag_259\n      tag_260\n      jump\t// in\n    tag_259:\n        /* \"#utility.yul\":7841:7871   */\n      swap1\n      pop\n        /* \"#utility.yul\":7880:7913   */\n      tag_261\n        /* \"#utility.yul\":7908:7912   */\n      dup3\n        /* \"#utility.yul\":7900:7906   */\n      dup3\n        /* \"#utility.yul\":7880:7913   */\n      tag_262\n      jump\t// in\n    tag_261:\n        /* \"#utility.yul\":7831:7919   */\n      swap2\n      swap1\n      pop\n      jump\t// out\n        /* \"#utility.yul\":7925:8000   */\n    tag_260:\n        /* \"#utility.yul\":7958:7964   */\n      0x00\n        /* \"#utility.yul\":7991:7993   */\n      0x40\n        /* \"#utility.yul\":7985:7994   */\n      mload\n        /* \"#utility.yul\":7975:7994   */\n      swap1\n      pop\n        /* \"#utility.yul\":7965:8000   */\n      swap1\n      jump\t// out\n        /* \"#utility.yul\":8006:8314   */\n    tag_157:\n        /* \"#utility.yul\":8068:8072   */\n      0x00\n        /* \"#utility.yul\":8158:8176   */\n      0xffffffffffffffff\n        /* \"#utility.yul\":8150:8156   */\n      dup3\n        /* \"#utility.yul\":8147:8177   */\n      gt\n        /* \"#utility.yul\":8144:8146   */\n      iszero\n      tag_265\n      jumpi\n        /* \"#utility.yul\":8180:8198   */\n      tag_266\n      tag_267\n      jump\t// in\n    tag_266:\n        /* \"#utility.yul\":8144:8146   */\n    tag_265:\n        /* \"#utility.yul\":8218:8247   */\n      tag_268\n        /* \"#utility.yul\":8240:8246   */\n      dup3\n        /* \"#utility.yul\":8218:8247   */\n      tag_218\n      jump\t// in\n    tag_268:\n        /* \"#utility.yul\":8210:8247   */\n      swap1\n      pop\n        /* \"#utility.yul\":8302:8306   */\n      0x20\n        /* \"#utility.yul\":8296:8300   */\n      dup2\n        /* \"#utility.yul\":8292:8307   */\n      add\n        /* \"#utility.yul\":8284:8307   */\n      swap1\n      pop\n        /* \"#utility.yul\":8073:8314   */\n      swap2\n      swap1\n      pop\n      jump\t// out\n        /* \"#utility.yul\":8320:8419   */\n    tag_212:\n        /* \"#utility.yul\":8372:8378   */\n      0x00\n        /* \"#utility.yul\":8406:8411   */\n      dup2\n        /* \"#utility.yul\":8400:8412   */\n      mload\n        /* \"#utility.yul\":8390:8412   */\n      swap1\n      pop\n        /* \"#utility.yul\":8379:8419   */\n      swap2\n      swap1\n      pop\n      jump\t// out\n        /* \"#utility.yul\":8425:8594   */\n    tag_214:\n        /* \"#utility.yul\":8509:8520   */\n      0x00\n        /* \"#utility.yul\":8543:8549   */\n      dup3\n        /* \"#utility.yul\":8538:8541   */\n      dup3\n        /* \"#utility.yul\":8531:8550   */\n      mstore\n        /* \"#utility.yul\":8583:8587   */\n      0x20\n        /* \"#utility.yul\":8578:8581   */\n      dup3\n        /* \"#utility.yul\":8574:8588   */\n      add\n        /* \"#utility.yul\":8559:8588   */\n      swap1\n      pop\n        /* \"#utility.yul\":8521:8594   */\n      swap3\n      swap2\n      pop\n      pop\n      jump\t// out\n        /* \"#utility.yul\":8600:8905   */\n    tag_89:\n        /* \"#utility.yul\":8640:8643   */\n      0x00\n        /* \"#utility.yul\":8659:8679   */\n      tag_272\n        /* \"#utility.yul\":8677:8678   */\n      dup3\n        /* \"#utility.yul\":8659:8679   */\n      tag_237\n      jump\t// in\n    tag_272:\n        /* \"#utility.yul\":8654:8679   */\n      swap2\n      pop\n        /* \"#utility.yul\":8693:8713   */\n      tag_273\n        /* \"#utility.yul\":8711:8712   */\n      dup4\n        /* \"#utility.yul\":8693:8713   */\n      tag_237\n      jump\t// in\n    tag_273:\n        /* \"#utility.yul\":8688:8713   */\n      swap3\n      pop\n        /* \"#utility.yul\":8847:8848   */\n      dup3\n        /* \"#utility.yul\":8779:8845   */\n      0xffffffffffffffffffffffffffffffffffffffffffffffffffffffffffffffff\n        /* \"#utility.yul\":8775:8849   */\n      sub\n        /* \"#utility.yul\":8772:8773   */\n      dup3\n        /* \"#utility.yul\":8769:8850   */\n      gt\n        /* \"#utility.yul\":8766:8768   */\n      iszero\n      tag_274\n      jumpi\n        /* \"#utility.yul\":8853:8871   */\n      tag_275\n      tag_276\n      jump\t// in\n    tag_275:\n        /* \"#utility.yul\":8766:8768   */\n    tag_274:\n        /* \"#utility.yul\":8897:8898   */\n      dup3\n        /* \"#utility.yul\":8894:8895   */\n      dup3\n        /* \"#utility.yul\":8890:8899   */\n      add\n        /* \"#utility.yul\":8883:8899   */\n      swap1\n      pop\n        /* \"#utility.yul\":8644:8905   */\n      swap3\n      swap2\n      pop\n      pop\n      jump\t// out\n        /* \"#utility.yul\":8911:9096   */\n    tag_87:\n        /* \"#utility.yul\":8951:8952   */\n      0x00\n        /* \"#utility.yul\":8968:8988   */\n      tag_278\n        /* \"#utility.yul\":8986:8987   */\n      dup3\n        /* \"#utility.yul\":8968:8988   */\n      tag_237\n      jump\t// in\n    tag_278:\n        /* \"#utility.yul\":8963:8988   */\n      swap2\n      pop\n        /* \"#utility.yul\":9002:9022   */\n      tag_279\n        /* \"#utility.yul\":9020:9021   */\n      dup4\n        /* \"#utility.yul\":9002:9022   */\n      tag_237\n      jump\t// in\n    tag_279:\n        /* \"#utility.yul\":8997:9022   */\n      swap3\n      pop\n        /* \"#utility.yul\":9041:9042   */\n      dup3\n        /* \"#utility.yul\":9031:9033   */\n      tag_280\n      jumpi\n        /* \"#utility.yul\":9046:9064   */\n      tag_281\n      tag_282\n      jump\t// in\n    tag_281:\n        /* \"#utility.yul\":9031:9033   */\n    tag_280:\n        /* \"#utility.yul\":9088:9089   */\n      dup3\n        /* \"#utility.yul\":9085:9086   */\n      dup3\n        /* \"#utility.yul\":9081:9090   */\n      div\n        /* \"#utility.yul\":9076:9090   */\n      swap1\n      pop\n        /* \"#utility.yul\":8953:9096   */\n      swap3\n      swap2\n      pop\n      pop\n      jump\t// out\n        /* \"#utility.yul\":9102:9198   */\n    tag_204:\n        /* \"#utility.yul\":9139:9146   */\n      0x00\n        /* \"#utility.yul\":9168:9192   */\n      tag_284\n        /* \"#utility.yul\":9186:9191   */\n      dup3\n        /* \"#utility.yul\":9168:9192   */\n      tag_285\n      jump\t// in\n    tag_284:\n        /* \"#utility.yul\":9157:9192   */\n      swap1\n      pop\n        /* \"#utility.yul\":9147:9198   */\n      swap2\n      swap1\n      pop\n      jump\t// out\n        /* \"#utility.yul\":9204:9294   */\n    tag_208:\n        /* \"#utility.yul\":9238:9245   */\n      0x00\n        /* \"#utility.yul\":9281:9286   */\n      dup2\n        /* \"#utility.yul\":9274:9287   */\n      iszero\n        /* \"#utility.yul\":9267:9288   */\n      iszero\n        /* \"#utility.yul\":9256:9288   */\n      swap1\n      pop\n        /* \"#utility.yul\":9246:9294   */\n      swap2\n      swap1\n      pop\n      jump\t// out\n        /* \"#utility.yul\":9300:9426   */\n    tag_285:\n        /* \"#utility.yul\":9337:9344   */\n      0x00\n        /* \"#utility.yul\":9377:9419   */\n      0xffffffffffffffffffffffffffffffffffffffff\n        /* \"#utility.yul\":9370:9375   */\n      dup3\n        /* \"#utility.yul\":9366:9420   */\n      and\n        /* \"#utility.yul\":9355:9420   */\n      swap1\n      pop\n        /* \"#utility.yul\":9345:9426   */\n      swap2\n      swap1\n      pop\n      jump\t// out\n        /* \"#utility.yul\":9432:9509   */\n    tag_237:\n        /* \"#utility.yul\":9469:9476   */\n      0x00\n        /* \"#utility.yul\":9498:9503   */\n      dup2\n        /* \"#utility.yul\":9487:9503   */\n      swap1\n      pop\n        /* \"#utility.yul\":9477:9509   */\n      swap2\n      swap1\n      pop\n      jump\t// out\n        /* \"#utility.yul\":9515:9669   */\n    tag_163:\n        /* \"#utility.yul\":9599:9605   */\n      dup3\n        /* \"#utility.yul\":9594:9597   */\n      dup2\n        /* \"#utility.yul\":9589:9592   */\n      dup4\n        /* \"#utility.yul\":9576:9606   */\n      calldatacopy\n        /* \"#utility.yul\":9661:9662   */\n      0x00\n        /* \"#utility.yul\":9652:9658   */\n      dup4\n        /* \"#utility.yul\":9647:9650   */\n      dup4\n        /* \"#utility.yul\":9643:9659   */\n      add\n        /* \"#utility.yul\":9636:9663   */\n      mstore\n        /* \"#utility.yul\":9566:9669   */\n      pop\n      pop\n      pop\n      jump\t// out\n        /* \"#utility.yul\":9675:9982   */\n    tag_216:\n        /* \"#utility.yul\":9743:9744   */\n      0x00\n        /* \"#utility.yul\":9753:9866   */\n    tag_291:\n        /* \"#utility.yul\":9767:9773   */\n      dup4\n        /* \"#utility.yul\":9764:9765   */\n      dup2\n        /* \"#utility.yul\":9761:9774   */\n      lt\n        /* \"#utility.yul\":9753:9866   */\n      iszero\n      tag_293\n      jumpi\n        /* \"#utility.yul\":9852:9853   */\n      dup1\n        /* \"#utility.yul\":9847:9850   */\n      dup3\n        /* \"#utility.yul\":9843:9854   */\n      add\n        /* \"#utility.yul\":9837:9855   */\n      mload\n        /* \"#utility.yul\":9833:9834   */\n      dup2\n        /* \"#utility.yul\":9828:9831   */\n      dup5\n        /* \"#utility.yul\":9824:9835   */\n      add\n        /* \"#utility.yul\":9817:9856   */\n      mstore\n        /* \"#utility.yul\":9789:9791   */\n      0x20\n        /* \"#utility.yul\":9786:9787   */\n      dup2\n        /* \"#utility.yul\":9782:9792   */\n      add\n        /* \"#utility.yul\":9777:9792   */\n      swap1\n      pop\n        /* \"#utility.yul\":9753:9866   */\n      jump(tag_291)\n    tag_293:\n        /* \"#utility.yul\":9884:9890   */\n      dup4\n        /* \"#utility.yul\":9881:9882   */\n      dup2\n        /* \"#utility.yul\":9878:9891   */\n      gt\n        /* \"#utility.yul\":9875:9877   */\n      iszero\n      tag_294\n      jumpi\n        /* \"#utility.yul\":9964:9965   */\n      0x00\n        /* \"#utility.yul\":9955:9961   */\n      dup5\n        /* \"#utility.yul\":9950:9953   */\n      dup5\n        /* \"#utility.yul\":9946:9962   */\n      add\n        /* \"#utility.yul\":9939:9966   */\n      mstore\n        /* \"#utility.yul\":9875:9877   */\n    tag_294:\n        /* \"#utility.yul\":9724:9982   */\n      pop\n      pop\n      pop\n      pop\n      jump\t// out\n        /* \"#utility.yul\":9988:10308   */\n    tag_78:\n        /* \"#utility.yul\":10032:10038   */\n      0x00\n        /* \"#utility.yul\":10069:10070   */\n      0x02\n        /* \"#utility.yul\":10063:10067   */\n      dup3\n        /* \"#utility.yul\":10059:10071   */\n      div\n        /* \"#utility.yul\":10049:10071   */\n      swap1\n      pop\n        /* \"#utility.yul\":10116:10117   */\n      0x01\n        /* \"#utility.yul\":10110:10114   */\n      dup3\n        /* \"#utility.yul\":10106:10118   */\n      and\n        /* \"#utility.yul\":10137:10155   */\n      dup1\n        /* \"#utility.yul\":10127:10129   */\n      tag_296\n      jumpi\n        /* \"#utility.yul\":10193:10197   */\n      0x7f\n        /* \"#utility.yul\":10185:10191   */\n      dup3\n        /* \"#utility.yul\":10181:10198   */\n      and\n        /* \"#utility.yul\":10171:10198   */\n      swap2\n      pop\n        /* \"#utility.yul\":10127:10129   */\n    tag_296:\n        /* \"#utility.yul\":10255:10257   */\n      0x20\n        /* \"#utility.yul\":10247:10253   */\n      dup3\n        /* \"#utility.yul\":10244:10258   */\n      lt\n        /* \"#utility.yul\":10224:10242   */\n      dup2\n        /* \"#utility.yul\":10221:10259   */\n      eq\n        /* \"#utility.yul\":10218:10220   */\n      iszero\n      tag_297\n      jumpi\n        /* \"#utility.yul\":10274:10292   */\n      tag_298\n      tag_299\n      jump\t// in\n    tag_298:\n        /* \"#utility.yul\":10218:10220   */\n    tag_297:\n        /* \"#utility.yul\":10039:10308   */\n      pop\n      swap2\n      swap1\n      pop\n      jump\t// out\n        /* \"#utility.yul\":10314:10595   */\n    tag_262:\n        /* \"#utility.yul\":10397:10424   */\n      tag_301\n        /* \"#utility.yul\":10419:10423   */\n      dup3\n        /* \"#utility.yul\":10397:10424   */\n      tag_218\n      jump\t// in\n    tag_301:\n        /* \"#utility.yul\":10389:10395   */\n      dup2\n        /* \"#utility.yul\":10385:10425   */\n      add\n        /* \"#utility.yul\":10527:10533   */\n      dup2\n        /* \"#utility.yul\":10515:10525   */\n      dup2\n        /* \"#utility.yul\":10512:10534   */\n      lt\n        /* \"#utility.yul\":10491:10509   */\n      0xffffffffffffffff\n        /* \"#utility.yul\":10479:10489   */\n      dup3\n        /* \"#utility.yul\":10476:10510   */\n      gt\n        /* \"#utility.yul\":10473:10535   */\n      or\n        /* \"#utility.yul\":10470:10472   */\n      iszero\n      tag_302\n      jumpi\n        /* \"#utility.yul\":10538:10556   */\n      tag_303\n      tag_267\n      jump\t// in\n    tag_303:\n        /* \"#utility.yul\":10470:10472   */\n    tag_302:\n        /* \"#utility.yul\":10578:10588   */\n      dup1\n        /* \"#utility.yul\":10574:10576   */\n      0x40\n        /* \"#utility.yul\":10567:10589   */\n      mstore\n        /* \"#utility.yul\":10357:10595   */\n      pop\n      pop\n      pop\n      jump\t// out\n        /* \"#utility.yul\":10601:10834   */\n    tag_85:\n        /* \"#utility.yul\":10640:10643   */\n      0x00\n        /* \"#utility.yul\":10663:10687   */\n      tag_305\n        /* \"#utility.yul\":10681:10686   */\n      dup3\n        /* \"#utility.yul\":10663:10687   */\n      tag_237\n      jump\t// in\n    tag_305:\n        /* \"#utility.yul\":10654:10687   */\n      swap2\n      pop\n        /* \"#utility.yul\":10709:10775   */\n      0xffffffffffffffffffffffffffffffffffffffffffffffffffffffffffffffff\n        /* \"#utility.yul\":10702:10707   */\n      dup3\n        /* \"#utility.yul\":10699:10776   */\n      eq\n        /* \"#utility.yul\":10696:10698   */\n      iszero\n      tag_306\n      jumpi\n        /* \"#utility.yul\":10779:10797   */\n      tag_307\n      tag_276\n      jump\t// in\n    tag_307:\n        /* \"#utility.yul\":10696:10698   */\n    tag_306:\n        /* \"#utility.yul\":10826:10827   */\n      0x01\n        /* \"#utility.yul\":10819:10824   */\n      dup3\n        /* \"#utility.yul\":10815:10828   */\n      add\n        /* \"#utility.yul\":10808:10828   */\n      swap1\n      pop\n        /* \"#utility.yul\":10644:10834   */\n      swap2\n      swap1\n      pop\n      jump\t// out\n        /* \"#utility.yul\":10840:11020   */\n    tag_276:\n        /* \"#utility.yul\":10888:10965   */\n      0x4e487b7100000000000000000000000000000000000000000000000000000000\n        /* \"#utility.yul\":10885:10886   */\n      0x00\n        /* \"#utility.yul\":10878:10966   */\n      mstore\n        /* \"#utility.yul\":10985:10989   */\n      0x11\n        /* \"#utility.yul\":10982:10983   */\n      0x04\n        /* \"#utility.yul\":10975:10990   */\n      mstore\n        /* \"#utility.yul\":11009:11013   */\n      0x24\n        /* \"#utility.yul\":11006:11007   */\n      0x00\n        /* \"#utility.yul\":10999:11014   */\n      revert\n        /* \"#utility.yul\":11026:11206   */\n    tag_282:\n        /* \"#utility.yul\":11074:11151   */\n      0x4e487b7100000000000000000000000000000000000000000000000000000000\n        /* \"#utility.yul\":11071:11072   */\n      0x00\n        /* \"#utility.yul\":11064:11152   */\n      mstore\n        /* \"#utility.yul\":11171:11175   */\n      0x12\n        /* \"#utility.yul\":11168:11169   */\n      0x04\n        /* \"#utility.yul\":11161:11176   */\n      mstore\n        /* \"#utility.yul\":11195:11199   */\n      0x24\n        /* \"#utility.yul\":11192:11193   */\n      0x00\n        /* \"#utility.yul\":11185:11200   */\n      revert\n        /* \"#utility.yul\":11212:11392   */\n    tag_299:\n        /* \"#utility.yul\":11260:11337   */\n      0x4e487b7100000000000000000000000000000000000000000000000000000000\n        /* \"#utility.yul\":11257:11258   */\n      0x00\n        /* \"#utility.yul\":11250:11338   */\n      mstore\n        /* \"#utility.yul\":11357:11361   */\n      0x22\n        /* \"#utility.yul\":11354:11355   */\n      0x04\n        /* \"#utility.yul\":11347:11362   */\n      mstore\n        /* \"#utility.yul\":11381:11385   */\n      0x24\n        /* \"#utility.yul\":11378:11379   */\n      0x00\n        /* \"#utility.yul\":11371:11386   */\n      revert\n        /* \"#utility.yul\":11398:11578   */\n    tag_267:\n        /* \"#utility.yul\":11446:11523   */\n      0x4e487b7100000000000000000000000000000000000000000000000000000000\n        /* \"#utility.yul\":11443:11444   */\n      0x00\n        /* \"#utility.yul\":11436:11524   */\n      mstore\n        /* \"#utility.yul\":11543:11547   */\n      0x41\n        /* \"#utility.yul\":11540:11541   */\n      0x04\n        /* \"#utility.yul\":11533:11548   */\n      mstore\n        /* \"#utility.yul\":11567:11571   */\n      0x24\n        /* \"#utility.yul\":11564:11565   */\n      0x00\n        /* \"#utility.yul\":11557:11572   */\n      revert\n        /* \"#utility.yul\":11584:11701   */\n    tag_172:\n        /* \"#utility.yul\":11693:11694   */\n      0x00\n        /* \"#utility.yul\":11690:11691   */\n      dup1\n        /* \"#utility.yul\":11683:11695   */\n      revert\n        /* \"#utility.yul\":11707:11824   */\n    tag_161:\n        /* \"#utility.yul\":11816:11817   */\n      0x00\n        /* \"#utility.yul\":11813:11814   */\n      dup1\n        /* \"#utility.yul\":11806:11818   */\n      revert\n        /* \"#utility.yul\":11830:11947   */\n    tag_189:\n        /* \"#utility.yul\":11939:11940   */\n      0x00\n        /* \"#utility.yul\":11936:11937   */\n      dup1\n        /* \"#utility.yul\":11929:11941   */\n      revert\n        /* \"#utility.yul\":11953:12070   */\n    tag_181:\n        /* \"#utility.yul\":12062:12063   */\n      0x00\n        /* \"#utility.yul\":12059:12060   */\n      dup1\n        /* \"#utility.yul\":12052:12064   */\n      revert\n        /* \"#utility.yul\":12076:12178   */\n    tag_218:\n        /* \"#utility.yul\":12117:12123   */\n      0x00\n        /* \"#utility.yul\":12168:12170   */\n      0x1f\n        /* \"#utility.yul\":12164:12171   */\n      not\n        /* \"#utility.yul\":12159:12161   */\n      0x1f\n        /* \"#utility.yul\":12152:12157   */\n      dup4\n        /* \"#utility.yul\":12148:12162   */\n      add\n        /* \"#utility.yul\":12144:12172   */\n      and\n        /* \"#utility.yul\":12134:12172   */\n      swap1\n      pop\n        /* \"#utility.yul\":12124:12178   */\n      swap2\n      swap1\n      pop\n      jump\t// out\n        /* \"#utility.yul\":12184:12353   */\n    tag_223:\n        /* \"#utility.yul\":12324:12345   */\n      0x43616e206f6e6c7920766f7465206f6e63652e00000000000000000000000000\n        /* \"#utility.yul\":12320:12321   */\n      0x00\n        /* \"#utility.yul\":12312:12318   */\n      dup3\n        /* \"#utility.yul\":12308:12322   */\n      add\n        /* \"#utility.yul\":12301:12346   */\n      mstore\n        /* \"#utility.yul\":12290:12353   */\n      pop\n      jump\t// out\n        /* \"#utility.yul\":12359:12581   */\n    tag_228:\n        /* \"#utility.yul\":12499:12533   */\n      0x43616e206f6e6c7920626520657865637574656420627920746865206d616e61\n        /* \"#utility.yul\":12495:12496   */\n      0x00\n        /* \"#utility.yul\":12487:12493   */\n      dup3\n        /* \"#utility.yul\":12483:12497   */\n      add\n        /* \"#utility.yul\":12476:12534   */\n      mstore\n        /* \"#utility.yul\":12568:12573   */\n      0x6765720000000000000000000000000000000000000000000000000000000000\n        /* \"#utility.yul\":12563:12565   */\n      0x20\n        /* \"#utility.yul\":12555:12561   */\n      dup3\n        /* \"#utility.yul\":12551:12566   */\n      add\n        /* \"#utility.yul\":12544:12574   */\n      mstore\n        /* \"#utility.yul\":12465:12581   */\n      pop\n      jump\t// out\n        /* \"#utility.yul\":12587:12809   */\n    tag_233:\n        /* \"#utility.yul\":12727:12761   */\n      0x43616e20766f7465206f6e6c79207768696c6520766f74696e67206973206f70\n        /* \"#utility.yul\":12723:12724   */\n      0x00\n        /* \"#utility.yul\":12715:12721   */\n      dup3\n        /* \"#utility.yul\":12711:12725   */\n      add\n        /* \"#utility.yul\":12704:12762   */\n      mstore\n        /* \"#utility.yul\":12796:12801   */\n      0x656e2e0000000000000000000000000000000000000000000000000000000000\n        /* \"#utility.yul\":12791:12793   */\n      0x20\n        /* \"#utility.yul\":12783:12789   */\n      dup3\n        /* \"#utility.yul\":12779:12794   */\n      add\n        /* \"#utility.yul\":12772:12802   */\n      mstore\n        /* \"#utility.yul\":12693:12809   */\n      pop\n      jump\t// out\n        /* \"#utility.yul\":12815:12937   */\n    tag_167:\n        /* \"#utility.yul\":12888:12912   */\n      tag_321\n        /* \"#utility.yul\":12906:12911   */\n      dup2\n        /* \"#utility.yul\":12888:12912   */\n      tag_204\n      jump\t// in\n    tag_321:\n        /* \"#utility.yul\":12881:12886   */\n      dup2\n        /* \"#utility.yul\":12878:12913   */\n      eq\n        /* \"#utility.yul\":12868:12870   */\n      tag_322\n      jumpi\n        /* \"#utility.yul\":12927:12928   */\n      0x00\n        /* \"#utility.yul\":12924:12925   */\n      dup1\n        /* \"#utility.yul\":12917:12929   */\n      revert\n        /* \"#utility.yul\":12868:12870   */\n    tag_322:\n        /* \"#utility.yul\":12858:12937   */\n      pop\n      jump\t// out\n        /* \"#utility.yul\":12943:13065   */\n    tag_177:\n        /* \"#utility.yul\":13016:13040   */\n      tag_324\n        /* \"#utility.yul\":13034:13039   */\n      dup2\n        /* \"#utility.yul\":13016:13040   */\n      tag_237\n      jump\t// in\n    tag_324:\n        /* \"#utility.yul\":13009:13014   */\n      dup2\n        /* \"#utility.yul\":13006:13041   */\n      eq\n        /* \"#utility.yul\":12996:12998   */\n      tag_325\n      jumpi\n        /* \"#utility.yul\":13055:13056   */\n      0x00\n        /* \"#utility.yul\":13052:13053   */\n      dup1\n        /* \"#utility.yul\":13045:13057   */\n      revert\n        /* \"#utility.yul\":12996:12998   */\n    tag_325:\n        /* \"#utility.yul\":12986:13065   */\n      pop\n      jump\t// out\n\n    auxdata: 0xa26469706673582212206bb18833467b4eefa93088f6b16c90d26d218aeffe2fb9bf8ed79c02fdcf219764736f6c63430008050033\n}\n",
				"bytecode": {
					"linkReferences": {},
					"object": "608060405260006002556000600355600060045560405180602001604052806000815250600690805190602001906200003a929190620000ab565b506001600960006101000a81548160ff0219169083151502179055503480156200006357600080fd5b5033600560006101000a81548173ffffffffffffffffffffffffffffffffffffffff021916908373ffffffffffffffffffffffffffffffffffffffff160217905550620001c0565b828054620000b9906200015b565b90600052602060002090601f016020900481019282620000dd576000855562000129565b82601f10620000f857805160ff191683800117855562000129565b8280016001018555821562000129579182015b82811115620001285782518255916020019190600101906200010b565b5b5090506200013891906200013c565b5090565b5b80821115620001575760008160009055506001016200013d565b5090565b600060028204905060018216806200017457607f821691505b602082108114156200018b576200018a62000191565b5b50919050565b7f4e487b7100000000000000000000000000000000000000000000000000000000600052602260045260246000fd5b61148980620001d06000396000f3fe608060405234801561001057600080fd5b50600436106100b45760003560e01c80636d77bd3e116100715780636d77bd3e146101b7578063788d3851146101e7578063a3bef4d714610205578063ad5461d814610223578063b798867f14610253578063c1c16efc14610271576100b4565b8063124258c6146100b95780631ddabf7a146100e95780633b9f708d1461011a57806347098f361461014a578063481c6a75146101685780635df8133014610186575b600080fd5b6100d360048036038101906100ce9190610e26565b61028f565b6040516100e09190610f66565b60405180910390f35b61010360048036038101906100fe9190610d54565b61055d565b604051610111929190610fa3565b60405180910390f35b610134600480360381019061012f9190610d81565b610616565b6040516101419190611033565b60405180910390f35b61015261076e565b60405161015f9190611033565b60405180910390f35b610170610774565b60405161017d9190610f22565b60405180910390f35b6101a0600480360381019061019b9190610e26565b61079a565b6040516101ae929190610f3d565b60405180910390f35b6101d160048036038101906101cc9190610ddd565b6107de565b6040516101de9190611033565b60405180910390f35b6101ef6108bb565b6040516101fc9190610f66565b60405180910390f35b61020d6108ce565b60405161021a9190611033565b60405180910390f35b61023d60048036038101906102389190610e26565b6108d4565b60405161024a9190610f81565b60405180910390f35b61025b610974565b6040516102689190611033565b60405180910390f35b61027961097a565b6040516102869190610f81565b60405180910390f35b600060011515600960009054906101000a900460ff161515146102e7576040517f08c379a00000000000000000000000000000000000000000000000000000000081526004016102de90611013565b60405180910390fd5b3360001515600160008373ffffffffffffffffffffffffffffffffffffffff1673ffffffffffffffffffffffffffffffffffffffff16815260200190815260200160002060010160009054906101000a900460ff1615151461037e576040517f08c379a000000000000000000000000000000000000000000000000000000000815260040161037590610fd3565b60405180910390fd5b600091506000600160003373ffffffffffffffffffffffffffffffffffffffff1673ffffffffffffffffffffffffffffffffffffffff16815260200190815260200160002060000180546103d1906111d1565b90501461052b57600080600085815260200190815260200160002080546103f7906111d1565b90501461052a576001915060018060003373ffffffffffffffffffffffffffffffffffffffff1673ffffffffffffffffffffffffffffffffffffffff16815260200190815260200160002060010160006101000a81548160ff021916908315150217905550610464610b3e565b33816000019073ffffffffffffffffffffffffffffffffffffffff16908173ffffffffffffffffffffffffffffffffffffffff168152505083816020018181525050600460008154809291906104b990611234565b91905055508060076000600454815260200190815260200160002060008201518160000160006101000a81548173ffffffffffffffffffffffffffffffffffffffff021916908373ffffffffffffffffffffffffffffffffffffffff16021790555060208201518160010155905050505b5b6001600260035461053c9190611116565b61054691906110c0565b6004541061055757610556610a08565b5b50919050565b6001602052806000526040600020600091509050806000018054610580906111d1565b80601f01602080910402602001604051908101604052809291908181526020018280546105ac906111d1565b80156105f95780601f106105ce576101008083540402835291602001916105f9565b820191906000526020600020905b8154815290600101906020018083116105dc57829003601f168201915b5050505050908060010160009054906101000a900460ff16905082565b6000600560009054906101000a900473ffffffffffffffffffffffffffffffffffffffff1673ffffffffffffffffffffffffffffffffffffffff163373ffffffffffffffffffffffffffffffffffffffff16146106a8576040517f08c379a000000000000000000000000000000000000000000000000000000000815260040161069f90610ff3565b60405180910390fd5b6106b0610b6e565b828160000181905250600081602001901515908115158152505080600160008673ffffffffffffffffffffffffffffffffffffffff1673ffffffffffffffffffffffffffffffffffffffff1681526020019081526020016000206000820151816000019080519060200190610726929190610b8a565b5060208201518160010160006101000a81548160ff0219169083151502179055509050506003600081548092919061075d90611234565b919050555060035491505092915050565b60035481565b600560009054906101000a900473ffffffffffffffffffffffffffffffffffffffff1681565b60076020528060005260406000206000915090508060000160009054906101000a900473ffffffffffffffffffffffffffffffffffffffff16908060010154905082565b6000600560009054906101000a900473ffffffffffffffffffffffffffffffffffffffff1673ffffffffffffffffffffffffffffffffffffffff163373ffffffffffffffffffffffffffffffffffffffff1614610870576040517f08c379a000000000000000000000000000000000000000000000000000000000815260040161086790610ff3565b60405180910390fd5b6002600081548092919061088390611234565b919050555081600080600254815260200190815260200160002090805190602001906108b0929190610b8a565b506002549050919050565b600960009054906101000a900460ff1681565b60045481565b600060205280600052604060002060009150905080546108f3906111d1565b80601f016020809104026020016040519081016040528092919081815260200182805461091f906111d1565b801561096c5780601f106109415761010080835404028352916020019161096c565b820191906000526020600020905b81548152906001019060200180831161094f57829003601f168201915b505050505081565b60025481565b60068054610987906111d1565b80601f01602080910402602001604051908101604052809291908181526020018280546109b3906111d1565b8015610a005780601f106109d557610100808354040283529160200191610a00565b820191906000526020600020905b8154815290600101906020018083116109e357829003601f168201915b505050505081565b6000806000600190505b6004548111610af25760006001905060006008600060076000868152602001908152602001600020600101548152602001908152602001600020541115610a8b5760086000600760008581526020019081526020016000206001015481526020019081526020016000205481610a8891906110c0565b90505b8060086000600760008681526020019081526020016000206001015481526020019081526020016000208190555083811115610ade57809350600760008381526020019081526020016000206001015492505b508080610aea90611234565b915050610a12565b506000808281526020019081526020016000206006908054610b13906111d1565b610b1e929190610c10565b506000600960006101000a81548160ff0219169083151502179055505050565b6040518060400160405280600073ffffffffffffffffffffffffffffffffffffffff168152602001600081525090565b6040518060400160405280606081526020016000151581525090565b828054610b96906111d1565b90600052602060002090601f016020900481019282610bb85760008555610bff565b82601f10610bd157805160ff1916838001178555610bff565b82800160010185558215610bff579182015b82811115610bfe578251825591602001919060010190610be3565b5b509050610c0c9190610c9d565b5090565b828054610c1c906111d1565b90600052602060002090601f016020900481019282610c3e5760008555610c8c565b82601f10610c4f5780548555610c8c565b82800160010185558215610c8c57600052602060002091601f016020900482015b82811115610c8b578254825591600101919060010190610c70565b5b509050610c999190610c9d565b5090565b5b80821115610cb6576000816000905550600101610c9e565b5090565b6000610ccd610cc884611073565b61104e565b905082815260208101848484011115610ce957610ce861133e565b5b610cf484828561118f565b509392505050565b600081359050610d0b81611425565b92915050565b600082601f830112610d2657610d25611339565b5b8135610d36848260208601610cba565b91505092915050565b600081359050610d4e8161143c565b92915050565b600060208284031215610d6a57610d69611348565b5b6000610d7884828501610cfc565b91505092915050565b60008060408385031215610d9857610d97611348565b5b6000610da685828601610cfc565b925050602083013567ffffffffffffffff811115610dc757610dc6611343565b5b610dd385828601610d11565b9150509250929050565b600060208284031215610df357610df2611348565b5b600082013567ffffffffffffffff811115610e1157610e10611343565b5b610e1d84828501610d11565b91505092915050565b600060208284031215610e3c57610e3b611348565b5b6000610e4a84828501610d3f565b91505092915050565b610e5c81611147565b82525050565b610e6b81611159565b82525050565b6000610e7c826110a4565b610e8681856110af565b9350610e9681856020860161119e565b610e9f8161134d565b840191505092915050565b6000610eb76013836110af565b9150610ec28261135e565b602082019050919050565b6000610eda6023836110af565b9150610ee582611387565b604082019050919050565b6000610efd6023836110af565b9150610f08826113d6565b604082019050919050565b610f1c81611185565b82525050565b6000602082019050610f376000830184610e53565b92915050565b6000604082019050610f526000830185610e53565b610f5f6020830184610f13565b9392505050565b6000602082019050610f7b6000830184610e62565b92915050565b60006020820190508181036000830152610f9b8184610e71565b905092915050565b60006040820190508181036000830152610fbd8185610e71565b9050610fcc6020830184610e62565b9392505050565b60006020820190508181036000830152610fec81610eaa565b9050919050565b6000602082019050818103600083015261100c81610ecd565b9050919050565b6000602082019050818103600083015261102c81610ef0565b9050919050565b60006020820190506110486000830184610f13565b92915050565b6000611058611069565b90506110648282611203565b919050565b6000604051905090565b600067ffffffffffffffff82111561108e5761108d61130a565b5b6110978261134d565b9050602081019050919050565b600081519050919050565b600082825260208201905092915050565b60006110cb82611185565b91506110d683611185565b9250827fffffffffffffffffffffffffffffffffffffffffffffffffffffffffffffffff0382111561110b5761110a61127d565b5b828201905092915050565b600061112182611185565b915061112c83611185565b92508261113c5761113b6112ac565b5b828204905092915050565b600061115282611165565b9050919050565b60008115159050919050565b600073ffffffffffffffffffffffffffffffffffffffff82169050919050565b6000819050919050565b82818337600083830152505050565b60005b838110156111bc5780820151818401526020810190506111a1565b838111156111cb576000848401525b50505050565b600060028204905060018216806111e957607f821691505b602082108114156111fd576111fc6112db565b5b50919050565b61120c8261134d565b810181811067ffffffffffffffff8211171561122b5761122a61130a565b5b80604052505050565b600061123f82611185565b91507fffffffffffffffffffffffffffffffffffffffffffffffffffffffffffffffff8214156112725761127161127d565b5b600182019050919050565b7f4e487b7100000000000000000000000000000000000000000000000000000000600052601160045260246000fd5b7f4e487b7100000000000000000000000000000000000000000000000000000000600052601260045260246000fd5b7f4e487b7100000000000000000000000000000000000000000000000000000000600052602260045260246000fd5b7f4e487b7100000000000000000000000000000000000000000000000000000000600052604160045260246000fd5b600080fd5b600080fd5b600080fd5b600080fd5b6000601f19601f8301169050919050565b7f43616e206f6e6c7920766f7465206f6e63652e00000000000000000000000000600082015250565b7f43616e206f6e6c7920626520657865637574656420627920746865206d616e6160008201527f6765720000000000000000000000000000000000000000000000000000000000602082015250565b7f43616e20766f7465206f6e6c79207768696c6520766f74696e67206973206f7060008201527f656e2e0000000000000000000000000000000000000000000000000000000000602082015250565b61142e81611147565b811461143957600080fd5b50565b61144581611185565b811461145057600080fd5b5056fea26469706673582212206bb18833467b4eefa93088f6b16c90d26d218aeffe2fb9bf8ed79c02fdcf219764736f6c63430008050033",
					"opcodes": "PUSH1 0x80 PUSH1 0x40 MSTORE PUSH1 0x0 PUSH1 0x2 SSTORE PUSH1 0x0 PUSH1 0x3 SSTORE PUSH1 0x0 PUSH1 0x4 SSTORE PUSH1 0x40 MLOAD DUP1 PUSH1 0x20 ADD PUSH1 0x40 MSTORE DUP1 PUSH1 0x0 DUP2 MSTORE POP PUSH1 0x6 SWAP1 DUP1 MLOAD SWAP1 PUSH1 0x20 ADD SWAP1 PUSH3 0x3A SWAP3 SWAP2 SWAP1 PUSH3 0xAB JUMP JUMPDEST POP PUSH1 0x1 PUSH1 0x9 PUSH1 0x0 PUSH2 0x100 EXP DUP2 SLOAD DUP2 PUSH1 0xFF MUL NOT AND SWAP1 DUP4 ISZERO ISZERO MUL OR SWAP1 SSTORE POP CALLVALUE DUP1 ISZERO PUSH3 0x63 JUMPI PUSH1 0x0 DUP1 REVERT JUMPDEST POP CALLER PUSH1 0x5 PUSH1 0x0 PUSH2 0x100 EXP DUP2 SLOAD DUP2 PUSH20 0xFFFFFFFFFFFFFFFFFFFFFFFFFFFFFFFFFFFFFFFF MUL NOT AND SWAP1 DUP4 PUSH20 0xFFFFFFFFFFFFFFFFFFFFFFFFFFFFFFFFFFFFFFFF AND MUL OR SWAP1 SSTORE POP PUSH3 0x1C0 JUMP JUMPDEST DUP3 DUP1 SLOAD PUSH3 0xB9 SWAP1 PUSH3 0x15B JUMP JUMPDEST SWAP1 PUSH1 0x0 MSTORE PUSH1 0x20 PUSH1 0x0 KECCAK256 SWAP1 PUSH1 0x1F ADD PUSH1 0x20 SWAP1 DIV DUP2 ADD SWAP3 DUP3 PUSH3 0xDD JUMPI PUSH1 0x0 DUP6 SSTORE PUSH3 0x129 JUMP JUMPDEST DUP3 PUSH1 0x1F LT PUSH3 0xF8 JUMPI DUP1 MLOAD PUSH1 0xFF NOT AND DUP4 DUP1 ADD OR DUP6 SSTORE PUSH3 0x129 JUMP JUMPDEST DUP3 DUP1 ADD PUSH1 0x1 ADD DUP6 SSTORE DUP3 ISZERO PUSH3 0x129 JUMPI SWAP2 DUP3 ADD JUMPDEST DUP3 DUP2 GT ISZERO PUSH3 0x128 JUMPI DUP3 MLOAD DUP3 SSTORE SWAP2 PUSH1 0x20 ADD SWAP2 SWAP1 PUSH1 0x1 ADD SWAP1 PUSH3 0x10B JUMP JUMPDEST JUMPDEST POP SWAP1 POP PUSH3 0x138 SWAP2 SWAP1 PUSH3 0x13C JUMP JUMPDEST POP SWAP1 JUMP JUMPDEST JUMPDEST DUP1 DUP3 GT ISZERO PUSH3 0x157 JUMPI PUSH1 0x0 DUP2 PUSH1 0x0 SWAP1 SSTORE POP PUSH1 0x1 ADD PUSH3 0x13D JUMP JUMPDEST POP SWAP1 JUMP JUMPDEST PUSH1 0x0 PUSH1 0x2 DUP3 DIV SWAP1 POP PUSH1 0x1 DUP3 AND DUP1 PUSH3 0x174 JUMPI PUSH1 0x7F DUP3 AND SWAP2 POP JUMPDEST PUSH1 0x20 DUP3 LT DUP2 EQ ISZERO PUSH3 0x18B JUMPI PUSH3 0x18A PUSH3 0x191 JUMP JUMPDEST JUMPDEST POP SWAP2 SWAP1 POP JUMP JUMPDEST PUSH32 0x4E487B7100000000000000000000000000000000000000000000000000000000 PUSH1 0x0 MSTORE PUSH1 0x22 PUSH1 0x4 MSTORE PUSH1 0x24 PUSH1 0x0 REVERT JUMPDEST PUSH2 0x1489 DUP1 PUSH3 0x1D0 PUSH1 0x0 CODECOPY PUSH1 0x0 RETURN INVALID PUSH1 0x80 PUSH1 0x40 MSTORE CALLVALUE DUP1 ISZERO PUSH2 0x10 JUMPI PUSH1 0x0 DUP1 REVERT JUMPDEST POP PUSH1 0x4 CALLDATASIZE LT PUSH2 0xB4 JUMPI PUSH1 0x0 CALLDATALOAD PUSH1 0xE0 SHR DUP1 PUSH4 0x6D77BD3E GT PUSH2 0x71 JUMPI DUP1 PUSH4 0x6D77BD3E EQ PUSH2 0x1B7 JUMPI DUP1 PUSH4 0x788D3851 EQ PUSH2 0x1E7 JUMPI DUP1 PUSH4 0xA3BEF4D7 EQ PUSH2 0x205 JUMPI DUP1 PUSH4 0xAD5461D8 EQ PUSH2 0x223 JUMPI DUP1 PUSH4 0xB798867F EQ PUSH2 0x253 JUMPI DUP1 PUSH4 0xC1C16EFC EQ PUSH2 0x271 JUMPI PUSH2 0xB4 JUMP JUMPDEST DUP1 PUSH4 0x124258C6 EQ PUSH2 0xB9 JUMPI DUP1 PUSH4 0x1DDABF7A EQ PUSH2 0xE9 JUMPI DUP1 PUSH4 0x3B9F708D EQ PUSH2 0x11A JUMPI DUP1 PUSH4 0x47098F36 EQ PUSH2 0x14A JUMPI DUP1 PUSH4 0x481C6A75 EQ PUSH2 0x168 JUMPI DUP1 PUSH4 0x5DF81330 EQ PUSH2 0x186 JUMPI JUMPDEST PUSH1 0x0 DUP1 REVERT JUMPDEST PUSH2 0xD3 PUSH1 0x4 DUP1 CALLDATASIZE SUB DUP2 ADD SWAP1 PUSH2 0xCE SWAP2 SWAP1 PUSH2 0xE26 JUMP JUMPDEST PUSH2 0x28F JUMP JUMPDEST PUSH1 0x40 MLOAD PUSH2 0xE0 SWAP2 SWAP1 PUSH2 0xF66 JUMP JUMPDEST PUSH1 0x40 MLOAD DUP1 SWAP2 SUB SWAP1 RETURN JUMPDEST PUSH2 0x103 PUSH1 0x4 DUP1 CALLDATASIZE SUB DUP2 ADD SWAP1 PUSH2 0xFE SWAP2 SWAP1 PUSH2 0xD54 JUMP JUMPDEST PUSH2 0x55D JUMP JUMPDEST PUSH1 0x40 MLOAD PUSH2 0x111 SWAP3 SWAP2 SWAP1 PUSH2 0xFA3 JUMP JUMPDEST PUSH1 0x40 MLOAD DUP1 SWAP2 SUB SWAP1 RETURN JUMPDEST PUSH2 0x134 PUSH1 0x4 DUP1 CALLDATASIZE SUB DUP2 ADD SWAP1 PUSH2 0x12F SWAP2 SWAP1 PUSH2 0xD81 JUMP JUMPDEST PUSH2 0x616 JUMP JUMPDEST PUSH1 0x40 MLOAD PUSH2 0x141 SWAP2 SWAP1 PUSH2 0x1033 JUMP JUMPDEST PUSH1 0x40 MLOAD DUP1 SWAP2 SUB SWAP1 RETURN JUMPDEST PUSH2 0x152 PUSH2 0x76E JUMP JUMPDEST PUSH1 0x40 MLOAD PUSH2 0x15F SWAP2 SWAP1 PUSH2 0x1033 JUMP JUMPDEST PUSH1 0x40 MLOAD DUP1 SWAP2 SUB SWAP1 RETURN JUMPDEST PUSH2 0x170 PUSH2 0x774 JUMP JUMPDEST PUSH1 0x40 MLOAD PUSH2 0x17D SWAP2 SWAP1 PUSH2 0xF22 JUMP JUMPDEST PUSH1 0x40 MLOAD DUP1 SWAP2 SUB SWAP1 RETURN JUMPDEST PUSH2 0x1A0 PUSH1 0x4 DUP1 CALLDATASIZE SUB DUP2 ADD SWAP1 PUSH2 0x19B SWAP2 SWAP1 PUSH2 0xE26 JUMP JUMPDEST PUSH2 0x79A JUMP JUMPDEST PUSH1 0x40 MLOAD PUSH2 0x1AE SWAP3 SWAP2 SWAP1 PUSH2 0xF3D JUMP JUMPDEST PUSH1 0x40 MLOAD DUP1 SWAP2 SUB SWAP1 RETURN JUMPDEST PUSH2 0x1D1 PUSH1 0x4 DUP1 CALLDATASIZE SUB DUP2 ADD SWAP1 PUSH2 0x1CC SWAP2 SWAP1 PUSH2 0xDDD JUMP JUMPDEST PUSH2 0x7DE JUMP JUMPDEST PUSH1 0x40 MLOAD PUSH2 0x1DE SWAP2 SWAP1 PUSH2 0x1033 JUMP JUMPDEST PUSH1 0x40 MLOAD DUP1 SWAP2 SUB SWAP1 RETURN JUMPDEST PUSH2 0x1EF PUSH2 0x8BB JUMP JUMPDEST PUSH1 0x40 MLOAD PUSH2 0x1FC SWAP2 SWAP1 PUSH2 0xF66 JUMP JUMPDEST PUSH1 0x40 MLOAD DUP1 SWAP2 SUB SWAP1 RETURN JUMPDEST PUSH2 0x20D PUSH2 0x8CE JUMP JUMPDEST PUSH1 0x40 MLOAD PUSH2 0x21A SWAP2 SWAP1 PUSH2 0x1033 JUMP JUMPDEST PUSH1 0x40 MLOAD DUP1 SWAP2 SUB SWAP1 RETURN JUMPDEST PUSH2 0x23D PUSH1 0x4 DUP1 CALLDATASIZE SUB DUP2 ADD SWAP1 PUSH2 0x238 SWAP2 SWAP1 PUSH2 0xE26 JUMP JUMPDEST PUSH2 0x8D4 JUMP JUMPDEST PUSH1 0x40 MLOAD PUSH2 0x24A SWAP2 SWAP1 PUSH2 0xF81 JUMP JUMPDEST PUSH1 0x40 MLOAD DUP1 SWAP2 SUB SWAP1 RETURN JUMPDEST PUSH2 0x25B PUSH2 0x974 JUMP JUMPDEST PUSH1 0x40 MLOAD PUSH2 0x268 SWAP2 SWAP1 PUSH2 0x1033 JUMP JUMPDEST PUSH1 0x40 MLOAD DUP1 SWAP2 SUB SWAP1 RETURN JUMPDEST PUSH2 0x279 PUSH2 0x97A JUMP JUMPDEST PUSH1 0x40 MLOAD PUSH2 0x286 SWAP2 SWAP1 PUSH2 0xF81 JUMP JUMPDEST PUSH1 0x40 MLOAD DUP1 SWAP2 SUB SWAP1 RETURN JUMPDEST PUSH1 0x0 PUSH1 0x1 ISZERO ISZERO PUSH1 0x9 PUSH1 0x0 SWAP1 SLOAD SWAP1 PUSH2 0x100 EXP SWAP1 DIV PUSH1 0xFF AND ISZERO ISZERO EQ PUSH2 0x2E7 JUMPI PUSH1 0x40 MLOAD PUSH32 0x8C379A000000000000000000000000000000000000000000000000000000000 DUP2 MSTORE PUSH1 0x4 ADD PUSH2 0x2DE SWAP1 PUSH2 0x1013 JUMP JUMPDEST PUSH1 0x40 MLOAD DUP1 SWAP2 SUB SWAP1 REVERT JUMPDEST CALLER PUSH1 0x0 ISZERO ISZERO PUSH1 0x1 PUSH1 0x0 DUP4 PUSH20 0xFFFFFFFFFFFFFFFFFFFFFFFFFFFFFFFFFFFFFFFF AND PUSH20 0xFFFFFFFFFFFFFFFFFFFFFFFFFFFFFFFFFFFFFFFF AND DUP2 MSTORE PUSH1 0x20 ADD SWAP1 DUP2 MSTORE PUSH1 0x20 ADD PUSH1 0x0 KECCAK256 PUSH1 0x1 ADD PUSH1 0x0 SWAP1 SLOAD SWAP1 PUSH2 0x100 EXP SWAP1 DIV PUSH1 0xFF AND ISZERO ISZERO EQ PUSH2 0x37E JUMPI PUSH1 0x40 MLOAD PUSH32 0x8C379A000000000000000000000000000000000000000000000000000000000 DUP2 MSTORE PUSH1 0x4 ADD PUSH2 0x375 SWAP1 PUSH2 0xFD3 JUMP JUMPDEST PUSH1 0x40 MLOAD DUP1 SWAP2 SUB SWAP1 REVERT JUMPDEST PUSH1 0x0 SWAP2 POP PUSH1 0x0 PUSH1 0x1 PUSH1 0x0 CALLER PUSH20 0xFFFFFFFFFFFFFFFFFFFFFFFFFFFFFFFFFFFFFFFF AND PUSH20 0xFFFFFFFFFFFFFFFFFFFFFFFFFFFFFFFFFFFFFFFF AND DUP2 MSTORE PUSH1 0x20 ADD SWAP1 DUP2 MSTORE PUSH1 0x20 ADD PUSH1 0x0 KECCAK256 PUSH1 0x0 ADD DUP1 SLOAD PUSH2 0x3D1 SWAP1 PUSH2 0x11D1 JUMP JUMPDEST SWAP1 POP EQ PUSH2 0x52B JUMPI PUSH1 0x0 DUP1 PUSH1 0x0 DUP6 DUP2 MSTORE PUSH1 0x20 ADD SWAP1 DUP2 MSTORE PUSH1 0x20 ADD PUSH1 0x0 KECCAK256 DUP1 SLOAD PUSH2 0x3F7 SWAP1 PUSH2 0x11D1 JUMP JUMPDEST SWAP1 POP EQ PUSH2 0x52A JUMPI PUSH1 0x1 SWAP2 POP PUSH1 0x1 DUP1 PUSH1 0x0 CALLER PUSH20 0xFFFFFFFFFFFFFFFFFFFFFFFFFFFFFFFFFFFFFFFF AND PUSH20 0xFFFFFFFFFFFFFFFFFFFFFFFFFFFFFFFFFFFFFFFF AND DUP2 MSTORE PUSH1 0x20 ADD SWAP1 DUP2 MSTORE PUSH1 0x20 ADD PUSH1 0x0 KECCAK256 PUSH1 0x1 ADD PUSH1 0x0 PUSH2 0x100 EXP DUP2 SLOAD DUP2 PUSH1 0xFF MUL NOT AND SWAP1 DUP4 ISZERO ISZERO MUL OR SWAP1 SSTORE POP PUSH2 0x464 PUSH2 0xB3E JUMP JUMPDEST CALLER DUP2 PUSH1 0x0 ADD SWAP1 PUSH20 0xFFFFFFFFFFFFFFFFFFFFFFFFFFFFFFFFFFFFFFFF AND SWAP1 DUP2 PUSH20 0xFFFFFFFFFFFFFFFFFFFFFFFFFFFFFFFFFFFFFFFF AND DUP2 MSTORE POP POP DUP4 DUP2 PUSH1 0x20 ADD DUP2 DUP2 MSTORE POP POP PUSH1 0x4 PUSH1 0x0 DUP2 SLOAD DUP1 SWAP3 SWAP2 SWAP1 PUSH2 0x4B9 SWAP1 PUSH2 0x1234 JUMP JUMPDEST SWAP2 SWAP1 POP SSTORE POP DUP1 PUSH1 0x7 PUSH1 0x0 PUSH1 0x4 SLOAD DUP2 MSTORE PUSH1 0x20 ADD SWAP1 DUP2 MSTORE PUSH1 0x20 ADD PUSH1 0x0 KECCAK256 PUSH1 0x0 DUP3 ADD MLOAD DUP2 PUSH1 0x0 ADD PUSH1 0x0 PUSH2 0x100 EXP DUP2 SLOAD DUP2 PUSH20 0xFFFFFFFFFFFFFFFFFFFFFFFFFFFFFFFFFFFFFFFF MUL NOT AND SWAP1 DUP4 PUSH20 0xFFFFFFFFFFFFFFFFFFFFFFFFFFFFFFFFFFFFFFFF AND MUL OR SWAP1 SSTORE POP PUSH1 0x20 DUP3 ADD MLOAD DUP2 PUSH1 0x1 ADD SSTORE SWAP1 POP POP POP JUMPDEST JUMPDEST PUSH1 0x1 PUSH1 0x2 PUSH1 0x3 SLOAD PUSH2 0x53C SWAP2 SWAP1 PUSH2 0x1116 JUMP JUMPDEST PUSH2 0x546 SWAP2 SWAP1 PUSH2 0x10C0 JUMP JUMPDEST PUSH1 0x4 SLOAD LT PUSH2 0x557 JUMPI PUSH2 0x556 PUSH2 0xA08 JUMP JUMPDEST JUMPDEST POP SWAP2 SWAP1 POP JUMP JUMPDEST PUSH1 0x1 PUSH1 0x20 MSTORE DUP1 PUSH1 0x0 MSTORE PUSH1 0x40 PUSH1 0x0 KECCAK256 PUSH1 0x0 SWAP2 POP SWAP1 POP DUP1 PUSH1 0x0 ADD DUP1 SLOAD PUSH2 0x580 SWAP1 PUSH2 0x11D1 JUMP JUMPDEST DUP1 PUSH1 0x1F ADD PUSH1 0x20 DUP1 SWAP2 DIV MUL PUSH1 0x20 ADD PUSH1 0x40 MLOAD SWAP1 DUP2 ADD PUSH1 0x40 MSTORE DUP1 SWAP3 SWAP2 SWAP1 DUP2 DUP2 MSTORE PUSH1 0x20 ADD DUP3 DUP1 SLOAD PUSH2 0x5AC SWAP1 PUSH2 0x11D1 JUMP JUMPDEST DUP1 ISZERO PUSH2 0x5F9 JUMPI DUP1 PUSH1 0x1F LT PUSH2 0x5CE JUMPI PUSH2 0x100 DUP1 DUP4 SLOAD DIV MUL DUP4 MSTORE SWAP2 PUSH1 0x20 ADD SWAP2 PUSH2 0x5F9 JUMP JUMPDEST DUP3 ADD SWAP2 SWAP1 PUSH1 0x0 MSTORE PUSH1 0x20 PUSH1 0x0 KECCAK256 SWAP1 JUMPDEST DUP2 SLOAD DUP2 MSTORE SWAP1 PUSH1 0x1 ADD SWAP1 PUSH1 0x20 ADD DUP1 DUP4 GT PUSH2 0x5DC JUMPI DUP3 SWAP1 SUB PUSH1 0x1F AND DUP3 ADD SWAP2 JUMPDEST POP POP POP POP POP SWAP1 DUP1 PUSH1 0x1 ADD PUSH1 0x0 SWAP1 SLOAD SWAP1 PUSH2 0x100 EXP SWAP1 DIV PUSH1 0xFF AND SWAP1 POP DUP3 JUMP JUMPDEST PUSH1 0x0 PUSH1 0x5 PUSH1 0x0 SWAP1 SLOAD SWAP1 PUSH2 0x100 EXP SWAP1 DIV PUSH20 0xFFFFFFFFFFFFFFFFFFFFFFFFFFFFFFFFFFFFFFFF AND PUSH20 0xFFFFFFFFFFFFFFFFFFFFFFFFFFFFFFFFFFFFFFFF AND CALLER PUSH20 0xFFFFFFFFFFFFFFFFFFFFFFFFFFFFFFFFFFFFFFFF AND EQ PUSH2 0x6A8 JUMPI PUSH1 0x40 MLOAD PUSH32 0x8C379A000000000000000000000000000000000000000000000000000000000 DUP2 MSTORE PUSH1 0x4 ADD PUSH2 0x69F SWAP1 PUSH2 0xFF3 JUMP JUMPDEST PUSH1 0x40 MLOAD DUP1 SWAP2 SUB SWAP1 REVERT JUMPDEST PUSH2 0x6B0 PUSH2 0xB6E JUMP JUMPDEST DUP3 DUP2 PUSH1 0x0 ADD DUP2 SWAP1 MSTORE POP PUSH1 0x0 DUP2 PUSH1 0x20 ADD SWAP1 ISZERO ISZERO SWAP1 DUP2 ISZERO ISZERO DUP2 MSTORE POP POP DUP1 PUSH1 0x1 PUSH1 0x0 DUP7 PUSH20 0xFFFFFFFFFFFFFFFFFFFFFFFFFFFFFFFFFFFFFFFF AND PUSH20 0xFFFFFFFFFFFFFFFFFFFFFFFFFFFFFFFFFFFFFFFF AND DUP2 MSTORE PUSH1 0x20 ADD SWAP1 DUP2 MSTORE PUSH1 0x20 ADD PUSH1 0x0 KECCAK256 PUSH1 0x0 DUP3 ADD MLOAD DUP2 PUSH1 0x0 ADD SWAP1 DUP1 MLOAD SWAP1 PUSH1 0x20 ADD SWAP1 PUSH2 0x726 SWAP3 SWAP2 SWAP1 PUSH2 0xB8A JUMP JUMPDEST POP PUSH1 0x20 DUP3 ADD MLOAD DUP2 PUSH1 0x1 ADD PUSH1 0x0 PUSH2 0x100 EXP DUP2 SLOAD DUP2 PUSH1 0xFF MUL NOT AND SWAP1 DUP4 ISZERO ISZERO MUL OR SWAP1 SSTORE POP SWAP1 POP POP PUSH1 0x3 PUSH1 0x0 DUP2 SLOAD DUP1 SWAP3 SWAP2 SWAP1 PUSH2 0x75D SWAP1 PUSH2 0x1234 JUMP JUMPDEST SWAP2 SWAP1 POP SSTORE POP PUSH1 0x3 SLOAD SWAP2 POP POP SWAP3 SWAP2 POP POP JUMP JUMPDEST PUSH1 0x3 SLOAD DUP2 JUMP JUMPDEST PUSH1 0x5 PUSH1 0x0 SWAP1 SLOAD SWAP1 PUSH2 0x100 EXP SWAP1 DIV PUSH20 0xFFFFFFFFFFFFFFFFFFFFFFFFFFFFFFFFFFFFFFFF AND DUP2 JUMP JUMPDEST PUSH1 0x7 PUSH1 0x20 MSTORE DUP1 PUSH1 0x0 MSTORE PUSH1 0x40 PUSH1 0x0 KECCAK256 PUSH1 0x0 SWAP2 POP SWAP1 POP DUP1 PUSH1 0x0 ADD PUSH1 0x0 SWAP1 SLOAD SWAP1 PUSH2 0x100 EXP SWAP1 DIV PUSH20 0xFFFFFFFFFFFFFFFFFFFFFFFFFFFFFFFFFFFFFFFF AND SWAP1 DUP1 PUSH1 0x1 ADD SLOAD SWAP1 POP DUP3 JUMP JUMPDEST PUSH1 0x0 PUSH1 0x5 PUSH1 0x0 SWAP1 SLOAD SWAP1 PUSH2 0x100 EXP SWAP1 DIV PUSH20 0xFFFFFFFFFFFFFFFFFFFFFFFFFFFFFFFFFFFFFFFF AND PUSH20 0xFFFFFFFFFFFFFFFFFFFFFFFFFFFFFFFFFFFFFFFF AND CALLER PUSH20 0xFFFFFFFFFFFFFFFFFFFFFFFFFFFFFFFFFFFFFFFF AND EQ PUSH2 0x870 JUMPI PUSH1 0x40 MLOAD PUSH32 0x8C379A000000000000000000000000000000000000000000000000000000000 DUP2 MSTORE PUSH1 0x4 ADD PUSH2 0x867 SWAP1 PUSH2 0xFF3 JUMP JUMPDEST PUSH1 0x40 MLOAD DUP1 SWAP2 SUB SWAP1 REVERT JUMPDEST PUSH1 0x2 PUSH1 0x0 DUP2 SLOAD DUP1 SWAP3 SWAP2 SWAP1 PUSH2 0x883 SWAP1 PUSH2 0x1234 JUMP JUMPDEST SWAP2 SWAP1 POP SSTORE POP DUP2 PUSH1 0x0 DUP1 PUSH1 0x2 SLOAD DUP2 MSTORE PUSH1 0x20 ADD SWAP1 DUP2 MSTORE PUSH1 0x20 ADD PUSH1 0x0 KECCAK256 SWAP1 DUP1 MLOAD SWAP1 PUSH1 0x20 ADD SWAP1 PUSH2 0x8B0 SWAP3 SWAP2 SWAP1 PUSH2 0xB8A JUMP JUMPDEST POP PUSH1 0x2 SLOAD SWAP1 POP SWAP2 SWAP1 POP JUMP JUMPDEST PUSH1 0x9 PUSH1 0x0 SWAP1 SLOAD SWAP1 PUSH2 0x100 EXP SWAP1 DIV PUSH1 0xFF AND DUP2 JUMP JUMPDEST PUSH1 0x4 SLOAD DUP2 JUMP JUMPDEST PUSH1 0x0 PUSH1 0x20 MSTORE DUP1 PUSH1 0x0 MSTORE PUSH1 0x40 PUSH1 0x0 KECCAK256 PUSH1 0x0 SWAP2 POP SWAP1 POP DUP1 SLOAD PUSH2 0x8F3 SWAP1 PUSH2 0x11D1 JUMP JUMPDEST DUP1 PUSH1 0x1F ADD PUSH1 0x20 DUP1 SWAP2 DIV MUL PUSH1 0x20 ADD PUSH1 0x40 MLOAD SWAP1 DUP2 ADD PUSH1 0x40 MSTORE DUP1 SWAP3 SWAP2 SWAP1 DUP2 DUP2 MSTORE PUSH1 0x20 ADD DUP3 DUP1 SLOAD PUSH2 0x91F SWAP1 PUSH2 0x11D1 JUMP JUMPDEST DUP1 ISZERO PUSH2 0x96C JUMPI DUP1 PUSH1 0x1F LT PUSH2 0x941 JUMPI PUSH2 0x100 DUP1 DUP4 SLOAD DIV MUL DUP4 MSTORE SWAP2 PUSH1 0x20 ADD SWAP2 PUSH2 0x96C JUMP JUMPDEST DUP3 ADD SWAP2 SWAP1 PUSH1 0x0 MSTORE PUSH1 0x20 PUSH1 0x0 KECCAK256 SWAP1 JUMPDEST DUP2 SLOAD DUP2 MSTORE SWAP1 PUSH1 0x1 ADD SWAP1 PUSH1 0x20 ADD DUP1 DUP4 GT PUSH2 0x94F JUMPI DUP3 SWAP1 SUB PUSH1 0x1F AND DUP3 ADD SWAP2 JUMPDEST POP POP POP POP POP DUP2 JUMP JUMPDEST PUSH1 0x2 SLOAD DUP2 JUMP JUMPDEST PUSH1 0x6 DUP1 SLOAD PUSH2 0x987 SWAP1 PUSH2 0x11D1 JUMP JUMPDEST DUP1 PUSH1 0x1F ADD PUSH1 0x20 DUP1 SWAP2 DIV MUL PUSH1 0x20 ADD PUSH1 0x40 MLOAD SWAP1 DUP2 ADD PUSH1 0x40 MSTORE DUP1 SWAP3 SWAP2 SWAP1 DUP2 DUP2 MSTORE PUSH1 0x20 ADD DUP3 DUP1 SLOAD PUSH2 0x9B3 SWAP1 PUSH2 0x11D1 JUMP JUMPDEST DUP1 ISZERO PUSH2 0xA00 JUMPI DUP1 PUSH1 0x1F LT PUSH2 0x9D5 JUMPI PUSH2 0x100 DUP1 DUP4 SLOAD DIV MUL DUP4 MSTORE SWAP2 PUSH1 0x20 ADD SWAP2 PUSH2 0xA00 JUMP JUMPDEST DUP3 ADD SWAP2 SWAP1 PUSH1 0x0 MSTORE PUSH1 0x20 PUSH1 0x0 KECCAK256 SWAP1 JUMPDEST DUP2 SLOAD DUP2 MSTORE SWAP1 PUSH1 0x1 ADD SWAP1 PUSH1 0x20 ADD DUP1 DUP4 GT PUSH2 0x9E3 JUMPI DUP3 SWAP1 SUB PUSH1 0x1F AND DUP3 ADD SWAP2 JUMPDEST POP POP POP POP POP DUP2 JUMP JUMPDEST PUSH1 0x0 DUP1 PUSH1 0x0 PUSH1 0x1 SWAP1 POP JUMPDEST PUSH1 0x4 SLOAD DUP2 GT PUSH2 0xAF2 JUMPI PUSH1 0x0 PUSH1 0x1 SWAP1 POP PUSH1 0x0 PUSH1 0x8 PUSH1 0x0 PUSH1 0x7 PUSH1 0x0 DUP7 DUP2 MSTORE PUSH1 0x20 ADD SWAP1 DUP2 MSTORE PUSH1 0x20 ADD PUSH1 0x0 KECCAK256 PUSH1 0x1 ADD SLOAD DUP2 MSTORE PUSH1 0x20 ADD SWAP1 DUP2 MSTORE PUSH1 0x20 ADD PUSH1 0x0 KECCAK256 SLOAD GT ISZERO PUSH2 0xA8B JUMPI PUSH1 0x8 PUSH1 0x0 PUSH1 0x7 PUSH1 0x0 DUP6 DUP2 MSTORE PUSH1 0x20 ADD SWAP1 DUP2 MSTORE PUSH1 0x20 ADD PUSH1 0x0 KECCAK256 PUSH1 0x1 ADD SLOAD DUP2 MSTORE PUSH1 0x20 ADD SWAP1 DUP2 MSTORE PUSH1 0x20 ADD PUSH1 0x0 KECCAK256 SLOAD DUP2 PUSH2 0xA88 SWAP2 SWAP1 PUSH2 0x10C0 JUMP JUMPDEST SWAP1 POP JUMPDEST DUP1 PUSH1 0x8 PUSH1 0x0 PUSH1 0x7 PUSH1 0x0 DUP7 DUP2 MSTORE PUSH1 0x20 ADD SWAP1 DUP2 MSTORE PUSH1 0x20 ADD PUSH1 0x0 KECCAK256 PUSH1 0x1 ADD SLOAD DUP2 MSTORE PUSH1 0x20 ADD SWAP1 DUP2 MSTORE PUSH1 0x20 ADD PUSH1 0x0 KECCAK256 DUP2 SWAP1 SSTORE POP DUP4 DUP2 GT ISZERO PUSH2 0xADE JUMPI DUP1 SWAP4 POP PUSH1 0x7 PUSH1 0x0 DUP4 DUP2 MSTORE PUSH1 0x20 ADD SWAP1 DUP2 MSTORE PUSH1 0x20 ADD PUSH1 0x0 KECCAK256 PUSH1 0x1 ADD SLOAD SWAP3 POP JUMPDEST POP DUP1 DUP1 PUSH2 0xAEA SWAP1 PUSH2 0x1234 JUMP JUMPDEST SWAP2 POP POP PUSH2 0xA12 JUMP JUMPDEST POP PUSH1 0x0 DUP1 DUP3 DUP2 MSTORE PUSH1 0x20 ADD SWAP1 DUP2 MSTORE PUSH1 0x20 ADD PUSH1 0x0 KECCAK256 PUSH1 0x6 SWAP1 DUP1 SLOAD PUSH2 0xB13 SWAP1 PUSH2 0x11D1 JUMP JUMPDEST PUSH2 0xB1E SWAP3 SWAP2 SWAP1 PUSH2 0xC10 JUMP JUMPDEST POP PUSH1 0x0 PUSH1 0x9 PUSH1 0x0 PUSH2 0x100 EXP DUP2 SLOAD DUP2 PUSH1 0xFF MUL NOT AND SWAP1 DUP4 ISZERO ISZERO MUL OR SWAP1 SSTORE POP POP POP JUMP JUMPDEST PUSH1 0x40 MLOAD DUP1 PUSH1 0x40 ADD PUSH1 0x40 MSTORE DUP1 PUSH1 0x0 PUSH20 0xFFFFFFFFFFFFFFFFFFFFFFFFFFFFFFFFFFFFFFFF AND DUP2 MSTORE PUSH1 0x20 ADD PUSH1 0x0 DUP2 MSTORE POP SWAP1 JUMP JUMPDEST PUSH1 0x40 MLOAD DUP1 PUSH1 0x40 ADD PUSH1 0x40 MSTORE DUP1 PUSH1 0x60 DUP2 MSTORE PUSH1 0x20 ADD PUSH1 0x0 ISZERO ISZERO DUP2 MSTORE POP SWAP1 JUMP JUMPDEST DUP3 DUP1 SLOAD PUSH2 0xB96 SWAP1 PUSH2 0x11D1 JUMP JUMPDEST SWAP1 PUSH1 0x0 MSTORE PUSH1 0x20 PUSH1 0x0 KECCAK256 SWAP1 PUSH1 0x1F ADD PUSH1 0x20 SWAP1 DIV DUP2 ADD SWAP3 DUP3 PUSH2 0xBB8 JUMPI PUSH1 0x0 DUP6 SSTORE PUSH2 0xBFF JUMP JUMPDEST DUP3 PUSH1 0x1F LT PUSH2 0xBD1 JUMPI DUP1 MLOAD PUSH1 0xFF NOT AND DUP4 DUP1 ADD OR DUP6 SSTORE PUSH2 0xBFF JUMP JUMPDEST DUP3 DUP1 ADD PUSH1 0x1 ADD DUP6 SSTORE DUP3 ISZERO PUSH2 0xBFF JUMPI SWAP2 DUP3 ADD JUMPDEST DUP3 DUP2 GT ISZERO PUSH2 0xBFE JUMPI DUP3 MLOAD DUP3 SSTORE SWAP2 PUSH1 0x20 ADD SWAP2 SWAP1 PUSH1 0x1 ADD SWAP1 PUSH2 0xBE3 JUMP JUMPDEST JUMPDEST POP SWAP1 POP PUSH2 0xC0C SWAP2 SWAP1 PUSH2 0xC9D JUMP JUMPDEST POP SWAP1 JUMP JUMPDEST DUP3 DUP1 SLOAD PUSH2 0xC1C SWAP1 PUSH2 0x11D1 JUMP JUMPDEST SWAP1 PUSH1 0x0 MSTORE PUSH1 0x20 PUSH1 0x0 KECCAK256 SWAP1 PUSH1 0x1F ADD PUSH1 0x20 SWAP1 DIV DUP2 ADD SWAP3 DUP3 PUSH2 0xC3E JUMPI PUSH1 0x0 DUP6 SSTORE PUSH2 0xC8C JUMP JUMPDEST DUP3 PUSH1 0x1F LT PUSH2 0xC4F JUMPI DUP1 SLOAD DUP6 SSTORE PUSH2 0xC8C JUMP JUMPDEST DUP3 DUP1 ADD PUSH1 0x1 ADD DUP6 SSTORE DUP3 ISZERO PUSH2 0xC8C JUMPI PUSH1 0x0 MSTORE PUSH1 0x20 PUSH1 0x0 KECCAK256 SWAP2 PUSH1 0x1F ADD PUSH1 0x20 SWAP1 DIV DUP3 ADD JUMPDEST DUP3 DUP2 GT ISZERO PUSH2 0xC8B JUMPI DUP3 SLOAD DUP3 SSTORE SWAP2 PUSH1 0x1 ADD SWAP2 SWAP1 PUSH1 0x1 ADD SWAP1 PUSH2 0xC70 JUMP JUMPDEST JUMPDEST POP SWAP1 POP PUSH2 0xC99 SWAP2 SWAP1 PUSH2 0xC9D JUMP JUMPDEST POP SWAP1 JUMP JUMPDEST JUMPDEST DUP1 DUP3 GT ISZERO PUSH2 0xCB6 JUMPI PUSH1 0x0 DUP2 PUSH1 0x0 SWAP1 SSTORE POP PUSH1 0x1 ADD PUSH2 0xC9E JUMP JUMPDEST POP SWAP1 JUMP JUMPDEST PUSH1 0x0 PUSH2 0xCCD PUSH2 0xCC8 DUP5 PUSH2 0x1073 JUMP JUMPDEST PUSH2 0x104E JUMP JUMPDEST SWAP1 POP DUP3 DUP2 MSTORE PUSH1 0x20 DUP2 ADD DUP5 DUP5 DUP5 ADD GT ISZERO PUSH2 0xCE9 JUMPI PUSH2 0xCE8 PUSH2 0x133E JUMP JUMPDEST JUMPDEST PUSH2 0xCF4 DUP5 DUP3 DUP6 PUSH2 0x118F JUMP JUMPDEST POP SWAP4 SWAP3 POP POP POP JUMP JUMPDEST PUSH1 0x0 DUP2 CALLDATALOAD SWAP1 POP PUSH2 0xD0B DUP2 PUSH2 0x1425 JUMP JUMPDEST SWAP3 SWAP2 POP POP JUMP JUMPDEST PUSH1 0x0 DUP3 PUSH1 0x1F DUP4 ADD SLT PUSH2 0xD26 JUMPI PUSH2 0xD25 PUSH2 0x1339 JUMP JUMPDEST JUMPDEST DUP2 CALLDATALOAD PUSH2 0xD36 DUP5 DUP3 PUSH1 0x20 DUP7 ADD PUSH2 0xCBA JUMP JUMPDEST SWAP2 POP POP SWAP3 SWAP2 POP POP JUMP JUMPDEST PUSH1 0x0 DUP2 CALLDATALOAD SWAP1 POP PUSH2 0xD4E DUP2 PUSH2 0x143C JUMP JUMPDEST SWAP3 SWAP2 POP POP JUMP JUMPDEST PUSH1 0x0 PUSH1 0x20 DUP3 DUP5 SUB SLT ISZERO PUSH2 0xD6A JUMPI PUSH2 0xD69 PUSH2 0x1348 JUMP JUMPDEST JUMPDEST PUSH1 0x0 PUSH2 0xD78 DUP5 DUP3 DUP6 ADD PUSH2 0xCFC JUMP JUMPDEST SWAP2 POP POP SWAP3 SWAP2 POP POP JUMP JUMPDEST PUSH1 0x0 DUP1 PUSH1 0x40 DUP4 DUP6 SUB SLT ISZERO PUSH2 0xD98 JUMPI PUSH2 0xD97 PUSH2 0x1348 JUMP JUMPDEST JUMPDEST PUSH1 0x0 PUSH2 0xDA6 DUP6 DUP3 DUP7 ADD PUSH2 0xCFC JUMP JUMPDEST SWAP3 POP POP PUSH1 0x20 DUP4 ADD CALLDATALOAD PUSH8 0xFFFFFFFFFFFFFFFF DUP2 GT ISZERO PUSH2 0xDC7 JUMPI PUSH2 0xDC6 PUSH2 0x1343 JUMP JUMPDEST JUMPDEST PUSH2 0xDD3 DUP6 DUP3 DUP7 ADD PUSH2 0xD11 JUMP JUMPDEST SWAP2 POP POP SWAP3 POP SWAP3 SWAP1 POP JUMP JUMPDEST PUSH1 0x0 PUSH1 0x20 DUP3 DUP5 SUB SLT ISZERO PUSH2 0xDF3 JUMPI PUSH2 0xDF2 PUSH2 0x1348 JUMP JUMPDEST JUMPDEST PUSH1 0x0 DUP3 ADD CALLDATALOAD PUSH8 0xFFFFFFFFFFFFFFFF DUP2 GT ISZERO PUSH2 0xE11 JUMPI PUSH2 0xE10 PUSH2 0x1343 JUMP JUMPDEST JUMPDEST PUSH2 0xE1D DUP5 DUP3 DUP6 ADD PUSH2 0xD11 JUMP JUMPDEST SWAP2 POP POP SWAP3 SWAP2 POP POP JUMP JUMPDEST PUSH1 0x0 PUSH1 0x20 DUP3 DUP5 SUB SLT ISZERO PUSH2 0xE3C JUMPI PUSH2 0xE3B PUSH2 0x1348 JUMP JUMPDEST JUMPDEST PUSH1 0x0 PUSH2 0xE4A DUP5 DUP3 DUP6 ADD PUSH2 0xD3F JUMP JUMPDEST SWAP2 POP POP SWAP3 SWAP2 POP POP JUMP JUMPDEST PUSH2 0xE5C DUP2 PUSH2 0x1147 JUMP JUMPDEST DUP3 MSTORE POP POP JUMP JUMPDEST PUSH2 0xE6B DUP2 PUSH2 0x1159 JUMP JUMPDEST DUP3 MSTORE POP POP JUMP JUMPDEST PUSH1 0x0 PUSH2 0xE7C DUP3 PUSH2 0x10A4 JUMP JUMPDEST PUSH2 0xE86 DUP2 DUP6 PUSH2 0x10AF JUMP JUMPDEST SWAP4 POP PUSH2 0xE96 DUP2 DUP6 PUSH1 0x20 DUP7 ADD PUSH2 0x119E JUMP JUMPDEST PUSH2 0xE9F DUP2 PUSH2 0x134D JUMP JUMPDEST DUP5 ADD SWAP2 POP POP SWAP3 SWAP2 POP POP JUMP JUMPDEST PUSH1 0x0 PUSH2 0xEB7 PUSH1 0x13 DUP4 PUSH2 0x10AF JUMP JUMPDEST SWAP2 POP PUSH2 0xEC2 DUP3 PUSH2 0x135E JUMP JUMPDEST PUSH1 0x20 DUP3 ADD SWAP1 POP SWAP2 SWAP1 POP JUMP JUMPDEST PUSH1 0x0 PUSH2 0xEDA PUSH1 0x23 DUP4 PUSH2 0x10AF JUMP JUMPDEST SWAP2 POP PUSH2 0xEE5 DUP3 PUSH2 0x1387 JUMP JUMPDEST PUSH1 0x40 DUP3 ADD SWAP1 POP SWAP2 SWAP1 POP JUMP JUMPDEST PUSH1 0x0 PUSH2 0xEFD PUSH1 0x23 DUP4 PUSH2 0x10AF JUMP JUMPDEST SWAP2 POP PUSH2 0xF08 DUP3 PUSH2 0x13D6 JUMP JUMPDEST PUSH1 0x40 DUP3 ADD SWAP1 POP SWAP2 SWAP1 POP JUMP JUMPDEST PUSH2 0xF1C DUP2 PUSH2 0x1185 JUMP JUMPDEST DUP3 MSTORE POP POP JUMP JUMPDEST PUSH1 0x0 PUSH1 0x20 DUP3 ADD SWAP1 POP PUSH2 0xF37 PUSH1 0x0 DUP4 ADD DUP5 PUSH2 0xE53 JUMP JUMPDEST SWAP3 SWAP2 POP POP JUMP JUMPDEST PUSH1 0x0 PUSH1 0x40 DUP3 ADD SWAP1 POP PUSH2 0xF52 PUSH1 0x0 DUP4 ADD DUP6 PUSH2 0xE53 JUMP JUMPDEST PUSH2 0xF5F PUSH1 0x20 DUP4 ADD DUP5 PUSH2 0xF13 JUMP JUMPDEST SWAP4 SWAP3 POP POP POP JUMP JUMPDEST PUSH1 0x0 PUSH1 0x20 DUP3 ADD SWAP1 POP PUSH2 0xF7B PUSH1 0x0 DUP4 ADD DUP5 PUSH2 0xE62 JUMP JUMPDEST SWAP3 SWAP2 POP POP JUMP JUMPDEST PUSH1 0x0 PUSH1 0x20 DUP3 ADD SWAP1 POP DUP2 DUP2 SUB PUSH1 0x0 DUP4 ADD MSTORE PUSH2 0xF9B DUP2 DUP5 PUSH2 0xE71 JUMP JUMPDEST SWAP1 POP SWAP3 SWAP2 POP POP JUMP JUMPDEST PUSH1 0x0 PUSH1 0x40 DUP3 ADD SWAP1 POP DUP2 DUP2 SUB PUSH1 0x0 DUP4 ADD MSTORE PUSH2 0xFBD DUP2 DUP6 PUSH2 0xE71 JUMP JUMPDEST SWAP1 POP PUSH2 0xFCC PUSH1 0x20 DUP4 ADD DUP5 PUSH2 0xE62 JUMP JUMPDEST SWAP4 SWAP3 POP POP POP JUMP JUMPDEST PUSH1 0x0 PUSH1 0x20 DUP3 ADD SWAP1 POP DUP2 DUP2 SUB PUSH1 0x0 DUP4 ADD MSTORE PUSH2 0xFEC DUP2 PUSH2 0xEAA JUMP JUMPDEST SWAP1 POP SWAP2 SWAP1 POP JUMP JUMPDEST PUSH1 0x0 PUSH1 0x20 DUP3 ADD SWAP1 POP DUP2 DUP2 SUB PUSH1 0x0 DUP4 ADD MSTORE PUSH2 0x100C DUP2 PUSH2 0xECD JUMP JUMPDEST SWAP1 POP SWAP2 SWAP1 POP JUMP JUMPDEST PUSH1 0x0 PUSH1 0x20 DUP3 ADD SWAP1 POP DUP2 DUP2 SUB PUSH1 0x0 DUP4 ADD MSTORE PUSH2 0x102C DUP2 PUSH2 0xEF0 JUMP JUMPDEST SWAP1 POP SWAP2 SWAP1 POP JUMP JUMPDEST PUSH1 0x0 PUSH1 0x20 DUP3 ADD SWAP1 POP PUSH2 0x1048 PUSH1 0x0 DUP4 ADD DUP5 PUSH2 0xF13 JUMP JUMPDEST SWAP3 SWAP2 POP POP JUMP JUMPDEST PUSH1 0x0 PUSH2 0x1058 PUSH2 0x1069 JUMP JUMPDEST SWAP1 POP PUSH2 0x1064 DUP3 DUP3 PUSH2 0x1203 JUMP JUMPDEST SWAP2 SWAP1 POP JUMP JUMPDEST PUSH1 0x0 PUSH1 0x40 MLOAD SWAP1 POP SWAP1 JUMP JUMPDEST PUSH1 0x0 PUSH8 0xFFFFFFFFFFFFFFFF DUP3 GT ISZERO PUSH2 0x108E JUMPI PUSH2 0x108D PUSH2 0x130A JUMP JUMPDEST JUMPDEST PUSH2 0x1097 DUP3 PUSH2 0x134D JUMP JUMPDEST SWAP1 POP PUSH1 0x20 DUP2 ADD SWAP1 POP SWAP2 SWAP1 POP JUMP JUMPDEST PUSH1 0x0 DUP2 MLOAD SWAP1 POP SWAP2 SWAP1 POP JUMP JUMPDEST PUSH1 0x0 DUP3 DUP3 MSTORE PUSH1 0x20 DUP3 ADD SWAP1 POP SWAP3 SWAP2 POP POP JUMP JUMPDEST PUSH1 0x0 PUSH2 0x10CB DUP3 PUSH2 0x1185 JUMP JUMPDEST SWAP2 POP PUSH2 0x10D6 DUP4 PUSH2 0x1185 JUMP JUMPDEST SWAP3 POP DUP3 PUSH32 0xFFFFFFFFFFFFFFFFFFFFFFFFFFFFFFFFFFFFFFFFFFFFFFFFFFFFFFFFFFFFFFFF SUB DUP3 GT ISZERO PUSH2 0x110B JUMPI PUSH2 0x110A PUSH2 0x127D JUMP JUMPDEST JUMPDEST DUP3 DUP3 ADD SWAP1 POP SWAP3 SWAP2 POP POP JUMP JUMPDEST PUSH1 0x0 PUSH2 0x1121 DUP3 PUSH2 0x1185 JUMP JUMPDEST SWAP2 POP PUSH2 0x112C DUP4 PUSH2 0x1185 JUMP JUMPDEST SWAP3 POP DUP3 PUSH2 0x113C JUMPI PUSH2 0x113B PUSH2 0x12AC JUMP JUMPDEST JUMPDEST DUP3 DUP3 DIV SWAP1 POP SWAP3 SWAP2 POP POP JUMP JUMPDEST PUSH1 0x0 PUSH2 0x1152 DUP3 PUSH2 0x1165 JUMP JUMPDEST SWAP1 POP SWAP2 SWAP1 POP JUMP JUMPDEST PUSH1 0x0 DUP2 ISZERO ISZERO SWAP1 POP SWAP2 SWAP1 POP JUMP JUMPDEST PUSH1 0x0 PUSH20 0xFFFFFFFFFFFFFFFFFFFFFFFFFFFFFFFFFFFFFFFF DUP3 AND SWAP1 POP SWAP2 SWAP1 POP JUMP JUMPDEST PUSH1 0x0 DUP2 SWAP1 POP SWAP2 SWAP1 POP JUMP JUMPDEST DUP3 DUP2 DUP4 CALLDATACOPY PUSH1 0x0 DUP4 DUP4 ADD MSTORE POP POP POP JUMP JUMPDEST PUSH1 0x0 JUMPDEST DUP4 DUP2 LT ISZERO PUSH2 0x11BC JUMPI DUP1 DUP3 ADD MLOAD DUP2 DUP5 ADD MSTORE PUSH1 0x20 DUP2 ADD SWAP1 POP PUSH2 0x11A1 JUMP JUMPDEST DUP4 DUP2 GT ISZERO PUSH2 0x11CB JUMPI PUSH1 0x0 DUP5 DUP5 ADD MSTORE JUMPDEST POP POP POP POP JUMP JUMPDEST PUSH1 0x0 PUSH1 0x2 DUP3 DIV SWAP1 POP PUSH1 0x1 DUP3 AND DUP1 PUSH2 0x11E9 JUMPI PUSH1 0x7F DUP3 AND SWAP2 POP JUMPDEST PUSH1 0x20 DUP3 LT DUP2 EQ ISZERO PUSH2 0x11FD JUMPI PUSH2 0x11FC PUSH2 0x12DB JUMP JUMPDEST JUMPDEST POP SWAP2 SWAP1 POP JUMP JUMPDEST PUSH2 0x120C DUP3 PUSH2 0x134D JUMP JUMPDEST DUP2 ADD DUP2 DUP2 LT PUSH8 0xFFFFFFFFFFFFFFFF DUP3 GT OR ISZERO PUSH2 0x122B JUMPI PUSH2 0x122A PUSH2 0x130A JUMP JUMPDEST JUMPDEST DUP1 PUSH1 0x40 MSTORE POP POP POP JUMP JUMPDEST PUSH1 0x0 PUSH2 0x123F DUP3 PUSH2 0x1185 JUMP JUMPDEST SWAP2 POP PUSH32 0xFFFFFFFFFFFFFFFFFFFFFFFFFFFFFFFFFFFFFFFFFFFFFFFFFFFFFFFFFFFFFFFF DUP3 EQ ISZERO PUSH2 0x1272 JUMPI PUSH2 0x1271 PUSH2 0x127D JUMP JUMPDEST JUMPDEST PUSH1 0x1 DUP3 ADD SWAP1 POP SWAP2 SWAP1 POP JUMP JUMPDEST PUSH32 0x4E487B7100000000000000000000000000000000000000000000000000000000 PUSH1 0x0 MSTORE PUSH1 0x11 PUSH1 0x4 MSTORE PUSH1 0x24 PUSH1 0x0 REVERT JUMPDEST PUSH32 0x4E487B7100000000000000000000000000000000000000000000000000000000 PUSH1 0x0 MSTORE PUSH1 0x12 PUSH1 0x4 MSTORE PUSH1 0x24 PUSH1 0x0 REVERT JUMPDEST PUSH32 0x4E487B7100000000000000000000000000000000000000000000000000000000 PUSH1 0x0 MSTORE PUSH1 0x22 PUSH1 0x4 MSTORE PUSH1 0x24 PUSH1 0x0 REVERT JUMPDEST PUSH32 0x4E487B7100000000000000000000000000000000000000000000000000000000 PUSH1 0x0 MSTORE PUSH1 0x41 PUSH1 0x4 MSTORE PUSH1 0x24 PUSH1 0x0 REVERT JUMPDEST PUSH1 0x0 DUP1 REVERT JUMPDEST PUSH1 0x0 DUP1 REVERT JUMPDEST PUSH1 0x0 DUP1 REVERT JUMPDEST PUSH1 0x0 DUP1 REVERT JUMPDEST PUSH1 0x0 PUSH1 0x1F NOT PUSH1 0x1F DUP4 ADD AND SWAP1 POP SWAP2 SWAP1 POP JUMP JUMPDEST PUSH32 0x43616E206F6E6C7920766F7465206F6E63652E00000000000000000000000000 PUSH1 0x0 DUP3 ADD MSTORE POP JUMP JUMPDEST PUSH32 0x43616E206F6E6C7920626520657865637574656420627920746865206D616E61 PUSH1 0x0 DUP3 ADD MSTORE PUSH32 0x6765720000000000000000000000000000000000000000000000000000000000 PUSH1 0x20 DUP3 ADD MSTORE POP JUMP JUMPDEST PUSH32 0x43616E20766F7465206F6E6C79207768696C6520766F74696E67206973206F70 PUSH1 0x0 DUP3 ADD MSTORE PUSH32 0x656E2E0000000000000000000000000000000000000000000000000000000000 PUSH1 0x20 DUP3 ADD MSTORE POP JUMP JUMPDEST PUSH2 0x142E DUP2 PUSH2 0x1147 JUMP JUMPDEST DUP2 EQ PUSH2 0x1439 JUMPI PUSH1 0x0 DUP1 REVERT JUMPDEST POP JUMP JUMPDEST PUSH2 0x1445 DUP2 PUSH2 0x1185 JUMP JUMPDEST DUP2 EQ PUSH2 0x1450 JUMPI PUSH1 0x0 DUP1 REVERT JUMPDEST POP JUMP INVALID LOG2 PUSH5 0x6970667358 0x22 SLT KECCAK256 PUSH12 0xB18833467B4EEFA93088F6B1 PUSH13 0x90D26D218AEFFE2FB9BF8ED79C MUL REVERT 0xCF 0x21 SWAP8 PUSH5 0x736F6C6343 STOP ADDMOD SDIV STOP CALLER "
				},
				"gasEstimates": {
					"creation": {
						"codeDepositCost": "1051400",
						"executionCost": "infinite",
						"totalCost": "infinite"
					},
					"external": {
						"addFriend(address,string)": "infinite",
						"addRestaurant(string)": "infinite",
						"doVote(uint256)": "infinite",
						"friends(address)": "infinite",
						"manager()": "2603",
						"numFriends()": "2496",
						"numRestaurants()": "2517",
						"numVotes()": "2473",
						"restaurants(uint256)": "infinite",
						"voteOpen()": "2493",
						"votedRestaurant()": "infinite",
						"votes(uint256)": "infinite"
					},
					"internal": {
						"finalResult()": "infinite"
					}
				},
				"methodIdentifiers": {
					"addFriend(address,string)": "3b9f708d",
					"addRestaurant(string)": "6d77bd3e",
					"doVote(uint256)": "124258c6",
					"friends(address)": "1ddabf7a",
					"manager()": "481c6a75",
					"numFriends()": "47098f36",
					"numRestaurants()": "b798867f",
					"numVotes()": "a3bef4d7",
					"restaurants(uint256)": "ad5461d8",
					"voteOpen()": "788d3851",
					"votedRestaurant()": "c1c16efc",
					"votes(uint256)": "5df81330"
				}
			},
			"storageLayout": {
				"storage": [
					{
						"astId": 16,
						"contract": "contracts/LunchVenue_updated.sol:LunchVenue_updated",
						"label": "restaurants",
						"offset": 0,
						"slot": "0",
						"type": "t_mapping(t_uint256,t_string_storage)"
					},
					{
						"astId": 21,
						"contract": "contracts/LunchVenue_updated.sol:LunchVenue_updated",
						"label": "friends",
						"offset": 0,
						"slot": "1",
						"type": "t_mapping(t_address,t_struct(Friend)7_storage)"
					},
					{
						"astId": 24,
						"contract": "contracts/LunchVenue_updated.sol:LunchVenue_updated",
						"label": "numRestaurants",
						"offset": 0,
						"slot": "2",
						"type": "t_uint256"
					},
					{
						"astId": 27,
						"contract": "contracts/LunchVenue_updated.sol:LunchVenue_updated",
						"label": "numFriends",
						"offset": 0,
						"slot": "3",
						"type": "t_uint256"
					},
					{
						"astId": 30,
						"contract": "contracts/LunchVenue_updated.sol:LunchVenue_updated",
						"label": "numVotes",
						"offset": 0,
						"slot": "4",
						"type": "t_uint256"
					},
					{
						"astId": 32,
						"contract": "contracts/LunchVenue_updated.sol:LunchVenue_updated",
						"label": "manager",
						"offset": 0,
						"slot": "5",
						"type": "t_address"
					},
					{
						"astId": 35,
						"contract": "contracts/LunchVenue_updated.sol:LunchVenue_updated",
						"label": "votedRestaurant",
						"offset": 0,
						"slot": "6",
						"type": "t_string_storage"
					},
					{
						"astId": 40,
						"contract": "contracts/LunchVenue_updated.sol:LunchVenue_updated",
						"label": "votes",
						"offset": 0,
						"slot": "7",
						"type": "t_mapping(t_uint256,t_struct(Vote)12_storage)"
					},
					{
						"astId": 44,
						"contract": "contracts/LunchVenue_updated.sol:LunchVenue_updated",
						"label": "_results",
						"offset": 0,
						"slot": "8",
						"type": "t_mapping(t_uint256,t_uint256)"
					},
					{
						"astId": 47,
						"contract": "contracts/LunchVenue_updated.sol:LunchVenue_updated",
						"label": "voteOpen",
						"offset": 0,
						"slot": "9",
						"type": "t_bool"
					}
				],
				"types": {
					"t_address": {
						"encoding": "inplace",
						"label": "address",
						"numberOfBytes": "20"
					},
					"t_bool": {
						"encoding": "inplace",
						"label": "bool",
						"numberOfBytes": "1"
					},
					"t_mapping(t_address,t_struct(Friend)7_storage)": {
						"encoding": "mapping",
						"key": "t_address",
						"label": "mapping(address => struct LunchVenue_updated.Friend)",
						"numberOfBytes": "32",
						"value": "t_struct(Friend)7_storage"
					},
					"t_mapping(t_uint256,t_string_storage)": {
						"encoding": "mapping",
						"key": "t_uint256",
						"label": "mapping(uint256 => string)",
						"numberOfBytes": "32",
						"value": "t_string_storage"
					},
					"t_mapping(t_uint256,t_struct(Vote)12_storage)": {
						"encoding": "mapping",
						"key": "t_uint256",
						"label": "mapping(uint256 => struct LunchVenue_updated.Vote)",
						"numberOfBytes": "32",
						"value": "t_struct(Vote)12_storage"
					},
					"t_mapping(t_uint256,t_uint256)": {
						"encoding": "mapping",
						"key": "t_uint256",
						"label": "mapping(uint256 => uint256)",
						"numberOfBytes": "32",
						"value": "t_uint256"
					},
					"t_string_storage": {
						"encoding": "bytes",
						"label": "string",
						"numberOfBytes": "32"
					},
					"t_struct(Friend)7_storage": {
						"encoding": "inplace",
						"label": "struct LunchVenue_updated.Friend",
						"members": [
							{
								"astId": 4,
								"contract": "contracts/LunchVenue_updated.sol:LunchVenue_updated",
								"label": "name",
								"offset": 0,
								"slot": "0",
								"type": "t_string_storage"
							},
							{
								"astId": 6,
								"contract": "contracts/LunchVenue_updated.sol:LunchVenue_updated",
								"label": "voted",
								"offset": 0,
								"slot": "1",
								"type": "t_bool"
							}
						],
						"numberOfBytes": "64"
					},
					"t_struct(Vote)12_storage": {
						"encoding": "inplace",
						"label": "struct LunchVenue_updated.Vote",
						"members": [
							{
								"astId": 9,
								"contract": "contracts/LunchVenue_updated.sol:LunchVenue_updated",
								"label": "voterAddress",
								"offset": 0,
								"slot": "0",
								"type": "t_address"
							},
							{
								"astId": 11,
								"contract": "contracts/LunchVenue_updated.sol:LunchVenue_updated",
								"label": "restaurant",
								"offset": 0,
								"slot": "1",
								"type": "t_uint256"
							}
						],
						"numberOfBytes": "64"
					},
					"t_uint256": {
						"encoding": "inplace",
						"label": "uint256",
						"numberOfBytes": "32"
					}
				}
			},
			"userdoc": {
				"kind": "user",
				"methods": {
					"addFriend(address,string)": {
						"notice": "Add a new friend to voter list"
					},
					"addRestaurant(string)": {
						"notice": "Add a new restaurant"
					},
					"doVote(uint256)": {
						"notice": "Vote for a restaurant"
					}
				},
				"version": 1
			}
		}
	}
}